{
  "_format": "hh-sol-artifact-1",
  "contractName": "Comptroller",
  "sourceName": "contracts/Bank/Comptroller.sol",
  "abi": [
    {
      "anonymous": false,
      "inputs": [
        {
          "indexed": false,
          "internalType": "address",
          "name": "previousAdmin",
          "type": "address"
        },
        {
          "indexed": false,
          "internalType": "address",
          "name": "newAdmin",
          "type": "address"
        }
      ],
      "name": "AdminChanged",
      "type": "event"
    },
    {
      "anonymous": false,
      "inputs": [
        {
          "indexed": true,
          "internalType": "address",
          "name": "beacon",
          "type": "address"
        }
      ],
      "name": "BeaconUpgraded",
      "type": "event"
    },
    {
      "anonymous": false,
      "inputs": [
        {
          "indexed": false,
          "internalType": "uint256",
          "name": "amountBurned",
          "type": "uint256"
        },
        {
          "indexed": true,
          "internalType": "address",
          "name": "token",
          "type": "address"
        }
      ],
      "name": "BurnToken",
      "type": "event"
    },
    {
      "anonymous": false,
      "inputs": [
        {
          "indexed": false,
          "internalType": "uint256",
          "name": "tokenRate",
          "type": "uint256"
        },
        {
          "indexed": false,
          "internalType": "uint256",
          "name": "amountMinted",
          "type": "uint256"
        },
        {
          "indexed": true,
          "internalType": "address",
          "name": "token",
          "type": "address"
        }
      ],
      "name": "MintToken",
      "type": "event"
    },
    {
      "anonymous": false,
      "inputs": [
        {
          "indexed": true,
          "internalType": "address",
          "name": "previousOwner",
          "type": "address"
        },
        {
          "indexed": true,
          "internalType": "address",
          "name": "newOwner",
          "type": "address"
        }
      ],
      "name": "OwnershipTransferred",
      "type": "event"
    },
    {
      "anonymous": false,
      "inputs": [
        {
          "indexed": true,
          "internalType": "address",
          "name": "implementation",
          "type": "address"
        }
      ],
      "name": "Upgraded",
      "type": "event"
    },
    {
      "inputs": [
        {
          "internalType": "uint256",
          "name": "amount",
          "type": "uint256"
        },
        {
          "internalType": "address",
          "name": "token",
          "type": "address"
        },
        {
          "internalType": "uint256",
          "name": "deadline",
          "type": "uint256"
        }
      ],
      "name": "burn",
      "outputs": [],
      "stateMutability": "nonpayable",
      "type": "function"
    },
    {
      "inputs": [],
      "name": "handle",
      "outputs": [
        {
          "internalType": "contract IHandle",
          "name": "",
          "type": "address"
        }
      ],
      "stateMutability": "view",
      "type": "function"
    },
    {
      "inputs": [],
      "name": "handleAddress",
      "outputs": [
        {
          "internalType": "address",
          "name": "",
          "type": "address"
        }
      ],
      "stateMutability": "view",
      "type": "function"
    },
    {
      "inputs": [],
      "name": "initialize",
      "outputs": [],
      "stateMutability": "nonpayable",
      "type": "function"
    },
    {
      "inputs": [
        {
          "internalType": "uint256",
          "name": "tokenAmount",
          "type": "uint256"
        },
        {
          "internalType": "address",
          "name": "token",
          "type": "address"
        },
        {
          "internalType": "address",
          "name": "collateralToken",
          "type": "address"
        },
        {
          "internalType": "uint256",
          "name": "collateralAmount",
          "type": "uint256"
        },
        {
          "internalType": "uint256",
          "name": "deadline",
          "type": "uint256"
        }
      ],
      "name": "mint",
      "outputs": [],
      "stateMutability": "nonpayable",
      "type": "function"
    },
    {
      "inputs": [
        {
          "internalType": "uint256",
          "name": "tokenAmount",
          "type": "uint256"
        },
        {
          "internalType": "address",
          "name": "token",
          "type": "address"
        },
        {
          "internalType": "uint256",
          "name": "deadline",
          "type": "uint256"
        }
      ],
      "name": "mintWithEth",
      "outputs": [],
      "stateMutability": "payable",
      "type": "function"
    },
    {
      "inputs": [
        {
          "internalType": "uint256",
          "name": "tokenAmount",
          "type": "uint256"
        },
        {
          "internalType": "address",
          "name": "token",
          "type": "address"
        },
        {
          "internalType": "uint256",
          "name": "deadline",
          "type": "uint256"
        }
      ],
      "name": "mintWithoutCollateral",
      "outputs": [],
      "stateMutability": "nonpayable",
      "type": "function"
    },
    {
      "inputs": [],
      "name": "owner",
      "outputs": [
        {
          "internalType": "address",
          "name": "",
          "type": "address"
        }
      ],
      "stateMutability": "view",
      "type": "function"
    },
    {
      "inputs": [],
      "name": "renounceOwnership",
      "outputs": [],
      "stateMutability": "nonpayable",
      "type": "function"
    },
    {
      "inputs": [
        {
          "internalType": "address",
          "name": "_handle",
          "type": "address"
        }
      ],
      "name": "setHandleContract",
      "outputs": [],
      "stateMutability": "nonpayable",
      "type": "function"
    },
    {
      "inputs": [
        {
          "internalType": "address",
          "name": "newOwner",
          "type": "address"
        }
      ],
      "name": "transferOwnership",
      "outputs": [],
      "stateMutability": "nonpayable",
      "type": "function"
    },
    {
      "inputs": [
        {
          "internalType": "address",
          "name": "newImplementation",
          "type": "address"
        }
      ],
      "name": "upgradeTo",
      "outputs": [],
      "stateMutability": "nonpayable",
      "type": "function"
    },
    {
      "inputs": [
        {
          "internalType": "address",
          "name": "newImplementation",
          "type": "address"
        },
        {
          "internalType": "bytes",
          "name": "data",
          "type": "bytes"
        }
      ],
      "name": "upgradeToAndCall",
      "outputs": [],
      "stateMutability": "payable",
      "type": "function"
    },
    {
      "stateMutability": "payable",
      "type": "receive"
    }
  ],
  "bytecode": "0x608060405234801561001057600080fd5b50614d98806100206000396000f3fe6080604052600436106100c65760003560e01c80638129fc1c1161007f5780639eea5f66116100595780639eea5f661461028d578063e6e01b3f146102b6578063f2fde38b146102df578063fd0da0991461030857610151565b80638129fc1c146102225780638da5cb5b146102395780639b1c414f1461026457610151565b80633659cfe6146101565780634cf41b911461017f5780634f1ef286146101a8578063538d22bc146101c4578063715018a6146101e057806374bf578b146101f757610151565b366101515760fe60009054906101000a900473ffffffffffffffffffffffffffffffffffffffff1673ffffffffffffffffffffffffffffffffffffffff163373ffffffffffffffffffffffffffffffffffffffff161461014f577f4e487b7100000000000000000000000000000000000000000000000000000000600052600160045260246000fd5b005b600080fd5b34801561016257600080fd5b5061017d60048036038101906101789190613ce5565b610333565b005b34801561018b57600080fd5b506101a660048036038101906101a19190613ee9565b61035a565b005b6101c260048036038101906101bd9190613d60565b610901565b005b6101de60048036038101906101d99190613ee9565b61091a565b005b3480156101ec57600080fd5b506101f5610c63565b005b34801561020357600080fd5b5061020c610da0565b60405161021991906141df565b60405180910390f35b34801561022e57600080fd5b50610237610dca565b005b34801561024557600080fd5b5061024e610ebb565b60405161025b91906141df565b60405180910390f35b34801561027057600080fd5b5061028b60048036038101906102869190613ce5565b610ee5565b005b34801561029957600080fd5b506102b460048036038101906102af9190613ee9565b611245565b005b3480156102c257600080fd5b506102dd60048036038101906102d89190613e72565b611db3565b005b3480156102eb57600080fd5b5061030660048036038101906103019190613ce5565b612019565b005b34801561031457600080fd5b5061031d6121c5565b60405161032a91906143c1565b60405180910390f35b61033c816121eb565b6103578160405180602001604052806000815250600061226a565b50565b808042111561039e576040517f08c379a00000000000000000000000000000000000000000000000000000000081526004016103959061447e565b60405180910390fd5b8260fb60009054906101000a900473ffffffffffffffffffffffffffffffffffffffff1673ffffffffffffffffffffffffffffffffffffffff1663a0f026ff826040518263ffffffff1660e01b81526004016103fa91906141df565b60206040518083038186803b15801561041257600080fd5b505afa158015610426573d6000803e3d6000fd5b505050506040513d601f19601f8201168201806040525081019061044a9190613e20565b610489576040517f08c379a00000000000000000000000000000000000000000000000000000000081526004016104809061449e565b60405180910390fd5b60fc60009054906101000a900473ffffffffffffffffffffffffffffffffffffffff1673ffffffffffffffffffffffffffffffffffffffff16633fa6b81933866040518363ffffffff1660e01b81526004016104e69291906141fa565b600060405180830381600087803b15801561050057600080fd5b505af1158015610514573d6000803e3d6000fd5b5050505060006105e06103e86105d260fb60009054906101000a900473ffffffffffffffffffffffffffffffffffffffff1673ffffffffffffffffffffffffffffffffffffffff16639931286d6040518163ffffffff1660e01b815260040160206040518083038186803b15801561058b57600080fd5b505afa15801561059f573d6000803e3d6000fd5b505050506040513d601f19601f820116820180604052508101906105c39190613e49565b8961247e90919063ffffffff16565b61249490919063ffffffff16565b9050600060fb60009054906101000a900473ffffffffffffffffffffffffffffffffffffffff1673ffffffffffffffffffffffffffffffffffffffff1663d02641a0876040518263ffffffff1660e01b815260040161063f91906141df565b60206040518083038186803b15801561065757600080fd5b505afa15801561066b573d6000803e3d6000fd5b505050506040513d601f19601f8201168201806040525081019061068f9190613e49565b905060fd60009054906101000a900473ffffffffffffffffffffffffffffffffffffffff1673ffffffffffffffffffffffffffffffffffffffff16639e718d076106e2848a6124aa90919063ffffffff16565b60fd60009054906101000a900473ffffffffffffffffffffffffffffffffffffffff1673ffffffffffffffffffffffffffffffffffffffff1663bcbe3f22338b6040518363ffffffff1660e01b815260040161073f9291906141fa565b60206040518083038186803b15801561075757600080fd5b505afa15801561076b573d6000803e3d6000fd5b505050506040513d601f19601f8201168201806040525081019061078f9190613e49565b846040518463ffffffff1660e01b81526004016107ae93929190614602565b60206040518083038186803b1580156107c657600080fd5b505afa1580156107da573d6000803e3d6000fd5b505050506040513d601f19601f820116820180604052508101906107fe9190613e49565b60fd60009054906101000a900473ffffffffffffffffffffffffffffffffffffffff1673ffffffffffffffffffffffffffffffffffffffff1663e76ab23933896040518363ffffffff1660e01b815260040161085b9291906141fa565b60206040518083038186803b15801561087357600080fd5b505afa158015610887573d6000803e3d6000fd5b505050506040513d601f19601f820116820180604052508101906108ab9190613e49565b10156108ec576040517f08c379a00000000000000000000000000000000000000000000000000000000081526004016108e3906144be565b60405180910390fd5b6108f8878783856124c0565b50505050505050565b61090a826121eb565b6109168282600161226a565b5050565b808042111561095e576040517f08c379a00000000000000000000000000000000000000000000000000000000081526004016109559061447e565b60405180910390fd5b8260fb60009054906101000a900473ffffffffffffffffffffffffffffffffffffffff1673ffffffffffffffffffffffffffffffffffffffff1663a0f026ff826040518263ffffffff1660e01b81526004016109ba91906141df565b60206040518083038186803b1580156109d257600080fd5b505afa1580156109e6573d6000803e3d6000fd5b505050506040513d601f19601f82011682018060405250810190610a0a9190613e20565b610a49576040517f08c379a0000000000000000000000000000000000000000000000000000000008152600401610a409061449e565b60405180910390fd5b600260c9541415610a8f576040517f08c379a0000000000000000000000000000000000000000000000000000000008152600401610a869061459e565b60405180910390fd5b600260c98190555060fb60009054906101000a900473ffffffffffffffffffffffffffffffffffffffff1673ffffffffffffffffffffffffffffffffffffffff1663803c97b360fe60009054906101000a900473ffffffffffffffffffffffffffffffffffffffff166040518263ffffffff1660e01b8152600401610b1491906141df565b60206040518083038186803b158015610b2c57600080fd5b505afa158015610b40573d6000803e3d6000fd5b505050506040513d601f19601f82011682018060405250810190610b649190613e20565b610ba3576040517f08c379a0000000000000000000000000000000000000000000000000000000008152600401610b9a9061445e565b60405180910390fd5b60fe60009054906101000a900473ffffffffffffffffffffffffffffffffffffffff1673ffffffffffffffffffffffffffffffffffffffff1663d0e30db0346040518263ffffffff1660e01b81526004016000604051808303818588803b158015610c0d57600080fd5b505af1158015610c21573d6000803e3d6000fd5b5050505050610c54858560fe60009054906101000a900473ffffffffffffffffffffffffffffffffffffffff1634612a5d565b600160c9819055505050505050565b610c6b613092565b73ffffffffffffffffffffffffffffffffffffffff16610c89610ebb565b73ffffffffffffffffffffffffffffffffffffffff1614610cdf576040517f08c379a0000000000000000000000000000000000000000000000000000000008152600401610cd69061453e565b60405180910390fd5b600073ffffffffffffffffffffffffffffffffffffffff16609760009054906101000a900473ffffffffffffffffffffffffffffffffffffffff1673ffffffffffffffffffffffffffffffffffffffff167f8be0079c531659141344cd1fd0a4f28419497f9722a3daafe3b4186f6b6457e060405160405180910390a36000609760006101000a81548173ffffffffffffffffffffffffffffffffffffffff021916908373ffffffffffffffffffffffffffffffffffffffff160217905550565b600060fb60009054906101000a900473ffffffffffffffffffffffffffffffffffffffff16905090565b600060019054906101000a900460ff1680610df0575060008054906101000a900460ff16155b610e2f576040517f08c379a0000000000000000000000000000000000000000000000000000000008152600401610e26906144de565b60405180910390fd5b60008060019054906101000a900460ff161590508015610e7f576001600060016101000a81548160ff02191690831515021790555060016000806101000a81548160ff0219169083151502179055505b610e8761309a565b610e8f613183565b610e9761326c565b8015610eb85760008060016101000a81548160ff0219169083151502179055505b50565b6000609760009054906101000a900473ffffffffffffffffffffffffffffffffffffffff16905090565b610eed613092565b73ffffffffffffffffffffffffffffffffffffffff16610f0b610ebb565b73ffffffffffffffffffffffffffffffffffffffff1614610f61576040517f08c379a0000000000000000000000000000000000000000000000000000000008152600401610f589061453e565b60405180910390fd5b8060fb60006101000a81548173ffffffffffffffffffffffffffffffffffffffff021916908373ffffffffffffffffffffffffffffffffffffffff16021790555060fb60009054906101000a900473ffffffffffffffffffffffffffffffffffffffff1673ffffffffffffffffffffffffffffffffffffffff166361d027b36040518163ffffffff1660e01b815260040160206040518083038186803b15801561100a57600080fd5b505afa15801561101e573d6000803e3d6000fd5b505050506040513d601f19601f820116820180604052508101906110429190613d37565b60fc60006101000a81548173ffffffffffffffffffffffffffffffffffffffff021916908373ffffffffffffffffffffffffffffffffffffffff16021790555060fb60009054906101000a900473ffffffffffffffffffffffffffffffffffffffff1673ffffffffffffffffffffffffffffffffffffffff1663eb0a8b916040518163ffffffff1660e01b815260040160206040518083038186803b1580156110ea57600080fd5b505afa1580156110fe573d6000803e3d6000fd5b505050506040513d601f19601f820116820180604052508101906111229190613d0e565b60fd60006101000a81548173ffffffffffffffffffffffffffffffffffffffff021916908373ffffffffffffffffffffffffffffffffffffffff16021790555060fb60009054906101000a900473ffffffffffffffffffffffffffffffffffffffff1673ffffffffffffffffffffffffffffffffffffffff1663ad5c46486040518163ffffffff1660e01b815260040160206040518083038186803b1580156111ca57600080fd5b505afa1580156111de573d6000803e3d6000fd5b505050506040513d601f19601f820116820180604052508101906112029190613d0e565b60fe60006101000a81548173ffffffffffffffffffffffffffffffffffffffff021916908373ffffffffffffffffffffffffffffffffffffffff16021790555050565b8080421115611289576040517f08c379a00000000000000000000000000000000000000000000000000000000081526004016112809061447e565b60405180910390fd5b8260fb60009054906101000a900473ffffffffffffffffffffffffffffffffffffffff1673ffffffffffffffffffffffffffffffffffffffff1663a0f026ff826040518263ffffffff1660e01b81526004016112e591906141df565b60206040518083038186803b1580156112fd57600080fd5b505afa158015611311573d6000803e3d6000fd5b505050506040513d601f19601f820116820180604052508101906113359190613e20565b611374576040517f08c379a000000000000000000000000000000000000000000000000000000000815260040161136b9061449e565b60405180910390fd5b848473ffffffffffffffffffffffffffffffffffffffff166370a08231336040518263ffffffff1660e01b81526004016113ae91906141df565b60206040518083038186803b1580156113c657600080fd5b505afa1580156113da573d6000803e3d6000fd5b505050506040513d601f19601f820116820180604052508101906113fe9190613e49565b101561143f576040517f08c379a0000000000000000000000000000000000000000000000000000000008152600401611436906144fe565b60405180910390fd5b8460fb60009054906101000a900473ffffffffffffffffffffffffffffffffffffffff1673ffffffffffffffffffffffffffffffffffffffff1663498b5ae833876040518363ffffffff1660e01b815260040161149d9291906141fa565b60206040518083038186803b1580156114b557600080fd5b505afa1580156114c9573d6000803e3d6000fd5b505050506040513d601f19601f820116820180604052508101906114ed9190613e49565b101561152e576040517f08c379a0000000000000000000000000000000000000000000000000000000008152600401611525906144fe565b60405180910390fd5b60fc60009054906101000a900473ffffffffffffffffffffffffffffffffffffffff1673ffffffffffffffffffffffffffffffffffffffff16633fa6b81933866040518363ffffffff1660e01b815260040161158b9291906141fa565b600060405180830381600087803b1580156115a557600080fd5b505af11580156115b9573d6000803e3d6000fd5b5050505060008473ffffffffffffffffffffffffffffffffffffffff166370a08231336040518263ffffffff1660e01b81526004016115f891906141df565b60206040518083038186803b15801561161057600080fd5b505afa158015611624573d6000803e3d6000fd5b505050506040513d601f19601f820116820180604052508101906116489190613e49565b9050600061188a60fd60009054906101000a900473ffffffffffffffffffffffffffffffffffffffff1673ffffffffffffffffffffffffffffffffffffffff166380ef72a9886040518263ffffffff1660e01b81526004016116aa91906141df565b60206040518083038186803b1580156116c257600080fd5b505afa1580156116d6573d6000803e3d6000fd5b505050506040513d601f19601f820116820180604052508101906116fa9190613e49565b61187c60fb60009054906101000a900473ffffffffffffffffffffffffffffffffffffffff1673ffffffffffffffffffffffffffffffffffffffff1663d02641a08a6040518263ffffffff1660e01b815260040161175891906141df565b60206040518083038186803b15801561177057600080fd5b505afa158015611784573d6000803e3d6000fd5b505050506040513d601f19601f820116820180604052508101906117a89190613e49565b61186e6103e861186060fb60009054906101000a900473ffffffffffffffffffffffffffffffffffffffff1673ffffffffffffffffffffffffffffffffffffffff1663e75fd0b56040518163ffffffff1660e01b815260040160206040518083038186803b15801561181957600080fd5b505afa15801561182d573d6000803e3d6000fd5b505050506040513d601f19601f820116820180604052508101906118519190613e49565b8e61247e90919063ffffffff16565b61249490919063ffffffff16565b61247e90919063ffffffff16565b61249490919063ffffffff16565b905060fc60009054906101000a900473ffffffffffffffffffffffffffffffffffffffff1673ffffffffffffffffffffffffffffffffffffffff1663337b219a3360fb60009054906101000a900473ffffffffffffffffffffffffffffffffffffffff1673ffffffffffffffffffffffffffffffffffffffff1663ec94578e6040518163ffffffff1660e01b815260040160206040518083038186803b15801561193357600080fd5b505afa158015611947573d6000803e3d6000fd5b505050506040513d601f19601f8201168201806040525081019061196b9190613d0e565b848a6040518563ffffffff1660e01b815260040161198c94939291906142c9565b600060405180830381600087803b1580156119a657600080fd5b505af11580156119ba573d6000803e3d6000fd5b505050506040513d6000823e3d601f19601f820116820180604052508101906119e39190613db4565b50508573ffffffffffffffffffffffffffffffffffffffff16639dc29fac33896040518363ffffffff1660e01b8152600401611a2092919061430e565b600060405180830381600087803b158015611a3a57600080fd5b505af1158015611a4e573d6000803e3d6000fd5b50505050611a65878361334d90919063ffffffff16565b8673ffffffffffffffffffffffffffffffffffffffff166370a08231336040518263ffffffff1660e01b8152600401611a9e91906141df565b60206040518083038186803b158015611ab657600080fd5b505afa158015611aca573d6000803e3d6000fd5b505050506040513d601f19601f82011682018060405250810190611aee9190613e49565b14611b22577f4e487b7100000000000000000000000000000000000000000000000000000000600052600160045260246000fd5b600060fb60009054906101000a900473ffffffffffffffffffffffffffffffffffffffff1673ffffffffffffffffffffffffffffffffffffffff1663498b5ae833896040518363ffffffff1660e01b8152600401611b819291906141fa565b60206040518083038186803b158015611b9957600080fd5b505afa158015611bad573d6000803e3d6000fd5b505050506040513d601f19601f82011682018060405250810190611bd19190613e49565b905060fb60009054906101000a900473ffffffffffffffffffffffffffffffffffffffff1673ffffffffffffffffffffffffffffffffffffffff1663877034f1338a8a60006040518563ffffffff1660e01b8152600401611c35949392919061437c565b600060405180830381600087803b158015611c4f57600080fd5b505af1158015611c63573d6000803e3d6000fd5b50505050611c7a888261334d90919063ffffffff16565b60fb60009054906101000a900473ffffffffffffffffffffffffffffffffffffffff1673ffffffffffffffffffffffffffffffffffffffff1663498b5ae8338a6040518363ffffffff1660e01b8152600401611cd79291906141fa565b60206040518083038186803b158015611cef57600080fd5b505afa158015611d03573d6000803e3d6000fd5b505050506040513d601f19601f82011682018060405250810190611d279190613e49565b14611d5b577f4e487b7100000000000000000000000000000000000000000000000000000000600052600160045260246000fd5b8673ffffffffffffffffffffffffffffffffffffffff167f3dd579c60f3ada65727e8d87353e1499f8784809ec65347e9520ee2ea25d337889604051611da191906145be565b60405180910390a25050505050505050565b8080421115611df7576040517f08c379a0000000000000000000000000000000000000000000000000000000008152600401611dee9061447e565b60405180910390fd5b600260c9541415611e3d576040517f08c379a0000000000000000000000000000000000000000000000000000000008152600401611e349061459e565b60405180910390fd5b600260c98190555060fb60009054906101000a900473ffffffffffffffffffffffffffffffffffffffff1673ffffffffffffffffffffffffffffffffffffffff1663803c97b3856040518263ffffffff1660e01b8152600401611ea091906141df565b60206040518083038186803b158015611eb857600080fd5b505afa158015611ecc573d6000803e3d6000fd5b505050506040513d601f19601f82011682018060405250810190611ef09190613e20565b611f2f576040517f08c379a0000000000000000000000000000000000000000000000000000000008152600401611f26906143fe565b60405180910390fd5b8373ffffffffffffffffffffffffffffffffffffffff166323b872dd3330866040518463ffffffff1660e01b8152600401611f6c93929190614292565b602060405180830381600087803b158015611f8657600080fd5b505af1158015611f9a573d6000803e3d6000fd5b505050506040513d601f19601f82011682018060405250810190611fbe9190613e20565b611ffd576040517f08c379a0000000000000000000000000000000000000000000000000000000008152600401611ff49061455e565b60405180910390fd5b61200986868686612a5d565b600160c981905550505050505050565b612021613092565b73ffffffffffffffffffffffffffffffffffffffff1661203f610ebb565b73ffffffffffffffffffffffffffffffffffffffff1614612095576040517f08c379a000000000000000000000000000000000000000000000000000000000815260040161208c9061453e565b60405180910390fd5b600073ffffffffffffffffffffffffffffffffffffffff168173ffffffffffffffffffffffffffffffffffffffff161415612105576040517f08c379a00000000000000000000000000000000000000000000000000000000081526004016120fc9061443e565b60405180910390fd5b8073ffffffffffffffffffffffffffffffffffffffff16609760009054906101000a900473ffffffffffffffffffffffffffffffffffffffff1673ffffffffffffffffffffffffffffffffffffffff167f8be0079c531659141344cd1fd0a4f28419497f9722a3daafe3b4186f6b6457e060405160405180910390a380609760006101000a81548173ffffffffffffffffffffffffffffffffffffffff021916908373ffffffffffffffffffffffffffffffffffffffff16021790555050565b60fb60009054906101000a900473ffffffffffffffffffffffffffffffffffffffff1681565b6121f3613092565b73ffffffffffffffffffffffffffffffffffffffff16612211610ebb565b73ffffffffffffffffffffffffffffffffffffffff1614612267576040517f08c379a000000000000000000000000000000000000000000000000000000000815260040161225e9061453e565b60405180910390fd5b50565b6000612274613363565b905061227f846133ba565b60008351118061228c5750815b1561229d5761229b8484613473565b505b60006122cb7f4910fdfa16fed3260ed0e7147f7cc6da11a60208b5b9406d12a635614ffd914360001b613557565b90508060000160009054906101000a900460ff166124775760018160000160006101000a81548160ff021916908315150217905550612397858360405160240161231591906141df565b6040516020818303038152906040527f3659cfe6000000000000000000000000000000000000000000000000000000007bffffffffffffffffffffffffffffffffffffffffffffffffffffffff19166020820180517bffffffffffffffffffffffffffffffffffffffffffffffffffffffff8381831617835250505050613473565b5060008160000160006101000a81548160ff0219169083151502179055506123bd613363565b73ffffffffffffffffffffffffffffffffffffffff168273ffffffffffffffffffffffffffffffffffffffff161461242a576040517f08c379a00000000000000000000000000000000000000000000000000000000081526004016124219061441e565b60405180910390fd5b612433856133ba565b8473ffffffffffffffffffffffffffffffffffffffff167fbc7cd75a20ee27fd9adebab32041f755214dbc6bffa90cc0225b39da2e5c2d3b60405160405180910390a25b5050505050565b6000818361248c91906147a0565b905092915050565b600081836124a2919061476f565b905092915050565b600081836124b89190614719565b905092915050565b60008373ffffffffffffffffffffffffffffffffffffffff166370a08231336040518263ffffffff1660e01b81526004016124fb91906141df565b60206040518083038186803b15801561251357600080fd5b505afa158015612527573d6000803e3d6000fd5b505050506040513d601f19601f8201168201806040525081019061254b9190613e49565b90508373ffffffffffffffffffffffffffffffffffffffff166340c10f1933876040518363ffffffff1660e01b815260040161258892919061430e565b600060405180830381600087803b1580156125a257600080fd5b505af11580156125b6573d6000803e3d6000fd5b505050508373ffffffffffffffffffffffffffffffffffffffff166340c10f1960fb60009054906101000a900473ffffffffffffffffffffffffffffffffffffffff1673ffffffffffffffffffffffffffffffffffffffff1663ec94578e6040518163ffffffff1660e01b815260040160206040518083038186803b15801561263e57600080fd5b505afa158015612652573d6000803e3d6000fd5b505050506040513d601f19601f820116820180604052508101906126769190613d0e565b846040518363ffffffff1660e01b815260040161269492919061430e565b600060405180830381600087803b1580156126ae57600080fd5b505af11580156126c2573d6000803e3d6000fd5b505050506126d985826124aa90919063ffffffff16565b8473ffffffffffffffffffffffffffffffffffffffff166370a08231336040518263ffffffff1660e01b815260040161271291906141df565b60206040518083038186803b15801561272a57600080fd5b505afa15801561273e573d6000803e3d6000fd5b505050506040513d601f19601f820116820180604052508101906127629190613e49565b14612796577f4e487b7100000000000000000000000000000000000000000000000000000000600052600160045260246000fd5b600060fb60009054906101000a900473ffffffffffffffffffffffffffffffffffffffff1673ffffffffffffffffffffffffffffffffffffffff1663498b5ae833876040518363ffffffff1660e01b81526004016127f59291906141fa565b60206040518083038186803b15801561280d57600080fd5b505afa158015612821573d6000803e3d6000fd5b505050506040513d601f19601f820116820180604052508101906128459190613e49565b905060fb60009054906101000a900473ffffffffffffffffffffffffffffffffffffffff1673ffffffffffffffffffffffffffffffffffffffff1663877034f133612899868a6124aa90919063ffffffff16565b8860016040518563ffffffff1660e01b81526004016128bb949392919061437c565b600060405180830381600087803b1580156128d557600080fd5b505af11580156128e9573d6000803e3d6000fd5b5050505060fb60009054906101000a900473ffffffffffffffffffffffffffffffffffffffff1673ffffffffffffffffffffffffffffffffffffffff1663498b5ae833876040518363ffffffff1660e01b815260040161294a9291906141fa565b60206040518083038186803b15801561296257600080fd5b505afa158015612976573d6000803e3d6000fd5b505050506040513d601f19601f8201168201806040525081019061299a9190613e49565b6129bf846129b189856124aa90919063ffffffff16565b6124aa90919063ffffffff16565b146129f3577f4e487b7100000000000000000000000000000000000000000000000000000000600052600160045260246000fd5b8473ffffffffffffffffffffffffffffffffffffffff167fb4a4751ef6a44118d02c7f8772a09a847f35ae4293a6c73ffc21039b8063568285612a3f868a6124aa90919063ffffffff16565b604051612a4d9291906145d9565b60405180910390a2505050505050565b8173ffffffffffffffffffffffffffffffffffffffff1663095ea7b360fc60009054906101000a900473ffffffffffffffffffffffffffffffffffffffff16836040518363ffffffff1660e01b8152600401612aba92919061430e565b602060405180830381600087803b158015612ad457600080fd5b505af1158015612ae8573d6000803e3d6000fd5b505050506040513d601f19601f82011682018060405250810190612b0c9190613e20565b612b3f577f4e487b7100000000000000000000000000000000000000000000000000000000600052600160045260246000fd5b60fc60009054906101000a900473ffffffffffffffffffffffffffffffffffffffff1673ffffffffffffffffffffffffffffffffffffffff16633fa6b81933856040518363ffffffff1660e01b8152600401612b9c9291906141fa565b600060405180830381600087803b158015612bb657600080fd5b505af1158015612bca573d6000803e3d6000fd5b505050506000612c966103e8612c8860fb60009054906101000a900473ffffffffffffffffffffffffffffffffffffffff1673ffffffffffffffffffffffffffffffffffffffff16639931286d6040518163ffffffff1660e01b815260040160206040518083038186803b158015612c4157600080fd5b505afa158015612c55573d6000803e3d6000fd5b505050506040513d601f19601f82011682018060405250810190612c799190613e49565b8861247e90919063ffffffff16565b61249490919063ffffffff16565b90506000612d606103e8612d5260fb60009054906101000a900473ffffffffffffffffffffffffffffffffffffffff1673ffffffffffffffffffffffffffffffffffffffff16639df5138a6040518163ffffffff1660e01b815260040160206040518083038186803b158015612d0b57600080fd5b505afa158015612d1f573d6000803e3d6000fd5b505050506040513d601f19601f82011682018060405250810190612d439190613e49565b8661247e90919063ffffffff16565b61249490919063ffffffff16565b9050612d75818461334d90919063ffffffff16565b9250600060fb60009054906101000a900473ffffffffffffffffffffffffffffffffffffffff1673ffffffffffffffffffffffffffffffffffffffff1663d02641a0876040518263ffffffff1660e01b8152600401612dd491906141df565b60206040518083038186803b158015612dec57600080fd5b505afa158015612e00573d6000803e3d6000fd5b505050506040513d601f19601f82011682018060405250810190612e249190613e49565b905060fd60009054906101000a900473ffffffffffffffffffffffffffffffffffffffff1673ffffffffffffffffffffffffffffffffffffffff1663e279962333888888612e7b898e6124aa90919063ffffffff16565b8760fb60009054906101000a900473ffffffffffffffffffffffffffffffffffffffff1673ffffffffffffffffffffffffffffffffffffffff1663d02641a08e6040518263ffffffff1660e01b8152600401612ed791906141df565b60206040518083038186803b158015612eef57600080fd5b505afa158015612f03573d6000803e3d6000fd5b505050506040513d601f19601f82011682018060405250810190612f279190613e49565b6040518863ffffffff1660e01b8152600401612f499796959493929190614223565b60206040518083038186803b158015612f6157600080fd5b505afa158015612f75573d6000803e3d6000fd5b505050506040513d601f19601f82011682018060405250810190612f999190613e20565b612fd8576040517f08c379a0000000000000000000000000000000000000000000000000000000008152600401612fcf906144be565b60405180910390fd5b60fc60009054906101000a900473ffffffffffffffffffffffffffffffffffffffff1673ffffffffffffffffffffffffffffffffffffffff1663ce1c18513361302a85886124aa90919063ffffffff16565b888a6040518563ffffffff1660e01b815260040161304b9493929190614337565b600060405180830381600087803b15801561306557600080fd5b505af1158015613079573d6000803e3d6000fd5b50505050613089878783866124c0565b50505050505050565b600033905090565b600060019054906101000a900460ff16806130c0575060008054906101000a900460ff16155b6130ff576040517f08c379a00000000000000000000000000000000000000000000000000000000081526004016130f6906144de565b60405180910390fd5b60008060019054906101000a900460ff16159050801561314f576001600060016101000a81548160ff02191690831515021790555060016000806101000a81548160ff0219169083151502179055505b613157613561565b61315f61363a565b80156131805760008060016101000a81548160ff0219169083151502179055505b50565b600060019054906101000a900460ff16806131a9575060008054906101000a900460ff16155b6131e8576040517f08c379a00000000000000000000000000000000000000000000000000000000081526004016131df906144de565b60405180910390fd5b60008060019054906101000a900460ff161590508015613238576001600060016101000a81548160ff02191690831515021790555060016000806101000a81548160ff0219169083151502179055505b613240613713565b6132486137ec565b80156132695760008060016101000a81548160ff0219169083151502179055505b50565b600060019054906101000a900460ff1680613292575060008054906101000a900460ff16155b6132d1576040517f08c379a00000000000000000000000000000000000000000000000000000000081526004016132c8906144de565b60405180910390fd5b60008060019054906101000a900460ff161590508015613321576001600060016101000a81548160ff02191690831515021790555060016000806101000a81548160ff0219169083151502179055505b61332961396e565b801561334a5760008060016101000a81548160ff0219169083151502179055505b50565b6000818361335b91906147fa565b905092915050565b60006133917f360894a13ba1a3210667c828492db98dca3e2076cc3735a920a3ca505d382bbc60001b613a4f565b60000160009054906101000a900473ffffffffffffffffffffffffffffffffffffffff16905090565b6133c381613a59565b613402576040517f08c379a00000000000000000000000000000000000000000000000000000000081526004016133f99061451e565b60405180910390fd5b8061342f7f360894a13ba1a3210667c828492db98dca3e2076cc3735a920a3ca505d382bbc60001b613a4f565b60000160006101000a81548173ffffffffffffffffffffffffffffffffffffffff021916908373ffffffffffffffffffffffffffffffffffffffff16021790555050565b606061347e83613a59565b6134bd576040517f08c379a00000000000000000000000000000000000000000000000000000000081526004016134b49061457e565b60405180910390fd5b6000808473ffffffffffffffffffffffffffffffffffffffff16846040516134e591906141c8565b600060405180830381855af49150503d8060008114613520576040519150601f19603f3d011682016040523d82523d6000602084013e613525565b606091505b509150915061354d8282604051806060016040528060278152602001614d3c60279139613a6c565b9250505092915050565b6000819050919050565b600060019054906101000a900460ff1680613587575060008054906101000a900460ff16155b6135c6576040517f08c379a00000000000000000000000000000000000000000000000000000000081526004016135bd906144de565b60405180910390fd5b60008060019054906101000a900460ff161590508015613616576001600060016101000a81548160ff02191690831515021790555060016000806101000a81548160ff0219169083151502179055505b80156136375760008060016101000a81548160ff0219169083151502179055505b50565b600060019054906101000a900460ff1680613660575060008054906101000a900460ff16155b61369f576040517f08c379a0000000000000000000000000000000000000000000000000000000008152600401613696906144de565b60405180910390fd5b60008060019054906101000a900460ff1615905080156136ef576001600060016101000a81548160ff02191690831515021790555060016000806101000a81548160ff0219169083151502179055505b80156137105760008060016101000a81548160ff0219169083151502179055505b50565b600060019054906101000a900460ff1680613739575060008054906101000a900460ff16155b613778576040517f08c379a000000000000000000000000000000000000000000000000000000000815260040161376f906144de565b60405180910390fd5b60008060019054906101000a900460ff1615905080156137c8576001600060016101000a81548160ff02191690831515021790555060016000806101000a81548160ff0219169083151502179055505b80156137e95760008060016101000a81548160ff0219169083151502179055505b50565b600060019054906101000a900460ff1680613812575060008054906101000a900460ff16155b613851576040517f08c379a0000000000000000000000000000000000000000000000000000000008152600401613848906144de565b60405180910390fd5b60008060019054906101000a900460ff1615905080156138a1576001600060016101000a81548160ff02191690831515021790555060016000806101000a81548160ff0219169083151502179055505b60006138ab613092565b905080609760006101000a81548173ffffffffffffffffffffffffffffffffffffffff021916908373ffffffffffffffffffffffffffffffffffffffff1602179055508073ffffffffffffffffffffffffffffffffffffffff16600073ffffffffffffffffffffffffffffffffffffffff167f8be0079c531659141344cd1fd0a4f28419497f9722a3daafe3b4186f6b6457e060405160405180910390a350801561396b5760008060016101000a81548160ff0219169083151502179055505b50565b600060019054906101000a900460ff1680613994575060008054906101000a900460ff16155b6139d3576040517f08c379a00000000000000000000000000000000000000000000000000000000081526004016139ca906144de565b60405180910390fd5b60008060019054906101000a900460ff161590508015613a23576001600060016101000a81548160ff02191690831515021790555060016000806101000a81548160ff0219169083151502179055505b600160c9819055508015613a4c5760008060016101000a81548160ff0219169083151502179055505b50565b6000819050919050565b600080823b905060008111915050919050565b60608315613a7c57829050613acc565b600083511115613a8f5782518084602001fd5b816040517f08c379a0000000000000000000000000000000000000000000000000000000008152600401613ac391906143dc565b60405180910390fd5b9392505050565b6000613ae6613ae18461465e565b614639565b90508083825260208201905082856020860282011115613b0557600080fd5b60005b85811015613b355781613b1b8882613bfe565b845260208401935060208301925050600181019050613b08565b5050509392505050565b6000613b52613b4d8461468a565b614639565b90508083825260208201905082856020860282011115613b7157600080fd5b60005b85811015613ba15781613b878882613cd0565b845260208401935060208301925050600181019050613b74565b5050509392505050565b6000613bbe613bb9846146b6565b614639565b905082815260208101848484011115613bd657600080fd5b613be18482856148ac565b509392505050565b600081359050613bf881614cdf565b92915050565b600081519050613c0d81614cdf565b92915050565b600081519050613c2281614cf6565b92915050565b600082601f830112613c3957600080fd5b8151613c49848260208601613ad3565b91505092915050565b600082601f830112613c6357600080fd5b8151613c73848260208601613b3f565b91505092915050565b600081519050613c8b81614d0d565b92915050565b600082601f830112613ca257600080fd5b8135613cb2848260208601613bab565b91505092915050565b600081359050613cca81614d24565b92915050565b600081519050613cdf81614d24565b92915050565b600060208284031215613cf757600080fd5b6000613d0584828501613be9565b91505092915050565b600060208284031215613d2057600080fd5b6000613d2e84828501613bfe565b91505092915050565b600060208284031215613d4957600080fd5b6000613d5784828501613c13565b91505092915050565b60008060408385031215613d7357600080fd5b6000613d8185828601613be9565b925050602083013567ffffffffffffffff811115613d9e57600080fd5b613daa85828601613c91565b9150509250929050565b60008060408385031215613dc757600080fd5b600083015167ffffffffffffffff811115613de157600080fd5b613ded85828601613c28565b925050602083015167ffffffffffffffff811115613e0a57600080fd5b613e1685828601613c52565b9150509250929050565b600060208284031215613e3257600080fd5b6000613e4084828501613c7c565b91505092915050565b600060208284031215613e5b57600080fd5b6000613e6984828501613cd0565b91505092915050565b600080600080600060a08688031215613e8a57600080fd5b6000613e9888828901613cbb565b9550506020613ea988828901613be9565b9450506040613eba88828901613be9565b9350506060613ecb88828901613cbb565b9250506080613edc88828901613cbb565b9150509295509295909350565b600080600060608486031215613efe57600080fd5b6000613f0c86828701613cbb565b9350506020613f1d86828701613be9565b9250506040613f2e86828701613cbb565b9150509250925092565b613f418161482e565b82525050565b613f5081614852565b82525050565b6000613f61826146e7565b613f6b81856146fd565b9350613f7b8185602086016148bb565b80840191505092915050565b613f9081614888565b82525050565b6000613fa1826146f2565b613fab8185614708565b9350613fbb8185602086016148bb565b613fc4816149ac565b840191505092915050565b6000613fdc600283614708565b9150613fe7826149bd565b602082019050919050565b6000613fff602f83614708565b915061400a826149e6565b604082019050919050565b6000614022602683614708565b915061402d82614a35565b604082019050919050565b6000614045600283614708565b915061405082614a84565b602082019050919050565b6000614068602183614708565b915061407382614aad565b604082019050919050565b600061408b600283614708565b915061409682614afc565b602082019050919050565b60006140ae600283614708565b91506140b982614b25565b602082019050919050565b60006140d1602e83614708565b91506140dc82614b4e565b604082019050919050565b60006140f4600283614708565b91506140ff82614b9d565b602082019050919050565b6000614117602d83614708565b915061412282614bc6565b604082019050919050565b600061413a602083614708565b915061414582614c15565b602082019050919050565b600061415d600283614708565b915061416882614c3e565b602082019050919050565b6000614180602683614708565b915061418b82614c67565b604082019050919050565b60006141a3601f83614708565b91506141ae82614cb6565b602082019050919050565b6141c28161487e565b82525050565b60006141d48284613f56565b915081905092915050565b60006020820190506141f46000830184613f38565b92915050565b600060408201905061420f6000830185613f38565b61421c6020830184613f38565b9392505050565b600060e082019050614238600083018a613f38565b6142456020830189613f38565b6142526040830188613f38565b61425f60608301876141b9565b61426c60808301866141b9565b61427960a08301856141b9565b61428660c08301846141b9565b98975050505050505050565b60006060820190506142a76000830186613f38565b6142b46020830185613f38565b6142c160408301846141b9565b949350505050565b60006080820190506142de6000830187613f38565b6142eb6020830186613f38565b6142f860408301856141b9565b6143056060830184613f38565b95945050505050565b60006040820190506143236000830185613f38565b61433060208301846141b9565b9392505050565b600060808201905061434c6000830187613f38565b61435960208301866141b9565b6143666040830185613f38565b6143736060830184613f38565b95945050505050565b60006080820190506143916000830187613f38565b61439e60208301866141b9565b6143ab6040830185613f38565b6143b86060830184613f47565b95945050505050565b60006020820190506143d66000830184613f87565b92915050565b600060208201905081810360008301526143f68184613f96565b905092915050565b6000602082019050818103600083015261441781613fcf565b9050919050565b6000602082019050818103600083015261443781613ff2565b9050919050565b6000602082019050818103600083015261445781614015565b9050919050565b6000602082019050818103600083015261447781614038565b9050919050565b600060208201905081810360008301526144978161405b565b9050919050565b600060208201905081810360008301526144b78161407e565b9050919050565b600060208201905081810360008301526144d7816140a1565b9050919050565b600060208201905081810360008301526144f7816140c4565b9050919050565b60006020820190508181036000830152614517816140e7565b9050919050565b600060208201905081810360008301526145378161410a565b9050919050565b600060208201905081810360008301526145578161412d565b9050919050565b6000602082019050818103600083015261457781614150565b9050919050565b6000602082019050818103600083015261459781614173565b9050919050565b600060208201905081810360008301526145b781614196565b9050919050565b60006020820190506145d360008301846141b9565b92915050565b60006040820190506145ee60008301856141b9565b6145fb60208301846141b9565b9392505050565b600060608201905061461760008301866141b9565b61462460208301856141b9565b61463160408301846141b9565b949350505050565b6000614643614654565b905061464f82826148ee565b919050565b6000604051905090565b600067ffffffffffffffff8211156146795761467861497d565b5b602082029050602081019050919050565b600067ffffffffffffffff8211156146a5576146a461497d565b5b602082029050602081019050919050565b600067ffffffffffffffff8211156146d1576146d061497d565b5b6146da826149ac565b9050602081019050919050565b600081519050919050565b600081519050919050565b600081905092915050565b600082825260208201905092915050565b60006147248261487e565b915061472f8361487e565b9250827fffffffffffffffffffffffffffffffffffffffffffffffffffffffffffffffff038211156147645761476361491f565b5b828201905092915050565b600061477a8261487e565b91506147858361487e565b9250826147955761479461494e565b5b828204905092915050565b60006147ab8261487e565b91506147b68361487e565b9250817fffffffffffffffffffffffffffffffffffffffffffffffffffffffffffffffff04831182151516156147ef576147ee61491f565b5b828202905092915050565b60006148058261487e565b91506148108361487e565b9250828210156148235761482261491f565b5b828203905092915050565b60006148398261485e565b9050919050565b600061484b8261485e565b9050919050565b60008115159050919050565b600073ffffffffffffffffffffffffffffffffffffffff82169050919050565b6000819050919050565b60006148938261489a565b9050919050565b60006148a58261485e565b9050919050565b82818337600083830152505050565b60005b838110156148d95780820151818401526020810190506148be565b838111156148e8576000848401525b50505050565b6148f7826149ac565b810181811067ffffffffffffffff821117156149165761491561497d565b5b80604052505050565b7f4e487b7100000000000000000000000000000000000000000000000000000000600052601160045260246000fd5b7f4e487b7100000000000000000000000000000000000000000000000000000000600052601260045260246000fd5b7f4e487b7100000000000000000000000000000000000000000000000000000000600052604160045260246000fd5b6000601f19601f8301169050919050565b7f4943000000000000000000000000000000000000000000000000000000000000600082015250565b7f45524331393637557067726164653a207570677261646520627265616b73206660008201527f7572746865722075706772616465730000000000000000000000000000000000602082015250565b7f4f776e61626c653a206e6577206f776e657220697320746865207a65726f206160008201527f6464726573730000000000000000000000000000000000000000000000000000602082015250565b7f5745000000000000000000000000000000000000000000000000000000000000600082015250565b7f5472616e73616374696f6e2068617320657863656564656420646561646c696e60008201527f6500000000000000000000000000000000000000000000000000000000000000602082015250565b7f4946000000000000000000000000000000000000000000000000000000000000600082015250565b7f4352000000000000000000000000000000000000000000000000000000000000600082015250565b7f496e697469616c697a61626c653a20636f6e747261637420697320616c72656160008201527f647920696e697469616c697a6564000000000000000000000000000000000000602082015250565b7f4941000000000000000000000000000000000000000000000000000000000000600082015250565b7f455243313936373a206e657720696d706c656d656e746174696f6e206973206e60008201527f6f74206120636f6e747261637400000000000000000000000000000000000000602082015250565b7f4f776e61626c653a2063616c6c6572206973206e6f7420746865206f776e6572600082015250565b7f4654000000000000000000000000000000000000000000000000000000000000600082015250565b7f416464726573733a2064656c65676174652063616c6c20746f206e6f6e2d636f60008201527f6e74726163740000000000000000000000000000000000000000000000000000602082015250565b7f5265656e7472616e637947756172643a207265656e7472616e742063616c6c00600082015250565b614ce88161482e565b8114614cf357600080fd5b50565b614cff81614840565b8114614d0a57600080fd5b50565b614d1681614852565b8114614d2157600080fd5b50565b614d2d8161487e565b8114614d3857600080fd5b5056fe416464726573733a206c6f772d6c6576656c2064656c65676174652063616c6c206661696c6564a2646970667358221220f3f42ea51db18c40d117ca5c526decc045f1d824f83d31e84e115345e3204f7564736f6c63430008030033",
  "linkReferences": {},
  "deployedLinkReferences": {}
}