{
  "_format": "hh-sol-artifact-1",
  "contractName": "Comptroller",
  "sourceName": "contracts/Bank/Comptroller.sol",
  "abi": [
    {
      "anonymous": false,
      "inputs": [
        {
          "indexed": false,
          "internalType": "address",
          "name": "previousAdmin",
          "type": "address"
        },
        {
          "indexed": false,
          "internalType": "address",
          "name": "newAdmin",
          "type": "address"
        }
      ],
      "name": "AdminChanged",
      "type": "event"
    },
    {
      "anonymous": false,
      "inputs": [
        {
          "indexed": true,
          "internalType": "address",
          "name": "beacon",
          "type": "address"
        }
      ],
      "name": "BeaconUpgraded",
      "type": "event"
    },
    {
      "anonymous": false,
      "inputs": [
        {
          "indexed": false,
          "internalType": "uint256",
          "name": "amountBurned",
          "type": "uint256"
        },
        {
          "indexed": true,
          "internalType": "address",
          "name": "token",
          "type": "address"
        }
      ],
      "name": "BurnToken",
      "type": "event"
    },
    {
      "anonymous": false,
      "inputs": [
        {
          "indexed": false,
          "internalType": "uint256",
          "name": "tokenRate",
          "type": "uint256"
        },
        {
          "indexed": false,
          "internalType": "uint256",
          "name": "amountMinted",
          "type": "uint256"
        },
        {
          "indexed": true,
          "internalType": "address",
          "name": "token",
          "type": "address"
        }
      ],
      "name": "MintToken",
      "type": "event"
    },
    {
      "anonymous": false,
      "inputs": [
        {
          "indexed": true,
          "internalType": "address",
          "name": "previousOwner",
          "type": "address"
        },
        {
          "indexed": true,
          "internalType": "address",
          "name": "newOwner",
          "type": "address"
        }
      ],
      "name": "OwnershipTransferred",
      "type": "event"
    },
    {
      "anonymous": false,
      "inputs": [
        {
          "indexed": false,
          "internalType": "address",
          "name": "from",
          "type": "address"
        },
        {
          "indexed": false,
          "internalType": "address",
          "name": "token",
          "type": "address"
        },
        {
          "indexed": false,
          "internalType": "uint256",
          "name": "tokenAmount",
          "type": "uint256"
        },
        {
          "indexed": false,
          "internalType": "uint256[]",
          "name": "collateralAmounts",
          "type": "uint256[]"
        },
        {
          "indexed": false,
          "internalType": "address[]",
          "name": "collateralTypes",
          "type": "address[]"
        }
      ],
      "name": "Redeem",
      "type": "event"
    },
    {
      "anonymous": false,
      "inputs": [
        {
          "indexed": true,
          "internalType": "address",
          "name": "implementation",
          "type": "address"
        }
      ],
      "name": "Upgraded",
      "type": "event"
    },
    {
      "inputs": [
        {
          "internalType": "uint256",
          "name": "amount",
          "type": "uint256"
        },
        {
          "internalType": "address",
          "name": "token",
          "type": "address"
        },
        {
          "internalType": "uint256",
          "name": "deadline",
          "type": "uint256"
        }
      ],
      "name": "burn",
      "outputs": [],
      "stateMutability": "nonpayable",
      "type": "function"
    },
    {
      "inputs": [
        {
          "internalType": "uint256",
          "name": "amount",
          "type": "uint256"
        },
        {
          "internalType": "address",
          "name": "token",
          "type": "address"
        },
        {
          "internalType": "address",
          "name": "from",
          "type": "address"
        },
        {
          "internalType": "uint256",
          "name": "deadline",
          "type": "uint256"
        }
      ],
      "name": "buyCollateral",
      "outputs": [
        {
          "internalType": "uint256[]",
          "name": "collateralAmounts",
          "type": "uint256[]"
        },
        {
          "internalType": "address[]",
          "name": "collateralTypes",
          "type": "address[]"
        }
      ],
      "stateMutability": "nonpayable",
      "type": "function"
    },
    {
      "inputs": [],
      "name": "handle",
      "outputs": [
        {
          "internalType": "contract IHandle",
          "name": "",
          "type": "address"
        }
      ],
      "stateMutability": "view",
      "type": "function"
    },
    {
      "inputs": [],
      "name": "handleAddress",
      "outputs": [
        {
          "internalType": "address",
          "name": "",
          "type": "address"
        }
      ],
      "stateMutability": "view",
      "type": "function"
    },
    {
      "inputs": [],
      "name": "initialize",
      "outputs": [],
      "stateMutability": "nonpayable",
      "type": "function"
    },
    {
      "inputs": [
        {
          "internalType": "uint256",
          "name": "tokenAmount",
          "type": "uint256"
        },
        {
          "internalType": "address",
          "name": "token",
          "type": "address"
        },
        {
          "internalType": "address",
          "name": "collateralToken",
          "type": "address"
        },
        {
          "internalType": "uint256",
          "name": "collateralAmount",
          "type": "uint256"
        },
        {
          "internalType": "uint256",
          "name": "deadline",
          "type": "uint256"
        }
      ],
      "name": "mint",
      "outputs": [],
      "stateMutability": "nonpayable",
      "type": "function"
    },
    {
      "inputs": [
        {
          "internalType": "uint256",
          "name": "tokenAmount",
          "type": "uint256"
        },
        {
          "internalType": "address",
          "name": "token",
          "type": "address"
        },
        {
          "internalType": "uint256",
          "name": "deadline",
          "type": "uint256"
        }
      ],
      "name": "mintWithEth",
      "outputs": [],
      "stateMutability": "payable",
      "type": "function"
    },
    {
      "inputs": [
        {
          "internalType": "uint256",
          "name": "tokenAmount",
          "type": "uint256"
        },
        {
          "internalType": "address",
          "name": "token",
          "type": "address"
        },
        {
          "internalType": "uint256",
          "name": "deadline",
          "type": "uint256"
        }
      ],
      "name": "mintWithoutCollateral",
      "outputs": [],
      "stateMutability": "nonpayable",
      "type": "function"
    },
    {
      "inputs": [],
      "name": "owner",
      "outputs": [
        {
          "internalType": "address",
          "name": "",
          "type": "address"
        }
      ],
      "stateMutability": "view",
      "type": "function"
    },
    {
      "inputs": [],
      "name": "renounceOwnership",
      "outputs": [],
      "stateMutability": "nonpayable",
      "type": "function"
    },
    {
      "inputs": [
        {
          "internalType": "address",
          "name": "_handle",
          "type": "address"
        }
      ],
      "name": "setHandleContract",
      "outputs": [],
      "stateMutability": "nonpayable",
      "type": "function"
    },
    {
      "inputs": [
        {
          "internalType": "address",
          "name": "newOwner",
          "type": "address"
        }
      ],
      "name": "transferOwnership",
      "outputs": [],
      "stateMutability": "nonpayable",
      "type": "function"
    },
    {
      "inputs": [
        {
          "internalType": "address",
          "name": "newImplementation",
          "type": "address"
        }
      ],
      "name": "upgradeTo",
      "outputs": [],
      "stateMutability": "nonpayable",
      "type": "function"
    },
    {
      "inputs": [
        {
          "internalType": "address",
          "name": "newImplementation",
          "type": "address"
        },
        {
          "internalType": "bytes",
          "name": "data",
          "type": "bytes"
        }
      ],
      "name": "upgradeToAndCall",
      "outputs": [],
      "stateMutability": "payable",
      "type": "function"
    },
    {
      "stateMutability": "payable",
      "type": "receive"
    }
  ],
  "bytecode": "0x608060405234801561001057600080fd5b506159b380620000216000396000f3fe6080604052600436106100e15760003560e01c80638129fc1c1161007f5780639eea5f66116100595780639eea5f66146102e6578063e6e01b3f1461030f578063f2fde38b14610338578063fd0da099146103615761016c565b80638129fc1c1461027b5780638da5cb5b146102925780639b1c414f146102bd5761016c565b80634f1ef286116100bb5780634f1ef28614610201578063538d22bc1461021d578063715018a61461023957806374bf578b146102505761016c565b80633659cfe61461017157806343cc39461461019a5780634cf41b91146101d85761016c565b3661016c5760fe60009054906101000a900473ffffffffffffffffffffffffffffffffffffffff1673ffffffffffffffffffffffffffffffffffffffff163373ffffffffffffffffffffffffffffffffffffffff161461016a577f4e487b7100000000000000000000000000000000000000000000000000000000600052600160045260246000fd5b005b600080fd5b34801561017d57600080fd5b506101986004803603810190610193919061453b565b61038c565b005b3480156101a657600080fd5b506101c160048036038101906101bc919061471c565b6103b3565b6040516101cf929190614e6a565b60405180910390f35b3480156101e457600080fd5b506101ff60048036038101906101fa91906147f6565b610d3a565b005b61021b600480360381019061021691906145b6565b6112e1565b005b610237600480360381019061023291906147f6565b6112fa565b005b34801561024557600080fd5b5061024e611643565b005b34801561025c57600080fd5b50610265611780565b6040516102729190614c19565b60405180910390f35b34801561028757600080fd5b506102906117aa565b005b34801561029e57600080fd5b506102a761189b565b6040516102b49190614c19565b60405180910390f35b3480156102c957600080fd5b506102e460048036038101906102df919061453b565b6118c5565b005b3480156102f257600080fd5b5061030d600480360381019061030891906147f6565b611c25565b005b34801561031b57600080fd5b506103366004803603810190610331919061477f565b612609565b005b34801561034457600080fd5b5061035f600480360381019061035a919061453b565b61286f565b005b34801561036d57600080fd5b50610376612a1b565b6040516103839190614ea1565b60405180910390f35b61039581612a41565b6103b081604051806020016040528060008152506000612ac0565b50565b60608082804211156103fa576040517f08c379a00000000000000000000000000000000000000000000000000000000081526004016103f190614f5e565b60405180910390fd5b8560fb60009054906101000a900473ffffffffffffffffffffffffffffffffffffffff1673ffffffffffffffffffffffffffffffffffffffff1663a0f026ff826040518263ffffffff1660e01b81526004016104569190614c19565b60206040518083038186803b15801561046e57600080fd5b505afa158015610482573d6000803e3d6000fd5b505050506040513d601f19601f820116820180604052508101906104a691906146ca565b6104e5576040517f08c379a00000000000000000000000000000000000000000000000000000000081526004016104dc90614f7e565b60405180910390fd5b878773ffffffffffffffffffffffffffffffffffffffff166370a08231336040518263ffffffff1660e01b815260040161051f9190614c19565b60206040518083038186803b15801561053757600080fd5b505afa15801561054b573d6000803e3d6000fd5b505050506040513d601f19601f8201168201806040525081019061056f91906146f3565b10156105b0576040517f08c379a00000000000000000000000000000000000000000000000000000000081526004016105a790614fde565b60405180910390fd5b60fc60009054906101000a900473ffffffffffffffffffffffffffffffffffffffff1673ffffffffffffffffffffffffffffffffffffffff16633fa6b81987896040518363ffffffff1660e01b815260040161060d929190614c34565b600060405180830381600087803b15801561062757600080fd5b505af115801561063b573d6000803e3d6000fd5b50505050600060fd60009054906101000a900473ffffffffffffffffffffffffffffffffffffffff1673ffffffffffffffffffffffffffffffffffffffff16638dac8d138a8a8a6040518463ffffffff1660e01b81526004016106a0939291906150d9565b60206040518083038186803b1580156106b857600080fd5b505afa1580156106cc573d6000803e3d6000fd5b505050506040513d601f19601f820116820180604052508101906106f091906146f3565b905060008111610735576040517f08c379a000000000000000000000000000000000000000000000000000000000815260040161072c90614fde565b60405180910390fd5b80891115610741578098505b8860fb60009054906101000a900473ffffffffffffffffffffffffffffffffffffffff1673ffffffffffffffffffffffffffffffffffffffff1663498b5ae8898b6040518363ffffffff1660e01b815260040161079f929190614c34565b60206040518083038186803b1580156107b757600080fd5b505afa1580156107cb573d6000803e3d6000fd5b505050506040513d601f19601f820116820180604052508101906107ef91906146f3565b1015610830576040517f08c379a000000000000000000000000000000000000000000000000000000000815260040161082790614fde565b60405180910390fd5b50600061090a670de0b6b3a76400006108fc8b60fb60009054906101000a900473ffffffffffffffffffffffffffffffffffffffff1673ffffffffffffffffffffffffffffffffffffffff1663d02641a08d6040518263ffffffff1660e01b815260040161089e9190614c19565b60206040518083038186803b1580156108b657600080fd5b505afa1580156108ca573d6000803e3d6000fd5b505050506040513d601f19601f820116820180604052508101906108ee91906146f3565b612cd490919063ffffffff16565b612cea90919063ffffffff16565b9050600060fd60009054906101000a900473ffffffffffffffffffffffffffffffffffffffff1673ffffffffffffffffffffffffffffffffffffffff1663234ab3e2898b856040518463ffffffff1660e01b815260040161096d93929190614d1f565b60006040518083038186803b15801561098557600080fd5b505afa158015610999573d6000803e3d6000fd5b505050506040513d6000823e3d601f19601f820116820180604052508101906109c2919061464b565b80935081985082975050505080610a0e576040517f08c379a0000000000000000000000000000000000000000000000000000000008152600401610a059061507e565b60405180910390fd5b8873ffffffffffffffffffffffffffffffffffffffff16639dc29fac338c6040518363ffffffff1660e01b8152600401610a49929190614db7565b600060405180830381600087803b158015610a6357600080fd5b505af1158015610a77573d6000803e3d6000fd5b5050505060fb60009054906101000a900473ffffffffffffffffffffffffffffffffffffffff1673ffffffffffffffffffffffffffffffffffffffff1663877034f1898c8c60006040518563ffffffff1660e01b8152600401610add9493929190614e25565b600060405180830381600087803b158015610af757600080fd5b505af1158015610b0b573d6000803e3d6000fd5b505050505050600060fb60009054906101000a900473ffffffffffffffffffffffffffffffffffffffff1673ffffffffffffffffffffffffffffffffffffffff1663294d499e6040518163ffffffff1660e01b815260040160006040518083038186803b158015610b7b57600080fd5b505afa158015610b8f573d6000803e3d6000fd5b505050506040513d6000823e3d601f19601f82011682018060405250810190610bb8919061460a565b905060005b8151811015610cee5760fc60009054906101000a900473ffffffffffffffffffffffffffffffffffffffff1673ffffffffffffffffffffffffffffffffffffffff166358166d2489848481518110610c3e577f4e487b7100000000000000000000000000000000000000000000000000000000600052603260045260246000fd5b6020026020010151338a8681518110610c80577f4e487b7100000000000000000000000000000000000000000000000000000000600052603260045260246000fd5b60200260200101518e6040518663ffffffff1660e01b8152600401610ca9959493929190614c5d565b600060405180830381600087803b158015610cc357600080fd5b505af1158015610cd7573d6000803e3d6000fd5b505050508080610ce6906154c8565b915050610bbd565b507f85801d8b70db8bdabd6c7f02c3cad017384b116cf25ca73238bba9a4d86bd1a387898b8888604051610d26959493929190614d56565b60405180910390a150505094509492505050565b8080421115610d7e576040517f08c379a0000000000000000000000000000000000000000000000000000000008152600401610d7590614f5e565b60405180910390fd5b8260fb60009054906101000a900473ffffffffffffffffffffffffffffffffffffffff1673ffffffffffffffffffffffffffffffffffffffff1663a0f026ff826040518263ffffffff1660e01b8152600401610dda9190614c19565b60206040518083038186803b158015610df257600080fd5b505afa158015610e06573d6000803e3d6000fd5b505050506040513d601f19601f82011682018060405250810190610e2a91906146ca565b610e69576040517f08c379a0000000000000000000000000000000000000000000000000000000008152600401610e6090614f7e565b60405180910390fd5b60fc60009054906101000a900473ffffffffffffffffffffffffffffffffffffffff1673ffffffffffffffffffffffffffffffffffffffff16633fa6b81933866040518363ffffffff1660e01b8152600401610ec6929190614c34565b600060405180830381600087803b158015610ee057600080fd5b505af1158015610ef4573d6000803e3d6000fd5b505050506000610fc06103e8610fb260fb60009054906101000a900473ffffffffffffffffffffffffffffffffffffffff1673ffffffffffffffffffffffffffffffffffffffff16639931286d6040518163ffffffff1660e01b815260040160206040518083038186803b158015610f6b57600080fd5b505afa158015610f7f573d6000803e3d6000fd5b505050506040513d601f19601f82011682018060405250810190610fa391906146f3565b89612cd490919063ffffffff16565b612cea90919063ffffffff16565b9050600060fb60009054906101000a900473ffffffffffffffffffffffffffffffffffffffff1673ffffffffffffffffffffffffffffffffffffffff1663d02641a0876040518263ffffffff1660e01b815260040161101f9190614c19565b60206040518083038186803b15801561103757600080fd5b505afa15801561104b573d6000803e3d6000fd5b505050506040513d601f19601f8201168201806040525081019061106f91906146f3565b905060fd60009054906101000a900473ffffffffffffffffffffffffffffffffffffffff1673ffffffffffffffffffffffffffffffffffffffff16639e718d076110c2848a612d0090919063ffffffff16565b60fd60009054906101000a900473ffffffffffffffffffffffffffffffffffffffff1673ffffffffffffffffffffffffffffffffffffffff1663bcbe3f22338b6040518363ffffffff1660e01b815260040161111f929190614c34565b60206040518083038186803b15801561113757600080fd5b505afa15801561114b573d6000803e3d6000fd5b505050506040513d601f19601f8201168201806040525081019061116f91906146f3565b846040518463ffffffff1660e01b815260040161118e93929190615139565b60206040518083038186803b1580156111a657600080fd5b505afa1580156111ba573d6000803e3d6000fd5b505050506040513d601f19601f820116820180604052508101906111de91906146f3565b60fd60009054906101000a900473ffffffffffffffffffffffffffffffffffffffff1673ffffffffffffffffffffffffffffffffffffffff1663e76ab23933896040518363ffffffff1660e01b815260040161123b929190614c34565b60206040518083038186803b15801561125357600080fd5b505afa158015611267573d6000803e3d6000fd5b505050506040513d601f19601f8201168201806040525081019061128b91906146f3565b10156112cc576040517f08c379a00000000000000000000000000000000000000000000000000000000081526004016112c390614f9e565b60405180910390fd5b6112d887878385612d16565b50505050505050565b6112ea82612a41565b6112f682826001612ac0565b5050565b808042111561133e576040517f08c379a000000000000000000000000000000000000000000000000000000000815260040161133590614f5e565b60405180910390fd5b8260fb60009054906101000a900473ffffffffffffffffffffffffffffffffffffffff1673ffffffffffffffffffffffffffffffffffffffff1663a0f026ff826040518263ffffffff1660e01b815260040161139a9190614c19565b60206040518083038186803b1580156113b257600080fd5b505afa1580156113c6573d6000803e3d6000fd5b505050506040513d601f19601f820116820180604052508101906113ea91906146ca565b611429576040517f08c379a000000000000000000000000000000000000000000000000000000000815260040161142090614f7e565b60405180910390fd5b600260c954141561146f576040517f08c379a00000000000000000000000000000000000000000000000000000000081526004016114669061509e565b60405180910390fd5b600260c98190555060fb60009054906101000a900473ffffffffffffffffffffffffffffffffffffffff1673ffffffffffffffffffffffffffffffffffffffff1663803c97b360fe60009054906101000a900473ffffffffffffffffffffffffffffffffffffffff166040518263ffffffff1660e01b81526004016114f49190614c19565b60206040518083038186803b15801561150c57600080fd5b505afa158015611520573d6000803e3d6000fd5b505050506040513d601f19601f8201168201806040525081019061154491906146ca565b611583576040517f08c379a000000000000000000000000000000000000000000000000000000000815260040161157a90614f3e565b60405180910390fd5b60fe60009054906101000a900473ffffffffffffffffffffffffffffffffffffffff1673ffffffffffffffffffffffffffffffffffffffff1663d0e30db0346040518263ffffffff1660e01b81526004016000604051808303818588803b1580156115ed57600080fd5b505af1158015611601573d6000803e3d6000fd5b5050505050611634858560fe60009054906101000a900473ffffffffffffffffffffffffffffffffffffffff16346132b3565b600160c9819055505050505050565b61164b6138e8565b73ffffffffffffffffffffffffffffffffffffffff1661166961189b565b73ffffffffffffffffffffffffffffffffffffffff16146116bf576040517f08c379a00000000000000000000000000000000000000000000000000000000081526004016116b69061501e565b60405180910390fd5b600073ffffffffffffffffffffffffffffffffffffffff16609760009054906101000a900473ffffffffffffffffffffffffffffffffffffffff1673ffffffffffffffffffffffffffffffffffffffff167f8be0079c531659141344cd1fd0a4f28419497f9722a3daafe3b4186f6b6457e060405160405180910390a36000609760006101000a81548173ffffffffffffffffffffffffffffffffffffffff021916908373ffffffffffffffffffffffffffffffffffffffff160217905550565b600060fb60009054906101000a900473ffffffffffffffffffffffffffffffffffffffff16905090565b600060019054906101000a900460ff16806117d0575060008054906101000a900460ff16155b61180f576040517f08c379a000000000000000000000000000000000000000000000000000000000815260040161180690614fbe565b60405180910390fd5b60008060019054906101000a900460ff16159050801561185f576001600060016101000a81548160ff02191690831515021790555060016000806101000a81548160ff0219169083151502179055505b6118676138f0565b61186f6139d9565b611877613ac2565b80156118985760008060016101000a81548160ff0219169083151502179055505b50565b6000609760009054906101000a900473ffffffffffffffffffffffffffffffffffffffff16905090565b6118cd6138e8565b73ffffffffffffffffffffffffffffffffffffffff166118eb61189b565b73ffffffffffffffffffffffffffffffffffffffff1614611941576040517f08c379a00000000000000000000000000000000000000000000000000000000081526004016119389061501e565b60405180910390fd5b8060fb60006101000a81548173ffffffffffffffffffffffffffffffffffffffff021916908373ffffffffffffffffffffffffffffffffffffffff16021790555060fb60009054906101000a900473ffffffffffffffffffffffffffffffffffffffff1673ffffffffffffffffffffffffffffffffffffffff166361d027b36040518163ffffffff1660e01b815260040160206040518083038186803b1580156119ea57600080fd5b505afa1580156119fe573d6000803e3d6000fd5b505050506040513d601f19601f82011682018060405250810190611a22919061458d565b60fc60006101000a81548173ffffffffffffffffffffffffffffffffffffffff021916908373ffffffffffffffffffffffffffffffffffffffff16021790555060fb60009054906101000a900473ffffffffffffffffffffffffffffffffffffffff1673ffffffffffffffffffffffffffffffffffffffff1663eb0a8b916040518163ffffffff1660e01b815260040160206040518083038186803b158015611aca57600080fd5b505afa158015611ade573d6000803e3d6000fd5b505050506040513d601f19601f82011682018060405250810190611b029190614564565b60fd60006101000a81548173ffffffffffffffffffffffffffffffffffffffff021916908373ffffffffffffffffffffffffffffffffffffffff16021790555060fb60009054906101000a900473ffffffffffffffffffffffffffffffffffffffff1673ffffffffffffffffffffffffffffffffffffffff1663ad5c46486040518163ffffffff1660e01b815260040160206040518083038186803b158015611baa57600080fd5b505afa158015611bbe573d6000803e3d6000fd5b505050506040513d601f19601f82011682018060405250810190611be29190614564565b60fe60006101000a81548173ffffffffffffffffffffffffffffffffffffffff021916908373ffffffffffffffffffffffffffffffffffffffff16021790555050565b8080421115611c69576040517f08c379a0000000000000000000000000000000000000000000000000000000008152600401611c6090614f5e565b60405180910390fd5b8260fb60009054906101000a900473ffffffffffffffffffffffffffffffffffffffff1673ffffffffffffffffffffffffffffffffffffffff1663a0f026ff826040518263ffffffff1660e01b8152600401611cc59190614c19565b60206040518083038186803b158015611cdd57600080fd5b505afa158015611cf1573d6000803e3d6000fd5b505050506040513d601f19601f82011682018060405250810190611d1591906146ca565b611d54576040517f08c379a0000000000000000000000000000000000000000000000000000000008152600401611d4b90614f7e565b60405180910390fd5b848473ffffffffffffffffffffffffffffffffffffffff166370a08231336040518263ffffffff1660e01b8152600401611d8e9190614c19565b60206040518083038186803b158015611da657600080fd5b505afa158015611dba573d6000803e3d6000fd5b505050506040513d601f19601f82011682018060405250810190611dde91906146f3565b1015611e1f576040517f08c379a0000000000000000000000000000000000000000000000000000000008152600401611e1690614fde565b60405180910390fd5b8460fb60009054906101000a900473ffffffffffffffffffffffffffffffffffffffff1673ffffffffffffffffffffffffffffffffffffffff1663498b5ae833876040518363ffffffff1660e01b8152600401611e7d929190614c34565b60206040518083038186803b158015611e9557600080fd5b505afa158015611ea9573d6000803e3d6000fd5b505050506040513d601f19601f82011682018060405250810190611ecd91906146f3565b1015611f0e576040517f08c379a0000000000000000000000000000000000000000000000000000000008152600401611f0590614fde565b60405180910390fd5b60fc60009054906101000a900473ffffffffffffffffffffffffffffffffffffffff1673ffffffffffffffffffffffffffffffffffffffff16633fa6b81933866040518363ffffffff1660e01b8152600401611f6b929190614c34565b600060405180830381600087803b158015611f8557600080fd5b505af1158015611f99573d6000803e3d6000fd5b5050505060008473ffffffffffffffffffffffffffffffffffffffff166370a08231336040518263ffffffff1660e01b8152600401611fd89190614c19565b60206040518083038186803b158015611ff057600080fd5b505afa158015612004573d6000803e3d6000fd5b505050506040513d601f19601f8201168201806040525081019061202891906146f3565b905060006120f26103e86120e460fb60009054906101000a900473ffffffffffffffffffffffffffffffffffffffff1673ffffffffffffffffffffffffffffffffffffffff1663e75fd0b56040518163ffffffff1660e01b815260040160206040518083038186803b15801561209d57600080fd5b505afa1580156120b1573d6000803e3d6000fd5b505050506040513d601f19601f820116820180604052508101906120d591906146f3565b8a612cd490919063ffffffff16565b612cea90919063ffffffff16565b90508573ffffffffffffffffffffffffffffffffffffffff166323b872dd3360fb60009054906101000a900473ffffffffffffffffffffffffffffffffffffffff1673ffffffffffffffffffffffffffffffffffffffff1663ec94578e6040518163ffffffff1660e01b815260040160206040518083038186803b15801561217957600080fd5b505afa15801561218d573d6000803e3d6000fd5b505050506040513d601f19601f820116820180604052508101906121b19190614564565b846040518463ffffffff1660e01b81526004016121d093929190614d1f565b602060405180830381600087803b1580156121ea57600080fd5b505af11580156121fe573d6000803e3d6000fd5b505050506040513d601f19601f8201168201806040525081019061222291906146ca565b5060006122388289613ba390919063ffffffff16565b90508673ffffffffffffffffffffffffffffffffffffffff16639dc29fac33836040518363ffffffff1660e01b8152600401612275929190614db7565b600060405180830381600087803b15801561228f57600080fd5b505af11580156122a3573d6000803e3d6000fd5b505050506122ba8884613ba390919063ffffffff16565b8773ffffffffffffffffffffffffffffffffffffffff166370a08231336040518263ffffffff1660e01b81526004016122f39190614c19565b60206040518083038186803b15801561230b57600080fd5b505afa15801561231f573d6000803e3d6000fd5b505050506040513d601f19601f8201168201806040525081019061234391906146f3565b14612377577f4e487b7100000000000000000000000000000000000000000000000000000000600052600160045260246000fd5b600060fb60009054906101000a900473ffffffffffffffffffffffffffffffffffffffff1673ffffffffffffffffffffffffffffffffffffffff1663498b5ae8338a6040518363ffffffff1660e01b81526004016123d6929190614c34565b60206040518083038186803b1580156123ee57600080fd5b505afa158015612402573d6000803e3d6000fd5b505050506040513d601f19601f8201168201806040525081019061242691906146f3565b905060fb60009054906101000a900473ffffffffffffffffffffffffffffffffffffffff1673ffffffffffffffffffffffffffffffffffffffff1663877034f133848b60006040518563ffffffff1660e01b815260040161248a9493929190614e25565b600060405180830381600087803b1580156124a457600080fd5b505af11580156124b8573d6000803e3d6000fd5b505050506124cf8282613ba390919063ffffffff16565b60fb60009054906101000a900473ffffffffffffffffffffffffffffffffffffffff1673ffffffffffffffffffffffffffffffffffffffff1663498b5ae8338b6040518363ffffffff1660e01b815260040161252c929190614c34565b60206040518083038186803b15801561254457600080fd5b505afa158015612558573d6000803e3d6000fd5b505050506040513d601f19601f8201168201806040525081019061257c91906146f3565b146125b0577f4e487b7100000000000000000000000000000000000000000000000000000000600052600160045260246000fd5b8773ffffffffffffffffffffffffffffffffffffffff167f3dd579c60f3ada65727e8d87353e1499f8784809ec65347e9520ee2ea25d3378836040516125f691906150be565b60405180910390a2505050505050505050565b808042111561264d576040517f08c379a000000000000000000000000000000000000000000000000000000000815260040161264490614f5e565b60405180910390fd5b600260c9541415612693576040517f08c379a000000000000000000000000000000000000000000000000000000000815260040161268a9061509e565b60405180910390fd5b600260c98190555060fb60009054906101000a900473ffffffffffffffffffffffffffffffffffffffff1673ffffffffffffffffffffffffffffffffffffffff1663803c97b3856040518263ffffffff1660e01b81526004016126f69190614c19565b60206040518083038186803b15801561270e57600080fd5b505afa158015612722573d6000803e3d6000fd5b505050506040513d601f19601f8201168201806040525081019061274691906146ca565b612785576040517f08c379a000000000000000000000000000000000000000000000000000000000815260040161277c90614ede565b60405180910390fd5b8373ffffffffffffffffffffffffffffffffffffffff166323b872dd3330866040518463ffffffff1660e01b81526004016127c293929190614d1f565b602060405180830381600087803b1580156127dc57600080fd5b505af11580156127f0573d6000803e3d6000fd5b505050506040513d601f19601f8201168201806040525081019061281491906146ca565b612853576040517f08c379a000000000000000000000000000000000000000000000000000000000815260040161284a9061503e565b60405180910390fd5b61285f868686866132b3565b600160c981905550505050505050565b6128776138e8565b73ffffffffffffffffffffffffffffffffffffffff1661289561189b565b73ffffffffffffffffffffffffffffffffffffffff16146128eb576040517f08c379a00000000000000000000000000000000000000000000000000000000081526004016128e29061501e565b60405180910390fd5b600073ffffffffffffffffffffffffffffffffffffffff168173ffffffffffffffffffffffffffffffffffffffff16141561295b576040517f08c379a000000000000000000000000000000000000000000000000000000000815260040161295290614f1e565b60405180910390fd5b8073ffffffffffffffffffffffffffffffffffffffff16609760009054906101000a900473ffffffffffffffffffffffffffffffffffffffff1673ffffffffffffffffffffffffffffffffffffffff167f8be0079c531659141344cd1fd0a4f28419497f9722a3daafe3b4186f6b6457e060405160405180910390a380609760006101000a81548173ffffffffffffffffffffffffffffffffffffffff021916908373ffffffffffffffffffffffffffffffffffffffff16021790555050565b60fb60009054906101000a900473ffffffffffffffffffffffffffffffffffffffff1681565b612a496138e8565b73ffffffffffffffffffffffffffffffffffffffff16612a6761189b565b73ffffffffffffffffffffffffffffffffffffffff1614612abd576040517f08c379a0000000000000000000000000000000000000000000000000000000008152600401612ab49061501e565b60405180910390fd5b50565b6000612aca613bb9565b9050612ad584613c10565b600083511180612ae25750815b15612af357612af18484613cc9565b505b6000612b217f4910fdfa16fed3260ed0e7147f7cc6da11a60208b5b9406d12a635614ffd914360001b613dad565b90508060000160009054906101000a900460ff16612ccd5760018160000160006101000a81548160ff021916908315150217905550612bed8583604051602401612b6b9190614c19565b6040516020818303038152906040527f3659cfe6000000000000000000000000000000000000000000000000000000007bffffffffffffffffffffffffffffffffffffffffffffffffffffffff19166020820180517bffffffffffffffffffffffffffffffffffffffffffffffffffffffff8381831617835250505050613cc9565b5060008160000160006101000a81548160ff021916908315150217905550612c13613bb9565b73ffffffffffffffffffffffffffffffffffffffff168273ffffffffffffffffffffffffffffffffffffffff1614612c80576040517f08c379a0000000000000000000000000000000000000000000000000000000008152600401612c7790614efe565b60405180910390fd5b612c8985613c10565b8473ffffffffffffffffffffffffffffffffffffffff167fbc7cd75a20ee27fd9adebab32041f755214dbc6bffa90cc0225b39da2e5c2d3b60405160405180910390a25b5050505050565b60008183612ce29190615349565b905092915050565b60008183612cf89190615318565b905092915050565b60008183612d0e91906152c2565b905092915050565b60008373ffffffffffffffffffffffffffffffffffffffff166370a08231336040518263ffffffff1660e01b8152600401612d519190614c19565b60206040518083038186803b158015612d6957600080fd5b505afa158015612d7d573d6000803e3d6000fd5b505050506040513d601f19601f82011682018060405250810190612da191906146f3565b90508373ffffffffffffffffffffffffffffffffffffffff166340c10f1933876040518363ffffffff1660e01b8152600401612dde929190614db7565b600060405180830381600087803b158015612df857600080fd5b505af1158015612e0c573d6000803e3d6000fd5b505050508373ffffffffffffffffffffffffffffffffffffffff166340c10f1960fb60009054906101000a900473ffffffffffffffffffffffffffffffffffffffff1673ffffffffffffffffffffffffffffffffffffffff1663ec94578e6040518163ffffffff1660e01b815260040160206040518083038186803b158015612e9457600080fd5b505afa158015612ea8573d6000803e3d6000fd5b505050506040513d601f19601f82011682018060405250810190612ecc9190614564565b846040518363ffffffff1660e01b8152600401612eea929190614db7565b600060405180830381600087803b158015612f0457600080fd5b505af1158015612f18573d6000803e3d6000fd5b50505050612f2f8582612d0090919063ffffffff16565b8473ffffffffffffffffffffffffffffffffffffffff166370a08231336040518263ffffffff1660e01b8152600401612f689190614c19565b60206040518083038186803b158015612f8057600080fd5b505afa158015612f94573d6000803e3d6000fd5b505050506040513d601f19601f82011682018060405250810190612fb891906146f3565b14612fec577f4e487b7100000000000000000000000000000000000000000000000000000000600052600160045260246000fd5b600060fb60009054906101000a900473ffffffffffffffffffffffffffffffffffffffff1673ffffffffffffffffffffffffffffffffffffffff1663498b5ae833876040518363ffffffff1660e01b815260040161304b929190614c34565b60206040518083038186803b15801561306357600080fd5b505afa158015613077573d6000803e3d6000fd5b505050506040513d601f19601f8201168201806040525081019061309b91906146f3565b905060fb60009054906101000a900473ffffffffffffffffffffffffffffffffffffffff1673ffffffffffffffffffffffffffffffffffffffff1663877034f1336130ef868a612d0090919063ffffffff16565b8860016040518563ffffffff1660e01b81526004016131119493929190614e25565b600060405180830381600087803b15801561312b57600080fd5b505af115801561313f573d6000803e3d6000fd5b5050505060fb60009054906101000a900473ffffffffffffffffffffffffffffffffffffffff1673ffffffffffffffffffffffffffffffffffffffff1663498b5ae833876040518363ffffffff1660e01b81526004016131a0929190614c34565b60206040518083038186803b1580156131b857600080fd5b505afa1580156131cc573d6000803e3d6000fd5b505050506040513d601f19601f820116820180604052508101906131f091906146f3565b613215846132078985612d0090919063ffffffff16565b612d0090919063ffffffff16565b14613249577f4e487b7100000000000000000000000000000000000000000000000000000000600052600160045260246000fd5b8473ffffffffffffffffffffffffffffffffffffffff167fb4a4751ef6a44118d02c7f8772a09a847f35ae4293a6c73ffc21039b8063568285613295868a612d0090919063ffffffff16565b6040516132a3929190615110565b60405180910390a2505050505050565b8173ffffffffffffffffffffffffffffffffffffffff1663095ea7b360fc60009054906101000a900473ffffffffffffffffffffffffffffffffffffffff16836040518363ffffffff1660e01b8152600401613310929190614db7565b602060405180830381600087803b15801561332a57600080fd5b505af115801561333e573d6000803e3d6000fd5b505050506040513d601f19601f8201168201806040525081019061336291906146ca565b613395577f4e487b7100000000000000000000000000000000000000000000000000000000600052600160045260246000fd5b60fc60009054906101000a900473ffffffffffffffffffffffffffffffffffffffff1673ffffffffffffffffffffffffffffffffffffffff16633fa6b81933856040518363ffffffff1660e01b81526004016133f2929190614c34565b600060405180830381600087803b15801561340c57600080fd5b505af1158015613420573d6000803e3d6000fd5b5050505060006134ec6103e86134de60fb60009054906101000a900473ffffffffffffffffffffffffffffffffffffffff1673ffffffffffffffffffffffffffffffffffffffff16639931286d6040518163ffffffff1660e01b815260040160206040518083038186803b15801561349757600080fd5b505afa1580156134ab573d6000803e3d6000fd5b505050506040513d601f19601f820116820180604052508101906134cf91906146f3565b88612cd490919063ffffffff16565b612cea90919063ffffffff16565b905060006135b66103e86135a860fb60009054906101000a900473ffffffffffffffffffffffffffffffffffffffff1673ffffffffffffffffffffffffffffffffffffffff16639df5138a6040518163ffffffff1660e01b815260040160206040518083038186803b15801561356157600080fd5b505afa158015613575573d6000803e3d6000fd5b505050506040513d601f19601f8201168201806040525081019061359991906146f3565b86612cd490919063ffffffff16565b612cea90919063ffffffff16565b90506135cb8184613ba390919063ffffffff16565b9250600060fb60009054906101000a900473ffffffffffffffffffffffffffffffffffffffff1673ffffffffffffffffffffffffffffffffffffffff1663d02641a0876040518263ffffffff1660e01b815260040161362a9190614c19565b60206040518083038186803b15801561364257600080fd5b505afa158015613656573d6000803e3d6000fd5b505050506040513d601f19601f8201168201806040525081019061367a91906146f3565b905060fd60009054906101000a900473ffffffffffffffffffffffffffffffffffffffff1673ffffffffffffffffffffffffffffffffffffffff1663e2799623338888886136d1898e612d0090919063ffffffff16565b8760fb60009054906101000a900473ffffffffffffffffffffffffffffffffffffffff1673ffffffffffffffffffffffffffffffffffffffff1663d02641a08e6040518263ffffffff1660e01b815260040161372d9190614c19565b60206040518083038186803b15801561374557600080fd5b505afa158015613759573d6000803e3d6000fd5b505050506040513d601f19601f8201168201806040525081019061377d91906146f3565b6040518863ffffffff1660e01b815260040161379f9796959493929190614cb0565b60206040518083038186803b1580156137b757600080fd5b505afa1580156137cb573d6000803e3d6000fd5b505050506040513d601f19601f820116820180604052508101906137ef91906146ca565b61382e576040517f08c379a000000000000000000000000000000000000000000000000000000000815260040161382590614f9e565b60405180910390fd5b60fc60009054906101000a900473ffffffffffffffffffffffffffffffffffffffff1673ffffffffffffffffffffffffffffffffffffffff1663ce1c1851336138808588612d0090919063ffffffff16565b888a6040518563ffffffff1660e01b81526004016138a19493929190614de0565b600060405180830381600087803b1580156138bb57600080fd5b505af11580156138cf573d6000803e3d6000fd5b505050506138df87878386612d16565b50505050505050565b600033905090565b600060019054906101000a900460ff1680613916575060008054906101000a900460ff16155b613955576040517f08c379a000000000000000000000000000000000000000000000000000000000815260040161394c90614fbe565b60405180910390fd5b60008060019054906101000a900460ff1615905080156139a5576001600060016101000a81548160ff02191690831515021790555060016000806101000a81548160ff0219169083151502179055505b6139ad613db7565b6139b5613e90565b80156139d65760008060016101000a81548160ff0219169083151502179055505b50565b600060019054906101000a900460ff16806139ff575060008054906101000a900460ff16155b613a3e576040517f08c379a0000000000000000000000000000000000000000000000000000000008152600401613a3590614fbe565b60405180910390fd5b60008060019054906101000a900460ff161590508015613a8e576001600060016101000a81548160ff02191690831515021790555060016000806101000a81548160ff0219169083151502179055505b613a96613f69565b613a9e614042565b8015613abf5760008060016101000a81548160ff0219169083151502179055505b50565b600060019054906101000a900460ff1680613ae8575060008054906101000a900460ff16155b613b27576040517f08c379a0000000000000000000000000000000000000000000000000000000008152600401613b1e90614fbe565b60405180910390fd5b60008060019054906101000a900460ff161590508015613b77576001600060016101000a81548160ff02191690831515021790555060016000806101000a81548160ff0219169083151502179055505b613b7f6141c4565b8015613ba05760008060016101000a81548160ff0219169083151502179055505b50565b60008183613bb191906153a3565b905092915050565b6000613be77f360894a13ba1a3210667c828492db98dca3e2076cc3735a920a3ca505d382bbc60001b6142a5565b60000160009054906101000a900473ffffffffffffffffffffffffffffffffffffffff16905090565b613c19816142af565b613c58576040517f08c379a0000000000000000000000000000000000000000000000000000000008152600401613c4f90614ffe565b60405180910390fd5b80613c857f360894a13ba1a3210667c828492db98dca3e2076cc3735a920a3ca505d382bbc60001b6142a5565b60000160006101000a81548173ffffffffffffffffffffffffffffffffffffffff021916908373ffffffffffffffffffffffffffffffffffffffff16021790555050565b6060613cd4836142af565b613d13576040517f08c379a0000000000000000000000000000000000000000000000000000000008152600401613d0a9061505e565b60405180910390fd5b6000808473ffffffffffffffffffffffffffffffffffffffff1684604051613d3b9190614c02565b600060405180830381855af49150503d8060008114613d76576040519150601f19603f3d011682016040523d82523d6000602084013e613d7b565b606091505b5091509150613da38282604051806060016040528060278152602001615957602791396142c2565b9250505092915050565b6000819050919050565b600060019054906101000a900460ff1680613ddd575060008054906101000a900460ff16155b613e1c576040517f08c379a0000000000000000000000000000000000000000000000000000000008152600401613e1390614fbe565b60405180910390fd5b60008060019054906101000a900460ff161590508015613e6c576001600060016101000a81548160ff02191690831515021790555060016000806101000a81548160ff0219169083151502179055505b8015613e8d5760008060016101000a81548160ff0219169083151502179055505b50565b600060019054906101000a900460ff1680613eb6575060008054906101000a900460ff16155b613ef5576040517f08c379a0000000000000000000000000000000000000000000000000000000008152600401613eec90614fbe565b60405180910390fd5b60008060019054906101000a900460ff161590508015613f45576001600060016101000a81548160ff02191690831515021790555060016000806101000a81548160ff0219169083151502179055505b8015613f665760008060016101000a81548160ff0219169083151502179055505b50565b600060019054906101000a900460ff1680613f8f575060008054906101000a900460ff16155b613fce576040517f08c379a0000000000000000000000000000000000000000000000000000000008152600401613fc590614fbe565b60405180910390fd5b60008060019054906101000a900460ff16159050801561401e576001600060016101000a81548160ff02191690831515021790555060016000806101000a81548160ff0219169083151502179055505b801561403f5760008060016101000a81548160ff0219169083151502179055505b50565b600060019054906101000a900460ff1680614068575060008054906101000a900460ff16155b6140a7576040517f08c379a000000000000000000000000000000000000000000000000000000000815260040161409e90614fbe565b60405180910390fd5b60008060019054906101000a900460ff1615905080156140f7576001600060016101000a81548160ff02191690831515021790555060016000806101000a81548160ff0219169083151502179055505b60006141016138e8565b905080609760006101000a81548173ffffffffffffffffffffffffffffffffffffffff021916908373ffffffffffffffffffffffffffffffffffffffff1602179055508073ffffffffffffffffffffffffffffffffffffffff16600073ffffffffffffffffffffffffffffffffffffffff167f8be0079c531659141344cd1fd0a4f28419497f9722a3daafe3b4186f6b6457e060405160405180910390a35080156141c15760008060016101000a81548160ff0219169083151502179055505b50565b600060019054906101000a900460ff16806141ea575060008054906101000a900460ff16155b614229576040517f08c379a000000000000000000000000000000000000000000000000000000000815260040161422090614fbe565b60405180910390fd5b60008060019054906101000a900460ff161590508015614279576001600060016101000a81548160ff02191690831515021790555060016000806101000a81548160ff0219169083151502179055505b600160c98190555080156142a25760008060016101000a81548160ff0219169083151502179055505b50565b6000819050919050565b600080823b905060008111915050919050565b606083156142d257829050614322565b6000835111156142e55782518084602001fd5b816040517f08c379a00000000000000000000000000000000000000000000000000000000081526004016143199190614ebc565b60405180910390fd5b9392505050565b600061433c61433784615195565b615170565b9050808382526020820190508285602086028201111561435b57600080fd5b60005b8581101561438b57816143718882614454565b84526020840193506020830192505060018101905061435e565b5050509392505050565b60006143a86143a3846151c1565b615170565b905080838252602082019050828560208602820111156143c757600080fd5b60005b858110156143f757816143dd8882614526565b8452602084019350602083019250506001810190506143ca565b5050509392505050565b600061441461440f846151ed565b615170565b90508281526020810184848401111561442c57600080fd5b614437848285615455565b509392505050565b60008135905061444e816158fa565b92915050565b600081519050614463816158fa565b92915050565b60008151905061447881615911565b92915050565b600082601f83011261448f57600080fd5b815161449f848260208601614329565b91505092915050565b600082601f8301126144b957600080fd5b81516144c9848260208601614395565b91505092915050565b6000815190506144e181615928565b92915050565b600082601f8301126144f857600080fd5b8135614508848260208601614401565b91505092915050565b6000813590506145208161593f565b92915050565b6000815190506145358161593f565b92915050565b60006020828403121561454d57600080fd5b600061455b8482850161443f565b91505092915050565b60006020828403121561457657600080fd5b600061458484828501614454565b91505092915050565b60006020828403121561459f57600080fd5b60006145ad84828501614469565b91505092915050565b600080604083850312156145c957600080fd5b60006145d78582860161443f565b925050602083013567ffffffffffffffff8111156145f457600080fd5b614600858286016144e7565b9150509250929050565b60006020828403121561461c57600080fd5b600082015167ffffffffffffffff81111561463657600080fd5b6146428482850161447e565b91505092915050565b60008060006060848603121561466057600080fd5b600084015167ffffffffffffffff81111561467a57600080fd5b6146868682870161447e565b935050602084015167ffffffffffffffff8111156146a357600080fd5b6146af868287016144a8565b92505060406146c0868287016144d2565b9150509250925092565b6000602082840312156146dc57600080fd5b60006146ea848285016144d2565b91505092915050565b60006020828403121561470557600080fd5b600061471384828501614526565b91505092915050565b6000806000806080858703121561473257600080fd5b600061474087828801614511565b94505060206147518782880161443f565b93505060406147628782880161443f565b925050606061477387828801614511565b91505092959194509250565b600080600080600060a0868803121561479757600080fd5b60006147a588828901614511565b95505060206147b68882890161443f565b94505060406147c78882890161443f565b93505060606147d888828901614511565b92505060806147e988828901614511565b9150509295509295909350565b60008060006060848603121561480b57600080fd5b600061481986828701614511565b935050602061482a8682870161443f565b925050604061483b86828701614511565b9150509250925092565b60006148518383614875565b60208301905092915050565b60006148698383614be4565b60208301905092915050565b61487e816153d7565b82525050565b61488d816153d7565b82525050565b600061489e8261523e565b6148a88185615284565b93506148b38361521e565b8060005b838110156148e45781516148cb8882614845565b97506148d68361526a565b9250506001810190506148b7565b5085935050505092915050565b60006148fc82615249565b6149068185615295565b93506149118361522e565b8060005b83811015614942578151614929888261485d565b975061493483615277565b925050600181019050614915565b5085935050505092915050565b614958816153fb565b82525050565b600061496982615254565b61497381856152a6565b9350614983818560208601615464565b80840191505092915050565b61499881615431565b82525050565b60006149a98261525f565b6149b381856152b1565b93506149c3818560208601615464565b6149cc8161559e565b840191505092915050565b60006149e46002836152b1565b91506149ef826155af565b602082019050919050565b6000614a07602f836152b1565b9150614a12826155d8565b604082019050919050565b6000614a2a6026836152b1565b9150614a3582615627565b604082019050919050565b6000614a4d6002836152b1565b9150614a5882615676565b602082019050919050565b6000614a706021836152b1565b9150614a7b8261569f565b604082019050919050565b6000614a936002836152b1565b9150614a9e826156ee565b602082019050919050565b6000614ab66002836152b1565b9150614ac182615717565b602082019050919050565b6000614ad9602e836152b1565b9150614ae482615740565b604082019050919050565b6000614afc6002836152b1565b9150614b078261578f565b602082019050919050565b6000614b1f602d836152b1565b9150614b2a826157b8565b604082019050919050565b6000614b426020836152b1565b9150614b4d82615807565b602082019050919050565b6000614b656002836152b1565b9150614b7082615830565b602082019050919050565b6000614b886026836152b1565b9150614b9382615859565b604082019050919050565b6000614bab6002836152b1565b9150614bb6826158a8565b602082019050919050565b6000614bce601f836152b1565b9150614bd9826158d1565b602082019050919050565b614bed81615427565b82525050565b614bfc81615427565b82525050565b6000614c0e828461495e565b915081905092915050565b6000602082019050614c2e6000830184614884565b92915050565b6000604082019050614c496000830185614884565b614c566020830184614884565b9392505050565b600060a082019050614c726000830188614884565b614c7f6020830187614884565b614c8c6040830186614884565b614c996060830185614bf3565b614ca66080830184614884565b9695505050505050565b600060e082019050614cc5600083018a614884565b614cd26020830189614884565b614cdf6040830188614884565b614cec6060830187614bf3565b614cf96080830186614bf3565b614d0660a0830185614bf3565b614d1360c0830184614bf3565b98975050505050505050565b6000606082019050614d346000830186614884565b614d416020830185614884565b614d4e6040830184614bf3565b949350505050565b600060a082019050614d6b6000830188614884565b614d786020830187614884565b614d856040830186614bf3565b8181036060830152614d9781856148f1565b90508181036080830152614dab8184614893565b90509695505050505050565b6000604082019050614dcc6000830185614884565b614dd96020830184614bf3565b9392505050565b6000608082019050614df56000830187614884565b614e026020830186614bf3565b614e0f6040830185614884565b614e1c6060830184614884565b95945050505050565b6000608082019050614e3a6000830187614884565b614e476020830186614bf3565b614e546040830185614884565b614e61606083018461494f565b95945050505050565b60006040820190508181036000830152614e8481856148f1565b90508181036020830152614e988184614893565b90509392505050565b6000602082019050614eb6600083018461498f565b92915050565b60006020820190508181036000830152614ed6818461499e565b905092915050565b60006020820190508181036000830152614ef7816149d7565b9050919050565b60006020820190508181036000830152614f17816149fa565b9050919050565b60006020820190508181036000830152614f3781614a1d565b9050919050565b60006020820190508181036000830152614f5781614a40565b9050919050565b60006020820190508181036000830152614f7781614a63565b9050919050565b60006020820190508181036000830152614f9781614a86565b9050919050565b60006020820190508181036000830152614fb781614aa9565b9050919050565b60006020820190508181036000830152614fd781614acc565b9050919050565b60006020820190508181036000830152614ff781614aef565b9050919050565b6000602082019050818103600083015261501781614b12565b9050919050565b6000602082019050818103600083015261503781614b35565b9050919050565b6000602082019050818103600083015261505781614b58565b9050919050565b6000602082019050818103600083015261507781614b7b565b9050919050565b6000602082019050818103600083015261509781614b9e565b9050919050565b600060208201905081810360008301526150b781614bc1565b9050919050565b60006020820190506150d36000830184614bf3565b92915050565b60006060820190506150ee6000830186614bf3565b6150fb6020830185614884565b6151086040830184614884565b949350505050565b60006040820190506151256000830185614bf3565b6151326020830184614bf3565b9392505050565b600060608201905061514e6000830186614bf3565b61515b6020830185614bf3565b6151686040830184614bf3565b949350505050565b600061517a61518b565b90506151868282615497565b919050565b6000604051905090565b600067ffffffffffffffff8211156151b0576151af61556f565b5b602082029050602081019050919050565b600067ffffffffffffffff8211156151dc576151db61556f565b5b602082029050602081019050919050565b600067ffffffffffffffff8211156152085761520761556f565b5b6152118261559e565b9050602081019050919050565b6000819050602082019050919050565b6000819050602082019050919050565b600081519050919050565b600081519050919050565b600081519050919050565b600081519050919050565b6000602082019050919050565b6000602082019050919050565b600082825260208201905092915050565b600082825260208201905092915050565b600081905092915050565b600082825260208201905092915050565b60006152cd82615427565b91506152d883615427565b9250827fffffffffffffffffffffffffffffffffffffffffffffffffffffffffffffffff0382111561530d5761530c615511565b5b828201905092915050565b600061532382615427565b915061532e83615427565b92508261533e5761533d615540565b5b828204905092915050565b600061535482615427565b915061535f83615427565b9250817fffffffffffffffffffffffffffffffffffffffffffffffffffffffffffffffff048311821515161561539857615397615511565b5b828202905092915050565b60006153ae82615427565b91506153b983615427565b9250828210156153cc576153cb615511565b5b828203905092915050565b60006153e282615407565b9050919050565b60006153f482615407565b9050919050565b60008115159050919050565b600073ffffffffffffffffffffffffffffffffffffffff82169050919050565b6000819050919050565b600061543c82615443565b9050919050565b600061544e82615407565b9050919050565b82818337600083830152505050565b60005b83811015615482578082015181840152602081019050615467565b83811115615491576000848401525b50505050565b6154a08261559e565b810181811067ffffffffffffffff821117156154bf576154be61556f565b5b80604052505050565b60006154d382615427565b91507fffffffffffffffffffffffffffffffffffffffffffffffffffffffffffffffff82141561550657615505615511565b5b600182019050919050565b7f4e487b7100000000000000000000000000000000000000000000000000000000600052601160045260246000fd5b7f4e487b7100000000000000000000000000000000000000000000000000000000600052601260045260246000fd5b7f4e487b7100000000000000000000000000000000000000000000000000000000600052604160045260246000fd5b6000601f19601f8301169050919050565b7f4943000000000000000000000000000000000000000000000000000000000000600082015250565b7f45524331393637557067726164653a207570677261646520627265616b73206660008201527f7572746865722075706772616465730000000000000000000000000000000000602082015250565b7f4f776e61626c653a206e6577206f776e657220697320746865207a65726f206160008201527f6464726573730000000000000000000000000000000000000000000000000000602082015250565b7f5745000000000000000000000000000000000000000000000000000000000000600082015250565b7f5472616e73616374696f6e2068617320657863656564656420646561646c696e60008201527f6500000000000000000000000000000000000000000000000000000000000000602082015250565b7f4946000000000000000000000000000000000000000000000000000000000000600082015250565b7f4352000000000000000000000000000000000000000000000000000000000000600082015250565b7f496e697469616c697a61626c653a20636f6e747261637420697320616c72656160008201527f647920696e697469616c697a6564000000000000000000000000000000000000602082015250565b7f4941000000000000000000000000000000000000000000000000000000000000600082015250565b7f455243313936373a206e657720696d706c656d656e746174696f6e206973206e60008201527f6f74206120636f6e747261637400000000000000000000000000000000000000602082015250565b7f4f776e61626c653a2063616c6c6572206973206e6f7420746865206f776e6572600082015250565b7f4654000000000000000000000000000000000000000000000000000000000000600082015250565b7f416464726573733a2064656c65676174652063616c6c20746f206e6f6e2d636f60008201527f6e74726163740000000000000000000000000000000000000000000000000000602082015250565b7f4341000000000000000000000000000000000000000000000000000000000000600082015250565b7f5265656e7472616e637947756172643a207265656e7472616e742063616c6c00600082015250565b615903816153d7565b811461590e57600080fd5b50565b61591a816153e9565b811461592557600080fd5b50565b615931816153fb565b811461593c57600080fd5b50565b61594881615427565b811461595357600080fd5b5056fe416464726573733a206c6f772d6c6576656c2064656c65676174652063616c6c206661696c6564a26469706673582212202b367243c1522e77dfc5a46e23ea9facd4bc8059120418e8b169fef4756ac67b64736f6c63430008030033",
  "linkReferences": {},
  "deployedLinkReferences": {}
}