{
  "_format": "hh-sol-artifact-1",
  "contractName": "Comptroller",
  "sourceName": "contracts/Bank/Comptroller.sol",
  "abi": [
    {
      "anonymous": false,
      "inputs": [
        {
          "indexed": false,
          "internalType": "address",
          "name": "previousAdmin",
          "type": "address"
        },
        {
          "indexed": false,
          "internalType": "address",
          "name": "newAdmin",
          "type": "address"
        }
      ],
      "name": "AdminChanged",
      "type": "event"
    },
    {
      "anonymous": false,
      "inputs": [
        {
          "indexed": true,
          "internalType": "address",
          "name": "beacon",
          "type": "address"
        }
      ],
      "name": "BeaconUpgraded",
      "type": "event"
    },
    {
      "anonymous": false,
      "inputs": [
        {
          "indexed": false,
          "internalType": "uint256",
          "name": "amountBurned",
          "type": "uint256"
        },
        {
          "indexed": true,
          "internalType": "address",
          "name": "token",
          "type": "address"
        }
      ],
      "name": "BurnToken",
      "type": "event"
    },
    {
      "anonymous": false,
      "inputs": [
        {
          "indexed": false,
          "internalType": "uint256",
          "name": "tokenRate",
          "type": "uint256"
        },
        {
          "indexed": false,
          "internalType": "uint256",
          "name": "amountMinted",
          "type": "uint256"
        },
        {
          "indexed": true,
          "internalType": "address",
          "name": "token",
          "type": "address"
        }
      ],
      "name": "MintToken",
      "type": "event"
    },
    {
      "anonymous": false,
      "inputs": [
        {
          "indexed": true,
          "internalType": "address",
          "name": "previousOwner",
          "type": "address"
        },
        {
          "indexed": true,
          "internalType": "address",
          "name": "newOwner",
          "type": "address"
        }
      ],
      "name": "OwnershipTransferred",
      "type": "event"
    },
    {
      "anonymous": false,
      "inputs": [
        {
          "indexed": true,
          "internalType": "address",
          "name": "implementation",
          "type": "address"
        }
      ],
      "name": "Upgraded",
      "type": "event"
    },
    {
      "inputs": [
        {
          "internalType": "uint256",
          "name": "amount",
          "type": "uint256"
        },
        {
          "internalType": "address",
          "name": "token",
          "type": "address"
        },
        {
          "internalType": "uint256",
          "name": "deadline",
          "type": "uint256"
        }
      ],
      "name": "burn",
      "outputs": [],
      "stateMutability": "nonpayable",
      "type": "function"
    },
    {
      "inputs": [],
      "name": "handleAddress",
      "outputs": [
        {
          "internalType": "address",
          "name": "",
          "type": "address"
        }
      ],
      "stateMutability": "view",
      "type": "function"
    },
    {
      "inputs": [],
      "name": "initialize",
      "outputs": [],
      "stateMutability": "nonpayable",
      "type": "function"
    },
    {
      "inputs": [],
      "name": "minimumMintingAmount",
      "outputs": [
        {
          "internalType": "uint256",
          "name": "",
          "type": "uint256"
        }
      ],
      "stateMutability": "view",
      "type": "function"
    },
    {
      "inputs": [
        {
          "internalType": "uint256",
          "name": "tokenAmount",
          "type": "uint256"
        },
        {
          "internalType": "address",
          "name": "token",
          "type": "address"
        },
        {
          "internalType": "address",
          "name": "collateralToken",
          "type": "address"
        },
        {
          "internalType": "uint256",
          "name": "collateralAmount",
          "type": "uint256"
        },
        {
          "internalType": "uint256",
          "name": "deadline",
          "type": "uint256"
        },
        {
          "internalType": "address",
          "name": "referral",
          "type": "address"
        }
      ],
      "name": "mint",
      "outputs": [],
      "stateMutability": "nonpayable",
      "type": "function"
    },
    {
      "inputs": [
        {
          "internalType": "uint256",
          "name": "tokenAmount",
          "type": "uint256"
        },
        {
          "internalType": "address",
          "name": "token",
          "type": "address"
        },
        {
          "internalType": "uint256",
          "name": "deadline",
          "type": "uint256"
        },
        {
          "internalType": "address",
          "name": "referral",
          "type": "address"
        }
      ],
      "name": "mintWithEth",
      "outputs": [],
      "stateMutability": "payable",
      "type": "function"
    },
    {
      "inputs": [
        {
          "internalType": "uint256",
          "name": "tokenAmount",
          "type": "uint256"
        },
        {
          "internalType": "address",
          "name": "token",
          "type": "address"
        },
        {
          "internalType": "uint256",
          "name": "deadline",
          "type": "uint256"
        },
        {
          "internalType": "address",
          "name": "referral",
          "type": "address"
        }
      ],
      "name": "mintWithoutCollateral",
      "outputs": [],
      "stateMutability": "nonpayable",
      "type": "function"
    },
    {
      "inputs": [],
      "name": "owner",
      "outputs": [
        {
          "internalType": "address",
          "name": "",
          "type": "address"
        }
      ],
      "stateMutability": "view",
      "type": "function"
    },
    {
      "inputs": [],
      "name": "renounceOwnership",
      "outputs": [],
      "stateMutability": "nonpayable",
      "type": "function"
    },
    {
      "inputs": [
        {
          "internalType": "address",
          "name": "_handle",
          "type": "address"
        }
      ],
      "name": "setHandleContract",
      "outputs": [],
      "stateMutability": "nonpayable",
      "type": "function"
    },
    {
      "inputs": [
        {
          "internalType": "uint256",
          "name": "amount",
          "type": "uint256"
        }
      ],
      "name": "setMinimumMintingAmount",
      "outputs": [],
      "stateMutability": "nonpayable",
      "type": "function"
    },
    {
      "inputs": [
        {
          "internalType": "address",
          "name": "newOwner",
          "type": "address"
        }
      ],
      "name": "transferOwnership",
      "outputs": [],
      "stateMutability": "nonpayable",
      "type": "function"
    },
    {
      "inputs": [
        {
          "internalType": "address",
          "name": "newImplementation",
          "type": "address"
        }
      ],
      "name": "upgradeTo",
      "outputs": [],
      "stateMutability": "nonpayable",
      "type": "function"
    },
    {
      "inputs": [
        {
          "internalType": "address",
          "name": "newImplementation",
          "type": "address"
        },
        {
          "internalType": "bytes",
          "name": "data",
          "type": "bytes"
        }
      ],
      "name": "upgradeToAndCall",
      "outputs": [],
      "stateMutability": "payable",
      "type": "function"
    },
    {
      "stateMutability": "payable",
      "type": "receive"
    }
  ],
  "bytecode": "0x608060405234801561001057600080fd5b50615b8f80620000216000396000f3fe6080604052600436106100e15760003560e01c80638129fc1c1161007f5780639b1c414f116100595780639b1c414f146102e05780639eea5f6614610309578063a1e34fb114610332578063f2fde38b1461034e5761016c565b80638129fc1c14610275578063861a8a5b1461028c5780638da5cb5b146102b55761016c565b8063422ca4b7116100bb578063422ca4b7146101ee5780634f1ef28614610217578063715018a61461023357806374bf578b1461024a5761016c565b8063282f31cc146101715780633659cfe61461019a5780633fad191b146101c35761016c565b3661016c5760fe60009054906101000a900473ffffffffffffffffffffffffffffffffffffffff1673ffffffffffffffffffffffffffffffffffffffff163373ffffffffffffffffffffffffffffffffffffffff161461016a577f4e487b7100000000000000000000000000000000000000000000000000000000600052600160045260246000fd5b005b600080fd5b34801561017d57600080fd5b5061019860048036038101906101939190614946565b610377565b005b3480156101a657600080fd5b506101c160048036038101906101bc91906147e2565b6103fd565b005b3480156101cf57600080fd5b506101d8610424565b6040516101e5919061529a565b60405180910390f35b3480156101fa57600080fd5b5061021560048036038101906102109190614998565b61042a565b005b610231600480360381019061022c919061485d565b6106e1565b005b34801561023f57600080fd5b506102486106fa565b005b34801561025657600080fd5b5061025f610837565b60405161026c9190614e1a565b60405180910390f35b34801561028157600080fd5b5061028a610861565b005b34801561029857600080fd5b506102b360048036038101906102ae9190614a70565b610952565b005b3480156102c157600080fd5b506102ca61101b565b6040516102d79190614e1a565b60405180910390f35b3480156102ec57600080fd5b50610307600480360381019061030291906147e2565b611045565b005b34801561031557600080fd5b50610330600480360381019061032b9190614a21565b6113a5565b005b61034c60048036038101906103479190614a70565b6120cf565b005b34801561035a57600080fd5b50610375600480360381019061037091906147e2565b612469565b005b61037f612615565b73ffffffffffffffffffffffffffffffffffffffff1661039d61101b565b73ffffffffffffffffffffffffffffffffffffffff16146103f3576040517f08c379a00000000000000000000000000000000000000000000000000000000081526004016103ea906151ba565b60405180910390fd5b8060ff8190555050565b6104068161261d565b6104218160405180602001604052806000815250600061269c565b50565b60ff5481565b818042111561046e576040517f08c379a0000000000000000000000000000000000000000000000000000000008152600401610465906150da565b60405180910390fd5b600260c95414156104b4576040517f08c379a00000000000000000000000000000000000000000000000000000000081526004016104ab9061525a565b60405180910390fd5b600260c98190555060fb60009054906101000a900473ffffffffffffffffffffffffffffffffffffffff1673ffffffffffffffffffffffffffffffffffffffff1663803c97b3866040518263ffffffff1660e01b81526004016105179190614e1a565b60206040518083038186803b15801561052f57600080fd5b505afa158015610543573d6000803e3d6000fd5b505050506040513d601f19601f82011682018060405250810190610567919061491d565b6105a6576040517f08c379a000000000000000000000000000000000000000000000000000000000815260040161059d9061505a565b60405180910390fd5b6000871180156105b65750600084115b6105f5576040517f08c379a00000000000000000000000000000000000000000000000000000000081526004016105ec9061517a565b60405180910390fd5b8473ffffffffffffffffffffffffffffffffffffffff166323b872dd3330876040518463ffffffff1660e01b815260040161063293929190614ecd565b602060405180830381600087803b15801561064c57600080fd5b505af1158015610660573d6000803e3d6000fd5b505050506040513d601f19601f82011682018060405250810190610684919061491d565b6106c3576040517f08c379a00000000000000000000000000000000000000000000000000000000081526004016106ba906151da565b60405180910390fd5b6106d087878787866128b0565b600160c98190555050505050505050565b6106ea8261261d565b6106f68282600161269c565b5050565b610702612615565b73ffffffffffffffffffffffffffffffffffffffff1661072061101b565b73ffffffffffffffffffffffffffffffffffffffff1614610776576040517f08c379a000000000000000000000000000000000000000000000000000000000815260040161076d906151ba565b60405180910390fd5b600073ffffffffffffffffffffffffffffffffffffffff16609760009054906101000a900473ffffffffffffffffffffffffffffffffffffffff1673ffffffffffffffffffffffffffffffffffffffff167f8be0079c531659141344cd1fd0a4f28419497f9722a3daafe3b4186f6b6457e060405160405180910390a36000609760006101000a81548173ffffffffffffffffffffffffffffffffffffffff021916908373ffffffffffffffffffffffffffffffffffffffff160217905550565b600060fb60009054906101000a900473ffffffffffffffffffffffffffffffffffffffff16905090565b600060019054906101000a900460ff1680610887575060008054906101000a900460ff16155b6108c6576040517f08c379a00000000000000000000000000000000000000000000000000000000081526004016108bd9061515a565b60405180910390fd5b60008060019054906101000a900460ff161590508015610916576001600060016101000a81548160ff02191690831515021790555060016000806101000a81548160ff0219169083151502179055505b61091e612e20565b610926612f09565b61092e612ff2565b801561094f5760008060016101000a81548160ff0219169083151502179055505b50565b8180421115610996576040517f08c379a000000000000000000000000000000000000000000000000000000000815260040161098d906150da565b60405180910390fd5b8360fb60009054906101000a900473ffffffffffffffffffffffffffffffffffffffff1673ffffffffffffffffffffffffffffffffffffffff1663a0f026ff826040518263ffffffff1660e01b81526004016109f29190614e1a565b60206040518083038186803b158015610a0a57600080fd5b505afa158015610a1e573d6000803e3d6000fd5b505050506040513d601f19601f82011682018060405250810190610a42919061491d565b610a81576040517f08c379a0000000000000000000000000000000000000000000000000000000008152600401610a789061511a565b60405180910390fd5b600260c9541415610ac7576040517f08c379a0000000000000000000000000000000000000000000000000000000008152600401610abe9061525a565b60405180910390fd5b600260c98190555060008611610b12576040517f08c379a0000000000000000000000000000000000000000000000000000000008152600401610b099061517a565b60405180910390fd5b600060fb60009054906101000a900473ffffffffffffffffffffffffffffffffffffffff1673ffffffffffffffffffffffffffffffffffffffff1663d02641a0876040518263ffffffff1660e01b8152600401610b6f9190614e1a565b60206040518083038186803b158015610b8757600080fd5b505afa158015610b9b573d6000803e3d6000fd5b505050506040513d601f19601f82011682018060405250810190610bbf919061496f565b9050610bcf3387838a60016130d3565b610bd933856132cb565b60fb60009054906101000a900473ffffffffffffffffffffffffffffffffffffffff1673ffffffffffffffffffffffffffffffffffffffff1663c392f7666040518163ffffffff1660e01b815260040160206040518083038186803b158015610c4157600080fd5b505afa158015610c55573d6000803e3d6000fd5b505050506040513d601f19601f82011682018060405250810190610c79919061480b565b73ffffffffffffffffffffffffffffffffffffffff16634342fef56040518163ffffffff1660e01b8152600401600060405180830381600087803b158015610cc057600080fd5b505af1158015610cd4573d6000803e3d6000fd5b505050506000610da06103e8610d9260fb60009054906101000a900473ffffffffffffffffffffffffffffffffffffffff1673ffffffffffffffffffffffffffffffffffffffff16639931286d6040518163ffffffff1660e01b815260040160206040518083038186803b158015610d4b57600080fd5b505afa158015610d5f573d6000803e3d6000fd5b505050506040513d601f19601f82011682018060405250810190610d83919061496f565b8b6133db90919063ffffffff16565b6133f190919063ffffffff16565b905060fd60009054906101000a900473ffffffffffffffffffffffffffffffffffffffff1673ffffffffffffffffffffffffffffffffffffffff16639e718d07610df3838b61340790919063ffffffff16565b60fd60009054906101000a900473ffffffffffffffffffffffffffffffffffffffff1673ffffffffffffffffffffffffffffffffffffffff1663bcbe3f22338c6040518363ffffffff1660e01b8152600401610e50929190614e35565b60206040518083038186803b158015610e6857600080fd5b505afa158015610e7c573d6000803e3d6000fd5b505050506040513d601f19601f82011682018060405250810190610ea0919061496f565b856040518463ffffffff1660e01b8152600401610ebf939291906152de565b60206040518083038186803b158015610ed757600080fd5b505afa158015610eeb573d6000803e3d6000fd5b505050506040513d601f19601f82011682018060405250810190610f0f919061496f565b60fd60009054906101000a900473ffffffffffffffffffffffffffffffffffffffff1673ffffffffffffffffffffffffffffffffffffffff1663e76ab239338a6040518363ffffffff1660e01b8152600401610f6c929190614e35565b60206040518083038186803b158015610f8457600080fd5b505afa158015610f98573d6000803e3d6000fd5b505050506040513d601f19601f82011682018060405250810190610fbc919061496f565b1015610ffd576040517f08c379a0000000000000000000000000000000000000000000000000000000008152600401610ff49061513a565b60405180910390fd5b6110098888848461341d565b5050600160c981905550505050505050565b6000609760009054906101000a900473ffffffffffffffffffffffffffffffffffffffff16905090565b61104d612615565b73ffffffffffffffffffffffffffffffffffffffff1661106b61101b565b73ffffffffffffffffffffffffffffffffffffffff16146110c1576040517f08c379a00000000000000000000000000000000000000000000000000000000081526004016110b8906151ba565b60405180910390fd5b8060fb60006101000a81548173ffffffffffffffffffffffffffffffffffffffff021916908373ffffffffffffffffffffffffffffffffffffffff16021790555060fb60009054906101000a900473ffffffffffffffffffffffffffffffffffffffff1673ffffffffffffffffffffffffffffffffffffffff166361d027b36040518163ffffffff1660e01b815260040160206040518083038186803b15801561116a57600080fd5b505afa15801561117e573d6000803e3d6000fd5b505050506040513d601f19601f820116820180604052508101906111a29190614834565b60fc60006101000a81548173ffffffffffffffffffffffffffffffffffffffff021916908373ffffffffffffffffffffffffffffffffffffffff16021790555060fb60009054906101000a900473ffffffffffffffffffffffffffffffffffffffff1673ffffffffffffffffffffffffffffffffffffffff1663eb0a8b916040518163ffffffff1660e01b815260040160206040518083038186803b15801561124a57600080fd5b505afa15801561125e573d6000803e3d6000fd5b505050506040513d601f19601f82011682018060405250810190611282919061480b565b60fd60006101000a81548173ffffffffffffffffffffffffffffffffffffffff021916908373ffffffffffffffffffffffffffffffffffffffff16021790555060fb60009054906101000a900473ffffffffffffffffffffffffffffffffffffffff1673ffffffffffffffffffffffffffffffffffffffff1663ad5c46486040518163ffffffff1660e01b815260040160206040518083038186803b15801561132a57600080fd5b505afa15801561133e573d6000803e3d6000fd5b505050506040513d601f19601f82011682018060405250810190611362919061480b565b60fe60006101000a81548173ffffffffffffffffffffffffffffffffffffffff021916908373ffffffffffffffffffffffffffffffffffffffff16021790555050565b80804211156113e9576040517f08c379a00000000000000000000000000000000000000000000000000000000081526004016113e0906150da565b60405180910390fd5b8260fb60009054906101000a900473ffffffffffffffffffffffffffffffffffffffff1673ffffffffffffffffffffffffffffffffffffffff1663a0f026ff826040518263ffffffff1660e01b81526004016114459190614e1a565b60206040518083038186803b15801561145d57600080fd5b505afa158015611471573d6000803e3d6000fd5b505050506040513d601f19601f82011682018060405250810190611495919061491d565b6114d4576040517f08c379a00000000000000000000000000000000000000000000000000000000081526004016114cb9061511a565b60405180910390fd5b6114dc610837565b73ffffffffffffffffffffffffffffffffffffffff1663b187bd266040518163ffffffff1660e01b815260040160206040518083038186803b15801561152157600080fd5b505afa158015611535573d6000803e3d6000fd5b505050506040513d601f19601f82011682018060405250810190611559919061491d565b15611599576040517f08c379a00000000000000000000000000000000000000000000000000000000081526004016115909061503a565b60405180910390fd5b600260c95414156115df576040517f08c379a00000000000000000000000000000000000000000000000000000000081526004016115d69061525a565b60405180910390fd5b600260c9819055506000851161162a576040517f08c379a00000000000000000000000000000000000000000000000000000000081526004016116219061517a565b60405180910390fd5b848473ffffffffffffffffffffffffffffffffffffffff166370a08231336040518263ffffffff1660e01b81526004016116649190614e1a565b60206040518083038186803b15801561167c57600080fd5b505afa158015611690573d6000803e3d6000fd5b505050506040513d601f19601f820116820180604052508101906116b4919061496f565b10156116f5576040517f08c379a00000000000000000000000000000000000000000000000000000000081526004016116ec9061517a565b60405180910390fd5b600060fb60009054906101000a900473ffffffffffffffffffffffffffffffffffffffff1673ffffffffffffffffffffffffffffffffffffffff1663d02641a0866040518263ffffffff1660e01b81526004016117529190614e1a565b60206040518083038186803b15801561176a57600080fd5b505afa15801561177e573d6000803e3d6000fd5b505050506040513d601f19601f820116820180604052508101906117a2919061496f565b9050600060fb60009054906101000a900473ffffffffffffffffffffffffffffffffffffffff1673ffffffffffffffffffffffffffffffffffffffff1663498b5ae833886040518363ffffffff1660e01b8152600401611803929190614e35565b60206040518083038186803b15801561181b57600080fd5b505afa15801561182f573d6000803e3d6000fd5b505050506040513d601f19601f82011682018060405250810190611853919061496f565b905080871115611861578096505b808714611877576118763387848a60006130d3565b5b5060fb60009054906101000a900473ffffffffffffffffffffffffffffffffffffffff1673ffffffffffffffffffffffffffffffffffffffff1663c392f7666040518163ffffffff1660e01b815260040160206040518083038186803b1580156118e057600080fd5b505afa1580156118f4573d6000803e3d6000fd5b505050506040513d601f19601f82011682018060405250810190611918919061480b565b73ffffffffffffffffffffffffffffffffffffffff16634342fef56040518163ffffffff1660e01b8152600401600060405180830381600087803b15801561195f57600080fd5b505af1158015611973573d6000803e3d6000fd5b5050505060008573ffffffffffffffffffffffffffffffffffffffff166370a08231336040518263ffffffff1660e01b81526004016119b29190614e1a565b60206040518083038186803b1580156119ca57600080fd5b505afa1580156119de573d6000803e3d6000fd5b505050506040513d601f19601f82011682018060405250810190611a02919061496f565b90506000611b9a60fd60009054906101000a900473ffffffffffffffffffffffffffffffffffffffff1673ffffffffffffffffffffffffffffffffffffffff166380ef72a9896040518263ffffffff1660e01b8152600401611a649190614e1a565b60206040518083038186803b158015611a7c57600080fd5b505afa158015611a90573d6000803e3d6000fd5b505050506040513d601f19601f82011682018060405250810190611ab4919061496f565b611b8c6103e8611b7e87611b7060fb60009054906101000a900473ffffffffffffffffffffffffffffffffffffffff1673ffffffffffffffffffffffffffffffffffffffff1663e75fd0b56040518163ffffffff1660e01b815260040160206040518083038186803b158015611b2957600080fd5b505afa158015611b3d573d6000803e3d6000fd5b505050506040513d601f19601f82011682018060405250810190611b61919061496f565b8f6133db90919063ffffffff16565b6133db90919063ffffffff16565b6133f190919063ffffffff16565b6133f190919063ffffffff16565b905060fc60009054906101000a900473ffffffffffffffffffffffffffffffffffffffff1673ffffffffffffffffffffffffffffffffffffffff1663eb2266fc3360fb60009054906101000a900473ffffffffffffffffffffffffffffffffffffffff1673ffffffffffffffffffffffffffffffffffffffff1663ec94578e6040518163ffffffff1660e01b815260040160206040518083038186803b158015611c4357600080fd5b505afa158015611c57573d6000803e3d6000fd5b505050506040513d601f19601f82011682018060405250810190611c7b919061480b565b848b60016040518663ffffffff1660e01b8152600401611c9f959493929190614f04565b600060405180830381600087803b158015611cb957600080fd5b505af1158015611ccd573d6000803e3d6000fd5b505050506040513d6000823e3d601f19601f82011682018060405250810190611cf691906148b1565b50508673ffffffffffffffffffffffffffffffffffffffff16639dc29fac338a6040518363ffffffff1660e01b8152600401611d33929190614f57565b600060405180830381600087803b158015611d4d57600080fd5b505af1158015611d61573d6000803e3d6000fd5b50505050611d788883613a7f90919063ffffffff16565b8773ffffffffffffffffffffffffffffffffffffffff166370a08231336040518263ffffffff1660e01b8152600401611db19190614e1a565b60206040518083038186803b158015611dc957600080fd5b505afa158015611ddd573d6000803e3d6000fd5b505050506040513d601f19601f82011682018060405250810190611e01919061496f565b14611e35577f4e487b7100000000000000000000000000000000000000000000000000000000600052600160045260246000fd5b600060fb60009054906101000a900473ffffffffffffffffffffffffffffffffffffffff1673ffffffffffffffffffffffffffffffffffffffff1663498b5ae8338a6040518363ffffffff1660e01b8152600401611e94929190614e35565b60206040518083038186803b158015611eac57600080fd5b505afa158015611ec0573d6000803e3d6000fd5b505050506040513d601f19601f82011682018060405250810190611ee4919061496f565b905060fb60009054906101000a900473ffffffffffffffffffffffffffffffffffffffff1673ffffffffffffffffffffffffffffffffffffffff1663877034f1338b8b60006040518563ffffffff1660e01b8152600401611f489493929190614fd3565b600060405180830381600087803b158015611f6257600080fd5b505af1158015611f76573d6000803e3d6000fd5b50505050611f8d8982613a7f90919063ffffffff16565b60fb60009054906101000a900473ffffffffffffffffffffffffffffffffffffffff1673ffffffffffffffffffffffffffffffffffffffff1663498b5ae8338b6040518363ffffffff1660e01b8152600401611fea929190614e35565b60206040518083038186803b15801561200257600080fd5b505afa158015612016573d6000803e3d6000fd5b505050506040513d601f19601f8201168201806040525081019061203a919061496f565b1461206e577f4e487b7100000000000000000000000000000000000000000000000000000000600052600160045260246000fd5b8773ffffffffffffffffffffffffffffffffffffffff167f3dd579c60f3ada65727e8d87353e1499f8784809ec65347e9520ee2ea25d33788a6040516120b4919061529a565b60405180910390a250505050600160c9819055505050505050565b8180421115612113576040517f08c379a000000000000000000000000000000000000000000000000000000000815260040161210a906150da565b60405180910390fd5b8360fb60009054906101000a900473ffffffffffffffffffffffffffffffffffffffff1673ffffffffffffffffffffffffffffffffffffffff1663a0f026ff826040518263ffffffff1660e01b815260040161216f9190614e1a565b60206040518083038186803b15801561218757600080fd5b505afa15801561219b573d6000803e3d6000fd5b505050506040513d601f19601f820116820180604052508101906121bf919061491d565b6121fe576040517f08c379a00000000000000000000000000000000000000000000000000000000081526004016121f59061511a565b60405180910390fd5b600260c9541415612244576040517f08c379a000000000000000000000000000000000000000000000000000000000815260040161223b9061525a565b60405180910390fd5b600260c98190555060fb60009054906101000a900473ffffffffffffffffffffffffffffffffffffffff1673ffffffffffffffffffffffffffffffffffffffff1663803c97b360fe60009054906101000a900473ffffffffffffffffffffffffffffffffffffffff166040518263ffffffff1660e01b81526004016122c99190614e1a565b60206040518083038186803b1580156122e157600080fd5b505afa1580156122f5573d6000803e3d6000fd5b505050506040513d601f19601f82011682018060405250810190612319919061491d565b612358576040517f08c379a000000000000000000000000000000000000000000000000000000000815260040161234f906150ba565b60405180910390fd5b6000861180156123685750600034115b6123a7576040517f08c379a000000000000000000000000000000000000000000000000000000000815260040161239e9061517a565b60405180910390fd5b60fe60009054906101000a900473ffffffffffffffffffffffffffffffffffffffff1673ffffffffffffffffffffffffffffffffffffffff1663d0e30db0346040518263ffffffff1660e01b81526004016000604051808303818588803b15801561241157600080fd5b505af1158015612425573d6000803e3d6000fd5b5050505050612459868660fe60009054906101000a900473ffffffffffffffffffffffffffffffffffffffff1634876128b0565b600160c981905550505050505050565b612471612615565b73ffffffffffffffffffffffffffffffffffffffff1661248f61101b565b73ffffffffffffffffffffffffffffffffffffffff16146124e5576040517f08c379a00000000000000000000000000000000000000000000000000000000081526004016124dc906151ba565b60405180910390fd5b600073ffffffffffffffffffffffffffffffffffffffff168173ffffffffffffffffffffffffffffffffffffffff161415612555576040517f08c379a000000000000000000000000000000000000000000000000000000000815260040161254c9061509a565b60405180910390fd5b8073ffffffffffffffffffffffffffffffffffffffff16609760009054906101000a900473ffffffffffffffffffffffffffffffffffffffff1673ffffffffffffffffffffffffffffffffffffffff167f8be0079c531659141344cd1fd0a4f28419497f9722a3daafe3b4186f6b6457e060405160405180910390a380609760006101000a81548173ffffffffffffffffffffffffffffffffffffffff021916908373ffffffffffffffffffffffffffffffffffffffff16021790555050565b600033905090565b612625612615565b73ffffffffffffffffffffffffffffffffffffffff1661264361101b565b73ffffffffffffffffffffffffffffffffffffffff1614612699576040517f08c379a0000000000000000000000000000000000000000000000000000000008152600401612690906151ba565b60405180910390fd5b50565b60006126a6613a95565b90506126b184613aec565b6000835111806126be5750815b156126cf576126cd8484613ba5565b505b60006126fd7f4910fdfa16fed3260ed0e7147f7cc6da11a60208b5b9406d12a635614ffd914360001b613c89565b90508060000160009054906101000a900460ff166128a95760018160000160006101000a81548160ff0219169083151502179055506127c985836040516024016127479190614e1a565b6040516020818303038152906040527f3659cfe6000000000000000000000000000000000000000000000000000000007bffffffffffffffffffffffffffffffffffffffffffffffffffffffff19166020820180517bffffffffffffffffffffffffffffffffffffffffffffffffffffffff8381831617835250505050613ba5565b5060008160000160006101000a81548160ff0219169083151502179055506127ef613a95565b73ffffffffffffffffffffffffffffffffffffffff168273ffffffffffffffffffffffffffffffffffffffff161461285c576040517f08c379a00000000000000000000000000000000000000000000000000000000081526004016128539061507a565b60405180910390fd5b61286585613aec565b8473ffffffffffffffffffffffffffffffffffffffff167fbc7cd75a20ee27fd9adebab32041f755214dbc6bffa90cc0225b39da2e5c2d3b60405160405180910390a25b5050505050565b6128fe60fc60009054906101000a900473ffffffffffffffffffffffffffffffffffffffff1660008573ffffffffffffffffffffffffffffffffffffffff16613c939092919063ffffffff16565b61294b60fc60009054906101000a900473ffffffffffffffffffffffffffffffffffffffff16838573ffffffffffffffffffffffffffffffffffffffff16613c939092919063ffffffff16565b6000612a136103e8612a0560fb60009054906101000a900473ffffffffffffffffffffffffffffffffffffffff1673ffffffffffffffffffffffffffffffffffffffff16639931286d6040518163ffffffff1660e01b815260040160206040518083038186803b1580156129be57600080fd5b505afa1580156129d2573d6000803e3d6000fd5b505050506040513d601f19601f820116820180604052508101906129f6919061496f565b896133db90919063ffffffff16565b6133f190919063ffffffff16565b90506000612add6103e8612acf60fb60009054906101000a900473ffffffffffffffffffffffffffffffffffffffff1673ffffffffffffffffffffffffffffffffffffffff16639df5138a6040518163ffffffff1660e01b815260040160206040518083038186803b158015612a8857600080fd5b505afa158015612a9c573d6000803e3d6000fd5b505050506040513d601f19601f82011682018060405250810190612ac0919061496f565b876133db90919063ffffffff16565b6133f190919063ffffffff16565b9050612af28185613a7f90919063ffffffff16565b9350600060fb60009054906101000a900473ffffffffffffffffffffffffffffffffffffffff1673ffffffffffffffffffffffffffffffffffffffff1663d02641a0886040518263ffffffff1660e01b8152600401612b519190614e1a565b60206040518083038186803b158015612b6957600080fd5b505afa158015612b7d573d6000803e3d6000fd5b505050506040513d601f19601f82011682018060405250810190612ba1919061496f565b9050612bb13388838b60016130d3565b60fd60009054906101000a900473ffffffffffffffffffffffffffffffffffffffff1673ffffffffffffffffffffffffffffffffffffffff1663e279962333898989612c06898f61340790919063ffffffff16565b8760fb60009054906101000a900473ffffffffffffffffffffffffffffffffffffffff1673ffffffffffffffffffffffffffffffffffffffff1663d02641a08f6040518263ffffffff1660e01b8152600401612c629190614e1a565b60206040518083038186803b158015612c7a57600080fd5b505afa158015612c8e573d6000803e3d6000fd5b505050506040513d601f19601f82011682018060405250810190612cb2919061496f565b6040518863ffffffff1660e01b8152600401612cd49796959493929190614e5e565b60206040518083038186803b158015612cec57600080fd5b505afa158015612d00573d6000803e3d6000fd5b505050506040513d601f19601f82011682018060405250810190612d24919061491d565b612d63576040517f08c379a0000000000000000000000000000000000000000000000000000000008152600401612d5a9061513a565b60405180910390fd5b60fc60009054906101000a900473ffffffffffffffffffffffffffffffffffffffff1673ffffffffffffffffffffffffffffffffffffffff1663ffda4da433612db5858961340790919063ffffffff16565b898b896040518663ffffffff1660e01b8152600401612dd8959493929190614f80565b600060405180830381600087803b158015612df257600080fd5b505af1158015612e06573d6000803e3d6000fd5b50505050612e168888838661341d565b5050505050505050565b600060019054906101000a900460ff1680612e46575060008054906101000a900460ff16155b612e85576040517f08c379a0000000000000000000000000000000000000000000000000000000008152600401612e7c9061515a565b60405180910390fd5b60008060019054906101000a900460ff161590508015612ed5576001600060016101000a81548160ff02191690831515021790555060016000806101000a81548160ff0219169083151502179055505b612edd613df1565b612ee5613eca565b8015612f065760008060016101000a81548160ff0219169083151502179055505b50565b600060019054906101000a900460ff1680612f2f575060008054906101000a900460ff16155b612f6e576040517f08c379a0000000000000000000000000000000000000000000000000000000008152600401612f659061515a565b60405180910390fd5b60008060019054906101000a900460ff161590508015612fbe576001600060016101000a81548160ff02191690831515021790555060016000806101000a81548160ff0219169083151502179055505b612fc6613fa3565b612fce61407c565b8015612fef5760008060016101000a81548160ff0219169083151502179055505b50565b600060019054906101000a900460ff1680613018575060008054906101000a900460ff16155b613057576040517f08c379a000000000000000000000000000000000000000000000000000000000815260040161304e9061515a565b60405180910390fd5b60008060019054906101000a900460ff1615905080156130a7576001600060016101000a81548160ff02191690831515021790555060016000806101000a81548160ff0219169083151502179055505b6130af6141fe565b80156130d05760008060016101000a81548160ff0219169083151502179055505b50565b600060ff5414156130e3576132c4565b600060fb60009054906101000a900473ffffffffffffffffffffffffffffffffffffffff1673ffffffffffffffffffffffffffffffffffffffff1663a300733d87876040518363ffffffff1660e01b8152600401613142929190614e35565b60206040518083038186803b15801561315a57600080fd5b505afa15801561316e573d6000803e3d6000fd5b505050506040513d601f19601f82011682018060405250810190613192919061496f565b905081156131b4576131ad838261340790919063ffffffff16565b905061320c565b8281116131f6576040517f08c379a00000000000000000000000000000000000000000000000000000000081526004016131ed9061517a565b60405180910390fd5b6132098382613a7f90919063ffffffff16565b90505b600061323d8561322f670de0b6b3a764000060ff546133db90919063ffffffff16565b6133f190919063ffffffff16565b9050600068056bc75e2d63100000905080816001838561325d91906153f5565b61326791906154d6565b613271919061544b565b61327b919061547c565b9150818310156132c0576040517f08c379a00000000000000000000000000000000000000000000000000000000081526004016132b79061517a565b60405180910390fd5b5050505b5050505050565b60fb60009054906101000a900473ffffffffffffffffffffffffffffffffffffffff1673ffffffffffffffffffffffffffffffffffffffff16631441a5a96040518163ffffffff1660e01b815260040160206040518083038186803b15801561333357600080fd5b505afa158015613347573d6000803e3d6000fd5b505050506040513d601f19601f8201168201806040525081019061336b919061480b565b73ffffffffffffffffffffffffffffffffffffffff16637543e3f083836040518363ffffffff1660e01b81526004016133a5929190614e35565b600060405180830381600087803b1580156133bf57600080fd5b505af11580156133d3573d6000803e3d6000fd5b505050505050565b600081836133e9919061547c565b905092915050565b600081836133ff919061544b565b905092915050565b6000818361341591906153f5565b905092915050565b613425610837565b73ffffffffffffffffffffffffffffffffffffffff1663b187bd266040518163ffffffff1660e01b815260040160206040518083038186803b15801561346a57600080fd5b505afa15801561347e573d6000803e3d6000fd5b505050506040513d601f19601f820116820180604052508101906134a2919061491d565b156134e2576040517f08c379a00000000000000000000000000000000000000000000000000000000081526004016134d99061503a565b60405180910390fd5b60008373ffffffffffffffffffffffffffffffffffffffff166370a08231336040518263ffffffff1660e01b815260040161351d9190614e1a565b60206040518083038186803b15801561353557600080fd5b505afa158015613549573d6000803e3d6000fd5b505050506040513d601f19601f8201168201806040525081019061356d919061496f565b90508373ffffffffffffffffffffffffffffffffffffffff166340c10f1933876040518363ffffffff1660e01b81526004016135aa929190614f57565b600060405180830381600087803b1580156135c457600080fd5b505af11580156135d8573d6000803e3d6000fd5b505050508373ffffffffffffffffffffffffffffffffffffffff166340c10f1960fb60009054906101000a900473ffffffffffffffffffffffffffffffffffffffff1673ffffffffffffffffffffffffffffffffffffffff1663ec94578e6040518163ffffffff1660e01b815260040160206040518083038186803b15801561366057600080fd5b505afa158015613674573d6000803e3d6000fd5b505050506040513d601f19601f82011682018060405250810190613698919061480b565b846040518363ffffffff1660e01b81526004016136b6929190614f57565b600060405180830381600087803b1580156136d057600080fd5b505af11580156136e4573d6000803e3d6000fd5b505050506136fb858261340790919063ffffffff16565b8473ffffffffffffffffffffffffffffffffffffffff166370a08231336040518263ffffffff1660e01b81526004016137349190614e1a565b60206040518083038186803b15801561374c57600080fd5b505afa158015613760573d6000803e3d6000fd5b505050506040513d601f19601f82011682018060405250810190613784919061496f565b146137b8577f4e487b7100000000000000000000000000000000000000000000000000000000600052600160045260246000fd5b600060fb60009054906101000a900473ffffffffffffffffffffffffffffffffffffffff1673ffffffffffffffffffffffffffffffffffffffff1663498b5ae833876040518363ffffffff1660e01b8152600401613817929190614e35565b60206040518083038186803b15801561382f57600080fd5b505afa158015613843573d6000803e3d6000fd5b505050506040513d601f19601f82011682018060405250810190613867919061496f565b905060fb60009054906101000a900473ffffffffffffffffffffffffffffffffffffffff1673ffffffffffffffffffffffffffffffffffffffff1663877034f1336138bb868a61340790919063ffffffff16565b8860016040518563ffffffff1660e01b81526004016138dd9493929190614fd3565b600060405180830381600087803b1580156138f757600080fd5b505af115801561390b573d6000803e3d6000fd5b5050505060fb60009054906101000a900473ffffffffffffffffffffffffffffffffffffffff1673ffffffffffffffffffffffffffffffffffffffff1663498b5ae833876040518363ffffffff1660e01b815260040161396c929190614e35565b60206040518083038186803b15801561398457600080fd5b505afa158015613998573d6000803e3d6000fd5b505050506040513d601f19601f820116820180604052508101906139bc919061496f565b6139e1846139d3898561340790919063ffffffff16565b61340790919063ffffffff16565b14613a15577f4e487b7100000000000000000000000000000000000000000000000000000000600052600160045260246000fd5b8473ffffffffffffffffffffffffffffffffffffffff167fb4a4751ef6a44118d02c7f8772a09a847f35ae4293a6c73ffc21039b8063568285613a61868a61340790919063ffffffff16565b604051613a6f9291906152b5565b60405180910390a2505050505050565b60008183613a8d91906154d6565b905092915050565b6000613ac37f360894a13ba1a3210667c828492db98dca3e2076cc3735a920a3ca505d382bbc60001b6142df565b60000160009054906101000a900473ffffffffffffffffffffffffffffffffffffffff16905090565b613af5816142e9565b613b34576040517f08c379a0000000000000000000000000000000000000000000000000000000008152600401613b2b9061519a565b60405180910390fd5b80613b617f360894a13ba1a3210667c828492db98dca3e2076cc3735a920a3ca505d382bbc60001b6142df565b60000160006101000a81548173ffffffffffffffffffffffffffffffffffffffff021916908373ffffffffffffffffffffffffffffffffffffffff16021790555050565b6060613bb0836142e9565b613bef576040517f08c379a0000000000000000000000000000000000000000000000000000000008152600401613be6906151fa565b60405180910390fd5b6000808473ffffffffffffffffffffffffffffffffffffffff1684604051613c179190614e03565b600060405180830381855af49150503d8060008114613c52576040519150601f19603f3d011682016040523d82523d6000602084013e613c57565b606091505b5091509150613c7f8282604051806060016040528060278152602001615b33602791396142fc565b9250505092915050565b6000819050919050565b6000811480613d2c575060008373ffffffffffffffffffffffffffffffffffffffff1663dd62ed3e30856040518363ffffffff1660e01b8152600401613cda929190614e35565b60206040518083038186803b158015613cf257600080fd5b505afa158015613d06573d6000803e3d6000fd5b505050506040513d601f19601f82011682018060405250810190613d2a919061496f565b145b613d6b576040517f08c379a0000000000000000000000000000000000000000000000000000000008152600401613d629061527a565b60405180910390fd5b613dec8363095ea7b360e01b8484604051602401613d8a929190614f57565b604051602081830303815290604052907bffffffffffffffffffffffffffffffffffffffffffffffffffffffff19166020820180517bffffffffffffffffffffffffffffffffffffffffffffffffffffffff8381831617835250505050614363565b505050565b600060019054906101000a900460ff1680613e17575060008054906101000a900460ff16155b613e56576040517f08c379a0000000000000000000000000000000000000000000000000000000008152600401613e4d9061515a565b60405180910390fd5b60008060019054906101000a900460ff161590508015613ea6576001600060016101000a81548160ff02191690831515021790555060016000806101000a81548160ff0219169083151502179055505b8015613ec75760008060016101000a81548160ff0219169083151502179055505b50565b600060019054906101000a900460ff1680613ef0575060008054906101000a900460ff16155b613f2f576040517f08c379a0000000000000000000000000000000000000000000000000000000008152600401613f269061515a565b60405180910390fd5b60008060019054906101000a900460ff161590508015613f7f576001600060016101000a81548160ff02191690831515021790555060016000806101000a81548160ff0219169083151502179055505b8015613fa05760008060016101000a81548160ff0219169083151502179055505b50565b600060019054906101000a900460ff1680613fc9575060008054906101000a900460ff16155b614008576040517f08c379a0000000000000000000000000000000000000000000000000000000008152600401613fff9061515a565b60405180910390fd5b60008060019054906101000a900460ff161590508015614058576001600060016101000a81548160ff02191690831515021790555060016000806101000a81548160ff0219169083151502179055505b80156140795760008060016101000a81548160ff0219169083151502179055505b50565b600060019054906101000a900460ff16806140a2575060008054906101000a900460ff16155b6140e1576040517f08c379a00000000000000000000000000000000000000000000000000000000081526004016140d89061515a565b60405180910390fd5b60008060019054906101000a900460ff161590508015614131576001600060016101000a81548160ff02191690831515021790555060016000806101000a81548160ff0219169083151502179055505b600061413b612615565b905080609760006101000a81548173ffffffffffffffffffffffffffffffffffffffff021916908373ffffffffffffffffffffffffffffffffffffffff1602179055508073ffffffffffffffffffffffffffffffffffffffff16600073ffffffffffffffffffffffffffffffffffffffff167f8be0079c531659141344cd1fd0a4f28419497f9722a3daafe3b4186f6b6457e060405160405180910390a35080156141fb5760008060016101000a81548160ff0219169083151502179055505b50565b600060019054906101000a900460ff1680614224575060008054906101000a900460ff16155b614263576040517f08c379a000000000000000000000000000000000000000000000000000000000815260040161425a9061515a565b60405180910390fd5b60008060019054906101000a900460ff1615905080156142b3576001600060016101000a81548160ff02191690831515021790555060016000806101000a81548160ff0219169083151502179055505b600160c98190555080156142dc5760008060016101000a81548160ff0219169083151502179055505b50565b6000819050919050565b600080823b905060008111915050919050565b6060831561430c5782905061435c565b60008351111561431f5782518084602001fd5b816040517f08c379a00000000000000000000000000000000000000000000000000000000081526004016143539190615018565b60405180910390fd5b9392505050565b60006143c5826040518060400160405280602081526020017f5361666545524332303a206c6f772d6c6576656c2063616c6c206661696c65648152508573ffffffffffffffffffffffffffffffffffffffff1661442a9092919063ffffffff16565b905060008151111561442557808060200190518101906143e5919061491d565b614424576040517f08c379a000000000000000000000000000000000000000000000000000000000815260040161441b9061523a565b60405180910390fd5b5b505050565b60606144398484600085614442565b90509392505050565b606082471015614487576040517f08c379a000000000000000000000000000000000000000000000000000000000815260040161447e906150fa565b60405180910390fd5b61449085614556565b6144cf576040517f08c379a00000000000000000000000000000000000000000000000000000000081526004016144c69061521a565b60405180910390fd5b6000808673ffffffffffffffffffffffffffffffffffffffff1685876040516144f89190614e03565b60006040518083038185875af1925050503d8060008114614535576040519150601f19603f3d011682016040523d82523d6000602084013e61453a565b606091505b509150915061454a828286614569565b92505050949350505050565b600080823b905060008111915050919050565b60608315614579578290506145c9565b60008351111561458c5782518084602001fd5b816040517f08c379a00000000000000000000000000000000000000000000000000000000081526004016145c09190615018565b60405180910390fd5b9392505050565b60006145e36145de8461533a565b615315565b9050808382526020820190508285602086028201111561460257600080fd5b60005b85811015614632578161461888826146fb565b845260208401935060208301925050600181019050614605565b5050509392505050565b600061464f61464a84615366565b615315565b9050808382526020820190508285602086028201111561466e57600080fd5b60005b8581101561469e578161468488826147cd565b845260208401935060208301925050600181019050614671565b5050509392505050565b60006146bb6146b684615392565b615315565b9050828152602081018484840111156146d357600080fd5b6146de848285615564565b509392505050565b6000813590506146f581615ad6565b92915050565b60008151905061470a81615ad6565b92915050565b60008151905061471f81615aed565b92915050565b600082601f83011261473657600080fd5b81516147468482602086016145d0565b91505092915050565b600082601f83011261476057600080fd5b815161477084826020860161463c565b91505092915050565b60008151905061478881615b04565b92915050565b600082601f83011261479f57600080fd5b81356147af8482602086016146a8565b91505092915050565b6000813590506147c781615b1b565b92915050565b6000815190506147dc81615b1b565b92915050565b6000602082840312156147f457600080fd5b6000614802848285016146e6565b91505092915050565b60006020828403121561481d57600080fd5b600061482b848285016146fb565b91505092915050565b60006020828403121561484657600080fd5b600061485484828501614710565b91505092915050565b6000806040838503121561487057600080fd5b600061487e858286016146e6565b925050602083013567ffffffffffffffff81111561489b57600080fd5b6148a78582860161478e565b9150509250929050565b600080604083850312156148c457600080fd5b600083015167ffffffffffffffff8111156148de57600080fd5b6148ea85828601614725565b925050602083015167ffffffffffffffff81111561490757600080fd5b6149138582860161474f565b9150509250929050565b60006020828403121561492f57600080fd5b600061493d84828501614779565b91505092915050565b60006020828403121561495857600080fd5b6000614966848285016147b8565b91505092915050565b60006020828403121561498157600080fd5b600061498f848285016147cd565b91505092915050565b60008060008060008060c087890312156149b157600080fd5b60006149bf89828a016147b8565b96505060206149d089828a016146e6565b95505060406149e189828a016146e6565b94505060606149f289828a016147b8565b9350506080614a0389828a016147b8565b92505060a0614a1489828a016146e6565b9150509295509295509295565b600080600060608486031215614a3657600080fd5b6000614a44868287016147b8565b9350506020614a55868287016146e6565b9250506040614a66868287016147b8565b9150509250925092565b60008060008060808587031215614a8657600080fd5b6000614a94878288016147b8565b9450506020614aa5878288016146e6565b9350506040614ab6878288016147b8565b9250506060614ac7878288016146e6565b91505092959194509250565b614adc8161550a565b82525050565b614aeb8161552e565b82525050565b6000614afc826153c3565b614b0681856153d9565b9350614b16818560208601615573565b80840191505092915050565b6000614b2d826153ce565b614b3781856153e4565b9350614b47818560208601615573565b614b5081615664565b840191505092915050565b6000614b686006836153e4565b9150614b7382615675565b602082019050919050565b6000614b8b6002836153e4565b9150614b968261569e565b602082019050919050565b6000614bae602f836153e4565b9150614bb9826156c7565b604082019050919050565b6000614bd16026836153e4565b9150614bdc82615716565b604082019050919050565b6000614bf46002836153e4565b9150614bff82615765565b602082019050919050565b6000614c176021836153e4565b9150614c228261578e565b604082019050919050565b6000614c3a6026836153e4565b9150614c45826157dd565b604082019050919050565b6000614c5d6002836153e4565b9150614c688261582c565b602082019050919050565b6000614c806002836153e4565b9150614c8b82615855565b602082019050919050565b6000614ca3602e836153e4565b9150614cae8261587e565b604082019050919050565b6000614cc66002836153e4565b9150614cd1826158cd565b602082019050919050565b6000614ce9602d836153e4565b9150614cf4826158f6565b604082019050919050565b6000614d0c6020836153e4565b9150614d1782615945565b602082019050919050565b6000614d2f6002836153e4565b9150614d3a8261596e565b602082019050919050565b6000614d526026836153e4565b9150614d5d82615997565b604082019050919050565b6000614d75601d836153e4565b9150614d80826159e6565b602082019050919050565b6000614d98602a836153e4565b9150614da382615a0f565b604082019050919050565b6000614dbb601f836153e4565b9150614dc682615a5e565b602082019050919050565b6000614dde6036836153e4565b9150614de982615a87565b604082019050919050565b614dfd8161555a565b82525050565b6000614e0f8284614af1565b915081905092915050565b6000602082019050614e2f6000830184614ad3565b92915050565b6000604082019050614e4a6000830185614ad3565b614e576020830184614ad3565b9392505050565b600060e082019050614e73600083018a614ad3565b614e806020830189614ad3565b614e8d6040830188614ad3565b614e9a6060830187614df4565b614ea76080830186614df4565b614eb460a0830185614df4565b614ec160c0830184614df4565b98975050505050505050565b6000606082019050614ee26000830186614ad3565b614eef6020830185614ad3565b614efc6040830184614df4565b949350505050565b600060a082019050614f196000830188614ad3565b614f266020830187614ad3565b614f336040830186614df4565b614f406060830185614ad3565b614f4d6080830184614ae2565b9695505050505050565b6000604082019050614f6c6000830185614ad3565b614f796020830184614df4565b9392505050565b600060a082019050614f956000830188614ad3565b614fa26020830187614df4565b614faf6040830186614ad3565b614fbc6060830185614ad3565b614fc96080830184614ad3565b9695505050505050565b6000608082019050614fe86000830187614ad3565b614ff56020830186614df4565b6150026040830185614ad3565b61500f6060830184614ae2565b95945050505050565b600060208201905081810360008301526150328184614b22565b905092915050565b6000602082019050818103600083015261505381614b5b565b9050919050565b6000602082019050818103600083015261507381614b7e565b9050919050565b6000602082019050818103600083015261509381614ba1565b9050919050565b600060208201905081810360008301526150b381614bc4565b9050919050565b600060208201905081810360008301526150d381614be7565b9050919050565b600060208201905081810360008301526150f381614c0a565b9050919050565b6000602082019050818103600083015261511381614c2d565b9050919050565b6000602082019050818103600083015261513381614c50565b9050919050565b6000602082019050818103600083015261515381614c73565b9050919050565b6000602082019050818103600083015261517381614c96565b9050919050565b6000602082019050818103600083015261519381614cb9565b9050919050565b600060208201905081810360008301526151b381614cdc565b9050919050565b600060208201905081810360008301526151d381614cff565b9050919050565b600060208201905081810360008301526151f381614d22565b9050919050565b6000602082019050818103600083015261521381614d45565b9050919050565b6000602082019050818103600083015261523381614d68565b9050919050565b6000602082019050818103600083015261525381614d8b565b9050919050565b6000602082019050818103600083015261527381614dae565b9050919050565b6000602082019050818103600083015261529381614dd1565b9050919050565b60006020820190506152af6000830184614df4565b92915050565b60006040820190506152ca6000830185614df4565b6152d76020830184614df4565b9392505050565b60006060820190506152f36000830186614df4565b6153006020830185614df4565b61530d6040830184614df4565b949350505050565b600061531f615330565b905061532b82826155a6565b919050565b6000604051905090565b600067ffffffffffffffff82111561535557615354615635565b5b602082029050602081019050919050565b600067ffffffffffffffff82111561538157615380615635565b5b602082029050602081019050919050565b600067ffffffffffffffff8211156153ad576153ac615635565b5b6153b682615664565b9050602081019050919050565b600081519050919050565b600081519050919050565b600081905092915050565b600082825260208201905092915050565b60006154008261555a565b915061540b8361555a565b9250827fffffffffffffffffffffffffffffffffffffffffffffffffffffffffffffffff038211156154405761543f6155d7565b5b828201905092915050565b60006154568261555a565b91506154618361555a565b92508261547157615470615606565b5b828204905092915050565b60006154878261555a565b91506154928361555a565b9250817fffffffffffffffffffffffffffffffffffffffffffffffffffffffffffffffff04831182151516156154cb576154ca6155d7565b5b828202905092915050565b60006154e18261555a565b91506154ec8361555a565b9250828210156154ff576154fe6155d7565b5b828203905092915050565b60006155158261553a565b9050919050565b60006155278261553a565b9050919050565b60008115159050919050565b600073ffffffffffffffffffffffffffffffffffffffff82169050919050565b6000819050919050565b82818337600083830152505050565b60005b83811015615591578082015181840152602081019050615576565b838111156155a0576000848401525b50505050565b6155af82615664565b810181811067ffffffffffffffff821117156155ce576155cd615635565b5b80604052505050565b7f4e487b7100000000000000000000000000000000000000000000000000000000600052601160045260246000fd5b7f4e487b7100000000000000000000000000000000000000000000000000000000600052601260045260246000fd5b7f4e487b7100000000000000000000000000000000000000000000000000000000600052604160045260246000fd5b6000601f19601f8301169050919050565b7f5061757365640000000000000000000000000000000000000000000000000000600082015250565b7f4943000000000000000000000000000000000000000000000000000000000000600082015250565b7f45524331393637557067726164653a207570677261646520627265616b73206660008201527f7572746865722075706772616465730000000000000000000000000000000000602082015250565b7f4f776e61626c653a206e6577206f776e657220697320746865207a65726f206160008201527f6464726573730000000000000000000000000000000000000000000000000000602082015250565b7f5745000000000000000000000000000000000000000000000000000000000000600082015250565b7f5472616e73616374696f6e2068617320657863656564656420646561646c696e60008201527f6500000000000000000000000000000000000000000000000000000000000000602082015250565b7f416464726573733a20696e73756666696369656e742062616c616e636520666f60008201527f722063616c6c0000000000000000000000000000000000000000000000000000602082015250565b7f4946000000000000000000000000000000000000000000000000000000000000600082015250565b7f4352000000000000000000000000000000000000000000000000000000000000600082015250565b7f496e697469616c697a61626c653a20636f6e747261637420697320616c72656160008201527f647920696e697469616c697a6564000000000000000000000000000000000000602082015250565b7f4941000000000000000000000000000000000000000000000000000000000000600082015250565b7f455243313936373a206e657720696d706c656d656e746174696f6e206973206e60008201527f6f74206120636f6e747261637400000000000000000000000000000000000000602082015250565b7f4f776e61626c653a2063616c6c6572206973206e6f7420746865206f776e6572600082015250565b7f4654000000000000000000000000000000000000000000000000000000000000600082015250565b7f416464726573733a2064656c65676174652063616c6c20746f206e6f6e2d636f60008201527f6e74726163740000000000000000000000000000000000000000000000000000602082015250565b7f416464726573733a2063616c6c20746f206e6f6e2d636f6e7472616374000000600082015250565b7f5361666545524332303a204552433230206f7065726174696f6e20646964206e60008201527f6f74207375636365656400000000000000000000000000000000000000000000602082015250565b7f5265656e7472616e637947756172643a207265656e7472616e742063616c6c00600082015250565b7f5361666545524332303a20617070726f76652066726f6d206e6f6e2d7a65726f60008201527f20746f206e6f6e2d7a65726f20616c6c6f77616e636500000000000000000000602082015250565b615adf8161550a565b8114615aea57600080fd5b50565b615af68161551c565b8114615b0157600080fd5b50565b615b0d8161552e565b8114615b1857600080fd5b50565b615b248161555a565b8114615b2f57600080fd5b5056fe416464726573733a206c6f772d6c6576656c2064656c65676174652063616c6c206661696c6564a2646970667358221220825834ececbbdc42a3404cb895618fc8843c4bad8070c13090ac3b3885aa121e64736f6c63430008030033",
  "linkReferences": {},
  "deployedLinkReferences": {}
}