{
  "_format": "hh-sol-artifact-1",
  "contractName": "Comptroller",
  "sourceName": "contracts/Bank/Comptroller.sol",
  "abi": [
    {
      "inputs": [
        {
          "internalType": "address",
          "name": "_mintRewardToken",
          "type": "address"
        },
        {
          "internalType": "address",
          "name": "_poolRewardToken",
          "type": "address"
        },
        {
          "internalType": "address",
          "name": "_weth",
          "type": "address"
        }
      ],
      "stateMutability": "nonpayable",
      "type": "constructor"
    },
    {
      "anonymous": false,
      "inputs": [
        {
          "indexed": false,
          "internalType": "uint256",
          "name": "amountBurned",
          "type": "uint256"
        },
        {
          "indexed": true,
          "internalType": "address",
          "name": "token",
          "type": "address"
        }
      ],
      "name": "BurnToken",
      "type": "event"
    },
    {
      "anonymous": false,
      "inputs": [
        {
          "indexed": false,
          "internalType": "uint256",
          "name": "tokenRate",
          "type": "uint256"
        },
        {
          "indexed": false,
          "internalType": "uint256",
          "name": "amountMinted",
          "type": "uint256"
        },
        {
          "indexed": true,
          "internalType": "address",
          "name": "token",
          "type": "address"
        }
      ],
      "name": "MintToken",
      "type": "event"
    },
    {
      "anonymous": false,
      "inputs": [
        {
          "indexed": true,
          "internalType": "address",
          "name": "previousOwner",
          "type": "address"
        },
        {
          "indexed": true,
          "internalType": "address",
          "name": "newOwner",
          "type": "address"
        }
      ],
      "name": "OwnershipTransferred",
      "type": "event"
    },
    {
      "anonymous": false,
      "inputs": [
        {
          "indexed": false,
          "internalType": "address",
          "name": "from",
          "type": "address"
        },
        {
          "indexed": false,
          "internalType": "address",
          "name": "token",
          "type": "address"
        },
        {
          "indexed": false,
          "internalType": "uint256",
          "name": "tokenAmount",
          "type": "uint256"
        },
        {
          "indexed": false,
          "internalType": "uint256[]",
          "name": "collateralAmounts",
          "type": "uint256[]"
        },
        {
          "indexed": false,
          "internalType": "address[]",
          "name": "collateralTypes",
          "type": "address[]"
        }
      ],
      "name": "Redeem",
      "type": "event"
    },
    {
      "inputs": [],
      "name": "WETH",
      "outputs": [
        {
          "internalType": "address",
          "name": "",
          "type": "address"
        }
      ],
      "stateMutability": "view",
      "type": "function"
    },
    {
      "inputs": [
        {
          "internalType": "uint256",
          "name": "amount",
          "type": "uint256"
        },
        {
          "internalType": "address",
          "name": "token",
          "type": "address"
        },
        {
          "internalType": "uint256",
          "name": "deadline",
          "type": "uint256"
        }
      ],
      "name": "burn",
      "outputs": [],
      "stateMutability": "nonpayable",
      "type": "function"
    },
    {
      "inputs": [
        {
          "internalType": "address",
          "name": "",
          "type": "address"
        }
      ],
      "name": "collateralDetails",
      "outputs": [
        {
          "internalType": "uint256",
          "name": "mintCR",
          "type": "uint256"
        },
        {
          "internalType": "uint256",
          "name": "liquidationRank",
          "type": "uint256"
        },
        {
          "internalType": "uint256",
          "name": "stabilityFee",
          "type": "uint256"
        },
        {
          "internalType": "uint256",
          "name": "liquidationFee",
          "type": "uint256"
        }
      ],
      "stateMutability": "view",
      "type": "function"
    },
    {
      "inputs": [
        {
          "internalType": "uint256",
          "name": "",
          "type": "uint256"
        }
      ],
      "name": "collateralTokens",
      "outputs": [
        {
          "internalType": "address",
          "name": "",
          "type": "address"
        }
      ],
      "stateMutability": "view",
      "type": "function"
    },
    {
      "inputs": [],
      "name": "getAllCollateralTypes",
      "outputs": [
        {
          "internalType": "address[]",
          "name": "collateral",
          "type": "address[]"
        }
      ],
      "stateMutability": "view",
      "type": "function"
    },
    {
      "inputs": [],
      "name": "getAllFxTokens",
      "outputs": [
        {
          "internalType": "address[]",
          "name": "tokens",
          "type": "address[]"
        }
      ],
      "stateMutability": "view",
      "type": "function"
    },
    {
      "inputs": [
        {
          "internalType": "address",
          "name": "collateral",
          "type": "address"
        }
      ],
      "name": "getCollateralDetails",
      "outputs": [
        {
          "components": [
            {
              "internalType": "uint256",
              "name": "mintCR",
              "type": "uint256"
            },
            {
              "internalType": "uint256",
              "name": "liquidationRank",
              "type": "uint256"
            },
            {
              "internalType": "uint256",
              "name": "stabilityFee",
              "type": "uint256"
            },
            {
              "internalType": "uint256",
              "name": "liquidationFee",
              "type": "uint256"
            }
          ],
          "internalType": "struct IComptroller.CollateralData",
          "name": "",
          "type": "tuple"
        }
      ],
      "stateMutability": "view",
      "type": "function"
    },
    {
      "inputs": [
        {
          "internalType": "address",
          "name": "token",
          "type": "address"
        }
      ],
      "name": "getTokenDetails",
      "outputs": [
        {
          "components": [
            {
              "internalType": "uint256",
              "name": "liquidateCR",
              "type": "uint256"
            },
            {
              "internalType": "uint256",
              "name": "rewardRatio",
              "type": "uint256"
            }
          ],
          "internalType": "struct IComptroller.TokenData",
          "name": "",
          "type": "tuple"
        }
      ],
      "stateMutability": "view",
      "type": "function"
    },
    {
      "inputs": [
        {
          "internalType": "address",
          "name": "token",
          "type": "address"
        }
      ],
      "name": "getTokenPrice",
      "outputs": [
        {
          "internalType": "uint256",
          "name": "quote",
          "type": "uint256"
        }
      ],
      "stateMutability": "view",
      "type": "function"
    },
    {
      "inputs": [
        {
          "internalType": "address",
          "name": "",
          "type": "address"
        }
      ],
      "name": "isCollateralValid",
      "outputs": [
        {
          "internalType": "bool",
          "name": "",
          "type": "bool"
        }
      ],
      "stateMutability": "view",
      "type": "function"
    },
    {
      "inputs": [
        {
          "internalType": "address",
          "name": "",
          "type": "address"
        }
      ],
      "name": "isFxTokenValid",
      "outputs": [
        {
          "internalType": "bool",
          "name": "",
          "type": "bool"
        }
      ],
      "stateMutability": "view",
      "type": "function"
    },
    {
      "inputs": [
        {
          "internalType": "uint256",
          "name": "tokenAmountDesired",
          "type": "uint256"
        },
        {
          "internalType": "address",
          "name": "token",
          "type": "address"
        },
        {
          "internalType": "address",
          "name": "collateralToken",
          "type": "address"
        },
        {
          "internalType": "address",
          "name": "to",
          "type": "address"
        },
        {
          "internalType": "uint256",
          "name": "deadline",
          "type": "uint256"
        }
      ],
      "name": "mint",
      "outputs": [],
      "stateMutability": "nonpayable",
      "type": "function"
    },
    {
      "inputs": [],
      "name": "mintRewardToken",
      "outputs": [
        {
          "internalType": "address",
          "name": "",
          "type": "address"
        }
      ],
      "stateMutability": "view",
      "type": "function"
    },
    {
      "inputs": [
        {
          "internalType": "uint256",
          "name": "tokenAmount",
          "type": "uint256"
        },
        {
          "internalType": "address",
          "name": "token",
          "type": "address"
        },
        {
          "internalType": "uint256",
          "name": "deadline",
          "type": "uint256"
        }
      ],
      "name": "mintWithEth",
      "outputs": [],
      "stateMutability": "payable",
      "type": "function"
    },
    {
      "inputs": [
        {
          "internalType": "uint256",
          "name": "tokenAmount",
          "type": "uint256"
        },
        {
          "internalType": "address",
          "name": "token",
          "type": "address"
        },
        {
          "internalType": "uint256",
          "name": "deadline",
          "type": "uint256"
        }
      ],
      "name": "mintWithoutCollateral",
      "outputs": [],
      "stateMutability": "nonpayable",
      "type": "function"
    },
    {
      "inputs": [
        {
          "internalType": "address",
          "name": "",
          "type": "address"
        }
      ],
      "name": "oracles",
      "outputs": [
        {
          "internalType": "address",
          "name": "",
          "type": "address"
        }
      ],
      "stateMutability": "view",
      "type": "function"
    },
    {
      "inputs": [],
      "name": "owner",
      "outputs": [
        {
          "internalType": "address",
          "name": "",
          "type": "address"
        }
      ],
      "stateMutability": "view",
      "type": "function"
    },
    {
      "inputs": [],
      "name": "poolRewardToken",
      "outputs": [
        {
          "internalType": "address",
          "name": "",
          "type": "address"
        }
      ],
      "stateMutability": "view",
      "type": "function"
    },
    {
      "inputs": [
        {
          "internalType": "uint256",
          "name": "amount",
          "type": "uint256"
        },
        {
          "internalType": "address",
          "name": "token",
          "type": "address"
        },
        {
          "internalType": "address",
          "name": "from",
          "type": "address"
        },
        {
          "internalType": "uint256",
          "name": "deadline",
          "type": "uint256"
        }
      ],
      "name": "redeem",
      "outputs": [],
      "stateMutability": "nonpayable",
      "type": "function"
    },
    {
      "inputs": [
        {
          "internalType": "address",
          "name": "token",
          "type": "address"
        }
      ],
      "name": "removeCollateralToken",
      "outputs": [],
      "stateMutability": "nonpayable",
      "type": "function"
    },
    {
      "inputs": [
        {
          "internalType": "address",
          "name": "token",
          "type": "address"
        }
      ],
      "name": "removeFxToken",
      "outputs": [],
      "stateMutability": "nonpayable",
      "type": "function"
    },
    {
      "inputs": [],
      "name": "renounceOwnership",
      "outputs": [],
      "stateMutability": "nonpayable",
      "type": "function"
    },
    {
      "inputs": [
        {
          "internalType": "address",
          "name": "_token",
          "type": "address"
        },
        {
          "internalType": "uint256",
          "name": "_mintCR",
          "type": "uint256"
        },
        {
          "internalType": "uint256",
          "name": "_liquidationRank",
          "type": "uint256"
        },
        {
          "internalType": "uint256",
          "name": "_stabilityFee",
          "type": "uint256"
        },
        {
          "internalType": "uint256",
          "name": "_liquidationFee",
          "type": "uint256"
        }
      ],
      "name": "setCollateralToken",
      "outputs": [],
      "stateMutability": "nonpayable",
      "type": "function"
    },
    {
      "inputs": [
        {
          "internalType": "address",
          "name": "_treasury",
          "type": "address"
        },
        {
          "internalType": "address",
          "name": "_vaultLibrary",
          "type": "address"
        }
      ],
      "name": "setContracts",
      "outputs": [],
      "stateMutability": "nonpayable",
      "type": "function"
    },
    {
      "inputs": [
        {
          "internalType": "address",
          "name": "token",
          "type": "address"
        },
        {
          "internalType": "uint256",
          "name": "_liquidateCR",
          "type": "uint256"
        },
        {
          "internalType": "uint256",
          "name": "rewardRatio",
          "type": "uint256"
        }
      ],
      "name": "setFxToken",
      "outputs": [],
      "stateMutability": "nonpayable",
      "type": "function"
    },
    {
      "inputs": [
        {
          "internalType": "address",
          "name": "token",
          "type": "address"
        }
      ],
      "name": "setMintToken",
      "outputs": [],
      "stateMutability": "nonpayable",
      "type": "function"
    },
    {
      "inputs": [
        {
          "internalType": "address",
          "name": "_fxToken",
          "type": "address"
        },
        {
          "internalType": "address",
          "name": "_oracle",
          "type": "address"
        }
      ],
      "name": "setOracle",
      "outputs": [],
      "stateMutability": "nonpayable",
      "type": "function"
    },
    {
      "inputs": [
        {
          "internalType": "address",
          "name": "",
          "type": "address"
        }
      ],
      "name": "tokenDetails",
      "outputs": [
        {
          "internalType": "uint256",
          "name": "liquidateCR",
          "type": "uint256"
        },
        {
          "internalType": "uint256",
          "name": "rewardRatio",
          "type": "uint256"
        }
      ],
      "stateMutability": "view",
      "type": "function"
    },
    {
      "inputs": [
        {
          "internalType": "address",
          "name": "newOwner",
          "type": "address"
        }
      ],
      "name": "transferOwnership",
      "outputs": [],
      "stateMutability": "nonpayable",
      "type": "function"
    },
    {
      "inputs": [],
      "name": "treasury",
      "outputs": [
        {
          "internalType": "address payable",
          "name": "",
          "type": "address"
        }
      ],
      "stateMutability": "view",
      "type": "function"
    },
    {
      "inputs": [
        {
          "internalType": "uint256",
          "name": "",
          "type": "uint256"
        }
      ],
      "name": "validFxTokens",
      "outputs": [
        {
          "internalType": "address",
          "name": "",
          "type": "address"
        }
      ],
      "stateMutability": "view",
      "type": "function"
    },
    {
      "inputs": [],
      "name": "vaultLibrary",
      "outputs": [
        {
          "internalType": "address",
          "name": "",
          "type": "address"
        }
      ],
      "stateMutability": "view",
      "type": "function"
    },
    {
      "stateMutability": "payable",
      "type": "receive"
    }
  ],
  "bytecode": "0x60a06040523480156200001157600080fd5b50604051620060cf380380620060cf8339818101604052810190620000379190620001cf565b600062000049620001b060201b60201c565b9050806000806101000a81548173ffffffffffffffffffffffffffffffffffffffff021916908373ffffffffffffffffffffffffffffffffffffffff1602179055508073ffffffffffffffffffffffffffffffffffffffff16600073ffffffffffffffffffffffffffffffffffffffff167f8be0079c531659141344cd1fd0a4f28419497f9722a3daafe3b4186f6b6457e060405160405180910390a3506001808190555082600260006101000a81548173ffffffffffffffffffffffffffffffffffffffff021916908373ffffffffffffffffffffffffffffffffffffffff16021790555081600360006101000a81548173ffffffffffffffffffffffffffffffffffffffff021916908373ffffffffffffffffffffffffffffffffffffffff1602179055508073ffffffffffffffffffffffffffffffffffffffff1660808173ffffffffffffffffffffffffffffffffffffffff1660601b8152505050505062000273565b600033905090565b600081519050620001c98162000259565b92915050565b600080600060608486031215620001e557600080fd5b6000620001f586828701620001b8565b93505060206200020886828701620001b8565b92505060406200021b86828701620001b8565b9150509250925092565b6000620002328262000239565b9050919050565b600073ffffffffffffffffffffffffffffffffffffffff82169050919050565b620002648162000225565b81146200027057600080fd5b50565b60805160601c615e07620002c8600039806101ee52806112e35280611ab85280611ccd52806122ed528061236e5280612467528061251e52806125c852806133d45280613ea45280613fa45250615e076000f3fe6080604052600436106101e75760003560e01c80639dbaf15411610102578063bd9e520011610095578063dd4be68311610064578063dd4be68314610768578063eb0a8b91146107a6578063f2fde38b146107d1578063f70eebf5146107fa57610243565b8063bd9e52001461069a578063d02641a0146106d7578063d1601f1314610714578063d8952a491461073f57610243565b8063abd3da5e116100d1578063abd3da5e146105ca578063ad5c464814610607578063addd509914610632578063b1c566a01461066f57610243565b80639dbaf154146105125780639eea5f661461053b5780639f40a7b314610564578063a0f026ff1461058d57610243565b80635c38eb3a1161017a578063803c97b311610149578063803c97b31461044457806388aa8bee146104815780638da5cb5b146104be57806394f9059f146104e957610243565b80635c38eb3a146103b057806361d027b3146103d9578063715018a6146104045780637b90cfcb1461041b57610243565b806338df2ff3116101b657806338df2ff3146103025780634a13e91d146103425780634cf41b911461036b578063538d22bc1461039457610243565b80630a21d0fb14610248578063172c48c714610271578063294d499e146102ae5780632b455759146102d957610243565b36610243577f000000000000000000000000000000000000000000000000000000000000000073ffffffffffffffffffffffffffffffffffffffff163373ffffffffffffffffffffffffffffffffffffffff161461024157fe5b005b600080fd5b34801561025457600080fd5b5061026f600480360381019061026a9190614f88565b610825565b005b34801561027d57600080fd5b50610298600480360381019061029391906150a7565b610a8c565b6040516102a591906155ca565b60405180910390f35b3480156102ba57600080fd5b506102c3610acb565b6040516102d0919061593a565b60405180910390f35b3480156102e557600080fd5b5061030060048036038101906102fb9190614eab565b610b59565b005b34801561030e57600080fd5b5061032960048036038101906103249190614eab565b610f51565b6040516103399493929190615b08565b60405180910390f35b34801561034e57600080fd5b5061036960048036038101906103649190614eab565b610f81565b005b34801561037757600080fd5b50610392600480360381019061038d91906151d3565b61108d565b005b6103ae60048036038101906103a991906151d3565b61194a565b005b3480156103bc57600080fd5b506103d760048036038101906103d29190614efd565b6126d1565b005b3480156103e557600080fd5b506103ee6128fb565b6040516103fb9190615600565b60405180910390f35b34801561041057600080fd5b50610419612921565b005b34801561042757600080fd5b50610442600480360381019061043d91906150f9565b612aa7565b005b34801561045057600080fd5b5061046b60048036038101906104669190614eab565b612c91565b604051610478919061595c565b60405180910390f35b34801561048d57600080fd5b506104a860048036038101906104a39190614eab565b612cb1565b6040516104b59190615a72565b60405180910390f35b3480156104ca57600080fd5b506104d3612d1e565b6040516104e091906155ca565b60405180910390f35b3480156104f557600080fd5b50610510600480360381019061050b9190614eab565b612d47565b005b34801561051e57600080fd5b5061053960048036038101906105349190614f39565b612e61565b005b34801561054757600080fd5b50610562600480360381019061055d91906151d3565b6130a6565b005b34801561057057600080fd5b5061058b60048036038101906105869190615170565b61387c565b005b34801561059957600080fd5b506105b460048036038101906105af9190614eab565b613e43565b6040516105c1919061595c565b60405180910390f35b3480156105d657600080fd5b506105f160048036038101906105ec91906150a7565b613e63565b6040516105fe91906155ca565b60405180910390f35b34801561061357600080fd5b5061061c613ea2565b60405161062991906155ca565b60405180910390f35b34801561063e57600080fd5b5061065960048036038101906106549190614eab565b613ec6565b60405161066691906155ca565b60405180910390f35b34801561067b57600080fd5b50610684613ef9565b60405161069191906155ca565b60405180910390f35b3480156106a657600080fd5b506106c160048036038101906106bc9190614eab565b613f1f565b6040516106ce9190615a57565b60405180910390f35b3480156106e357600080fd5b506106fe60048036038101906106f99190614eab565b613fa0565b60405161070b9190615a8d565b60405180910390f35b34801561072057600080fd5b5061072961419a565b604051610736919061593a565b60405180910390f35b34801561074b57600080fd5b5061076660048036038101906107619190614efd565b614228565b005b34801561077457600080fd5b5061078f600480360381019061078a9190614eab565b614456565b60405161079d929190615aa8565b60405180910390f35b3480156107b257600080fd5b506107bb61447a565b6040516107c891906155ca565b60405180910390f35b3480156107dd57600080fd5b506107f860048036038101906107f39190614eab565b6144a0565b005b34801561080657600080fd5b5061080f6146ab565b60405161081c91906155ca565b60405180910390f35b61082d6146d1565b73ffffffffffffffffffffffffffffffffffffffff1660008054906101000a900473ffffffffffffffffffffffffffffffffffffffff1673ffffffffffffffffffffffffffffffffffffffff16146108ed576040517f08c379a00000000000000000000000000000000000000000000000000000000081526004018080602001828103825260208152602001807f4f776e61626c653a2063616c6c6572206973206e6f7420746865206f776e657281525060200191505060405180910390fd5b600760008673ffffffffffffffffffffffffffffffffffffffff1673ffffffffffffffffffffffffffffffffffffffff16815260200190815260200160002060009054906101000a900460ff166109fa576006859080600181540180825580915050600190039060005260206000200160009091909190916101000a81548173ffffffffffffffffffffffffffffffffffffffff021916908373ffffffffffffffffffffffffffffffffffffffff1602179055506001600760008773ffffffffffffffffffffffffffffffffffffffff1673ffffffffffffffffffffffffffffffffffffffff16815260200190815260200160002060006101000a81548160ff0219169083151502179055505b604051806080016040528085815260200184815260200183815260200182815250600860008773ffffffffffffffffffffffffffffffffffffffff1673ffffffffffffffffffffffffffffffffffffffff168152602001908152602001600020600082015181600001556020820151816001015560408201518160020155606082015181600301559050505050505050565b60068181548110610a9c57600080fd5b906000526020600020016000915054906101000a900473ffffffffffffffffffffffffffffffffffffffff1681565b60606006805480602002602001604051908101604052809291908181526020018280548015610b4f57602002820191906000526020600020905b8160009054906101000a900473ffffffffffffffffffffffffffffffffffffffff1673ffffffffffffffffffffffffffffffffffffffff1681526020019060010190808311610b05575b5050505050905090565b610b616146d1565b73ffffffffffffffffffffffffffffffffffffffff1660008054906101000a900473ffffffffffffffffffffffffffffffffffffffff1673ffffffffffffffffffffffffffffffffffffffff1614610c21576040517f08c379a00000000000000000000000000000000000000000000000000000000081526004018080602001828103825260208152602001807f4f776e61626c653a2063616c6c6572206973206e6f7420746865206f776e657281525060200191505060405180910390fd5b80600a60008273ffffffffffffffffffffffffffffffffffffffff1673ffffffffffffffffffffffffffffffffffffffff16815260200190815260200160002060009054906101000a900460ff16610cae576040517f08c379a0000000000000000000000000000000000000000000000000000000008152600401610ca5906159d7565b60405180910390fd5b6000600160098054905001905060005b600980549050811015610d4b578373ffffffffffffffffffffffffffffffffffffffff1660098281548110610cef57fe5b9060005260206000200160009054906101000a900473ffffffffffffffffffffffffffffffffffffffff1673ffffffffffffffffffffffffffffffffffffffff161415610d3e57809150610d4b565b8080600101915050610cbe565b50600b60008473ffffffffffffffffffffffffffffffffffffffff1673ffffffffffffffffffffffffffffffffffffffff16815260200190815260200160002060008082016000905560018201600090555050600a60008473ffffffffffffffffffffffffffffffffffffffff1673ffffffffffffffffffffffffffffffffffffffff16815260200190815260200160002060006101000a81549060ff0219169055600160098054905003811015610f115760098181548110610e0a57fe5b9060005260206000200160006101000a81549073ffffffffffffffffffffffffffffffffffffffff0219169055600960016009805490500381548110610e4c57fe5b9060005260206000200160009054906101000a900473ffffffffffffffffffffffffffffffffffffffff1660098281548110610e8457fe5b9060005260206000200160006101000a81548173ffffffffffffffffffffffffffffffffffffffff021916908373ffffffffffffffffffffffffffffffffffffffff1602179055506009805480610ed757fe5b6001900381819060005260206000200160006101000a81549073ffffffffffffffffffffffffffffffffffffffff02191690559055610f4c565b60098181548110610f1e57fe5b9060005260206000200160006101000a81549073ffffffffffffffffffffffffffffffffffffffff02191690555b505050565b60086020528060005260406000206000915090508060000154908060010154908060020154908060030154905084565b610f896146d1565b73ffffffffffffffffffffffffffffffffffffffff1660008054906101000a900473ffffffffffffffffffffffffffffffffffffffff1673ffffffffffffffffffffffffffffffffffffffff1614611049576040517f08c379a00000000000000000000000000000000000000000000000000000000081526004018080602001828103825260208152602001807f4f776e61626c653a2063616c6c6572206973206e6f7420746865206f776e657281525060200191505060405180910390fd5b80600260006101000a81548173ffffffffffffffffffffffffffffffffffffffff021916908373ffffffffffffffffffffffffffffffffffffffff16021790555050565b80804211156110e7576040517f08c379a0000000000000000000000000000000000000000000000000000000008152600401808060200182810382526021815260200180615d906021913960400191505060405180910390fd5b82600a60008273ffffffffffffffffffffffffffffffffffffffff1673ffffffffffffffffffffffffffffffffffffffff16815260200190815260200160002060009054906101000a900460ff16611174576040517f08c379a000000000000000000000000000000000000000000000000000000000815260040161116b906159d7565b60405180910390fd5b61117c6146d9565b73ffffffffffffffffffffffffffffffffffffffff16633fa6b81933866040518363ffffffff1660e01b81526004016111b692919061561b565b600060405180830381600087803b1580156111d057600080fd5b505af11580156111e4573d6000803e3d6000fd5b5050505060006112956103e86112876111fb6146d9565b73ffffffffffffffffffffffffffffffffffffffff16639931286d6040518163ffffffff1660e01b815260040160206040518083038186803b15801561124057600080fd5b505afa158015611254573d6000803e3d6000fd5b505050506040513d601f19601f8201168201806040525081019061127891906150d0565b8961470390919063ffffffff16565b61478990919063ffffffff16565b90506112aa81876147d390919063ffffffff16565b955060006112b786613fa0565b90506112c161485b565b73ffffffffffffffffffffffffffffffffffffffff16639e718d0788600860007f000000000000000000000000000000000000000000000000000000000000000073ffffffffffffffffffffffffffffffffffffffff1673ffffffffffffffffffffffffffffffffffffffff16815260200190815260200160002060000154846040518463ffffffff1660e01b815260040161135f93929190615ad1565b60206040518083038186803b15801561137757600080fd5b505afa15801561138b573d6000803e3d6000fd5b505050506040513d601f19601f820116820180604052508101906113af91906150d0565b6113b761485b565b73ffffffffffffffffffffffffffffffffffffffff1663e76ab23933896040518363ffffffff1660e01b81526004016113f192919061561b565b60206040518083038186803b15801561140957600080fd5b505afa15801561141d573d6000803e3d6000fd5b505050506040513d601f19601f8201168201806040525081019061144191906150d0565b1015611482576040517f08c379a0000000000000000000000000000000000000000000000000000000008152600401611479906159f7565b60405180910390fd5b60008673ffffffffffffffffffffffffffffffffffffffff166370a08231336040518263ffffffff1660e01b81526004016114bd91906155e5565b60206040518083038186803b1580156114d557600080fd5b505afa1580156114e9573d6000803e3d6000fd5b505050506040513d601f19601f8201168201806040525081019061150d91906150d0565b90508673ffffffffffffffffffffffffffffffffffffffff166340c10f193361153f868c61488590919063ffffffff16565b6040518363ffffffff1660e01b815260040161155c9291906156ce565b600060405180830381600087803b15801561157657600080fd5b505af115801561158a573d6000803e3d6000fd5b505050508673ffffffffffffffffffffffffffffffffffffffff166340c10f196115b26146d9565b73ffffffffffffffffffffffffffffffffffffffff1663ec94578e6040518163ffffffff1660e01b815260040160206040518083038186803b1580156115f757600080fd5b505afa15801561160b573d6000803e3d6000fd5b505050506040513d601f19601f8201168201806040525081019061162f9190614ed4565b856040518363ffffffff1660e01b815260040161164d9291906158cc565b600060405180830381600087803b15801561166757600080fd5b505af115801561167b573d6000803e3d6000fd5b505050506116a4836116968a846147d390919063ffffffff16565b61488590919063ffffffff16565b8773ffffffffffffffffffffffffffffffffffffffff166370a08231336040518263ffffffff1660e01b81526004016116dd91906155e5565b60206040518083038186803b1580156116f557600080fd5b505afa158015611709573d6000803e3d6000fd5b505050506040513d601f19601f8201168201806040525081019061172d91906150d0565b1461173457fe5b600061173e6146d9565b73ffffffffffffffffffffffffffffffffffffffff1663498b5ae8338a6040518363ffffffff1660e01b815260040161177892919061561b565b60206040518083038186803b15801561179057600080fd5b505afa1580156117a4573d6000803e3d6000fd5b505050506040513d601f19601f820116820180604052508101906117c891906150d0565b90506117d26146d9565b73ffffffffffffffffffffffffffffffffffffffff1663877034f1338b8b60016040518563ffffffff1660e01b8152600401611811949392919061573c565b600060405180830381600087803b15801561182b57600080fd5b505af115801561183f573d6000803e3d6000fd5b5050505061184b6146d9565b73ffffffffffffffffffffffffffffffffffffffff1663498b5ae8338a6040518363ffffffff1660e01b815260040161188592919061561b565b60206040518083038186803b15801561189d57600080fd5b505afa1580156118b1573d6000803e3d6000fd5b505050506040513d601f19601f820116820180604052508101906118d591906150d0565b6118e88a836147d390919063ffffffff16565b146118ef57fe5b8773ffffffffffffffffffffffffffffffffffffffff167fb4a4751ef6a44118d02c7f8772a09a847f35ae4293a6c73ffc21039b80635682848b604051611937929190615aa8565b60405180910390a2505050505050505050565b80804211156119a4576040517f08c379a0000000000000000000000000000000000000000000000000000000008152600401808060200182810382526021815260200180615d906021913960400191505060405180910390fd5b82600a60008273ffffffffffffffffffffffffffffffffffffffff1673ffffffffffffffffffffffffffffffffffffffff16815260200190815260200160002060009054906101000a900460ff16611a31576040517f08c379a0000000000000000000000000000000000000000000000000000000008152600401611a28906159d7565b60405180910390fd5b60026001541415611aaa576040517f08c379a000000000000000000000000000000000000000000000000000000000815260040180806020018281038252601f8152602001807f5265656e7472616e637947756172643a207265656e7472616e742063616c6c0081525060200191505060405180910390fd5b6002600181905550600760007f000000000000000000000000000000000000000000000000000000000000000073ffffffffffffffffffffffffffffffffffffffff1673ffffffffffffffffffffffffffffffffffffffff16815260200190815260200160002060009054906101000a900460ff16611b5e576040517f08c379a0000000000000000000000000000000000000000000000000000000008152600401611b5590615997565b60405180910390fd5b611b666146d9565b73ffffffffffffffffffffffffffffffffffffffff16633fa6b81933866040518363ffffffff1660e01b8152600401611ba092919061561b565b600060405180830381600087803b158015611bba57600080fd5b505af1158015611bce573d6000803e3d6000fd5b505050506000611c7f6103e8611c71611be56146d9565b73ffffffffffffffffffffffffffffffffffffffff16639931286d6040518163ffffffff1660e01b815260040160206040518083038186803b158015611c2a57600080fd5b505afa158015611c3e573d6000803e3d6000fd5b505050506040513d601f19601f82011682018060405250810190611c6291906150d0565b8961470390919063ffffffff16565b61478990919063ffffffff16565b9050611c9481876147d390919063ffffffff16565b95506000611ca186613fa0565b9050611cab61485b565b73ffffffffffffffffffffffffffffffffffffffff16639e718d0788600860007f000000000000000000000000000000000000000000000000000000000000000073ffffffffffffffffffffffffffffffffffffffff1673ffffffffffffffffffffffffffffffffffffffff16815260200190815260200160002060000154846040518463ffffffff1660e01b8152600401611d4993929190615ad1565b60206040518083038186803b158015611d6157600080fd5b505afa158015611d75573d6000803e3d6000fd5b505050506040513d601f19601f82011682018060405250810190611d9991906150d0565b611e3d34611da561485b565b73ffffffffffffffffffffffffffffffffffffffff1663e76ab239338b6040518363ffffffff1660e01b8152600401611ddf92919061561b565b60206040518083038186803b158015611df757600080fd5b505afa158015611e0b573d6000803e3d6000fd5b505050506040513d601f19601f82011682018060405250810190611e2f91906150d0565b6147d390919063ffffffff16565b1015611e7e576040517f08c379a0000000000000000000000000000000000000000000000000000000008152600401611e75906159f7565b60405180910390fd5b60008673ffffffffffffffffffffffffffffffffffffffff166370a08231336040518263ffffffff1660e01b8152600401611eb991906155e5565b60206040518083038186803b158015611ed157600080fd5b505afa158015611ee5573d6000803e3d6000fd5b505050506040513d601f19601f82011682018060405250810190611f0991906150d0565b90508673ffffffffffffffffffffffffffffffffffffffff166340c10f1933611f3b868c61488590919063ffffffff16565b6040518363ffffffff1660e01b8152600401611f589291906156ce565b600060405180830381600087803b158015611f7257600080fd5b505af1158015611f86573d6000803e3d6000fd5b505050508673ffffffffffffffffffffffffffffffffffffffff166340c10f19611fae6146d9565b73ffffffffffffffffffffffffffffffffffffffff1663ec94578e6040518163ffffffff1660e01b815260040160206040518083038186803b158015611ff357600080fd5b505afa158015612007573d6000803e3d6000fd5b505050506040513d601f19601f8201168201806040525081019061202b9190614ed4565b856040518363ffffffff1660e01b81526004016120499291906158cc565b600060405180830381600087803b15801561206357600080fd5b505af1158015612077573d6000803e3d6000fd5b505050506120a0836120928a846147d390919063ffffffff16565b61488590919063ffffffff16565b8773ffffffffffffffffffffffffffffffffffffffff166370a08231336040518263ffffffff1660e01b81526004016120d991906155e5565b60206040518083038186803b1580156120f157600080fd5b505afa158015612105573d6000803e3d6000fd5b505050506040513d601f19601f8201168201806040525081019061212991906150d0565b1461213057fe5b600061213a6146d9565b73ffffffffffffffffffffffffffffffffffffffff1663498b5ae8338a6040518363ffffffff1660e01b815260040161217492919061561b565b60206040518083038186803b15801561218c57600080fd5b505afa1580156121a0573d6000803e3d6000fd5b505050506040513d601f19601f820116820180604052508101906121c491906150d0565b90506121ce6146d9565b73ffffffffffffffffffffffffffffffffffffffff1663877034f1338b8b60016040518563ffffffff1660e01b815260040161220d949392919061573c565b600060405180830381600087803b15801561222757600080fd5b505af115801561223b573d6000803e3d6000fd5b505050506122476146d9565b73ffffffffffffffffffffffffffffffffffffffff1663498b5ae8338a6040518363ffffffff1660e01b815260040161228192919061561b565b60206040518083038186803b15801561229957600080fd5b505afa1580156122ad573d6000803e3d6000fd5b505050506040513d601f19601f820116820180604052508101906122d191906150d0565b6122e48a836147d390919063ffffffff16565b146122eb57fe5b7f000000000000000000000000000000000000000000000000000000000000000073ffffffffffffffffffffffffffffffffffffffff1663d0e30db0346040518263ffffffff1660e01b81526004016000604051808303818588803b15801561235357600080fd5b505af1158015612367573d6000803e3d6000fd5b50505050507f000000000000000000000000000000000000000000000000000000000000000073ffffffffffffffffffffffffffffffffffffffff1663095ea7b3600460009054906101000a900473ffffffffffffffffffffffffffffffffffffffff16346040518363ffffffff1660e01b81526004016123e99291906156ce565b602060405180830381600087803b15801561240357600080fd5b505af1158015612417573d6000803e3d6000fd5b505050506040513d601f19601f8201168201806040525081019061243b919061507e565b61244157fe5b6124496146d9565b73ffffffffffffffffffffffffffffffffffffffff1663c462b520337f00000000000000000000000000000000000000000000000000000000000000008b6040518463ffffffff1660e01b81526004016124a593929190615644565b60206040518083038186803b1580156124bd57600080fd5b505afa1580156124d1573d6000803e3d6000fd5b505050506040513d601f19601f820116820180604052508101906124f591906150d0565b91506124ff6146d9565b73ffffffffffffffffffffffffffffffffffffffff1663ce1c185133347f00000000000000000000000000000000000000000000000000000000000000008c6040518563ffffffff1660e01b815260040161255d94939291906156f7565b600060405180830381600087803b15801561257757600080fd5b505af115801561258b573d6000803e3d6000fd5b505050506125a282346147d390919063ffffffff16565b6125aa6146d9565b73ffffffffffffffffffffffffffffffffffffffff1663c462b520337f00000000000000000000000000000000000000000000000000000000000000008c6040518463ffffffff1660e01b815260040161260693929190615644565b60206040518083038186803b15801561261e57600080fd5b505afa158015612632573d6000803e3d6000fd5b505050506040513d601f19601f8201168201806040525081019061265691906150d0565b1461265d57fe5b8773ffffffffffffffffffffffffffffffffffffffff167fb4a4751ef6a44118d02c7f8772a09a847f35ae4293a6c73ffc21039b80635682846126a9878d61488590919063ffffffff16565b6040516126b7929190615aa8565b60405180910390a250505050600180819055505050505050565b6126d96146d1565b73ffffffffffffffffffffffffffffffffffffffff1660008054906101000a900473ffffffffffffffffffffffffffffffffffffffff1673ffffffffffffffffffffffffffffffffffffffff1614612799576040517f08c379a00000000000000000000000000000000000000000000000000000000081526004018080602001828103825260208152602001807f4f776e61626c653a2063616c6c6572206973206e6f7420746865206f776e657281525060200191505060405180910390fd5b600073ffffffffffffffffffffffffffffffffffffffff168273ffffffffffffffffffffffffffffffffffffffff161415612809576040517f08c379a0000000000000000000000000000000000000000000000000000000008152600401612800906159b7565b60405180910390fd5b600073ffffffffffffffffffffffffffffffffffffffff168173ffffffffffffffffffffffffffffffffffffffff161415612879576040517f08c379a0000000000000000000000000000000000000000000000000000000008152600401612870906159b7565b60405180910390fd5b80600c60008473ffffffffffffffffffffffffffffffffffffffff1673ffffffffffffffffffffffffffffffffffffffff16815260200190815260200160002060006101000a81548173ffffffffffffffffffffffffffffffffffffffff021916908373ffffffffffffffffffffffffffffffffffffffff1602179055505050565b600460009054906101000a900473ffffffffffffffffffffffffffffffffffffffff1681565b6129296146d1565b73ffffffffffffffffffffffffffffffffffffffff1660008054906101000a900473ffffffffffffffffffffffffffffffffffffffff1673ffffffffffffffffffffffffffffffffffffffff16146129e9576040517f08c379a00000000000000000000000000000000000000000000000000000000081526004018080602001828103825260208152602001807f4f776e61626c653a2063616c6c6572206973206e6f7420746865206f776e657281525060200191505060405180910390fd5b600073ffffffffffffffffffffffffffffffffffffffff1660008054906101000a900473ffffffffffffffffffffffffffffffffffffffff1673ffffffffffffffffffffffffffffffffffffffff167f8be0079c531659141344cd1fd0a4f28419497f9722a3daafe3b4186f6b6457e060405160405180910390a360008060006101000a81548173ffffffffffffffffffffffffffffffffffffffff021916908373ffffffffffffffffffffffffffffffffffffffff160217905550565b8080421115612b01576040517f08c379a0000000000000000000000000000000000000000000000000000000008152600401808060200182810382526021815260200180615d906021913960400191505060405180910390fd5b60026001541415612b7a576040517f08c379a000000000000000000000000000000000000000000000000000000000815260040180806020018281038252601f8152602001807f5265656e7472616e637947756172643a207265656e7472616e742063616c6c0081525060200191505060405180910390fd5b6002600181905550600760008573ffffffffffffffffffffffffffffffffffffffff1673ffffffffffffffffffffffffffffffffffffffff16815260200190815260200160002060009054906101000a900460ff16612c0e576040517f08c379a0000000000000000000000000000000000000000000000000000000008152600401612c0590615977565b60405180910390fd5b612c166146d9565b73ffffffffffffffffffffffffffffffffffffffff16633fa6b81933876040518363ffffffff1660e01b8152600401612c5092919061561b565b600060405180830381600087803b158015612c6a57600080fd5b505af1158015612c7e573d6000803e3d6000fd5b5050505060018081905550505050505050565b60076020528060005260406000206000915054906101000a900460ff1681565b612cb9614cd4565b600b60008373ffffffffffffffffffffffffffffffffffffffff1673ffffffffffffffffffffffffffffffffffffffff168152602001908152602001600020604051806040016040529081600082015481526020016001820154815250509050919050565b60008060009054906101000a900473ffffffffffffffffffffffffffffffffffffffff16905090565b612d4f6146d1565b73ffffffffffffffffffffffffffffffffffffffff1660008054906101000a900473ffffffffffffffffffffffffffffffffffffffff1673ffffffffffffffffffffffffffffffffffffffff1614612e0f576040517f08c379a00000000000000000000000000000000000000000000000000000000081526004018080602001828103825260208152602001807f4f776e61626c653a2063616c6c6572206973206e6f7420746865206f776e657281525060200191505060405180910390fd5b600760008273ffffffffffffffffffffffffffffffffffffffff1673ffffffffffffffffffffffffffffffffffffffff16815260200190815260200160002060006101000a81549060ff021916905550565b612e696146d1565b73ffffffffffffffffffffffffffffffffffffffff1660008054906101000a900473ffffffffffffffffffffffffffffffffffffffff1673ffffffffffffffffffffffffffffffffffffffff1614612f29576040517f08c379a00000000000000000000000000000000000000000000000000000000081526004018080602001828103825260208152602001807f4f776e61626c653a2063616c6c6572206973206e6f7420746865206f776e657281525060200191505060405180910390fd5b600a60008473ffffffffffffffffffffffffffffffffffffffff1673ffffffffffffffffffffffffffffffffffffffff16815260200190815260200160002060009054906101000a900460ff16613036576009839080600181540180825580915050600190039060005260206000200160009091909190916101000a81548173ffffffffffffffffffffffffffffffffffffffff021916908373ffffffffffffffffffffffffffffffffffffffff1602179055506001600a60008573ffffffffffffffffffffffffffffffffffffffff1673ffffffffffffffffffffffffffffffffffffffff16815260200190815260200160002060006101000a81548160ff0219169083151502179055505b604051806040016040528083815260200182815250600b60008573ffffffffffffffffffffffffffffffffffffffff1673ffffffffffffffffffffffffffffffffffffffff1681526020019081526020016000206000820151816000015560208201518160010155905050505050565b8080421115613100576040517f08c379a0000000000000000000000000000000000000000000000000000000008152600401808060200182810382526021815260200180615d906021913960400191505060405180910390fd5b82600a60008273ffffffffffffffffffffffffffffffffffffffff1673ffffffffffffffffffffffffffffffffffffffff16815260200190815260200160002060009054906101000a900460ff1661318d576040517f08c379a0000000000000000000000000000000000000000000000000000000008152600401613184906159d7565b60405180910390fd5b848473ffffffffffffffffffffffffffffffffffffffff166370a08231336040518263ffffffff1660e01b81526004016131c791906155e5565b60206040518083038186803b1580156131df57600080fd5b505afa1580156131f3573d6000803e3d6000fd5b505050506040513d601f19601f8201168201806040525081019061321791906150d0565b1015613258576040517f08c379a000000000000000000000000000000000000000000000000000000000815260040161324f90615a17565b60405180910390fd5b846132616146d9565b73ffffffffffffffffffffffffffffffffffffffff1663498b5ae833876040518363ffffffff1660e01b815260040161329b92919061561b565b60206040518083038186803b1580156132b357600080fd5b505afa1580156132c7573d6000803e3d6000fd5b505050506040513d601f19601f820116820180604052508101906132eb91906150d0565b101561332c576040517f08c379a000000000000000000000000000000000000000000000000000000000815260040161332390615a17565b60405180910390fd5b6133346146d9565b73ffffffffffffffffffffffffffffffffffffffff16633fa6b81933866040518363ffffffff1660e01b815260040161336e92919061561b565b600060405180830381600087803b15801561338857600080fd5b505af115801561339c573d6000803e3d6000fd5b5050505060006133ac86866148cf565b90506133b66146d9565b73ffffffffffffffffffffffffffffffffffffffff166358166d24337f00000000000000000000000000000000000000000000000000000000000000006133fb6146d9565b73ffffffffffffffffffffffffffffffffffffffff1663ec94578e6040518163ffffffff1660e01b815260040160206040518083038186803b15801561344057600080fd5b505afa158015613454573d6000803e3d6000fd5b505050506040513d601f19601f820116820180604052508101906134789190614ed4565b858a6040518663ffffffff1660e01b815260040161349a95949392919061567b565b600060405180830381600087803b1580156134b457600080fd5b505af11580156134c8573d6000803e3d6000fd5b5050505060008573ffffffffffffffffffffffffffffffffffffffff166370a08231336040518263ffffffff1660e01b815260040161350791906155e5565b60206040518083038186803b15801561351f57600080fd5b505afa158015613533573d6000803e3d6000fd5b505050506040513d601f19601f8201168201806040525081019061355791906150d0565b90508573ffffffffffffffffffffffffffffffffffffffff16639dc29fac33896040518363ffffffff1660e01b81526004016135949291906156ce565b600060405180830381600087803b1580156135ae57600080fd5b505af11580156135c2573d6000803e3d6000fd5b505050506135d9878261488590919063ffffffff16565b8673ffffffffffffffffffffffffffffffffffffffff166370a08231336040518263ffffffff1660e01b815260040161361291906155e5565b60206040518083038186803b15801561362a57600080fd5b505afa15801561363e573d6000803e3d6000fd5b505050506040513d601f19601f8201168201806040525081019061366291906150d0565b1461366957fe5b60006136736146d9565b73ffffffffffffffffffffffffffffffffffffffff1663498b5ae833896040518363ffffffff1660e01b81526004016136ad92919061561b565b60206040518083038186803b1580156136c557600080fd5b505afa1580156136d9573d6000803e3d6000fd5b505050506040513d601f19601f820116820180604052508101906136fd91906150d0565b90506137076146d9565b73ffffffffffffffffffffffffffffffffffffffff1663877034f1338a8a60006040518563ffffffff1660e01b8152600401613746949392919061573c565b600060405180830381600087803b15801561376057600080fd5b505af1158015613774573d6000803e3d6000fd5b5050505061378b888261488590919063ffffffff16565b6137936146d9565b73ffffffffffffffffffffffffffffffffffffffff1663498b5ae8338a6040518363ffffffff1660e01b81526004016137cd92919061561b565b60206040518083038186803b1580156137e557600080fd5b505afa1580156137f9573d6000803e3d6000fd5b505050506040513d601f19601f8201168201806040525081019061381d91906150d0565b1461382457fe5b8673ffffffffffffffffffffffffffffffffffffffff167f3dd579c60f3ada65727e8d87353e1499f8784809ec65347e9520ee2ea25d33788960405161386a9190615a8d565b60405180910390a25050505050505050565b80804211156138d6576040517f08c379a0000000000000000000000000000000000000000000000000000000008152600401808060200182810382526021815260200180615d906021913960400191505060405180910390fd5b83600a60008273ffffffffffffffffffffffffffffffffffffffff1673ffffffffffffffffffffffffffffffffffffffff16815260200190815260200160002060009054906101000a900460ff16613963576040517f08c379a000000000000000000000000000000000000000000000000000000000815260040161395a906159d7565b60405180910390fd5b61396b6146d9565b73ffffffffffffffffffffffffffffffffffffffff16633fa6b81985876040518363ffffffff1660e01b81526004016139a5929190615781565b600060405180830381600087803b1580156139bf57600080fd5b505af11580156139d3573d6000803e3d6000fd5b505050506139df61485b565b73ffffffffffffffffffffffffffffffffffffffff1663027ff1e1858760016040518463ffffffff1660e01b8152600401613a1c939291906157fd565b60206040518083038186803b158015613a3457600080fd5b505afa158015613a48573d6000803e3d6000fd5b505050506040513d601f19601f82011682018060405250810190613a6c919061507e565b15613aac576040517f08c379a0000000000000000000000000000000000000000000000000000000008152600401613aa3906159f7565b60405180910390fd5b85613ab56146d9565b73ffffffffffffffffffffffffffffffffffffffff1663498b5ae833886040518363ffffffff1660e01b8152600401613aef92919061561b565b60206040518083038186803b158015613b0757600080fd5b505afa158015613b1b573d6000803e3d6000fd5b505050506040513d601f19601f82011682018060405250810190613b3f91906150d0565b1015613b80576040517f08c379a0000000000000000000000000000000000000000000000000000000008152600401613b7790615a17565b60405180910390fd5b6000613bb7670de0b6b3a7640000613ba989613b9b8a613fa0565b61470390919063ffffffff16565b61478990919063ffffffff16565b90506000806000613bc661485b565b73ffffffffffffffffffffffffffffffffffffffff1663234ab3e2898b876040518463ffffffff1660e01b8152600401613c0293929190615834565b60006040518083038186803b158015613c1a57600080fd5b505afa158015613c2e573d6000803e3d6000fd5b505050506040513d6000823e3d601f19601f82011682018060405250810190613c579190614fff565b92509250925080613c9d576040517f08c379a0000000000000000000000000000000000000000000000000000000008152600401613c9490615a37565b60405180910390fd5b60005b600680549050811015613df757613cb56146d9565b73ffffffffffffffffffffffffffffffffffffffff1663877034f18a8d8d60006040518563ffffffff1660e01b8152600401613cf494939291906158f5565b600060405180830381600087803b158015613d0e57600080fd5b505af1158015613d22573d6000803e3d6000fd5b50505050613d2e6146d9565b73ffffffffffffffffffffffffffffffffffffffff166358166d248a60068481548110613d5757fe5b9060005260206000200160009054906101000a900473ffffffffffffffffffffffffffffffffffffffff1633878681518110613d8f57fe5b60200260200101518f6040518663ffffffff1660e01b8152600401613db89594939291906157aa565b600060405180830381600087803b158015613dd257600080fd5b505af1158015613de6573d6000803e3d6000fd5b505050508080600101915050613ca0565b507f85801d8b70db8bdabd6c7f02c3cad017384b116cf25ca73238bba9a4d86bd1a3888a8c8587604051613e2f95949392919061586b565b60405180910390a150505050505050505050565b600a6020528060005260406000206000915054906101000a900460ff1681565b60098181548110613e7357600080fd5b906000526020600020016000915054906101000a900473ffffffffffffffffffffffffffffffffffffffff1681565b7f000000000000000000000000000000000000000000000000000000000000000081565b600c6020528060005260406000206000915054906101000a900473ffffffffffffffffffffffffffffffffffffffff1681565b600260009054906101000a900473ffffffffffffffffffffffffffffffffffffffff1681565b613f27614cee565b600860008373ffffffffffffffffffffffffffffffffffffffff1673ffffffffffffffffffffffffffffffffffffffff1681526020019081526020016000206040518060800160405290816000820154815260200160018201548152602001600282015481526020016003820154815250509050919050565b60007f000000000000000000000000000000000000000000000000000000000000000073ffffffffffffffffffffffffffffffffffffffff168273ffffffffffffffffffffffffffffffffffffffff16141561400657670de0b6b3a76400009050614195565b600073ffffffffffffffffffffffffffffffffffffffff16600c60008473ffffffffffffffffffffffffffffffffffffffff1673ffffffffffffffffffffffffffffffffffffffff16815260200190815260200160002060009054906101000a900473ffffffffffffffffffffffffffffffffffffffff1673ffffffffffffffffffffffffffffffffffffffff1614156140aa57670de0b6b3a76400009050614195565b600c60008373ffffffffffffffffffffffffffffffffffffffff1673ffffffffffffffffffffffffffffffffffffffff16815260200190815260200160002060009054906101000a900473ffffffffffffffffffffffffffffffffffffffff1673ffffffffffffffffffffffffffffffffffffffff166337cef791836040518263ffffffff1660e01b815260040161414291906155ca565b60206040518083038186803b15801561415a57600080fd5b505afa15801561416e573d6000803e3d6000fd5b505050506040513d601f19601f8201168201806040525081019061419291906150d0565b90505b919050565b6060600980548060200260200160405190810160405280929190818152602001828054801561421e57602002820191906000526020600020905b8160009054906101000a900473ffffffffffffffffffffffffffffffffffffffff1673ffffffffffffffffffffffffffffffffffffffff16815260200190600101908083116141d4575b5050505050905090565b6142306146d1565b73ffffffffffffffffffffffffffffffffffffffff1660008054906101000a900473ffffffffffffffffffffffffffffffffffffffff1673ffffffffffffffffffffffffffffffffffffffff16146142f0576040517f08c379a00000000000000000000000000000000000000000000000000000000081526004018080602001828103825260208152602001807f4f776e61626c653a2063616c6c6572206973206e6f7420746865206f776e657281525060200191505060405180910390fd5b600073ffffffffffffffffffffffffffffffffffffffff168273ffffffffffffffffffffffffffffffffffffffff161415614360576040517f08c379a0000000000000000000000000000000000000000000000000000000008152600401614357906159b7565b60405180910390fd5b600073ffffffffffffffffffffffffffffffffffffffff168173ffffffffffffffffffffffffffffffffffffffff1614156143d0576040517f08c379a00000000000000000000000000000000000000000000000000000000081526004016143c7906159b7565b60405180910390fd5b81600460006101000a81548173ffffffffffffffffffffffffffffffffffffffff021916908373ffffffffffffffffffffffffffffffffffffffff16021790555080600560006101000a81548173ffffffffffffffffffffffffffffffffffffffff021916908373ffffffffffffffffffffffffffffffffffffffff1602179055505050565b600b6020528060005260406000206000915090508060000154908060010154905082565b600560009054906101000a900473ffffffffffffffffffffffffffffffffffffffff1681565b6144a86146d1565b73ffffffffffffffffffffffffffffffffffffffff1660008054906101000a900473ffffffffffffffffffffffffffffffffffffffff1673ffffffffffffffffffffffffffffffffffffffff1614614568576040517f08c379a00000000000000000000000000000000000000000000000000000000081526004018080602001828103825260208152602001807f4f776e61626c653a2063616c6c6572206973206e6f7420746865206f776e657281525060200191505060405180910390fd5b600073ffffffffffffffffffffffffffffffffffffffff168173ffffffffffffffffffffffffffffffffffffffff1614156145ee576040517f08c379a0000000000000000000000000000000000000000000000000000000008152600401808060200182810382526026815260200180615d6a6026913960400191505060405180910390fd5b8073ffffffffffffffffffffffffffffffffffffffff1660008054906101000a900473ffffffffffffffffffffffffffffffffffffffff1673ffffffffffffffffffffffffffffffffffffffff167f8be0079c531659141344cd1fd0a4f28419497f9722a3daafe3b4186f6b6457e060405160405180910390a3806000806101000a81548173ffffffffffffffffffffffffffffffffffffffff021916908373ffffffffffffffffffffffffffffffffffffffff16021790555050565b600360009054906101000a900473ffffffffffffffffffffffffffffffffffffffff1681565b600033905090565b6000600460009054906101000a900473ffffffffffffffffffffffffffffffffffffffff16905090565b6000808314156147165760009050614783565b600082840290508284828161472757fe5b041461477e576040517f08c379a0000000000000000000000000000000000000000000000000000000008152600401808060200182810382526021815260200180615db16021913960400191505060405180910390fd5b809150505b92915050565b60006147cb83836040518060400160405280601a81526020017f536166654d6174683a206469766973696f6e206279207a65726f000000000000815250614b4e565b905092915050565b600080828401905083811015614851576040517f08c379a000000000000000000000000000000000000000000000000000000000815260040180806020018281038252601b8152602001807f536166654d6174683a206164646974696f6e206f766572666c6f77000000000081525060200191505060405180910390fd5b8091505092915050565b6000600560009054906101000a900473ffffffffffffffffffffffffffffffffffffffff16905090565b60006148c783836040518060400160405280601e81526020017f536166654d6174683a207375627472616374696f6e206f766572666c6f770000815250614c14565b905092915050565b6000806148db83613fa0565b905060006148e76146d9565b73ffffffffffffffffffffffffffffffffffffffff1663e75fd0b56040518163ffffffff1660e01b815260040160206040518083038186803b15801561492c57600080fd5b505afa158015614940573d6000803e3d6000fd5b505050506040513d601f19601f8201168201806040525081019061496491906150d0565b90506149b9670de0b6b3a76400006149ab8461499d6103e861498f878c61470390919063ffffffff16565b61478990919063ffffffff16565b61470390919063ffffffff16565b61478990919063ffffffff16565b92506000614b43614aa36064614a95670de0b6b3a7640000614a876149dc61485b565b73ffffffffffffffffffffffffffffffffffffffff1663159a0629338d6040518363ffffffff1660e01b8152600401614a1692919061561b565b60206040518083038186803b158015614a2e57600080fd5b505afa158015614a42573d6000803e3d6000fd5b505050506040513d601f19601f82011682018060405250810190614a6691906150d0565b614a798d8b61470390919063ffffffff16565b61470390919063ffffffff16565b61478990919063ffffffff16565b61478990919063ffffffff16565b614aab61485b565b73ffffffffffffffffffffffffffffffffffffffff1663e76ab23933896040518363ffffffff1660e01b8152600401614ae592919061561b565b60206040518083038186803b158015614afd57600080fd5b505afa158015614b11573d6000803e3d6000fd5b505050506040513d601f19601f82011682018060405250810190614b3591906150d0565b6147d390919063ffffffff16565b905050505092915050565b60008083118290614bfa576040517f08c379a00000000000000000000000000000000000000000000000000000000081526004018080602001828103825283818151815260200191508051906020019080838360005b83811015614bbf578082015181840152602081019050614ba4565b50505050905090810190601f168015614bec5780820380516001836020036101000a031916815260200191505b509250505060405180910390fd5b506000838581614c0657fe5b049050809150509392505050565b6000838311158290614cc1576040517f08c379a00000000000000000000000000000000000000000000000000000000081526004018080602001828103825283818151815260200191508051906020019080838360005b83811015614c86578082015181840152602081019050614c6b565b50505050905090810190601f168015614cb35780820380516001836020036101000a031916815260200191505b509250505060405180910390fd5b5060008385039050809150509392505050565b604051806040016040528060008152602001600081525090565b6040518060800160405280600081526020016000815260200160008152602001600081525090565b6000614d29614d2484615b7e565b615b4d565b90508083825260208201905082856020860282011115614d4857600080fd5b60005b85811015614d785781614d5e8882614e03565b845260208401935060208301925050600181019050614d4b565b5050509392505050565b6000614d95614d9084615baa565b615b4d565b90508083825260208201905082856020860282011115614db457600080fd5b60005b85811015614de45781614dca8882614e96565b845260208401935060208301925050600181019050614db7565b5050509392505050565b600081359050614dfd81615d24565b92915050565b600081519050614e1281615d24565b92915050565b600082601f830112614e2957600080fd5b8151614e39848260208601614d16565b91505092915050565b600082601f830112614e5357600080fd5b8151614e63848260208601614d82565b91505092915050565b600081519050614e7b81615d3b565b92915050565b600081359050614e9081615d52565b92915050565b600081519050614ea581615d52565b92915050565b600060208284031215614ebd57600080fd5b6000614ecb84828501614dee565b91505092915050565b600060208284031215614ee657600080fd5b6000614ef484828501614e03565b91505092915050565b60008060408385031215614f1057600080fd5b6000614f1e85828601614dee565b9250506020614f2f85828601614dee565b9150509250929050565b600080600060608486031215614f4e57600080fd5b6000614f5c86828701614dee565b9350506020614f6d86828701614e81565b9250506040614f7e86828701614e81565b9150509250925092565b600080600080600060a08688031215614fa057600080fd5b6000614fae88828901614dee565b9550506020614fbf88828901614e81565b9450506040614fd088828901614e81565b9350506060614fe188828901614e81565b9250506080614ff288828901614e81565b9150509295509295909350565b60008060006060848603121561501457600080fd5b600084015167ffffffffffffffff81111561502e57600080fd5b61503a86828701614e18565b935050602084015167ffffffffffffffff81111561505757600080fd5b61506386828701614e42565b925050604061507486828701614e6c565b9150509250925092565b60006020828403121561509057600080fd5b600061509e84828501614e6c565b91505092915050565b6000602082840312156150b957600080fd5b60006150c784828501614e81565b91505092915050565b6000602082840312156150e257600080fd5b60006150f084828501614e96565b91505092915050565b600080600080600060a0868803121561511157600080fd5b600061511f88828901614e81565b955050602061513088828901614dee565b945050604061514188828901614dee565b935050606061515288828901614dee565b925050608061516388828901614e81565b9150509295509295909350565b6000806000806080858703121561518657600080fd5b600061519487828801614e81565b94505060206151a587828801614dee565b93505060406151b687828801614dee565b92505060606151c787828801614e81565b91505092959194509250565b6000806000606084860312156151e857600080fd5b60006151f686828701614e81565b935050602061520786828701614dee565b925050604061521886828701614e81565b9150509250925092565b600061522e8383615270565b60208301905092915050565b600061524683836155ac565b60208301905092915050565b61525b81615cc6565b82525050565b61526a81615c6b565b82525050565b61527981615c59565b82525050565b61528881615c59565b82525050565b600061529982615bf6565b6152a38185615c26565b93506152ae83615bd6565b8060005b838110156152df5781516152c68882615222565b97506152d183615c0c565b9250506001810190506152b2565b5085935050505092915050565b60006152f782615c01565b6153018185615c37565b935061530c83615be6565b8060005b8381101561533d578151615324888261523a565b975061532f83615c19565b925050600181019050615310565b5085935050505092915050565b61535381615c7d565b82525050565b61536281615cd8565b82525050565b6000615375600283615c48565b91507f49430000000000000000000000000000000000000000000000000000000000006000830152602082019050919050565b60006153b5600283615c48565b91507f57450000000000000000000000000000000000000000000000000000000000006000830152602082019050919050565b60006153f5600283615c48565b91507f495a0000000000000000000000000000000000000000000000000000000000006000830152602082019050919050565b6000615435600283615c48565b91507f49460000000000000000000000000000000000000000000000000000000000006000830152602082019050919050565b6000615475600283615c48565b91507f43520000000000000000000000000000000000000000000000000000000000006000830152602082019050919050565b60006154b5600283615c48565b91507f49410000000000000000000000000000000000000000000000000000000000006000830152602082019050919050565b60006154f5600283615c48565b91507f43410000000000000000000000000000000000000000000000000000000000006000830152602082019050919050565b60808201600082015161553e60008501826155ac565b50602082015161555160208501826155ac565b50604082015161556460408501826155ac565b50606082015161557760608501826155ac565b50505050565b60408201600082015161559360008501826155ac565b5060208201516155a660208501826155ac565b50505050565b6155b581615cbc565b82525050565b6155c481615cbc565b82525050565b60006020820190506155df600083018461527f565b92915050565b60006020820190506155fa6000830184615252565b92915050565b60006020820190506156156000830184615261565b92915050565b60006040820190506156306000830185615252565b61563d602083018461527f565b9392505050565b60006060820190506156596000830186615252565b615666602083018561527f565b615673604083018461527f565b949350505050565b600060a0820190506156906000830188615252565b61569d602083018761527f565b6156aa604083018661527f565b6156b760608301856155bb565b6156c4608083018461527f565b9695505050505050565b60006040820190506156e36000830185615252565b6156f060208301846155bb565b9392505050565b600060808201905061570c6000830187615252565b61571960208301866155bb565b615726604083018561527f565b615733606083018461527f565b95945050505050565b60006080820190506157516000830187615252565b61575e60208301866155bb565b61576b604083018561527f565b615778606083018461534a565b95945050505050565b6000604082019050615796600083018561527f565b6157a3602083018461527f565b9392505050565b600060a0820190506157bf600083018861527f565b6157cc602083018761527f565b6157d96040830186615252565b6157e660608301856155bb565b6157f3608083018461527f565b9695505050505050565b6000606082019050615812600083018661527f565b61581f602083018561527f565b61582c6040830184615359565b949350505050565b6000606082019050615849600083018661527f565b615856602083018561527f565b61586360408301846155bb565b949350505050565b600060a082019050615880600083018861527f565b61588d602083018761527f565b61589a60408301866155bb565b81810360608301526158ac81856152ec565b905081810360808301526158c0818461528e565b90509695505050505050565b60006040820190506158e1600083018561527f565b6158ee60208301846155bb565b9392505050565b600060808201905061590a600083018761527f565b61591760208301866155bb565b615924604083018561527f565b615931606083018461534a565b95945050505050565b60006020820190508181036000830152615954818461528e565b905092915050565b6000602082019050615971600083018461534a565b92915050565b6000602082019050818103600083015261599081615368565b9050919050565b600060208201905081810360008301526159b0816153a8565b9050919050565b600060208201905081810360008301526159d0816153e8565b9050919050565b600060208201905081810360008301526159f081615428565b9050919050565b60006020820190508181036000830152615a1081615468565b9050919050565b60006020820190508181036000830152615a30816154a8565b9050919050565b60006020820190508181036000830152615a50816154e8565b9050919050565b6000608082019050615a6c6000830184615528565b92915050565b6000604082019050615a87600083018461557d565b92915050565b6000602082019050615aa260008301846155bb565b92915050565b6000604082019050615abd60008301856155bb565b615aca60208301846155bb565b9392505050565b6000606082019050615ae660008301866155bb565b615af360208301856155bb565b615b0060408301846155bb565b949350505050565b6000608082019050615b1d60008301876155bb565b615b2a60208301866155bb565b615b3760408301856155bb565b615b4460608301846155bb565b95945050505050565b6000604051905081810181811067ffffffffffffffff82111715615b7457615b73615d0e565b5b8060405250919050565b600067ffffffffffffffff821115615b9957615b98615d0e565b5b602082029050602081019050919050565b600067ffffffffffffffff821115615bc557615bc4615d0e565b5b602082029050602081019050919050565b6000819050602082019050919050565b6000819050602082019050919050565b600081519050919050565b600081519050919050565b6000602082019050919050565b6000602082019050919050565b600082825260208201905092915050565b600082825260208201905092915050565b600082825260208201905092915050565b6000615c6482615c9c565b9050919050565b6000615c7682615c9c565b9050919050565b60008115159050919050565b6000819050615c9782615d10565b919050565b600073ffffffffffffffffffffffffffffffffffffffff82169050919050565b6000819050919050565b6000615cd182615cea565b9050919050565b6000615ce382615c89565b9050919050565b6000615cf582615cfc565b9050919050565b6000615d0782615c9c565b9050919050565bfe5b60038110615d2157615d20615d0e565b5b50565b615d2d81615c59565b8114615d3857600080fd5b50565b615d4481615c7d565b8114615d4f57600080fd5b50565b615d5b81615cbc565b8114615d6657600080fd5b5056fe4f776e61626c653a206e6577206f776e657220697320746865207a65726f20616464726573735472616e73616374696f6e2068617320657863656564656420646561646c696e65536166654d6174683a206d756c7469706c69636174696f6e206f766572666c6f77a26469706673582212207501850a6e0cf8483bf632b33205e98ac1ba2211f7c72879251faee6d5541fa564736f6c63430007060033",
  "linkReferences": {},
  "deployedLinkReferences": {}
}