{
  "_format": "hh-sol-artifact-1",
  "contractName": "Comptroller",
  "sourceName": "contracts/Bank/Comptroller.sol",
  "abi": [
    {
      "anonymous": false,
      "inputs": [
        {
          "indexed": false,
          "internalType": "address",
          "name": "previousAdmin",
          "type": "address"
        },
        {
          "indexed": false,
          "internalType": "address",
          "name": "newAdmin",
          "type": "address"
        }
      ],
      "name": "AdminChanged",
      "type": "event"
    },
    {
      "anonymous": false,
      "inputs": [
        {
          "indexed": true,
          "internalType": "address",
          "name": "beacon",
          "type": "address"
        }
      ],
      "name": "BeaconUpgraded",
      "type": "event"
    },
    {
      "anonymous": false,
      "inputs": [
        {
          "indexed": false,
          "internalType": "uint256",
          "name": "amountBurned",
          "type": "uint256"
        },
        {
          "indexed": true,
          "internalType": "address",
          "name": "token",
          "type": "address"
        }
      ],
      "name": "BurnToken",
      "type": "event"
    },
    {
      "anonymous": false,
      "inputs": [
        {
          "indexed": false,
          "internalType": "uint256",
          "name": "tokenRate",
          "type": "uint256"
        },
        {
          "indexed": false,
          "internalType": "uint256",
          "name": "amountMinted",
          "type": "uint256"
        },
        {
          "indexed": true,
          "internalType": "address",
          "name": "token",
          "type": "address"
        }
      ],
      "name": "MintToken",
      "type": "event"
    },
    {
      "anonymous": false,
      "inputs": [
        {
          "indexed": true,
          "internalType": "address",
          "name": "previousOwner",
          "type": "address"
        },
        {
          "indexed": true,
          "internalType": "address",
          "name": "newOwner",
          "type": "address"
        }
      ],
      "name": "OwnershipTransferred",
      "type": "event"
    },
    {
      "anonymous": false,
      "inputs": [
        {
          "indexed": true,
          "internalType": "address",
          "name": "implementation",
          "type": "address"
        }
      ],
      "name": "Upgraded",
      "type": "event"
    },
    {
      "inputs": [
        {
          "internalType": "uint256",
          "name": "amount",
          "type": "uint256"
        },
        {
          "internalType": "address",
          "name": "token",
          "type": "address"
        },
        {
          "internalType": "uint256",
          "name": "deadline",
          "type": "uint256"
        }
      ],
      "name": "burn",
      "outputs": [],
      "stateMutability": "nonpayable",
      "type": "function"
    },
    {
      "inputs": [],
      "name": "handle",
      "outputs": [
        {
          "internalType": "contract IHandle",
          "name": "",
          "type": "address"
        }
      ],
      "stateMutability": "view",
      "type": "function"
    },
    {
      "inputs": [],
      "name": "handleAddress",
      "outputs": [
        {
          "internalType": "address",
          "name": "",
          "type": "address"
        }
      ],
      "stateMutability": "view",
      "type": "function"
    },
    {
      "inputs": [],
      "name": "initialize",
      "outputs": [],
      "stateMutability": "nonpayable",
      "type": "function"
    },
    {
      "inputs": [
        {
          "internalType": "uint256",
          "name": "tokenAmount",
          "type": "uint256"
        },
        {
          "internalType": "address",
          "name": "token",
          "type": "address"
        },
        {
          "internalType": "address",
          "name": "collateralToken",
          "type": "address"
        },
        {
          "internalType": "uint256",
          "name": "collateralAmount",
          "type": "uint256"
        },
        {
          "internalType": "uint256",
          "name": "deadline",
          "type": "uint256"
        }
      ],
      "name": "mint",
      "outputs": [],
      "stateMutability": "nonpayable",
      "type": "function"
    },
    {
      "inputs": [
        {
          "internalType": "uint256",
          "name": "tokenAmount",
          "type": "uint256"
        },
        {
          "internalType": "address",
          "name": "token",
          "type": "address"
        },
        {
          "internalType": "uint256",
          "name": "deadline",
          "type": "uint256"
        }
      ],
      "name": "mintWithEth",
      "outputs": [],
      "stateMutability": "payable",
      "type": "function"
    },
    {
      "inputs": [
        {
          "internalType": "uint256",
          "name": "tokenAmount",
          "type": "uint256"
        },
        {
          "internalType": "address",
          "name": "token",
          "type": "address"
        },
        {
          "internalType": "uint256",
          "name": "deadline",
          "type": "uint256"
        }
      ],
      "name": "mintWithoutCollateral",
      "outputs": [],
      "stateMutability": "nonpayable",
      "type": "function"
    },
    {
      "inputs": [],
      "name": "owner",
      "outputs": [
        {
          "internalType": "address",
          "name": "",
          "type": "address"
        }
      ],
      "stateMutability": "view",
      "type": "function"
    },
    {
      "inputs": [],
      "name": "renounceOwnership",
      "outputs": [],
      "stateMutability": "nonpayable",
      "type": "function"
    },
    {
      "inputs": [
        {
          "internalType": "address",
          "name": "_handle",
          "type": "address"
        }
      ],
      "name": "setHandleContract",
      "outputs": [],
      "stateMutability": "nonpayable",
      "type": "function"
    },
    {
      "inputs": [
        {
          "internalType": "address",
          "name": "newOwner",
          "type": "address"
        }
      ],
      "name": "transferOwnership",
      "outputs": [],
      "stateMutability": "nonpayable",
      "type": "function"
    },
    {
      "inputs": [
        {
          "internalType": "address",
          "name": "newImplementation",
          "type": "address"
        }
      ],
      "name": "upgradeTo",
      "outputs": [],
      "stateMutability": "nonpayable",
      "type": "function"
    },
    {
      "inputs": [
        {
          "internalType": "address",
          "name": "newImplementation",
          "type": "address"
        },
        {
          "internalType": "bytes",
          "name": "data",
          "type": "bytes"
        }
      ],
      "name": "upgradeToAndCall",
      "outputs": [],
      "stateMutability": "payable",
      "type": "function"
    },
    {
      "stateMutability": "payable",
      "type": "receive"
    }
  ],
  "bytecode": "0x608060405234801561001057600080fd5b50614beb806100206000396000f3fe6080604052600436106100c65760003560e01c80638129fc1c1161007f5780639eea5f66116100595780639eea5f661461028d578063e6e01b3f146102b6578063f2fde38b146102df578063fd0da0991461030857610151565b80638129fc1c146102225780638da5cb5b146102395780639b1c414f1461026457610151565b80633659cfe6146101565780634cf41b911461017f5780634f1ef286146101a8578063538d22bc146101c4578063715018a6146101e057806374bf578b146101f757610151565b366101515760fe60009054906101000a900473ffffffffffffffffffffffffffffffffffffffff1673ffffffffffffffffffffffffffffffffffffffff163373ffffffffffffffffffffffffffffffffffffffff161461014f577f4e487b7100000000000000000000000000000000000000000000000000000000600052600160045260246000fd5b005b600080fd5b34801561016257600080fd5b5061017d60048036038101906101789190613b38565b610333565b005b34801561018b57600080fd5b506101a660048036038101906101a19190613d3c565b61035a565b005b6101c260048036038101906101bd9190613bb3565b610872565b005b6101de60048036038101906101d99190613d3c565b61088b565b005b3480156101ec57600080fd5b506101f5610bd4565b005b34801561020357600080fd5b5061020c610d11565b6040516102199190614032565b60405180910390f35b34801561022e57600080fd5b50610237610d3b565b005b34801561024557600080fd5b5061024e610e2c565b60405161025b9190614032565b60405180910390f35b34801561027057600080fd5b5061028b60048036038101906102869190613b38565b610e56565b005b34801561029957600080fd5b506102b460048036038101906102af9190613d3c565b6111b6565b005b3480156102c257600080fd5b506102dd60048036038101906102d89190613cc5565b611c95565b005b3480156102eb57600080fd5b5061030660048036038101906103019190613b38565b611efb565b005b34801561031457600080fd5b5061031d6120a7565b60405161032a9190614214565b60405180910390f35b61033c816120cd565b6103578160405180602001604052806000815250600061214c565b50565b808042111561039e576040517f08c379a0000000000000000000000000000000000000000000000000000000008152600401610395906142d1565b60405180910390fd5b8260fb60009054906101000a900473ffffffffffffffffffffffffffffffffffffffff1673ffffffffffffffffffffffffffffffffffffffff1663a0f026ff826040518263ffffffff1660e01b81526004016103fa9190614032565b60206040518083038186803b15801561041257600080fd5b505afa158015610426573d6000803e3d6000fd5b505050506040513d601f19601f8201168201806040525081019061044a9190613c73565b610489576040517f08c379a0000000000000000000000000000000000000000000000000000000008152600401610480906142f1565b60405180910390fd5b60006105516103e861054360fb60009054906101000a900473ffffffffffffffffffffffffffffffffffffffff1673ffffffffffffffffffffffffffffffffffffffff16639931286d6040518163ffffffff1660e01b815260040160206040518083038186803b1580156104fc57600080fd5b505afa158015610510573d6000803e3d6000fd5b505050506040513d601f19601f820116820180604052508101906105349190613c9c565b8961236090919063ffffffff16565b61237690919063ffffffff16565b9050600060fb60009054906101000a900473ffffffffffffffffffffffffffffffffffffffff1673ffffffffffffffffffffffffffffffffffffffff1663d02641a0876040518263ffffffff1660e01b81526004016105b09190614032565b60206040518083038186803b1580156105c857600080fd5b505afa1580156105dc573d6000803e3d6000fd5b505050506040513d601f19601f820116820180604052508101906106009190613c9c565b905060fd60009054906101000a900473ffffffffffffffffffffffffffffffffffffffff1673ffffffffffffffffffffffffffffffffffffffff16639e718d07610653848a61238c90919063ffffffff16565b60fd60009054906101000a900473ffffffffffffffffffffffffffffffffffffffff1673ffffffffffffffffffffffffffffffffffffffff1663bcbe3f22338b6040518363ffffffff1660e01b81526004016106b092919061404d565b60206040518083038186803b1580156106c857600080fd5b505afa1580156106dc573d6000803e3d6000fd5b505050506040513d601f19601f820116820180604052508101906107009190613c9c565b846040518463ffffffff1660e01b815260040161071f93929190614455565b60206040518083038186803b15801561073757600080fd5b505afa15801561074b573d6000803e3d6000fd5b505050506040513d601f19601f8201168201806040525081019061076f9190613c9c565b60fd60009054906101000a900473ffffffffffffffffffffffffffffffffffffffff1673ffffffffffffffffffffffffffffffffffffffff1663e76ab23933896040518363ffffffff1660e01b81526004016107cc92919061404d565b60206040518083038186803b1580156107e457600080fd5b505afa1580156107f8573d6000803e3d6000fd5b505050506040513d601f19601f8201168201806040525081019061081c9190613c9c565b101561085d576040517f08c379a000000000000000000000000000000000000000000000000000000000815260040161085490614311565b60405180910390fd5b610869878783856123a2565b50505050505050565b61087b826120cd565b6108878282600161214c565b5050565b80804211156108cf576040517f08c379a00000000000000000000000000000000000000000000000000000000081526004016108c6906142d1565b60405180910390fd5b8260fb60009054906101000a900473ffffffffffffffffffffffffffffffffffffffff1673ffffffffffffffffffffffffffffffffffffffff1663a0f026ff826040518263ffffffff1660e01b815260040161092b9190614032565b60206040518083038186803b15801561094357600080fd5b505afa158015610957573d6000803e3d6000fd5b505050506040513d601f19601f8201168201806040525081019061097b9190613c73565b6109ba576040517f08c379a00000000000000000000000000000000000000000000000000000000081526004016109b1906142f1565b60405180910390fd5b600260c9541415610a00576040517f08c379a00000000000000000000000000000000000000000000000000000000081526004016109f7906143f1565b60405180910390fd5b600260c98190555060fb60009054906101000a900473ffffffffffffffffffffffffffffffffffffffff1673ffffffffffffffffffffffffffffffffffffffff1663803c97b360fe60009054906101000a900473ffffffffffffffffffffffffffffffffffffffff166040518263ffffffff1660e01b8152600401610a859190614032565b60206040518083038186803b158015610a9d57600080fd5b505afa158015610ab1573d6000803e3d6000fd5b505050506040513d601f19601f82011682018060405250810190610ad59190613c73565b610b14576040517f08c379a0000000000000000000000000000000000000000000000000000000008152600401610b0b906142b1565b60405180910390fd5b60fe60009054906101000a900473ffffffffffffffffffffffffffffffffffffffff1673ffffffffffffffffffffffffffffffffffffffff1663d0e30db0346040518263ffffffff1660e01b81526004016000604051808303818588803b158015610b7e57600080fd5b505af1158015610b92573d6000803e3d6000fd5b5050505050610bc5858560fe60009054906101000a900473ffffffffffffffffffffffffffffffffffffffff163461293f565b600160c9819055505050505050565b610bdc612ee5565b73ffffffffffffffffffffffffffffffffffffffff16610bfa610e2c565b73ffffffffffffffffffffffffffffffffffffffff1614610c50576040517f08c379a0000000000000000000000000000000000000000000000000000000008152600401610c4790614391565b60405180910390fd5b600073ffffffffffffffffffffffffffffffffffffffff16609760009054906101000a900473ffffffffffffffffffffffffffffffffffffffff1673ffffffffffffffffffffffffffffffffffffffff167f8be0079c531659141344cd1fd0a4f28419497f9722a3daafe3b4186f6b6457e060405160405180910390a36000609760006101000a81548173ffffffffffffffffffffffffffffffffffffffff021916908373ffffffffffffffffffffffffffffffffffffffff160217905550565b600060fb60009054906101000a900473ffffffffffffffffffffffffffffffffffffffff16905090565b600060019054906101000a900460ff1680610d61575060008054906101000a900460ff16155b610da0576040517f08c379a0000000000000000000000000000000000000000000000000000000008152600401610d9790614331565b60405180910390fd5b60008060019054906101000a900460ff161590508015610df0576001600060016101000a81548160ff02191690831515021790555060016000806101000a81548160ff0219169083151502179055505b610df8612eed565b610e00612fd6565b610e086130bf565b8015610e295760008060016101000a81548160ff0219169083151502179055505b50565b6000609760009054906101000a900473ffffffffffffffffffffffffffffffffffffffff16905090565b610e5e612ee5565b73ffffffffffffffffffffffffffffffffffffffff16610e7c610e2c565b73ffffffffffffffffffffffffffffffffffffffff1614610ed2576040517f08c379a0000000000000000000000000000000000000000000000000000000008152600401610ec990614391565b60405180910390fd5b8060fb60006101000a81548173ffffffffffffffffffffffffffffffffffffffff021916908373ffffffffffffffffffffffffffffffffffffffff16021790555060fb60009054906101000a900473ffffffffffffffffffffffffffffffffffffffff1673ffffffffffffffffffffffffffffffffffffffff166361d027b36040518163ffffffff1660e01b815260040160206040518083038186803b158015610f7b57600080fd5b505afa158015610f8f573d6000803e3d6000fd5b505050506040513d601f19601f82011682018060405250810190610fb39190613b8a565b60fc60006101000a81548173ffffffffffffffffffffffffffffffffffffffff021916908373ffffffffffffffffffffffffffffffffffffffff16021790555060fb60009054906101000a900473ffffffffffffffffffffffffffffffffffffffff1673ffffffffffffffffffffffffffffffffffffffff1663eb0a8b916040518163ffffffff1660e01b815260040160206040518083038186803b15801561105b57600080fd5b505afa15801561106f573d6000803e3d6000fd5b505050506040513d601f19601f820116820180604052508101906110939190613b61565b60fd60006101000a81548173ffffffffffffffffffffffffffffffffffffffff021916908373ffffffffffffffffffffffffffffffffffffffff16021790555060fb60009054906101000a900473ffffffffffffffffffffffffffffffffffffffff1673ffffffffffffffffffffffffffffffffffffffff1663ad5c46486040518163ffffffff1660e01b815260040160206040518083038186803b15801561113b57600080fd5b505afa15801561114f573d6000803e3d6000fd5b505050506040513d601f19601f820116820180604052508101906111739190613b61565b60fe60006101000a81548173ffffffffffffffffffffffffffffffffffffffff021916908373ffffffffffffffffffffffffffffffffffffffff16021790555050565b80804211156111fa576040517f08c379a00000000000000000000000000000000000000000000000000000000081526004016111f1906142d1565b60405180910390fd5b8260fb60009054906101000a900473ffffffffffffffffffffffffffffffffffffffff1673ffffffffffffffffffffffffffffffffffffffff1663a0f026ff826040518263ffffffff1660e01b81526004016112569190614032565b60206040518083038186803b15801561126e57600080fd5b505afa158015611282573d6000803e3d6000fd5b505050506040513d601f19601f820116820180604052508101906112a69190613c73565b6112e5576040517f08c379a00000000000000000000000000000000000000000000000000000000081526004016112dc906142f1565b60405180910390fd5b848473ffffffffffffffffffffffffffffffffffffffff166370a08231336040518263ffffffff1660e01b815260040161131f9190614032565b60206040518083038186803b15801561133757600080fd5b505afa15801561134b573d6000803e3d6000fd5b505050506040513d601f19601f8201168201806040525081019061136f9190613c9c565b10156113b0576040517f08c379a00000000000000000000000000000000000000000000000000000000081526004016113a790614351565b60405180910390fd5b8460fb60009054906101000a900473ffffffffffffffffffffffffffffffffffffffff1673ffffffffffffffffffffffffffffffffffffffff1663498b5ae833876040518363ffffffff1660e01b815260040161140e92919061404d565b60206040518083038186803b15801561142657600080fd5b505afa15801561143a573d6000803e3d6000fd5b505050506040513d601f19601f8201168201806040525081019061145e9190613c9c565b101561149f576040517f08c379a000000000000000000000000000000000000000000000000000000000815260040161149690614351565b60405180910390fd5b60008473ffffffffffffffffffffffffffffffffffffffff166370a08231336040518263ffffffff1660e01b81526004016114da9190614032565b60206040518083038186803b1580156114f257600080fd5b505afa158015611506573d6000803e3d6000fd5b505050506040513d601f19601f8201168201806040525081019061152a9190613c9c565b9050600061176c60fd60009054906101000a900473ffffffffffffffffffffffffffffffffffffffff1673ffffffffffffffffffffffffffffffffffffffff166380ef72a9886040518263ffffffff1660e01b815260040161158c9190614032565b60206040518083038186803b1580156115a457600080fd5b505afa1580156115b8573d6000803e3d6000fd5b505050506040513d601f19601f820116820180604052508101906115dc9190613c9c565b61175e60fb60009054906101000a900473ffffffffffffffffffffffffffffffffffffffff1673ffffffffffffffffffffffffffffffffffffffff1663d02641a08a6040518263ffffffff1660e01b815260040161163a9190614032565b60206040518083038186803b15801561165257600080fd5b505afa158015611666573d6000803e3d6000fd5b505050506040513d601f19601f8201168201806040525081019061168a9190613c9c565b6117506103e861174260fb60009054906101000a900473ffffffffffffffffffffffffffffffffffffffff1673ffffffffffffffffffffffffffffffffffffffff1663e75fd0b56040518163ffffffff1660e01b815260040160206040518083038186803b1580156116fb57600080fd5b505afa15801561170f573d6000803e3d6000fd5b505050506040513d601f19601f820116820180604052508101906117339190613c9c565b8e61236090919063ffffffff16565b61237690919063ffffffff16565b61236090919063ffffffff16565b61237690919063ffffffff16565b905060fc60009054906101000a900473ffffffffffffffffffffffffffffffffffffffff1673ffffffffffffffffffffffffffffffffffffffff1663337b219a3360fb60009054906101000a900473ffffffffffffffffffffffffffffffffffffffff1673ffffffffffffffffffffffffffffffffffffffff1663ec94578e6040518163ffffffff1660e01b815260040160206040518083038186803b15801561181557600080fd5b505afa158015611829573d6000803e3d6000fd5b505050506040513d601f19601f8201168201806040525081019061184d9190613b61565b848a6040518563ffffffff1660e01b815260040161186e949392919061411c565b600060405180830381600087803b15801561188857600080fd5b505af115801561189c573d6000803e3d6000fd5b505050506040513d6000823e3d601f19601f820116820180604052508101906118c59190613c07565b50508573ffffffffffffffffffffffffffffffffffffffff16639dc29fac33896040518363ffffffff1660e01b8152600401611902929190614161565b600060405180830381600087803b15801561191c57600080fd5b505af1158015611930573d6000803e3d6000fd5b5050505061194787836131a090919063ffffffff16565b8673ffffffffffffffffffffffffffffffffffffffff166370a08231336040518263ffffffff1660e01b81526004016119809190614032565b60206040518083038186803b15801561199857600080fd5b505afa1580156119ac573d6000803e3d6000fd5b505050506040513d601f19601f820116820180604052508101906119d09190613c9c565b14611a04577f4e487b7100000000000000000000000000000000000000000000000000000000600052600160045260246000fd5b600060fb60009054906101000a900473ffffffffffffffffffffffffffffffffffffffff1673ffffffffffffffffffffffffffffffffffffffff1663498b5ae833896040518363ffffffff1660e01b8152600401611a6392919061404d565b60206040518083038186803b158015611a7b57600080fd5b505afa158015611a8f573d6000803e3d6000fd5b505050506040513d601f19601f82011682018060405250810190611ab39190613c9c565b905060fb60009054906101000a900473ffffffffffffffffffffffffffffffffffffffff1673ffffffffffffffffffffffffffffffffffffffff1663877034f1338a8a60006040518563ffffffff1660e01b8152600401611b1794939291906141cf565b600060405180830381600087803b158015611b3157600080fd5b505af1158015611b45573d6000803e3d6000fd5b50505050611b5c88826131a090919063ffffffff16565b60fb60009054906101000a900473ffffffffffffffffffffffffffffffffffffffff1673ffffffffffffffffffffffffffffffffffffffff1663498b5ae8338a6040518363ffffffff1660e01b8152600401611bb992919061404d565b60206040518083038186803b158015611bd157600080fd5b505afa158015611be5573d6000803e3d6000fd5b505050506040513d601f19601f82011682018060405250810190611c099190613c9c565b14611c3d577f4e487b7100000000000000000000000000000000000000000000000000000000600052600160045260246000fd5b8673ffffffffffffffffffffffffffffffffffffffff167f3dd579c60f3ada65727e8d87353e1499f8784809ec65347e9520ee2ea25d337889604051611c839190614411565b60405180910390a25050505050505050565b8080421115611cd9576040517f08c379a0000000000000000000000000000000000000000000000000000000008152600401611cd0906142d1565b60405180910390fd5b600260c9541415611d1f576040517f08c379a0000000000000000000000000000000000000000000000000000000008152600401611d16906143f1565b60405180910390fd5b600260c98190555060fb60009054906101000a900473ffffffffffffffffffffffffffffffffffffffff1673ffffffffffffffffffffffffffffffffffffffff1663803c97b3856040518263ffffffff1660e01b8152600401611d829190614032565b60206040518083038186803b158015611d9a57600080fd5b505afa158015611dae573d6000803e3d6000fd5b505050506040513d601f19601f82011682018060405250810190611dd29190613c73565b611e11576040517f08c379a0000000000000000000000000000000000000000000000000000000008152600401611e0890614251565b60405180910390fd5b8373ffffffffffffffffffffffffffffffffffffffff166323b872dd3330866040518463ffffffff1660e01b8152600401611e4e939291906140e5565b602060405180830381600087803b158015611e6857600080fd5b505af1158015611e7c573d6000803e3d6000fd5b505050506040513d601f19601f82011682018060405250810190611ea09190613c73565b611edf576040517f08c379a0000000000000000000000000000000000000000000000000000000008152600401611ed6906143b1565b60405180910390fd5b611eeb8686868661293f565b600160c981905550505050505050565b611f03612ee5565b73ffffffffffffffffffffffffffffffffffffffff16611f21610e2c565b73ffffffffffffffffffffffffffffffffffffffff1614611f77576040517f08c379a0000000000000000000000000000000000000000000000000000000008152600401611f6e90614391565b60405180910390fd5b600073ffffffffffffffffffffffffffffffffffffffff168173ffffffffffffffffffffffffffffffffffffffff161415611fe7576040517f08c379a0000000000000000000000000000000000000000000000000000000008152600401611fde90614291565b60405180910390fd5b8073ffffffffffffffffffffffffffffffffffffffff16609760009054906101000a900473ffffffffffffffffffffffffffffffffffffffff1673ffffffffffffffffffffffffffffffffffffffff167f8be0079c531659141344cd1fd0a4f28419497f9722a3daafe3b4186f6b6457e060405160405180910390a380609760006101000a81548173ffffffffffffffffffffffffffffffffffffffff021916908373ffffffffffffffffffffffffffffffffffffffff16021790555050565b60fb60009054906101000a900473ffffffffffffffffffffffffffffffffffffffff1681565b6120d5612ee5565b73ffffffffffffffffffffffffffffffffffffffff166120f3610e2c565b73ffffffffffffffffffffffffffffffffffffffff1614612149576040517f08c379a000000000000000000000000000000000000000000000000000000000815260040161214090614391565b60405180910390fd5b50565b60006121566131b6565b90506121618461320d565b60008351118061216e5750815b1561217f5761217d84846132c6565b505b60006121ad7f4910fdfa16fed3260ed0e7147f7cc6da11a60208b5b9406d12a635614ffd914360001b6133aa565b90508060000160009054906101000a900460ff166123595760018160000160006101000a81548160ff02191690831515021790555061227985836040516024016121f79190614032565b6040516020818303038152906040527f3659cfe6000000000000000000000000000000000000000000000000000000007bffffffffffffffffffffffffffffffffffffffffffffffffffffffff19166020820180517bffffffffffffffffffffffffffffffffffffffffffffffffffffffff83818316178352505050506132c6565b5060008160000160006101000a81548160ff02191690831515021790555061229f6131b6565b73ffffffffffffffffffffffffffffffffffffffff168273ffffffffffffffffffffffffffffffffffffffff161461230c576040517f08c379a000000000000000000000000000000000000000000000000000000000815260040161230390614271565b60405180910390fd5b6123158561320d565b8473ffffffffffffffffffffffffffffffffffffffff167fbc7cd75a20ee27fd9adebab32041f755214dbc6bffa90cc0225b39da2e5c2d3b60405160405180910390a25b5050505050565b6000818361236e91906145f3565b905092915050565b6000818361238491906145c2565b905092915050565b6000818361239a919061456c565b905092915050565b60008373ffffffffffffffffffffffffffffffffffffffff166370a08231336040518263ffffffff1660e01b81526004016123dd9190614032565b60206040518083038186803b1580156123f557600080fd5b505afa158015612409573d6000803e3d6000fd5b505050506040513d601f19601f8201168201806040525081019061242d9190613c9c565b90508373ffffffffffffffffffffffffffffffffffffffff166340c10f1933876040518363ffffffff1660e01b815260040161246a929190614161565b600060405180830381600087803b15801561248457600080fd5b505af1158015612498573d6000803e3d6000fd5b505050508373ffffffffffffffffffffffffffffffffffffffff166340c10f1960fb60009054906101000a900473ffffffffffffffffffffffffffffffffffffffff1673ffffffffffffffffffffffffffffffffffffffff1663ec94578e6040518163ffffffff1660e01b815260040160206040518083038186803b15801561252057600080fd5b505afa158015612534573d6000803e3d6000fd5b505050506040513d601f19601f820116820180604052508101906125589190613b61565b846040518363ffffffff1660e01b8152600401612576929190614161565b600060405180830381600087803b15801561259057600080fd5b505af11580156125a4573d6000803e3d6000fd5b505050506125bb858261238c90919063ffffffff16565b8473ffffffffffffffffffffffffffffffffffffffff166370a08231336040518263ffffffff1660e01b81526004016125f49190614032565b60206040518083038186803b15801561260c57600080fd5b505afa158015612620573d6000803e3d6000fd5b505050506040513d601f19601f820116820180604052508101906126449190613c9c565b14612678577f4e487b7100000000000000000000000000000000000000000000000000000000600052600160045260246000fd5b600060fb60009054906101000a900473ffffffffffffffffffffffffffffffffffffffff1673ffffffffffffffffffffffffffffffffffffffff1663498b5ae833876040518363ffffffff1660e01b81526004016126d792919061404d565b60206040518083038186803b1580156126ef57600080fd5b505afa158015612703573d6000803e3d6000fd5b505050506040513d601f19601f820116820180604052508101906127279190613c9c565b905060fb60009054906101000a900473ffffffffffffffffffffffffffffffffffffffff1673ffffffffffffffffffffffffffffffffffffffff1663877034f13361277b868a61238c90919063ffffffff16565b8860016040518563ffffffff1660e01b815260040161279d94939291906141cf565b600060405180830381600087803b1580156127b757600080fd5b505af11580156127cb573d6000803e3d6000fd5b5050505060fb60009054906101000a900473ffffffffffffffffffffffffffffffffffffffff1673ffffffffffffffffffffffffffffffffffffffff1663498b5ae833876040518363ffffffff1660e01b815260040161282c92919061404d565b60206040518083038186803b15801561284457600080fd5b505afa158015612858573d6000803e3d6000fd5b505050506040513d601f19601f8201168201806040525081019061287c9190613c9c565b6128a184612893898561238c90919063ffffffff16565b61238c90919063ffffffff16565b146128d5577f4e487b7100000000000000000000000000000000000000000000000000000000600052600160045260246000fd5b8473ffffffffffffffffffffffffffffffffffffffff167fb4a4751ef6a44118d02c7f8772a09a847f35ae4293a6c73ffc21039b8063568285612921868a61238c90919063ffffffff16565b60405161292f92919061442c565b60405180910390a2505050505050565b8173ffffffffffffffffffffffffffffffffffffffff1663095ea7b360fc60009054906101000a900473ffffffffffffffffffffffffffffffffffffffff16836040518363ffffffff1660e01b815260040161299c929190614161565b602060405180830381600087803b1580156129b657600080fd5b505af11580156129ca573d6000803e3d6000fd5b505050506040513d601f19601f820116820180604052508101906129ee9190613c73565b612a21577f4e487b7100000000000000000000000000000000000000000000000000000000600052600160045260246000fd5b6000612ae96103e8612adb60fb60009054906101000a900473ffffffffffffffffffffffffffffffffffffffff1673ffffffffffffffffffffffffffffffffffffffff16639931286d6040518163ffffffff1660e01b815260040160206040518083038186803b158015612a9457600080fd5b505afa158015612aa8573d6000803e3d6000fd5b505050506040513d601f19601f82011682018060405250810190612acc9190613c9c565b8861236090919063ffffffff16565b61237690919063ffffffff16565b90506000612bb36103e8612ba560fb60009054906101000a900473ffffffffffffffffffffffffffffffffffffffff1673ffffffffffffffffffffffffffffffffffffffff16639df5138a6040518163ffffffff1660e01b815260040160206040518083038186803b158015612b5e57600080fd5b505afa158015612b72573d6000803e3d6000fd5b505050506040513d601f19601f82011682018060405250810190612b969190613c9c565b8661236090919063ffffffff16565b61237690919063ffffffff16565b9050612bc881846131a090919063ffffffff16565b9250600060fb60009054906101000a900473ffffffffffffffffffffffffffffffffffffffff1673ffffffffffffffffffffffffffffffffffffffff1663d02641a0876040518263ffffffff1660e01b8152600401612c279190614032565b60206040518083038186803b158015612c3f57600080fd5b505afa158015612c53573d6000803e3d6000fd5b505050506040513d601f19601f82011682018060405250810190612c779190613c9c565b905060fd60009054906101000a900473ffffffffffffffffffffffffffffffffffffffff1673ffffffffffffffffffffffffffffffffffffffff1663e279962333888888612cce898e61238c90919063ffffffff16565b8760fb60009054906101000a900473ffffffffffffffffffffffffffffffffffffffff1673ffffffffffffffffffffffffffffffffffffffff1663d02641a08e6040518263ffffffff1660e01b8152600401612d2a9190614032565b60206040518083038186803b158015612d4257600080fd5b505afa158015612d56573d6000803e3d6000fd5b505050506040513d601f19601f82011682018060405250810190612d7a9190613c9c565b6040518863ffffffff1660e01b8152600401612d9c9796959493929190614076565b60206040518083038186803b158015612db457600080fd5b505afa158015612dc8573d6000803e3d6000fd5b505050506040513d601f19601f82011682018060405250810190612dec9190613c73565b612e2b576040517f08c379a0000000000000000000000000000000000000000000000000000000008152600401612e2290614311565b60405180910390fd5b60fc60009054906101000a900473ffffffffffffffffffffffffffffffffffffffff1673ffffffffffffffffffffffffffffffffffffffff1663ce1c185133612e7d858861238c90919063ffffffff16565b888a6040518563ffffffff1660e01b8152600401612e9e949392919061418a565b600060405180830381600087803b158015612eb857600080fd5b505af1158015612ecc573d6000803e3d6000fd5b50505050612edc878783866123a2565b50505050505050565b600033905090565b600060019054906101000a900460ff1680612f13575060008054906101000a900460ff16155b612f52576040517f08c379a0000000000000000000000000000000000000000000000000000000008152600401612f4990614331565b60405180910390fd5b60008060019054906101000a900460ff161590508015612fa2576001600060016101000a81548160ff02191690831515021790555060016000806101000a81548160ff0219169083151502179055505b612faa6133b4565b612fb261348d565b8015612fd35760008060016101000a81548160ff0219169083151502179055505b50565b600060019054906101000a900460ff1680612ffc575060008054906101000a900460ff16155b61303b576040517f08c379a000000000000000000000000000000000000000000000000000000000815260040161303290614331565b60405180910390fd5b60008060019054906101000a900460ff16159050801561308b576001600060016101000a81548160ff02191690831515021790555060016000806101000a81548160ff0219169083151502179055505b613093613566565b61309b61363f565b80156130bc5760008060016101000a81548160ff0219169083151502179055505b50565b600060019054906101000a900460ff16806130e5575060008054906101000a900460ff16155b613124576040517f08c379a000000000000000000000000000000000000000000000000000000000815260040161311b90614331565b60405180910390fd5b60008060019054906101000a900460ff161590508015613174576001600060016101000a81548160ff02191690831515021790555060016000806101000a81548160ff0219169083151502179055505b61317c6137c1565b801561319d5760008060016101000a81548160ff0219169083151502179055505b50565b600081836131ae919061464d565b905092915050565b60006131e47f360894a13ba1a3210667c828492db98dca3e2076cc3735a920a3ca505d382bbc60001b6138a2565b60000160009054906101000a900473ffffffffffffffffffffffffffffffffffffffff16905090565b613216816138ac565b613255576040517f08c379a000000000000000000000000000000000000000000000000000000000815260040161324c90614371565b60405180910390fd5b806132827f360894a13ba1a3210667c828492db98dca3e2076cc3735a920a3ca505d382bbc60001b6138a2565b60000160006101000a81548173ffffffffffffffffffffffffffffffffffffffff021916908373ffffffffffffffffffffffffffffffffffffffff16021790555050565b60606132d1836138ac565b613310576040517f08c379a0000000000000000000000000000000000000000000000000000000008152600401613307906143d1565b60405180910390fd5b6000808473ffffffffffffffffffffffffffffffffffffffff1684604051613338919061401b565b600060405180830381855af49150503d8060008114613373576040519150601f19603f3d011682016040523d82523d6000602084013e613378565b606091505b50915091506133a08282604051806060016040528060278152602001614b8f602791396138bf565b9250505092915050565b6000819050919050565b600060019054906101000a900460ff16806133da575060008054906101000a900460ff16155b613419576040517f08c379a000000000000000000000000000000000000000000000000000000000815260040161341090614331565b60405180910390fd5b60008060019054906101000a900460ff161590508015613469576001600060016101000a81548160ff02191690831515021790555060016000806101000a81548160ff0219169083151502179055505b801561348a5760008060016101000a81548160ff0219169083151502179055505b50565b600060019054906101000a900460ff16806134b3575060008054906101000a900460ff16155b6134f2576040517f08c379a00000000000000000000000000000000000000000000000000000000081526004016134e990614331565b60405180910390fd5b60008060019054906101000a900460ff161590508015613542576001600060016101000a81548160ff02191690831515021790555060016000806101000a81548160ff0219169083151502179055505b80156135635760008060016101000a81548160ff0219169083151502179055505b50565b600060019054906101000a900460ff168061358c575060008054906101000a900460ff16155b6135cb576040517f08c379a00000000000000000000000000000000000000000000000000000000081526004016135c290614331565b60405180910390fd5b60008060019054906101000a900460ff16159050801561361b576001600060016101000a81548160ff02191690831515021790555060016000806101000a81548160ff0219169083151502179055505b801561363c5760008060016101000a81548160ff0219169083151502179055505b50565b600060019054906101000a900460ff1680613665575060008054906101000a900460ff16155b6136a4576040517f08c379a000000000000000000000000000000000000000000000000000000000815260040161369b90614331565b60405180910390fd5b60008060019054906101000a900460ff1615905080156136f4576001600060016101000a81548160ff02191690831515021790555060016000806101000a81548160ff0219169083151502179055505b60006136fe612ee5565b905080609760006101000a81548173ffffffffffffffffffffffffffffffffffffffff021916908373ffffffffffffffffffffffffffffffffffffffff1602179055508073ffffffffffffffffffffffffffffffffffffffff16600073ffffffffffffffffffffffffffffffffffffffff167f8be0079c531659141344cd1fd0a4f28419497f9722a3daafe3b4186f6b6457e060405160405180910390a35080156137be5760008060016101000a81548160ff0219169083151502179055505b50565b600060019054906101000a900460ff16806137e7575060008054906101000a900460ff16155b613826576040517f08c379a000000000000000000000000000000000000000000000000000000000815260040161381d90614331565b60405180910390fd5b60008060019054906101000a900460ff161590508015613876576001600060016101000a81548160ff02191690831515021790555060016000806101000a81548160ff0219169083151502179055505b600160c981905550801561389f5760008060016101000a81548160ff0219169083151502179055505b50565b6000819050919050565b600080823b905060008111915050919050565b606083156138cf5782905061391f565b6000835111156138e25782518084602001fd5b816040517f08c379a0000000000000000000000000000000000000000000000000000000008152600401613916919061422f565b60405180910390fd5b9392505050565b6000613939613934846144b1565b61448c565b9050808382526020820190508285602086028201111561395857600080fd5b60005b85811015613988578161396e8882613a51565b84526020840193506020830192505060018101905061395b565b5050509392505050565b60006139a56139a0846144dd565b61448c565b905080838252602082019050828560208602820111156139c457600080fd5b60005b858110156139f457816139da8882613b23565b8452602084019350602083019250506001810190506139c7565b5050509392505050565b6000613a11613a0c84614509565b61448c565b905082815260208101848484011115613a2957600080fd5b613a348482856146ff565b509392505050565b600081359050613a4b81614b32565b92915050565b600081519050613a6081614b32565b92915050565b600081519050613a7581614b49565b92915050565b600082601f830112613a8c57600080fd5b8151613a9c848260208601613926565b91505092915050565b600082601f830112613ab657600080fd5b8151613ac6848260208601613992565b91505092915050565b600081519050613ade81614b60565b92915050565b600082601f830112613af557600080fd5b8135613b058482602086016139fe565b91505092915050565b600081359050613b1d81614b77565b92915050565b600081519050613b3281614b77565b92915050565b600060208284031215613b4a57600080fd5b6000613b5884828501613a3c565b91505092915050565b600060208284031215613b7357600080fd5b6000613b8184828501613a51565b91505092915050565b600060208284031215613b9c57600080fd5b6000613baa84828501613a66565b91505092915050565b60008060408385031215613bc657600080fd5b6000613bd485828601613a3c565b925050602083013567ffffffffffffffff811115613bf157600080fd5b613bfd85828601613ae4565b9150509250929050565b60008060408385031215613c1a57600080fd5b600083015167ffffffffffffffff811115613c3457600080fd5b613c4085828601613a7b565b925050602083015167ffffffffffffffff811115613c5d57600080fd5b613c6985828601613aa5565b9150509250929050565b600060208284031215613c8557600080fd5b6000613c9384828501613acf565b91505092915050565b600060208284031215613cae57600080fd5b6000613cbc84828501613b23565b91505092915050565b600080600080600060a08688031215613cdd57600080fd5b6000613ceb88828901613b0e565b9550506020613cfc88828901613a3c565b9450506040613d0d88828901613a3c565b9350506060613d1e88828901613b0e565b9250506080613d2f88828901613b0e565b9150509295509295909350565b600080600060608486031215613d5157600080fd5b6000613d5f86828701613b0e565b9350506020613d7086828701613a3c565b9250506040613d8186828701613b0e565b9150509250925092565b613d9481614681565b82525050565b613da3816146a5565b82525050565b6000613db48261453a565b613dbe8185614550565b9350613dce81856020860161470e565b80840191505092915050565b613de3816146db565b82525050565b6000613df482614545565b613dfe818561455b565b9350613e0e81856020860161470e565b613e17816147ff565b840191505092915050565b6000613e2f60028361455b565b9150613e3a82614810565b602082019050919050565b6000613e52602f8361455b565b9150613e5d82614839565b604082019050919050565b6000613e7560268361455b565b9150613e8082614888565b604082019050919050565b6000613e9860028361455b565b9150613ea3826148d7565b602082019050919050565b6000613ebb60218361455b565b9150613ec682614900565b604082019050919050565b6000613ede60028361455b565b9150613ee98261494f565b602082019050919050565b6000613f0160028361455b565b9150613f0c82614978565b602082019050919050565b6000613f24602e8361455b565b9150613f2f826149a1565b604082019050919050565b6000613f4760028361455b565b9150613f52826149f0565b602082019050919050565b6000613f6a602d8361455b565b9150613f7582614a19565b604082019050919050565b6000613f8d60208361455b565b9150613f9882614a68565b602082019050919050565b6000613fb060028361455b565b9150613fbb82614a91565b602082019050919050565b6000613fd360268361455b565b9150613fde82614aba565b604082019050919050565b6000613ff6601f8361455b565b915061400182614b09565b602082019050919050565b614015816146d1565b82525050565b60006140278284613da9565b915081905092915050565b60006020820190506140476000830184613d8b565b92915050565b60006040820190506140626000830185613d8b565b61406f6020830184613d8b565b9392505050565b600060e08201905061408b600083018a613d8b565b6140986020830189613d8b565b6140a56040830188613d8b565b6140b2606083018761400c565b6140bf608083018661400c565b6140cc60a083018561400c565b6140d960c083018461400c565b98975050505050505050565b60006060820190506140fa6000830186613d8b565b6141076020830185613d8b565b614114604083018461400c565b949350505050565b60006080820190506141316000830187613d8b565b61413e6020830186613d8b565b61414b604083018561400c565b6141586060830184613d8b565b95945050505050565b60006040820190506141766000830185613d8b565b614183602083018461400c565b9392505050565b600060808201905061419f6000830187613d8b565b6141ac602083018661400c565b6141b96040830185613d8b565b6141c66060830184613d8b565b95945050505050565b60006080820190506141e46000830187613d8b565b6141f1602083018661400c565b6141fe6040830185613d8b565b61420b6060830184613d9a565b95945050505050565b60006020820190506142296000830184613dda565b92915050565b600060208201905081810360008301526142498184613de9565b905092915050565b6000602082019050818103600083015261426a81613e22565b9050919050565b6000602082019050818103600083015261428a81613e45565b9050919050565b600060208201905081810360008301526142aa81613e68565b9050919050565b600060208201905081810360008301526142ca81613e8b565b9050919050565b600060208201905081810360008301526142ea81613eae565b9050919050565b6000602082019050818103600083015261430a81613ed1565b9050919050565b6000602082019050818103600083015261432a81613ef4565b9050919050565b6000602082019050818103600083015261434a81613f17565b9050919050565b6000602082019050818103600083015261436a81613f3a565b9050919050565b6000602082019050818103600083015261438a81613f5d565b9050919050565b600060208201905081810360008301526143aa81613f80565b9050919050565b600060208201905081810360008301526143ca81613fa3565b9050919050565b600060208201905081810360008301526143ea81613fc6565b9050919050565b6000602082019050818103600083015261440a81613fe9565b9050919050565b6000602082019050614426600083018461400c565b92915050565b6000604082019050614441600083018561400c565b61444e602083018461400c565b9392505050565b600060608201905061446a600083018661400c565b614477602083018561400c565b614484604083018461400c565b949350505050565b60006144966144a7565b90506144a28282614741565b919050565b6000604051905090565b600067ffffffffffffffff8211156144cc576144cb6147d0565b5b602082029050602081019050919050565b600067ffffffffffffffff8211156144f8576144f76147d0565b5b602082029050602081019050919050565b600067ffffffffffffffff821115614524576145236147d0565b5b61452d826147ff565b9050602081019050919050565b600081519050919050565b600081519050919050565b600081905092915050565b600082825260208201905092915050565b6000614577826146d1565b9150614582836146d1565b9250827fffffffffffffffffffffffffffffffffffffffffffffffffffffffffffffffff038211156145b7576145b6614772565b5b828201905092915050565b60006145cd826146d1565b91506145d8836146d1565b9250826145e8576145e76147a1565b5b828204905092915050565b60006145fe826146d1565b9150614609836146d1565b9250817fffffffffffffffffffffffffffffffffffffffffffffffffffffffffffffffff048311821515161561464257614641614772565b5b828202905092915050565b6000614658826146d1565b9150614663836146d1565b92508282101561467657614675614772565b5b828203905092915050565b600061468c826146b1565b9050919050565b600061469e826146b1565b9050919050565b60008115159050919050565b600073ffffffffffffffffffffffffffffffffffffffff82169050919050565b6000819050919050565b60006146e6826146ed565b9050919050565b60006146f8826146b1565b9050919050565b82818337600083830152505050565b60005b8381101561472c578082015181840152602081019050614711565b8381111561473b576000848401525b50505050565b61474a826147ff565b810181811067ffffffffffffffff82111715614769576147686147d0565b5b80604052505050565b7f4e487b7100000000000000000000000000000000000000000000000000000000600052601160045260246000fd5b7f4e487b7100000000000000000000000000000000000000000000000000000000600052601260045260246000fd5b7f4e487b7100000000000000000000000000000000000000000000000000000000600052604160045260246000fd5b6000601f19601f8301169050919050565b7f4943000000000000000000000000000000000000000000000000000000000000600082015250565b7f45524331393637557067726164653a207570677261646520627265616b73206660008201527f7572746865722075706772616465730000000000000000000000000000000000602082015250565b7f4f776e61626c653a206e6577206f776e657220697320746865207a65726f206160008201527f6464726573730000000000000000000000000000000000000000000000000000602082015250565b7f5745000000000000000000000000000000000000000000000000000000000000600082015250565b7f5472616e73616374696f6e2068617320657863656564656420646561646c696e60008201527f6500000000000000000000000000000000000000000000000000000000000000602082015250565b7f4946000000000000000000000000000000000000000000000000000000000000600082015250565b7f4352000000000000000000000000000000000000000000000000000000000000600082015250565b7f496e697469616c697a61626c653a20636f6e747261637420697320616c72656160008201527f647920696e697469616c697a6564000000000000000000000000000000000000602082015250565b7f4941000000000000000000000000000000000000000000000000000000000000600082015250565b7f455243313936373a206e657720696d706c656d656e746174696f6e206973206e60008201527f6f74206120636f6e747261637400000000000000000000000000000000000000602082015250565b7f4f776e61626c653a2063616c6c6572206973206e6f7420746865206f776e6572600082015250565b7f4654000000000000000000000000000000000000000000000000000000000000600082015250565b7f416464726573733a2064656c65676174652063616c6c20746f206e6f6e2d636f60008201527f6e74726163740000000000000000000000000000000000000000000000000000602082015250565b7f5265656e7472616e637947756172643a207265656e7472616e742063616c6c00600082015250565b614b3b81614681565b8114614b4657600080fd5b50565b614b5281614693565b8114614b5d57600080fd5b50565b614b69816146a5565b8114614b7457600080fd5b50565b614b80816146d1565b8114614b8b57600080fd5b5056fe416464726573733a206c6f772d6c6576656c2064656c65676174652063616c6c206661696c6564a26469706673582212201c6b71b54f677f01ff075b4f69af5775c42bca4414b4658acbba6a047096205564736f6c63430008030033",
  "linkReferences": {},
  "deployedLinkReferences": {}
}