{
  "_format": "hh-sol-artifact-1",
  "contractName": "Comptroller",
  "sourceName": "contracts/Bank/Comptroller.sol",
  "abi": [
    {
      "inputs": [
        {
          "internalType": "address",
          "name": "_mintRewardToken",
          "type": "address"
        },
        {
          "internalType": "address",
          "name": "_poolRewardToken",
          "type": "address"
        },
        {
          "internalType": "address",
          "name": "_weth",
          "type": "address"
        }
      ],
      "stateMutability": "nonpayable",
      "type": "constructor"
    },
    {
      "anonymous": false,
      "inputs": [
        {
          "indexed": false,
          "internalType": "uint256",
          "name": "amountBurned",
          "type": "uint256"
        },
        {
          "indexed": true,
          "internalType": "address",
          "name": "token",
          "type": "address"
        }
      ],
      "name": "BurnToken",
      "type": "event"
    },
    {
      "anonymous": false,
      "inputs": [
        {
          "indexed": false,
          "internalType": "uint256",
          "name": "tokenRate",
          "type": "uint256"
        },
        {
          "indexed": false,
          "internalType": "uint256",
          "name": "amountMinted",
          "type": "uint256"
        },
        {
          "indexed": true,
          "internalType": "address",
          "name": "token",
          "type": "address"
        }
      ],
      "name": "MintToken",
      "type": "event"
    },
    {
      "anonymous": false,
      "inputs": [
        {
          "indexed": true,
          "internalType": "address",
          "name": "previousOwner",
          "type": "address"
        },
        {
          "indexed": true,
          "internalType": "address",
          "name": "newOwner",
          "type": "address"
        }
      ],
      "name": "OwnershipTransferred",
      "type": "event"
    },
    {
      "anonymous": false,
      "inputs": [
        {
          "indexed": false,
          "internalType": "address",
          "name": "from",
          "type": "address"
        },
        {
          "indexed": false,
          "internalType": "address",
          "name": "token",
          "type": "address"
        },
        {
          "indexed": false,
          "internalType": "uint256",
          "name": "tokenAmount",
          "type": "uint256"
        },
        {
          "indexed": false,
          "internalType": "uint256[]",
          "name": "collateralAmounts",
          "type": "uint256[]"
        },
        {
          "indexed": false,
          "internalType": "address[]",
          "name": "collateralTypes",
          "type": "address[]"
        }
      ],
      "name": "Redeem",
      "type": "event"
    },
    {
      "inputs": [],
      "name": "WETH",
      "outputs": [
        {
          "internalType": "address",
          "name": "",
          "type": "address"
        }
      ],
      "stateMutability": "view",
      "type": "function"
    },
    {
      "inputs": [
        {
          "internalType": "uint256",
          "name": "amount",
          "type": "uint256"
        },
        {
          "internalType": "address",
          "name": "token",
          "type": "address"
        },
        {
          "internalType": "uint256",
          "name": "deadline",
          "type": "uint256"
        }
      ],
      "name": "burn",
      "outputs": [],
      "stateMutability": "nonpayable",
      "type": "function"
    },
    {
      "inputs": [
        {
          "internalType": "uint256",
          "name": "amount",
          "type": "uint256"
        },
        {
          "internalType": "address",
          "name": "token",
          "type": "address"
        },
        {
          "internalType": "address",
          "name": "from",
          "type": "address"
        },
        {
          "internalType": "uint256",
          "name": "deadline",
          "type": "uint256"
        }
      ],
      "name": "buyCollateral",
      "outputs": [
        {
          "internalType": "uint256[]",
          "name": "collateralAmounts",
          "type": "uint256[]"
        },
        {
          "internalType": "address[]",
          "name": "collateralTypes",
          "type": "address[]"
        }
      ],
      "stateMutability": "nonpayable",
      "type": "function"
    },
    {
      "inputs": [
        {
          "internalType": "address",
          "name": "",
          "type": "address"
        }
      ],
      "name": "collateralDetails",
      "outputs": [
        {
          "internalType": "uint256",
          "name": "mintCR",
          "type": "uint256"
        },
        {
          "internalType": "uint256",
          "name": "liquidationRank",
          "type": "uint256"
        },
        {
          "internalType": "uint256",
          "name": "stabilityFee",
          "type": "uint256"
        },
        {
          "internalType": "uint256",
          "name": "liquidationFee",
          "type": "uint256"
        }
      ],
      "stateMutability": "view",
      "type": "function"
    },
    {
      "inputs": [
        {
          "internalType": "uint256",
          "name": "",
          "type": "uint256"
        }
      ],
      "name": "collateralTokens",
      "outputs": [
        {
          "internalType": "address",
          "name": "",
          "type": "address"
        }
      ],
      "stateMutability": "view",
      "type": "function"
    },
    {
      "inputs": [],
      "name": "getAllCollateralTypes",
      "outputs": [
        {
          "internalType": "address[]",
          "name": "collateral",
          "type": "address[]"
        }
      ],
      "stateMutability": "view",
      "type": "function"
    },
    {
      "inputs": [],
      "name": "getAllFxTokens",
      "outputs": [
        {
          "internalType": "address[]",
          "name": "tokens",
          "type": "address[]"
        }
      ],
      "stateMutability": "view",
      "type": "function"
    },
    {
      "inputs": [
        {
          "internalType": "address",
          "name": "collateral",
          "type": "address"
        }
      ],
      "name": "getCollateralDetails",
      "outputs": [
        {
          "components": [
            {
              "internalType": "uint256",
              "name": "mintCR",
              "type": "uint256"
            },
            {
              "internalType": "uint256",
              "name": "liquidationRank",
              "type": "uint256"
            },
            {
              "internalType": "uint256",
              "name": "stabilityFee",
              "type": "uint256"
            },
            {
              "internalType": "uint256",
              "name": "liquidationFee",
              "type": "uint256"
            }
          ],
          "internalType": "struct IComptroller.CollateralData",
          "name": "",
          "type": "tuple"
        }
      ],
      "stateMutability": "view",
      "type": "function"
    },
    {
      "inputs": [
        {
          "internalType": "address",
          "name": "token",
          "type": "address"
        }
      ],
      "name": "getTokenDetails",
      "outputs": [
        {
          "components": [
            {
              "internalType": "uint256",
              "name": "liquidateCR",
              "type": "uint256"
            },
            {
              "internalType": "uint256",
              "name": "rewardRatio",
              "type": "uint256"
            }
          ],
          "internalType": "struct IComptroller.TokenData",
          "name": "",
          "type": "tuple"
        }
      ],
      "stateMutability": "view",
      "type": "function"
    },
    {
      "inputs": [
        {
          "internalType": "address",
          "name": "token",
          "type": "address"
        }
      ],
      "name": "getTokenPrice",
      "outputs": [
        {
          "internalType": "uint256",
          "name": "quote",
          "type": "uint256"
        }
      ],
      "stateMutability": "view",
      "type": "function"
    },
    {
      "inputs": [
        {
          "internalType": "address",
          "name": "",
          "type": "address"
        }
      ],
      "name": "isCollateralValid",
      "outputs": [
        {
          "internalType": "bool",
          "name": "",
          "type": "bool"
        }
      ],
      "stateMutability": "view",
      "type": "function"
    },
    {
      "inputs": [
        {
          "internalType": "address",
          "name": "",
          "type": "address"
        }
      ],
      "name": "isFxTokenValid",
      "outputs": [
        {
          "internalType": "bool",
          "name": "",
          "type": "bool"
        }
      ],
      "stateMutability": "view",
      "type": "function"
    },
    {
      "inputs": [
        {
          "internalType": "uint256",
          "name": "tokenAmountDesired",
          "type": "uint256"
        },
        {
          "internalType": "address",
          "name": "token",
          "type": "address"
        },
        {
          "internalType": "address",
          "name": "collateralToken",
          "type": "address"
        },
        {
          "internalType": "address",
          "name": "to",
          "type": "address"
        },
        {
          "internalType": "uint256",
          "name": "deadline",
          "type": "uint256"
        }
      ],
      "name": "mint",
      "outputs": [],
      "stateMutability": "nonpayable",
      "type": "function"
    },
    {
      "inputs": [],
      "name": "mintRewardToken",
      "outputs": [
        {
          "internalType": "address",
          "name": "",
          "type": "address"
        }
      ],
      "stateMutability": "view",
      "type": "function"
    },
    {
      "inputs": [
        {
          "internalType": "uint256",
          "name": "tokenAmount",
          "type": "uint256"
        },
        {
          "internalType": "address",
          "name": "token",
          "type": "address"
        },
        {
          "internalType": "uint256",
          "name": "deadline",
          "type": "uint256"
        }
      ],
      "name": "mintWithEth",
      "outputs": [],
      "stateMutability": "payable",
      "type": "function"
    },
    {
      "inputs": [
        {
          "internalType": "uint256",
          "name": "tokenAmount",
          "type": "uint256"
        },
        {
          "internalType": "address",
          "name": "token",
          "type": "address"
        },
        {
          "internalType": "uint256",
          "name": "deadline",
          "type": "uint256"
        }
      ],
      "name": "mintWithoutCollateral",
      "outputs": [],
      "stateMutability": "nonpayable",
      "type": "function"
    },
    {
      "inputs": [
        {
          "internalType": "address",
          "name": "",
          "type": "address"
        }
      ],
      "name": "oracles",
      "outputs": [
        {
          "internalType": "address",
          "name": "",
          "type": "address"
        }
      ],
      "stateMutability": "view",
      "type": "function"
    },
    {
      "inputs": [],
      "name": "owner",
      "outputs": [
        {
          "internalType": "address",
          "name": "",
          "type": "address"
        }
      ],
      "stateMutability": "view",
      "type": "function"
    },
    {
      "inputs": [],
      "name": "poolRewardToken",
      "outputs": [
        {
          "internalType": "address",
          "name": "",
          "type": "address"
        }
      ],
      "stateMutability": "view",
      "type": "function"
    },
    {
      "inputs": [
        {
          "internalType": "address",
          "name": "token",
          "type": "address"
        }
      ],
      "name": "removeCollateralToken",
      "outputs": [],
      "stateMutability": "nonpayable",
      "type": "function"
    },
    {
      "inputs": [
        {
          "internalType": "address",
          "name": "token",
          "type": "address"
        }
      ],
      "name": "removeFxToken",
      "outputs": [],
      "stateMutability": "nonpayable",
      "type": "function"
    },
    {
      "inputs": [],
      "name": "renounceOwnership",
      "outputs": [],
      "stateMutability": "nonpayable",
      "type": "function"
    },
    {
      "inputs": [
        {
          "internalType": "address",
          "name": "_token",
          "type": "address"
        },
        {
          "internalType": "uint256",
          "name": "_mintCR",
          "type": "uint256"
        },
        {
          "internalType": "uint256",
          "name": "_liquidationRank",
          "type": "uint256"
        },
        {
          "internalType": "uint256",
          "name": "_stabilityFee",
          "type": "uint256"
        },
        {
          "internalType": "uint256",
          "name": "_liquidationFee",
          "type": "uint256"
        }
      ],
      "name": "setCollateralToken",
      "outputs": [],
      "stateMutability": "nonpayable",
      "type": "function"
    },
    {
      "inputs": [
        {
          "internalType": "address",
          "name": "_treasury",
          "type": "address"
        },
        {
          "internalType": "address",
          "name": "_vaultLibrary",
          "type": "address"
        }
      ],
      "name": "setContracts",
      "outputs": [],
      "stateMutability": "nonpayable",
      "type": "function"
    },
    {
      "inputs": [
        {
          "internalType": "address",
          "name": "token",
          "type": "address"
        },
        {
          "internalType": "uint256",
          "name": "_liquidateCR",
          "type": "uint256"
        },
        {
          "internalType": "uint256",
          "name": "rewardRatio",
          "type": "uint256"
        }
      ],
      "name": "setFxToken",
      "outputs": [],
      "stateMutability": "nonpayable",
      "type": "function"
    },
    {
      "inputs": [
        {
          "internalType": "address",
          "name": "token",
          "type": "address"
        }
      ],
      "name": "setMintToken",
      "outputs": [],
      "stateMutability": "nonpayable",
      "type": "function"
    },
    {
      "inputs": [
        {
          "internalType": "address",
          "name": "_fxToken",
          "type": "address"
        },
        {
          "internalType": "address",
          "name": "_oracle",
          "type": "address"
        }
      ],
      "name": "setOracle",
      "outputs": [],
      "stateMutability": "nonpayable",
      "type": "function"
    },
    {
      "inputs": [
        {
          "internalType": "address",
          "name": "",
          "type": "address"
        }
      ],
      "name": "tokenDetails",
      "outputs": [
        {
          "internalType": "uint256",
          "name": "liquidateCR",
          "type": "uint256"
        },
        {
          "internalType": "uint256",
          "name": "rewardRatio",
          "type": "uint256"
        }
      ],
      "stateMutability": "view",
      "type": "function"
    },
    {
      "inputs": [
        {
          "internalType": "address",
          "name": "newOwner",
          "type": "address"
        }
      ],
      "name": "transferOwnership",
      "outputs": [],
      "stateMutability": "nonpayable",
      "type": "function"
    },
    {
      "inputs": [],
      "name": "treasury",
      "outputs": [
        {
          "internalType": "address payable",
          "name": "",
          "type": "address"
        }
      ],
      "stateMutability": "view",
      "type": "function"
    },
    {
      "inputs": [
        {
          "internalType": "uint256",
          "name": "",
          "type": "uint256"
        }
      ],
      "name": "validFxTokens",
      "outputs": [
        {
          "internalType": "address",
          "name": "",
          "type": "address"
        }
      ],
      "stateMutability": "view",
      "type": "function"
    },
    {
      "inputs": [],
      "name": "vaultLibrary",
      "outputs": [
        {
          "internalType": "address",
          "name": "",
          "type": "address"
        }
      ],
      "stateMutability": "view",
      "type": "function"
    },
    {
      "stateMutability": "payable",
      "type": "receive"
    }
  ],
  "bytecode": "0x60a06040523480156200001157600080fd5b5060405162006225380380620062258339818101604052810190620000379190620001cf565b600062000049620001b060201b60201c565b9050806000806101000a81548173ffffffffffffffffffffffffffffffffffffffff021916908373ffffffffffffffffffffffffffffffffffffffff1602179055508073ffffffffffffffffffffffffffffffffffffffff16600073ffffffffffffffffffffffffffffffffffffffff167f8be0079c531659141344cd1fd0a4f28419497f9722a3daafe3b4186f6b6457e060405160405180910390a3506001808190555082600260006101000a81548173ffffffffffffffffffffffffffffffffffffffff021916908373ffffffffffffffffffffffffffffffffffffffff16021790555081600360006101000a81548173ffffffffffffffffffffffffffffffffffffffff021916908373ffffffffffffffffffffffffffffffffffffffff1602179055508073ffffffffffffffffffffffffffffffffffffffff1660808173ffffffffffffffffffffffffffffffffffffffff1660601b8152505050505062000273565b600033905090565b600081519050620001c98162000259565b92915050565b600080600060608486031215620001e557600080fd5b6000620001f586828701620001b8565b93505060206200020886828701620001b8565b92505060406200021b86828701620001b8565b9150509250925092565b6000620002328262000239565b9050919050565b600073ffffffffffffffffffffffffffffffffffffffff82169050919050565b620002648162000225565b81146200027057600080fd5b50565b60805160601c615f5d620002c8600039806101ee5280611a1152806121e652806123fb5280612a1b5280612a9c5280612b955280612c4c5280612cf65280613b02528061400b528061410b5250615f5d6000f3fe6080604052600436106101e75760003560e01c806394f9059f11610102578063bd9e520011610095578063dd4be68311610064578063dd4be6831461077d578063eb0a8b91146107bb578063f2fde38b146107e6578063f70eebf51461080f57610243565b8063bd9e5200146106af578063d02641a0146106ec578063d1601f1314610729578063d8952a491461075457610243565b8063abd3da5e116100d1578063abd3da5e146105df578063ad5c46481461061c578063addd509914610647578063b1c566a01461068457610243565b806394f9059f146105275780639dbaf154146105505780639eea5f6614610579578063a0f026ff146105a257610243565b8063538d22bc1161017a5780637b90cfcb116101495780637b90cfcb14610459578063803c97b31461048257806388aa8bee146104bf5780638da5cb5b146104fc57610243565b8063538d22bc146103d25780635c38eb3a146103ee57806361d027b314610417578063715018a61461044257610243565b806338df2ff3116101b657806338df2ff31461030257806343cc3946146103425780634a13e91d146103805780634cf41b91146103a957610243565b80630a21d0fb14610248578063172c48c714610271578063294d499e146102ae5780632b455759146102d957610243565b36610243577f000000000000000000000000000000000000000000000000000000000000000073ffffffffffffffffffffffffffffffffffffffff163373ffffffffffffffffffffffffffffffffffffffff161461024157fe5b005b600080fd5b34801561025457600080fd5b5061026f600480360381019061026a91906150ef565b61083a565b005b34801561027d57600080fd5b506102986004803603810190610293919061520e565b610aa1565b6040516102a59190615722565b60405180910390f35b3480156102ba57600080fd5b506102c3610ae0565b6040516102d09190615a5b565b60405180910390f35b3480156102e557600080fd5b5061030060048036038101906102fb9190615012565b610b6e565b005b34801561030e57600080fd5b5061032960048036038101906103249190615012565b610f66565b6040516103399493929190615c97565b60405180910390f35b34801561034e57600080fd5b50610369600480360381019061036491906152d7565b610f96565b604051610377929190615a7d565b60405180910390f35b34801561038c57600080fd5b506103a760048036038101906103a29190615012565b6116af565b005b3480156103b557600080fd5b506103d060048036038101906103cb919061533a565b6117bb565b005b6103ec60048036038101906103e7919061533a565b612078565b005b3480156103fa57600080fd5b5061041560048036038101906104109190615064565b612dff565b005b34801561042357600080fd5b5061042c613029565b6040516104399190615758565b60405180910390f35b34801561044e57600080fd5b5061045761304f565b005b34801561046557600080fd5b50610480600480360381019061047b9190615260565b6131d5565b005b34801561048e57600080fd5b506104a960048036038101906104a49190615012565b6133bf565b6040516104b69190615ab4565b60405180910390f35b3480156104cb57600080fd5b506104e660048036038101906104e19190615012565b6133df565b6040516104f39190615bca565b60405180910390f35b34801561050857600080fd5b5061051161344c565b60405161051e9190615722565b60405180910390f35b34801561053357600080fd5b5061054e60048036038101906105499190615012565b613475565b005b34801561055c57600080fd5b50610577600480360381019061057291906150a0565b61358f565b005b34801561058557600080fd5b506105a0600480360381019061059b919061533a565b6137d4565b005b3480156105ae57600080fd5b506105c960048036038101906105c49190615012565b613faa565b6040516105d69190615ab4565b60405180910390f35b3480156105eb57600080fd5b506106066004803603810190610601919061520e565b613fca565b6040516106139190615722565b60405180910390f35b34801561062857600080fd5b50610631614009565b60405161063e9190615722565b60405180910390f35b34801561065357600080fd5b5061066e60048036038101906106699190615012565b61402d565b60405161067b9190615722565b60405180910390f35b34801561069057600080fd5b50610699614060565b6040516106a69190615722565b60405180910390f35b3480156106bb57600080fd5b506106d660048036038101906106d19190615012565b614086565b6040516106e39190615baf565b60405180910390f35b3480156106f857600080fd5b50610713600480360381019061070e9190615012565b614107565b6040516107209190615be5565b60405180910390f35b34801561073557600080fd5b5061073e614301565b60405161074b9190615a5b565b60405180910390f35b34801561076057600080fd5b5061077b60048036038101906107769190615064565b61438f565b005b34801561078957600080fd5b506107a4600480360381019061079f9190615012565b6145bd565b6040516107b2929190615c37565b60405180910390f35b3480156107c757600080fd5b506107d06145e1565b6040516107dd9190615722565b60405180910390f35b3480156107f257600080fd5b5061080d60048036038101906108089190615012565b614607565b005b34801561081b57600080fd5b50610824614812565b6040516108319190615722565b60405180910390f35b610842614838565b73ffffffffffffffffffffffffffffffffffffffff1660008054906101000a900473ffffffffffffffffffffffffffffffffffffffff1673ffffffffffffffffffffffffffffffffffffffff1614610902576040517f08c379a00000000000000000000000000000000000000000000000000000000081526004018080602001828103825260208152602001807f4f776e61626c653a2063616c6c6572206973206e6f7420746865206f776e657281525060200191505060405180910390fd5b600760008673ffffffffffffffffffffffffffffffffffffffff1673ffffffffffffffffffffffffffffffffffffffff16815260200190815260200160002060009054906101000a900460ff16610a0f576006859080600181540180825580915050600190039060005260206000200160009091909190916101000a81548173ffffffffffffffffffffffffffffffffffffffff021916908373ffffffffffffffffffffffffffffffffffffffff1602179055506001600760008773ffffffffffffffffffffffffffffffffffffffff1673ffffffffffffffffffffffffffffffffffffffff16815260200190815260200160002060006101000a81548160ff0219169083151502179055505b604051806080016040528085815260200184815260200183815260200182815250600860008773ffffffffffffffffffffffffffffffffffffffff1673ffffffffffffffffffffffffffffffffffffffff168152602001908152602001600020600082015181600001556020820151816001015560408201518160020155606082015181600301559050505050505050565b60068181548110610ab157600080fd5b906000526020600020016000915054906101000a900473ffffffffffffffffffffffffffffffffffffffff1681565b60606006805480602002602001604051908101604052809291908181526020018280548015610b6457602002820191906000526020600020905b8160009054906101000a900473ffffffffffffffffffffffffffffffffffffffff1673ffffffffffffffffffffffffffffffffffffffff1681526020019060010190808311610b1a575b5050505050905090565b610b76614838565b73ffffffffffffffffffffffffffffffffffffffff1660008054906101000a900473ffffffffffffffffffffffffffffffffffffffff1673ffffffffffffffffffffffffffffffffffffffff1614610c36576040517f08c379a00000000000000000000000000000000000000000000000000000000081526004018080602001828103825260208152602001807f4f776e61626c653a2063616c6c6572206973206e6f7420746865206f776e657281525060200191505060405180910390fd5b80600a60008273ffffffffffffffffffffffffffffffffffffffff1673ffffffffffffffffffffffffffffffffffffffff16815260200190815260200160002060009054906101000a900460ff16610cc3576040517f08c379a0000000000000000000000000000000000000000000000000000000008152600401610cba90615b2f565b60405180910390fd5b6000600160098054905001905060005b600980549050811015610d60578373ffffffffffffffffffffffffffffffffffffffff1660098281548110610d0457fe5b9060005260206000200160009054906101000a900473ffffffffffffffffffffffffffffffffffffffff1673ffffffffffffffffffffffffffffffffffffffff161415610d5357809150610d60565b8080600101915050610cd3565b50600b60008473ffffffffffffffffffffffffffffffffffffffff1673ffffffffffffffffffffffffffffffffffffffff16815260200190815260200160002060008082016000905560018201600090555050600a60008473ffffffffffffffffffffffffffffffffffffffff1673ffffffffffffffffffffffffffffffffffffffff16815260200190815260200160002060006101000a81549060ff0219169055600160098054905003811015610f265760098181548110610e1f57fe5b9060005260206000200160006101000a81549073ffffffffffffffffffffffffffffffffffffffff0219169055600960016009805490500381548110610e6157fe5b9060005260206000200160009054906101000a900473ffffffffffffffffffffffffffffffffffffffff1660098281548110610e9957fe5b9060005260206000200160006101000a81548173ffffffffffffffffffffffffffffffffffffffff021916908373ffffffffffffffffffffffffffffffffffffffff1602179055506009805480610eec57fe5b6001900381819060005260206000200160006101000a81549073ffffffffffffffffffffffffffffffffffffffff02191690559055610f61565b60098181548110610f3357fe5b9060005260206000200160006101000a81549073ffffffffffffffffffffffffffffffffffffffff02191690555b505050565b60086020528060005260406000206000915090508060000154908060010154908060020154908060030154905084565b6060808280421115610ff3576040517f08c379a0000000000000000000000000000000000000000000000000000000008152600401808060200182810382526021815260200180615ee66021913960400191505060405180910390fd5b85600a60008273ffffffffffffffffffffffffffffffffffffffff1673ffffffffffffffffffffffffffffffffffffffff16815260200190815260200160002060009054906101000a900460ff16611080576040517f08c379a000000000000000000000000000000000000000000000000000000000815260040161107790615b2f565b60405180910390fd5b878773ffffffffffffffffffffffffffffffffffffffff166370a08231336040518263ffffffff1660e01b81526004016110ba919061573d565b60206040518083038186803b1580156110d257600080fd5b505afa1580156110e6573d6000803e3d6000fd5b505050506040513d601f19601f8201168201806040525081019061110a9190615237565b101561114b576040517f08c379a000000000000000000000000000000000000000000000000000000000815260040161114290615b6f565b60405180910390fd5b611153614840565b73ffffffffffffffffffffffffffffffffffffffff16633fa6b81987896040518363ffffffff1660e01b815260040161118d9291906158d9565b600060405180830381600087803b1580156111a757600080fd5b505af11580156111bb573d6000803e3d6000fd5b5050505060006111c961486a565b73ffffffffffffffffffffffffffffffffffffffff16638dac8d138a8a8a6040518463ffffffff1660e01b815260040161120593929190615c00565b60206040518083038186803b15801561121d57600080fd5b505afa158015611231573d6000803e3d6000fd5b505050506040513d601f19601f820116820180604052508101906112559190615237565b90506000811161129a576040517f08c379a000000000000000000000000000000000000000000000000000000000815260040161129190615b6f565b60405180910390fd5b808911156112a6578098505b886112af614840565b73ffffffffffffffffffffffffffffffffffffffff1663498b5ae8898b6040518363ffffffff1660e01b81526004016112e99291906158d9565b60206040518083038186803b15801561130157600080fd5b505afa158015611315573d6000803e3d6000fd5b505050506040513d601f19601f820116820180604052508101906113399190615237565b101561137a576040517f08c379a000000000000000000000000000000000000000000000000000000000815260040161137190615b6f565b60405180910390fd5b5060006113b2670de0b6b3a76400006113a48b6113968c614107565b61489490919063ffffffff16565b61491a90919063ffffffff16565b905060006113be61486a565b73ffffffffffffffffffffffffffffffffffffffff1663234ab3e2898b856040518463ffffffff1660e01b81526004016113fa93929190615955565b60006040518083038186803b15801561141257600080fd5b505afa158015611426573d6000803e3d6000fd5b505050506040513d6000823e3d601f19601f8201168201806040525081019061144f9190615166565b8093508198508297505050508061149b576040517f08c379a000000000000000000000000000000000000000000000000000000000815260040161149290615b8f565b60405180910390fd5b8873ffffffffffffffffffffffffffffffffffffffff16639dc29fac338c6040518363ffffffff1660e01b81526004016114d6929190615826565b600060405180830381600087803b1580156114f057600080fd5b505af1158015611504573d6000803e3d6000fd5b50505050611510614840565b73ffffffffffffffffffffffffffffffffffffffff1663877034f1898c8c60006040518563ffffffff1660e01b815260040161154f9493929190615a16565b600060405180830381600087803b15801561156957600080fd5b505af115801561157d573d6000803e3d6000fd5b5050505060005b60068054905081101561166257611599614840565b73ffffffffffffffffffffffffffffffffffffffff166358166d248a600684815481106115c257fe5b9060005260206000200160009054906101000a900473ffffffffffffffffffffffffffffffffffffffff16338b86815181106115fa57fe5b60200260200101518f6040518663ffffffff1660e01b8152600401611623959493929190615902565b600060405180830381600087803b15801561163d57600080fd5b505af1158015611651573d6000803e3d6000fd5b505050508080600101915050611584565b507f85801d8b70db8bdabd6c7f02c3cad017384b116cf25ca73238bba9a4d86bd1a3888a8c898960405161169a95949392919061598c565b60405180910390a15050505094509492505050565b6116b7614838565b73ffffffffffffffffffffffffffffffffffffffff1660008054906101000a900473ffffffffffffffffffffffffffffffffffffffff1673ffffffffffffffffffffffffffffffffffffffff1614611777576040517f08c379a00000000000000000000000000000000000000000000000000000000081526004018080602001828103825260208152602001807f4f776e61626c653a2063616c6c6572206973206e6f7420746865206f776e657281525060200191505060405180910390fd5b80600260006101000a81548173ffffffffffffffffffffffffffffffffffffffff021916908373ffffffffffffffffffffffffffffffffffffffff16021790555050565b8080421115611815576040517f08c379a0000000000000000000000000000000000000000000000000000000008152600401808060200182810382526021815260200180615ee66021913960400191505060405180910390fd5b82600a60008273ffffffffffffffffffffffffffffffffffffffff1673ffffffffffffffffffffffffffffffffffffffff16815260200190815260200160002060009054906101000a900460ff166118a2576040517f08c379a000000000000000000000000000000000000000000000000000000000815260040161189990615b2f565b60405180910390fd5b6118aa614840565b73ffffffffffffffffffffffffffffffffffffffff16633fa6b81933866040518363ffffffff1660e01b81526004016118e4929190615773565b600060405180830381600087803b1580156118fe57600080fd5b505af1158015611912573d6000803e3d6000fd5b5050505060006119c36103e86119b5611929614840565b73ffffffffffffffffffffffffffffffffffffffff16639931286d6040518163ffffffff1660e01b815260040160206040518083038186803b15801561196e57600080fd5b505afa158015611982573d6000803e3d6000fd5b505050506040513d601f19601f820116820180604052508101906119a69190615237565b8961489490919063ffffffff16565b61491a90919063ffffffff16565b90506119d8818761496490919063ffffffff16565b955060006119e586614107565b90506119ef61486a565b73ffffffffffffffffffffffffffffffffffffffff16639e718d0788600860007f000000000000000000000000000000000000000000000000000000000000000073ffffffffffffffffffffffffffffffffffffffff1673ffffffffffffffffffffffffffffffffffffffff16815260200190815260200160002060000154846040518463ffffffff1660e01b8152600401611a8d93929190615c60565b60206040518083038186803b158015611aa557600080fd5b505afa158015611ab9573d6000803e3d6000fd5b505050506040513d601f19601f82011682018060405250810190611add9190615237565b611ae561486a565b73ffffffffffffffffffffffffffffffffffffffff1663e76ab23933896040518363ffffffff1660e01b8152600401611b1f929190615773565b60206040518083038186803b158015611b3757600080fd5b505afa158015611b4b573d6000803e3d6000fd5b505050506040513d601f19601f82011682018060405250810190611b6f9190615237565b1015611bb0576040517f08c379a0000000000000000000000000000000000000000000000000000000008152600401611ba790615b4f565b60405180910390fd5b60008673ffffffffffffffffffffffffffffffffffffffff166370a08231336040518263ffffffff1660e01b8152600401611beb919061573d565b60206040518083038186803b158015611c0357600080fd5b505afa158015611c17573d6000803e3d6000fd5b505050506040513d601f19601f82011682018060405250810190611c3b9190615237565b90508673ffffffffffffffffffffffffffffffffffffffff166340c10f1933611c6d868c6149ec90919063ffffffff16565b6040518363ffffffff1660e01b8152600401611c8a929190615826565b600060405180830381600087803b158015611ca457600080fd5b505af1158015611cb8573d6000803e3d6000fd5b505050508673ffffffffffffffffffffffffffffffffffffffff166340c10f19611ce0614840565b73ffffffffffffffffffffffffffffffffffffffff1663ec94578e6040518163ffffffff1660e01b815260040160206040518083038186803b158015611d2557600080fd5b505afa158015611d39573d6000803e3d6000fd5b505050506040513d601f19601f82011682018060405250810190611d5d919061503b565b856040518363ffffffff1660e01b8152600401611d7b9291906159ed565b600060405180830381600087803b158015611d9557600080fd5b505af1158015611da9573d6000803e3d6000fd5b50505050611dd283611dc48a8461496490919063ffffffff16565b6149ec90919063ffffffff16565b8773ffffffffffffffffffffffffffffffffffffffff166370a08231336040518263ffffffff1660e01b8152600401611e0b919061573d565b60206040518083038186803b158015611e2357600080fd5b505afa158015611e37573d6000803e3d6000fd5b505050506040513d601f19601f82011682018060405250810190611e5b9190615237565b14611e6257fe5b6000611e6c614840565b73ffffffffffffffffffffffffffffffffffffffff1663498b5ae8338a6040518363ffffffff1660e01b8152600401611ea6929190615773565b60206040518083038186803b158015611ebe57600080fd5b505afa158015611ed2573d6000803e3d6000fd5b505050506040513d601f19601f82011682018060405250810190611ef69190615237565b9050611f00614840565b73ffffffffffffffffffffffffffffffffffffffff1663877034f1338b8b60016040518563ffffffff1660e01b8152600401611f3f9493929190615894565b600060405180830381600087803b158015611f5957600080fd5b505af1158015611f6d573d6000803e3d6000fd5b50505050611f79614840565b73ffffffffffffffffffffffffffffffffffffffff1663498b5ae8338a6040518363ffffffff1660e01b8152600401611fb3929190615773565b60206040518083038186803b158015611fcb57600080fd5b505afa158015611fdf573d6000803e3d6000fd5b505050506040513d601f19601f820116820180604052508101906120039190615237565b6120168a8361496490919063ffffffff16565b1461201d57fe5b8773ffffffffffffffffffffffffffffffffffffffff167fb4a4751ef6a44118d02c7f8772a09a847f35ae4293a6c73ffc21039b80635682848b604051612065929190615c37565b60405180910390a2505050505050505050565b80804211156120d2576040517f08c379a0000000000000000000000000000000000000000000000000000000008152600401808060200182810382526021815260200180615ee66021913960400191505060405180910390fd5b82600a60008273ffffffffffffffffffffffffffffffffffffffff1673ffffffffffffffffffffffffffffffffffffffff16815260200190815260200160002060009054906101000a900460ff1661215f576040517f08c379a000000000000000000000000000000000000000000000000000000000815260040161215690615b2f565b60405180910390fd5b600260015414156121d8576040517f08c379a000000000000000000000000000000000000000000000000000000000815260040180806020018281038252601f8152602001807f5265656e7472616e637947756172643a207265656e7472616e742063616c6c0081525060200191505060405180910390fd5b6002600181905550600760007f000000000000000000000000000000000000000000000000000000000000000073ffffffffffffffffffffffffffffffffffffffff1673ffffffffffffffffffffffffffffffffffffffff16815260200190815260200160002060009054906101000a900460ff1661228c576040517f08c379a000000000000000000000000000000000000000000000000000000000815260040161228390615aef565b60405180910390fd5b612294614840565b73ffffffffffffffffffffffffffffffffffffffff16633fa6b81933866040518363ffffffff1660e01b81526004016122ce929190615773565b600060405180830381600087803b1580156122e857600080fd5b505af11580156122fc573d6000803e3d6000fd5b5050505060006123ad6103e861239f612313614840565b73ffffffffffffffffffffffffffffffffffffffff16639931286d6040518163ffffffff1660e01b815260040160206040518083038186803b15801561235857600080fd5b505afa15801561236c573d6000803e3d6000fd5b505050506040513d601f19601f820116820180604052508101906123909190615237565b8961489490919063ffffffff16565b61491a90919063ffffffff16565b90506123c2818761496490919063ffffffff16565b955060006123cf86614107565b90506123d961486a565b73ffffffffffffffffffffffffffffffffffffffff16639e718d0788600860007f000000000000000000000000000000000000000000000000000000000000000073ffffffffffffffffffffffffffffffffffffffff1673ffffffffffffffffffffffffffffffffffffffff16815260200190815260200160002060000154846040518463ffffffff1660e01b815260040161247793929190615c60565b60206040518083038186803b15801561248f57600080fd5b505afa1580156124a3573d6000803e3d6000fd5b505050506040513d601f19601f820116820180604052508101906124c79190615237565b61256b346124d361486a565b73ffffffffffffffffffffffffffffffffffffffff1663e76ab239338b6040518363ffffffff1660e01b815260040161250d929190615773565b60206040518083038186803b15801561252557600080fd5b505afa158015612539573d6000803e3d6000fd5b505050506040513d601f19601f8201168201806040525081019061255d9190615237565b61496490919063ffffffff16565b10156125ac576040517f08c379a00000000000000000000000000000000000000000000000000000000081526004016125a390615b4f565b60405180910390fd5b60008673ffffffffffffffffffffffffffffffffffffffff166370a08231336040518263ffffffff1660e01b81526004016125e7919061573d565b60206040518083038186803b1580156125ff57600080fd5b505afa158015612613573d6000803e3d6000fd5b505050506040513d601f19601f820116820180604052508101906126379190615237565b90508673ffffffffffffffffffffffffffffffffffffffff166340c10f1933612669868c6149ec90919063ffffffff16565b6040518363ffffffff1660e01b8152600401612686929190615826565b600060405180830381600087803b1580156126a057600080fd5b505af11580156126b4573d6000803e3d6000fd5b505050508673ffffffffffffffffffffffffffffffffffffffff166340c10f196126dc614840565b73ffffffffffffffffffffffffffffffffffffffff1663ec94578e6040518163ffffffff1660e01b815260040160206040518083038186803b15801561272157600080fd5b505afa158015612735573d6000803e3d6000fd5b505050506040513d601f19601f82011682018060405250810190612759919061503b565b856040518363ffffffff1660e01b81526004016127779291906159ed565b600060405180830381600087803b15801561279157600080fd5b505af11580156127a5573d6000803e3d6000fd5b505050506127ce836127c08a8461496490919063ffffffff16565b6149ec90919063ffffffff16565b8773ffffffffffffffffffffffffffffffffffffffff166370a08231336040518263ffffffff1660e01b8152600401612807919061573d565b60206040518083038186803b15801561281f57600080fd5b505afa158015612833573d6000803e3d6000fd5b505050506040513d601f19601f820116820180604052508101906128579190615237565b1461285e57fe5b6000612868614840565b73ffffffffffffffffffffffffffffffffffffffff1663498b5ae8338a6040518363ffffffff1660e01b81526004016128a2929190615773565b60206040518083038186803b1580156128ba57600080fd5b505afa1580156128ce573d6000803e3d6000fd5b505050506040513d601f19601f820116820180604052508101906128f29190615237565b90506128fc614840565b73ffffffffffffffffffffffffffffffffffffffff1663877034f1338b8b60016040518563ffffffff1660e01b815260040161293b9493929190615894565b600060405180830381600087803b15801561295557600080fd5b505af1158015612969573d6000803e3d6000fd5b50505050612975614840565b73ffffffffffffffffffffffffffffffffffffffff1663498b5ae8338a6040518363ffffffff1660e01b81526004016129af929190615773565b60206040518083038186803b1580156129c757600080fd5b505afa1580156129db573d6000803e3d6000fd5b505050506040513d601f19601f820116820180604052508101906129ff9190615237565b612a128a8361496490919063ffffffff16565b14612a1957fe5b7f000000000000000000000000000000000000000000000000000000000000000073ffffffffffffffffffffffffffffffffffffffff1663d0e30db0346040518263ffffffff1660e01b81526004016000604051808303818588803b158015612a8157600080fd5b505af1158015612a95573d6000803e3d6000fd5b50505050507f000000000000000000000000000000000000000000000000000000000000000073ffffffffffffffffffffffffffffffffffffffff1663095ea7b3600460009054906101000a900473ffffffffffffffffffffffffffffffffffffffff16346040518363ffffffff1660e01b8152600401612b17929190615826565b602060405180830381600087803b158015612b3157600080fd5b505af1158015612b45573d6000803e3d6000fd5b505050506040513d601f19601f82011682018060405250810190612b6991906151e5565b612b6f57fe5b612b77614840565b73ffffffffffffffffffffffffffffffffffffffff1663c462b520337f00000000000000000000000000000000000000000000000000000000000000008b6040518463ffffffff1660e01b8152600401612bd39392919061579c565b60206040518083038186803b158015612beb57600080fd5b505afa158015612bff573d6000803e3d6000fd5b505050506040513d601f19601f82011682018060405250810190612c239190615237565b9150612c2d614840565b73ffffffffffffffffffffffffffffffffffffffff1663ce1c185133347f00000000000000000000000000000000000000000000000000000000000000008c6040518563ffffffff1660e01b8152600401612c8b949392919061584f565b600060405180830381600087803b158015612ca557600080fd5b505af1158015612cb9573d6000803e3d6000fd5b50505050612cd0823461496490919063ffffffff16565b612cd8614840565b73ffffffffffffffffffffffffffffffffffffffff1663c462b520337f00000000000000000000000000000000000000000000000000000000000000008c6040518463ffffffff1660e01b8152600401612d349392919061579c565b60206040518083038186803b158015612d4c57600080fd5b505afa158015612d60573d6000803e3d6000fd5b505050506040513d601f19601f82011682018060405250810190612d849190615237565b14612d8b57fe5b8773ffffffffffffffffffffffffffffffffffffffff167fb4a4751ef6a44118d02c7f8772a09a847f35ae4293a6c73ffc21039b8063568284612dd7878d6149ec90919063ffffffff16565b604051612de5929190615c37565b60405180910390a250505050600180819055505050505050565b612e07614838565b73ffffffffffffffffffffffffffffffffffffffff1660008054906101000a900473ffffffffffffffffffffffffffffffffffffffff1673ffffffffffffffffffffffffffffffffffffffff1614612ec7576040517f08c379a00000000000000000000000000000000000000000000000000000000081526004018080602001828103825260208152602001807f4f776e61626c653a2063616c6c6572206973206e6f7420746865206f776e657281525060200191505060405180910390fd5b600073ffffffffffffffffffffffffffffffffffffffff168273ffffffffffffffffffffffffffffffffffffffff161415612f37576040517f08c379a0000000000000000000000000000000000000000000000000000000008152600401612f2e90615b0f565b60405180910390fd5b600073ffffffffffffffffffffffffffffffffffffffff168173ffffffffffffffffffffffffffffffffffffffff161415612fa7576040517f08c379a0000000000000000000000000000000000000000000000000000000008152600401612f9e90615b0f565b60405180910390fd5b80600c60008473ffffffffffffffffffffffffffffffffffffffff1673ffffffffffffffffffffffffffffffffffffffff16815260200190815260200160002060006101000a81548173ffffffffffffffffffffffffffffffffffffffff021916908373ffffffffffffffffffffffffffffffffffffffff1602179055505050565b600460009054906101000a900473ffffffffffffffffffffffffffffffffffffffff1681565b613057614838565b73ffffffffffffffffffffffffffffffffffffffff1660008054906101000a900473ffffffffffffffffffffffffffffffffffffffff1673ffffffffffffffffffffffffffffffffffffffff1614613117576040517f08c379a00000000000000000000000000000000000000000000000000000000081526004018080602001828103825260208152602001807f4f776e61626c653a2063616c6c6572206973206e6f7420746865206f776e657281525060200191505060405180910390fd5b600073ffffffffffffffffffffffffffffffffffffffff1660008054906101000a900473ffffffffffffffffffffffffffffffffffffffff1673ffffffffffffffffffffffffffffffffffffffff167f8be0079c531659141344cd1fd0a4f28419497f9722a3daafe3b4186f6b6457e060405160405180910390a360008060006101000a81548173ffffffffffffffffffffffffffffffffffffffff021916908373ffffffffffffffffffffffffffffffffffffffff160217905550565b808042111561322f576040517f08c379a0000000000000000000000000000000000000000000000000000000008152600401808060200182810382526021815260200180615ee66021913960400191505060405180910390fd5b600260015414156132a8576040517f08c379a000000000000000000000000000000000000000000000000000000000815260040180806020018281038252601f8152602001807f5265656e7472616e637947756172643a207265656e7472616e742063616c6c0081525060200191505060405180910390fd5b6002600181905550600760008573ffffffffffffffffffffffffffffffffffffffff1673ffffffffffffffffffffffffffffffffffffffff16815260200190815260200160002060009054906101000a900460ff1661333c576040517f08c379a000000000000000000000000000000000000000000000000000000000815260040161333390615acf565b60405180910390fd5b613344614840565b73ffffffffffffffffffffffffffffffffffffffff16633fa6b81933876040518363ffffffff1660e01b815260040161337e929190615773565b600060405180830381600087803b15801561339857600080fd5b505af11580156133ac573d6000803e3d6000fd5b5050505060018081905550505050505050565b60076020528060005260406000206000915054906101000a900460ff1681565b6133e7614e3b565b600b60008373ffffffffffffffffffffffffffffffffffffffff1673ffffffffffffffffffffffffffffffffffffffff168152602001908152602001600020604051806040016040529081600082015481526020016001820154815250509050919050565b60008060009054906101000a900473ffffffffffffffffffffffffffffffffffffffff16905090565b61347d614838565b73ffffffffffffffffffffffffffffffffffffffff1660008054906101000a900473ffffffffffffffffffffffffffffffffffffffff1673ffffffffffffffffffffffffffffffffffffffff161461353d576040517f08c379a00000000000000000000000000000000000000000000000000000000081526004018080602001828103825260208152602001807f4f776e61626c653a2063616c6c6572206973206e6f7420746865206f776e657281525060200191505060405180910390fd5b600760008273ffffffffffffffffffffffffffffffffffffffff1673ffffffffffffffffffffffffffffffffffffffff16815260200190815260200160002060006101000a81549060ff021916905550565b613597614838565b73ffffffffffffffffffffffffffffffffffffffff1660008054906101000a900473ffffffffffffffffffffffffffffffffffffffff1673ffffffffffffffffffffffffffffffffffffffff1614613657576040517f08c379a00000000000000000000000000000000000000000000000000000000081526004018080602001828103825260208152602001807f4f776e61626c653a2063616c6c6572206973206e6f7420746865206f776e657281525060200191505060405180910390fd5b600a60008473ffffffffffffffffffffffffffffffffffffffff1673ffffffffffffffffffffffffffffffffffffffff16815260200190815260200160002060009054906101000a900460ff16613764576009839080600181540180825580915050600190039060005260206000200160009091909190916101000a81548173ffffffffffffffffffffffffffffffffffffffff021916908373ffffffffffffffffffffffffffffffffffffffff1602179055506001600a60008573ffffffffffffffffffffffffffffffffffffffff1673ffffffffffffffffffffffffffffffffffffffff16815260200190815260200160002060006101000a81548160ff0219169083151502179055505b604051806040016040528083815260200182815250600b60008573ffffffffffffffffffffffffffffffffffffffff1673ffffffffffffffffffffffffffffffffffffffff1681526020019081526020016000206000820151816000015560208201518160010155905050505050565b808042111561382e576040517f08c379a0000000000000000000000000000000000000000000000000000000008152600401808060200182810382526021815260200180615ee66021913960400191505060405180910390fd5b82600a60008273ffffffffffffffffffffffffffffffffffffffff1673ffffffffffffffffffffffffffffffffffffffff16815260200190815260200160002060009054906101000a900460ff166138bb576040517f08c379a00000000000000000000000000000000000000000000000000000000081526004016138b290615b2f565b60405180910390fd5b848473ffffffffffffffffffffffffffffffffffffffff166370a08231336040518263ffffffff1660e01b81526004016138f5919061573d565b60206040518083038186803b15801561390d57600080fd5b505afa158015613921573d6000803e3d6000fd5b505050506040513d601f19601f820116820180604052508101906139459190615237565b1015613986576040517f08c379a000000000000000000000000000000000000000000000000000000000815260040161397d90615b6f565b60405180910390fd5b8461398f614840565b73ffffffffffffffffffffffffffffffffffffffff1663498b5ae833876040518363ffffffff1660e01b81526004016139c9929190615773565b60206040518083038186803b1580156139e157600080fd5b505afa1580156139f5573d6000803e3d6000fd5b505050506040513d601f19601f82011682018060405250810190613a199190615237565b1015613a5a576040517f08c379a0000000000000000000000000000000000000000000000000000000008152600401613a5190615b6f565b60405180910390fd5b613a62614840565b73ffffffffffffffffffffffffffffffffffffffff16633fa6b81933866040518363ffffffff1660e01b8152600401613a9c929190615773565b600060405180830381600087803b158015613ab657600080fd5b505af1158015613aca573d6000803e3d6000fd5b505050506000613ada8686614a36565b9050613ae4614840565b73ffffffffffffffffffffffffffffffffffffffff166358166d24337f0000000000000000000000000000000000000000000000000000000000000000613b29614840565b73ffffffffffffffffffffffffffffffffffffffff1663ec94578e6040518163ffffffff1660e01b815260040160206040518083038186803b158015613b6e57600080fd5b505afa158015613b82573d6000803e3d6000fd5b505050506040513d601f19601f82011682018060405250810190613ba6919061503b565b858a6040518663ffffffff1660e01b8152600401613bc89594939291906157d3565b600060405180830381600087803b158015613be257600080fd5b505af1158015613bf6573d6000803e3d6000fd5b5050505060008573ffffffffffffffffffffffffffffffffffffffff166370a08231336040518263ffffffff1660e01b8152600401613c35919061573d565b60206040518083038186803b158015613c4d57600080fd5b505afa158015613c61573d6000803e3d6000fd5b505050506040513d601f19601f82011682018060405250810190613c859190615237565b90508573ffffffffffffffffffffffffffffffffffffffff16639dc29fac33896040518363ffffffff1660e01b8152600401613cc2929190615826565b600060405180830381600087803b158015613cdc57600080fd5b505af1158015613cf0573d6000803e3d6000fd5b50505050613d0787826149ec90919063ffffffff16565b8673ffffffffffffffffffffffffffffffffffffffff166370a08231336040518263ffffffff1660e01b8152600401613d40919061573d565b60206040518083038186803b158015613d5857600080fd5b505afa158015613d6c573d6000803e3d6000fd5b505050506040513d601f19601f82011682018060405250810190613d909190615237565b14613d9757fe5b6000613da1614840565b73ffffffffffffffffffffffffffffffffffffffff1663498b5ae833896040518363ffffffff1660e01b8152600401613ddb929190615773565b60206040518083038186803b158015613df357600080fd5b505afa158015613e07573d6000803e3d6000fd5b505050506040513d601f19601f82011682018060405250810190613e2b9190615237565b9050613e35614840565b73ffffffffffffffffffffffffffffffffffffffff1663877034f1338a8a60006040518563ffffffff1660e01b8152600401613e749493929190615894565b600060405180830381600087803b158015613e8e57600080fd5b505af1158015613ea2573d6000803e3d6000fd5b50505050613eb988826149ec90919063ffffffff16565b613ec1614840565b73ffffffffffffffffffffffffffffffffffffffff1663498b5ae8338a6040518363ffffffff1660e01b8152600401613efb929190615773565b60206040518083038186803b158015613f1357600080fd5b505afa158015613f27573d6000803e3d6000fd5b505050506040513d601f19601f82011682018060405250810190613f4b9190615237565b14613f5257fe5b8673ffffffffffffffffffffffffffffffffffffffff167f3dd579c60f3ada65727e8d87353e1499f8784809ec65347e9520ee2ea25d337889604051613f989190615be5565b60405180910390a25050505050505050565b600a6020528060005260406000206000915054906101000a900460ff1681565b60098181548110613fda57600080fd5b906000526020600020016000915054906101000a900473ffffffffffffffffffffffffffffffffffffffff1681565b7f000000000000000000000000000000000000000000000000000000000000000081565b600c6020528060005260406000206000915054906101000a900473ffffffffffffffffffffffffffffffffffffffff1681565b600260009054906101000a900473ffffffffffffffffffffffffffffffffffffffff1681565b61408e614e55565b600860008373ffffffffffffffffffffffffffffffffffffffff1673ffffffffffffffffffffffffffffffffffffffff1681526020019081526020016000206040518060800160405290816000820154815260200160018201548152602001600282015481526020016003820154815250509050919050565b60007f000000000000000000000000000000000000000000000000000000000000000073ffffffffffffffffffffffffffffffffffffffff168273ffffffffffffffffffffffffffffffffffffffff16141561416d57670de0b6b3a764000090506142fc565b600073ffffffffffffffffffffffffffffffffffffffff16600c60008473ffffffffffffffffffffffffffffffffffffffff1673ffffffffffffffffffffffffffffffffffffffff16815260200190815260200160002060009054906101000a900473ffffffffffffffffffffffffffffffffffffffff1673ffffffffffffffffffffffffffffffffffffffff16141561421157670de0b6b3a764000090506142fc565b600c60008373ffffffffffffffffffffffffffffffffffffffff1673ffffffffffffffffffffffffffffffffffffffff16815260200190815260200160002060009054906101000a900473ffffffffffffffffffffffffffffffffffffffff1673ffffffffffffffffffffffffffffffffffffffff166337cef791836040518263ffffffff1660e01b81526004016142a99190615722565b60206040518083038186803b1580156142c157600080fd5b505afa1580156142d5573d6000803e3d6000fd5b505050506040513d601f19601f820116820180604052508101906142f99190615237565b90505b919050565b6060600980548060200260200160405190810160405280929190818152602001828054801561438557602002820191906000526020600020905b8160009054906101000a900473ffffffffffffffffffffffffffffffffffffffff1673ffffffffffffffffffffffffffffffffffffffff168152602001906001019080831161433b575b5050505050905090565b614397614838565b73ffffffffffffffffffffffffffffffffffffffff1660008054906101000a900473ffffffffffffffffffffffffffffffffffffffff1673ffffffffffffffffffffffffffffffffffffffff1614614457576040517f08c379a00000000000000000000000000000000000000000000000000000000081526004018080602001828103825260208152602001807f4f776e61626c653a2063616c6c6572206973206e6f7420746865206f776e657281525060200191505060405180910390fd5b600073ffffffffffffffffffffffffffffffffffffffff168273ffffffffffffffffffffffffffffffffffffffff1614156144c7576040517f08c379a00000000000000000000000000000000000000000000000000000000081526004016144be90615b0f565b60405180910390fd5b600073ffffffffffffffffffffffffffffffffffffffff168173ffffffffffffffffffffffffffffffffffffffff161415614537576040517f08c379a000000000000000000000000000000000000000000000000000000000815260040161452e90615b0f565b60405180910390fd5b81600460006101000a81548173ffffffffffffffffffffffffffffffffffffffff021916908373ffffffffffffffffffffffffffffffffffffffff16021790555080600560006101000a81548173ffffffffffffffffffffffffffffffffffffffff021916908373ffffffffffffffffffffffffffffffffffffffff1602179055505050565b600b6020528060005260406000206000915090508060000154908060010154905082565b600560009054906101000a900473ffffffffffffffffffffffffffffffffffffffff1681565b61460f614838565b73ffffffffffffffffffffffffffffffffffffffff1660008054906101000a900473ffffffffffffffffffffffffffffffffffffffff1673ffffffffffffffffffffffffffffffffffffffff16146146cf576040517f08c379a00000000000000000000000000000000000000000000000000000000081526004018080602001828103825260208152602001807f4f776e61626c653a2063616c6c6572206973206e6f7420746865206f776e657281525060200191505060405180910390fd5b600073ffffffffffffffffffffffffffffffffffffffff168173ffffffffffffffffffffffffffffffffffffffff161415614755576040517f08c379a0000000000000000000000000000000000000000000000000000000008152600401808060200182810382526026815260200180615ec06026913960400191505060405180910390fd5b8073ffffffffffffffffffffffffffffffffffffffff1660008054906101000a900473ffffffffffffffffffffffffffffffffffffffff1673ffffffffffffffffffffffffffffffffffffffff167f8be0079c531659141344cd1fd0a4f28419497f9722a3daafe3b4186f6b6457e060405160405180910390a3806000806101000a81548173ffffffffffffffffffffffffffffffffffffffff021916908373ffffffffffffffffffffffffffffffffffffffff16021790555050565b600360009054906101000a900473ffffffffffffffffffffffffffffffffffffffff1681565b600033905090565b6000600460009054906101000a900473ffffffffffffffffffffffffffffffffffffffff16905090565b6000600560009054906101000a900473ffffffffffffffffffffffffffffffffffffffff16905090565b6000808314156148a75760009050614914565b60008284029050828482816148b857fe5b041461490f576040517f08c379a0000000000000000000000000000000000000000000000000000000008152600401808060200182810382526021815260200180615f076021913960400191505060405180910390fd5b809150505b92915050565b600061495c83836040518060400160405280601a81526020017f536166654d6174683a206469766973696f6e206279207a65726f000000000000815250614cb5565b905092915050565b6000808284019050838110156149e2576040517f08c379a000000000000000000000000000000000000000000000000000000000815260040180806020018281038252601b8152602001807f536166654d6174683a206164646974696f6e206f766572666c6f77000000000081525060200191505060405180910390fd5b8091505092915050565b6000614a2e83836040518060400160405280601e81526020017f536166654d6174683a207375627472616374696f6e206f766572666c6f770000815250614d7b565b905092915050565b600080614a4283614107565b90506000614a4e614840565b73ffffffffffffffffffffffffffffffffffffffff1663e75fd0b56040518163ffffffff1660e01b815260040160206040518083038186803b158015614a9357600080fd5b505afa158015614aa7573d6000803e3d6000fd5b505050506040513d601f19601f82011682018060405250810190614acb9190615237565b9050614b20670de0b6b3a7640000614b1284614b046103e8614af6878c61489490919063ffffffff16565b61491a90919063ffffffff16565b61489490919063ffffffff16565b61491a90919063ffffffff16565b92506000614caa614c0a6064614bfc670de0b6b3a7640000614bee614b4361486a565b73ffffffffffffffffffffffffffffffffffffffff1663bcbe3f22338d6040518363ffffffff1660e01b8152600401614b7d929190615773565b60206040518083038186803b158015614b9557600080fd5b505afa158015614ba9573d6000803e3d6000fd5b505050506040513d601f19601f82011682018060405250810190614bcd9190615237565b614be08d8b61489490919063ffffffff16565b61489490919063ffffffff16565b61491a90919063ffffffff16565b61491a90919063ffffffff16565b614c1261486a565b73ffffffffffffffffffffffffffffffffffffffff1663e76ab23933896040518363ffffffff1660e01b8152600401614c4c929190615773565b60206040518083038186803b158015614c6457600080fd5b505afa158015614c78573d6000803e3d6000fd5b505050506040513d601f19601f82011682018060405250810190614c9c9190615237565b61496490919063ffffffff16565b905050505092915050565b60008083118290614d61576040517f08c379a00000000000000000000000000000000000000000000000000000000081526004018080602001828103825283818151815260200191508051906020019080838360005b83811015614d26578082015181840152602081019050614d0b565b50505050905090810190601f168015614d535780820380516001836020036101000a031916815260200191505b509250505060405180910390fd5b506000838581614d6d57fe5b049050809150509392505050565b6000838311158290614e28576040517f08c379a00000000000000000000000000000000000000000000000000000000081526004018080602001828103825283818151815260200191508051906020019080838360005b83811015614ded578082015181840152602081019050614dd2565b50505050905090810190601f168015614e1a5780820380516001836020036101000a031916815260200191505b509250505060405180910390fd5b5060008385039050809150509392505050565b604051806040016040528060008152602001600081525090565b6040518060800160405280600081526020016000815260200160008152602001600081525090565b6000614e90614e8b84615d0d565b615cdc565b90508083825260208201905082856020860282011115614eaf57600080fd5b60005b85811015614edf5781614ec58882614f6a565b845260208401935060208301925050600181019050614eb2565b5050509392505050565b6000614efc614ef784615d39565b615cdc565b90508083825260208201905082856020860282011115614f1b57600080fd5b60005b85811015614f4b5781614f318882614ffd565b845260208401935060208301925050600181019050614f1e565b5050509392505050565b600081359050614f6481615e7a565b92915050565b600081519050614f7981615e7a565b92915050565b600082601f830112614f9057600080fd5b8151614fa0848260208601614e7d565b91505092915050565b600082601f830112614fba57600080fd5b8151614fca848260208601614ee9565b91505092915050565b600081519050614fe281615e91565b92915050565b600081359050614ff781615ea8565b92915050565b60008151905061500c81615ea8565b92915050565b60006020828403121561502457600080fd5b600061503284828501614f55565b91505092915050565b60006020828403121561504d57600080fd5b600061505b84828501614f6a565b91505092915050565b6000806040838503121561507757600080fd5b600061508585828601614f55565b925050602061509685828601614f55565b9150509250929050565b6000806000606084860312156150b557600080fd5b60006150c386828701614f55565b93505060206150d486828701614fe8565b92505060406150e586828701614fe8565b9150509250925092565b600080600080600060a0868803121561510757600080fd5b600061511588828901614f55565b955050602061512688828901614fe8565b945050604061513788828901614fe8565b935050606061514888828901614fe8565b925050608061515988828901614fe8565b9150509295509295909350565b60008060006060848603121561517b57600080fd5b600084015167ffffffffffffffff81111561519557600080fd5b6151a186828701614f7f565b935050602084015167ffffffffffffffff8111156151be57600080fd5b6151ca86828701614fa9565b92505060406151db86828701614fd3565b9150509250925092565b6000602082840312156151f757600080fd5b600061520584828501614fd3565b91505092915050565b60006020828403121561522057600080fd5b600061522e84828501614fe8565b91505092915050565b60006020828403121561524957600080fd5b600061525784828501614ffd565b91505092915050565b600080600080600060a0868803121561527857600080fd5b600061528688828901614fe8565b955050602061529788828901614f55565b94505060406152a888828901614f55565b93505060606152b988828901614f55565b92505060806152ca88828901614fe8565b9150509295509295909350565b600080600080608085870312156152ed57600080fd5b60006152fb87828801614fe8565b945050602061530c87828801614f55565b935050604061531d87828801614f55565b925050606061532e87828801614fe8565b91505092959194509250565b60008060006060848603121561534f57600080fd5b600061535d86828701614fe8565b935050602061536e86828701614f55565b925050604061537f86828701614fe8565b9150509250925092565b600061539583836153d7565b60208301905092915050565b60006153ad8383615704565b60208301905092915050565b6153c281615e42565b82525050565b6153d181615dfa565b82525050565b6153e081615de8565b82525050565b6153ef81615de8565b82525050565b600061540082615d85565b61540a8185615db5565b935061541583615d65565b8060005b8381101561544657815161542d8882615389565b975061543883615d9b565b925050600181019050615419565b5085935050505092915050565b600061545e82615d90565b6154688185615dc6565b935061547383615d75565b8060005b838110156154a457815161548b88826153a1565b975061549683615da8565b925050600181019050615477565b5085935050505092915050565b6154ba81615e0c565b82525050565b60006154cd600283615dd7565b91507f49430000000000000000000000000000000000000000000000000000000000006000830152602082019050919050565b600061550d600283615dd7565b91507f57450000000000000000000000000000000000000000000000000000000000006000830152602082019050919050565b600061554d600283615dd7565b91507f495a0000000000000000000000000000000000000000000000000000000000006000830152602082019050919050565b600061558d600283615dd7565b91507f49460000000000000000000000000000000000000000000000000000000000006000830152602082019050919050565b60006155cd600283615dd7565b91507f43520000000000000000000000000000000000000000000000000000000000006000830152602082019050919050565b600061560d600283615dd7565b91507f49410000000000000000000000000000000000000000000000000000000000006000830152602082019050919050565b600061564d600283615dd7565b91507f43410000000000000000000000000000000000000000000000000000000000006000830152602082019050919050565b6080820160008201516156966000850182615704565b5060208201516156a96020850182615704565b5060408201516156bc6040850182615704565b5060608201516156cf6060850182615704565b50505050565b6040820160008201516156eb6000850182615704565b5060208201516156fe6020850182615704565b50505050565b61570d81615e38565b82525050565b61571c81615e38565b82525050565b600060208201905061573760008301846153e6565b92915050565b600060208201905061575260008301846153b9565b92915050565b600060208201905061576d60008301846153c8565b92915050565b600060408201905061578860008301856153b9565b61579560208301846153e6565b9392505050565b60006060820190506157b160008301866153b9565b6157be60208301856153e6565b6157cb60408301846153e6565b949350505050565b600060a0820190506157e860008301886153b9565b6157f560208301876153e6565b61580260408301866153e6565b61580f6060830185615713565b61581c60808301846153e6565b9695505050505050565b600060408201905061583b60008301856153b9565b6158486020830184615713565b9392505050565b600060808201905061586460008301876153b9565b6158716020830186615713565b61587e60408301856153e6565b61588b60608301846153e6565b95945050505050565b60006080820190506158a960008301876153b9565b6158b66020830186615713565b6158c360408301856153e6565b6158d060608301846154b1565b95945050505050565b60006040820190506158ee60008301856153e6565b6158fb60208301846153e6565b9392505050565b600060a08201905061591760008301886153e6565b61592460208301876153e6565b61593160408301866153b9565b61593e6060830185615713565b61594b60808301846153e6565b9695505050505050565b600060608201905061596a60008301866153e6565b61597760208301856153e6565b6159846040830184615713565b949350505050565b600060a0820190506159a160008301886153e6565b6159ae60208301876153e6565b6159bb6040830186615713565b81810360608301526159cd8185615453565b905081810360808301526159e181846153f5565b90509695505050505050565b6000604082019050615a0260008301856153e6565b615a0f6020830184615713565b9392505050565b6000608082019050615a2b60008301876153e6565b615a386020830186615713565b615a4560408301856153e6565b615a5260608301846154b1565b95945050505050565b60006020820190508181036000830152615a7581846153f5565b905092915050565b60006040820190508181036000830152615a978185615453565b90508181036020830152615aab81846153f5565b90509392505050565b6000602082019050615ac960008301846154b1565b92915050565b60006020820190508181036000830152615ae8816154c0565b9050919050565b60006020820190508181036000830152615b0881615500565b9050919050565b60006020820190508181036000830152615b2881615540565b9050919050565b60006020820190508181036000830152615b4881615580565b9050919050565b60006020820190508181036000830152615b68816155c0565b9050919050565b60006020820190508181036000830152615b8881615600565b9050919050565b60006020820190508181036000830152615ba881615640565b9050919050565b6000608082019050615bc46000830184615680565b92915050565b6000604082019050615bdf60008301846156d5565b92915050565b6000602082019050615bfa6000830184615713565b92915050565b6000606082019050615c156000830186615713565b615c2260208301856153e6565b615c2f60408301846153e6565b949350505050565b6000604082019050615c4c6000830185615713565b615c596020830184615713565b9392505050565b6000606082019050615c756000830186615713565b615c826020830185615713565b615c8f6040830184615713565b949350505050565b6000608082019050615cac6000830187615713565b615cb96020830186615713565b615cc66040830185615713565b615cd36060830184615713565b95945050505050565b6000604051905081810181811067ffffffffffffffff82111715615d0357615d02615e78565b5b8060405250919050565b600067ffffffffffffffff821115615d2857615d27615e78565b5b602082029050602081019050919050565b600067ffffffffffffffff821115615d5457615d53615e78565b5b602082029050602081019050919050565b6000819050602082019050919050565b6000819050602082019050919050565b600081519050919050565b600081519050919050565b6000602082019050919050565b6000602082019050919050565b600082825260208201905092915050565b600082825260208201905092915050565b600082825260208201905092915050565b6000615df382615e18565b9050919050565b6000615e0582615e18565b9050919050565b60008115159050919050565b600073ffffffffffffffffffffffffffffffffffffffff82169050919050565b6000819050919050565b6000615e4d82615e54565b9050919050565b6000615e5f82615e66565b9050919050565b6000615e7182615e18565b9050919050565bfe5b615e8381615de8565b8114615e8e57600080fd5b50565b615e9a81615e0c565b8114615ea557600080fd5b50565b615eb181615e38565b8114615ebc57600080fd5b5056fe4f776e61626c653a206e6577206f776e657220697320746865207a65726f20616464726573735472616e73616374696f6e2068617320657863656564656420646561646c696e65536166654d6174683a206d756c7469706c69636174696f6e206f766572666c6f77a2646970667358221220d6be0b13fea23779ba85d243e94528b58d2ebd83389c6eefea81b8804647933f64736f6c63430007060033",
  "linkReferences": {},
  "deployedLinkReferences": {}
}