{
  "_format": "hh-sol-artifact-1",
  "contractName": "Comptroller",
  "sourceName": "contracts/Bank/Comptroller.sol",
  "abi": [
    {
      "anonymous": false,
      "inputs": [
        {
          "indexed": false,
          "internalType": "address",
          "name": "previousAdmin",
          "type": "address"
        },
        {
          "indexed": false,
          "internalType": "address",
          "name": "newAdmin",
          "type": "address"
        }
      ],
      "name": "AdminChanged",
      "type": "event"
    },
    {
      "anonymous": false,
      "inputs": [
        {
          "indexed": true,
          "internalType": "address",
          "name": "beacon",
          "type": "address"
        }
      ],
      "name": "BeaconUpgraded",
      "type": "event"
    },
    {
      "anonymous": false,
      "inputs": [
        {
          "indexed": false,
          "internalType": "uint256",
          "name": "amountBurned",
          "type": "uint256"
        },
        {
          "indexed": true,
          "internalType": "address",
          "name": "token",
          "type": "address"
        }
      ],
      "name": "BurnToken",
      "type": "event"
    },
    {
      "anonymous": false,
      "inputs": [
        {
          "indexed": false,
          "internalType": "uint256",
          "name": "tokenRate",
          "type": "uint256"
        },
        {
          "indexed": false,
          "internalType": "uint256",
          "name": "amountMinted",
          "type": "uint256"
        },
        {
          "indexed": true,
          "internalType": "address",
          "name": "token",
          "type": "address"
        }
      ],
      "name": "MintToken",
      "type": "event"
    },
    {
      "anonymous": false,
      "inputs": [
        {
          "indexed": true,
          "internalType": "address",
          "name": "previousOwner",
          "type": "address"
        },
        {
          "indexed": true,
          "internalType": "address",
          "name": "newOwner",
          "type": "address"
        }
      ],
      "name": "OwnershipTransferred",
      "type": "event"
    },
    {
      "anonymous": false,
      "inputs": [
        {
          "indexed": true,
          "internalType": "address",
          "name": "implementation",
          "type": "address"
        }
      ],
      "name": "Upgraded",
      "type": "event"
    },
    {
      "inputs": [
        {
          "internalType": "uint256",
          "name": "amount",
          "type": "uint256"
        },
        {
          "internalType": "address",
          "name": "token",
          "type": "address"
        },
        {
          "internalType": "uint256",
          "name": "deadline",
          "type": "uint256"
        }
      ],
      "name": "burn",
      "outputs": [],
      "stateMutability": "nonpayable",
      "type": "function"
    },
    {
      "inputs": [],
      "name": "handleAddress",
      "outputs": [
        {
          "internalType": "address",
          "name": "",
          "type": "address"
        }
      ],
      "stateMutability": "view",
      "type": "function"
    },
    {
      "inputs": [],
      "name": "initialize",
      "outputs": [],
      "stateMutability": "nonpayable",
      "type": "function"
    },
    {
      "inputs": [],
      "name": "minimumMintingAmount",
      "outputs": [
        {
          "internalType": "uint256",
          "name": "",
          "type": "uint256"
        }
      ],
      "stateMutability": "view",
      "type": "function"
    },
    {
      "inputs": [
        {
          "internalType": "uint256",
          "name": "tokenAmount",
          "type": "uint256"
        },
        {
          "internalType": "address",
          "name": "token",
          "type": "address"
        },
        {
          "internalType": "address",
          "name": "collateralToken",
          "type": "address"
        },
        {
          "internalType": "uint256",
          "name": "collateralAmount",
          "type": "uint256"
        },
        {
          "internalType": "uint256",
          "name": "deadline",
          "type": "uint256"
        },
        {
          "internalType": "address",
          "name": "referral",
          "type": "address"
        }
      ],
      "name": "mint",
      "outputs": [],
      "stateMutability": "nonpayable",
      "type": "function"
    },
    {
      "inputs": [
        {
          "internalType": "uint256",
          "name": "tokenAmount",
          "type": "uint256"
        },
        {
          "internalType": "address",
          "name": "token",
          "type": "address"
        },
        {
          "internalType": "uint256",
          "name": "deadline",
          "type": "uint256"
        },
        {
          "internalType": "address",
          "name": "referral",
          "type": "address"
        }
      ],
      "name": "mintWithEth",
      "outputs": [],
      "stateMutability": "payable",
      "type": "function"
    },
    {
      "inputs": [
        {
          "internalType": "uint256",
          "name": "tokenAmount",
          "type": "uint256"
        },
        {
          "internalType": "address",
          "name": "token",
          "type": "address"
        },
        {
          "internalType": "uint256",
          "name": "deadline",
          "type": "uint256"
        },
        {
          "internalType": "address",
          "name": "referral",
          "type": "address"
        }
      ],
      "name": "mintWithoutCollateral",
      "outputs": [],
      "stateMutability": "nonpayable",
      "type": "function"
    },
    {
      "inputs": [],
      "name": "owner",
      "outputs": [
        {
          "internalType": "address",
          "name": "",
          "type": "address"
        }
      ],
      "stateMutability": "view",
      "type": "function"
    },
    {
      "inputs": [],
      "name": "renounceOwnership",
      "outputs": [],
      "stateMutability": "nonpayable",
      "type": "function"
    },
    {
      "inputs": [
        {
          "internalType": "address",
          "name": "_handle",
          "type": "address"
        }
      ],
      "name": "setHandleContract",
      "outputs": [],
      "stateMutability": "nonpayable",
      "type": "function"
    },
    {
      "inputs": [
        {
          "internalType": "uint256",
          "name": "amount",
          "type": "uint256"
        }
      ],
      "name": "setMinimumMintingAmount",
      "outputs": [],
      "stateMutability": "nonpayable",
      "type": "function"
    },
    {
      "inputs": [
        {
          "internalType": "address",
          "name": "newOwner",
          "type": "address"
        }
      ],
      "name": "transferOwnership",
      "outputs": [],
      "stateMutability": "nonpayable",
      "type": "function"
    },
    {
      "inputs": [
        {
          "internalType": "address",
          "name": "newImplementation",
          "type": "address"
        }
      ],
      "name": "upgradeTo",
      "outputs": [],
      "stateMutability": "nonpayable",
      "type": "function"
    },
    {
      "inputs": [
        {
          "internalType": "address",
          "name": "newImplementation",
          "type": "address"
        },
        {
          "internalType": "bytes",
          "name": "data",
          "type": "bytes"
        }
      ],
      "name": "upgradeToAndCall",
      "outputs": [],
      "stateMutability": "payable",
      "type": "function"
    },
    {
      "stateMutability": "payable",
      "type": "receive"
    }
  ],
  "bytecode": "0x608060405234801561001057600080fd5b5061553d806100206000396000f3fe6080604052600436106100e15760003560e01c80638129fc1c1161007f5780639b1c414f116100595780639b1c414f146102e05780639eea5f6614610309578063a1e34fb114610332578063f2fde38b1461034e5761016c565b80638129fc1c14610275578063861a8a5b1461028c5780638da5cb5b146102b55761016c565b8063422ca4b7116100bb578063422ca4b7146101ee5780634f1ef28614610217578063715018a61461023357806374bf578b1461024a5761016c565b8063282f31cc146101715780633659cfe61461019a5780633fad191b146101c35761016c565b3661016c5760fe60009054906101000a900473ffffffffffffffffffffffffffffffffffffffff1673ffffffffffffffffffffffffffffffffffffffff163373ffffffffffffffffffffffffffffffffffffffff161461016a577f4e487b7100000000000000000000000000000000000000000000000000000000600052600160045260246000fd5b005b600080fd5b34801561017d57600080fd5b5061019860048036038101906101939190614516565b610377565b005b3480156101a657600080fd5b506101c160048036038101906101bc91906143b2565b6103fd565b005b3480156101cf57600080fd5b506101d8610424565b6040516101e59190614d5e565b60405180910390f35b3480156101fa57600080fd5b5061021560048036038101906102109190614568565b61042a565b005b610231600480360381019061022c919061442d565b6106e1565b005b34801561023f57600080fd5b506102486106fa565b005b34801561025657600080fd5b5061025f610837565b60405161026c919061495e565b60405180910390f35b34801561028157600080fd5b5061028a610861565b005b34801561029857600080fd5b506102b360048036038101906102ae9190614640565b610952565b005b3480156102c157600080fd5b506102ca610fc5565b6040516102d7919061495e565b60405180910390f35b3480156102ec57600080fd5b50610307600480360381019061030291906143b2565b610fef565b005b34801561031557600080fd5b50610330600480360381019061032b91906145f1565b61134f565b005b61034c60048036038101906103479190614640565b612023565b005b34801561035a57600080fd5b50610375600480360381019061037091906143b2565b6123bd565b005b61037f612569565b73ffffffffffffffffffffffffffffffffffffffff1661039d610fc5565b73ffffffffffffffffffffffffffffffffffffffff16146103f3576040517f08c379a00000000000000000000000000000000000000000000000000000000081526004016103ea90614cde565b60405180910390fd5b8060ff8190555050565b61040681612571565b610421816040518060200160405280600081525060006125f0565b50565b60ff5481565b818042111561046e576040517f08c379a000000000000000000000000000000000000000000000000000000000815260040161046590614c1e565b60405180910390fd5b600260c95414156104b4576040517f08c379a00000000000000000000000000000000000000000000000000000000081526004016104ab90614d3e565b60405180910390fd5b600260c98190555060fb60009054906101000a900473ffffffffffffffffffffffffffffffffffffffff1673ffffffffffffffffffffffffffffffffffffffff1663803c97b3866040518263ffffffff1660e01b8152600401610517919061495e565b60206040518083038186803b15801561052f57600080fd5b505afa158015610543573d6000803e3d6000fd5b505050506040513d601f19601f8201168201806040525081019061056791906144ed565b6105a6576040517f08c379a000000000000000000000000000000000000000000000000000000000815260040161059d90614b9e565b60405180910390fd5b6000871180156105b65750600084115b6105f5576040517f08c379a00000000000000000000000000000000000000000000000000000000081526004016105ec90614c9e565b60405180910390fd5b8473ffffffffffffffffffffffffffffffffffffffff166323b872dd3330876040518463ffffffff1660e01b815260040161063293929190614a11565b602060405180830381600087803b15801561064c57600080fd5b505af1158015610660573d6000803e3d6000fd5b505050506040513d601f19601f8201168201806040525081019061068491906144ed565b6106c3576040517f08c379a00000000000000000000000000000000000000000000000000000000081526004016106ba90614cfe565b60405180910390fd5b6106d08787878786612804565b600160c98190555050505050505050565b6106ea82612571565b6106f6828260016125f0565b5050565b610702612569565b73ffffffffffffffffffffffffffffffffffffffff16610720610fc5565b73ffffffffffffffffffffffffffffffffffffffff1614610776576040517f08c379a000000000000000000000000000000000000000000000000000000000815260040161076d90614cde565b60405180910390fd5b600073ffffffffffffffffffffffffffffffffffffffff16609760009054906101000a900473ffffffffffffffffffffffffffffffffffffffff1673ffffffffffffffffffffffffffffffffffffffff167f8be0079c531659141344cd1fd0a4f28419497f9722a3daafe3b4186f6b6457e060405160405180910390a36000609760006101000a81548173ffffffffffffffffffffffffffffffffffffffff021916908373ffffffffffffffffffffffffffffffffffffffff160217905550565b600060fb60009054906101000a900473ffffffffffffffffffffffffffffffffffffffff16905090565b600060019054906101000a900460ff1680610887575060008054906101000a900460ff16155b6108c6576040517f08c379a00000000000000000000000000000000000000000000000000000000081526004016108bd90614c7e565b60405180910390fd5b60008060019054906101000a900460ff161590508015610916576001600060016101000a81548160ff02191690831515021790555060016000806101000a81548160ff0219169083151502179055505b61091e612dbb565b610926612ea4565b61092e612f8d565b801561094f5760008060016101000a81548160ff0219169083151502179055505b50565b8180421115610996576040517f08c379a000000000000000000000000000000000000000000000000000000000815260040161098d90614c1e565b60405180910390fd5b8360fb60009054906101000a900473ffffffffffffffffffffffffffffffffffffffff1673ffffffffffffffffffffffffffffffffffffffff1663a0f026ff826040518263ffffffff1660e01b81526004016109f2919061495e565b60206040518083038186803b158015610a0a57600080fd5b505afa158015610a1e573d6000803e3d6000fd5b505050506040513d601f19601f82011682018060405250810190610a4291906144ed565b610a81576040517f08c379a0000000000000000000000000000000000000000000000000000000008152600401610a7890614c3e565b60405180910390fd5b60008611610ac4576040517f08c379a0000000000000000000000000000000000000000000000000000000008152600401610abb90614c9e565b60405180910390fd5b600060fb60009054906101000a900473ffffffffffffffffffffffffffffffffffffffff1673ffffffffffffffffffffffffffffffffffffffff1663d02641a0876040518263ffffffff1660e01b8152600401610b21919061495e565b60206040518083038186803b158015610b3957600080fd5b505afa158015610b4d573d6000803e3d6000fd5b505050506040513d601f19601f82011682018060405250810190610b71919061453f565b9050610b813387838a600161306e565b610b8b3385613266565b60fb60009054906101000a900473ffffffffffffffffffffffffffffffffffffffff1673ffffffffffffffffffffffffffffffffffffffff1663c392f7666040518163ffffffff1660e01b815260040160206040518083038186803b158015610bf357600080fd5b505afa158015610c07573d6000803e3d6000fd5b505050506040513d601f19601f82011682018060405250810190610c2b91906143db565b73ffffffffffffffffffffffffffffffffffffffff16634342fef56040518163ffffffff1660e01b8152600401600060405180830381600087803b158015610c7257600080fd5b505af1158015610c86573d6000803e3d6000fd5b505050506000610d526103e8610d4460fb60009054906101000a900473ffffffffffffffffffffffffffffffffffffffff1673ffffffffffffffffffffffffffffffffffffffff16639931286d6040518163ffffffff1660e01b815260040160206040518083038186803b158015610cfd57600080fd5b505afa158015610d11573d6000803e3d6000fd5b505050506040513d601f19601f82011682018060405250810190610d35919061453f565b8b61337690919063ffffffff16565b61338c90919063ffffffff16565b905060fd60009054906101000a900473ffffffffffffffffffffffffffffffffffffffff1673ffffffffffffffffffffffffffffffffffffffff16639e718d07610da5838b6133a290919063ffffffff16565b60fd60009054906101000a900473ffffffffffffffffffffffffffffffffffffffff1673ffffffffffffffffffffffffffffffffffffffff1663bcbe3f22338c6040518363ffffffff1660e01b8152600401610e02929190614979565b60206040518083038186803b158015610e1a57600080fd5b505afa158015610e2e573d6000803e3d6000fd5b505050506040513d601f19601f82011682018060405250810190610e52919061453f565b856040518463ffffffff1660e01b8152600401610e7193929190614da2565b60206040518083038186803b158015610e8957600080fd5b505afa158015610e9d573d6000803e3d6000fd5b505050506040513d601f19601f82011682018060405250810190610ec1919061453f565b60fd60009054906101000a900473ffffffffffffffffffffffffffffffffffffffff1673ffffffffffffffffffffffffffffffffffffffff1663e76ab239338a6040518363ffffffff1660e01b8152600401610f1e929190614979565b60206040518083038186803b158015610f3657600080fd5b505afa158015610f4a573d6000803e3d6000fd5b505050506040513d601f19601f82011682018060405250810190610f6e919061453f565b1015610faf576040517f08c379a0000000000000000000000000000000000000000000000000000000008152600401610fa690614c5e565b60405180910390fd5b610fbb888884846133b8565b5050505050505050565b6000609760009054906101000a900473ffffffffffffffffffffffffffffffffffffffff16905090565b610ff7612569565b73ffffffffffffffffffffffffffffffffffffffff16611015610fc5565b73ffffffffffffffffffffffffffffffffffffffff161461106b576040517f08c379a000000000000000000000000000000000000000000000000000000000815260040161106290614cde565b60405180910390fd5b8060fb60006101000a81548173ffffffffffffffffffffffffffffffffffffffff021916908373ffffffffffffffffffffffffffffffffffffffff16021790555060fb60009054906101000a900473ffffffffffffffffffffffffffffffffffffffff1673ffffffffffffffffffffffffffffffffffffffff166361d027b36040518163ffffffff1660e01b815260040160206040518083038186803b15801561111457600080fd5b505afa158015611128573d6000803e3d6000fd5b505050506040513d601f19601f8201168201806040525081019061114c9190614404565b60fc60006101000a81548173ffffffffffffffffffffffffffffffffffffffff021916908373ffffffffffffffffffffffffffffffffffffffff16021790555060fb60009054906101000a900473ffffffffffffffffffffffffffffffffffffffff1673ffffffffffffffffffffffffffffffffffffffff1663eb0a8b916040518163ffffffff1660e01b815260040160206040518083038186803b1580156111f457600080fd5b505afa158015611208573d6000803e3d6000fd5b505050506040513d601f19601f8201168201806040525081019061122c91906143db565b60fd60006101000a81548173ffffffffffffffffffffffffffffffffffffffff021916908373ffffffffffffffffffffffffffffffffffffffff16021790555060fb60009054906101000a900473ffffffffffffffffffffffffffffffffffffffff1673ffffffffffffffffffffffffffffffffffffffff1663ad5c46486040518163ffffffff1660e01b815260040160206040518083038186803b1580156112d457600080fd5b505afa1580156112e8573d6000803e3d6000fd5b505050506040513d601f19601f8201168201806040525081019061130c91906143db565b60fe60006101000a81548173ffffffffffffffffffffffffffffffffffffffff021916908373ffffffffffffffffffffffffffffffffffffffff16021790555050565b8080421115611393576040517f08c379a000000000000000000000000000000000000000000000000000000000815260040161138a90614c1e565b60405180910390fd5b8260fb60009054906101000a900473ffffffffffffffffffffffffffffffffffffffff1673ffffffffffffffffffffffffffffffffffffffff1663a0f026ff826040518263ffffffff1660e01b81526004016113ef919061495e565b60206040518083038186803b15801561140757600080fd5b505afa15801561141b573d6000803e3d6000fd5b505050506040513d601f19601f8201168201806040525081019061143f91906144ed565b61147e576040517f08c379a000000000000000000000000000000000000000000000000000000000815260040161147590614c3e565b60405180910390fd5b611486610837565b73ffffffffffffffffffffffffffffffffffffffff1663b187bd266040518163ffffffff1660e01b815260040160206040518083038186803b1580156114cb57600080fd5b505afa1580156114df573d6000803e3d6000fd5b505050506040513d601f19601f8201168201806040525081019061150391906144ed565b15611543576040517f08c379a000000000000000000000000000000000000000000000000000000000815260040161153a90614b7e565b60405180910390fd5b60008511611586576040517f08c379a000000000000000000000000000000000000000000000000000000000815260040161157d90614c9e565b60405180910390fd5b848473ffffffffffffffffffffffffffffffffffffffff166370a08231336040518263ffffffff1660e01b81526004016115c0919061495e565b60206040518083038186803b1580156115d857600080fd5b505afa1580156115ec573d6000803e3d6000fd5b505050506040513d601f19601f82011682018060405250810190611610919061453f565b1015611651576040517f08c379a000000000000000000000000000000000000000000000000000000000815260040161164890614c9e565b60405180910390fd5b600060fb60009054906101000a900473ffffffffffffffffffffffffffffffffffffffff1673ffffffffffffffffffffffffffffffffffffffff1663d02641a0866040518263ffffffff1660e01b81526004016116ae919061495e565b60206040518083038186803b1580156116c657600080fd5b505afa1580156116da573d6000803e3d6000fd5b505050506040513d601f19601f820116820180604052508101906116fe919061453f565b9050600060fb60009054906101000a900473ffffffffffffffffffffffffffffffffffffffff1673ffffffffffffffffffffffffffffffffffffffff1663498b5ae833886040518363ffffffff1660e01b815260040161175f929190614979565b60206040518083038186803b15801561177757600080fd5b505afa15801561178b573d6000803e3d6000fd5b505050506040513d601f19601f820116820180604052508101906117af919061453f565b9050808711156117bd578096505b8087146117d3576117d23387848a600061306e565b5b5060fb60009054906101000a900473ffffffffffffffffffffffffffffffffffffffff1673ffffffffffffffffffffffffffffffffffffffff1663c392f7666040518163ffffffff1660e01b815260040160206040518083038186803b15801561183c57600080fd5b505afa158015611850573d6000803e3d6000fd5b505050506040513d601f19601f8201168201806040525081019061187491906143db565b73ffffffffffffffffffffffffffffffffffffffff16634342fef56040518163ffffffff1660e01b8152600401600060405180830381600087803b1580156118bb57600080fd5b505af11580156118cf573d6000803e3d6000fd5b5050505060008573ffffffffffffffffffffffffffffffffffffffff166370a08231336040518263ffffffff1660e01b815260040161190e919061495e565b60206040518083038186803b15801561192657600080fd5b505afa15801561193a573d6000803e3d6000fd5b505050506040513d601f19601f8201168201806040525081019061195e919061453f565b90506000611af660fd60009054906101000a900473ffffffffffffffffffffffffffffffffffffffff1673ffffffffffffffffffffffffffffffffffffffff166380ef72a9896040518263ffffffff1660e01b81526004016119c0919061495e565b60206040518083038186803b1580156119d857600080fd5b505afa1580156119ec573d6000803e3d6000fd5b505050506040513d601f19601f82011682018060405250810190611a10919061453f565b611ae885611ada6103e8611acc60fb60009054906101000a900473ffffffffffffffffffffffffffffffffffffffff1673ffffffffffffffffffffffffffffffffffffffff1663e75fd0b56040518163ffffffff1660e01b815260040160206040518083038186803b158015611a8557600080fd5b505afa158015611a99573d6000803e3d6000fd5b505050506040513d601f19601f82011682018060405250810190611abd919061453f565b8f61337690919063ffffffff16565b61338c90919063ffffffff16565b61337690919063ffffffff16565b61338c90919063ffffffff16565b905060fc60009054906101000a900473ffffffffffffffffffffffffffffffffffffffff1673ffffffffffffffffffffffffffffffffffffffff1663eb2266fc3360fb60009054906101000a900473ffffffffffffffffffffffffffffffffffffffff1673ffffffffffffffffffffffffffffffffffffffff1663ec94578e6040518163ffffffff1660e01b815260040160206040518083038186803b158015611b9f57600080fd5b505afa158015611bb3573d6000803e3d6000fd5b505050506040513d601f19601f82011682018060405250810190611bd791906143db565b848b60016040518663ffffffff1660e01b8152600401611bfb959493929190614a48565b600060405180830381600087803b158015611c1557600080fd5b505af1158015611c29573d6000803e3d6000fd5b505050506040513d6000823e3d601f19601f82011682018060405250810190611c529190614481565b50508673ffffffffffffffffffffffffffffffffffffffff16639dc29fac338a6040518363ffffffff1660e01b8152600401611c8f929190614a9b565b600060405180830381600087803b158015611ca957600080fd5b505af1158015611cbd573d6000803e3d6000fd5b50505050611cd48883613a1a90919063ffffffff16565b8773ffffffffffffffffffffffffffffffffffffffff166370a08231336040518263ffffffff1660e01b8152600401611d0d919061495e565b60206040518083038186803b158015611d2557600080fd5b505afa158015611d39573d6000803e3d6000fd5b505050506040513d601f19601f82011682018060405250810190611d5d919061453f565b14611d91577f4e487b7100000000000000000000000000000000000000000000000000000000600052600160045260246000fd5b600060fb60009054906101000a900473ffffffffffffffffffffffffffffffffffffffff1673ffffffffffffffffffffffffffffffffffffffff1663498b5ae8338a6040518363ffffffff1660e01b8152600401611df0929190614979565b60206040518083038186803b158015611e0857600080fd5b505afa158015611e1c573d6000803e3d6000fd5b505050506040513d601f19601f82011682018060405250810190611e40919061453f565b905060fb60009054906101000a900473ffffffffffffffffffffffffffffffffffffffff1673ffffffffffffffffffffffffffffffffffffffff1663877034f1338b8b60006040518563ffffffff1660e01b8152600401611ea49493929190614b17565b600060405180830381600087803b158015611ebe57600080fd5b505af1158015611ed2573d6000803e3d6000fd5b50505050611ee98982613a1a90919063ffffffff16565b60fb60009054906101000a900473ffffffffffffffffffffffffffffffffffffffff1673ffffffffffffffffffffffffffffffffffffffff1663498b5ae8338b6040518363ffffffff1660e01b8152600401611f46929190614979565b60206040518083038186803b158015611f5e57600080fd5b505afa158015611f72573d6000803e3d6000fd5b505050506040513d601f19601f82011682018060405250810190611f96919061453f565b14611fca577f4e487b7100000000000000000000000000000000000000000000000000000000600052600160045260246000fd5b8773ffffffffffffffffffffffffffffffffffffffff167f3dd579c60f3ada65727e8d87353e1499f8784809ec65347e9520ee2ea25d33788a6040516120109190614d5e565b60405180910390a2505050505050505050565b8180421115612067576040517f08c379a000000000000000000000000000000000000000000000000000000000815260040161205e90614c1e565b60405180910390fd5b8360fb60009054906101000a900473ffffffffffffffffffffffffffffffffffffffff1673ffffffffffffffffffffffffffffffffffffffff1663a0f026ff826040518263ffffffff1660e01b81526004016120c3919061495e565b60206040518083038186803b1580156120db57600080fd5b505afa1580156120ef573d6000803e3d6000fd5b505050506040513d601f19601f8201168201806040525081019061211391906144ed565b612152576040517f08c379a000000000000000000000000000000000000000000000000000000000815260040161214990614c3e565b60405180910390fd5b600260c9541415612198576040517f08c379a000000000000000000000000000000000000000000000000000000000815260040161218f90614d3e565b60405180910390fd5b600260c98190555060fb60009054906101000a900473ffffffffffffffffffffffffffffffffffffffff1673ffffffffffffffffffffffffffffffffffffffff1663803c97b360fe60009054906101000a900473ffffffffffffffffffffffffffffffffffffffff166040518263ffffffff1660e01b815260040161221d919061495e565b60206040518083038186803b15801561223557600080fd5b505afa158015612249573d6000803e3d6000fd5b505050506040513d601f19601f8201168201806040525081019061226d91906144ed565b6122ac576040517f08c379a00000000000000000000000000000000000000000000000000000000081526004016122a390614bfe565b60405180910390fd5b6000861180156122bc5750600034115b6122fb576040517f08c379a00000000000000000000000000000000000000000000000000000000081526004016122f290614c9e565b60405180910390fd5b60fe60009054906101000a900473ffffffffffffffffffffffffffffffffffffffff1673ffffffffffffffffffffffffffffffffffffffff1663d0e30db0346040518263ffffffff1660e01b81526004016000604051808303818588803b15801561236557600080fd5b505af1158015612379573d6000803e3d6000fd5b50505050506123ad868660fe60009054906101000a900473ffffffffffffffffffffffffffffffffffffffff163487612804565b600160c981905550505050505050565b6123c5612569565b73ffffffffffffffffffffffffffffffffffffffff166123e3610fc5565b73ffffffffffffffffffffffffffffffffffffffff1614612439576040517f08c379a000000000000000000000000000000000000000000000000000000000815260040161243090614cde565b60405180910390fd5b600073ffffffffffffffffffffffffffffffffffffffff168173ffffffffffffffffffffffffffffffffffffffff1614156124a9576040517f08c379a00000000000000000000000000000000000000000000000000000000081526004016124a090614bde565b60405180910390fd5b8073ffffffffffffffffffffffffffffffffffffffff16609760009054906101000a900473ffffffffffffffffffffffffffffffffffffffff1673ffffffffffffffffffffffffffffffffffffffff167f8be0079c531659141344cd1fd0a4f28419497f9722a3daafe3b4186f6b6457e060405160405180910390a380609760006101000a81548173ffffffffffffffffffffffffffffffffffffffff021916908373ffffffffffffffffffffffffffffffffffffffff16021790555050565b600033905090565b612579612569565b73ffffffffffffffffffffffffffffffffffffffff16612597610fc5565b73ffffffffffffffffffffffffffffffffffffffff16146125ed576040517f08c379a00000000000000000000000000000000000000000000000000000000081526004016125e490614cde565b60405180910390fd5b50565b60006125fa613a30565b905061260584613a87565b6000835111806126125750815b15612623576126218484613b40565b505b60006126517f4910fdfa16fed3260ed0e7147f7cc6da11a60208b5b9406d12a635614ffd914360001b613c24565b90508060000160009054906101000a900460ff166127fd5760018160000160006101000a81548160ff02191690831515021790555061271d858360405160240161269b919061495e565b6040516020818303038152906040527f3659cfe6000000000000000000000000000000000000000000000000000000007bffffffffffffffffffffffffffffffffffffffffffffffffffffffff19166020820180517bffffffffffffffffffffffffffffffffffffffffffffffffffffffff8381831617835250505050613b40565b5060008160000160006101000a81548160ff021916908315150217905550612743613a30565b73ffffffffffffffffffffffffffffffffffffffff168273ffffffffffffffffffffffffffffffffffffffff16146127b0576040517f08c379a00000000000000000000000000000000000000000000000000000000081526004016127a790614bbe565b60405180910390fd5b6127b985613a87565b8473ffffffffffffffffffffffffffffffffffffffff167fbc7cd75a20ee27fd9adebab32041f755214dbc6bffa90cc0225b39da2e5c2d3b60405160405180910390a25b5050505050565b8273ffffffffffffffffffffffffffffffffffffffff1663095ea7b360fc60009054906101000a900473ffffffffffffffffffffffffffffffffffffffff16846040518363ffffffff1660e01b8152600401612861929190614a9b565b602060405180830381600087803b15801561287b57600080fd5b505af115801561288f573d6000803e3d6000fd5b505050506040513d601f19601f820116820180604052508101906128b391906144ed565b6128e6577f4e487b7100000000000000000000000000000000000000000000000000000000600052600160045260246000fd5b60006129ae6103e86129a060fb60009054906101000a900473ffffffffffffffffffffffffffffffffffffffff1673ffffffffffffffffffffffffffffffffffffffff16639931286d6040518163ffffffff1660e01b815260040160206040518083038186803b15801561295957600080fd5b505afa15801561296d573d6000803e3d6000fd5b505050506040513d601f19601f82011682018060405250810190612991919061453f565b8961337690919063ffffffff16565b61338c90919063ffffffff16565b90506000612a786103e8612a6a60fb60009054906101000a900473ffffffffffffffffffffffffffffffffffffffff1673ffffffffffffffffffffffffffffffffffffffff16639df5138a6040518163ffffffff1660e01b815260040160206040518083038186803b158015612a2357600080fd5b505afa158015612a37573d6000803e3d6000fd5b505050506040513d601f19601f82011682018060405250810190612a5b919061453f565b8761337690919063ffffffff16565b61338c90919063ffffffff16565b9050612a8d8185613a1a90919063ffffffff16565b9350600060fb60009054906101000a900473ffffffffffffffffffffffffffffffffffffffff1673ffffffffffffffffffffffffffffffffffffffff1663d02641a0886040518263ffffffff1660e01b8152600401612aec919061495e565b60206040518083038186803b158015612b0457600080fd5b505afa158015612b18573d6000803e3d6000fd5b505050506040513d601f19601f82011682018060405250810190612b3c919061453f565b9050612b4c3388838b600161306e565b60fd60009054906101000a900473ffffffffffffffffffffffffffffffffffffffff1673ffffffffffffffffffffffffffffffffffffffff1663e279962333898989612ba1898f6133a290919063ffffffff16565b8760fb60009054906101000a900473ffffffffffffffffffffffffffffffffffffffff1673ffffffffffffffffffffffffffffffffffffffff1663d02641a08f6040518263ffffffff1660e01b8152600401612bfd919061495e565b60206040518083038186803b158015612c1557600080fd5b505afa158015612c29573d6000803e3d6000fd5b505050506040513d601f19601f82011682018060405250810190612c4d919061453f565b6040518863ffffffff1660e01b8152600401612c6f97969594939291906149a2565b60206040518083038186803b158015612c8757600080fd5b505afa158015612c9b573d6000803e3d6000fd5b505050506040513d601f19601f82011682018060405250810190612cbf91906144ed565b612cfe576040517f08c379a0000000000000000000000000000000000000000000000000000000008152600401612cf590614c5e565b60405180910390fd5b60fc60009054906101000a900473ffffffffffffffffffffffffffffffffffffffff1673ffffffffffffffffffffffffffffffffffffffff1663ffda4da433612d5085896133a290919063ffffffff16565b898b896040518663ffffffff1660e01b8152600401612d73959493929190614ac4565b600060405180830381600087803b158015612d8d57600080fd5b505af1158015612da1573d6000803e3d6000fd5b50505050612db1888883866133b8565b5050505050505050565b600060019054906101000a900460ff1680612de1575060008054906101000a900460ff16155b612e20576040517f08c379a0000000000000000000000000000000000000000000000000000000008152600401612e1790614c7e565b60405180910390fd5b60008060019054906101000a900460ff161590508015612e70576001600060016101000a81548160ff02191690831515021790555060016000806101000a81548160ff0219169083151502179055505b612e78613c2e565b612e80613d07565b8015612ea15760008060016101000a81548160ff0219169083151502179055505b50565b600060019054906101000a900460ff1680612eca575060008054906101000a900460ff16155b612f09576040517f08c379a0000000000000000000000000000000000000000000000000000000008152600401612f0090614c7e565b60405180910390fd5b60008060019054906101000a900460ff161590508015612f59576001600060016101000a81548160ff02191690831515021790555060016000806101000a81548160ff0219169083151502179055505b612f61613de0565b612f69613eb9565b8015612f8a5760008060016101000a81548160ff0219169083151502179055505b50565b600060019054906101000a900460ff1680612fb3575060008054906101000a900460ff16155b612ff2576040517f08c379a0000000000000000000000000000000000000000000000000000000008152600401612fe990614c7e565b60405180910390fd5b60008060019054906101000a900460ff161590508015613042576001600060016101000a81548160ff02191690831515021790555060016000806101000a81548160ff0219169083151502179055505b61304a61403b565b801561306b5760008060016101000a81548160ff0219169083151502179055505b50565b600060ff54141561307e5761325f565b600060fb60009054906101000a900473ffffffffffffffffffffffffffffffffffffffff1673ffffffffffffffffffffffffffffffffffffffff1663a300733d87876040518363ffffffff1660e01b81526004016130dd929190614979565b60206040518083038186803b1580156130f557600080fd5b505afa158015613109573d6000803e3d6000fd5b505050506040513d601f19601f8201168201806040525081019061312d919061453f565b9050811561314f5761314883826133a290919063ffffffff16565b90506131a7565b828111613191576040517f08c379a000000000000000000000000000000000000000000000000000000000815260040161318890614c9e565b60405180910390fd5b6131a48382613a1a90919063ffffffff16565b90505b60006131d8856131ca670de0b6b3a764000060ff5461337690919063ffffffff16565b61338c90919063ffffffff16565b9050600068056bc75e2d6310000090508081600183856131f89190614eb9565b6132029190614f9a565b61320c9190614f0f565b6132169190614f40565b91508183101561325b576040517f08c379a000000000000000000000000000000000000000000000000000000000815260040161325290614c9e565b60405180910390fd5b5050505b5050505050565b60fb60009054906101000a900473ffffffffffffffffffffffffffffffffffffffff1673ffffffffffffffffffffffffffffffffffffffff16631441a5a96040518163ffffffff1660e01b815260040160206040518083038186803b1580156132ce57600080fd5b505afa1580156132e2573d6000803e3d6000fd5b505050506040513d601f19601f8201168201806040525081019061330691906143db565b73ffffffffffffffffffffffffffffffffffffffff16637543e3f083836040518363ffffffff1660e01b8152600401613340929190614979565b600060405180830381600087803b15801561335a57600080fd5b505af115801561336e573d6000803e3d6000fd5b505050505050565b600081836133849190614f40565b905092915050565b6000818361339a9190614f0f565b905092915050565b600081836133b09190614eb9565b905092915050565b6133c0610837565b73ffffffffffffffffffffffffffffffffffffffff1663b187bd266040518163ffffffff1660e01b815260040160206040518083038186803b15801561340557600080fd5b505afa158015613419573d6000803e3d6000fd5b505050506040513d601f19601f8201168201806040525081019061343d91906144ed565b1561347d576040517f08c379a000000000000000000000000000000000000000000000000000000000815260040161347490614b7e565b60405180910390fd5b60008373ffffffffffffffffffffffffffffffffffffffff166370a08231336040518263ffffffff1660e01b81526004016134b8919061495e565b60206040518083038186803b1580156134d057600080fd5b505afa1580156134e4573d6000803e3d6000fd5b505050506040513d601f19601f82011682018060405250810190613508919061453f565b90508373ffffffffffffffffffffffffffffffffffffffff166340c10f1933876040518363ffffffff1660e01b8152600401613545929190614a9b565b600060405180830381600087803b15801561355f57600080fd5b505af1158015613573573d6000803e3d6000fd5b505050508373ffffffffffffffffffffffffffffffffffffffff166340c10f1960fb60009054906101000a900473ffffffffffffffffffffffffffffffffffffffff1673ffffffffffffffffffffffffffffffffffffffff1663ec94578e6040518163ffffffff1660e01b815260040160206040518083038186803b1580156135fb57600080fd5b505afa15801561360f573d6000803e3d6000fd5b505050506040513d601f19601f8201168201806040525081019061363391906143db565b846040518363ffffffff1660e01b8152600401613651929190614a9b565b600060405180830381600087803b15801561366b57600080fd5b505af115801561367f573d6000803e3d6000fd5b5050505061369685826133a290919063ffffffff16565b8473ffffffffffffffffffffffffffffffffffffffff166370a08231336040518263ffffffff1660e01b81526004016136cf919061495e565b60206040518083038186803b1580156136e757600080fd5b505afa1580156136fb573d6000803e3d6000fd5b505050506040513d601f19601f8201168201806040525081019061371f919061453f565b14613753577f4e487b7100000000000000000000000000000000000000000000000000000000600052600160045260246000fd5b600060fb60009054906101000a900473ffffffffffffffffffffffffffffffffffffffff1673ffffffffffffffffffffffffffffffffffffffff1663498b5ae833876040518363ffffffff1660e01b81526004016137b2929190614979565b60206040518083038186803b1580156137ca57600080fd5b505afa1580156137de573d6000803e3d6000fd5b505050506040513d601f19601f82011682018060405250810190613802919061453f565b905060fb60009054906101000a900473ffffffffffffffffffffffffffffffffffffffff1673ffffffffffffffffffffffffffffffffffffffff1663877034f133613856868a6133a290919063ffffffff16565b8860016040518563ffffffff1660e01b81526004016138789493929190614b17565b600060405180830381600087803b15801561389257600080fd5b505af11580156138a6573d6000803e3d6000fd5b5050505060fb60009054906101000a900473ffffffffffffffffffffffffffffffffffffffff1673ffffffffffffffffffffffffffffffffffffffff1663498b5ae833876040518363ffffffff1660e01b8152600401613907929190614979565b60206040518083038186803b15801561391f57600080fd5b505afa158015613933573d6000803e3d6000fd5b505050506040513d601f19601f82011682018060405250810190613957919061453f565b61397c8461396e89856133a290919063ffffffff16565b6133a290919063ffffffff16565b146139b0577f4e487b7100000000000000000000000000000000000000000000000000000000600052600160045260246000fd5b8473ffffffffffffffffffffffffffffffffffffffff167fb4a4751ef6a44118d02c7f8772a09a847f35ae4293a6c73ffc21039b80635682856139fc868a6133a290919063ffffffff16565b604051613a0a929190614d79565b60405180910390a2505050505050565b60008183613a289190614f9a565b905092915050565b6000613a5e7f360894a13ba1a3210667c828492db98dca3e2076cc3735a920a3ca505d382bbc60001b61411c565b60000160009054906101000a900473ffffffffffffffffffffffffffffffffffffffff16905090565b613a9081614126565b613acf576040517f08c379a0000000000000000000000000000000000000000000000000000000008152600401613ac690614cbe565b60405180910390fd5b80613afc7f360894a13ba1a3210667c828492db98dca3e2076cc3735a920a3ca505d382bbc60001b61411c565b60000160006101000a81548173ffffffffffffffffffffffffffffffffffffffff021916908373ffffffffffffffffffffffffffffffffffffffff16021790555050565b6060613b4b83614126565b613b8a576040517f08c379a0000000000000000000000000000000000000000000000000000000008152600401613b8190614d1e565b60405180910390fd5b6000808473ffffffffffffffffffffffffffffffffffffffff1684604051613bb29190614947565b600060405180830381855af49150503d8060008114613bed576040519150601f19603f3d011682016040523d82523d6000602084013e613bf2565b606091505b5091509150613c1a82826040518060600160405280602781526020016154e160279139614139565b9250505092915050565b6000819050919050565b600060019054906101000a900460ff1680613c54575060008054906101000a900460ff16155b613c93576040517f08c379a0000000000000000000000000000000000000000000000000000000008152600401613c8a90614c7e565b60405180910390fd5b60008060019054906101000a900460ff161590508015613ce3576001600060016101000a81548160ff02191690831515021790555060016000806101000a81548160ff0219169083151502179055505b8015613d045760008060016101000a81548160ff0219169083151502179055505b50565b600060019054906101000a900460ff1680613d2d575060008054906101000a900460ff16155b613d6c576040517f08c379a0000000000000000000000000000000000000000000000000000000008152600401613d6390614c7e565b60405180910390fd5b60008060019054906101000a900460ff161590508015613dbc576001600060016101000a81548160ff02191690831515021790555060016000806101000a81548160ff0219169083151502179055505b8015613ddd5760008060016101000a81548160ff0219169083151502179055505b50565b600060019054906101000a900460ff1680613e06575060008054906101000a900460ff16155b613e45576040517f08c379a0000000000000000000000000000000000000000000000000000000008152600401613e3c90614c7e565b60405180910390fd5b60008060019054906101000a900460ff161590508015613e95576001600060016101000a81548160ff02191690831515021790555060016000806101000a81548160ff0219169083151502179055505b8015613eb65760008060016101000a81548160ff0219169083151502179055505b50565b600060019054906101000a900460ff1680613edf575060008054906101000a900460ff16155b613f1e576040517f08c379a0000000000000000000000000000000000000000000000000000000008152600401613f1590614c7e565b60405180910390fd5b60008060019054906101000a900460ff161590508015613f6e576001600060016101000a81548160ff02191690831515021790555060016000806101000a81548160ff0219169083151502179055505b6000613f78612569565b905080609760006101000a81548173ffffffffffffffffffffffffffffffffffffffff021916908373ffffffffffffffffffffffffffffffffffffffff1602179055508073ffffffffffffffffffffffffffffffffffffffff16600073ffffffffffffffffffffffffffffffffffffffff167f8be0079c531659141344cd1fd0a4f28419497f9722a3daafe3b4186f6b6457e060405160405180910390a35080156140385760008060016101000a81548160ff0219169083151502179055505b50565b600060019054906101000a900460ff1680614061575060008054906101000a900460ff16155b6140a0576040517f08c379a000000000000000000000000000000000000000000000000000000000815260040161409790614c7e565b60405180910390fd5b60008060019054906101000a900460ff1615905080156140f0576001600060016101000a81548160ff02191690831515021790555060016000806101000a81548160ff0219169083151502179055505b600160c98190555080156141195760008060016101000a81548160ff0219169083151502179055505b50565b6000819050919050565b600080823b905060008111915050919050565b6060831561414957829050614199565b60008351111561415c5782518084602001fd5b816040517f08c379a00000000000000000000000000000000000000000000000000000000081526004016141909190614b5c565b60405180910390fd5b9392505050565b60006141b36141ae84614dfe565b614dd9565b905080838252602082019050828560208602820111156141d257600080fd5b60005b8581101561420257816141e888826142cb565b8452602084019350602083019250506001810190506141d5565b5050509392505050565b600061421f61421a84614e2a565b614dd9565b9050808382526020820190508285602086028201111561423e57600080fd5b60005b8581101561426e5781614254888261439d565b845260208401935060208301925050600181019050614241565b5050509392505050565b600061428b61428684614e56565b614dd9565b9050828152602081018484840111156142a357600080fd5b6142ae848285615028565b509392505050565b6000813590506142c581615484565b92915050565b6000815190506142da81615484565b92915050565b6000815190506142ef8161549b565b92915050565b600082601f83011261430657600080fd5b81516143168482602086016141a0565b91505092915050565b600082601f83011261433057600080fd5b815161434084826020860161420c565b91505092915050565b600081519050614358816154b2565b92915050565b600082601f83011261436f57600080fd5b813561437f848260208601614278565b91505092915050565b600081359050614397816154c9565b92915050565b6000815190506143ac816154c9565b92915050565b6000602082840312156143c457600080fd5b60006143d2848285016142b6565b91505092915050565b6000602082840312156143ed57600080fd5b60006143fb848285016142cb565b91505092915050565b60006020828403121561441657600080fd5b6000614424848285016142e0565b91505092915050565b6000806040838503121561444057600080fd5b600061444e858286016142b6565b925050602083013567ffffffffffffffff81111561446b57600080fd5b6144778582860161435e565b9150509250929050565b6000806040838503121561449457600080fd5b600083015167ffffffffffffffff8111156144ae57600080fd5b6144ba858286016142f5565b925050602083015167ffffffffffffffff8111156144d757600080fd5b6144e38582860161431f565b9150509250929050565b6000602082840312156144ff57600080fd5b600061450d84828501614349565b91505092915050565b60006020828403121561452857600080fd5b600061453684828501614388565b91505092915050565b60006020828403121561455157600080fd5b600061455f8482850161439d565b91505092915050565b60008060008060008060c0878903121561458157600080fd5b600061458f89828a01614388565b96505060206145a089828a016142b6565b95505060406145b189828a016142b6565b94505060606145c289828a01614388565b93505060806145d389828a01614388565b92505060a06145e489828a016142b6565b9150509295509295509295565b60008060006060848603121561460657600080fd5b600061461486828701614388565b9350506020614625868287016142b6565b925050604061463686828701614388565b9150509250925092565b6000806000806080858703121561465657600080fd5b600061466487828801614388565b9450506020614675878288016142b6565b935050604061468687828801614388565b9250506060614697878288016142b6565b91505092959194509250565b6146ac81614fce565b82525050565b6146bb81614ff2565b82525050565b60006146cc82614e87565b6146d68185614e9d565b93506146e6818560208601615037565b80840191505092915050565b60006146fd82614e92565b6147078185614ea8565b9350614717818560208601615037565b61472081615128565b840191505092915050565b6000614738600683614ea8565b915061474382615139565b602082019050919050565b600061475b600283614ea8565b915061476682615162565b602082019050919050565b600061477e602f83614ea8565b91506147898261518b565b604082019050919050565b60006147a1602683614ea8565b91506147ac826151da565b604082019050919050565b60006147c4600283614ea8565b91506147cf82615229565b602082019050919050565b60006147e7602183614ea8565b91506147f282615252565b604082019050919050565b600061480a600283614ea8565b9150614815826152a1565b602082019050919050565b600061482d600283614ea8565b9150614838826152ca565b602082019050919050565b6000614850602e83614ea8565b915061485b826152f3565b604082019050919050565b6000614873600283614ea8565b915061487e82615342565b602082019050919050565b6000614896602d83614ea8565b91506148a18261536b565b604082019050919050565b60006148b9602083614ea8565b91506148c4826153ba565b602082019050919050565b60006148dc600283614ea8565b91506148e7826153e3565b602082019050919050565b60006148ff602683614ea8565b915061490a8261540c565b604082019050919050565b6000614922601f83614ea8565b915061492d8261545b565b602082019050919050565b6149418161501e565b82525050565b600061495382846146c1565b915081905092915050565b600060208201905061497360008301846146a3565b92915050565b600060408201905061498e60008301856146a3565b61499b60208301846146a3565b9392505050565b600060e0820190506149b7600083018a6146a3565b6149c460208301896146a3565b6149d160408301886146a3565b6149de6060830187614938565b6149eb6080830186614938565b6149f860a0830185614938565b614a0560c0830184614938565b98975050505050505050565b6000606082019050614a2660008301866146a3565b614a3360208301856146a3565b614a406040830184614938565b949350505050565b600060a082019050614a5d60008301886146a3565b614a6a60208301876146a3565b614a776040830186614938565b614a8460608301856146a3565b614a9160808301846146b2565b9695505050505050565b6000604082019050614ab060008301856146a3565b614abd6020830184614938565b9392505050565b600060a082019050614ad960008301886146a3565b614ae66020830187614938565b614af360408301866146a3565b614b0060608301856146a3565b614b0d60808301846146a3565b9695505050505050565b6000608082019050614b2c60008301876146a3565b614b396020830186614938565b614b4660408301856146a3565b614b5360608301846146b2565b95945050505050565b60006020820190508181036000830152614b7681846146f2565b905092915050565b60006020820190508181036000830152614b978161472b565b9050919050565b60006020820190508181036000830152614bb78161474e565b9050919050565b60006020820190508181036000830152614bd781614771565b9050919050565b60006020820190508181036000830152614bf781614794565b9050919050565b60006020820190508181036000830152614c17816147b7565b9050919050565b60006020820190508181036000830152614c37816147da565b9050919050565b60006020820190508181036000830152614c57816147fd565b9050919050565b60006020820190508181036000830152614c7781614820565b9050919050565b60006020820190508181036000830152614c9781614843565b9050919050565b60006020820190508181036000830152614cb781614866565b9050919050565b60006020820190508181036000830152614cd781614889565b9050919050565b60006020820190508181036000830152614cf7816148ac565b9050919050565b60006020820190508181036000830152614d17816148cf565b9050919050565b60006020820190508181036000830152614d37816148f2565b9050919050565b60006020820190508181036000830152614d5781614915565b9050919050565b6000602082019050614d736000830184614938565b92915050565b6000604082019050614d8e6000830185614938565b614d9b6020830184614938565b9392505050565b6000606082019050614db76000830186614938565b614dc46020830185614938565b614dd16040830184614938565b949350505050565b6000614de3614df4565b9050614def828261506a565b919050565b6000604051905090565b600067ffffffffffffffff821115614e1957614e186150f9565b5b602082029050602081019050919050565b600067ffffffffffffffff821115614e4557614e446150f9565b5b602082029050602081019050919050565b600067ffffffffffffffff821115614e7157614e706150f9565b5b614e7a82615128565b9050602081019050919050565b600081519050919050565b600081519050919050565b600081905092915050565b600082825260208201905092915050565b6000614ec48261501e565b9150614ecf8361501e565b9250827fffffffffffffffffffffffffffffffffffffffffffffffffffffffffffffffff03821115614f0457614f0361509b565b5b828201905092915050565b6000614f1a8261501e565b9150614f258361501e565b925082614f3557614f346150ca565b5b828204905092915050565b6000614f4b8261501e565b9150614f568361501e565b9250817fffffffffffffffffffffffffffffffffffffffffffffffffffffffffffffffff0483118215151615614f8f57614f8e61509b565b5b828202905092915050565b6000614fa58261501e565b9150614fb08361501e565b925082821015614fc357614fc261509b565b5b828203905092915050565b6000614fd982614ffe565b9050919050565b6000614feb82614ffe565b9050919050565b60008115159050919050565b600073ffffffffffffffffffffffffffffffffffffffff82169050919050565b6000819050919050565b82818337600083830152505050565b60005b8381101561505557808201518184015260208101905061503a565b83811115615064576000848401525b50505050565b61507382615128565b810181811067ffffffffffffffff82111715615092576150916150f9565b5b80604052505050565b7f4e487b7100000000000000000000000000000000000000000000000000000000600052601160045260246000fd5b7f4e487b7100000000000000000000000000000000000000000000000000000000600052601260045260246000fd5b7f4e487b7100000000000000000000000000000000000000000000000000000000600052604160045260246000fd5b6000601f19601f8301169050919050565b7f5061757365640000000000000000000000000000000000000000000000000000600082015250565b7f4943000000000000000000000000000000000000000000000000000000000000600082015250565b7f45524331393637557067726164653a207570677261646520627265616b73206660008201527f7572746865722075706772616465730000000000000000000000000000000000602082015250565b7f4f776e61626c653a206e6577206f776e657220697320746865207a65726f206160008201527f6464726573730000000000000000000000000000000000000000000000000000602082015250565b7f5745000000000000000000000000000000000000000000000000000000000000600082015250565b7f5472616e73616374696f6e2068617320657863656564656420646561646c696e60008201527f6500000000000000000000000000000000000000000000000000000000000000602082015250565b7f4946000000000000000000000000000000000000000000000000000000000000600082015250565b7f4352000000000000000000000000000000000000000000000000000000000000600082015250565b7f496e697469616c697a61626c653a20636f6e747261637420697320616c72656160008201527f647920696e697469616c697a6564000000000000000000000000000000000000602082015250565b7f4941000000000000000000000000000000000000000000000000000000000000600082015250565b7f455243313936373a206e657720696d706c656d656e746174696f6e206973206e60008201527f6f74206120636f6e747261637400000000000000000000000000000000000000602082015250565b7f4f776e61626c653a2063616c6c6572206973206e6f7420746865206f776e6572600082015250565b7f4654000000000000000000000000000000000000000000000000000000000000600082015250565b7f416464726573733a2064656c65676174652063616c6c20746f206e6f6e2d636f60008201527f6e74726163740000000000000000000000000000000000000000000000000000602082015250565b7f5265656e7472616e637947756172643a207265656e7472616e742063616c6c00600082015250565b61548d81614fce565b811461549857600080fd5b50565b6154a481614fe0565b81146154af57600080fd5b50565b6154bb81614ff2565b81146154c657600080fd5b50565b6154d28161501e565b81146154dd57600080fd5b5056fe416464726573733a206c6f772d6c6576656c2064656c65676174652063616c6c206661696c6564a26469706673582212204d6e76eee51ccbd04a44a9dc4ce8204896d6cb685e859fe2c87393370a5c5cd564736f6c63430008030033",
  "linkReferences": {},
  "deployedLinkReferences": {}
}