{
  "_format": "hh-sol-artifact-1",
  "contractName": "fxKeeperPool",
  "sourceName": "contracts/Bank/fxKeeperPool.sol",
  "abi": [
    {
      "inputs": [
        {
          "internalType": "address",
          "name": "_comptroller",
          "type": "address"
        }
      ],
      "stateMutability": "nonpayable",
      "type": "constructor"
    },
    {
      "anonymous": false,
      "inputs": [
        {
          "indexed": true,
          "internalType": "address",
          "name": "account",
          "type": "address"
        },
        {
          "indexed": true,
          "internalType": "address",
          "name": "token",
          "type": "address"
        },
        {
          "indexed": false,
          "internalType": "uint256",
          "name": "tokenAmount",
          "type": "uint256"
        }
      ],
      "name": "Liquidate",
      "type": "event"
    },
    {
      "anonymous": false,
      "inputs": [
        {
          "indexed": true,
          "internalType": "address",
          "name": "previousOwner",
          "type": "address"
        },
        {
          "indexed": true,
          "internalType": "address",
          "name": "newOwner",
          "type": "address"
        }
      ],
      "name": "OwnershipTransferred",
      "type": "event"
    },
    {
      "anonymous": false,
      "inputs": [
        {
          "indexed": true,
          "internalType": "address",
          "name": "account",
          "type": "address"
        },
        {
          "indexed": true,
          "internalType": "address",
          "name": "token",
          "type": "address"
        },
        {
          "indexed": false,
          "internalType": "uint256",
          "name": "amount",
          "type": "uint256"
        }
      ],
      "name": "Stake",
      "type": "event"
    },
    {
      "anonymous": false,
      "inputs": [
        {
          "indexed": true,
          "internalType": "address",
          "name": "account",
          "type": "address"
        },
        {
          "indexed": true,
          "internalType": "address",
          "name": "token",
          "type": "address"
        },
        {
          "indexed": false,
          "internalType": "uint256",
          "name": "amount",
          "type": "uint256"
        }
      ],
      "name": "Unstake",
      "type": "event"
    },
    {
      "anonymous": false,
      "inputs": [
        {
          "indexed": true,
          "internalType": "address",
          "name": "account",
          "type": "address"
        },
        {
          "indexed": true,
          "internalType": "address",
          "name": "token",
          "type": "address"
        }
      ],
      "name": "Withdraw",
      "type": "event"
    },
    {
      "inputs": [],
      "name": "DECIMAL_PRECISION",
      "outputs": [
        {
          "internalType": "uint256",
          "name": "",
          "type": "uint256"
        }
      ],
      "stateMutability": "view",
      "type": "function"
    },
    {
      "inputs": [],
      "name": "SCALE_FACTOR",
      "outputs": [
        {
          "internalType": "uint256",
          "name": "",
          "type": "uint256"
        }
      ],
      "stateMutability": "view",
      "type": "function"
    },
    {
      "inputs": [
        {
          "internalType": "address",
          "name": "account",
          "type": "address"
        },
        {
          "internalType": "address",
          "name": "fxToken",
          "type": "address"
        }
      ],
      "name": "balanceOfRewards",
      "outputs": [
        {
          "internalType": "address[]",
          "name": "collateralTypes",
          "type": "address[]"
        },
        {
          "internalType": "uint256[]",
          "name": "collateralAmounts",
          "type": "uint256[]"
        }
      ],
      "stateMutability": "view",
      "type": "function"
    },
    {
      "inputs": [
        {
          "internalType": "address",
          "name": "account",
          "type": "address"
        },
        {
          "internalType": "address",
          "name": "fxToken",
          "type": "address"
        }
      ],
      "name": "balanceOfStake",
      "outputs": [
        {
          "internalType": "uint256",
          "name": "amount",
          "type": "uint256"
        }
      ],
      "stateMutability": "view",
      "type": "function"
    },
    {
      "inputs": [],
      "name": "comptroller",
      "outputs": [
        {
          "internalType": "address",
          "name": "",
          "type": "address"
        }
      ],
      "stateMutability": "view",
      "type": "function"
    },
    {
      "inputs": [
        {
          "internalType": "address",
          "name": "fxToken",
          "type": "address"
        },
        {
          "internalType": "address",
          "name": "collateral",
          "type": "address"
        }
      ],
      "name": "getPoolCollateralBalance",
      "outputs": [
        {
          "internalType": "uint256",
          "name": "amount",
          "type": "uint256"
        }
      ],
      "stateMutability": "view",
      "type": "function"
    },
    {
      "inputs": [
        {
          "internalType": "address",
          "name": "fxToken",
          "type": "address"
        }
      ],
      "name": "getPoolTotalDeposit",
      "outputs": [
        {
          "internalType": "uint256",
          "name": "amount",
          "type": "uint256"
        }
      ],
      "stateMutability": "view",
      "type": "function"
    },
    {
      "inputs": [
        {
          "internalType": "address",
          "name": "account",
          "type": "address"
        },
        {
          "internalType": "address",
          "name": "fxToken",
          "type": "address"
        }
      ],
      "name": "liquidate",
      "outputs": [],
      "stateMutability": "nonpayable",
      "type": "function"
    },
    {
      "inputs": [],
      "name": "owner",
      "outputs": [
        {
          "internalType": "address",
          "name": "",
          "type": "address"
        }
      ],
      "stateMutability": "view",
      "type": "function"
    },
    {
      "inputs": [],
      "name": "renounceOwnership",
      "outputs": [],
      "stateMutability": "nonpayable",
      "type": "function"
    },
    {
      "inputs": [
        {
          "internalType": "address",
          "name": "_comptroller",
          "type": "address"
        }
      ],
      "name": "setComptroller",
      "outputs": [],
      "stateMutability": "nonpayable",
      "type": "function"
    },
    {
      "inputs": [
        {
          "internalType": "address",
          "name": "account",
          "type": "address"
        },
        {
          "internalType": "address",
          "name": "fxToken",
          "type": "address"
        }
      ],
      "name": "shareOf",
      "outputs": [
        {
          "internalType": "uint256",
          "name": "share",
          "type": "uint256"
        }
      ],
      "stateMutability": "view",
      "type": "function"
    },
    {
      "inputs": [
        {
          "internalType": "uint256",
          "name": "amount",
          "type": "uint256"
        },
        {
          "internalType": "address",
          "name": "fxToken",
          "type": "address"
        }
      ],
      "name": "stake",
      "outputs": [],
      "stateMutability": "nonpayable",
      "type": "function"
    },
    {
      "inputs": [
        {
          "internalType": "address",
          "name": "newOwner",
          "type": "address"
        }
      ],
      "name": "transferOwnership",
      "outputs": [],
      "stateMutability": "nonpayable",
      "type": "function"
    },
    {
      "inputs": [
        {
          "internalType": "uint256",
          "name": "amount",
          "type": "uint256"
        },
        {
          "internalType": "address",
          "name": "fxToken",
          "type": "address"
        }
      ],
      "name": "unstake",
      "outputs": [],
      "stateMutability": "nonpayable",
      "type": "function"
    },
    {
      "inputs": [
        {
          "internalType": "address",
          "name": "fxToken",
          "type": "address"
        }
      ],
      "name": "withdrawCollateralReward",
      "outputs": [],
      "stateMutability": "nonpayable",
      "type": "function"
    }
  ],
  "bytecode": "0x60806040523480156200001157600080fd5b50604051620045c3380380620045c3833981810160405281019062000037919062000155565b6000620000496200013660201b60201c565b9050806000806101000a81548173ffffffffffffffffffffffffffffffffffffffff021916908373ffffffffffffffffffffffffffffffffffffffff1602179055508073ffffffffffffffffffffffffffffffffffffffff16600073ffffffffffffffffffffffffffffffffffffffff167f8be0079c531659141344cd1fd0a4f28419497f9722a3daafe3b4186f6b6457e060405160405180910390a3506001808190555080600260006101000a81548173ffffffffffffffffffffffffffffffffffffffff021916908373ffffffffffffffffffffffffffffffffffffffff16021790555050620001cf565b600033905090565b6000815190506200014f81620001b5565b92915050565b6000602082840312156200016857600080fd5b600062000178848285016200013e565b91505092915050565b60006200018e8262000195565b9050919050565b600073ffffffffffffffffffffffffffffffffffffffff82169050919050565b620001c08162000181565b8114620001cc57600080fd5b50565b6143e480620001df6000396000f3fe608060405234801561001057600080fd5b50600436106101005760003560e01c80638da5cb5b11610097578063ce4b5bbe11610066578063ce4b5bbe1461029a578063dde1f9ea146102b8578063ea1e8700146102e8578063f2fde38b1461030457610100565b80638da5cb5b146101fd578063a20baee61461021b578063acd5d45814610239578063ccf37f171461026957610100565b80638381e182116100d35780638381e1821461017957806386b9d81f14610195578063883c95da146101b15780638bad38dd146101e157610100565b80635fe3b56714610105578063715018a6146101235780637acb77571461012d57806382212e3d14610149575b600080fd5b61010d610320565b60405161011a9190613f04565b60405180910390f35b61012b610346565b005b61014760048036038101906101429190613cab565b6104cc565b005b610163600480360381019061015e9190613b04565b61094f565b60405161017091906140d6565b60405180910390f35b610193600480360381019061018e9190613cab565b6109d9565b005b6101af60048036038101906101aa9190613b04565b610d58565b005b6101cb60048036038101906101c69190613a89565b610f3e565b6040516101d891906140d6565b60405180910390f35b6101fb60048036038101906101f69190613a89565b610f8a565b005b610205611096565b6040516102129190613f04565b60405180910390f35b6102236110bf565b60405161023091906140d6565b60405180910390f35b610253600480360381019061024e9190613b04565b6110c7565b60405161026091906140d6565b60405180910390f35b610283600480360381019061027e9190613b04565b61123a565b60405161029192919061403f565b60405180910390f35b6102a26116dc565b6040516102af91906140d6565b60405180910390f35b6102d260048036038101906102cd9190613b04565b6116e4565b6040516102df91906140d6565b60405180910390f35b61030260048036038101906102fd9190613a89565b611a4b565b005b61031e60048036038101906103199190613a89565b611bb1565b005b600260009054906101000a900473ffffffffffffffffffffffffffffffffffffffff1681565b61034e611dbc565b73ffffffffffffffffffffffffffffffffffffffff1660008054906101000a900473ffffffffffffffffffffffffffffffffffffffff1673ffffffffffffffffffffffffffffffffffffffff161461040e576040517f08c379a00000000000000000000000000000000000000000000000000000000081526004018080602001828103825260208152602001807f4f776e61626c653a2063616c6c6572206973206e6f7420746865206f776e657281525060200191505060405180910390fd5b600073ffffffffffffffffffffffffffffffffffffffff1660008054906101000a900473ffffffffffffffffffffffffffffffffffffffff1673ffffffffffffffffffffffffffffffffffffffff167f8be0079c531659141344cd1fd0a4f28419497f9722a3daafe3b4186f6b6457e060405160405180910390a360008060006101000a81548173ffffffffffffffffffffffffffffffffffffffff021916908373ffffffffffffffffffffffffffffffffffffffff160217905550565b806104d5611dc4565b73ffffffffffffffffffffffffffffffffffffffff1663a0f026ff826040518263ffffffff1660e01b815260040161050d9190613f04565b60206040518083038186803b15801561052557600080fd5b505afa158015610539573d6000803e3d6000fd5b505050506040513d601f19601f8201168201806040525081019061055d9190613c59565b61059c576040517f08c379a000000000000000000000000000000000000000000000000000000000815260040161059390614096565b60405180910390fd5b60026001541415610615576040517f08c379a000000000000000000000000000000000000000000000000000000000815260040180806020018281038252601f8152602001807f5265656e7472616e637947756172643a207265656e7472616e742063616c6c0081525060200191505060405180910390fd5b600260018190555061062682611dee565b828273ffffffffffffffffffffffffffffffffffffffff1663dd62ed3e33306040518363ffffffff1660e01b8152600401610662929190613f1f565b60206040518083038186803b15801561067a57600080fd5b505afa15801561068e573d6000803e3d6000fd5b505050506040513d601f19601f820116820180604052508101906106b29190613c82565b10156106f3576040517f08c379a00000000000000000000000000000000000000000000000000000000081526004016106ea90614076565b60405180910390fd5b8173ffffffffffffffffffffffffffffffffffffffff166323b872dd3330866040518463ffffffff1660e01b815260040161073093929190613f48565b602060405180830381600087803b15801561074a57600080fd5b505af115801561075e573d6000803e3d6000fd5b505050506040513d601f19601f820116820180604052508101906107829190613c59565b506107d883600360008573ffffffffffffffffffffffffffffffffffffffff1673ffffffffffffffffffffffffffffffffffffffff16815260200190815260200160002060030154611e9290919063ffffffff16565b600360008473ffffffffffffffffffffffffffffffffffffffff1673ffffffffffffffffffffffffffffffffffffffff168152602001908152602001600020600301819055506000600360008473ffffffffffffffffffffffffffffffffffffffff1673ffffffffffffffffffffffffffffffffffffffff16815260200190815260200160002060000160003373ffffffffffffffffffffffffffffffffffffffff1673ffffffffffffffffffffffffffffffffffffffff168152602001908152602001600020905060006108ad33856116e4565b905060006108c48683611e9290919063ffffffff16565b90506108d1338287611f1a565b6108db33866122aa565b8473ffffffffffffffffffffffffffffffffffffffff163373ffffffffffffffffffffffffffffffffffffffff167f99039fcf0a98f484616c5196ee8b2ecfa971babf0b519848289ea4db381f85f78860405161093891906140d6565b60405180910390a350505060018081905550505050565b6000600360008473ffffffffffffffffffffffffffffffffffffffff1673ffffffffffffffffffffffffffffffffffffffff16815260200190815260200160002060010160008373ffffffffffffffffffffffffffffffffffffffff1673ffffffffffffffffffffffffffffffffffffffff16815260200190815260200160002054905092915050565b806109e2611dc4565b73ffffffffffffffffffffffffffffffffffffffff1663a0f026ff826040518263ffffffff1660e01b8152600401610a1a9190613f04565b60206040518083038186803b158015610a3257600080fd5b505afa158015610a46573d6000803e3d6000fd5b505050506040513d601f19601f82011682018060405250810190610a6a9190613c59565b610aa9576040517f08c379a0000000000000000000000000000000000000000000000000000000008152600401610aa090614096565b60405180910390fd5b60026001541415610b22576040517f08c379a000000000000000000000000000000000000000000000000000000000815260040180806020018281038252601f8152602001807f5265656e7472616e637947756172643a207265656e7472616e742063616c6c0081525060200191505060405180910390fd5b60026001819055506000610b3633846116e4565b905080841115610b44578093505b83600360008573ffffffffffffffffffffffffffffffffffffffff1673ffffffffffffffffffffffffffffffffffffffff168152602001908152602001600020600301541015610b9057fe5b8273ffffffffffffffffffffffffffffffffffffffff1663a9059cbb33866040518363ffffffff1660e01b8152600401610bcb929190613f7f565b602060405180830381600087803b158015610be557600080fd5b505af1158015610bf9573d6000803e3d6000fd5b505050506040513d601f19601f82011682018060405250810190610c1d9190613c59565b50610c7384600360008673ffffffffffffffffffffffffffffffffffffffff1673ffffffffffffffffffffffffffffffffffffffff1681526020019081526020016000206003015461243090919063ffffffff16565b600360008573ffffffffffffffffffffffffffffffffffffffff1673ffffffffffffffffffffffffffffffffffffffff168152602001908152602001600020600301819055506000610cce858361243090919063ffffffff16565b9050610cdb338286611f1a565b610ce533856122aa565b8373ffffffffffffffffffffffffffffffffffffffff163373ffffffffffffffffffffffffffffffffffffffff167f390b1276974b9463e5d66ab10df69b6f3d7b930eb066a0e66df327edd2cc811c87604051610d4291906140d6565b60405180910390a3505060018081905550505050565b80610d61611dc4565b73ffffffffffffffffffffffffffffffffffffffff1663a0f026ff826040518263ffffffff1660e01b8152600401610d999190613f04565b60206040518083038186803b158015610db157600080fd5b505afa158015610dc5573d6000803e3d6000fd5b505050506040513d601f19601f82011682018060405250810190610de99190613c59565b610e28576040517f08c379a0000000000000000000000000000000000000000000000000000000008152600401610e1f90614096565b60405180910390fd5b60026001541415610ea1576040517f08c379a000000000000000000000000000000000000000000000000000000000815260040180806020018281038252601f8152602001807f5265656e7472616e637947756172643a207265656e7472616e742063616c6c0081525060200191505060405180910390fd5b60026001819055506000806000610eb8868661247a565b925092509250610eca83838388612ea7565b8473ffffffffffffffffffffffffffffffffffffffff168673ffffffffffffffffffffffffffffffffffffffff167faef3faf684172084346f7dc2cc3bb1328d1cc23caec12dd9a82d4a4e56c00b1785604051610f2791906140d6565b60405180910390a350505060018081905550505050565b6000600360008373ffffffffffffffffffffffffffffffffffffffff1673ffffffffffffffffffffffffffffffffffffffff168152602001908152602001600020600301549050919050565b610f92611dbc565b73ffffffffffffffffffffffffffffffffffffffff1660008054906101000a900473ffffffffffffffffffffffffffffffffffffffff1673ffffffffffffffffffffffffffffffffffffffff1614611052576040517f08c379a00000000000000000000000000000000000000000000000000000000081526004018080602001828103825260208152602001807f4f776e61626c653a2063616c6c6572206973206e6f7420746865206f776e657281525060200191505060405180910390fd5b80600260006101000a81548173ffffffffffffffffffffffffffffffffffffffff021916908373ffffffffffffffffffffffffffffffffffffffff16021790555050565b60008060009054906101000a900473ffffffffffffffffffffffffffffffffffffffff16905090565b633b9aca0081565b6000816110d2611dc4565b73ffffffffffffffffffffffffffffffffffffffff1663a0f026ff826040518263ffffffff1660e01b815260040161110a9190613f04565b60206040518083038186803b15801561112257600080fd5b505afa158015611136573d6000803e3d6000fd5b505050506040513d601f19601f8201168201806040525081019061115a9190613c59565b611199576040517f08c379a000000000000000000000000000000000000000000000000000000000815260040161119090614096565b60405180910390fd5b6000600360008573ffffffffffffffffffffffffffffffffffffffff1673ffffffffffffffffffffffffffffffffffffffff16815260200190815260200160002060030154905060008114156111f3576000925050611233565b60006111ff86866116e4565b905061122e82611220670de0b6b3a764000084612fc590919063ffffffff16565b61304b90919063ffffffff16565b935050505b5092915050565b60608082611246611dc4565b73ffffffffffffffffffffffffffffffffffffffff1663a0f026ff826040518263ffffffff1660e01b815260040161127e9190613f04565b60206040518083038186803b15801561129657600080fd5b505afa1580156112aa573d6000803e3d6000fd5b505050506040513d601f19601f820116820180604052508101906112ce9190613c59565b61130d576040517f08c379a000000000000000000000000000000000000000000000000000000000815260040161130490614096565b60405180910390fd5b6000600360008673ffffffffffffffffffffffffffffffffffffffff1673ffffffffffffffffffffffffffffffffffffffff168152602001908152602001600020905060008160000160008873ffffffffffffffffffffffffffffffffffffffff1673ffffffffffffffffffffffffffffffffffffffff16815260200190815260200160002060000154905060008260000160008973ffffffffffffffffffffffffffffffffffffffff1673ffffffffffffffffffffffffffffffffffffffff16815260200190815260200160002060010190506113e9611dc4565b73ffffffffffffffffffffffffffffffffffffffff1663294d499e6040518163ffffffff1660e01b815260040160006040518083038186803b15801561142e57600080fd5b505afa158015611442573d6000803e3d6000fd5b505050506040513d6000823e3d601f19601f8201168201806040525081019061146b9190613b40565b9550855167ffffffffffffffff8111801561148557600080fd5b506040519080825280602002602001820160405280156114b45781602001602082028036833780820191505090505b50945060005b86518110156116d05760006115aa8360000160008a85815181106114da57fe5b602002602001015173ffffffffffffffffffffffffffffffffffffffff1673ffffffffffffffffffffffffffffffffffffffff168152602001908152602001600020548660020160008660030154815260200190815260200160002060008660020154815260200190815260200160002060008b868151811061155957fe5b602002602001015173ffffffffffffffffffffffffffffffffffffffff1673ffffffffffffffffffffffffffffffffffffffff1681526020019081526020016000205461243090919063ffffffff16565b90506000611656633b9aca008760020160008760030154815260200190815260200160002060006115e960018960020154611e9290919063ffffffff16565b815260200190815260200160002060008c878151811061160557fe5b602002602001015173ffffffffffffffffffffffffffffffffffffffff1673ffffffffffffffffffffffffffffffffffffffff1681526020019081526020016000205461304b90919063ffffffff16565b90506116a9633b9aca0061169b866001015461168d61167e8688611e9290919063ffffffff16565b8a612fc590919063ffffffff16565b61304b90919063ffffffff16565b61304b90919063ffffffff16565b8884815181106116b557fe5b602002602001018181525050505080806001019150506114ba565b50505050509250929050565b633b9aca0081565b6000816116ef611dc4565b73ffffffffffffffffffffffffffffffffffffffff1663a0f026ff826040518263ffffffff1660e01b81526004016117279190613f04565b60206040518083038186803b15801561173f57600080fd5b505afa158015611753573d6000803e3d6000fd5b505050506040513d601f19601f820116820180604052508101906117779190613c59565b6117b6576040517f08c379a00000000000000000000000000000000000000000000000000000000081526004016117ad90614096565b60405180910390fd5b6000600360008573ffffffffffffffffffffffffffffffffffffffff1673ffffffffffffffffffffffffffffffffffffffff16815260200190815260200160002060040160010154141561180d5760009150611a44565b600360008473ffffffffffffffffffffffffffffffffffffffff1673ffffffffffffffffffffffffffffffffffffffff16815260200190815260200160002060000160008573ffffffffffffffffffffffffffffffffffffffff1673ffffffffffffffffffffffffffffffffffffffff16815260200190815260200160002060000154915060008214156118a45760009150611a44565b6000600360008573ffffffffffffffffffffffffffffffffffffffff1673ffffffffffffffffffffffffffffffffffffffff16815260200190815260200160002060000160008673ffffffffffffffffffffffffffffffffffffffff1673ffffffffffffffffffffffffffffffffffffffff16815260200190815260200160002060010190506000600360008673ffffffffffffffffffffffffffffffffffffffff1673ffffffffffffffffffffffffffffffffffffffff168152602001908152602001600020600401905080600301548260030154101561198b57600093505050611a44565b60006119a88360020154836002015461243090919063ffffffff16565b905060008114156119e7576119e083600101546119d2846001015488612fc590919063ffffffff16565b61304b90919063ffffffff16565b9450611a40565b6001811415611a3a57611a33633b9aca00611a258560010154611a1786600101548a612fc590919063ffffffff16565b61304b90919063ffffffff16565b61304b90919063ffffffff16565b9450611a3f565b600094505b5b5050505b5092915050565b80611a54611dc4565b73ffffffffffffffffffffffffffffffffffffffff1663a0f026ff826040518263ffffffff1660e01b8152600401611a8c9190613f04565b60206040518083038186803b158015611aa457600080fd5b505afa158015611ab8573d6000803e3d6000fd5b505050506040513d601f19601f82011682018060405250810190611adc9190613c59565b611b1b576040517f08c379a0000000000000000000000000000000000000000000000000000000008152600401611b1290614096565b60405180910390fd5b60026001541415611b94576040517f08c379a000000000000000000000000000000000000000000000000000000000815260040180806020018281038252601f8152602001807f5265656e7472616e637947756172643a207265656e7472616e742063616c6c0081525060200191505060405180910390fd5b6002600181905550611ba633836122aa565b600180819055505050565b611bb9611dbc565b73ffffffffffffffffffffffffffffffffffffffff1660008054906101000a900473ffffffffffffffffffffffffffffffffffffffff1673ffffffffffffffffffffffffffffffffffffffff1614611c79576040517f08c379a00000000000000000000000000000000000000000000000000000000081526004018080602001828103825260208152602001807f4f776e61626c653a2063616c6c6572206973206e6f7420746865206f776e657281525060200191505060405180910390fd5b600073ffffffffffffffffffffffffffffffffffffffff168173ffffffffffffffffffffffffffffffffffffffff161415611cff576040517f08c379a00000000000000000000000000000000000000000000000000000000081526004018080602001828103825260268152602001806143686026913960400191505060405180910390fd5b8073ffffffffffffffffffffffffffffffffffffffff1660008054906101000a900473ffffffffffffffffffffffffffffffffffffffff1673ffffffffffffffffffffffffffffffffffffffff167f8be0079c531659141344cd1fd0a4f28419497f9722a3daafe3b4186f6b6457e060405160405180910390a3806000806101000a81548173ffffffffffffffffffffffffffffffffffffffff021916908373ffffffffffffffffffffffffffffffffffffffff16021790555050565b600033905090565b6000600260009054906101000a900473ffffffffffffffffffffffffffffffffffffffff16905090565b6000600360008373ffffffffffffffffffffffffffffffffffffffff1673ffffffffffffffffffffffffffffffffffffffff1681526020019081526020016000206004016001015414611e4057611e8f565b633b9aca00600360008373ffffffffffffffffffffffffffffffffffffffff1673ffffffffffffffffffffffffffffffffffffffff168152602001908152602001600020600401600101819055505b50565b600080828401905083811015611f10576040517f08c379a000000000000000000000000000000000000000000000000000000000815260040180806020018281038252601b8152602001807f536166654d6174683a206164646974696f6e206f766572666c6f77000000000081525060200191505060405180910390fd5b8091505092915050565b81600360008373ffffffffffffffffffffffffffffffffffffffff1673ffffffffffffffffffffffffffffffffffffffff16815260200190815260200160002060000160008573ffffffffffffffffffffffffffffffffffffffff1673ffffffffffffffffffffffffffffffffffffffff16815260200190815260200160002060000181905550600082141561205957600360008273ffffffffffffffffffffffffffffffffffffffff1673ffffffffffffffffffffffffffffffffffffffff16815260200190815260200160002060000160008473ffffffffffffffffffffffffffffffffffffffff1673ffffffffffffffffffffffffffffffffffffffff168152602001908152602001600020600080820160009055600182016000600182016000905560028201600090556003820160009055505050506122a5565b6000600360008373ffffffffffffffffffffffffffffffffffffffff1673ffffffffffffffffffffffffffffffffffffffff16815260200190815260200160002060040190506000600360008473ffffffffffffffffffffffffffffffffffffffff1673ffffffffffffffffffffffffffffffffffffffff16815260200190815260200160002060000160008673ffffffffffffffffffffffffffffffffffffffff1673ffffffffffffffffffffffffffffffffffffffff16815260200190815260200160002060010190508160010154816001018190555081600201548160020181905550816003015481600301819055506000612156611dc4565b73ffffffffffffffffffffffffffffffffffffffff1663294d499e6040518163ffffffff1660e01b815260040160006040518083038186803b15801561219b57600080fd5b505afa1580156121af573d6000803e3d6000fd5b505050506040513d6000823e3d601f19601f820116820180604052508101906121d89190613b40565b905060005b81518110156122a0578360000160008383815181106121f857fe5b602002602001015173ffffffffffffffffffffffffffffffffffffffff1673ffffffffffffffffffffffffffffffffffffffff1681526020019081526020016000205483600001600084848151811061224d57fe5b602002602001015173ffffffffffffffffffffffffffffffffffffffff1673ffffffffffffffffffffffffffffffffffffffff1681526020019081526020016000208190555080806001019150506121dd565b505050505b505050565b6000806122b7848461123a565b9150915060008251116122c657fe5b60005b82518110156123b55760008282815181106122e057fe5b602002602001015114156122f3576123a8565b8281815181106122ff57fe5b602002602001015173ffffffffffffffffffffffffffffffffffffffff1663a9059cbb8684848151811061232f57fe5b60200260200101516040518363ffffffff1660e01b8152600401612354929190614016565b602060405180830381600087803b15801561236e57600080fd5b505af1158015612382573d6000803e3d6000fd5b505050506040513d601f19601f820116820180604052508101906123a69190613c59565b505b80806001019150506122c9565b5060006123c285856116e4565b90506123cf858286611f1a565b8373ffffffffffffffffffffffffffffffffffffffff168573ffffffffffffffffffffffffffffffffffffffff167f34d58c18c6c1df2c698ccac556acea92941ca7b99d2fccf9e3ac1852d0dec36f60405160405180910390a35050505050565b600061247283836040518060400160405280601e81526020017f536166654d6174683a207375627472616374696f6e206f766572666c6f770000815250613095565b905092915050565b60006060806000612489613155565b73ffffffffffffffffffffffffffffffffffffffff1663db3fabeb87876040518363ffffffff1660e01b81526004016124c3929190613fa8565b60206040518083038186803b1580156124db57600080fd5b505afa1580156124ef573d6000803e3d6000fd5b505050506040513d601f19601f820116820180604052508101906125139190613c82565b9050600061251f613155565b73ffffffffffffffffffffffffffffffffffffffff16634c90f22988886040518363ffffffff1660e01b8152600401612559929190613fa8565b60206040518083038186803b15801561257157600080fd5b505afa158015612585573d6000803e3d6000fd5b505050506040513d601f19601f820116820180604052508101906125a99190613c82565b905060006125b5613155565b73ffffffffffffffffffffffffffffffffffffffff1663bcbe3f2289896040518363ffffffff1660e01b81526004016125ef929190613fa8565b60206040518083038186803b15801561260757600080fd5b505afa15801561261b573d6000803e3d6000fd5b505050506040513d601f19601f8201168201806040525081019061263f9190613c82565b90506000612701670de0b6b3a76400006126f38561265b613155565b73ffffffffffffffffffffffffffffffffffffffff166364d321b78e8e6040518363ffffffff1660e01b8152600401612695929190613fa8565b60206040518083038186803b1580156126ad57600080fd5b505afa1580156126c1573d6000803e3d6000fd5b505050506040513d601f19601f820116820180604052508101906126e59190613c82565b612fc590919063ffffffff16565b61304b90919063ffffffff16565b9050612716818461243090919063ffffffff16565b925061287a612723611dc4565b73ffffffffffffffffffffffffffffffffffffffff1663d02641a08a6040518263ffffffff1660e01b815260040161275b9190613f04565b60206040518083038186803b15801561277357600080fd5b505afa158015612787573d6000803e3d6000fd5b505050506040513d601f19601f820116820180604052508101906127ab9190613c82565b61286c670de0b6b3a76400006127bf613155565b73ffffffffffffffffffffffffffffffffffffffff166397ae19746127ee600a89612fc590919063ffffffff16565b8a8a6040518463ffffffff1660e01b815260040161280e93929190614136565b60206040518083038186803b15801561282657600080fd5b505afa15801561283a573d6000803e3d6000fd5b505050506040513d601f19601f8201168201806040525081019061285e9190613c82565b612fc590919063ffffffff16565b61304b90919063ffffffff16565b965086600360008a73ffffffffffffffffffffffffffffffffffffffff1673ffffffffffffffffffffffffffffffffffffffff168152602001908152602001600020600301541015612901576040517f08c379a00000000000000000000000000000000000000000000000000000000081526004016128f8906140b6565b60405180910390fd5b8773ffffffffffffffffffffffffffffffffffffffff1663095ea7b3600260009054906101000a900473ffffffffffffffffffffffffffffffffffffffff16896040518363ffffffff1660e01b815260040161295e929190614016565b602060405180830381600087803b15801561297857600080fd5b505af115801561298c573d6000803e3d6000fd5b505050506040513d601f19601f820116820180604052508101906129b09190613c59565b506129b9611dc4565b73ffffffffffffffffffffffffffffffffffffffff166343cc3946888a8c426040518563ffffffff1660e01b81526004016129f794939291906140f1565b600060405180830381600087803b158015612a1157600080fd5b505af1158015612a25573d6000803e3d6000fd5b505050506040513d6000823e3d601f19601f82011682018060405250810190612a4e9190613bed565b80975081965050506000612a60613155565b73ffffffffffffffffffffffffffffffffffffffff1663db3fabeb8b8b6040518363ffffffff1660e01b8152600401612a9a929190613fa8565b60206040518083038186803b158015612ab257600080fd5b505afa158015612ac6573d6000803e3d6000fd5b505050506040513d601f19601f82011682018060405250810190612aea9190613c82565b90506000612af6613155565b73ffffffffffffffffffffffffffffffffffffffff16634c90f2298c8c6040518363ffffffff1660e01b8152600401612b30929190613fa8565b60206040518083038186803b158015612b4857600080fd5b505afa158015612b5c573d6000803e3d6000fd5b505050506040513d601f19601f82011682018060405250810190612b809190613c82565b90505050600080612b8f6131e1565b73ffffffffffffffffffffffffffffffffffffffff16631856d56f8c30868e6040518563ffffffff1660e01b8152600401612bcd9493929190613fd1565b600060405180830381600087803b158015612be757600080fd5b505af1158015612bfb573d6000803e3d6000fd5b505050506040513d6000823e3d601f19601f82011682018060405250810190612c249190613b81565b9150915060005b8251811015612d0f5760005b8951811015612d0157898181518110612c4c57fe5b602002602001015173ffffffffffffffffffffffffffffffffffffffff16848381518110612c7657fe5b602002602001015173ffffffffffffffffffffffffffffffffffffffff1614612c9e57612cf4565b612cd7838381518110612cad57fe5b60200260200101518a8381518110612cc157fe5b6020026020010151611e9290919063ffffffff16565b898281518110612ce357fe5b602002602001018181525050612d01565b8080600101915050612c37565b508080600101915050612c2b565b50505060005b8651811015612e9b576000868281518110612d2c57fe5b60200260200101511415612d3f57612e8e565b612df7868281518110612d4e57fe5b6020026020010151600360008c73ffffffffffffffffffffffffffffffffffffffff1673ffffffffffffffffffffffffffffffffffffffff16815260200190815260200160002060010160008a8581518110612da657fe5b602002602001015173ffffffffffffffffffffffffffffffffffffffff1673ffffffffffffffffffffffffffffffffffffffff16815260200190815260200160002054611e9290919063ffffffff16565b600360008b73ffffffffffffffffffffffffffffffffffffffff1673ffffffffffffffffffffffffffffffffffffffff1681526020019081526020016000206001016000898481518110612e4757fe5b602002602001015173ffffffffffffffffffffffffffffffffffffffff1673ffffffffffffffffffffffffffffffffffffffff168152602001908152602001600020819055505b8080600101915050612d15565b50505050509250925092565b6000600360008373ffffffffffffffffffffffffffffffffffffffff1673ffffffffffffffffffffffffffffffffffffffff168152602001908152602001600020600301541480612ef85750600084145b15612f0257612fbf565b612f0e8484848461326d565b612f19838383613387565b612f238482613665565b612f7884600360008473ffffffffffffffffffffffffffffffffffffffff1673ffffffffffffffffffffffffffffffffffffffff1681526020019081526020016000206003015461243090919063ffffffff16565b600360008373ffffffffffffffffffffffffffffffffffffffff1673ffffffffffffffffffffffffffffffffffffffff168152602001908152602001600020600301819055505b50505050565b600080831415612fd85760009050613045565b6000828402905082848281612fe957fe5b0414613040576040517f08c379a000000000000000000000000000000000000000000000000000000000815260040180806020018281038252602181526020018061438e6021913960400191505060405180910390fd5b809150505b92915050565b600061308d83836040518060400160405280601a81526020017f536166654d6174683a206469766973696f6e206279207a65726f000000000000815250613819565b905092915050565b6000838311158290613142576040517f08c379a00000000000000000000000000000000000000000000000000000000081526004018080602001828103825283818151815260200191508051906020019080838360005b838110156131075780820151818401526020810190506130ec565b50505050905090810190601f1680156131345780820380516001836020036101000a031916815260200191505b509250505060405180910390fd5b5060008385039050809150509392505050565b600061315f611dc4565b73ffffffffffffffffffffffffffffffffffffffff1663eb0a8b916040518163ffffffff1660e01b815260040160206040518083038186803b1580156131a457600080fd5b505afa1580156131b8573d6000803e3d6000fd5b505050506040513d601f19601f820116820180604052508101906131dc9190613ab2565b905090565b60006131eb611dc4565b73ffffffffffffffffffffffffffffffffffffffff166361d027b36040518163ffffffff1660e01b815260040160206040518083038186803b15801561323057600080fd5b505afa158015613244573d6000803e3d6000fd5b505050506040513d601f19601f820116820180604052508101906132689190613adb565b905090565b6000600360008373ffffffffffffffffffffffffffffffffffffffff1673ffffffffffffffffffffffffffffffffffffffff168152602001908152602001600020905080600301548511156132be57fe5b80600301548514156132e657633b9aca00816008018190555060008160090181905550613380565b60006133158260090154613307633b9aca0089612fc590919063ffffffff16565b61243090919063ffffffff16565b9050613341600161333384600301548461304b90919063ffffffff16565b611e9290919063ffffffff16565b82600801819055506133768161336884600301548560080154612fc590919063ffffffff16565b61243090919063ffffffff16565b8260090181905550505b5050505050565b6000600360008373ffffffffffffffffffffffffffffffffffffffff1673ffffffffffffffffffffffffffffffffffffffff16815260200190815260200160002090506000805b855181101561365d57600061346984600a0160008985815181106133ee57fe5b602002602001015173ffffffffffffffffffffffffffffffffffffffff1673ffffffffffffffffffffffffffffffffffffffff1681526020019081526020016000205461345b633b9aca0089868151811061344557fe5b6020026020010151612fc590919063ffffffff16565b611e9290919063ffffffff16565b905061348284600301548261304b90919063ffffffff16565b92506134ad61349e856003015485612fc590919063ffffffff16565b8261243090919063ffffffff16565b84600a0160008985815181106134bf57fe5b602002602001015173ffffffffffffffffffffffffffffffffffffffff1673ffffffffffffffffffffffffffffffffffffffff16815260200190815260200160002081905550600084600201600086600401600301548152602001908152602001600020600086600401600201548152602001908152602001600020600089858151811061354957fe5b602002602001015173ffffffffffffffffffffffffffffffffffffffff1673ffffffffffffffffffffffffffffffffffffffff16815260200190815260200160002054905060006135aa866004016001015486612fc590919063ffffffff16565b905060006135c18284611e9290919063ffffffff16565b9050808760020160008960040160030154815260200190815260200160002060008960040160020154815260200190815260200160002060008c888151811061360657fe5b602002602001015173ffffffffffffffffffffffffffffffffffffffff1673ffffffffffffffffffffffffffffffffffffffff168152602001908152602001600020819055505050505080806001019150506133ce565b505050505050565b6000600360008373ffffffffffffffffffffffffffffffffffffffff1673ffffffffffffffffffffffffffffffffffffffff1681526020019081526020016000209050633b9aca00816008015411156136ba57fe5b6000816004016001015490506000806136e48460080154633b9aca0061243090919063ffffffff16565b9050600081141561372e5761370a60018560040160030154611e9290919063ffffffff16565b846004016003018190555060008460040160020181905550633b9aca0091506137fb565b633b9aca0061375c633b9aca0061374e8487612fc590919063ffffffff16565b61304b90919063ffffffff16565b10156137ce576137a1633b9aca00613793633b9aca006137858588612fc590919063ffffffff16565b612fc590919063ffffffff16565b61304b90919063ffffffff16565b91506137be60018560040160020154611e9290919063ffffffff16565b84600401600201819055506137fa565b6137f7633b9aca006137e98386612fc590919063ffffffff16565b61304b90919063ffffffff16565b91505b5b6000821161380557fe5b818460040160010181905550505050505050565b600080831182906138c5576040517f08c379a00000000000000000000000000000000000000000000000000000000081526004018080602001828103825283818151815260200191508051906020019080838360005b8381101561388a57808201518184015260208101905061386f565b50505050905090810190601f1680156138b75780820380516001836020036101000a031916815260200191505b509250505060405180910390fd5b5060008385816138d157fe5b049050809150509392505050565b60006138f26138ed8461419e565b61416d565b9050808382526020820190508285602086028201111561391157600080fd5b60005b85811015613941578161392788826139cc565b845260208401935060208301925050600181019050613914565b5050509392505050565b600061395e613959846141ca565b61416d565b9050808382526020820190508285602086028201111561397d57600080fd5b60005b858110156139ad57816139938882613a74565b845260208401935060208301925050600181019050613980565b5050509392505050565b6000813590506139c68161430b565b92915050565b6000815190506139db8161430b565b92915050565b6000815190506139f081614322565b92915050565b600082601f830112613a0757600080fd5b8151613a178482602086016138df565b91505092915050565b600082601f830112613a3157600080fd5b8151613a4184826020860161394b565b91505092915050565b600081519050613a5981614339565b92915050565b600081359050613a6e81614350565b92915050565b600081519050613a8381614350565b92915050565b600060208284031215613a9b57600080fd5b6000613aa9848285016139b7565b91505092915050565b600060208284031215613ac457600080fd5b6000613ad2848285016139cc565b91505092915050565b600060208284031215613aed57600080fd5b6000613afb848285016139e1565b91505092915050565b60008060408385031215613b1757600080fd5b6000613b25858286016139b7565b9250506020613b36858286016139b7565b9150509250929050565b600060208284031215613b5257600080fd5b600082015167ffffffffffffffff811115613b6c57600080fd5b613b78848285016139f6565b91505092915050565b60008060408385031215613b9457600080fd5b600083015167ffffffffffffffff811115613bae57600080fd5b613bba858286016139f6565b925050602083015167ffffffffffffffff811115613bd757600080fd5b613be385828601613a20565b9150509250929050565b60008060408385031215613c0057600080fd5b600083015167ffffffffffffffff811115613c1a57600080fd5b613c2685828601613a20565b925050602083015167ffffffffffffffff811115613c4357600080fd5b613c4f858286016139f6565b9150509250929050565b600060208284031215613c6b57600080fd5b6000613c7984828501613a4a565b91505092915050565b600060208284031215613c9457600080fd5b6000613ca284828501613a74565b91505092915050565b60008060408385031215613cbe57600080fd5b6000613ccc85828601613a5f565b9250506020613cdd858286016139b7565b9150509250929050565b6000613cf38383613d26565b60208301905092915050565b6000613d0b8383613ee6565b60208301905092915050565b613d20816142d3565b82525050565b613d2f81614279565b82525050565b613d3e81614279565b82525050565b6000613d4f82614216565b613d598185614246565b9350613d64836141f6565b8060005b83811015613d95578151613d7c8882613ce7565b9750613d878361422c565b925050600181019050613d68565b5085935050505092915050565b6000613dad82614221565b613db78185614257565b9350613dc283614206565b8060005b83811015613df3578151613dda8882613cff565b9750613de583614239565b925050600181019050613dc6565b5085935050505092915050565b6000613e0d602d83614268565b91507f66784b6565706572506f6f6c3a206678546f6b656e20455243323020616c6c6f60008301527f77616e6365206e6f74206d6574000000000000000000000000000000000000006020830152604082019050919050565b6000613e73600283614268565b91507f49460000000000000000000000000000000000000000000000000000000000006000830152602082019050919050565b6000613eb3601183614268565b91507f4e6f7420656e6f756768207374616b65640000000000000000000000000000006000830152602082019050919050565b613eef816142c9565b82525050565b613efe816142c9565b82525050565b6000602082019050613f196000830184613d35565b92915050565b6000604082019050613f346000830185613d17565b613f416020830184613d35565b9392505050565b6000606082019050613f5d6000830186613d17565b613f6a6020830185613d35565b613f776040830184613ef5565b949350505050565b6000604082019050613f946000830185613d17565b613fa16020830184613ef5565b9392505050565b6000604082019050613fbd6000830185613d35565b613fca6020830184613d35565b9392505050565b6000608082019050613fe66000830187613d35565b613ff36020830186613d35565b6140006040830185613ef5565b61400d6060830184613d35565b95945050505050565b600060408201905061402b6000830185613d35565b6140386020830184613ef5565b9392505050565b600060408201905081810360008301526140598185613d44565b9050818103602083015261406d8184613da2565b90509392505050565b6000602082019050818103600083015261408f81613e00565b9050919050565b600060208201905081810360008301526140af81613e66565b9050919050565b600060208201905081810360008301526140cf81613ea6565b9050919050565b60006020820190506140eb6000830184613ef5565b92915050565b60006080820190506141066000830187613ef5565b6141136020830186613d35565b6141206040830185613d35565b61412d6060830184613ef5565b95945050505050565b600060608201905061414b6000830186613ef5565b6141586020830185613ef5565b6141656040830184613ef5565b949350505050565b6000604051905081810181811067ffffffffffffffff8211171561419457614193614309565b5b8060405250919050565b600067ffffffffffffffff8211156141b9576141b8614309565b5b602082029050602081019050919050565b600067ffffffffffffffff8211156141e5576141e4614309565b5b602082029050602081019050919050565b6000819050602082019050919050565b6000819050602082019050919050565b600081519050919050565b600081519050919050565b6000602082019050919050565b6000602082019050919050565b600082825260208201905092915050565b600082825260208201905092915050565b600082825260208201905092915050565b6000614284826142a9565b9050919050565b6000614296826142a9565b9050919050565b60008115159050919050565b600073ffffffffffffffffffffffffffffffffffffffff82169050919050565b6000819050919050565b60006142de826142e5565b9050919050565b60006142f0826142f7565b9050919050565b6000614302826142a9565b9050919050565bfe5b61431481614279565b811461431f57600080fd5b50565b61432b8161428b565b811461433657600080fd5b50565b6143428161429d565b811461434d57600080fd5b50565b614359816142c9565b811461436457600080fd5b5056fe4f776e61626c653a206e6577206f776e657220697320746865207a65726f2061646472657373536166654d6174683a206d756c7469706c69636174696f6e206f766572666c6f77a264697066735822122004aeb8c6c0feb9c35e4fdff4a7295910a797a0d4bc1d5067b94da7e075e9a7ae64736f6c63430007060033",
  "linkReferences": {},
  "deployedLinkReferences": {}
}