{
  "_format": "hh-sol-artifact-1",
  "contractName": "fxKeeperPool",
  "sourceName": "contracts/Bank/fxKeeperPool.sol",
  "abi": [
    {
      "anonymous": false,
      "inputs": [
        {
          "indexed": false,
          "internalType": "address",
          "name": "previousAdmin",
          "type": "address"
        },
        {
          "indexed": false,
          "internalType": "address",
          "name": "newAdmin",
          "type": "address"
        }
      ],
      "name": "AdminChanged",
      "type": "event"
    },
    {
      "anonymous": false,
      "inputs": [
        {
          "indexed": true,
          "internalType": "address",
          "name": "beacon",
          "type": "address"
        }
      ],
      "name": "BeaconUpgraded",
      "type": "event"
    },
    {
      "anonymous": false,
      "inputs": [
        {
          "indexed": true,
          "internalType": "address",
          "name": "account",
          "type": "address"
        },
        {
          "indexed": true,
          "internalType": "address",
          "name": "token",
          "type": "address"
        },
        {
          "indexed": false,
          "internalType": "uint256",
          "name": "tokenAmount",
          "type": "uint256"
        }
      ],
      "name": "Liquidate",
      "type": "event"
    },
    {
      "anonymous": false,
      "inputs": [
        {
          "indexed": true,
          "internalType": "address",
          "name": "previousOwner",
          "type": "address"
        },
        {
          "indexed": true,
          "internalType": "address",
          "name": "newOwner",
          "type": "address"
        }
      ],
      "name": "OwnershipTransferred",
      "type": "event"
    },
    {
      "anonymous": false,
      "inputs": [
        {
          "indexed": true,
          "internalType": "address",
          "name": "account",
          "type": "address"
        },
        {
          "indexed": true,
          "internalType": "address",
          "name": "token",
          "type": "address"
        },
        {
          "indexed": false,
          "internalType": "uint256",
          "name": "amount",
          "type": "uint256"
        }
      ],
      "name": "Stake",
      "type": "event"
    },
    {
      "anonymous": false,
      "inputs": [
        {
          "indexed": true,
          "internalType": "address",
          "name": "account",
          "type": "address"
        },
        {
          "indexed": true,
          "internalType": "address",
          "name": "token",
          "type": "address"
        },
        {
          "indexed": false,
          "internalType": "uint256",
          "name": "amount",
          "type": "uint256"
        }
      ],
      "name": "Unstake",
      "type": "event"
    },
    {
      "anonymous": false,
      "inputs": [
        {
          "indexed": true,
          "internalType": "address",
          "name": "implementation",
          "type": "address"
        }
      ],
      "name": "Upgraded",
      "type": "event"
    },
    {
      "anonymous": false,
      "inputs": [
        {
          "indexed": true,
          "internalType": "address",
          "name": "account",
          "type": "address"
        },
        {
          "indexed": true,
          "internalType": "address",
          "name": "token",
          "type": "address"
        }
      ],
      "name": "Withdraw",
      "type": "event"
    },
    {
      "inputs": [],
      "name": "DECIMAL_PRECISION",
      "outputs": [
        {
          "internalType": "uint256",
          "name": "",
          "type": "uint256"
        }
      ],
      "stateMutability": "view",
      "type": "function"
    },
    {
      "inputs": [],
      "name": "SCALE_FACTOR",
      "outputs": [
        {
          "internalType": "uint256",
          "name": "",
          "type": "uint256"
        }
      ],
      "stateMutability": "view",
      "type": "function"
    },
    {
      "inputs": [
        {
          "internalType": "address",
          "name": "account",
          "type": "address"
        },
        {
          "internalType": "address",
          "name": "fxToken",
          "type": "address"
        }
      ],
      "name": "balanceOfRewards",
      "outputs": [
        {
          "internalType": "address[]",
          "name": "collateralTypes",
          "type": "address[]"
        },
        {
          "internalType": "uint256[]",
          "name": "collateralAmounts",
          "type": "uint256[]"
        }
      ],
      "stateMutability": "view",
      "type": "function"
    },
    {
      "inputs": [
        {
          "internalType": "address",
          "name": "account",
          "type": "address"
        },
        {
          "internalType": "address",
          "name": "fxToken",
          "type": "address"
        }
      ],
      "name": "balanceOfStake",
      "outputs": [
        {
          "internalType": "uint256",
          "name": "amount",
          "type": "uint256"
        }
      ],
      "stateMutability": "view",
      "type": "function"
    },
    {
      "inputs": [
        {
          "internalType": "address",
          "name": "fxToken",
          "type": "address"
        },
        {
          "internalType": "address",
          "name": "collateral",
          "type": "address"
        }
      ],
      "name": "getPoolCollateralBalance",
      "outputs": [
        {
          "internalType": "uint256",
          "name": "amount",
          "type": "uint256"
        }
      ],
      "stateMutability": "view",
      "type": "function"
    },
    {
      "inputs": [
        {
          "internalType": "address",
          "name": "fxToken",
          "type": "address"
        }
      ],
      "name": "getPoolTotalDeposit",
      "outputs": [
        {
          "internalType": "uint256",
          "name": "amount",
          "type": "uint256"
        }
      ],
      "stateMutability": "view",
      "type": "function"
    },
    {
      "inputs": [],
      "name": "handleAddress",
      "outputs": [
        {
          "internalType": "address",
          "name": "",
          "type": "address"
        }
      ],
      "stateMutability": "view",
      "type": "function"
    },
    {
      "inputs": [],
      "name": "initialize",
      "outputs": [],
      "stateMutability": "nonpayable",
      "type": "function"
    },
    {
      "inputs": [
        {
          "internalType": "address",
          "name": "account",
          "type": "address"
        },
        {
          "internalType": "address",
          "name": "fxToken",
          "type": "address"
        }
      ],
      "name": "liquidate",
      "outputs": [],
      "stateMutability": "nonpayable",
      "type": "function"
    },
    {
      "inputs": [],
      "name": "owner",
      "outputs": [
        {
          "internalType": "address",
          "name": "",
          "type": "address"
        }
      ],
      "stateMutability": "view",
      "type": "function"
    },
    {
      "inputs": [],
      "name": "protocolFee",
      "outputs": [
        {
          "internalType": "uint256",
          "name": "",
          "type": "uint256"
        }
      ],
      "stateMutability": "view",
      "type": "function"
    },
    {
      "inputs": [],
      "name": "renounceOwnership",
      "outputs": [],
      "stateMutability": "nonpayable",
      "type": "function"
    },
    {
      "inputs": [
        {
          "internalType": "address",
          "name": "_handle",
          "type": "address"
        }
      ],
      "name": "setHandleContract",
      "outputs": [],
      "stateMutability": "nonpayable",
      "type": "function"
    },
    {
      "inputs": [
        {
          "internalType": "uint256",
          "name": "ratio",
          "type": "uint256"
        }
      ],
      "name": "setProtocolFee",
      "outputs": [],
      "stateMutability": "nonpayable",
      "type": "function"
    },
    {
      "inputs": [
        {
          "internalType": "address",
          "name": "account",
          "type": "address"
        },
        {
          "internalType": "address",
          "name": "fxToken",
          "type": "address"
        }
      ],
      "name": "shareOf",
      "outputs": [
        {
          "internalType": "uint256",
          "name": "share",
          "type": "uint256"
        }
      ],
      "stateMutability": "view",
      "type": "function"
    },
    {
      "inputs": [
        {
          "internalType": "uint256",
          "name": "amount",
          "type": "uint256"
        },
        {
          "internalType": "address",
          "name": "fxToken",
          "type": "address"
        },
        {
          "internalType": "address",
          "name": "referral",
          "type": "address"
        }
      ],
      "name": "stake",
      "outputs": [],
      "stateMutability": "nonpayable",
      "type": "function"
    },
    {
      "inputs": [
        {
          "internalType": "address",
          "name": "newOwner",
          "type": "address"
        }
      ],
      "name": "transferOwnership",
      "outputs": [],
      "stateMutability": "nonpayable",
      "type": "function"
    },
    {
      "inputs": [
        {
          "internalType": "uint256",
          "name": "amount",
          "type": "uint256"
        },
        {
          "internalType": "address",
          "name": "fxToken",
          "type": "address"
        }
      ],
      "name": "unstake",
      "outputs": [],
      "stateMutability": "nonpayable",
      "type": "function"
    },
    {
      "inputs": [
        {
          "internalType": "address",
          "name": "newImplementation",
          "type": "address"
        }
      ],
      "name": "upgradeTo",
      "outputs": [],
      "stateMutability": "nonpayable",
      "type": "function"
    },
    {
      "inputs": [
        {
          "internalType": "address",
          "name": "newImplementation",
          "type": "address"
        },
        {
          "internalType": "bytes",
          "name": "data",
          "type": "bytes"
        }
      ],
      "name": "upgradeToAndCall",
      "outputs": [],
      "stateMutability": "payable",
      "type": "function"
    },
    {
      "inputs": [
        {
          "internalType": "address",
          "name": "fxToken",
          "type": "address"
        }
      ],
      "name": "withdrawCollateralReward",
      "outputs": [],
      "stateMutability": "nonpayable",
      "type": "function"
    }
  ],
  "bytecode": "0x608060405234801561001057600080fd5b50615e8780620000216000396000f3fe60806040526004361061012a5760003560e01c80638da5cb5b116100ab578063b0e21e8a1161006f578063b0e21e8a146103a7578063ccf37f17146103d2578063ce4b5bbe14610410578063dde1f9ea1461043b578063ea1e870014610478578063f2fde38b146104a15761012a565b80638da5cb5b146102c25780639b1c414f146102ed578063a20baee614610316578063a7d545db14610341578063acd5d4581461036a5761012a565b80638129fc1c116100f25780638129fc1c146101df57806382212e3d146101f65780638381e1821461023357806386b9d81f1461025c578063883c95da146102855761012a565b80633659cfe61461012f5780634f1ef28614610158578063715018a61461017457806374bf578b1461018b578063787dce3d146101b6575b600080fd5b34801561013b57600080fd5b5061015660048036038101906101519190614e2d565b6104ca565b005b610172600480360381019061016d9190614ee4565b6104f1565b005b34801561018057600080fd5b5061018961050a565b005b34801561019757600080fd5b506101a0610647565b6040516101ad919061544b565b60405180910390f35b3480156101c257600080fd5b506101dd60048036038101906101d89190614fa2565b610671565b005b3480156101eb57600080fd5b506101f4610743565b005b34801561020257600080fd5b5061021d60048036038101906102189190614ea8565b61082c565b60405161022a91906156c8565b60405180910390f35b34801561023f57600080fd5b5061025a60048036038101906102559190614ff4565b6108b6565b005b34801561026857600080fd5b50610283600480360381019061027e9190614ea8565b610d53565b005b34801561029157600080fd5b506102ac60048036038101906102a79190614e2d565b610fe7565b6040516102b991906156c8565b60405180910390f35b3480156102ce57600080fd5b506102d7611033565b6040516102e4919061544b565b60405180910390f35b3480156102f957600080fd5b50610314600480360381019061030f9190614e2d565b61105d565b005b34801561032257600080fd5b5061032b6113bd565b60405161033891906156c8565b60405180910390f35b34801561034d57600080fd5b5061036860048036038101906103639190615030565b6113c5565b005b34801561037657600080fd5b50610391600480360381019061038c9190614ea8565b611a14565b60405161039e91906156c8565b60405180910390f35b3480156103b357600080fd5b506103bc611ba2565b6040516103c991906156c8565b60405180910390f35b3480156103de57600080fd5b506103f960048036038101906103f49190614ea8565b611ba9565b6040516104079291906154ef565b60405180910390f35b34801561041c57600080fd5b50610425612269565b60405161043291906156c8565b60405180910390f35b34801561044757600080fd5b50610462600480360381019061045d9190614ea8565b612271565b60405161046f91906156c8565b60405180910390f35b34801561048457600080fd5b5061049f600480360381019061049a9190614e2d565b6125f3565b005b3480156104ad57600080fd5b506104c860048036038101906104c39190614e2d565b612821565b005b6104d3816129cd565b6104ee81604051806020016040528060008152506000612a4c565b50565b6104fa826129cd565b61050682826001612a4c565b5050565b610512612c60565b73ffffffffffffffffffffffffffffffffffffffff16610530611033565b73ffffffffffffffffffffffffffffffffffffffff1614610586576040517f08c379a000000000000000000000000000000000000000000000000000000000815260040161057d90615648565b60405180910390fd5b600073ffffffffffffffffffffffffffffffffffffffff16609760009054906101000a900473ffffffffffffffffffffffffffffffffffffffff1673ffffffffffffffffffffffffffffffffffffffff167f8be0079c531659141344cd1fd0a4f28419497f9722a3daafe3b4186f6b6457e060405160405180910390a36000609760006101000a81548173ffffffffffffffffffffffffffffffffffffffff021916908373ffffffffffffffffffffffffffffffffffffffff160217905550565b600060fb60009054906101000a900473ffffffffffffffffffffffffffffffffffffffff16905090565b610679612c60565b73ffffffffffffffffffffffffffffffffffffffff16610697611033565b73ffffffffffffffffffffffffffffffffffffffff16146106ed576040517f08c379a00000000000000000000000000000000000000000000000000000000081526004016106e490615648565b60405180910390fd5b670de0b6b3a7640000811115610738576040517f08c379a000000000000000000000000000000000000000000000000000000000815260040161072f906156a8565b60405180910390fd5b806101008190555050565b600060019054906101000a900460ff1680610769575060008054906101000a900460ff16155b6107a8576040517f08c379a000000000000000000000000000000000000000000000000000000000815260040161079f906155e8565b60405180910390fd5b60008060019054906101000a900460ff1615905080156107f8576001600060016101000a81548160ff02191690831515021790555060016000806101000a81548160ff0219169083151502179055505b610800612c68565b610808612d51565b80156108295760008060016101000a81548160ff0219169083151502179055505b50565b600060ff60008473ffffffffffffffffffffffffffffffffffffffff1673ffffffffffffffffffffffffffffffffffffffff16815260200190815260200160002060010160008373ffffffffffffffffffffffffffffffffffffffff1673ffffffffffffffffffffffffffffffffffffffff16815260200190815260200160002054905092915050565b8060fb60009054906101000a900473ffffffffffffffffffffffffffffffffffffffff1673ffffffffffffffffffffffffffffffffffffffff1663a0f026ff826040518263ffffffff1660e01b8152600401610912919061544b565b60206040518083038186803b15801561092a57600080fd5b505afa15801561093e573d6000803e3d6000fd5b505050506040513d601f19601f820116820180604052508101906109629190614f79565b6109a1576040517f08c379a0000000000000000000000000000000000000000000000000000000008152600401610998906155c8565b60405180910390fd5b6109a9610647565b73ffffffffffffffffffffffffffffffffffffffff1663b187bd266040518163ffffffff1660e01b815260040160206040518083038186803b1580156109ee57600080fd5b505afa158015610a02573d6000803e3d6000fd5b505050506040513d601f19601f82011682018060405250810190610a269190614f79565b15610a66576040517f08c379a0000000000000000000000000000000000000000000000000000000008152600401610a5d90615548565b60405180910390fd5b600260c9541415610aac576040517f08c379a0000000000000000000000000000000000000000000000000000000008152600401610aa390615688565b60405180910390fd5b600260c9819055506000610ac03384612271565b905080841115610ace578093505b60008411610b11576040517f08c379a0000000000000000000000000000000000000000000000000000000008152600401610b0890615608565b60405180910390fd5b610b1b3384612e32565b8360ff60008573ffffffffffffffffffffffffffffffffffffffff1673ffffffffffffffffffffffffffffffffffffffff168152602001908152602001600020600301541015610b94577f4e487b7100000000000000000000000000000000000000000000000000000000600052600160045260246000fd5b8273ffffffffffffffffffffffffffffffffffffffff1663a9059cbb33866040518363ffffffff1660e01b8152600401610bcf9291906154c6565b602060405180830381600087803b158015610be957600080fd5b505af1158015610bfd573d6000803e3d6000fd5b505050506040513d601f19601f82011682018060405250810190610c219190614f79565b50610c778460ff60008673ffffffffffffffffffffffffffffffffffffffff1673ffffffffffffffffffffffffffffffffffffffff168152602001908152602001600020600301546132db90919063ffffffff16565b60ff60008573ffffffffffffffffffffffffffffffffffffffff1673ffffffffffffffffffffffffffffffffffffffff168152602001908152602001600020600301819055506000610cd285836132db90919063ffffffff16565b9050610cdf3382866132f1565b8373ffffffffffffffffffffffffffffffffffffffff163373ffffffffffffffffffffffffffffffffffffffff167f390b1276974b9463e5d66ab10df69b6f3d7b930eb066a0e66df327edd2cc811c87604051610d3c91906156c8565b60405180910390a35050600160c981905550505050565b8060fb60009054906101000a900473ffffffffffffffffffffffffffffffffffffffff1673ffffffffffffffffffffffffffffffffffffffff1663a0f026ff826040518263ffffffff1660e01b8152600401610daf919061544b565b60206040518083038186803b158015610dc757600080fd5b505afa158015610ddb573d6000803e3d6000fd5b505050506040513d601f19601f82011682018060405250810190610dff9190614f79565b610e3e576040517f08c379a0000000000000000000000000000000000000000000000000000000008152600401610e35906155c8565b60405180910390fd5b610e46610647565b73ffffffffffffffffffffffffffffffffffffffff1663b187bd266040518163ffffffff1660e01b815260040160206040518083038186803b158015610e8b57600080fd5b505afa158015610e9f573d6000803e3d6000fd5b505050506040513d601f19601f82011682018060405250810190610ec39190614f79565b15610f03576040517f08c379a0000000000000000000000000000000000000000000000000000000008152600401610efa90615548565b60405180910390fd5b600260c9541415610f49576040517f08c379a0000000000000000000000000000000000000000000000000000000008152600401610f4090615688565b60405180910390fd5b600260c9819055506000806000610f60868661367e565b925092509250610f7283838388613aef565b8473ffffffffffffffffffffffffffffffffffffffff168673ffffffffffffffffffffffffffffffffffffffff167faef3faf684172084346f7dc2cc3bb1328d1cc23caec12dd9a82d4a4e56c00b1785604051610fcf91906156c8565b60405180910390a3505050600160c981905550505050565b600060ff60008373ffffffffffffffffffffffffffffffffffffffff1673ffffffffffffffffffffffffffffffffffffffff168152602001908152602001600020600301549050919050565b6000609760009054906101000a900473ffffffffffffffffffffffffffffffffffffffff16905090565b611065612c60565b73ffffffffffffffffffffffffffffffffffffffff16611083611033565b73ffffffffffffffffffffffffffffffffffffffff16146110d9576040517f08c379a00000000000000000000000000000000000000000000000000000000081526004016110d090615648565b60405180910390fd5b8060fb60006101000a81548173ffffffffffffffffffffffffffffffffffffffff021916908373ffffffffffffffffffffffffffffffffffffffff16021790555060fb60009054906101000a900473ffffffffffffffffffffffffffffffffffffffff1673ffffffffffffffffffffffffffffffffffffffff166361d027b36040518163ffffffff1660e01b815260040160206040518083038186803b15801561118257600080fd5b505afa158015611196573d6000803e3d6000fd5b505050506040513d601f19601f820116820180604052508101906111ba9190614e7f565b60fd60006101000a81548173ffffffffffffffffffffffffffffffffffffffff021916908373ffffffffffffffffffffffffffffffffffffffff16021790555060fb60009054906101000a900473ffffffffffffffffffffffffffffffffffffffff1673ffffffffffffffffffffffffffffffffffffffff16634046ebae6040518163ffffffff1660e01b815260040160206040518083038186803b15801561126257600080fd5b505afa158015611276573d6000803e3d6000fd5b505050506040513d601f19601f8201168201806040525081019061129a9190614e56565b60fc60006101000a81548173ffffffffffffffffffffffffffffffffffffffff021916908373ffffffffffffffffffffffffffffffffffffffff16021790555060fb60009054906101000a900473ffffffffffffffffffffffffffffffffffffffff1673ffffffffffffffffffffffffffffffffffffffff1663eb0a8b916040518163ffffffff1660e01b815260040160206040518083038186803b15801561134257600080fd5b505afa158015611356573d6000803e3d6000fd5b505050506040513d601f19601f8201168201806040525081019061137a9190614e56565b60fe60006101000a81548173ffffffffffffffffffffffffffffffffffffffff021916908373ffffffffffffffffffffffffffffffffffffffff16021790555050565b633b9aca0081565b8160fb60009054906101000a900473ffffffffffffffffffffffffffffffffffffffff1673ffffffffffffffffffffffffffffffffffffffff1663a0f026ff826040518263ffffffff1660e01b8152600401611421919061544b565b60206040518083038186803b15801561143957600080fd5b505afa15801561144d573d6000803e3d6000fd5b505050506040513d601f19601f820116820180604052508101906114719190614f79565b6114b0576040517f08c379a00000000000000000000000000000000000000000000000000000000081526004016114a7906155c8565b60405180910390fd5b6114b8610647565b73ffffffffffffffffffffffffffffffffffffffff1663b187bd266040518163ffffffff1660e01b815260040160206040518083038186803b1580156114fd57600080fd5b505afa158015611511573d6000803e3d6000fd5b505050506040513d601f19601f820116820180604052508101906115359190614f79565b15611575576040517f08c379a000000000000000000000000000000000000000000000000000000000815260040161156c90615548565b60405180910390fd5b600260c95414156115bb576040517f08c379a00000000000000000000000000000000000000000000000000000000081526004016115b290615688565b60405180910390fd5b600260c981905550838373ffffffffffffffffffffffffffffffffffffffff1663dd62ed3e33306040518363ffffffff1660e01b81526004016115ff929190615466565b60206040518083038186803b15801561161757600080fd5b505afa15801561162b573d6000803e3d6000fd5b505050506040513d601f19601f8201168201806040525081019061164f9190614fcb565b1015611690576040517f08c379a0000000000000000000000000000000000000000000000000000000008152600401611687906155a8565b60405180910390fd5b60fb60009054906101000a900473ffffffffffffffffffffffffffffffffffffffff1673ffffffffffffffffffffffffffffffffffffffff16631441a5a96040518163ffffffff1660e01b815260040160206040518083038186803b1580156116f857600080fd5b505afa15801561170c573d6000803e3d6000fd5b505050506040513d601f19601f820116820180604052508101906117309190614e56565b73ffffffffffffffffffffffffffffffffffffffff16637543e3f033846040518363ffffffff1660e01b815260040161176a929190615466565b600060405180830381600087803b15801561178457600080fd5b505af1158015611798573d6000803e3d6000fd5b50505050600060ff60008573ffffffffffffffffffffffffffffffffffffffff1673ffffffffffffffffffffffffffffffffffffffff16815260200190815260200160002060000160003373ffffffffffffffffffffffffffffffffffffffff1673ffffffffffffffffffffffffffffffffffffffff168152602001908152602001600020905060008160010160000154111561183a576118393385612e32565b5b61184384613e57565b8373ffffffffffffffffffffffffffffffffffffffff166323b872dd3330886040518463ffffffff1660e01b81526004016118809392919061548f565b602060405180830381600087803b15801561189a57600080fd5b505af11580156118ae573d6000803e3d6000fd5b505050506040513d601f19601f820116820180604052508101906118d29190614f79565b506119288560ff60008773ffffffffffffffffffffffffffffffffffffffff1673ffffffffffffffffffffffffffffffffffffffff16815260200190815260200160002060030154613efb90919063ffffffff16565b60ff60008673ffffffffffffffffffffffffffffffffffffffff1673ffffffffffffffffffffffffffffffffffffffff16815260200190815260200160002060030181905550600061197a3386612271565b905060006119918783613efb90919063ffffffff16565b905061199e3382886132f1565b8573ffffffffffffffffffffffffffffffffffffffff163373ffffffffffffffffffffffffffffffffffffffff167f99039fcf0a98f484616c5196ee8b2ecfa971babf0b519848289ea4db381f85f7896040516119fb91906156c8565b60405180910390a3505050600160c98190555050505050565b60008160fb60009054906101000a900473ffffffffffffffffffffffffffffffffffffffff1673ffffffffffffffffffffffffffffffffffffffff1663a0f026ff826040518263ffffffff1660e01b8152600401611a72919061544b565b60206040518083038186803b158015611a8a57600080fd5b505afa158015611a9e573d6000803e3d6000fd5b505050506040513d601f19601f82011682018060405250810190611ac29190614f79565b611b01576040517f08c379a0000000000000000000000000000000000000000000000000000000008152600401611af8906155c8565b60405180910390fd5b600060ff60008573ffffffffffffffffffffffffffffffffffffffff1673ffffffffffffffffffffffffffffffffffffffff1681526020019081526020016000206003015490506000811415611b5b576000925050611b9b565b6000611b678686612271565b9050611b9682611b88670de0b6b3a764000084613f1190919063ffffffff16565b613f2790919063ffffffff16565b935050505b5092915050565b6101005481565b6060808260fb60009054906101000a900473ffffffffffffffffffffffffffffffffffffffff1673ffffffffffffffffffffffffffffffffffffffff1663a0f026ff826040518263ffffffff1660e01b8152600401611c08919061544b565b60206040518083038186803b158015611c2057600080fd5b505afa158015611c34573d6000803e3d6000fd5b505050506040513d601f19601f82011682018060405250810190611c589190614f79565b611c97576040517f08c379a0000000000000000000000000000000000000000000000000000000008152600401611c8e906155c8565b60405180910390fd5b600060ff60008673ffffffffffffffffffffffffffffffffffffffff1673ffffffffffffffffffffffffffffffffffffffff168152602001908152602001600020905060008160000160008873ffffffffffffffffffffffffffffffffffffffff1673ffffffffffffffffffffffffffffffffffffffff16815260200190815260200160002060000154905060008260000160008973ffffffffffffffffffffffffffffffffffffffff1673ffffffffffffffffffffffffffffffffffffffff16815260200190815260200160002090506000816001019050600081600001541415611e6a57600067ffffffffffffffff811115611dbe577f4e487b7100000000000000000000000000000000000000000000000000000000600052604160045260246000fd5b604051908082528060200260200182016040528015611dec5781602001602082028036833780820191505090505b509650600067ffffffffffffffff811115611e30577f4e487b7100000000000000000000000000000000000000000000000000000000600052604160045260246000fd5b604051908082528060200260200182016040528015611e5e5781602001602082028036833780820191505090505b50955050505050612261565b60fb60009054906101000a900473ffffffffffffffffffffffffffffffffffffffff1673ffffffffffffffffffffffffffffffffffffffff1663294d499e6040518163ffffffff1660e01b815260040160006040518083038186803b158015611ed257600080fd5b505afa158015611ee6573d6000803e3d6000fd5b505050506040513d6000823e3d601f19601f82011682018060405250810190611f0f9190614f38565b96506000875190508067ffffffffffffffff811115611f57577f4e487b7100000000000000000000000000000000000000000000000000000000600052604160045260246000fd5b604051908082528060200260200182016040528015611f855781602001602082028036833780820191505090505b50965060005b8181101561225a5760006120d48560040160008c8581518110611fd7577f4e487b7100000000000000000000000000000000000000000000000000000000600052603260045260246000fd5b602002602001015173ffffffffffffffffffffffffffffffffffffffff1673ffffffffffffffffffffffffffffffffffffffff168152602001908152602001600020548860020160008760020154815260200190815260200160002060008760010154815260200190815260200160002060008d8681518110612083577f4e487b7100000000000000000000000000000000000000000000000000000000600052603260045260246000fd5b602002602001015173ffffffffffffffffffffffffffffffffffffffff1673ffffffffffffffffffffffffffffffffffffffff168152602001908152602001600020546132db90919063ffffffff16565b905060006121ad633b9aca0089600201600088600201548152602001908152602001600020600061211360018a60010154613efb90919063ffffffff16565b815260200190815260200160002060008e878151811061215c577f4e487b7100000000000000000000000000000000000000000000000000000000600052603260045260246000fd5b602002602001015173ffffffffffffffffffffffffffffffffffffffff1673ffffffffffffffffffffffffffffffffffffffff16815260200190815260200160002054613f2790919063ffffffff16565b9050612200633b9aca006121f287600001546121e46121d58688613efb90919063ffffffff16565b8c613f1190919063ffffffff16565b613f2790919063ffffffff16565b613f2790919063ffffffff16565b8a8481518110612239577f4e487b7100000000000000000000000000000000000000000000000000000000600052603260045260246000fd5b6020026020010181815250505050808061225290615a17565b915050611f8b565b5050505050505b509250929050565b633b9aca0081565b60008160fb60009054906101000a900473ffffffffffffffffffffffffffffffffffffffff1673ffffffffffffffffffffffffffffffffffffffff1663a0f026ff826040518263ffffffff1660e01b81526004016122cf919061544b565b60206040518083038186803b1580156122e757600080fd5b505afa1580156122fb573d6000803e3d6000fd5b505050506040513d601f19601f8201168201806040525081019061231f9190614f79565b61235e576040517f08c379a0000000000000000000000000000000000000000000000000000000008152600401612355906155c8565b60405180910390fd5b600060ff60008573ffffffffffffffffffffffffffffffffffffffff1673ffffffffffffffffffffffffffffffffffffffff1681526020019081526020016000206004016000015414156123b557600091506125ec565b60ff60008473ffffffffffffffffffffffffffffffffffffffff1673ffffffffffffffffffffffffffffffffffffffff16815260200190815260200160002060000160008573ffffffffffffffffffffffffffffffffffffffff1673ffffffffffffffffffffffffffffffffffffffff168152602001908152602001600020600001549150600082141561244c57600091506125ec565b600060ff60008573ffffffffffffffffffffffffffffffffffffffff1673ffffffffffffffffffffffffffffffffffffffff16815260200190815260200160002060000160008673ffffffffffffffffffffffffffffffffffffffff1673ffffffffffffffffffffffffffffffffffffffff1681526020019081526020016000206001019050600060ff60008673ffffffffffffffffffffffffffffffffffffffff1673ffffffffffffffffffffffffffffffffffffffff1681526020019081526020016000206004019050806002015482600201541015612533576000935050506125ec565b6000612550836001015483600101546132db90919063ffffffff16565b9050600081141561258f57612588836000015461257a846000015488613f1190919063ffffffff16565b613f2790919063ffffffff16565b94506125e8565b60018114156125e2576125db633b9aca006125cd85600001546125bf86600001548a613f1190919063ffffffff16565b613f2790919063ffffffff16565b613f2790919063ffffffff16565b94506125e7565b600094505b5b5050505b5092915050565b8060fb60009054906101000a900473ffffffffffffffffffffffffffffffffffffffff1673ffffffffffffffffffffffffffffffffffffffff1663a0f026ff826040518263ffffffff1660e01b815260040161264f919061544b565b60206040518083038186803b15801561266757600080fd5b505afa15801561267b573d6000803e3d6000fd5b505050506040513d601f19601f8201168201806040525081019061269f9190614f79565b6126de576040517f08c379a00000000000000000000000000000000000000000000000000000000081526004016126d5906155c8565b60405180910390fd5b6126e6610647565b73ffffffffffffffffffffffffffffffffffffffff1663b187bd266040518163ffffffff1660e01b815260040160206040518083038186803b15801561272b57600080fd5b505afa15801561273f573d6000803e3d6000fd5b505050506040513d601f19601f820116820180604052508101906127639190614f79565b156127a3576040517f08c379a000000000000000000000000000000000000000000000000000000000815260040161279a90615548565b60405180910390fd5b600260c95414156127e9576040517f08c379a00000000000000000000000000000000000000000000000000000000081526004016127e090615688565b60405180910390fd5b600260c9819055506127fb3383612e32565b60006128073384612271565b90506128143382856132f1565b50600160c9819055505050565b612829612c60565b73ffffffffffffffffffffffffffffffffffffffff16612847611033565b73ffffffffffffffffffffffffffffffffffffffff161461289d576040517f08c379a000000000000000000000000000000000000000000000000000000000815260040161289490615648565b60405180910390fd5b600073ffffffffffffffffffffffffffffffffffffffff168173ffffffffffffffffffffffffffffffffffffffff16141561290d576040517f08c379a000000000000000000000000000000000000000000000000000000000815260040161290490615588565b60405180910390fd5b8073ffffffffffffffffffffffffffffffffffffffff16609760009054906101000a900473ffffffffffffffffffffffffffffffffffffffff1673ffffffffffffffffffffffffffffffffffffffff167f8be0079c531659141344cd1fd0a4f28419497f9722a3daafe3b4186f6b6457e060405160405180910390a380609760006101000a81548173ffffffffffffffffffffffffffffffffffffffff021916908373ffffffffffffffffffffffffffffffffffffffff16021790555050565b6129d5612c60565b73ffffffffffffffffffffffffffffffffffffffff166129f3611033565b73ffffffffffffffffffffffffffffffffffffffff1614612a49576040517f08c379a0000000000000000000000000000000000000000000000000000000008152600401612a4090615648565b60405180910390fd5b50565b6000612a56613f3d565b9050612a6184613f94565b600083511180612a6e5750815b15612a7f57612a7d848461404d565b505b6000612aad7f4910fdfa16fed3260ed0e7147f7cc6da11a60208b5b9406d12a635614ffd914360001b614131565b90508060000160009054906101000a900460ff16612c595760018160000160006101000a81548160ff021916908315150217905550612b798583604051602401612af7919061544b565b6040516020818303038152906040527f3659cfe6000000000000000000000000000000000000000000000000000000007bffffffffffffffffffffffffffffffffffffffffffffffffffffffff19166020820180517bffffffffffffffffffffffffffffffffffffffffffffffffffffffff838183161783525050505061404d565b5060008160000160006101000a81548160ff021916908315150217905550612b9f613f3d565b73ffffffffffffffffffffffffffffffffffffffff168273ffffffffffffffffffffffffffffffffffffffff1614612c0c576040517f08c379a0000000000000000000000000000000000000000000000000000000008152600401612c0390615568565b60405180910390fd5b612c1585613f94565b8473ffffffffffffffffffffffffffffffffffffffff167fbc7cd75a20ee27fd9adebab32041f755214dbc6bffa90cc0225b39da2e5c2d3b60405160405180910390a25b5050505050565b600033905090565b600060019054906101000a900460ff1680612c8e575060008054906101000a900460ff16155b612ccd576040517f08c379a0000000000000000000000000000000000000000000000000000000008152600401612cc4906155e8565b60405180910390fd5b60008060019054906101000a900460ff161590508015612d1d576001600060016101000a81548160ff02191690831515021790555060016000806101000a81548160ff0219169083151502179055505b612d2561413b565b612d2d614214565b8015612d4e5760008060016101000a81548160ff0219169083151502179055505b50565b600060019054906101000a900460ff1680612d77575060008054906101000a900460ff16155b612db6576040517f08c379a0000000000000000000000000000000000000000000000000000000008152600401612dad906155e8565b60405180910390fd5b60008060019054906101000a900460ff161590508015612e06576001600060016101000a81548160ff02191690831515021790555060016000806101000a81548160ff0219169083151502179055505b612e0e614396565b8015612e2f5760008060016101000a81548160ff0219169083151502179055505b50565b600060ff60008373ffffffffffffffffffffffffffffffffffffffff1673ffffffffffffffffffffffffffffffffffffffff168152602001908152602001600020600401600001541415612e85576132d7565b600080612e928484611ba9565b915091506000825111612ece577f4e487b7100000000000000000000000000000000000000000000000000000000600052600160045260246000fd5b60008251905060005b81811015613278576000838281518110612f1a577f4e487b7100000000000000000000000000000000000000000000000000000000600052603260045260246000fd5b60200260200101511415612f2d57613265565b600060ff60008773ffffffffffffffffffffffffffffffffffffffff1673ffffffffffffffffffffffffffffffffffffffff1681526020019081526020016000206001016000868481518110612fac577f4e487b7100000000000000000000000000000000000000000000000000000000600052603260045260246000fd5b602002602001015173ffffffffffffffffffffffffffffffffffffffff1673ffffffffffffffffffffffffffffffffffffffff16815260200190815260200160002054905083828151811061302a577f4e487b7100000000000000000000000000000000000000000000000000000000600052603260045260246000fd5b602002602001015181101561303f5750613265565b848281518110613078577f4e487b7100000000000000000000000000000000000000000000000000000000600052603260045260246000fd5b602002602001015173ffffffffffffffffffffffffffffffffffffffff1663a9059cbb888685815181106130d5577f4e487b7100000000000000000000000000000000000000000000000000000000600052603260045260246000fd5b60200260200101516040518363ffffffff1660e01b81526004016130fa9291906154c6565b602060405180830381600087803b15801561311457600080fd5b505af1158015613128573d6000803e3d6000fd5b505050506040513d601f19601f8201168201806040525081019061314c9190614f79565b506131a0848381518110613189577f4e487b7100000000000000000000000000000000000000000000000000000000600052603260045260246000fd5b6020026020010151826132db90919063ffffffff16565b60ff60008873ffffffffffffffffffffffffffffffffffffffff1673ffffffffffffffffffffffffffffffffffffffff168152602001908152602001600020600101600087858151811061321d577f4e487b7100000000000000000000000000000000000000000000000000000000600052603260045260246000fd5b602002602001015173ffffffffffffffffffffffffffffffffffffffff1673ffffffffffffffffffffffffffffffffffffffff16815260200190815260200160002081905550505b808061327090615a17565b915050612ed7565b508373ffffffffffffffffffffffffffffffffffffffff168573ffffffffffffffffffffffffffffffffffffffff167f34d58c18c6c1df2c698ccac556acea92941ca7b99d2fccf9e3ac1852d0dec36f60405160405180910390a35050505b5050565b600081836132e99190615916565b905092915050565b600060ff60008373ffffffffffffffffffffffffffffffffffffffff1673ffffffffffffffffffffffffffffffffffffffff1681526020019081526020016000209050828160000160008673ffffffffffffffffffffffffffffffffffffffff1673ffffffffffffffffffffffffffffffffffffffff1681526020019081526020016000206000018190555060008314156133f7578060000160008573ffffffffffffffffffffffffffffffffffffffff1673ffffffffffffffffffffffffffffffffffffffff16815260200190815260200160002060008082016000905560018201600080820160009055600182016000905560028201600090555050505050613679565b600081600401905060008260000160008773ffffffffffffffffffffffffffffffffffffffff1673ffffffffffffffffffffffffffffffffffffffff16815260200190815260200160002090506000816001019050826000015481600001819055508260010154816001018190555082600201548160020181905550600060fb60009054906101000a900473ffffffffffffffffffffffffffffffffffffffff1673ffffffffffffffffffffffffffffffffffffffff1663294d499e6040518163ffffffff1660e01b815260040160006040518083038186803b1580156134dd57600080fd5b505afa1580156134f1573d6000803e3d6000fd5b505050506040513d6000823e3d601f19601f8201168201806040525081019061351a9190614f38565b905060008151905060005b8181101561367157866002016000876002015481526020019081526020016000206000876001015481526020019081526020016000206000848381518110613596577f4e487b7100000000000000000000000000000000000000000000000000000000600052603260045260246000fd5b602002602001015173ffffffffffffffffffffffffffffffffffffffff1673ffffffffffffffffffffffffffffffffffffffff16815260200190815260200160002054856004016000858481518110613618577f4e487b7100000000000000000000000000000000000000000000000000000000600052603260045260246000fd5b602002602001015173ffffffffffffffffffffffffffffffffffffffff1673ffffffffffffffffffffffffffffffffffffffff16815260200190815260200160002081905550808061366990615a17565b915050613525565b505050505050505b505050565b60006060808373ffffffffffffffffffffffffffffffffffffffff1663095ea7b360fc60009054906101000a900473ffffffffffffffffffffffffffffffffffffffff16856040518363ffffffff1660e01b81526004016136e09291906154c6565b602060405180830381600087803b1580156136fa57600080fd5b505af115801561370e573d6000803e3d6000fd5b505050506040513d601f19601f820116820180604052508101906137329190614f79565b5060fc60009054906101000a900473ffffffffffffffffffffffffffffffffffffffff1673ffffffffffffffffffffffffffffffffffffffff166386b9d81f86866040518363ffffffff1660e01b8152600401613790929190615466565b600060405180830381600087803b1580156137aa57600080fd5b505af11580156137be573d6000803e3d6000fd5b505050506040513d6000823e3d601f19601f820116820180604052508101906137e7919061507f565b809350819450829550505050600081519050600060fb60009054906101000a900473ffffffffffffffffffffffffffffffffffffffff1673ffffffffffffffffffffffffffffffffffffffff1663ec94578e6040518163ffffffff1660e01b815260040160206040518083038186803b15801561386357600080fd5b505afa158015613877573d6000803e3d6000fd5b505050506040513d601f19601f8201168201806040525081019061389b9190614e56565b905060005b82811015613ae55760008482815181106138e3577f4e487b7100000000000000000000000000000000000000000000000000000000600052603260045260246000fd5b602002602001015114156138f657613ad2565b6000613968670de0b6b3a764000061395a61010054888681518110613944577f4e487b7100000000000000000000000000000000000000000000000000000000600052603260045260246000fd5b6020026020010151613f1190919063ffffffff16565b613f2790919063ffffffff16565b90508582815181106139a3577f4e487b7100000000000000000000000000000000000000000000000000000000600052603260045260246000fd5b602002602001015173ffffffffffffffffffffffffffffffffffffffff1663a9059cbb84836040518363ffffffff1660e01b81526004016139e59291906154c6565b602060405180830381600087803b1580156139ff57600080fd5b505af1158015613a13573d6000803e3d6000fd5b505050506040513d601f19601f82011682018060405250810190613a379190614f79565b50613a8b81868481518110613a75577f4e487b7100000000000000000000000000000000000000000000000000000000600052603260045260246000fd5b60200260200101516132db90919063ffffffff16565b858381518110613ac4577f4e487b7100000000000000000000000000000000000000000000000000000000600052603260045260246000fd5b602002602001018181525050505b8080613add90615a17565b9150506138a0565b5050509250925092565b600060ff60008373ffffffffffffffffffffffffffffffffffffffff1673ffffffffffffffffffffffffffffffffffffffff168152602001908152602001600020600301541480613b405750600084145b15613b4a57613e51565b60008351905060005b81811015613d92576000848281518110613b96577f4e487b7100000000000000000000000000000000000000000000000000000000600052603260045260246000fd5b60200260200101511415613ba957613d7f565b613cbb848281518110613be5577f4e487b7100000000000000000000000000000000000000000000000000000000600052603260045260246000fd5b602002602001015160ff60008673ffffffffffffffffffffffffffffffffffffffff1673ffffffffffffffffffffffffffffffffffffffff1681526020019081526020016000206001016000888581518110613c6a577f4e487b7100000000000000000000000000000000000000000000000000000000600052603260045260246000fd5b602002602001015173ffffffffffffffffffffffffffffffffffffffff1673ffffffffffffffffffffffffffffffffffffffff16815260200190815260200160002054613efb90919063ffffffff16565b60ff60008573ffffffffffffffffffffffffffffffffffffffff1673ffffffffffffffffffffffffffffffffffffffff1681526020019081526020016000206001016000878481518110613d38577f4e487b7100000000000000000000000000000000000000000000000000000000600052603260045260246000fd5b602002602001015173ffffffffffffffffffffffffffffffffffffffff1673ffffffffffffffffffffffffffffffffffffffff168152602001908152602001600020819055505b8080613d8a90615a17565b915050613b53565b50613d9f85858585614477565b613daa8484846145be565b613db48583614989565b613e098560ff60008573ffffffffffffffffffffffffffffffffffffffff1673ffffffffffffffffffffffffffffffffffffffff168152602001908152602001600020600301546132db90919063ffffffff16565b60ff60008473ffffffffffffffffffffffffffffffffffffffff1673ffffffffffffffffffffffffffffffffffffffff16815260200190815260200160002060030181905550505b50505050565b600060ff60008373ffffffffffffffffffffffffffffffffffffffff1673ffffffffffffffffffffffffffffffffffffffff1681526020019081526020016000206004016000015414613ea957613ef8565b633b9aca0060ff60008373ffffffffffffffffffffffffffffffffffffffff1673ffffffffffffffffffffffffffffffffffffffff168152602001908152602001600020600401600001819055505b50565b60008183613f099190615835565b905092915050565b60008183613f1f91906158bc565b905092915050565b60008183613f35919061588b565b905092915050565b6000613f6b7f360894a13ba1a3210667c828492db98dca3e2076cc3735a920a3ca505d382bbc60001b614b97565b60000160009054906101000a900473ffffffffffffffffffffffffffffffffffffffff16905090565b613f9d81614ba1565b613fdc576040517f08c379a0000000000000000000000000000000000000000000000000000000008152600401613fd390615628565b60405180910390fd5b806140097f360894a13ba1a3210667c828492db98dca3e2076cc3735a920a3ca505d382bbc60001b614b97565b60000160006101000a81548173ffffffffffffffffffffffffffffffffffffffff021916908373ffffffffffffffffffffffffffffffffffffffff16021790555050565b606061405883614ba1565b614097576040517f08c379a000000000000000000000000000000000000000000000000000000000815260040161408e90615668565b60405180910390fd5b6000808473ffffffffffffffffffffffffffffffffffffffff16846040516140bf9190615434565b600060405180830381855af49150503d80600081146140fa576040519150601f19603f3d011682016040523d82523d6000602084013e6140ff565b606091505b50915091506141278282604051806060016040528060278152602001615e2b60279139614bb4565b9250505092915050565b6000819050919050565b600060019054906101000a900460ff1680614161575060008054906101000a900460ff16155b6141a0576040517f08c379a0000000000000000000000000000000000000000000000000000000008152600401614197906155e8565b60405180910390fd5b60008060019054906101000a900460ff1615905080156141f0576001600060016101000a81548160ff02191690831515021790555060016000806101000a81548160ff0219169083151502179055505b80156142115760008060016101000a81548160ff0219169083151502179055505b50565b600060019054906101000a900460ff168061423a575060008054906101000a900460ff16155b614279576040517f08c379a0000000000000000000000000000000000000000000000000000000008152600401614270906155e8565b60405180910390fd5b60008060019054906101000a900460ff1615905080156142c9576001600060016101000a81548160ff02191690831515021790555060016000806101000a81548160ff0219169083151502179055505b60006142d3612c60565b905080609760006101000a81548173ffffffffffffffffffffffffffffffffffffffff021916908373ffffffffffffffffffffffffffffffffffffffff1602179055508073ffffffffffffffffffffffffffffffffffffffff16600073ffffffffffffffffffffffffffffffffffffffff167f8be0079c531659141344cd1fd0a4f28419497f9722a3daafe3b4186f6b6457e060405160405180910390a35080156143935760008060016101000a81548160ff0219169083151502179055505b50565b600060019054906101000a900460ff16806143bc575060008054906101000a900460ff16155b6143fb576040517f08c379a00000000000000000000000000000000000000000000000000000000081526004016143f2906155e8565b60405180910390fd5b60008060019054906101000a900460ff16159050801561444b576001600060016101000a81548160ff02191690831515021790555060016000806101000a81548160ff0219169083151502179055505b600160c98190555080156144745760008060016101000a81548160ff0219169083151502179055505b50565b600060ff60008373ffffffffffffffffffffffffffffffffffffffff1673ffffffffffffffffffffffffffffffffffffffff168152602001908152602001600020905080600301548511156144f5577f4e487b7100000000000000000000000000000000000000000000000000000000600052600160045260246000fd5b806003015485141561451d57633b9aca008160070181905550600081600801819055506145b7565b600061454c826008015461453e633b9aca0089613f1190919063ffffffff16565b6132db90919063ffffffff16565b9050614578600161456a846003015484613f2790919063ffffffff16565b613efb90919063ffffffff16565b82600701819055506145ad8161459f84600301548560070154613f1190919063ffffffff16565b6132db90919063ffffffff16565b8260080181905550505b5050505050565b600060ff60008373ffffffffffffffffffffffffffffffffffffffff1673ffffffffffffffffffffffffffffffffffffffff16815260200190815260200160002090506000808551905060005b818110156149805760006146ff8560090160008a8581518110614657577f4e487b7100000000000000000000000000000000000000000000000000000000600052603260045260246000fd5b602002602001015173ffffffffffffffffffffffffffffffffffffffff1673ffffffffffffffffffffffffffffffffffffffff168152602001908152602001600020546146f1633b9aca008a86815181106146db577f4e487b7100000000000000000000000000000000000000000000000000000000600052603260045260246000fd5b6020026020010151613f1190919063ffffffff16565b613efb90919063ffffffff16565b9050614718856003015482613f2790919063ffffffff16565b9350614743614734866003015486613f1190919063ffffffff16565b826132db90919063ffffffff16565b8560090160008a8581518110614782577f4e487b7100000000000000000000000000000000000000000000000000000000600052603260045260246000fd5b602002602001015173ffffffffffffffffffffffffffffffffffffffff1673ffffffffffffffffffffffffffffffffffffffff1681526020019081526020016000208190555060008560020160008760040160020154815260200190815260200160002060008760040160010154815260200190815260200160002060008a8581518110614839577f4e487b7100000000000000000000000000000000000000000000000000000000600052603260045260246000fd5b602002602001015173ffffffffffffffffffffffffffffffffffffffff1673ffffffffffffffffffffffffffffffffffffffff168152602001908152602001600020549050600061489a876004016000015487613f1190919063ffffffff16565b905060006148b18284613efb90919063ffffffff16565b9050808860020160008a60040160020154815260200190815260200160002060008a60040160010154815260200190815260200160002060008d8881518110614923577f4e487b7100000000000000000000000000000000000000000000000000000000600052603260045260246000fd5b602002602001015173ffffffffffffffffffffffffffffffffffffffff1673ffffffffffffffffffffffffffffffffffffffff1681526020019081526020016000208190555050505050808061497890615a17565b91505061460b565b50505050505050565b600060ff60008373ffffffffffffffffffffffffffffffffffffffff1673ffffffffffffffffffffffffffffffffffffffff1681526020019081526020016000209050633b9aca0081600701541115614a0b577f4e487b7100000000000000000000000000000000000000000000000000000000600052600160045260246000fd5b600081600401600001549050600080614a358460070154633b9aca006132db90919063ffffffff16565b90506000811415614a7f57614a5b60018560040160020154613efb90919063ffffffff16565b846004016002018190555060008460040160010181905550633b9aca009150614b4c565b633b9aca00614aad633b9aca00614a9f8487613f1190919063ffffffff16565b613f2790919063ffffffff16565b1015614b1f57614af2633b9aca00614ae4633b9aca00614ad68588613f1190919063ffffffff16565b613f1190919063ffffffff16565b613f2790919063ffffffff16565b9150614b0f60018560040160010154613efb90919063ffffffff16565b8460040160010181905550614b4b565b614b48633b9aca00614b3a8386613f1190919063ffffffff16565b613f2790919063ffffffff16565b91505b5b60008211614b83577f4e487b7100000000000000000000000000000000000000000000000000000000600052600160045260246000fd5b818460040160000181905550505050505050565b6000819050919050565b600080823b905060008111915050919050565b60608315614bc457829050614c14565b600083511115614bd75782518084602001fd5b816040517f08c379a0000000000000000000000000000000000000000000000000000000008152600401614c0b9190615526565b60405180910390fd5b9392505050565b6000614c2e614c2984615708565b6156e3565b90508083825260208201905082856020860282011115614c4d57600080fd5b60005b85811015614c7d5781614c638882614d46565b845260208401935060208301925050600181019050614c50565b5050509392505050565b6000614c9a614c9584615734565b6156e3565b90508083825260208201905082856020860282011115614cb957600080fd5b60005b85811015614ce95781614ccf8882614e18565b845260208401935060208301925050600181019050614cbc565b5050509392505050565b6000614d06614d0184615760565b6156e3565b905082815260208101848484011115614d1e57600080fd5b614d298482856159a4565b509392505050565b600081359050614d4081615dce565b92915050565b600081519050614d5581615dce565b92915050565b600081519050614d6a81615de5565b92915050565b600082601f830112614d8157600080fd5b8151614d91848260208601614c1b565b91505092915050565b600082601f830112614dab57600080fd5b8151614dbb848260208601614c87565b91505092915050565b600081519050614dd381615dfc565b92915050565b600082601f830112614dea57600080fd5b8135614dfa848260208601614cf3565b91505092915050565b600081359050614e1281615e13565b92915050565b600081519050614e2781615e13565b92915050565b600060208284031215614e3f57600080fd5b6000614e4d84828501614d31565b91505092915050565b600060208284031215614e6857600080fd5b6000614e7684828501614d46565b91505092915050565b600060208284031215614e9157600080fd5b6000614e9f84828501614d5b565b91505092915050565b60008060408385031215614ebb57600080fd5b6000614ec985828601614d31565b9250506020614eda85828601614d31565b9150509250929050565b60008060408385031215614ef757600080fd5b6000614f0585828601614d31565b925050602083013567ffffffffffffffff811115614f2257600080fd5b614f2e85828601614dd9565b9150509250929050565b600060208284031215614f4a57600080fd5b600082015167ffffffffffffffff811115614f6457600080fd5b614f7084828501614d70565b91505092915050565b600060208284031215614f8b57600080fd5b6000614f9984828501614dc4565b91505092915050565b600060208284031215614fb457600080fd5b6000614fc284828501614e03565b91505092915050565b600060208284031215614fdd57600080fd5b6000614feb84828501614e18565b91505092915050565b6000806040838503121561500757600080fd5b600061501585828601614e03565b925050602061502685828601614d31565b9150509250929050565b60008060006060848603121561504557600080fd5b600061505386828701614e03565b935050602061506486828701614d31565b925050604061507586828701614d31565b9150509250925092565b60008060006060848603121561509457600080fd5b60006150a286828701614e18565b935050602084015167ffffffffffffffff8111156150bf57600080fd5b6150cb86828701614d70565b925050604084015167ffffffffffffffff8111156150e857600080fd5b6150f486828701614d9a565b9150509250925092565b600061510a838361512e565b60208301905092915050565b60006151228383615416565b60208301905092915050565b6151378161594a565b82525050565b6151468161594a565b82525050565b6000615157826157b1565b61516181856157f7565b935061516c83615791565b8060005b8381101561519d57815161518488826150fe565b975061518f836157dd565b925050600181019050615170565b5085935050505092915050565b60006151b5826157bc565b6151bf8185615808565b93506151ca836157a1565b8060005b838110156151fb5781516151e28882615116565b97506151ed836157ea565b9250506001810190506151ce565b5085935050505092915050565b6000615213826157c7565b61521d8185615819565b935061522d8185602086016159b3565b80840191505092915050565b6000615244826157d2565b61524e8185615824565b935061525e8185602086016159b3565b61526781615aed565b840191505092915050565b600061527f600683615824565b915061528a82615afe565b602082019050919050565b60006152a2602f83615824565b91506152ad82615b27565b604082019050919050565b60006152c5602683615824565b91506152d082615b76565b604082019050919050565b60006152e8602d83615824565b91506152f382615bc5565b604082019050919050565b600061530b600283615824565b915061531682615c14565b602082019050919050565b600061532e602e83615824565b915061533982615c3d565b604082019050919050565b6000615351600283615824565b915061535c82615c8c565b602082019050919050565b6000615374602d83615824565b915061537f82615cb5565b604082019050919050565b6000615397602083615824565b91506153a282615d04565b602082019050919050565b60006153ba602683615824565b91506153c582615d2d565b604082019050919050565b60006153dd601f83615824565b91506153e882615d7c565b602082019050919050565b6000615400600c83615824565b915061540b82615da5565b602082019050919050565b61541f8161599a565b82525050565b61542e8161599a565b82525050565b60006154408284615208565b915081905092915050565b6000602082019050615460600083018461513d565b92915050565b600060408201905061547b600083018561513d565b615488602083018461513d565b9392505050565b60006060820190506154a4600083018661513d565b6154b1602083018561513d565b6154be6040830184615425565b949350505050565b60006040820190506154db600083018561513d565b6154e86020830184615425565b9392505050565b60006040820190508181036000830152615509818561514c565b9050818103602083015261551d81846151aa565b90509392505050565b600060208201905081810360008301526155408184615239565b905092915050565b6000602082019050818103600083015261556181615272565b9050919050565b6000602082019050818103600083015261558181615295565b9050919050565b600060208201905081810360008301526155a1816152b8565b9050919050565b600060208201905081810360008301526155c1816152db565b9050919050565b600060208201905081810360008301526155e1816152fe565b9050919050565b6000602082019050818103600083015261560181615321565b9050919050565b6000602082019050818103600083015261562181615344565b9050919050565b6000602082019050818103600083015261564181615367565b9050919050565b600060208201905081810360008301526156618161538a565b9050919050565b60006020820190508181036000830152615681816153ad565b9050919050565b600060208201905081810360008301526156a1816153d0565b9050919050565b600060208201905081810360008301526156c1816153f3565b9050919050565b60006020820190506156dd6000830184615425565b92915050565b60006156ed6156fe565b90506156f982826159e6565b919050565b6000604051905090565b600067ffffffffffffffff82111561572357615722615abe565b5b602082029050602081019050919050565b600067ffffffffffffffff82111561574f5761574e615abe565b5b602082029050602081019050919050565b600067ffffffffffffffff82111561577b5761577a615abe565b5b61578482615aed565b9050602081019050919050565b6000819050602082019050919050565b6000819050602082019050919050565b600081519050919050565b600081519050919050565b600081519050919050565b600081519050919050565b6000602082019050919050565b6000602082019050919050565b600082825260208201905092915050565b600082825260208201905092915050565b600081905092915050565b600082825260208201905092915050565b60006158408261599a565b915061584b8361599a565b9250827fffffffffffffffffffffffffffffffffffffffffffffffffffffffffffffffff038211156158805761587f615a60565b5b828201905092915050565b60006158968261599a565b91506158a18361599a565b9250826158b1576158b0615a8f565b5b828204905092915050565b60006158c78261599a565b91506158d28361599a565b9250817fffffffffffffffffffffffffffffffffffffffffffffffffffffffffffffffff048311821515161561590b5761590a615a60565b5b828202905092915050565b60006159218261599a565b915061592c8361599a565b92508282101561593f5761593e615a60565b5b828203905092915050565b60006159558261597a565b9050919050565b60006159678261597a565b9050919050565b60008115159050919050565b600073ffffffffffffffffffffffffffffffffffffffff82169050919050565b6000819050919050565b82818337600083830152505050565b60005b838110156159d15780820151818401526020810190506159b6565b838111156159e0576000848401525b50505050565b6159ef82615aed565b810181811067ffffffffffffffff82111715615a0e57615a0d615abe565b5b80604052505050565b6000615a228261599a565b91507fffffffffffffffffffffffffffffffffffffffffffffffffffffffffffffffff821415615a5557615a54615a60565b5b600182019050919050565b7f4e487b7100000000000000000000000000000000000000000000000000000000600052601160045260246000fd5b7f4e487b7100000000000000000000000000000000000000000000000000000000600052601260045260246000fd5b7f4e487b7100000000000000000000000000000000000000000000000000000000600052604160045260246000fd5b6000601f19601f8301169050919050565b7f5061757365640000000000000000000000000000000000000000000000000000600082015250565b7f45524331393637557067726164653a207570677261646520627265616b73206660008201527f7572746865722075706772616465730000000000000000000000000000000000602082015250565b7f4f776e61626c653a206e6577206f776e657220697320746865207a65726f206160008201527f6464726573730000000000000000000000000000000000000000000000000000602082015250565b7f66784b6565706572506f6f6c3a206678546f6b656e20455243323020616c6c6f60008201527f77616e6365206e6f74206d657400000000000000000000000000000000000000602082015250565b7f4946000000000000000000000000000000000000000000000000000000000000600082015250565b7f496e697469616c697a61626c653a20636f6e747261637420697320616c72656160008201527f647920696e697469616c697a6564000000000000000000000000000000000000602082015250565b7f4941000000000000000000000000000000000000000000000000000000000000600082015250565b7f455243313936373a206e657720696d706c656d656e746174696f6e206973206e60008201527f6f74206120636f6e747261637400000000000000000000000000000000000000602082015250565b7f4f776e61626c653a2063616c6c6572206973206e6f7420746865206f776e6572600082015250565b7f416464726573733a2064656c65676174652063616c6c20746f206e6f6e2d636f60008201527f6e74726163740000000000000000000000000000000000000000000000000000602082015250565b7f5265656e7472616e637947756172643a207265656e7472616e742063616c6c00600082015250565b7f49412028303c3d523c3d31290000000000000000000000000000000000000000600082015250565b615dd78161594a565b8114615de257600080fd5b50565b615dee8161595c565b8114615df957600080fd5b50565b615e058161596e565b8114615e1057600080fd5b50565b615e1c8161599a565b8114615e2757600080fd5b5056fe416464726573733a206c6f772d6c6576656c2064656c65676174652063616c6c206661696c6564a26469706673582212208b39dff36b9d34bc98bb1ef0f88cbb2a82a7937d000b33ffb1187c673c09a48964736f6c63430008030033",
  "linkReferences": {},
  "deployedLinkReferences": {}
}