{
  "_format": "hh-sol-artifact-1",
  "contractName": "fxKeeperPool",
  "sourceName": "contracts/Bank/fxKeeperPool.sol",
  "abi": [
    {
      "anonymous": false,
      "inputs": [
        {
          "indexed": false,
          "internalType": "address",
          "name": "previousAdmin",
          "type": "address"
        },
        {
          "indexed": false,
          "internalType": "address",
          "name": "newAdmin",
          "type": "address"
        }
      ],
      "name": "AdminChanged",
      "type": "event"
    },
    {
      "anonymous": false,
      "inputs": [
        {
          "indexed": true,
          "internalType": "address",
          "name": "beacon",
          "type": "address"
        }
      ],
      "name": "BeaconUpgraded",
      "type": "event"
    },
    {
      "anonymous": false,
      "inputs": [
        {
          "indexed": true,
          "internalType": "address",
          "name": "account",
          "type": "address"
        },
        {
          "indexed": true,
          "internalType": "address",
          "name": "token",
          "type": "address"
        },
        {
          "indexed": false,
          "internalType": "uint256",
          "name": "tokenAmount",
          "type": "uint256"
        }
      ],
      "name": "Liquidate",
      "type": "event"
    },
    {
      "anonymous": false,
      "inputs": [
        {
          "indexed": true,
          "internalType": "address",
          "name": "previousOwner",
          "type": "address"
        },
        {
          "indexed": true,
          "internalType": "address",
          "name": "newOwner",
          "type": "address"
        }
      ],
      "name": "OwnershipTransferred",
      "type": "event"
    },
    {
      "anonymous": false,
      "inputs": [
        {
          "indexed": true,
          "internalType": "address",
          "name": "account",
          "type": "address"
        },
        {
          "indexed": true,
          "internalType": "address",
          "name": "token",
          "type": "address"
        },
        {
          "indexed": false,
          "internalType": "uint256",
          "name": "amount",
          "type": "uint256"
        }
      ],
      "name": "Stake",
      "type": "event"
    },
    {
      "anonymous": false,
      "inputs": [
        {
          "indexed": true,
          "internalType": "address",
          "name": "account",
          "type": "address"
        },
        {
          "indexed": true,
          "internalType": "address",
          "name": "token",
          "type": "address"
        },
        {
          "indexed": false,
          "internalType": "uint256",
          "name": "amount",
          "type": "uint256"
        }
      ],
      "name": "Unstake",
      "type": "event"
    },
    {
      "anonymous": false,
      "inputs": [
        {
          "indexed": true,
          "internalType": "address",
          "name": "implementation",
          "type": "address"
        }
      ],
      "name": "Upgraded",
      "type": "event"
    },
    {
      "anonymous": false,
      "inputs": [
        {
          "indexed": true,
          "internalType": "address",
          "name": "account",
          "type": "address"
        },
        {
          "indexed": true,
          "internalType": "address",
          "name": "token",
          "type": "address"
        }
      ],
      "name": "Withdraw",
      "type": "event"
    },
    {
      "inputs": [],
      "name": "DECIMAL_PRECISION",
      "outputs": [
        {
          "internalType": "uint256",
          "name": "",
          "type": "uint256"
        }
      ],
      "stateMutability": "view",
      "type": "function"
    },
    {
      "inputs": [],
      "name": "SCALE_FACTOR",
      "outputs": [
        {
          "internalType": "uint256",
          "name": "",
          "type": "uint256"
        }
      ],
      "stateMutability": "view",
      "type": "function"
    },
    {
      "inputs": [
        {
          "internalType": "address",
          "name": "account",
          "type": "address"
        },
        {
          "internalType": "address",
          "name": "fxToken",
          "type": "address"
        }
      ],
      "name": "balanceOfRewards",
      "outputs": [
        {
          "internalType": "address[]",
          "name": "collateralTypes",
          "type": "address[]"
        },
        {
          "internalType": "uint256[]",
          "name": "collateralAmounts",
          "type": "uint256[]"
        }
      ],
      "stateMutability": "view",
      "type": "function"
    },
    {
      "inputs": [
        {
          "internalType": "address",
          "name": "account",
          "type": "address"
        },
        {
          "internalType": "address",
          "name": "fxToken",
          "type": "address"
        }
      ],
      "name": "balanceOfStake",
      "outputs": [
        {
          "internalType": "uint256",
          "name": "amount",
          "type": "uint256"
        }
      ],
      "stateMutability": "view",
      "type": "function"
    },
    {
      "inputs": [
        {
          "internalType": "address",
          "name": "fxToken",
          "type": "address"
        },
        {
          "internalType": "address",
          "name": "collateral",
          "type": "address"
        }
      ],
      "name": "getPoolCollateralBalance",
      "outputs": [
        {
          "internalType": "uint256",
          "name": "amount",
          "type": "uint256"
        }
      ],
      "stateMutability": "view",
      "type": "function"
    },
    {
      "inputs": [
        {
          "internalType": "address",
          "name": "fxToken",
          "type": "address"
        }
      ],
      "name": "getPoolTotalDeposit",
      "outputs": [
        {
          "internalType": "uint256",
          "name": "amount",
          "type": "uint256"
        }
      ],
      "stateMutability": "view",
      "type": "function"
    },
    {
      "inputs": [],
      "name": "handleAddress",
      "outputs": [
        {
          "internalType": "address",
          "name": "",
          "type": "address"
        }
      ],
      "stateMutability": "view",
      "type": "function"
    },
    {
      "inputs": [],
      "name": "initialize",
      "outputs": [],
      "stateMutability": "nonpayable",
      "type": "function"
    },
    {
      "inputs": [
        {
          "internalType": "address",
          "name": "account",
          "type": "address"
        },
        {
          "internalType": "address",
          "name": "fxToken",
          "type": "address"
        }
      ],
      "name": "liquidate",
      "outputs": [],
      "stateMutability": "nonpayable",
      "type": "function"
    },
    {
      "inputs": [],
      "name": "owner",
      "outputs": [
        {
          "internalType": "address",
          "name": "",
          "type": "address"
        }
      ],
      "stateMutability": "view",
      "type": "function"
    },
    {
      "inputs": [],
      "name": "protocolFee",
      "outputs": [
        {
          "internalType": "uint256",
          "name": "",
          "type": "uint256"
        }
      ],
      "stateMutability": "view",
      "type": "function"
    },
    {
      "inputs": [],
      "name": "renounceOwnership",
      "outputs": [],
      "stateMutability": "nonpayable",
      "type": "function"
    },
    {
      "inputs": [
        {
          "internalType": "address",
          "name": "_handle",
          "type": "address"
        }
      ],
      "name": "setHandleContract",
      "outputs": [],
      "stateMutability": "nonpayable",
      "type": "function"
    },
    {
      "inputs": [
        {
          "internalType": "uint256",
          "name": "ratio",
          "type": "uint256"
        }
      ],
      "name": "setProtocolFee",
      "outputs": [],
      "stateMutability": "nonpayable",
      "type": "function"
    },
    {
      "inputs": [
        {
          "internalType": "address",
          "name": "account",
          "type": "address"
        },
        {
          "internalType": "address",
          "name": "fxToken",
          "type": "address"
        }
      ],
      "name": "shareOf",
      "outputs": [
        {
          "internalType": "uint256",
          "name": "share",
          "type": "uint256"
        }
      ],
      "stateMutability": "view",
      "type": "function"
    },
    {
      "inputs": [
        {
          "internalType": "uint256",
          "name": "amount",
          "type": "uint256"
        },
        {
          "internalType": "address",
          "name": "fxToken",
          "type": "address"
        },
        {
          "internalType": "address",
          "name": "referral",
          "type": "address"
        }
      ],
      "name": "stake",
      "outputs": [],
      "stateMutability": "nonpayable",
      "type": "function"
    },
    {
      "inputs": [
        {
          "internalType": "address",
          "name": "newOwner",
          "type": "address"
        }
      ],
      "name": "transferOwnership",
      "outputs": [],
      "stateMutability": "nonpayable",
      "type": "function"
    },
    {
      "inputs": [
        {
          "internalType": "uint256",
          "name": "amount",
          "type": "uint256"
        },
        {
          "internalType": "address",
          "name": "fxToken",
          "type": "address"
        }
      ],
      "name": "unstake",
      "outputs": [],
      "stateMutability": "nonpayable",
      "type": "function"
    },
    {
      "inputs": [
        {
          "internalType": "address",
          "name": "newImplementation",
          "type": "address"
        }
      ],
      "name": "upgradeTo",
      "outputs": [],
      "stateMutability": "nonpayable",
      "type": "function"
    },
    {
      "inputs": [
        {
          "internalType": "address",
          "name": "newImplementation",
          "type": "address"
        },
        {
          "internalType": "bytes",
          "name": "data",
          "type": "bytes"
        }
      ],
      "name": "upgradeToAndCall",
      "outputs": [],
      "stateMutability": "payable",
      "type": "function"
    },
    {
      "inputs": [
        {
          "internalType": "address",
          "name": "fxToken",
          "type": "address"
        }
      ],
      "name": "withdrawCollateralReward",
      "outputs": [],
      "stateMutability": "nonpayable",
      "type": "function"
    }
  ],
  "bytecode": "0x60a06040523060601b60805234801561001757600080fd5b5060805160601c613bec61004b600039600081816103e30152818161042c015281816104b501526104f50152613bec6000f3fe60806040526004361061012a5760003560e01c80638da5cb5b116100ab578063b0e21e8a1161006f578063b0e21e8a14610333578063ccf37f171461034a578063ce4b5bbe146102db578063dde1f9ea14610378578063ea1e870014610398578063f2fde38b146103b85761012a565b80638da5cb5b1461029d5780639b1c414f146102bb578063a20baee6146102db578063a7d545db146102f3578063acd5d458146103135761012a565b80638129fc1c116100f25780638129fc1c146101d057806382212e3d146101e55780638381e1821461023d57806386b9d81f1461025d578063883c95da1461027d5761012a565b80633659cfe61461012f5780634f1ef28614610151578063715018a61461016457806374bf578b14610179578063787dce3d146101b0575b600080fd5b34801561013b57600080fd5b5061014f61014a36600461350e565b6103d8565b005b61014f61015f36600461357e565b6104aa565b34801561017057600080fd5b5061014f610564565b34801561018557600080fd5b5060fb546001600160a01b03165b6040516001600160a01b0390911681526020015b60405180910390f35b3480156101bc57600080fd5b5061014f6101cb3660046136b0565b61059a565b3480156101dc57600080fd5b5061014f610611565b3480156101f157600080fd5b5061022f610200366004613546565b6001600160a01b03918216600090815260ff602090815260408083209390941682526001909201909152205490565b6040519081526020016101a7565b34801561024957600080fd5b5061014f6102583660046136c8565b61069f565b34801561026957600080fd5b5061014f610278366004613546565b610b60565b34801561028957600080fd5b5061022f61029836600461350e565b610d34565b3480156102a957600080fd5b506097546001600160a01b0316610193565b3480156102c757600080fd5b5061014f6102d636600461350e565b610d56565b3480156102e757600080fd5b5061022f633b9aca0081565b3480156102ff57600080fd5b5061014f61030e3660046136ec565b610f51565b34801561031f57600080fd5b5061022f61032e366004613546565b6115ab565b34801561033f57600080fd5b5061022f6101005481565b34801561035657600080fd5b5061036a610365366004613546565b6116a9565b6040516101a792919061380d565b34801561038457600080fd5b5061022f610393366004613546565b611a8c565b3480156103a457600080fd5b5061014f6103b336600461350e565b611c4c565b3480156103c457600080fd5b5061014f6103d336600461350e565b611dd3565b306001600160a01b037f000000000000000000000000000000000000000000000000000000000000000016141561042a5760405162461bcd60e51b8152600401610421906138d6565b60405180910390fd5b7f00000000000000000000000000000000000000000000000000000000000000006001600160a01b031661045c611e6b565b6001600160a01b0316146104825760405162461bcd60e51b815260040161042190613922565b61048b81611e99565b604080516000808252602082019092526104a791839190611ec3565b50565b306001600160a01b037f00000000000000000000000000000000000000000000000000000000000000001614156104f35760405162461bcd60e51b8152600401610421906138d6565b7f00000000000000000000000000000000000000000000000000000000000000006001600160a01b0316610525611e6b565b6001600160a01b03161461054b5760405162461bcd60e51b815260040161042190613922565b61055482611e99565b61056082826001611ec3565b5050565b6097546001600160a01b0316331461058e5760405162461bcd60e51b8152600401610421906139d8565b610598600061200e565b565b6097546001600160a01b031633146105c45760405162461bcd60e51b8152600401610421906139d8565b670de0b6b3a764000081111561060b5760405162461bcd60e51b815260206004820152600c60248201526b49412028303c3d523c3d312960a01b6044820152606401610421565b61010055565b600054610100900460ff168061062a575060005460ff16155b6106465760405162461bcd60e51b81526004016104219061398a565b600054610100900460ff16158015610668576000805461ffff19166101011790555b610670612060565b6106786120db565b61010180546001600160a01b0319163017905580156104a7576000805461ff001916905550565b60fb5460405163a0f026ff60e01b81526001600160a01b0380841660048301528392169063a0f026ff9060240160206040518083038186803b1580156106e457600080fd5b505afa1580156106f8573d6000803e3d6000fd5b505050506040513d601f19601f8201168201806040525081019061071c9190613653565b6107385760405162461bcd60e51b81526004016104219061396e565b60fb546001600160a01b03166001600160a01b031663b187bd266040518163ffffffff1660e01b815260040160206040518083038186803b15801561077c57600080fd5b505afa158015610790573d6000803e3d6000fd5b505050506040513d601f19601f820116820180604052508101906107b49190613653565b156107d15760405162461bcd60e51b8152600401610421906138b6565b600260c95414156107f45760405162461bcd60e51b815260040161042190613a0d565b600260c95560006108053384611a8c565b905080841115610813578093505b600084116108485760405162461bcd60e51b8152602060048201526002602482015261494160f01b6044820152606401610421565b610852338461213a565b6001600160a01b038316600090815260ff602052604090206003015484111561088b57634e487b7160e01b600052600160045260246000fd5b61089f6001600160a01b03841633866123f5565b6001600160a01b038316600090815260ff60205260409020600301546108c5908561245d565b6001600160a01b038416600090815260ff60205260408120600301919091556108ee828661245d565b90506108fb338286612470565b60fb54604080516327b16a2560e21b815290516000926001600160a01b031691639ec5a894916004808301926020929190829003018186803b15801561094057600080fd5b505afa158015610954573d6000803e3d6000fd5b505050506040513d601f19601f82011682018060405250810190610978919061352a565b90506000806001600160a01b03831663db86b79981636de6d5ec8a60026040516001600160e01b031960e085901b1681526001600160a01b039092166004830152602482015260440160206040518083038186803b1580156109d957600080fd5b505afa1580156109ed573d6000803e3d6000fd5b505050506040513d601f19601f82011682018060405250810190610a119190613698565b6040518263ffffffff1660e01b8152600401610a2f91815260200190565b604080518083038186803b158015610a4657600080fd5b505afa158015610a5a573d6000803e3d6000fd5b505050506040513d601f19601f82011682018060405250810190610a7e919061366d565b915091508115610b115760405163515e335f60e11b815233600482015260248101899052604481018290526001600160a01b0384169063a2bc66be90606401602060405180830381600087803b158015610ad757600080fd5b505af1158015610aeb573d6000803e3d6000fd5b505050506040513d601f19601f82011682018060405250810190610b0f9190613698565b505b6040518881526001600160a01b0388169033907f390b1276974b9463e5d66ab10df69b6f3d7b930eb066a0e66df327edd2cc811c9060200160405180910390a35050600160c955505050505050565b60fb5460405163a0f026ff60e01b81526001600160a01b0380841660048301528392169063a0f026ff9060240160206040518083038186803b158015610ba557600080fd5b505afa158015610bb9573d6000803e3d6000fd5b505050506040513d601f19601f82011682018060405250810190610bdd9190613653565b610bf95760405162461bcd60e51b81526004016104219061396e565b60fb546001600160a01b03166001600160a01b031663b187bd266040518163ffffffff1660e01b815260040160206040518083038186803b158015610c3d57600080fd5b505afa158015610c51573d6000803e3d6000fd5b505050506040513d601f19601f82011682018060405250810190610c759190613653565b15610c925760405162461bcd60e51b8152600401610421906138b6565b600260c9541415610cb55760405162461bcd60e51b815260040161042190613a0d565b600260c95560008080610cc88686612680565b925092509250610cda838383886128d6565b846001600160a01b0316866001600160a01b03167faef3faf684172084346f7dc2cc3bb1328d1cc23caec12dd9a82d4a4e56c00b1785604051610d1f91815260200190565b60405180910390a35050600160c95550505050565b6001600160a01b038116600090815260ff60205260409020600301545b919050565b6097546001600160a01b03163314610d805760405162461bcd60e51b8152600401610421906139d8565b60fb80546001600160a01b0319166001600160a01b038316908117909155604080516361d027b360e01b815290516361d027b391600480820192602092909190829003018186803b158015610dd457600080fd5b505afa158015610de8573d6000803e3d6000fd5b505050506040513d601f19601f82011682018060405250810190610e0c919061352a565b60fd80546001600160a01b0319166001600160a01b0392831617905560fb546040805163202375d760e11b815290519190921691634046ebae916004808301926020929190829003018186803b158015610e6557600080fd5b505afa158015610e79573d6000803e3d6000fd5b505050506040513d601f19601f82011682018060405250810190610e9d919061352a565b60fc80546001600160a01b0319166001600160a01b0392831617905560fb546040805163eb0a8b9160e01b81529051919092169163eb0a8b91916004808301926020929190829003018186803b158015610ef657600080fd5b505afa158015610f0a573d6000803e3d6000fd5b505050506040513d601f19601f82011682018060405250810190610f2e919061352a565b60fe80546001600160a01b0319166001600160a01b039290921691909117905550565b60fb5460405163a0f026ff60e01b81526001600160a01b0380851660048301528492169063a0f026ff9060240160206040518083038186803b158015610f9657600080fd5b505afa158015610faa573d6000803e3d6000fd5b505050506040513d601f19601f82011682018060405250810190610fce9190613653565b610fea5760405162461bcd60e51b81526004016104219061396e565b60fb546001600160a01b03166001600160a01b031663b187bd266040518163ffffffff1660e01b815260040160206040518083038186803b15801561102e57600080fd5b505afa158015611042573d6000803e3d6000fd5b505050506040513d601f19601f820116820180604052508101906110669190613653565b156110835760405162461bcd60e51b8152600401610421906138b6565b600260c95414156110a65760405162461bcd60e51b815260040161042190613a0d565b600260c95561010154604051636eb1769f60e11b81523360048201526001600160a01b039182166024820152859185169063dd62ed3e9060440160206040518083038186803b1580156110f857600080fd5b505afa15801561110c573d6000803e3d6000fd5b505050506040513d601f19601f820116820180604052508101906111309190613698565b10156111945760405162461bcd60e51b815260206004820152602d60248201527f66784b6565706572506f6f6c3a206678546f6b656e20455243323020616c6c6f60448201526c1dd85b98d9481b9bdd081b595d609a1b6064820152608401610421565b60fb60009054906101000a90046001600160a01b03166001600160a01b0316631441a5a96040518163ffffffff1660e01b815260040160206040518083038186803b1580156111e257600080fd5b505afa1580156111f6573d6000803e3d6000fd5b505050506040513d601f19601f8201168201806040525081019061121a919061352a565b6040516307543e3f60e41b81523360048201526001600160a01b0384811660248301529190911690637543e3f090604401600060405180830381600087803b15801561126557600080fd5b505af1158015611279573d6000803e3d6000fd5b505050506001600160a01b038316600090815260ff6020908152604080832033845290915290206001810154156112b4576112b4338561213a565b6112bd84612abc565b610101546112da906001600160a01b038681169133911688612b06565b6001600160a01b038416600090815260ff60205260409020600301546113009086612b3e565b6001600160a01b038516600090815260ff60205260408120600301919091556113293386611a8c565b905060006113378288612b3e565b9050611344338288612470565b60fb54604080516327b16a2560e21b815290516000926001600160a01b031691639ec5a894916004808301926020929190829003018186803b15801561138957600080fd5b505afa15801561139d573d6000803e3d6000fd5b505050506040513d601f19601f820116820180604052508101906113c1919061352a565b90506000806001600160a01b03831663db86b79981636de6d5ec8c60026040516001600160e01b031960e085901b1681526001600160a01b039092166004830152602482015260440160206040518083038186803b15801561142257600080fd5b505afa158015611436573d6000803e3d6000fd5b505050506040513d601f19601f8201168201806040525081019061145a9190613698565b6040518263ffffffff1660e01b815260040161147891815260200190565b604080518083038186803b15801561148f57600080fd5b505afa1580156114a3573d6000803e3d6000fd5b505050506040513d601f19601f820116820180604052508101906114c7919061366d565b91509150811561155a57604051630c51b88f60e01b8152336004820152602481018b9052604481018290526001600160a01b03841690630c51b88f90606401602060405180830381600087803b15801561152057600080fd5b505af1158015611534573d6000803e3d6000fd5b505050506040513d601f19601f820116820180604052508101906115589190613698565b505b6040518a81526001600160a01b038a169033907f99039fcf0a98f484616c5196ee8b2ecfa971babf0b519848289ea4db381f85f79060200160405180910390a35050600160c9555050505050505050565b60fb5460405163a0f026ff60e01b81526001600160a01b038084166004830152600092849291169063a0f026ff9060240160206040518083038186803b1580156115f457600080fd5b505afa158015611608573d6000803e3d6000fd5b505050506040513d601f19601f8201168201806040525081019061162c9190613653565b6116485760405162461bcd60e51b81526004016104219061396e565b6001600160a01b038316600090815260ff6020526040902060030154806116735760009250506116a2565b600061167f8686611a8c565b905061169d8261169783670de0b6b3a7640000612b4a565b90612b56565b935050505b5092915050565b60fb5460405163a0f026ff60e01b81526001600160a01b038084166004830152606092839285929091169063a0f026ff9060240160206040518083038186803b1580156116f557600080fd5b505afa158015611709573d6000803e3d6000fd5b505050506040513d601f19601f8201168201806040525081019061172d9190613653565b6117495760405162461bcd60e51b81526004016104219061396e565b6001600160a01b03808516600090815260ff602090815260408083209389168352908390529020600181015461179a5750506040805160008082526020820190815281830190925293509150611a84565b60fb60009054906101000a90046001600160a01b03166001600160a01b031663294d499e6040518163ffffffff1660e01b815260040160006040518083038186803b1580156117e857600080fd5b505afa1580156117fc573d6000803e3d6000fd5b505050506040513d6000823e601f3d908101601f191682016040526118249190810190613620565b80519095508067ffffffffffffffff81111561185057634e487b7160e01b600052604160045260246000fd5b604051908082528060200260200182016040528015611879578160200160208202803683370190505b50945060006118888989611a8c565b90506000805b83811015611a7d5760006119778660040160008c85815181106118c157634e487b7160e01b600052603260045260246000fd5b60200260200101516001600160a01b03166001600160a01b03168152602001908152602001600020548860020160008960010160020154815260200190815260200160002060008960010160010154815260200190815260200160002060008d868151811061194057634e487b7160e01b600052603260045260246000fd5b60200260200101516001600160a01b03166001600160a01b031681526020019081526020016000205461245d90919063ffffffff16565b600387015460009081526002808a0160205260408220908901549293509091611a1491633b9aca009184906119ad906001612b3e565b815260200190815260200160002060008e87815181106119dd57634e487b7160e01b600052603260045260246000fd5b60200260200101516001600160a01b03166001600160a01b0316815260200190815260200160002054612b5690919063ffffffff16565b9050611a208282612b3e565b6001880154909450611a409250633b9aca00915061169790818787612b4a565b888281518110611a6057634e487b7160e01b600052603260045260246000fd5b602090810291909101015280611a7581613b33565b91505061188e565b5050505050505b509250929050565b60fb5460405163a0f026ff60e01b81526001600160a01b038084166004830152600092849291169063a0f026ff9060240160206040518083038186803b158015611ad557600080fd5b505afa158015611ae9573d6000803e3d6000fd5b505050506040513d601f19601f82011682018060405250810190611b0d9190613653565b611b295760405162461bcd60e51b81526004016104219061396e565b6001600160a01b038316600090815260ff6020526040902060040154611b5257600091506116a2565b6001600160a01b03808416600090815260ff6020908152604080832093881683529290522054915081611b8857600091506116a2565b6001600160a01b03808416600081815260ff60208181526040808420958a168452858252832093909252905260068201546003820154600190920192600401911015611bd9576000935050506116a2565b6000611bf68360010154836001015461245d90919063ffffffff16565b905080611c185782548254611c119190611697908890612b4a565b9450611c42565b8060011415611c3d5782548254611c1191633b9aca0091611697919082908a90612b4a565b600094505b5050505092915050565b60fb5460405163a0f026ff60e01b81526001600160a01b0380841660048301528392169063a0f026ff9060240160206040518083038186803b158015611c9157600080fd5b505afa158015611ca5573d6000803e3d6000fd5b505050506040513d601f19601f82011682018060405250810190611cc99190613653565b611ce55760405162461bcd60e51b81526004016104219061396e565b60fb546001600160a01b03166001600160a01b031663b187bd266040518163ffffffff1660e01b815260040160206040518083038186803b158015611d2957600080fd5b505afa158015611d3d573d6000803e3d6000fd5b505050506040513d601f19601f82011682018060405250810190611d619190613653565b15611d7e5760405162461bcd60e51b8152600401610421906138b6565b600260c9541415611da15760405162461bcd60e51b815260040161042190613a0d565b600260c955611db0338361213a565b6000611dbc3384611a8c565b9050611dc9338285612470565b5050600160c95550565b6097546001600160a01b03163314611dfd5760405162461bcd60e51b8152600401610421906139d8565b6001600160a01b038116611e625760405162461bcd60e51b815260206004820152602660248201527f4f776e61626c653a206e6577206f776e657220697320746865207a65726f206160448201526564647265737360d01b6064820152608401610421565b6104a78161200e565b7f360894a13ba1a3210667c828492db98dca3e2076cc3735a920a3ca505d382bbc546001600160a01b031690565b6097546001600160a01b031633146104a75760405162461bcd60e51b8152600401610421906139d8565b6000611ecd611e6b565b9050611ed884612b62565b600083511180611ee55750815b15611ef657611ef48484612c07565b505b7f4910fdfa16fed3260ed0e7147f7cc6da11a60208b5b9406d12a635614ffd9143805460ff1661200757805460ff191660011781556040516001600160a01b0383166024820152611f7590869060440160408051601f198184030181529190526020810180516001600160e01b0316631b2ce7f360e11b179052612c07565b50805460ff19168155611f86611e6b565b6001600160a01b0316826001600160a01b031614611ffe5760405162461bcd60e51b815260206004820152602f60248201527f45524331393637557067726164653a207570677261646520627265616b73206660448201526e75727468657220757067726164657360881b6064820152608401610421565b61200785612cf2565b5050505050565b609780546001600160a01b038381166001600160a01b0319831681179093556040519116919082907f8be0079c531659141344cd1fd0a4f28419497f9722a3daafe3b4186f6b6457e090600090a35050565b600054610100900460ff1680612079575060005460ff16155b6120955760405162461bcd60e51b81526004016104219061398a565b600054610100900460ff161580156120b7576000805461ffff19166101011790555b6120bf612d32565b6120c7612d9c565b80156104a7576000805461ff001916905550565b600054610100900460ff16806120f4575060005460ff16155b6121105760405162461bcd60e51b81526004016104219061398a565b600054610100900460ff16158015612132576000805461ffff19166101011790555b6120c7612dfc565b6001600160a01b038116600090815260ff602052604090206004015461215f57610560565b60008061216c84846116a9565b91509150600082511161218f57634e487b7160e01b600052600160045260246000fd5b815160005b818110156123ad578281815181106121bc57634e487b7160e01b600052603260045260246000fd5b6020026020010151600014156121d15761239b565b600060ff6000876001600160a01b03166001600160a01b03168152602001908152602001600020600101600086848151811061221d57634e487b7160e01b600052603260045260246000fd5b60200260200101516001600160a01b03166001600160a01b0316815260200190815260200160002054905083828151811061226857634e487b7160e01b600052603260045260246000fd5b602002602001015181101561227d575061239b565b6122b78483815181106122a057634e487b7160e01b600052603260045260246000fd5b60200260200101518261245d90919063ffffffff16565b60ff6000886001600160a01b03166001600160a01b03168152602001908152602001600020600101600087858151811061230157634e487b7160e01b600052603260045260246000fd5b60200260200101516001600160a01b03166001600160a01b03168152602001908152602001600020819055506123998785848151811061235157634e487b7160e01b600052603260045260246000fd5b602002602001015187858151811061237957634e487b7160e01b600052603260045260246000fd5b60200260200101516001600160a01b03166123f59092919063ffffffff16565b505b806123a581613b33565b915050612194565b50836001600160a01b0316856001600160a01b03167f34d58c18c6c1df2c698ccac556acea92941ca7b99d2fccf9e3ac1852d0dec36f60405160405180910390a35050505050565b6040516001600160a01b03831660248201526044810182905261245890849063a9059cbb60e01b906064015b60408051601f198184030181529190526020810180516001600160e01b03166001600160e01b031990931692909217909152612e6c565b505050565b60006124698284613af0565b9392505050565b6001600160a01b03808216600090815260ff602090815260408083209387168352908390529020839055826124d2576001600160a01b038416600090815260209190915260408120818155600181018290556002810182905560030155612458565b6001600160a01b038085166000908152602083905260408082206004808601805460018401908155600588015460028501556006880154600385015560fb5485516314a6a4cf60e11b815295519297949691959194169263294d499e9282820192869290829003018186803b15801561254a57600080fd5b505afa15801561255e573d6000803e3d6000fd5b505050506040513d6000823e601f3d908101601f191682016040526125869190810190613620565b805190915060005b81811015612674578660020160008760020154815260200190815260200160002060008760010154815260200190815260200160002060008483815181106125e657634e487b7160e01b600052603260045260246000fd5b60200260200101516001600160a01b03166001600160a01b031681526020019081526020016000205485600401600085848151811061263557634e487b7160e01b600052603260045260246000fd5b60200260200101516001600160a01b03166001600160a01b0316815260200190815260200160002081905550808061266c90613b33565b91505061258e565b50505050505050505050565b60fc546040516386b9d81f60e01b81526001600160a01b03848116600483015283811660248301526000926060928392909116906386b9d81f90604401600060405180830381600087803b1580156126d757600080fd5b505af11580156126eb573d6000803e3d6000fd5b505050506040513d6000823e601f3d908101601f19168201604052612713919081019061372d565b805160fb546040805163764a2bc760e11b81529051959850939650919450926000926001600160a01b039092169163ec94578e916004808301926020929190829003018186803b15801561276657600080fd5b505afa15801561277a573d6000803e3d6000fd5b505050506040513d601f19601f8201168201806040525081019061279e919061352a565b905060005b828110156128cc578381815181106127cb57634e487b7160e01b600052603260045260246000fd5b6020026020010151600014156127e0576128ba565b600061282b670de0b6b3a76400006116976101005488868151811061281557634e487b7160e01b600052603260045260246000fd5b6020026020010151612b4a90919063ffffffff16565b9050612852838288858151811061237957634e487b7160e01b600052603260045260246000fd5b61288c8186848151811061287657634e487b7160e01b600052603260045260246000fd5b602002602001015161245d90919063ffffffff16565b8583815181106128ac57634e487b7160e01b600052603260045260246000fd5b602002602001018181525050505b806128c481613b33565b9150506127a3565b5050509250925092565b6001600160a01b038116600090815260ff60205260409020600381015415806128fd575084155b156129085750612ab6565b806003015485111561292a57634e487b7160e01b600052600160045260246000fd5b835160005b81811015612a7d5784818151811061295757634e487b7160e01b600052603260045260246000fd5b60200260200101516000141561296c57612a6b565b612a1885828151811061298f57634e487b7160e01b600052603260045260246000fd5b602002602001015160ff6000876001600160a01b03166001600160a01b0316815260200190815260200160002060010160008985815181106129e157634e487b7160e01b600052603260045260246000fd5b60200260200101516001600160a01b03166001600160a01b0316815260200190815260200160002054612b3e90919063ffffffff16565b836001016000888481518110612a3e57634e487b7160e01b600052603260045260246000fd5b60200260200101516001600160a01b03166001600160a01b03168152602001908152602001600020819055505b80612a7581613b33565b91505061292f565b50612a8a86868685612f3e565b6003820154612a99908761245d565b6003830155612aa9858584612fc9565b612ab38683613208565b50505b50505050565b6001600160a01b038116600090815260ff602052604090206004015415612ae2576104a7565b6001600160a01b0316600090815260ff60205260409020633b9aca00600490910155565b6040516001600160a01b0380851660248301528316604482015260648101829052612ab69085906323b872dd60e01b90608401612421565b60006124698284613a99565b60006124698284613ad1565b60006124698284613ab1565b803b612bc65760405162461bcd60e51b815260206004820152602d60248201527f455243313936373a206e657720696d706c656d656e746174696f6e206973206e60448201526c1bdd08184818dbdb9d1c9858dd609a1b6064820152608401610421565b7f360894a13ba1a3210667c828492db98dca3e2076cc3735a920a3ca505d382bbc80546001600160a01b0319166001600160a01b0392909216919091179055565b6060823b612c665760405162461bcd60e51b815260206004820152602660248201527f416464726573733a2064656c65676174652063616c6c20746f206e6f6e2d636f6044820152651b9d1c9858dd60d21b6064820152608401610421565b600080846001600160a01b031684604051612c8191906137f1565b600060405180830381855af49150503d8060008114612cbc576040519150601f19603f3d011682016040523d82523d6000602084013e612cc1565b606091505b5091509150612ce98282604051806060016040528060278152602001613b906027913961330e565b95945050505050565b612cfb81612b62565b6040516001600160a01b038216907fbc7cd75a20ee27fd9adebab32041f755214dbc6bffa90cc0225b39da2e5c2d3b90600090a250565b600054610100900460ff1680612d4b575060005460ff16155b612d675760405162461bcd60e51b81526004016104219061398a565b600054610100900460ff161580156120c7576000805461ffff191661010117905580156104a7576000805461ff001916905550565b600054610100900460ff1680612db5575060005460ff16155b612dd15760405162461bcd60e51b81526004016104219061398a565b600054610100900460ff16158015612df3576000805461ffff19166101011790555b6120c73361200e565b600054610100900460ff1680612e15575060005460ff16155b612e315760405162461bcd60e51b81526004016104219061398a565b600054610100900460ff16158015612e53576000805461ffff19166101011790555b600160c95580156104a7576000805461ff001916905550565b6000612ec1826040518060400160405280602081526020017f5361666545524332303a206c6f772d6c6576656c2063616c6c206661696c6564815250856001600160a01b03166133479092919063ffffffff16565b8051909150156124585780806020019051810190612edf9190613653565b6124585760405162461bcd60e51b815260206004820152602a60248201527f5361666545524332303a204552433230206f7065726174696f6e20646964206e6044820152691bdd081cdd58d8d9595960b21b6064820152608401610421565b6003810154612f5d57633b9aca00600782015560006008820155612ab6565b6008810154600090612f7d90612f7787633b9aca00612b4a565b9061245d565b9050612fa16001612f9b846003015484612b5690919063ffffffff16565b90612b3e565b600783018190556003830154612fbd918391612f779190612b4a565b60088301555050505050565b8251600090815b81811015612ab357600061305485600901600089858151811061300357634e487b7160e01b600052603260045260246000fd5b60200260200101516001600160a01b03166001600160a01b0316815260200190815260200160002054612f9b633b9aca0089868151811061281557634e487b7160e01b600052603260045260246000fd5b905061306d856003015482612b5690919063ffffffff16565b9350613090613089866003015486612b4a90919063ffffffff16565b829061245d565b8560090160008985815181106130b657634e487b7160e01b600052603260045260246000fd5b6020908102919091018101516001600160a01b0316825281810192909252604090810160009081209390935560068801548352600288018252808320600589015484529091528120885182908a908690811061312257634e487b7160e01b600052603260045260246000fd5b60200260200101516001600160a01b03166001600160a01b031681526020019081526020016000205490506000613169876004016000015487612b4a90919063ffffffff16565b905060006131778383612b3e565b6006890154600090815260028a016020908152604080832060058d0154845290915281208c5192935083929091908d90899081106131c557634e487b7160e01b600052603260045260246000fd5b60200260200101516001600160a01b03166001600160a01b031681526020019081526020016000208190555050505050808061320090613b33565b915050612fd0565b633b9aca008160070154111561322e57634e487b7160e01b600052600160045260246000fd5b60048101546007820154600090819061324c90633b9aca009061245d565b90508061327b576006840154613263906001612b3e565b600685015560006005850155633b9aca0091506132e2565b633b9aca0061328e816116978685612b4a565b10156132cd576132b0633b9aca00611697816132aa8786612b4a565b90612b4a565b60058501549092506132c3906001612b3e565b60058501556132e2565b6132df633b9aca006116978584612b4a565b91505b6000821161330057634e487b7160e01b600052600160045260246000fd5b506004909201919091555050565b6060831561331d575081612469565b82511561332d5782518084602001fd5b8160405162461bcd60e51b81526004016104219190613883565b6060613356848460008561335e565b949350505050565b6060824710156133bf5760405162461bcd60e51b815260206004820152602660248201527f416464726573733a20696e73756666696369656e742062616c616e636520666f6044820152651c8818d85b1b60d21b6064820152608401610421565b843b61340d5760405162461bcd60e51b815260206004820152601d60248201527f416464726573733a2063616c6c20746f206e6f6e2d636f6e74726163740000006044820152606401610421565b600080866001600160a01b0316858760405161342991906137f1565b60006040518083038185875af1925050503d8060008114613466576040519150601f19603f3d011682016040523d82523d6000602084013e61346b565b606091505b509150915061347b82828661330e565b979650505050505050565b600082601f830112613496578081fd5b815160206134ab6134a683613a75565b613a44565b80838252828201915082860187848660051b89010111156134ca578586fd5b855b858110156134f15781516134df81613b7a565b845292840192908401906001016134cc565b5090979650505050505050565b80518015158114610d5157600080fd5b60006020828403121561351f578081fd5b813561246981613b7a565b60006020828403121561353b578081fd5b815161246981613b7a565b60008060408385031215613558578081fd5b823561356381613b7a565b9150602083013561357381613b7a565b809150509250929050565b60008060408385031215613590578182fd5b823561359b81613b7a565b915060208381013567ffffffffffffffff808211156135b8578384fd5b818601915086601f8301126135cb578384fd5b8135818111156135dd576135dd613b64565b6135ef601f8201601f19168501613a44565b91508082528784828501011115613604578485fd5b8084840185840137810190920192909252919491935090915050565b600060208284031215613631578081fd5b815167ffffffffffffffff811115613647578182fd5b61335684828501613486565b600060208284031215613664578081fd5b612469826134fe565b6000806040838503121561367f578182fd5b613688836134fe565b9150602083015190509250929050565b6000602082840312156136a9578081fd5b5051919050565b6000602082840312156136c1578081fd5b5035919050565b600080604083850312156136da578182fd5b82359150602083013561357381613b7a565b600080600060608486031215613700578081fd5b83359250602084013561371281613b7a565b9150604084013561372281613b7a565b809150509250925092565b600080600060608486031215613741578081fd5b8351925060208085015167ffffffffffffffff80821115613760578384fd5b61376c88838901613486565b94506040870151915080821115613781578384fd5b508501601f81018713613792578283fd5b80516137a06134a682613a75565b8082825284820191508484018a868560051b87010111156137bf578687fd5b8694505b838510156137e15780518352600194909401939185019185016137c3565b5080955050505050509250925092565b60008251613803818460208701613b07565b9190910192915050565b604080825283519082018190526000906020906060840190828701845b8281101561384f5781516001600160a01b03168452928401929084019060010161382a565b50505083810382850152845180825285830191830190845b818110156134f157835183529284019291840191600101613867565b60006020825282518060208401526138a2816040850160208701613b07565b601f01601f19169190910160400192915050565b60208082526006908201526514185d5cd95960d21b604082015260600190565b6020808252602c908201527f46756e6374696f6e206d7573742062652063616c6c6564207468726f7567682060408201526b19195b1959d85d1958d85b1b60a21b606082015260800190565b6020808252602c908201527f46756e6374696f6e206d7573742062652063616c6c6564207468726f7567682060408201526b6163746976652070726f787960a01b606082015260800190565b60208082526002908201526124a360f11b604082015260600190565b6020808252602e908201527f496e697469616c697a61626c653a20636f6e747261637420697320616c72656160408201526d191e481a5b9a5d1a585b1a5e995960921b606082015260800190565b6020808252818101527f4f776e61626c653a2063616c6c6572206973206e6f7420746865206f776e6572604082015260600190565b6020808252601f908201527f5265656e7472616e637947756172643a207265656e7472616e742063616c6c00604082015260600190565b604051601f8201601f1916810167ffffffffffffffff81118282101715613a6d57613a6d613b64565b604052919050565b600067ffffffffffffffff821115613a8f57613a8f613b64565b5060051b60200190565b60008219821115613aac57613aac613b4e565b500190565b600082613acc57634e487b7160e01b81526012600452602481fd5b500490565b6000816000190483118215151615613aeb57613aeb613b4e565b500290565b600082821015613b0257613b02613b4e565b500390565b60005b83811015613b22578181015183820152602001613b0a565b83811115612ab65750506000910152565b6000600019821415613b4757613b47613b4e565b5060010190565b634e487b7160e01b600052601160045260246000fd5b634e487b7160e01b600052604160045260246000fd5b6001600160a01b03811681146104a757600080fdfe416464726573733a206c6f772d6c6576656c2064656c65676174652063616c6c206661696c6564a2646970667358221220962e51e016d297db20ee5176100c1cba5497bf9a37a8291a20a477c8cef4f70264736f6c63430008030033",
  "linkReferences": {},
  "deployedLinkReferences": {}
}