{
  "_format": "hh-sol-artifact-1",
  "contractName": "fxKeeperPool",
  "sourceName": "contracts/Bank/fxKeeperPool.sol",
  "abi": [
    {
      "inputs": [
        {
          "internalType": "address",
          "name": "_comptroller",
          "type": "address"
        }
      ],
      "stateMutability": "nonpayable",
      "type": "constructor"
    },
    {
      "anonymous": false,
      "inputs": [
        {
          "indexed": true,
          "internalType": "address",
          "name": "account",
          "type": "address"
        },
        {
          "indexed": true,
          "internalType": "address",
          "name": "token",
          "type": "address"
        },
        {
          "indexed": false,
          "internalType": "uint256",
          "name": "tokenAmount",
          "type": "uint256"
        }
      ],
      "name": "Liquidate",
      "type": "event"
    },
    {
      "anonymous": false,
      "inputs": [
        {
          "indexed": true,
          "internalType": "address",
          "name": "previousOwner",
          "type": "address"
        },
        {
          "indexed": true,
          "internalType": "address",
          "name": "newOwner",
          "type": "address"
        }
      ],
      "name": "OwnershipTransferred",
      "type": "event"
    },
    {
      "anonymous": false,
      "inputs": [
        {
          "indexed": true,
          "internalType": "address",
          "name": "account",
          "type": "address"
        },
        {
          "indexed": true,
          "internalType": "address",
          "name": "token",
          "type": "address"
        },
        {
          "indexed": false,
          "internalType": "uint256",
          "name": "amount",
          "type": "uint256"
        }
      ],
      "name": "Stake",
      "type": "event"
    },
    {
      "anonymous": false,
      "inputs": [
        {
          "indexed": true,
          "internalType": "address",
          "name": "account",
          "type": "address"
        },
        {
          "indexed": true,
          "internalType": "address",
          "name": "token",
          "type": "address"
        },
        {
          "indexed": false,
          "internalType": "uint256",
          "name": "amount",
          "type": "uint256"
        }
      ],
      "name": "Unstake",
      "type": "event"
    },
    {
      "anonymous": false,
      "inputs": [
        {
          "indexed": true,
          "internalType": "address",
          "name": "account",
          "type": "address"
        },
        {
          "indexed": true,
          "internalType": "address",
          "name": "token",
          "type": "address"
        }
      ],
      "name": "Withdraw",
      "type": "event"
    },
    {
      "inputs": [],
      "name": "DECIMAL_PRECISION",
      "outputs": [
        {
          "internalType": "uint256",
          "name": "",
          "type": "uint256"
        }
      ],
      "stateMutability": "view",
      "type": "function"
    },
    {
      "inputs": [],
      "name": "SCALE_FACTOR",
      "outputs": [
        {
          "internalType": "uint256",
          "name": "",
          "type": "uint256"
        }
      ],
      "stateMutability": "view",
      "type": "function"
    },
    {
      "inputs": [
        {
          "internalType": "address",
          "name": "account",
          "type": "address"
        },
        {
          "internalType": "address",
          "name": "fxToken",
          "type": "address"
        }
      ],
      "name": "balanceOfRewards",
      "outputs": [
        {
          "internalType": "address[]",
          "name": "collateralTypes",
          "type": "address[]"
        },
        {
          "internalType": "uint256[]",
          "name": "collateralAmounts",
          "type": "uint256[]"
        }
      ],
      "stateMutability": "view",
      "type": "function"
    },
    {
      "inputs": [
        {
          "internalType": "address",
          "name": "account",
          "type": "address"
        },
        {
          "internalType": "address",
          "name": "fxToken",
          "type": "address"
        }
      ],
      "name": "balanceOfStake",
      "outputs": [
        {
          "internalType": "uint256",
          "name": "amount",
          "type": "uint256"
        }
      ],
      "stateMutability": "view",
      "type": "function"
    },
    {
      "inputs": [],
      "name": "comptroller",
      "outputs": [
        {
          "internalType": "address",
          "name": "",
          "type": "address"
        }
      ],
      "stateMutability": "view",
      "type": "function"
    },
    {
      "inputs": [
        {
          "internalType": "address",
          "name": "fxToken",
          "type": "address"
        },
        {
          "internalType": "address",
          "name": "collateral",
          "type": "address"
        }
      ],
      "name": "getPoolCollateralBalance",
      "outputs": [
        {
          "internalType": "uint256",
          "name": "amount",
          "type": "uint256"
        }
      ],
      "stateMutability": "view",
      "type": "function"
    },
    {
      "inputs": [
        {
          "internalType": "address",
          "name": "fxToken",
          "type": "address"
        }
      ],
      "name": "getPoolTotalDeposit",
      "outputs": [
        {
          "internalType": "uint256",
          "name": "amount",
          "type": "uint256"
        }
      ],
      "stateMutability": "view",
      "type": "function"
    },
    {
      "inputs": [
        {
          "internalType": "address",
          "name": "account",
          "type": "address"
        },
        {
          "internalType": "address",
          "name": "fxToken",
          "type": "address"
        }
      ],
      "name": "liquidate",
      "outputs": [],
      "stateMutability": "nonpayable",
      "type": "function"
    },
    {
      "inputs": [],
      "name": "owner",
      "outputs": [
        {
          "internalType": "address",
          "name": "",
          "type": "address"
        }
      ],
      "stateMutability": "view",
      "type": "function"
    },
    {
      "inputs": [],
      "name": "renounceOwnership",
      "outputs": [],
      "stateMutability": "nonpayable",
      "type": "function"
    },
    {
      "inputs": [
        {
          "internalType": "address",
          "name": "_comptroller",
          "type": "address"
        }
      ],
      "name": "setComptroller",
      "outputs": [],
      "stateMutability": "nonpayable",
      "type": "function"
    },
    {
      "inputs": [
        {
          "internalType": "address",
          "name": "account",
          "type": "address"
        },
        {
          "internalType": "address",
          "name": "fxToken",
          "type": "address"
        }
      ],
      "name": "shareOf",
      "outputs": [
        {
          "internalType": "uint256",
          "name": "share",
          "type": "uint256"
        }
      ],
      "stateMutability": "view",
      "type": "function"
    },
    {
      "inputs": [
        {
          "internalType": "uint256",
          "name": "amount",
          "type": "uint256"
        },
        {
          "internalType": "address",
          "name": "fxToken",
          "type": "address"
        }
      ],
      "name": "stake",
      "outputs": [],
      "stateMutability": "nonpayable",
      "type": "function"
    },
    {
      "inputs": [
        {
          "internalType": "address",
          "name": "newOwner",
          "type": "address"
        }
      ],
      "name": "transferOwnership",
      "outputs": [],
      "stateMutability": "nonpayable",
      "type": "function"
    },
    {
      "inputs": [
        {
          "internalType": "uint256",
          "name": "amount",
          "type": "uint256"
        },
        {
          "internalType": "address",
          "name": "fxToken",
          "type": "address"
        }
      ],
      "name": "unstake",
      "outputs": [],
      "stateMutability": "nonpayable",
      "type": "function"
    },
    {
      "inputs": [
        {
          "internalType": "address",
          "name": "fxToken",
          "type": "address"
        }
      ],
      "name": "withdrawCollateralReward",
      "outputs": [],
      "stateMutability": "nonpayable",
      "type": "function"
    }
  ],
  "bytecode": "0x60806040523480156200001157600080fd5b506040516200465338038062004653833981810160405281019062000037919062000155565b6000620000496200013660201b60201c565b9050806000806101000a81548173ffffffffffffffffffffffffffffffffffffffff021916908373ffffffffffffffffffffffffffffffffffffffff1602179055508073ffffffffffffffffffffffffffffffffffffffff16600073ffffffffffffffffffffffffffffffffffffffff167f8be0079c531659141344cd1fd0a4f28419497f9722a3daafe3b4186f6b6457e060405160405180910390a3506001808190555080600260006101000a81548173ffffffffffffffffffffffffffffffffffffffff021916908373ffffffffffffffffffffffffffffffffffffffff16021790555050620001cf565b600033905090565b6000815190506200014f81620001b5565b92915050565b6000602082840312156200016857600080fd5b600062000178848285016200013e565b91505092915050565b60006200018e8262000195565b9050919050565b600073ffffffffffffffffffffffffffffffffffffffff82169050919050565b620001c08162000181565b8114620001cc57600080fd5b50565b61447480620001df6000396000f3fe608060405234801561001057600080fd5b50600436106101005760003560e01c80638da5cb5b11610097578063ce4b5bbe11610066578063ce4b5bbe1461029a578063dde1f9ea146102b8578063ea1e8700146102e8578063f2fde38b1461030457610100565b80638da5cb5b146101fd578063a20baee61461021b578063acd5d45814610239578063ccf37f171461026957610100565b80638381e182116100d35780638381e1821461017957806386b9d81f14610195578063883c95da146101b15780638bad38dd146101e157610100565b80635fe3b56714610105578063715018a6146101235780637acb77571461012d57806382212e3d14610149575b600080fd5b61010d610320565b60405161011a9190613f94565b60405180910390f35b61012b610346565b005b61014760048036038101906101429190613d3b565b6104cc565b005b610163600480360381019061015e9190613b94565b61094f565b6040516101709190614166565b60405180910390f35b610193600480360381019061018e9190613d3b565b6109d9565b005b6101af60048036038101906101aa9190613b94565b610d58565b005b6101cb60048036038101906101c69190613b19565b610f3e565b6040516101d89190614166565b60405180910390f35b6101fb60048036038101906101f69190613b19565b610f8a565b005b610205611096565b6040516102129190613f94565b60405180910390f35b6102236110bf565b6040516102309190614166565b60405180910390f35b610253600480360381019061024e9190613b94565b6110c7565b6040516102609190614166565b60405180910390f35b610283600480360381019061027e9190613b94565b61123a565b6040516102919291906140cf565b60405180910390f35b6102a26116dc565b6040516102af9190614166565b60405180910390f35b6102d260048036038101906102cd9190613b94565b6116e4565b6040516102df9190614166565b60405180910390f35b61030260048036038101906102fd9190613b19565b611a4b565b005b61031e60048036038101906103199190613b19565b611bb1565b005b600260009054906101000a900473ffffffffffffffffffffffffffffffffffffffff1681565b61034e611dbc565b73ffffffffffffffffffffffffffffffffffffffff1660008054906101000a900473ffffffffffffffffffffffffffffffffffffffff1673ffffffffffffffffffffffffffffffffffffffff161461040e576040517f08c379a00000000000000000000000000000000000000000000000000000000081526004018080602001828103825260208152602001807f4f776e61626c653a2063616c6c6572206973206e6f7420746865206f776e657281525060200191505060405180910390fd5b600073ffffffffffffffffffffffffffffffffffffffff1660008054906101000a900473ffffffffffffffffffffffffffffffffffffffff1673ffffffffffffffffffffffffffffffffffffffff167f8be0079c531659141344cd1fd0a4f28419497f9722a3daafe3b4186f6b6457e060405160405180910390a360008060006101000a81548173ffffffffffffffffffffffffffffffffffffffff021916908373ffffffffffffffffffffffffffffffffffffffff160217905550565b806104d5611dc4565b73ffffffffffffffffffffffffffffffffffffffff1663a0f026ff826040518263ffffffff1660e01b815260040161050d9190613f94565b60206040518083038186803b15801561052557600080fd5b505afa158015610539573d6000803e3d6000fd5b505050506040513d601f19601f8201168201806040525081019061055d9190613ce9565b61059c576040517f08c379a000000000000000000000000000000000000000000000000000000000815260040161059390614126565b60405180910390fd5b60026001541415610615576040517f08c379a000000000000000000000000000000000000000000000000000000000815260040180806020018281038252601f8152602001807f5265656e7472616e637947756172643a207265656e7472616e742063616c6c0081525060200191505060405180910390fd5b600260018190555061062682611dee565b828273ffffffffffffffffffffffffffffffffffffffff1663dd62ed3e33306040518363ffffffff1660e01b8152600401610662929190613faf565b60206040518083038186803b15801561067a57600080fd5b505afa15801561068e573d6000803e3d6000fd5b505050506040513d601f19601f820116820180604052508101906106b29190613d12565b10156106f3576040517f08c379a00000000000000000000000000000000000000000000000000000000081526004016106ea90614106565b60405180910390fd5b8173ffffffffffffffffffffffffffffffffffffffff166323b872dd3330866040518463ffffffff1660e01b815260040161073093929190613fd8565b602060405180830381600087803b15801561074a57600080fd5b505af115801561075e573d6000803e3d6000fd5b505050506040513d601f19601f820116820180604052508101906107829190613ce9565b506107d883600360008573ffffffffffffffffffffffffffffffffffffffff1673ffffffffffffffffffffffffffffffffffffffff16815260200190815260200160002060030154611e9290919063ffffffff16565b600360008473ffffffffffffffffffffffffffffffffffffffff1673ffffffffffffffffffffffffffffffffffffffff168152602001908152602001600020600301819055506000600360008473ffffffffffffffffffffffffffffffffffffffff1673ffffffffffffffffffffffffffffffffffffffff16815260200190815260200160002060000160003373ffffffffffffffffffffffffffffffffffffffff1673ffffffffffffffffffffffffffffffffffffffff168152602001908152602001600020905060006108ad33856116e4565b905060006108c48683611e9290919063ffffffff16565b90506108d1338287611f1a565b6108db33866122aa565b8473ffffffffffffffffffffffffffffffffffffffff163373ffffffffffffffffffffffffffffffffffffffff167f99039fcf0a98f484616c5196ee8b2ecfa971babf0b519848289ea4db381f85f7886040516109389190614166565b60405180910390a350505060018081905550505050565b6000600360008473ffffffffffffffffffffffffffffffffffffffff1673ffffffffffffffffffffffffffffffffffffffff16815260200190815260200160002060010160008373ffffffffffffffffffffffffffffffffffffffff1673ffffffffffffffffffffffffffffffffffffffff16815260200190815260200160002054905092915050565b806109e2611dc4565b73ffffffffffffffffffffffffffffffffffffffff1663a0f026ff826040518263ffffffff1660e01b8152600401610a1a9190613f94565b60206040518083038186803b158015610a3257600080fd5b505afa158015610a46573d6000803e3d6000fd5b505050506040513d601f19601f82011682018060405250810190610a6a9190613ce9565b610aa9576040517f08c379a0000000000000000000000000000000000000000000000000000000008152600401610aa090614126565b60405180910390fd5b60026001541415610b22576040517f08c379a000000000000000000000000000000000000000000000000000000000815260040180806020018281038252601f8152602001807f5265656e7472616e637947756172643a207265656e7472616e742063616c6c0081525060200191505060405180910390fd5b60026001819055506000610b3633846116e4565b905080841115610b44578093505b83600360008573ffffffffffffffffffffffffffffffffffffffff1673ffffffffffffffffffffffffffffffffffffffff168152602001908152602001600020600301541015610b9057fe5b8273ffffffffffffffffffffffffffffffffffffffff1663a9059cbb33866040518363ffffffff1660e01b8152600401610bcb92919061400f565b602060405180830381600087803b158015610be557600080fd5b505af1158015610bf9573d6000803e3d6000fd5b505050506040513d601f19601f82011682018060405250810190610c1d9190613ce9565b50610c7384600360008673ffffffffffffffffffffffffffffffffffffffff1673ffffffffffffffffffffffffffffffffffffffff1681526020019081526020016000206003015461243090919063ffffffff16565b600360008573ffffffffffffffffffffffffffffffffffffffff1673ffffffffffffffffffffffffffffffffffffffff168152602001908152602001600020600301819055506000610cce858361243090919063ffffffff16565b9050610cdb338286611f1a565b610ce533856122aa565b8373ffffffffffffffffffffffffffffffffffffffff163373ffffffffffffffffffffffffffffffffffffffff167f390b1276974b9463e5d66ab10df69b6f3d7b930eb066a0e66df327edd2cc811c87604051610d429190614166565b60405180910390a3505060018081905550505050565b80610d61611dc4565b73ffffffffffffffffffffffffffffffffffffffff1663a0f026ff826040518263ffffffff1660e01b8152600401610d999190613f94565b60206040518083038186803b158015610db157600080fd5b505afa158015610dc5573d6000803e3d6000fd5b505050506040513d601f19601f82011682018060405250810190610de99190613ce9565b610e28576040517f08c379a0000000000000000000000000000000000000000000000000000000008152600401610e1f90614126565b60405180910390fd5b60026001541415610ea1576040517f08c379a000000000000000000000000000000000000000000000000000000000815260040180806020018281038252601f8152602001807f5265656e7472616e637947756172643a207265656e7472616e742063616c6c0081525060200191505060405180910390fd5b60026001819055506000806000610eb8868661247a565b925092509250610eca83838388612f37565b8473ffffffffffffffffffffffffffffffffffffffff168673ffffffffffffffffffffffffffffffffffffffff167faef3faf684172084346f7dc2cc3bb1328d1cc23caec12dd9a82d4a4e56c00b1785604051610f279190614166565b60405180910390a350505060018081905550505050565b6000600360008373ffffffffffffffffffffffffffffffffffffffff1673ffffffffffffffffffffffffffffffffffffffff168152602001908152602001600020600301549050919050565b610f92611dbc565b73ffffffffffffffffffffffffffffffffffffffff1660008054906101000a900473ffffffffffffffffffffffffffffffffffffffff1673ffffffffffffffffffffffffffffffffffffffff1614611052576040517f08c379a00000000000000000000000000000000000000000000000000000000081526004018080602001828103825260208152602001807f4f776e61626c653a2063616c6c6572206973206e6f7420746865206f776e657281525060200191505060405180910390fd5b80600260006101000a81548173ffffffffffffffffffffffffffffffffffffffff021916908373ffffffffffffffffffffffffffffffffffffffff16021790555050565b60008060009054906101000a900473ffffffffffffffffffffffffffffffffffffffff16905090565b633b9aca0081565b6000816110d2611dc4565b73ffffffffffffffffffffffffffffffffffffffff1663a0f026ff826040518263ffffffff1660e01b815260040161110a9190613f94565b60206040518083038186803b15801561112257600080fd5b505afa158015611136573d6000803e3d6000fd5b505050506040513d601f19601f8201168201806040525081019061115a9190613ce9565b611199576040517f08c379a000000000000000000000000000000000000000000000000000000000815260040161119090614126565b60405180910390fd5b6000600360008573ffffffffffffffffffffffffffffffffffffffff1673ffffffffffffffffffffffffffffffffffffffff16815260200190815260200160002060030154905060008114156111f3576000925050611233565b60006111ff86866116e4565b905061122e82611220670de0b6b3a76400008461305590919063ffffffff16565b6130db90919063ffffffff16565b935050505b5092915050565b60608082611246611dc4565b73ffffffffffffffffffffffffffffffffffffffff1663a0f026ff826040518263ffffffff1660e01b815260040161127e9190613f94565b60206040518083038186803b15801561129657600080fd5b505afa1580156112aa573d6000803e3d6000fd5b505050506040513d601f19601f820116820180604052508101906112ce9190613ce9565b61130d576040517f08c379a000000000000000000000000000000000000000000000000000000000815260040161130490614126565b60405180910390fd5b6000600360008673ffffffffffffffffffffffffffffffffffffffff1673ffffffffffffffffffffffffffffffffffffffff168152602001908152602001600020905060008160000160008873ffffffffffffffffffffffffffffffffffffffff1673ffffffffffffffffffffffffffffffffffffffff16815260200190815260200160002060000154905060008260000160008973ffffffffffffffffffffffffffffffffffffffff1673ffffffffffffffffffffffffffffffffffffffff16815260200190815260200160002060010190506113e9611dc4565b73ffffffffffffffffffffffffffffffffffffffff1663294d499e6040518163ffffffff1660e01b815260040160006040518083038186803b15801561142e57600080fd5b505afa158015611442573d6000803e3d6000fd5b505050506040513d6000823e3d601f19601f8201168201806040525081019061146b9190613bd0565b9550855167ffffffffffffffff8111801561148557600080fd5b506040519080825280602002602001820160405280156114b45781602001602082028036833780820191505090505b50945060005b86518110156116d05760006115aa8360000160008a85815181106114da57fe5b602002602001015173ffffffffffffffffffffffffffffffffffffffff1673ffffffffffffffffffffffffffffffffffffffff168152602001908152602001600020548660020160008660030154815260200190815260200160002060008660020154815260200190815260200160002060008b868151811061155957fe5b602002602001015173ffffffffffffffffffffffffffffffffffffffff1673ffffffffffffffffffffffffffffffffffffffff1681526020019081526020016000205461243090919063ffffffff16565b90506000611656633b9aca008760020160008760030154815260200190815260200160002060006115e960018960020154611e9290919063ffffffff16565b815260200190815260200160002060008c878151811061160557fe5b602002602001015173ffffffffffffffffffffffffffffffffffffffff1673ffffffffffffffffffffffffffffffffffffffff168152602001908152602001600020546130db90919063ffffffff16565b90506116a9633b9aca0061169b866001015461168d61167e8688611e9290919063ffffffff16565b8a61305590919063ffffffff16565b6130db90919063ffffffff16565b6130db90919063ffffffff16565b8884815181106116b557fe5b602002602001018181525050505080806001019150506114ba565b50505050509250929050565b633b9aca0081565b6000816116ef611dc4565b73ffffffffffffffffffffffffffffffffffffffff1663a0f026ff826040518263ffffffff1660e01b81526004016117279190613f94565b60206040518083038186803b15801561173f57600080fd5b505afa158015611753573d6000803e3d6000fd5b505050506040513d601f19601f820116820180604052508101906117779190613ce9565b6117b6576040517f08c379a00000000000000000000000000000000000000000000000000000000081526004016117ad90614126565b60405180910390fd5b6000600360008573ffffffffffffffffffffffffffffffffffffffff1673ffffffffffffffffffffffffffffffffffffffff16815260200190815260200160002060040160010154141561180d5760009150611a44565b600360008473ffffffffffffffffffffffffffffffffffffffff1673ffffffffffffffffffffffffffffffffffffffff16815260200190815260200160002060000160008573ffffffffffffffffffffffffffffffffffffffff1673ffffffffffffffffffffffffffffffffffffffff16815260200190815260200160002060000154915060008214156118a45760009150611a44565b6000600360008573ffffffffffffffffffffffffffffffffffffffff1673ffffffffffffffffffffffffffffffffffffffff16815260200190815260200160002060000160008673ffffffffffffffffffffffffffffffffffffffff1673ffffffffffffffffffffffffffffffffffffffff16815260200190815260200160002060010190506000600360008673ffffffffffffffffffffffffffffffffffffffff1673ffffffffffffffffffffffffffffffffffffffff168152602001908152602001600020600401905080600301548260030154101561198b57600093505050611a44565b60006119a88360020154836002015461243090919063ffffffff16565b905060008114156119e7576119e083600101546119d284600101548861305590919063ffffffff16565b6130db90919063ffffffff16565b9450611a40565b6001811415611a3a57611a33633b9aca00611a258560010154611a1786600101548a61305590919063ffffffff16565b6130db90919063ffffffff16565b6130db90919063ffffffff16565b9450611a3f565b600094505b5b5050505b5092915050565b80611a54611dc4565b73ffffffffffffffffffffffffffffffffffffffff1663a0f026ff826040518263ffffffff1660e01b8152600401611a8c9190613f94565b60206040518083038186803b158015611aa457600080fd5b505afa158015611ab8573d6000803e3d6000fd5b505050506040513d601f19601f82011682018060405250810190611adc9190613ce9565b611b1b576040517f08c379a0000000000000000000000000000000000000000000000000000000008152600401611b1290614126565b60405180910390fd5b60026001541415611b94576040517f08c379a000000000000000000000000000000000000000000000000000000000815260040180806020018281038252601f8152602001807f5265656e7472616e637947756172643a207265656e7472616e742063616c6c0081525060200191505060405180910390fd5b6002600181905550611ba633836122aa565b600180819055505050565b611bb9611dbc565b73ffffffffffffffffffffffffffffffffffffffff1660008054906101000a900473ffffffffffffffffffffffffffffffffffffffff1673ffffffffffffffffffffffffffffffffffffffff1614611c79576040517f08c379a00000000000000000000000000000000000000000000000000000000081526004018080602001828103825260208152602001807f4f776e61626c653a2063616c6c6572206973206e6f7420746865206f776e657281525060200191505060405180910390fd5b600073ffffffffffffffffffffffffffffffffffffffff168173ffffffffffffffffffffffffffffffffffffffff161415611cff576040517f08c379a00000000000000000000000000000000000000000000000000000000081526004018080602001828103825260268152602001806143f86026913960400191505060405180910390fd5b8073ffffffffffffffffffffffffffffffffffffffff1660008054906101000a900473ffffffffffffffffffffffffffffffffffffffff1673ffffffffffffffffffffffffffffffffffffffff167f8be0079c531659141344cd1fd0a4f28419497f9722a3daafe3b4186f6b6457e060405160405180910390a3806000806101000a81548173ffffffffffffffffffffffffffffffffffffffff021916908373ffffffffffffffffffffffffffffffffffffffff16021790555050565b600033905090565b6000600260009054906101000a900473ffffffffffffffffffffffffffffffffffffffff16905090565b6000600360008373ffffffffffffffffffffffffffffffffffffffff1673ffffffffffffffffffffffffffffffffffffffff1681526020019081526020016000206004016001015414611e4057611e8f565b633b9aca00600360008373ffffffffffffffffffffffffffffffffffffffff1673ffffffffffffffffffffffffffffffffffffffff168152602001908152602001600020600401600101819055505b50565b600080828401905083811015611f10576040517f08c379a000000000000000000000000000000000000000000000000000000000815260040180806020018281038252601b8152602001807f536166654d6174683a206164646974696f6e206f766572666c6f77000000000081525060200191505060405180910390fd5b8091505092915050565b81600360008373ffffffffffffffffffffffffffffffffffffffff1673ffffffffffffffffffffffffffffffffffffffff16815260200190815260200160002060000160008573ffffffffffffffffffffffffffffffffffffffff1673ffffffffffffffffffffffffffffffffffffffff16815260200190815260200160002060000181905550600082141561205957600360008273ffffffffffffffffffffffffffffffffffffffff1673ffffffffffffffffffffffffffffffffffffffff16815260200190815260200160002060000160008473ffffffffffffffffffffffffffffffffffffffff1673ffffffffffffffffffffffffffffffffffffffff168152602001908152602001600020600080820160009055600182016000600182016000905560028201600090556003820160009055505050506122a5565b6000600360008373ffffffffffffffffffffffffffffffffffffffff1673ffffffffffffffffffffffffffffffffffffffff16815260200190815260200160002060040190506000600360008473ffffffffffffffffffffffffffffffffffffffff1673ffffffffffffffffffffffffffffffffffffffff16815260200190815260200160002060000160008673ffffffffffffffffffffffffffffffffffffffff1673ffffffffffffffffffffffffffffffffffffffff16815260200190815260200160002060010190508160010154816001018190555081600201548160020181905550816003015481600301819055506000612156611dc4565b73ffffffffffffffffffffffffffffffffffffffff1663294d499e6040518163ffffffff1660e01b815260040160006040518083038186803b15801561219b57600080fd5b505afa1580156121af573d6000803e3d6000fd5b505050506040513d6000823e3d601f19601f820116820180604052508101906121d89190613bd0565b905060005b81518110156122a0578360000160008383815181106121f857fe5b602002602001015173ffffffffffffffffffffffffffffffffffffffff1673ffffffffffffffffffffffffffffffffffffffff1681526020019081526020016000205483600001600084848151811061224d57fe5b602002602001015173ffffffffffffffffffffffffffffffffffffffff1673ffffffffffffffffffffffffffffffffffffffff1681526020019081526020016000208190555080806001019150506121dd565b505050505b505050565b6000806122b7848461123a565b9150915060008251116122c657fe5b60005b82518110156123b55760008282815181106122e057fe5b602002602001015114156122f3576123a8565b8281815181106122ff57fe5b602002602001015173ffffffffffffffffffffffffffffffffffffffff1663a9059cbb8684848151811061232f57fe5b60200260200101516040518363ffffffff1660e01b81526004016123549291906140a6565b602060405180830381600087803b15801561236e57600080fd5b505af1158015612382573d6000803e3d6000fd5b505050506040513d601f19601f820116820180604052508101906123a69190613ce9565b505b80806001019150506122c9565b5060006123c285856116e4565b90506123cf858286611f1a565b8373ffffffffffffffffffffffffffffffffffffffff168573ffffffffffffffffffffffffffffffffffffffff167f34d58c18c6c1df2c698ccac556acea92941ca7b99d2fccf9e3ac1852d0dec36f60405160405180910390a35050505050565b600061247283836040518060400160405280601e81526020017f536166654d6174683a207375627472616374696f6e206f766572666c6f770000815250613125565b905092915050565b600060608060006124896131e5565b73ffffffffffffffffffffffffffffffffffffffff1663db3fabeb87876040518363ffffffff1660e01b81526004016124c3929190614038565b60206040518083038186803b1580156124db57600080fd5b505afa1580156124ef573d6000803e3d6000fd5b505050506040513d601f19601f820116820180604052508101906125139190613d12565b9050600061251f6131e5565b73ffffffffffffffffffffffffffffffffffffffff16634c90f22988886040518363ffffffff1660e01b8152600401612559929190614038565b60206040518083038186803b15801561257157600080fd5b505afa158015612585573d6000803e3d6000fd5b505050506040513d601f19601f820116820180604052508101906125a99190613d12565b905060006125b56131e5565b73ffffffffffffffffffffffffffffffffffffffff1663bcbe3f2289896040518363ffffffff1660e01b81526004016125ef929190614038565b60206040518083038186803b15801561260757600080fd5b505afa15801561261b573d6000803e3d6000fd5b505050506040513d601f19601f8201168201806040525081019061263f9190613d12565b9050600061264b6131e5565b73ffffffffffffffffffffffffffffffffffffffff166364d321b78a8a6040518363ffffffff1660e01b8152600401612685929190614038565b60206040518083038186803b15801561269d57600080fd5b505afa1580156126b1573d6000803e3d6000fd5b505050506040513d601f19601f820116820180604052508101906126d59190613d12565b90506000612706670de0b6b3a76400006126f8868561305590919063ffffffff16565b6130db90919063ffffffff16565b90506000612788670de0b6b3a764000061277a6127598661274b606461273d670de0b6b3a76400008c61305590919063ffffffff16565b6130db90919063ffffffff16565b611e9290919063ffffffff16565b61276c868b611e9290919063ffffffff16565b61305590919063ffffffff16565b6130db90919063ffffffff16565b90506127b1866127a36103e88461305590919063ffffffff16565b6130db90919063ffffffff16565b93505060006127be611dc4565b73ffffffffffffffffffffffffffffffffffffffff1663d02641a08b6040518263ffffffff1660e01b81526004016127f69190613f94565b60206040518083038186803b15801561280e57600080fd5b505afa158015612822573d6000803e3d6000fd5b505050506040513d601f19601f820116820180604052508101906128469190613d12565b9050612908816128fa670de0b6b3a76400006128606131e5565b73ffffffffffffffffffffffffffffffffffffffff166397ae1974898c8c6040518463ffffffff1660e01b815260040161289c939291906141c6565b60206040518083038186803b1580156128b457600080fd5b505afa1580156128c8573d6000803e3d6000fd5b505050506040513d601f19601f820116820180604052508101906128ec9190613d12565b61305590919063ffffffff16565b6130db90919063ffffffff16565b98505087600360008b73ffffffffffffffffffffffffffffffffffffffff1673ffffffffffffffffffffffffffffffffffffffff168152602001908152602001600020600301541015612990576040517f08c379a000000000000000000000000000000000000000000000000000000000815260040161298790614146565b60405180910390fd5b8873ffffffffffffffffffffffffffffffffffffffff1663095ea7b3600260009054906101000a900473ffffffffffffffffffffffffffffffffffffffff168a6040518363ffffffff1660e01b81526004016129ed9291906140a6565b602060405180830381600087803b158015612a0757600080fd5b505af1158015612a1b573d6000803e3d6000fd5b505050506040513d601f19601f82011682018060405250810190612a3f9190613ce9565b50612a48611dc4565b73ffffffffffffffffffffffffffffffffffffffff166343cc3946898b8d426040518563ffffffff1660e01b8152600401612a869493929190614181565b600060405180830381600087803b158015612aa057600080fd5b505af1158015612ab4573d6000803e3d6000fd5b505050506040513d6000823e3d601f19601f82011682018060405250810190612add9190613c7d565b80985081975050506000612aef6131e5565b73ffffffffffffffffffffffffffffffffffffffff1663db3fabeb8c8c6040518363ffffffff1660e01b8152600401612b29929190614038565b60206040518083038186803b158015612b4157600080fd5b505afa158015612b55573d6000803e3d6000fd5b505050506040513d601f19601f82011682018060405250810190612b799190613d12565b90506000612b856131e5565b73ffffffffffffffffffffffffffffffffffffffff16634c90f2298d8d6040518363ffffffff1660e01b8152600401612bbf929190614038565b60206040518083038186803b158015612bd757600080fd5b505afa158015612beb573d6000803e3d6000fd5b505050506040513d601f19601f82011682018060405250810190612c0f9190613d12565b90505050600080612c1e613271565b73ffffffffffffffffffffffffffffffffffffffff16631856d56f8d30868f6040518563ffffffff1660e01b8152600401612c5c9493929190614061565b600060405180830381600087803b158015612c7657600080fd5b505af1158015612c8a573d6000803e3d6000fd5b505050506040513d6000823e3d601f19601f82011682018060405250810190612cb39190613c11565b9150915060005b8251811015612d9e5760005b8a51811015612d90578a8181518110612cdb57fe5b602002602001015173ffffffffffffffffffffffffffffffffffffffff16848381518110612d0557fe5b602002602001015173ffffffffffffffffffffffffffffffffffffffff1614612d2d57612d83565b612d66838381518110612d3c57fe5b60200260200101518b8381518110612d5057fe5b6020026020010151611e9290919063ffffffff16565b8a8281518110612d7257fe5b602002602001018181525050612d90565b8080600101915050612cc6565b508080600101915050612cba565b50505060005b8751811015612f2a576000878281518110612dbb57fe5b60200260200101511415612dce57612f1d565b612e86878281518110612ddd57fe5b6020026020010151600360008d73ffffffffffffffffffffffffffffffffffffffff1673ffffffffffffffffffffffffffffffffffffffff16815260200190815260200160002060010160008b8581518110612e3557fe5b602002602001015173ffffffffffffffffffffffffffffffffffffffff1673ffffffffffffffffffffffffffffffffffffffff16815260200190815260200160002054611e9290919063ffffffff16565b600360008c73ffffffffffffffffffffffffffffffffffffffff1673ffffffffffffffffffffffffffffffffffffffff16815260200190815260200160002060010160008a8481518110612ed657fe5b602002602001015173ffffffffffffffffffffffffffffffffffffffff1673ffffffffffffffffffffffffffffffffffffffff168152602001908152602001600020819055505b8080600101915050612da4565b5050505050509250925092565b6000600360008373ffffffffffffffffffffffffffffffffffffffff1673ffffffffffffffffffffffffffffffffffffffff168152602001908152602001600020600301541480612f885750600084145b15612f925761304f565b612f9e848484846132fd565b612fa9838383613417565b612fb384826136f5565b61300884600360008473ffffffffffffffffffffffffffffffffffffffff1673ffffffffffffffffffffffffffffffffffffffff1681526020019081526020016000206003015461243090919063ffffffff16565b600360008373ffffffffffffffffffffffffffffffffffffffff1673ffffffffffffffffffffffffffffffffffffffff168152602001908152602001600020600301819055505b50505050565b60008083141561306857600090506130d5565b600082840290508284828161307957fe5b04146130d0576040517f08c379a000000000000000000000000000000000000000000000000000000000815260040180806020018281038252602181526020018061441e6021913960400191505060405180910390fd5b809150505b92915050565b600061311d83836040518060400160405280601a81526020017f536166654d6174683a206469766973696f6e206279207a65726f0000000000008152506138a9565b905092915050565b60008383111582906131d2576040517f08c379a00000000000000000000000000000000000000000000000000000000081526004018080602001828103825283818151815260200191508051906020019080838360005b8381101561319757808201518184015260208101905061317c565b50505050905090810190601f1680156131c45780820380516001836020036101000a031916815260200191505b509250505060405180910390fd5b5060008385039050809150509392505050565b60006131ef611dc4565b73ffffffffffffffffffffffffffffffffffffffff1663eb0a8b916040518163ffffffff1660e01b815260040160206040518083038186803b15801561323457600080fd5b505afa158015613248573d6000803e3d6000fd5b505050506040513d601f19601f8201168201806040525081019061326c9190613b42565b905090565b600061327b611dc4565b73ffffffffffffffffffffffffffffffffffffffff166361d027b36040518163ffffffff1660e01b815260040160206040518083038186803b1580156132c057600080fd5b505afa1580156132d4573d6000803e3d6000fd5b505050506040513d601f19601f820116820180604052508101906132f89190613b6b565b905090565b6000600360008373ffffffffffffffffffffffffffffffffffffffff1673ffffffffffffffffffffffffffffffffffffffff1681526020019081526020016000209050806003015485111561334e57fe5b806003015485141561337657633b9aca00816008018190555060008160090181905550613410565b60006133a58260090154613397633b9aca008961305590919063ffffffff16565b61243090919063ffffffff16565b90506133d160016133c38460030154846130db90919063ffffffff16565b611e9290919063ffffffff16565b8260080181905550613406816133f88460030154856008015461305590919063ffffffff16565b61243090919063ffffffff16565b8260090181905550505b5050505050565b6000600360008373ffffffffffffffffffffffffffffffffffffffff1673ffffffffffffffffffffffffffffffffffffffff16815260200190815260200160002090506000805b85518110156136ed5760006134f984600a01600089858151811061347e57fe5b602002602001015173ffffffffffffffffffffffffffffffffffffffff1673ffffffffffffffffffffffffffffffffffffffff168152602001908152602001600020546134eb633b9aca008986815181106134d557fe5b602002602001015161305590919063ffffffff16565b611e9290919063ffffffff16565b90506135128460030154826130db90919063ffffffff16565b925061353d61352e85600301548561305590919063ffffffff16565b8261243090919063ffffffff16565b84600a01600089858151811061354f57fe5b602002602001015173ffffffffffffffffffffffffffffffffffffffff1673ffffffffffffffffffffffffffffffffffffffff1681526020019081526020016000208190555060008460020160008660040160030154815260200190815260200160002060008660040160020154815260200190815260200160002060008985815181106135d957fe5b602002602001015173ffffffffffffffffffffffffffffffffffffffff1673ffffffffffffffffffffffffffffffffffffffff168152602001908152602001600020549050600061363a86600401600101548661305590919063ffffffff16565b905060006136518284611e9290919063ffffffff16565b9050808760020160008960040160030154815260200190815260200160002060008960040160020154815260200190815260200160002060008c888151811061369657fe5b602002602001015173ffffffffffffffffffffffffffffffffffffffff1673ffffffffffffffffffffffffffffffffffffffff1681526020019081526020016000208190555050505050808060010191505061345e565b505050505050565b6000600360008373ffffffffffffffffffffffffffffffffffffffff1673ffffffffffffffffffffffffffffffffffffffff1681526020019081526020016000209050633b9aca008160080154111561374a57fe5b6000816004016001015490506000806137748460080154633b9aca0061243090919063ffffffff16565b905060008114156137be5761379a60018560040160030154611e9290919063ffffffff16565b846004016003018190555060008460040160020181905550633b9aca00915061388b565b633b9aca006137ec633b9aca006137de848761305590919063ffffffff16565b6130db90919063ffffffff16565b101561385e57613831633b9aca00613823633b9aca00613815858861305590919063ffffffff16565b61305590919063ffffffff16565b6130db90919063ffffffff16565b915061384e60018560040160020154611e9290919063ffffffff16565b846004016002018190555061388a565b613887633b9aca00613879838661305590919063ffffffff16565b6130db90919063ffffffff16565b91505b5b6000821161389557fe5b818460040160010181905550505050505050565b60008083118290613955576040517f08c379a00000000000000000000000000000000000000000000000000000000081526004018080602001828103825283818151815260200191508051906020019080838360005b8381101561391a5780820151818401526020810190506138ff565b50505050905090810190601f1680156139475780820380516001836020036101000a031916815260200191505b509250505060405180910390fd5b50600083858161396157fe5b049050809150509392505050565b600061398261397d8461422e565b6141fd565b905080838252602082019050828560208602820111156139a157600080fd5b60005b858110156139d157816139b78882613a5c565b8452602084019350602083019250506001810190506139a4565b5050509392505050565b60006139ee6139e98461425a565b6141fd565b90508083825260208201905082856020860282011115613a0d57600080fd5b60005b85811015613a3d5781613a238882613b04565b845260208401935060208301925050600181019050613a10565b5050509392505050565b600081359050613a568161439b565b92915050565b600081519050613a6b8161439b565b92915050565b600081519050613a80816143b2565b92915050565b600082601f830112613a9757600080fd5b8151613aa784826020860161396f565b91505092915050565b600082601f830112613ac157600080fd5b8151613ad18482602086016139db565b91505092915050565b600081519050613ae9816143c9565b92915050565b600081359050613afe816143e0565b92915050565b600081519050613b13816143e0565b92915050565b600060208284031215613b2b57600080fd5b6000613b3984828501613a47565b91505092915050565b600060208284031215613b5457600080fd5b6000613b6284828501613a5c565b91505092915050565b600060208284031215613b7d57600080fd5b6000613b8b84828501613a71565b91505092915050565b60008060408385031215613ba757600080fd5b6000613bb585828601613a47565b9250506020613bc685828601613a47565b9150509250929050565b600060208284031215613be257600080fd5b600082015167ffffffffffffffff811115613bfc57600080fd5b613c0884828501613a86565b91505092915050565b60008060408385031215613c2457600080fd5b600083015167ffffffffffffffff811115613c3e57600080fd5b613c4a85828601613a86565b925050602083015167ffffffffffffffff811115613c6757600080fd5b613c7385828601613ab0565b9150509250929050565b60008060408385031215613c9057600080fd5b600083015167ffffffffffffffff811115613caa57600080fd5b613cb685828601613ab0565b925050602083015167ffffffffffffffff811115613cd357600080fd5b613cdf85828601613a86565b9150509250929050565b600060208284031215613cfb57600080fd5b6000613d0984828501613ada565b91505092915050565b600060208284031215613d2457600080fd5b6000613d3284828501613b04565b91505092915050565b60008060408385031215613d4e57600080fd5b6000613d5c85828601613aef565b9250506020613d6d85828601613a47565b9150509250929050565b6000613d838383613db6565b60208301905092915050565b6000613d9b8383613f76565b60208301905092915050565b613db081614363565b82525050565b613dbf81614309565b82525050565b613dce81614309565b82525050565b6000613ddf826142a6565b613de981856142d6565b9350613df483614286565b8060005b83811015613e25578151613e0c8882613d77565b9750613e17836142bc565b925050600181019050613df8565b5085935050505092915050565b6000613e3d826142b1565b613e4781856142e7565b9350613e5283614296565b8060005b83811015613e83578151613e6a8882613d8f565b9750613e75836142c9565b925050600181019050613e56565b5085935050505092915050565b6000613e9d602d836142f8565b91507f66784b6565706572506f6f6c3a206678546f6b656e20455243323020616c6c6f60008301527f77616e6365206e6f74206d6574000000000000000000000000000000000000006020830152604082019050919050565b6000613f036002836142f8565b91507f49460000000000000000000000000000000000000000000000000000000000006000830152602082019050919050565b6000613f436011836142f8565b91507f4e6f7420656e6f756768207374616b65640000000000000000000000000000006000830152602082019050919050565b613f7f81614359565b82525050565b613f8e81614359565b82525050565b6000602082019050613fa96000830184613dc5565b92915050565b6000604082019050613fc46000830185613da7565b613fd16020830184613dc5565b9392505050565b6000606082019050613fed6000830186613da7565b613ffa6020830185613dc5565b6140076040830184613f85565b949350505050565b60006040820190506140246000830185613da7565b6140316020830184613f85565b9392505050565b600060408201905061404d6000830185613dc5565b61405a6020830184613dc5565b9392505050565b60006080820190506140766000830187613dc5565b6140836020830186613dc5565b6140906040830185613f85565b61409d6060830184613dc5565b95945050505050565b60006040820190506140bb6000830185613dc5565b6140c86020830184613f85565b9392505050565b600060408201905081810360008301526140e98185613dd4565b905081810360208301526140fd8184613e32565b90509392505050565b6000602082019050818103600083015261411f81613e90565b9050919050565b6000602082019050818103600083015261413f81613ef6565b9050919050565b6000602082019050818103600083015261415f81613f36565b9050919050565b600060208201905061417b6000830184613f85565b92915050565b60006080820190506141966000830187613f85565b6141a36020830186613dc5565b6141b06040830185613dc5565b6141bd6060830184613f85565b95945050505050565b60006060820190506141db6000830186613f85565b6141e86020830185613f85565b6141f56040830184613f85565b949350505050565b6000604051905081810181811067ffffffffffffffff8211171561422457614223614399565b5b8060405250919050565b600067ffffffffffffffff82111561424957614248614399565b5b602082029050602081019050919050565b600067ffffffffffffffff82111561427557614274614399565b5b602082029050602081019050919050565b6000819050602082019050919050565b6000819050602082019050919050565b600081519050919050565b600081519050919050565b6000602082019050919050565b6000602082019050919050565b600082825260208201905092915050565b600082825260208201905092915050565b600082825260208201905092915050565b600061431482614339565b9050919050565b600061432682614339565b9050919050565b60008115159050919050565b600073ffffffffffffffffffffffffffffffffffffffff82169050919050565b6000819050919050565b600061436e82614375565b9050919050565b600061438082614387565b9050919050565b600061439282614339565b9050919050565bfe5b6143a481614309565b81146143af57600080fd5b50565b6143bb8161431b565b81146143c657600080fd5b50565b6143d28161432d565b81146143dd57600080fd5b50565b6143e981614359565b81146143f457600080fd5b5056fe4f776e61626c653a206e6577206f776e657220697320746865207a65726f2061646472657373536166654d6174683a206d756c7469706c69636174696f6e206f766572666c6f77a264697066735822122065d546c2dd707e29a72945697f3f2e26324deade248a8813e35ab11a74ef640864736f6c63430007060033",
  "linkReferences": {},
  "deployedLinkReferences": {}
}