{
  "_format": "hh-sol-artifact-1",
  "contractName": "fxKeeperPool",
  "sourceName": "contracts/Bank/fxKeeperPool.sol",
  "abi": [
    {
      "anonymous": false,
      "inputs": [
        {
          "indexed": false,
          "internalType": "address",
          "name": "previousAdmin",
          "type": "address"
        },
        {
          "indexed": false,
          "internalType": "address",
          "name": "newAdmin",
          "type": "address"
        }
      ],
      "name": "AdminChanged",
      "type": "event"
    },
    {
      "anonymous": false,
      "inputs": [
        {
          "indexed": true,
          "internalType": "address",
          "name": "beacon",
          "type": "address"
        }
      ],
      "name": "BeaconUpgraded",
      "type": "event"
    },
    {
      "anonymous": false,
      "inputs": [
        {
          "indexed": true,
          "internalType": "address",
          "name": "account",
          "type": "address"
        },
        {
          "indexed": true,
          "internalType": "address",
          "name": "token",
          "type": "address"
        },
        {
          "indexed": false,
          "internalType": "uint256",
          "name": "tokenAmount",
          "type": "uint256"
        }
      ],
      "name": "Liquidate",
      "type": "event"
    },
    {
      "anonymous": false,
      "inputs": [
        {
          "indexed": true,
          "internalType": "address",
          "name": "previousOwner",
          "type": "address"
        },
        {
          "indexed": true,
          "internalType": "address",
          "name": "newOwner",
          "type": "address"
        }
      ],
      "name": "OwnershipTransferred",
      "type": "event"
    },
    {
      "anonymous": false,
      "inputs": [
        {
          "indexed": true,
          "internalType": "address",
          "name": "account",
          "type": "address"
        },
        {
          "indexed": true,
          "internalType": "address",
          "name": "token",
          "type": "address"
        },
        {
          "indexed": false,
          "internalType": "uint256",
          "name": "amount",
          "type": "uint256"
        }
      ],
      "name": "Stake",
      "type": "event"
    },
    {
      "anonymous": false,
      "inputs": [
        {
          "indexed": true,
          "internalType": "address",
          "name": "account",
          "type": "address"
        },
        {
          "indexed": true,
          "internalType": "address",
          "name": "token",
          "type": "address"
        },
        {
          "indexed": false,
          "internalType": "uint256",
          "name": "amount",
          "type": "uint256"
        }
      ],
      "name": "Unstake",
      "type": "event"
    },
    {
      "anonymous": false,
      "inputs": [
        {
          "indexed": true,
          "internalType": "address",
          "name": "implementation",
          "type": "address"
        }
      ],
      "name": "Upgraded",
      "type": "event"
    },
    {
      "anonymous": false,
      "inputs": [
        {
          "indexed": true,
          "internalType": "address",
          "name": "account",
          "type": "address"
        },
        {
          "indexed": true,
          "internalType": "address",
          "name": "token",
          "type": "address"
        }
      ],
      "name": "Withdraw",
      "type": "event"
    },
    {
      "inputs": [],
      "name": "DECIMAL_PRECISION",
      "outputs": [
        {
          "internalType": "uint256",
          "name": "",
          "type": "uint256"
        }
      ],
      "stateMutability": "view",
      "type": "function"
    },
    {
      "inputs": [],
      "name": "SCALE_FACTOR",
      "outputs": [
        {
          "internalType": "uint256",
          "name": "",
          "type": "uint256"
        }
      ],
      "stateMutability": "view",
      "type": "function"
    },
    {
      "inputs": [
        {
          "internalType": "address",
          "name": "account",
          "type": "address"
        },
        {
          "internalType": "address",
          "name": "fxToken",
          "type": "address"
        }
      ],
      "name": "balanceOfRewards",
      "outputs": [
        {
          "internalType": "address[]",
          "name": "collateralTypes",
          "type": "address[]"
        },
        {
          "internalType": "uint256[]",
          "name": "collateralAmounts",
          "type": "uint256[]"
        }
      ],
      "stateMutability": "view",
      "type": "function"
    },
    {
      "inputs": [
        {
          "internalType": "address",
          "name": "account",
          "type": "address"
        },
        {
          "internalType": "address",
          "name": "fxToken",
          "type": "address"
        }
      ],
      "name": "balanceOfStake",
      "outputs": [
        {
          "internalType": "uint256",
          "name": "amount",
          "type": "uint256"
        }
      ],
      "stateMutability": "view",
      "type": "function"
    },
    {
      "inputs": [
        {
          "internalType": "address",
          "name": "fxToken",
          "type": "address"
        },
        {
          "internalType": "address",
          "name": "collateral",
          "type": "address"
        }
      ],
      "name": "getPoolCollateralBalance",
      "outputs": [
        {
          "internalType": "uint256",
          "name": "amount",
          "type": "uint256"
        }
      ],
      "stateMutability": "view",
      "type": "function"
    },
    {
      "inputs": [
        {
          "internalType": "address",
          "name": "fxToken",
          "type": "address"
        }
      ],
      "name": "getPoolTotalDeposit",
      "outputs": [
        {
          "internalType": "uint256",
          "name": "amount",
          "type": "uint256"
        }
      ],
      "stateMutability": "view",
      "type": "function"
    },
    {
      "inputs": [],
      "name": "handleAddress",
      "outputs": [
        {
          "internalType": "address",
          "name": "",
          "type": "address"
        }
      ],
      "stateMutability": "view",
      "type": "function"
    },
    {
      "inputs": [],
      "name": "initialize",
      "outputs": [],
      "stateMutability": "nonpayable",
      "type": "function"
    },
    {
      "inputs": [
        {
          "internalType": "address",
          "name": "account",
          "type": "address"
        },
        {
          "internalType": "address",
          "name": "fxToken",
          "type": "address"
        }
      ],
      "name": "liquidate",
      "outputs": [],
      "stateMutability": "nonpayable",
      "type": "function"
    },
    {
      "inputs": [],
      "name": "owner",
      "outputs": [
        {
          "internalType": "address",
          "name": "",
          "type": "address"
        }
      ],
      "stateMutability": "view",
      "type": "function"
    },
    {
      "inputs": [],
      "name": "renounceOwnership",
      "outputs": [],
      "stateMutability": "nonpayable",
      "type": "function"
    },
    {
      "inputs": [
        {
          "internalType": "address",
          "name": "_handle",
          "type": "address"
        }
      ],
      "name": "setHandleContract",
      "outputs": [],
      "stateMutability": "nonpayable",
      "type": "function"
    },
    {
      "inputs": [
        {
          "internalType": "address",
          "name": "account",
          "type": "address"
        },
        {
          "internalType": "address",
          "name": "fxToken",
          "type": "address"
        }
      ],
      "name": "shareOf",
      "outputs": [
        {
          "internalType": "uint256",
          "name": "share",
          "type": "uint256"
        }
      ],
      "stateMutability": "view",
      "type": "function"
    },
    {
      "inputs": [
        {
          "internalType": "uint256",
          "name": "amount",
          "type": "uint256"
        },
        {
          "internalType": "address",
          "name": "fxToken",
          "type": "address"
        }
      ],
      "name": "stake",
      "outputs": [],
      "stateMutability": "nonpayable",
      "type": "function"
    },
    {
      "inputs": [
        {
          "internalType": "address",
          "name": "newOwner",
          "type": "address"
        }
      ],
      "name": "transferOwnership",
      "outputs": [],
      "stateMutability": "nonpayable",
      "type": "function"
    },
    {
      "inputs": [
        {
          "internalType": "uint256",
          "name": "amount",
          "type": "uint256"
        },
        {
          "internalType": "address",
          "name": "fxToken",
          "type": "address"
        }
      ],
      "name": "unstake",
      "outputs": [],
      "stateMutability": "nonpayable",
      "type": "function"
    },
    {
      "inputs": [
        {
          "internalType": "address",
          "name": "newImplementation",
          "type": "address"
        }
      ],
      "name": "upgradeTo",
      "outputs": [],
      "stateMutability": "nonpayable",
      "type": "function"
    },
    {
      "inputs": [
        {
          "internalType": "address",
          "name": "newImplementation",
          "type": "address"
        },
        {
          "internalType": "bytes",
          "name": "data",
          "type": "bytes"
        }
      ],
      "name": "upgradeToAndCall",
      "outputs": [],
      "stateMutability": "payable",
      "type": "function"
    },
    {
      "inputs": [
        {
          "internalType": "address",
          "name": "fxToken",
          "type": "address"
        }
      ],
      "name": "withdrawCollateralReward",
      "outputs": [],
      "stateMutability": "nonpayable",
      "type": "function"
    }
  ],
  "bytecode": "0x608060405234801561001057600080fd5b50615507806100206000396000f3fe6080604052600436106101145760003560e01c8063883c95da116100a0578063ccf37f1711610064578063ccf37f1714610368578063ce4b5bbe146103a6578063dde1f9ea146103d1578063ea1e87001461040e578063f2fde38b1461043757610114565b8063883c95da1461026f5780638da5cb5b146102ac5780639b1c414f146102d7578063a20baee614610300578063acd5d4581461032b57610114565b80637acb7757116100e75780637acb7757146101a05780638129fc1c146101c957806382212e3d146101e05780638381e1821461021d57806386b9d81f1461024657610114565b80633659cfe6146101195780634f1ef28614610142578063715018a61461015e57806374bf578b14610175575b600080fd5b34801561012557600080fd5b50610140600480360381019061013b91906145fd565b610460565b005b61015c600480360381019061015791906146b4565b610487565b005b34801561016a57600080fd5b506101736104a0565b005b34801561018157600080fd5b5061018a6105dd565b6040516101979190614b5d565b60405180910390f35b3480156101ac57600080fd5b506101c760048036038101906101c2919061479b565b610607565b005b3480156101d557600080fd5b506101de610a84565b005b3480156101ec57600080fd5b5061020760048036038101906102029190614678565b610b6d565b6040516102149190614d9a565b60405180910390f35b34801561022957600080fd5b50610244600480360381019061023f919061479b565b610bf7565b005b34801561025257600080fd5b5061026d60048036038101906102689190614678565b610fcf565b005b34801561027b57600080fd5b50610296600480360381019061029191906145fd565b61119e565b6040516102a39190614d9a565b60405180910390f35b3480156102b857600080fd5b506102c16111ea565b6040516102ce9190614b5d565b60405180910390f35b3480156102e357600080fd5b506102fe60048036038101906102f991906145fd565b611214565b005b34801561030c57600080fd5b50610315611574565b6040516103229190614d9a565b60405180910390f35b34801561033757600080fd5b50610352600480360381019061034d9190614678565b61157c565b60405161035f9190614d9a565b60405180910390f35b34801561037457600080fd5b5061038f600480360381019061038a9190614678565b61170a565b60405161039d929190614c01565b60405180910390f35b3480156103b257600080fd5b506103bb611dc3565b6040516103c89190614d9a565b60405180910390f35b3480156103dd57600080fd5b506103f860048036038101906103f39190614678565b611dcb565b6040516104059190614d9a565b60405180910390f35b34801561041a57600080fd5b50610435600480360381019061043091906145fd565b61214d565b005b34801561044357600080fd5b5061045e600480360381019061045991906145fd565b61229c565b005b61046981612448565b610484816040518060200160405280600081525060006124c7565b50565b61049082612448565b61049c828260016124c7565b5050565b6104a86126db565b73ffffffffffffffffffffffffffffffffffffffff166104c66111ea565b73ffffffffffffffffffffffffffffffffffffffff161461051c576040517f08c379a000000000000000000000000000000000000000000000000000000000815260040161051390614d3a565b60405180910390fd5b600073ffffffffffffffffffffffffffffffffffffffff16609760009054906101000a900473ffffffffffffffffffffffffffffffffffffffff1673ffffffffffffffffffffffffffffffffffffffff167f8be0079c531659141344cd1fd0a4f28419497f9722a3daafe3b4186f6b6457e060405160405180910390a36000609760006101000a81548173ffffffffffffffffffffffffffffffffffffffff021916908373ffffffffffffffffffffffffffffffffffffffff160217905550565b600060fb60009054906101000a900473ffffffffffffffffffffffffffffffffffffffff16905090565b8060fb60009054906101000a900473ffffffffffffffffffffffffffffffffffffffff1673ffffffffffffffffffffffffffffffffffffffff1663a0f026ff826040518263ffffffff1660e01b81526004016106639190614b5d565b60206040518083038186803b15801561067b57600080fd5b505afa15801561068f573d6000803e3d6000fd5b505050506040513d601f19601f820116820180604052508101906106b39190614749565b6106f2576040517f08c379a00000000000000000000000000000000000000000000000000000000081526004016106e990614cba565b60405180910390fd5b600260c9541415610738576040517f08c379a000000000000000000000000000000000000000000000000000000000815260040161072f90614d7a565b60405180910390fd5b600260c981905550828273ffffffffffffffffffffffffffffffffffffffff1663dd62ed3e33306040518363ffffffff1660e01b815260040161077c929190614b78565b60206040518083038186803b15801561079457600080fd5b505afa1580156107a8573d6000803e3d6000fd5b505050506040513d601f19601f820116820180604052508101906107cc9190614772565b101561080d576040517f08c379a000000000000000000000000000000000000000000000000000000000815260040161080490614c9a565b60405180910390fd5b600060ff60008473ffffffffffffffffffffffffffffffffffffffff1673ffffffffffffffffffffffffffffffffffffffff16815260200190815260200160002060000160003373ffffffffffffffffffffffffffffffffffffffff1673ffffffffffffffffffffffffffffffffffffffff16815260200190815260200160002090506000816001016001015411156108ab576108aa33846126e3565b5b6108b483612b52565b8273ffffffffffffffffffffffffffffffffffffffff166323b872dd3330876040518463ffffffff1660e01b81526004016108f193929190614ba1565b602060405180830381600087803b15801561090b57600080fd5b505af115801561091f573d6000803e3d6000fd5b505050506040513d601f19601f820116820180604052508101906109439190614749565b506109998460ff60008673ffffffffffffffffffffffffffffffffffffffff1673ffffffffffffffffffffffffffffffffffffffff16815260200190815260200160002060030154612bf690919063ffffffff16565b60ff60008573ffffffffffffffffffffffffffffffffffffffff1673ffffffffffffffffffffffffffffffffffffffff1681526020019081526020016000206003018190555060006109eb3385611dcb565b90506000610a028683612bf690919063ffffffff16565b9050610a0f338287612c0c565b8473ffffffffffffffffffffffffffffffffffffffff163373ffffffffffffffffffffffffffffffffffffffff167f99039fcf0a98f484616c5196ee8b2ecfa971babf0b519848289ea4db381f85f788604051610a6c9190614d9a565b60405180910390a3505050600160c981905550505050565b600060019054906101000a900460ff1680610aaa575060008054906101000a900460ff16155b610ae9576040517f08c379a0000000000000000000000000000000000000000000000000000000008152600401610ae090614cda565b60405180910390fd5b60008060019054906101000a900460ff161590508015610b39576001600060016101000a81548160ff02191690831515021790555060016000806101000a81548160ff0219169083151502179055505b610b4161301d565b610b49613106565b8015610b6a5760008060016101000a81548160ff0219169083151502179055505b50565b600060ff60008473ffffffffffffffffffffffffffffffffffffffff1673ffffffffffffffffffffffffffffffffffffffff16815260200190815260200160002060010160008373ffffffffffffffffffffffffffffffffffffffff1673ffffffffffffffffffffffffffffffffffffffff16815260200190815260200160002054905092915050565b8060fb60009054906101000a900473ffffffffffffffffffffffffffffffffffffffff1673ffffffffffffffffffffffffffffffffffffffff1663a0f026ff826040518263ffffffff1660e01b8152600401610c539190614b5d565b60206040518083038186803b158015610c6b57600080fd5b505afa158015610c7f573d6000803e3d6000fd5b505050506040513d601f19601f82011682018060405250810190610ca39190614749565b610ce2576040517f08c379a0000000000000000000000000000000000000000000000000000000008152600401610cd990614cba565b60405180910390fd5b600260c9541415610d28576040517f08c379a0000000000000000000000000000000000000000000000000000000008152600401610d1f90614d7a565b60405180910390fd5b600260c9819055506000610d3c3384611dcb565b905080841115610d4a578093505b60008411610d8d576040517f08c379a0000000000000000000000000000000000000000000000000000000008152600401610d8490614cfa565b60405180910390fd5b610d9733846126e3565b8360ff60008573ffffffffffffffffffffffffffffffffffffffff1673ffffffffffffffffffffffffffffffffffffffff168152602001908152602001600020600301541015610e10577f4e487b7100000000000000000000000000000000000000000000000000000000600052600160045260246000fd5b8273ffffffffffffffffffffffffffffffffffffffff1663a9059cbb33866040518363ffffffff1660e01b8152600401610e4b929190614bd8565b602060405180830381600087803b158015610e6557600080fd5b505af1158015610e79573d6000803e3d6000fd5b505050506040513d601f19601f82011682018060405250810190610e9d9190614749565b50610ef38460ff60008673ffffffffffffffffffffffffffffffffffffffff1673ffffffffffffffffffffffffffffffffffffffff168152602001908152602001600020600301546131e790919063ffffffff16565b60ff60008573ffffffffffffffffffffffffffffffffffffffff1673ffffffffffffffffffffffffffffffffffffffff168152602001908152602001600020600301819055506000610f4e85836131e790919063ffffffff16565b9050610f5b338286612c0c565b8373ffffffffffffffffffffffffffffffffffffffff163373ffffffffffffffffffffffffffffffffffffffff167f390b1276974b9463e5d66ab10df69b6f3d7b930eb066a0e66df327edd2cc811c87604051610fb89190614d9a565b60405180910390a35050600160c981905550505050565b8060fb60009054906101000a900473ffffffffffffffffffffffffffffffffffffffff1673ffffffffffffffffffffffffffffffffffffffff1663a0f026ff826040518263ffffffff1660e01b815260040161102b9190614b5d565b60206040518083038186803b15801561104357600080fd5b505afa158015611057573d6000803e3d6000fd5b505050506040513d601f19601f8201168201806040525081019061107b9190614749565b6110ba576040517f08c379a00000000000000000000000000000000000000000000000000000000081526004016110b190614cba565b60405180910390fd5b600260c9541415611100576040517f08c379a00000000000000000000000000000000000000000000000000000000081526004016110f790614d7a565b60405180910390fd5b600260c981905550600080600061111786866131fd565b92509250925061112983838388613379565b8473ffffffffffffffffffffffffffffffffffffffff168673ffffffffffffffffffffffffffffffffffffffff167faef3faf684172084346f7dc2cc3bb1328d1cc23caec12dd9a82d4a4e56c00b17856040516111869190614d9a565b60405180910390a3505050600160c981905550505050565b600060ff60008373ffffffffffffffffffffffffffffffffffffffff1673ffffffffffffffffffffffffffffffffffffffff168152602001908152602001600020600301549050919050565b6000609760009054906101000a900473ffffffffffffffffffffffffffffffffffffffff16905090565b61121c6126db565b73ffffffffffffffffffffffffffffffffffffffff1661123a6111ea565b73ffffffffffffffffffffffffffffffffffffffff1614611290576040517f08c379a000000000000000000000000000000000000000000000000000000000815260040161128790614d3a565b60405180910390fd5b8060fb60006101000a81548173ffffffffffffffffffffffffffffffffffffffff021916908373ffffffffffffffffffffffffffffffffffffffff16021790555060fb60009054906101000a900473ffffffffffffffffffffffffffffffffffffffff1673ffffffffffffffffffffffffffffffffffffffff166361d027b36040518163ffffffff1660e01b815260040160206040518083038186803b15801561133957600080fd5b505afa15801561134d573d6000803e3d6000fd5b505050506040513d601f19601f82011682018060405250810190611371919061464f565b60fd60006101000a81548173ffffffffffffffffffffffffffffffffffffffff021916908373ffffffffffffffffffffffffffffffffffffffff16021790555060fb60009054906101000a900473ffffffffffffffffffffffffffffffffffffffff1673ffffffffffffffffffffffffffffffffffffffff16634046ebae6040518163ffffffff1660e01b815260040160206040518083038186803b15801561141957600080fd5b505afa15801561142d573d6000803e3d6000fd5b505050506040513d601f19601f820116820180604052508101906114519190614626565b60fc60006101000a81548173ffffffffffffffffffffffffffffffffffffffff021916908373ffffffffffffffffffffffffffffffffffffffff16021790555060fb60009054906101000a900473ffffffffffffffffffffffffffffffffffffffff1673ffffffffffffffffffffffffffffffffffffffff1663eb0a8b916040518163ffffffff1660e01b815260040160206040518083038186803b1580156114f957600080fd5b505afa15801561150d573d6000803e3d6000fd5b505050506040513d601f19601f820116820180604052508101906115319190614626565b60fe60006101000a81548173ffffffffffffffffffffffffffffffffffffffff021916908373ffffffffffffffffffffffffffffffffffffffff16021790555050565b633b9aca0081565b60008160fb60009054906101000a900473ffffffffffffffffffffffffffffffffffffffff1673ffffffffffffffffffffffffffffffffffffffff1663a0f026ff826040518263ffffffff1660e01b81526004016115da9190614b5d565b60206040518083038186803b1580156115f257600080fd5b505afa158015611606573d6000803e3d6000fd5b505050506040513d601f19601f8201168201806040525081019061162a9190614749565b611669576040517f08c379a000000000000000000000000000000000000000000000000000000000815260040161166090614cba565b60405180910390fd5b600060ff60008573ffffffffffffffffffffffffffffffffffffffff1673ffffffffffffffffffffffffffffffffffffffff16815260200190815260200160002060030154905060008114156116c3576000925050611703565b60006116cf8686611dcb565b90506116fe826116f0670de0b6b3a7640000846136e190919063ffffffff16565b6136f790919063ffffffff16565b935050505b5092915050565b6060808260fb60009054906101000a900473ffffffffffffffffffffffffffffffffffffffff1673ffffffffffffffffffffffffffffffffffffffff1663a0f026ff826040518263ffffffff1660e01b81526004016117699190614b5d565b60206040518083038186803b15801561178157600080fd5b505afa158015611795573d6000803e3d6000fd5b505050506040513d601f19601f820116820180604052508101906117b99190614749565b6117f8576040517f08c379a00000000000000000000000000000000000000000000000000000000081526004016117ef90614cba565b60405180910390fd5b600060ff60008673ffffffffffffffffffffffffffffffffffffffff1673ffffffffffffffffffffffffffffffffffffffff168152602001908152602001600020905060008160000160008873ffffffffffffffffffffffffffffffffffffffff1673ffffffffffffffffffffffffffffffffffffffff16815260200190815260200160002060000154905060008260000160008973ffffffffffffffffffffffffffffffffffffffff1673ffffffffffffffffffffffffffffffffffffffff16815260200190815260200160002060010190506000816001015414156119c557600067ffffffffffffffff81111561191a577f4e487b7100000000000000000000000000000000000000000000000000000000600052604160045260246000fd5b6040519080825280602002602001820160405280156119485781602001602082028036833780820191505090505b509550600067ffffffffffffffff81111561198c577f4e487b7100000000000000000000000000000000000000000000000000000000600052604160045260246000fd5b6040519080825280602002602001820160405280156119ba5781602001602082028036833780820191505090505b509450505050611dbb565b60fb60009054906101000a900473ffffffffffffffffffffffffffffffffffffffff1673ffffffffffffffffffffffffffffffffffffffff1663294d499e6040518163ffffffff1660e01b815260040160006040518083038186803b158015611a2d57600080fd5b505afa158015611a41573d6000803e3d6000fd5b505050506040513d6000823e3d601f19601f82011682018060405250810190611a6a9190614708565b95506000865190508067ffffffffffffffff811115611ab2577f4e487b7100000000000000000000000000000000000000000000000000000000600052604160045260246000fd5b604051908082528060200260200182016040528015611ae05781602001602082028036833780820191505090505b50955060005b81811015611db5576000611c2f8460000160008b8581518110611b32577f4e487b7100000000000000000000000000000000000000000000000000000000600052603260045260246000fd5b602002602001015173ffffffffffffffffffffffffffffffffffffffff1673ffffffffffffffffffffffffffffffffffffffff168152602001908152602001600020548760020160008760030154815260200190815260200160002060008760020154815260200190815260200160002060008c8681518110611bde577f4e487b7100000000000000000000000000000000000000000000000000000000600052603260045260246000fd5b602002602001015173ffffffffffffffffffffffffffffffffffffffff1673ffffffffffffffffffffffffffffffffffffffff168152602001908152602001600020546131e790919063ffffffff16565b90506000611d08633b9aca00886002016000886003015481526020019081526020016000206000611c6e60018a60020154612bf690919063ffffffff16565b815260200190815260200160002060008d8781518110611cb7577f4e487b7100000000000000000000000000000000000000000000000000000000600052603260045260246000fd5b602002602001015173ffffffffffffffffffffffffffffffffffffffff1673ffffffffffffffffffffffffffffffffffffffff168152602001908152602001600020546136f790919063ffffffff16565b9050611d5b633b9aca00611d4d8760010154611d3f611d308688612bf690919063ffffffff16565b8b6136e190919063ffffffff16565b6136f790919063ffffffff16565b6136f790919063ffffffff16565b898481518110611d94577f4e487b7100000000000000000000000000000000000000000000000000000000600052603260045260246000fd5b60200260200101818152505050508080611dad906150e9565b915050611ae6565b50505050505b509250929050565b633b9aca0081565b60008160fb60009054906101000a900473ffffffffffffffffffffffffffffffffffffffff1673ffffffffffffffffffffffffffffffffffffffff1663a0f026ff826040518263ffffffff1660e01b8152600401611e299190614b5d565b60206040518083038186803b158015611e4157600080fd5b505afa158015611e55573d6000803e3d6000fd5b505050506040513d601f19601f82011682018060405250810190611e799190614749565b611eb8576040517f08c379a0000000000000000000000000000000000000000000000000000000008152600401611eaf90614cba565b60405180910390fd5b600060ff60008573ffffffffffffffffffffffffffffffffffffffff1673ffffffffffffffffffffffffffffffffffffffff168152602001908152602001600020600401600101541415611f0f5760009150612146565b60ff60008473ffffffffffffffffffffffffffffffffffffffff1673ffffffffffffffffffffffffffffffffffffffff16815260200190815260200160002060000160008573ffffffffffffffffffffffffffffffffffffffff1673ffffffffffffffffffffffffffffffffffffffff1681526020019081526020016000206000015491506000821415611fa65760009150612146565b600060ff60008573ffffffffffffffffffffffffffffffffffffffff1673ffffffffffffffffffffffffffffffffffffffff16815260200190815260200160002060000160008673ffffffffffffffffffffffffffffffffffffffff1673ffffffffffffffffffffffffffffffffffffffff1681526020019081526020016000206001019050600060ff60008673ffffffffffffffffffffffffffffffffffffffff1673ffffffffffffffffffffffffffffffffffffffff168152602001908152602001600020600401905080600301548260030154101561208d57600093505050612146565b60006120aa836002015483600201546131e790919063ffffffff16565b905060008114156120e9576120e283600101546120d48460010154886136e190919063ffffffff16565b6136f790919063ffffffff16565b9450612142565b600181141561213c57612135633b9aca00612127856001015461211986600101548a6136e190919063ffffffff16565b6136f790919063ffffffff16565b6136f790919063ffffffff16565b9450612141565b600094505b5b5050505b5092915050565b8060fb60009054906101000a900473ffffffffffffffffffffffffffffffffffffffff1673ffffffffffffffffffffffffffffffffffffffff1663a0f026ff826040518263ffffffff1660e01b81526004016121a99190614b5d565b60206040518083038186803b1580156121c157600080fd5b505afa1580156121d5573d6000803e3d6000fd5b505050506040513d601f19601f820116820180604052508101906121f99190614749565b612238576040517f08c379a000000000000000000000000000000000000000000000000000000000815260040161222f90614cba565b60405180910390fd5b600260c954141561227e576040517f08c379a000000000000000000000000000000000000000000000000000000000815260040161227590614d7a565b60405180910390fd5b600260c98190555061229033836126e3565b600160c9819055505050565b6122a46126db565b73ffffffffffffffffffffffffffffffffffffffff166122c26111ea565b73ffffffffffffffffffffffffffffffffffffffff1614612318576040517f08c379a000000000000000000000000000000000000000000000000000000000815260040161230f90614d3a565b60405180910390fd5b600073ffffffffffffffffffffffffffffffffffffffff168173ffffffffffffffffffffffffffffffffffffffff161415612388576040517f08c379a000000000000000000000000000000000000000000000000000000000815260040161237f90614c7a565b60405180910390fd5b8073ffffffffffffffffffffffffffffffffffffffff16609760009054906101000a900473ffffffffffffffffffffffffffffffffffffffff1673ffffffffffffffffffffffffffffffffffffffff167f8be0079c531659141344cd1fd0a4f28419497f9722a3daafe3b4186f6b6457e060405160405180910390a380609760006101000a81548173ffffffffffffffffffffffffffffffffffffffff021916908373ffffffffffffffffffffffffffffffffffffffff16021790555050565b6124506126db565b73ffffffffffffffffffffffffffffffffffffffff1661246e6111ea565b73ffffffffffffffffffffffffffffffffffffffff16146124c4576040517f08c379a00000000000000000000000000000000000000000000000000000000081526004016124bb90614d3a565b60405180910390fd5b50565b60006124d161370d565b90506124dc84613764565b6000835111806124e95750815b156124fa576124f8848461381d565b505b60006125287f4910fdfa16fed3260ed0e7147f7cc6da11a60208b5b9406d12a635614ffd914360001b613901565b90508060000160009054906101000a900460ff166126d45760018160000160006101000a81548160ff0219169083151502179055506125f485836040516024016125729190614b5d565b6040516020818303038152906040527f3659cfe6000000000000000000000000000000000000000000000000000000007bffffffffffffffffffffffffffffffffffffffffffffffffffffffff19166020820180517bffffffffffffffffffffffffffffffffffffffffffffffffffffffff838183161783525050505061381d565b5060008160000160006101000a81548160ff02191690831515021790555061261a61370d565b73ffffffffffffffffffffffffffffffffffffffff168273ffffffffffffffffffffffffffffffffffffffff1614612687576040517f08c379a000000000000000000000000000000000000000000000000000000000815260040161267e90614c5a565b60405180910390fd5b61269085613764565b8473ffffffffffffffffffffffffffffffffffffffff167fbc7cd75a20ee27fd9adebab32041f755214dbc6bffa90cc0225b39da2e5c2d3b60405160405180910390a25b5050505050565b600033905090565b600060ff60008373ffffffffffffffffffffffffffffffffffffffff1673ffffffffffffffffffffffffffffffffffffffff16815260200190815260200160002060040160010154141561273657612b4e565b600080612743848461170a565b91509150600082511161277f577f4e487b7100000000000000000000000000000000000000000000000000000000600052600160045260246000fd5b60008251905060005b81811015612ad55760008382815181106127cb577f4e487b7100000000000000000000000000000000000000000000000000000000600052603260045260246000fd5b602002602001015114156127de57612ac2565b838181518110612817577f4e487b7100000000000000000000000000000000000000000000000000000000600052603260045260246000fd5b602002602001015173ffffffffffffffffffffffffffffffffffffffff1663a9059cbb87858481518110612874577f4e487b7100000000000000000000000000000000000000000000000000000000600052603260045260246000fd5b60200260200101516040518363ffffffff1660e01b8152600401612899929190614bd8565b602060405180830381600087803b1580156128b357600080fd5b505af11580156128c7573d6000803e3d6000fd5b505050506040513d601f19601f820116820180604052508101906128eb9190614749565b506129fe838281518110612928577f4e487b7100000000000000000000000000000000000000000000000000000000600052603260045260246000fd5b602002602001015160ff60008873ffffffffffffffffffffffffffffffffffffffff1673ffffffffffffffffffffffffffffffffffffffff16815260200190815260200160002060010160008785815181106129ad577f4e487b7100000000000000000000000000000000000000000000000000000000600052603260045260246000fd5b602002602001015173ffffffffffffffffffffffffffffffffffffffff1673ffffffffffffffffffffffffffffffffffffffff168152602001908152602001600020546131e790919063ffffffff16565b60ff60008773ffffffffffffffffffffffffffffffffffffffff1673ffffffffffffffffffffffffffffffffffffffff1681526020019081526020016000206001016000868481518110612a7b577f4e487b7100000000000000000000000000000000000000000000000000000000600052603260045260246000fd5b602002602001015173ffffffffffffffffffffffffffffffffffffffff1673ffffffffffffffffffffffffffffffffffffffff168152602001908152602001600020819055505b8080612acd906150e9565b915050612788565b506000612ae28686611dcb565b9050612aef868287612c0c565b8473ffffffffffffffffffffffffffffffffffffffff168673ffffffffffffffffffffffffffffffffffffffff167f34d58c18c6c1df2c698ccac556acea92941ca7b99d2fccf9e3ac1852d0dec36f60405160405180910390a3505050505b5050565b600060ff60008373ffffffffffffffffffffffffffffffffffffffff1673ffffffffffffffffffffffffffffffffffffffff1681526020019081526020016000206004016001015414612ba457612bf3565b633b9aca0060ff60008373ffffffffffffffffffffffffffffffffffffffff1673ffffffffffffffffffffffffffffffffffffffff168152602001908152602001600020600401600101819055505b50565b60008183612c049190614f07565b905092915050565b8160ff60008373ffffffffffffffffffffffffffffffffffffffff1673ffffffffffffffffffffffffffffffffffffffff16815260200190815260200160002060000160008573ffffffffffffffffffffffffffffffffffffffff1673ffffffffffffffffffffffffffffffffffffffff168152602001908152602001600020600001819055506000821415612d4b5760ff60008273ffffffffffffffffffffffffffffffffffffffff1673ffffffffffffffffffffffffffffffffffffffff16815260200190815260200160002060000160008473ffffffffffffffffffffffffffffffffffffffff1673ffffffffffffffffffffffffffffffffffffffff16815260200190815260200160002060008082016000905560018201600060018201600090556002820160009055600382016000905550505050613018565b600060ff60008373ffffffffffffffffffffffffffffffffffffffff1673ffffffffffffffffffffffffffffffffffffffff1681526020019081526020016000206004019050600060ff60008473ffffffffffffffffffffffffffffffffffffffff1673ffffffffffffffffffffffffffffffffffffffff16815260200190815260200160002060000160008673ffffffffffffffffffffffffffffffffffffffff1673ffffffffffffffffffffffffffffffffffffffff1681526020019081526020016000206001019050816001015481600101819055508160020154816002018190555081600301548160030181905550600060fb60009054906101000a900473ffffffffffffffffffffffffffffffffffffffff1673ffffffffffffffffffffffffffffffffffffffff1663294d499e6040518163ffffffff1660e01b815260040160006040518083038186803b158015612ea857600080fd5b505afa158015612ebc573d6000803e3d6000fd5b505050506040513d6000823e3d601f19601f82011682018060405250810190612ee59190614708565b905060008151905060005b8181101561301257846000016000848381518110612f37577f4e487b7100000000000000000000000000000000000000000000000000000000600052603260045260246000fd5b602002602001015173ffffffffffffffffffffffffffffffffffffffff1673ffffffffffffffffffffffffffffffffffffffff16815260200190815260200160002054846000016000858481518110612fb9577f4e487b7100000000000000000000000000000000000000000000000000000000600052603260045260246000fd5b602002602001015173ffffffffffffffffffffffffffffffffffffffff1673ffffffffffffffffffffffffffffffffffffffff16815260200190815260200160002081905550808061300a906150e9565b915050612ef0565b50505050505b505050565b600060019054906101000a900460ff1680613043575060008054906101000a900460ff16155b613082576040517f08c379a000000000000000000000000000000000000000000000000000000000815260040161307990614cda565b60405180910390fd5b60008060019054906101000a900460ff1615905080156130d2576001600060016101000a81548160ff02191690831515021790555060016000806101000a81548160ff0219169083151502179055505b6130da61390b565b6130e26139e4565b80156131035760008060016101000a81548160ff0219169083151502179055505b50565b600060019054906101000a900460ff168061312c575060008054906101000a900460ff16155b61316b576040517f08c379a000000000000000000000000000000000000000000000000000000000815260040161316290614cda565b60405180910390fd5b60008060019054906101000a900460ff1615905080156131bb576001600060016101000a81548160ff02191690831515021790555060016000806101000a81548160ff0219169083151502179055505b6131c3613b66565b80156131e45760008060016101000a81548160ff0219169083151502179055505b50565b600081836131f59190614fe8565b905092915050565b60006060808373ffffffffffffffffffffffffffffffffffffffff1663095ea7b360fc60009054906101000a900473ffffffffffffffffffffffffffffffffffffffff16856040518363ffffffff1660e01b815260040161325f929190614bd8565b602060405180830381600087803b15801561327957600080fd5b505af115801561328d573d6000803e3d6000fd5b505050506040513d601f19601f820116820180604052508101906132b19190614749565b5060fc60009054906101000a900473ffffffffffffffffffffffffffffffffffffffff1673ffffffffffffffffffffffffffffffffffffffff166386b9d81f86866040518363ffffffff1660e01b815260040161330f929190614b78565b600060405180830381600087803b15801561332957600080fd5b505af115801561333d573d6000803e3d6000fd5b505050506040513d6000823e3d601f19601f8201168201806040525081019061336691906147d7565b8093508194508295505050509250925092565b600060ff60008373ffffffffffffffffffffffffffffffffffffffff1673ffffffffffffffffffffffffffffffffffffffff1681526020019081526020016000206003015414806133ca5750600084145b156133d4576136db565b60008351905060005b8181101561361c576000848281518110613420577f4e487b7100000000000000000000000000000000000000000000000000000000600052603260045260246000fd5b6020026020010151141561343357613609565b61354584828151811061346f577f4e487b7100000000000000000000000000000000000000000000000000000000600052603260045260246000fd5b602002602001015160ff60008673ffffffffffffffffffffffffffffffffffffffff1673ffffffffffffffffffffffffffffffffffffffff16815260200190815260200160002060010160008885815181106134f4577f4e487b7100000000000000000000000000000000000000000000000000000000600052603260045260246000fd5b602002602001015173ffffffffffffffffffffffffffffffffffffffff1673ffffffffffffffffffffffffffffffffffffffff16815260200190815260200160002054612bf690919063ffffffff16565b60ff60008573ffffffffffffffffffffffffffffffffffffffff1673ffffffffffffffffffffffffffffffffffffffff16815260200190815260200160002060010160008784815181106135c2577f4e487b7100000000000000000000000000000000000000000000000000000000600052603260045260246000fd5b602002602001015173ffffffffffffffffffffffffffffffffffffffff1673ffffffffffffffffffffffffffffffffffffffff168152602001908152602001600020819055505b8080613614906150e9565b9150506133dd565b5061362985858585613c47565b613634848484613d8e565b61363e8583614159565b6136938560ff60008573ffffffffffffffffffffffffffffffffffffffff1673ffffffffffffffffffffffffffffffffffffffff168152602001908152602001600020600301546131e790919063ffffffff16565b60ff60008473ffffffffffffffffffffffffffffffffffffffff1673ffffffffffffffffffffffffffffffffffffffff16815260200190815260200160002060030181905550505b50505050565b600081836136ef9190614f8e565b905092915050565b600081836137059190614f5d565b905092915050565b600061373b7f360894a13ba1a3210667c828492db98dca3e2076cc3735a920a3ca505d382bbc60001b614367565b60000160009054906101000a900473ffffffffffffffffffffffffffffffffffffffff16905090565b61376d81614371565b6137ac576040517f08c379a00000000000000000000000000000000000000000000000000000000081526004016137a390614d1a565b60405180910390fd5b806137d97f360894a13ba1a3210667c828492db98dca3e2076cc3735a920a3ca505d382bbc60001b614367565b60000160006101000a81548173ffffffffffffffffffffffffffffffffffffffff021916908373ffffffffffffffffffffffffffffffffffffffff16021790555050565b606061382883614371565b613867576040517f08c379a000000000000000000000000000000000000000000000000000000000815260040161385e90614d5a565b60405180910390fd5b6000808473ffffffffffffffffffffffffffffffffffffffff168460405161388f9190614b46565b600060405180830381855af49150503d80600081146138ca576040519150601f19603f3d011682016040523d82523d6000602084013e6138cf565b606091505b50915091506138f782826040518060600160405280602781526020016154ab60279139614384565b9250505092915050565b6000819050919050565b600060019054906101000a900460ff1680613931575060008054906101000a900460ff16155b613970576040517f08c379a000000000000000000000000000000000000000000000000000000000815260040161396790614cda565b60405180910390fd5b60008060019054906101000a900460ff1615905080156139c0576001600060016101000a81548160ff02191690831515021790555060016000806101000a81548160ff0219169083151502179055505b80156139e15760008060016101000a81548160ff0219169083151502179055505b50565b600060019054906101000a900460ff1680613a0a575060008054906101000a900460ff16155b613a49576040517f08c379a0000000000000000000000000000000000000000000000000000000008152600401613a4090614cda565b60405180910390fd5b60008060019054906101000a900460ff161590508015613a99576001600060016101000a81548160ff02191690831515021790555060016000806101000a81548160ff0219169083151502179055505b6000613aa36126db565b905080609760006101000a81548173ffffffffffffffffffffffffffffffffffffffff021916908373ffffffffffffffffffffffffffffffffffffffff1602179055508073ffffffffffffffffffffffffffffffffffffffff16600073ffffffffffffffffffffffffffffffffffffffff167f8be0079c531659141344cd1fd0a4f28419497f9722a3daafe3b4186f6b6457e060405160405180910390a3508015613b635760008060016101000a81548160ff0219169083151502179055505b50565b600060019054906101000a900460ff1680613b8c575060008054906101000a900460ff16155b613bcb576040517f08c379a0000000000000000000000000000000000000000000000000000000008152600401613bc290614cda565b60405180910390fd5b60008060019054906101000a900460ff161590508015613c1b576001600060016101000a81548160ff02191690831515021790555060016000806101000a81548160ff0219169083151502179055505b600160c9819055508015613c445760008060016101000a81548160ff0219169083151502179055505b50565b600060ff60008373ffffffffffffffffffffffffffffffffffffffff1673ffffffffffffffffffffffffffffffffffffffff16815260200190815260200160002090508060030154851115613cc5577f4e487b7100000000000000000000000000000000000000000000000000000000600052600160045260246000fd5b8060030154851415613ced57633b9aca00816008018190555060008160090181905550613d87565b6000613d1c8260090154613d0e633b9aca00896136e190919063ffffffff16565b6131e790919063ffffffff16565b9050613d486001613d3a8460030154846136f790919063ffffffff16565b612bf690919063ffffffff16565b8260080181905550613d7d81613d6f846003015485600801546136e190919063ffffffff16565b6131e790919063ffffffff16565b8260090181905550505b5050505050565b600060ff60008373ffffffffffffffffffffffffffffffffffffffff1673ffffffffffffffffffffffffffffffffffffffff16815260200190815260200160002090506000808551905060005b81811015614150576000613ecf85600a0160008a8581518110613e27577f4e487b7100000000000000000000000000000000000000000000000000000000600052603260045260246000fd5b602002602001015173ffffffffffffffffffffffffffffffffffffffff1673ffffffffffffffffffffffffffffffffffffffff16815260200190815260200160002054613ec1633b9aca008a8681518110613eab577f4e487b7100000000000000000000000000000000000000000000000000000000600052603260045260246000fd5b60200260200101516136e190919063ffffffff16565b612bf690919063ffffffff16565b9050613ee88560030154826136f790919063ffffffff16565b9350613f13613f048660030154866136e190919063ffffffff16565b826131e790919063ffffffff16565b85600a0160008a8581518110613f52577f4e487b7100000000000000000000000000000000000000000000000000000000600052603260045260246000fd5b602002602001015173ffffffffffffffffffffffffffffffffffffffff1673ffffffffffffffffffffffffffffffffffffffff1681526020019081526020016000208190555060008560020160008760040160030154815260200190815260200160002060008760040160020154815260200190815260200160002060008a8581518110614009577f4e487b7100000000000000000000000000000000000000000000000000000000600052603260045260246000fd5b602002602001015173ffffffffffffffffffffffffffffffffffffffff1673ffffffffffffffffffffffffffffffffffffffff168152602001908152602001600020549050600061406a8760040160010154876136e190919063ffffffff16565b905060006140818284612bf690919063ffffffff16565b9050808860020160008a60040160030154815260200190815260200160002060008a60040160020154815260200190815260200160002060008d88815181106140f3577f4e487b7100000000000000000000000000000000000000000000000000000000600052603260045260246000fd5b602002602001015173ffffffffffffffffffffffffffffffffffffffff1673ffffffffffffffffffffffffffffffffffffffff16815260200190815260200160002081905550505050508080614148906150e9565b915050613ddb565b50505050505050565b600060ff60008373ffffffffffffffffffffffffffffffffffffffff1673ffffffffffffffffffffffffffffffffffffffff1681526020019081526020016000209050633b9aca00816008015411156141db577f4e487b7100000000000000000000000000000000000000000000000000000000600052600160045260246000fd5b6000816004016001015490506000806142058460080154633b9aca006131e790919063ffffffff16565b9050600081141561424f5761422b60018560040160030154612bf690919063ffffffff16565b846004016003018190555060008460040160020181905550633b9aca00915061431c565b633b9aca0061427d633b9aca0061426f84876136e190919063ffffffff16565b6136f790919063ffffffff16565b10156142ef576142c2633b9aca006142b4633b9aca006142a685886136e190919063ffffffff16565b6136e190919063ffffffff16565b6136f790919063ffffffff16565b91506142df60018560040160020154612bf690919063ffffffff16565b846004016002018190555061431b565b614318633b9aca0061430a83866136e190919063ffffffff16565b6136f790919063ffffffff16565b91505b5b60008211614353577f4e487b7100000000000000000000000000000000000000000000000000000000600052600160045260246000fd5b818460040160010181905550505050505050565b6000819050919050565b600080823b905060008111915050919050565b60608315614394578290506143e4565b6000835111156143a75782518084602001fd5b816040517f08c379a00000000000000000000000000000000000000000000000000000000081526004016143db9190614c38565b60405180910390fd5b9392505050565b60006143fe6143f984614dda565b614db5565b9050808382526020820190508285602086028201111561441d57600080fd5b60005b8581101561444d57816144338882614516565b845260208401935060208301925050600181019050614420565b5050509392505050565b600061446a61446584614e06565b614db5565b9050808382526020820190508285602086028201111561448957600080fd5b60005b858110156144b9578161449f88826145e8565b84526020840193506020830192505060018101905061448c565b5050509392505050565b60006144d66144d184614e32565b614db5565b9050828152602081018484840111156144ee57600080fd5b6144f9848285615076565b509392505050565b6000813590506145108161544e565b92915050565b6000815190506145258161544e565b92915050565b60008151905061453a81615465565b92915050565b600082601f83011261455157600080fd5b81516145618482602086016143eb565b91505092915050565b600082601f83011261457b57600080fd5b815161458b848260208601614457565b91505092915050565b6000815190506145a38161547c565b92915050565b600082601f8301126145ba57600080fd5b81356145ca8482602086016144c3565b91505092915050565b6000813590506145e281615493565b92915050565b6000815190506145f781615493565b92915050565b60006020828403121561460f57600080fd5b600061461d84828501614501565b91505092915050565b60006020828403121561463857600080fd5b600061464684828501614516565b91505092915050565b60006020828403121561466157600080fd5b600061466f8482850161452b565b91505092915050565b6000806040838503121561468b57600080fd5b600061469985828601614501565b92505060206146aa85828601614501565b9150509250929050565b600080604083850312156146c757600080fd5b60006146d585828601614501565b925050602083013567ffffffffffffffff8111156146f257600080fd5b6146fe858286016145a9565b9150509250929050565b60006020828403121561471a57600080fd5b600082015167ffffffffffffffff81111561473457600080fd5b61474084828501614540565b91505092915050565b60006020828403121561475b57600080fd5b600061476984828501614594565b91505092915050565b60006020828403121561478457600080fd5b6000614792848285016145e8565b91505092915050565b600080604083850312156147ae57600080fd5b60006147bc858286016145d3565b92505060206147cd85828601614501565b9150509250929050565b6000806000606084860312156147ec57600080fd5b60006147fa868287016145e8565b935050602084015167ffffffffffffffff81111561481757600080fd5b61482386828701614540565b925050604084015167ffffffffffffffff81111561484057600080fd5b61484c8682870161456a565b9150509250925092565b60006148628383614886565b60208301905092915050565b600061487a8383614b28565b60208301905092915050565b61488f8161501c565b82525050565b61489e8161501c565b82525050565b60006148af82614e83565b6148b98185614ec9565b93506148c483614e63565b8060005b838110156148f55781516148dc8882614856565b97506148e783614eaf565b9250506001810190506148c8565b5085935050505092915050565b600061490d82614e8e565b6149178185614eda565b935061492283614e73565b8060005b8381101561495357815161493a888261486e565b975061494583614ebc565b925050600181019050614926565b5085935050505092915050565b600061496b82614e99565b6149758185614eeb565b9350614985818560208601615085565b80840191505092915050565b600061499c82614ea4565b6149a68185614ef6565b93506149b6818560208601615085565b6149bf816151bf565b840191505092915050565b60006149d7602f83614ef6565b91506149e2826151d0565b604082019050919050565b60006149fa602683614ef6565b9150614a058261521f565b604082019050919050565b6000614a1d602d83614ef6565b9150614a288261526e565b604082019050919050565b6000614a40600283614ef6565b9150614a4b826152bd565b602082019050919050565b6000614a63602e83614ef6565b9150614a6e826152e6565b604082019050919050565b6000614a86600283614ef6565b9150614a9182615335565b602082019050919050565b6000614aa9602d83614ef6565b9150614ab48261535e565b604082019050919050565b6000614acc602083614ef6565b9150614ad7826153ad565b602082019050919050565b6000614aef602683614ef6565b9150614afa826153d6565b604082019050919050565b6000614b12601f83614ef6565b9150614b1d82615425565b602082019050919050565b614b318161506c565b82525050565b614b408161506c565b82525050565b6000614b528284614960565b915081905092915050565b6000602082019050614b726000830184614895565b92915050565b6000604082019050614b8d6000830185614895565b614b9a6020830184614895565b9392505050565b6000606082019050614bb66000830186614895565b614bc36020830185614895565b614bd06040830184614b37565b949350505050565b6000604082019050614bed6000830185614895565b614bfa6020830184614b37565b9392505050565b60006040820190508181036000830152614c1b81856148a4565b90508181036020830152614c2f8184614902565b90509392505050565b60006020820190508181036000830152614c528184614991565b905092915050565b60006020820190508181036000830152614c73816149ca565b9050919050565b60006020820190508181036000830152614c93816149ed565b9050919050565b60006020820190508181036000830152614cb381614a10565b9050919050565b60006020820190508181036000830152614cd381614a33565b9050919050565b60006020820190508181036000830152614cf381614a56565b9050919050565b60006020820190508181036000830152614d1381614a79565b9050919050565b60006020820190508181036000830152614d3381614a9c565b9050919050565b60006020820190508181036000830152614d5381614abf565b9050919050565b60006020820190508181036000830152614d7381614ae2565b9050919050565b60006020820190508181036000830152614d9381614b05565b9050919050565b6000602082019050614daf6000830184614b37565b92915050565b6000614dbf614dd0565b9050614dcb82826150b8565b919050565b6000604051905090565b600067ffffffffffffffff821115614df557614df4615190565b5b602082029050602081019050919050565b600067ffffffffffffffff821115614e2157614e20615190565b5b602082029050602081019050919050565b600067ffffffffffffffff821115614e4d57614e4c615190565b5b614e56826151bf565b9050602081019050919050565b6000819050602082019050919050565b6000819050602082019050919050565b600081519050919050565b600081519050919050565b600081519050919050565b600081519050919050565b6000602082019050919050565b6000602082019050919050565b600082825260208201905092915050565b600082825260208201905092915050565b600081905092915050565b600082825260208201905092915050565b6000614f128261506c565b9150614f1d8361506c565b9250827fffffffffffffffffffffffffffffffffffffffffffffffffffffffffffffffff03821115614f5257614f51615132565b5b828201905092915050565b6000614f688261506c565b9150614f738361506c565b925082614f8357614f82615161565b5b828204905092915050565b6000614f998261506c565b9150614fa48361506c565b9250817fffffffffffffffffffffffffffffffffffffffffffffffffffffffffffffffff0483118215151615614fdd57614fdc615132565b5b828202905092915050565b6000614ff38261506c565b9150614ffe8361506c565b92508282101561501157615010615132565b5b828203905092915050565b60006150278261504c565b9050919050565b60006150398261504c565b9050919050565b60008115159050919050565b600073ffffffffffffffffffffffffffffffffffffffff82169050919050565b6000819050919050565b82818337600083830152505050565b60005b838110156150a3578082015181840152602081019050615088565b838111156150b2576000848401525b50505050565b6150c1826151bf565b810181811067ffffffffffffffff821117156150e0576150df615190565b5b80604052505050565b60006150f48261506c565b91507fffffffffffffffffffffffffffffffffffffffffffffffffffffffffffffffff82141561512757615126615132565b5b600182019050919050565b7f4e487b7100000000000000000000000000000000000000000000000000000000600052601160045260246000fd5b7f4e487b7100000000000000000000000000000000000000000000000000000000600052601260045260246000fd5b7f4e487b7100000000000000000000000000000000000000000000000000000000600052604160045260246000fd5b6000601f19601f8301169050919050565b7f45524331393637557067726164653a207570677261646520627265616b73206660008201527f7572746865722075706772616465730000000000000000000000000000000000602082015250565b7f4f776e61626c653a206e6577206f776e657220697320746865207a65726f206160008201527f6464726573730000000000000000000000000000000000000000000000000000602082015250565b7f66784b6565706572506f6f6c3a206678546f6b656e20455243323020616c6c6f60008201527f77616e6365206e6f74206d657400000000000000000000000000000000000000602082015250565b7f4946000000000000000000000000000000000000000000000000000000000000600082015250565b7f496e697469616c697a61626c653a20636f6e747261637420697320616c72656160008201527f647920696e697469616c697a6564000000000000000000000000000000000000602082015250565b7f4941000000000000000000000000000000000000000000000000000000000000600082015250565b7f455243313936373a206e657720696d706c656d656e746174696f6e206973206e60008201527f6f74206120636f6e747261637400000000000000000000000000000000000000602082015250565b7f4f776e61626c653a2063616c6c6572206973206e6f7420746865206f776e6572600082015250565b7f416464726573733a2064656c65676174652063616c6c20746f206e6f6e2d636f60008201527f6e74726163740000000000000000000000000000000000000000000000000000602082015250565b7f5265656e7472616e637947756172643a207265656e7472616e742063616c6c00600082015250565b6154578161501c565b811461546257600080fd5b50565b61546e8161502e565b811461547957600080fd5b50565b61548581615040565b811461549057600080fd5b50565b61549c8161506c565b81146154a757600080fd5b5056fe416464726573733a206c6f772d6c6576656c2064656c65676174652063616c6c206661696c6564a26469706673582212208f01778209205473c5b07c4cb75d834f272c094518db0ca8f624fa19cfbe21bc64736f6c63430008030033",
  "linkReferences": {},
  "deployedLinkReferences": {}
}