{
  "_format": "hh-sol-artifact-1",
  "contractName": "fxKeeperPool",
  "sourceName": "contracts/Bank/fxKeeperPool.sol",
  "abi": [
    {
      "anonymous": false,
      "inputs": [
        {
          "indexed": false,
          "internalType": "address",
          "name": "previousAdmin",
          "type": "address"
        },
        {
          "indexed": false,
          "internalType": "address",
          "name": "newAdmin",
          "type": "address"
        }
      ],
      "name": "AdminChanged",
      "type": "event"
    },
    {
      "anonymous": false,
      "inputs": [
        {
          "indexed": true,
          "internalType": "address",
          "name": "beacon",
          "type": "address"
        }
      ],
      "name": "BeaconUpgraded",
      "type": "event"
    },
    {
      "anonymous": false,
      "inputs": [
        {
          "indexed": true,
          "internalType": "address",
          "name": "account",
          "type": "address"
        },
        {
          "indexed": true,
          "internalType": "address",
          "name": "token",
          "type": "address"
        },
        {
          "indexed": false,
          "internalType": "uint256",
          "name": "tokenAmount",
          "type": "uint256"
        }
      ],
      "name": "Liquidate",
      "type": "event"
    },
    {
      "anonymous": false,
      "inputs": [
        {
          "indexed": true,
          "internalType": "address",
          "name": "previousOwner",
          "type": "address"
        },
        {
          "indexed": true,
          "internalType": "address",
          "name": "newOwner",
          "type": "address"
        }
      ],
      "name": "OwnershipTransferred",
      "type": "event"
    },
    {
      "anonymous": false,
      "inputs": [
        {
          "indexed": true,
          "internalType": "address",
          "name": "account",
          "type": "address"
        },
        {
          "indexed": true,
          "internalType": "address",
          "name": "token",
          "type": "address"
        },
        {
          "indexed": false,
          "internalType": "uint256",
          "name": "amount",
          "type": "uint256"
        }
      ],
      "name": "Stake",
      "type": "event"
    },
    {
      "anonymous": false,
      "inputs": [
        {
          "indexed": true,
          "internalType": "address",
          "name": "account",
          "type": "address"
        },
        {
          "indexed": true,
          "internalType": "address",
          "name": "token",
          "type": "address"
        },
        {
          "indexed": false,
          "internalType": "uint256",
          "name": "amount",
          "type": "uint256"
        }
      ],
      "name": "Unstake",
      "type": "event"
    },
    {
      "anonymous": false,
      "inputs": [
        {
          "indexed": true,
          "internalType": "address",
          "name": "implementation",
          "type": "address"
        }
      ],
      "name": "Upgraded",
      "type": "event"
    },
    {
      "anonymous": false,
      "inputs": [
        {
          "indexed": true,
          "internalType": "address",
          "name": "account",
          "type": "address"
        },
        {
          "indexed": true,
          "internalType": "address",
          "name": "token",
          "type": "address"
        }
      ],
      "name": "Withdraw",
      "type": "event"
    },
    {
      "inputs": [],
      "name": "DECIMAL_PRECISION",
      "outputs": [
        {
          "internalType": "uint256",
          "name": "",
          "type": "uint256"
        }
      ],
      "stateMutability": "view",
      "type": "function"
    },
    {
      "inputs": [],
      "name": "SCALE_FACTOR",
      "outputs": [
        {
          "internalType": "uint256",
          "name": "",
          "type": "uint256"
        }
      ],
      "stateMutability": "view",
      "type": "function"
    },
    {
      "inputs": [
        {
          "internalType": "address",
          "name": "account",
          "type": "address"
        },
        {
          "internalType": "address",
          "name": "fxToken",
          "type": "address"
        }
      ],
      "name": "balanceOfRewards",
      "outputs": [
        {
          "internalType": "address[]",
          "name": "collateralTypes",
          "type": "address[]"
        },
        {
          "internalType": "uint256[]",
          "name": "collateralAmounts",
          "type": "uint256[]"
        }
      ],
      "stateMutability": "view",
      "type": "function"
    },
    {
      "inputs": [
        {
          "internalType": "address",
          "name": "account",
          "type": "address"
        },
        {
          "internalType": "address",
          "name": "fxToken",
          "type": "address"
        }
      ],
      "name": "balanceOfStake",
      "outputs": [
        {
          "internalType": "uint256",
          "name": "amount",
          "type": "uint256"
        }
      ],
      "stateMutability": "view",
      "type": "function"
    },
    {
      "inputs": [
        {
          "internalType": "address",
          "name": "fxToken",
          "type": "address"
        },
        {
          "internalType": "address",
          "name": "collateral",
          "type": "address"
        }
      ],
      "name": "getPoolCollateralBalance",
      "outputs": [
        {
          "internalType": "uint256",
          "name": "amount",
          "type": "uint256"
        }
      ],
      "stateMutability": "view",
      "type": "function"
    },
    {
      "inputs": [
        {
          "internalType": "address",
          "name": "fxToken",
          "type": "address"
        }
      ],
      "name": "getPoolTotalDeposit",
      "outputs": [
        {
          "internalType": "uint256",
          "name": "amount",
          "type": "uint256"
        }
      ],
      "stateMutability": "view",
      "type": "function"
    },
    {
      "inputs": [],
      "name": "handleAddress",
      "outputs": [
        {
          "internalType": "address",
          "name": "",
          "type": "address"
        }
      ],
      "stateMutability": "view",
      "type": "function"
    },
    {
      "inputs": [],
      "name": "initialize",
      "outputs": [],
      "stateMutability": "nonpayable",
      "type": "function"
    },
    {
      "inputs": [
        {
          "internalType": "address",
          "name": "account",
          "type": "address"
        },
        {
          "internalType": "address",
          "name": "fxToken",
          "type": "address"
        }
      ],
      "name": "liquidate",
      "outputs": [],
      "stateMutability": "nonpayable",
      "type": "function"
    },
    {
      "inputs": [],
      "name": "owner",
      "outputs": [
        {
          "internalType": "address",
          "name": "",
          "type": "address"
        }
      ],
      "stateMutability": "view",
      "type": "function"
    },
    {
      "inputs": [],
      "name": "renounceOwnership",
      "outputs": [],
      "stateMutability": "nonpayable",
      "type": "function"
    },
    {
      "inputs": [
        {
          "internalType": "address",
          "name": "_handle",
          "type": "address"
        }
      ],
      "name": "setHandleContract",
      "outputs": [],
      "stateMutability": "nonpayable",
      "type": "function"
    },
    {
      "inputs": [
        {
          "internalType": "address",
          "name": "account",
          "type": "address"
        },
        {
          "internalType": "address",
          "name": "fxToken",
          "type": "address"
        }
      ],
      "name": "shareOf",
      "outputs": [
        {
          "internalType": "uint256",
          "name": "share",
          "type": "uint256"
        }
      ],
      "stateMutability": "view",
      "type": "function"
    },
    {
      "inputs": [
        {
          "internalType": "uint256",
          "name": "amount",
          "type": "uint256"
        },
        {
          "internalType": "address",
          "name": "fxToken",
          "type": "address"
        }
      ],
      "name": "stake",
      "outputs": [],
      "stateMutability": "nonpayable",
      "type": "function"
    },
    {
      "inputs": [
        {
          "internalType": "address",
          "name": "newOwner",
          "type": "address"
        }
      ],
      "name": "transferOwnership",
      "outputs": [],
      "stateMutability": "nonpayable",
      "type": "function"
    },
    {
      "inputs": [
        {
          "internalType": "uint256",
          "name": "amount",
          "type": "uint256"
        },
        {
          "internalType": "address",
          "name": "fxToken",
          "type": "address"
        }
      ],
      "name": "unstake",
      "outputs": [],
      "stateMutability": "nonpayable",
      "type": "function"
    },
    {
      "inputs": [
        {
          "internalType": "address",
          "name": "newImplementation",
          "type": "address"
        }
      ],
      "name": "upgradeTo",
      "outputs": [],
      "stateMutability": "nonpayable",
      "type": "function"
    },
    {
      "inputs": [
        {
          "internalType": "address",
          "name": "newImplementation",
          "type": "address"
        },
        {
          "internalType": "bytes",
          "name": "data",
          "type": "bytes"
        }
      ],
      "name": "upgradeToAndCall",
      "outputs": [],
      "stateMutability": "payable",
      "type": "function"
    },
    {
      "inputs": [
        {
          "internalType": "address",
          "name": "fxToken",
          "type": "address"
        }
      ],
      "name": "withdrawCollateralReward",
      "outputs": [],
      "stateMutability": "nonpayable",
      "type": "function"
    }
  ],
  "bytecode": "0x608060405234801561001057600080fd5b50615bb880620000216000396000f3fe6080604052600436106101145760003560e01c8063883c95da116100a0578063ccf37f1711610064578063ccf37f1714610368578063ce4b5bbe146103a6578063dde1f9ea146103d1578063ea1e87001461040e578063f2fde38b1461043757610114565b8063883c95da1461026f5780638da5cb5b146102ac5780639b1c414f146102d7578063a20baee614610300578063acd5d4581461032b57610114565b80637acb7757116100e75780637acb7757146101a05780638129fc1c146101c957806382212e3d146101e05780638381e1821461021d57806386b9d81f1461024657610114565b80633659cfe6146101195780634f1ef28614610142578063715018a61461015e57806374bf578b14610175575b600080fd5b34801561012557600080fd5b50610140600480360381019061013b9190614b94565b610460565b005b61015c60048036038101906101579190614c4b565b610487565b005b34801561016a57600080fd5b506101736104a0565b005b34801561018157600080fd5b5061018a6105dd565b604051610197919061514d565b60405180910390f35b3480156101ac57600080fd5b506101c760048036038101906101c29190614e0a565b610607565b005b3480156101d557600080fd5b506101de610a73565b005b3480156101ec57600080fd5b5061020760048036038101906102029190614c0f565b610b5c565b60405161021491906153cf565b60405180910390f35b34801561022957600080fd5b50610244600480360381019061023f9190614e0a565b610be6565b005b34801561025257600080fd5b5061026d60048036038101906102689190614c0f565b610f7b565b005b34801561027b57600080fd5b5061029660048036038101906102919190614b94565b61114a565b6040516102a391906153cf565b60405180910390f35b3480156102b857600080fd5b506102c1611196565b6040516102ce919061514d565b60405180910390f35b3480156102e357600080fd5b506102fe60048036038101906102f99190614b94565b6111c0565b005b34801561030c57600080fd5b50610315611520565b60405161032291906153cf565b60405180910390f35b34801561033757600080fd5b50610352600480360381019061034d9190614c0f565b611528565b60405161035f91906153cf565b60405180910390f35b34801561037457600080fd5b5061038f600480360381019061038a9190614c0f565b6116b6565b60405161039d929190615236565b60405180910390f35b3480156103b257600080fd5b506103bb611c75565b6040516103c891906153cf565b60405180910390f35b3480156103dd57600080fd5b506103f860048036038101906103f39190614c0f565b611c7d565b60405161040591906153cf565b60405180910390f35b34801561041a57600080fd5b5061043560048036038101906104309190614b94565b611fff565b005b34801561044357600080fd5b5061045e60048036038101906104599190614b94565b61214e565b005b610469816122fa565b61048481604051806020016040528060008152506000612379565b50565b610490826122fa565b61049c82826001612379565b5050565b6104a861258d565b73ffffffffffffffffffffffffffffffffffffffff166104c6611196565b73ffffffffffffffffffffffffffffffffffffffff161461051c576040517f08c379a00000000000000000000000000000000000000000000000000000000081526004016105139061534f565b60405180910390fd5b600073ffffffffffffffffffffffffffffffffffffffff16609760009054906101000a900473ffffffffffffffffffffffffffffffffffffffff1673ffffffffffffffffffffffffffffffffffffffff167f8be0079c531659141344cd1fd0a4f28419497f9722a3daafe3b4186f6b6457e060405160405180910390a36000609760006101000a81548173ffffffffffffffffffffffffffffffffffffffff021916908373ffffffffffffffffffffffffffffffffffffffff160217905550565b600060fb60009054906101000a900473ffffffffffffffffffffffffffffffffffffffff16905090565b8060fb60009054906101000a900473ffffffffffffffffffffffffffffffffffffffff1673ffffffffffffffffffffffffffffffffffffffff1663a0f026ff826040518263ffffffff1660e01b8152600401610663919061514d565b60206040518083038186803b15801561067b57600080fd5b505afa15801561068f573d6000803e3d6000fd5b505050506040513d601f19601f820116820180604052508101906106b39190614db8565b6106f2576040517f08c379a00000000000000000000000000000000000000000000000000000000081526004016106e9906152ef565b60405180910390fd5b600260c9541415610738576040517f08c379a000000000000000000000000000000000000000000000000000000000815260040161072f906153af565b60405180910390fd5b600260c98190555061074982612595565b828273ffffffffffffffffffffffffffffffffffffffff1663dd62ed3e33306040518363ffffffff1660e01b8152600401610785929190615168565b60206040518083038186803b15801561079d57600080fd5b505afa1580156107b1573d6000803e3d6000fd5b505050506040513d601f19601f820116820180604052508101906107d59190614de1565b1015610816576040517f08c379a000000000000000000000000000000000000000000000000000000000815260040161080d906152cf565b60405180910390fd5b8173ffffffffffffffffffffffffffffffffffffffff166323b872dd3330866040518463ffffffff1660e01b815260040161085393929190615191565b602060405180830381600087803b15801561086d57600080fd5b505af1158015610881573d6000803e3d6000fd5b505050506040513d601f19601f820116820180604052508101906108a59190614db8565b506108fb8360ff60008573ffffffffffffffffffffffffffffffffffffffff1673ffffffffffffffffffffffffffffffffffffffff1681526020019081526020016000206003015461263990919063ffffffff16565b60ff60008473ffffffffffffffffffffffffffffffffffffffff1673ffffffffffffffffffffffffffffffffffffffff16815260200190815260200160002060030181905550600060ff60008473ffffffffffffffffffffffffffffffffffffffff1673ffffffffffffffffffffffffffffffffffffffff16815260200190815260200160002060000160003373ffffffffffffffffffffffffffffffffffffffff1673ffffffffffffffffffffffffffffffffffffffff168152602001908152602001600020905060006109d03385611c7d565b905060006109e7868361263990919063ffffffff16565b90506109f433828761264f565b6109fe3386612a60565b8473ffffffffffffffffffffffffffffffffffffffff163373ffffffffffffffffffffffffffffffffffffffff167f99039fcf0a98f484616c5196ee8b2ecfa971babf0b519848289ea4db381f85f788604051610a5b91906153cf565b60405180910390a3505050600160c981905550505050565b600060019054906101000a900460ff1680610a99575060008054906101000a900460ff16155b610ad8576040517f08c379a0000000000000000000000000000000000000000000000000000000008152600401610acf9061530f565b60405180910390fd5b60008060019054906101000a900460ff161590508015610b28576001600060016101000a81548160ff02191690831515021790555060016000806101000a81548160ff0219169083151502179055505b610b30612ca0565b610b38612d89565b8015610b595760008060016101000a81548160ff0219169083151502179055505b50565b600060ff60008473ffffffffffffffffffffffffffffffffffffffff1673ffffffffffffffffffffffffffffffffffffffff16815260200190815260200160002060010160008373ffffffffffffffffffffffffffffffffffffffff1673ffffffffffffffffffffffffffffffffffffffff16815260200190815260200160002054905092915050565b8060fb60009054906101000a900473ffffffffffffffffffffffffffffffffffffffff1673ffffffffffffffffffffffffffffffffffffffff1663a0f026ff826040518263ffffffff1660e01b8152600401610c42919061514d565b60206040518083038186803b158015610c5a57600080fd5b505afa158015610c6e573d6000803e3d6000fd5b505050506040513d601f19601f82011682018060405250810190610c929190614db8565b610cd1576040517f08c379a0000000000000000000000000000000000000000000000000000000008152600401610cc8906152ef565b60405180910390fd5b600260c9541415610d17576040517f08c379a0000000000000000000000000000000000000000000000000000000008152600401610d0e906153af565b60405180910390fd5b600260c9819055506000610d2b3384611c7d565b905080841115610d39578093505b8360ff60008573ffffffffffffffffffffffffffffffffffffffff1673ffffffffffffffffffffffffffffffffffffffff168152602001908152602001600020600301541015610db2577f4e487b7100000000000000000000000000000000000000000000000000000000600052600160045260246000fd5b8273ffffffffffffffffffffffffffffffffffffffff1663a9059cbb33866040518363ffffffff1660e01b8152600401610ded92919061520d565b602060405180830381600087803b158015610e0757600080fd5b505af1158015610e1b573d6000803e3d6000fd5b505050506040513d601f19601f82011682018060405250810190610e3f9190614db8565b50610e958460ff60008673ffffffffffffffffffffffffffffffffffffffff1673ffffffffffffffffffffffffffffffffffffffff16815260200190815260200160002060030154612e6a90919063ffffffff16565b60ff60008573ffffffffffffffffffffffffffffffffffffffff1673ffffffffffffffffffffffffffffffffffffffff168152602001908152602001600020600301819055506000610ef08583612e6a90919063ffffffff16565b9050610efd33828661264f565b610f073385612a60565b8373ffffffffffffffffffffffffffffffffffffffff163373ffffffffffffffffffffffffffffffffffffffff167f390b1276974b9463e5d66ab10df69b6f3d7b930eb066a0e66df327edd2cc811c87604051610f6491906153cf565b60405180910390a35050600160c981905550505050565b8060fb60009054906101000a900473ffffffffffffffffffffffffffffffffffffffff1673ffffffffffffffffffffffffffffffffffffffff1663a0f026ff826040518263ffffffff1660e01b8152600401610fd7919061514d565b60206040518083038186803b158015610fef57600080fd5b505afa158015611003573d6000803e3d6000fd5b505050506040513d601f19601f820116820180604052508101906110279190614db8565b611066576040517f08c379a000000000000000000000000000000000000000000000000000000000815260040161105d906152ef565b60405180910390fd5b600260c95414156110ac576040517f08c379a00000000000000000000000000000000000000000000000000000000081526004016110a3906153af565b60405180910390fd5b600260c98190555060008060006110c38686612e80565b9250925092506110d583838388613b5a565b8473ffffffffffffffffffffffffffffffffffffffff168673ffffffffffffffffffffffffffffffffffffffff167faef3faf684172084346f7dc2cc3bb1328d1cc23caec12dd9a82d4a4e56c00b178560405161113291906153cf565b60405180910390a3505050600160c981905550505050565b600060ff60008373ffffffffffffffffffffffffffffffffffffffff1673ffffffffffffffffffffffffffffffffffffffff168152602001908152602001600020600301549050919050565b6000609760009054906101000a900473ffffffffffffffffffffffffffffffffffffffff16905090565b6111c861258d565b73ffffffffffffffffffffffffffffffffffffffff166111e6611196565b73ffffffffffffffffffffffffffffffffffffffff161461123c576040517f08c379a00000000000000000000000000000000000000000000000000000000081526004016112339061534f565b60405180910390fd5b8060fb60006101000a81548173ffffffffffffffffffffffffffffffffffffffff021916908373ffffffffffffffffffffffffffffffffffffffff16021790555060fb60009054906101000a900473ffffffffffffffffffffffffffffffffffffffff1673ffffffffffffffffffffffffffffffffffffffff166361d027b36040518163ffffffff1660e01b815260040160206040518083038186803b1580156112e557600080fd5b505afa1580156112f9573d6000803e3d6000fd5b505050506040513d601f19601f8201168201806040525081019061131d9190614be6565b60fd60006101000a81548173ffffffffffffffffffffffffffffffffffffffff021916908373ffffffffffffffffffffffffffffffffffffffff16021790555060fb60009054906101000a900473ffffffffffffffffffffffffffffffffffffffff1673ffffffffffffffffffffffffffffffffffffffff16635fe3b5676040518163ffffffff1660e01b815260040160206040518083038186803b1580156113c557600080fd5b505afa1580156113d9573d6000803e3d6000fd5b505050506040513d601f19601f820116820180604052508101906113fd9190614bbd565b60fc60006101000a81548173ffffffffffffffffffffffffffffffffffffffff021916908373ffffffffffffffffffffffffffffffffffffffff16021790555060fb60009054906101000a900473ffffffffffffffffffffffffffffffffffffffff1673ffffffffffffffffffffffffffffffffffffffff1663eb0a8b916040518163ffffffff1660e01b815260040160206040518083038186803b1580156114a557600080fd5b505afa1580156114b9573d6000803e3d6000fd5b505050506040513d601f19601f820116820180604052508101906114dd9190614bbd565b60fe60006101000a81548173ffffffffffffffffffffffffffffffffffffffff021916908373ffffffffffffffffffffffffffffffffffffffff16021790555050565b633b9aca0081565b60008160fb60009054906101000a900473ffffffffffffffffffffffffffffffffffffffff1673ffffffffffffffffffffffffffffffffffffffff1663a0f026ff826040518263ffffffff1660e01b8152600401611586919061514d565b60206040518083038186803b15801561159e57600080fd5b505afa1580156115b2573d6000803e3d6000fd5b505050506040513d601f19601f820116820180604052508101906115d69190614db8565b611615576040517f08c379a000000000000000000000000000000000000000000000000000000000815260040161160c906152ef565b60405180910390fd5b600060ff60008573ffffffffffffffffffffffffffffffffffffffff1673ffffffffffffffffffffffffffffffffffffffff168152602001908152602001600020600301549050600081141561166f5760009250506116af565b600061167b8686611c7d565b90506116aa8261169c670de0b6b3a764000084613c7890919063ffffffff16565b613c8e90919063ffffffff16565b935050505b5092915050565b6060808260fb60009054906101000a900473ffffffffffffffffffffffffffffffffffffffff1673ffffffffffffffffffffffffffffffffffffffff1663a0f026ff826040518263ffffffff1660e01b8152600401611715919061514d565b60206040518083038186803b15801561172d57600080fd5b505afa158015611741573d6000803e3d6000fd5b505050506040513d601f19601f820116820180604052508101906117659190614db8565b6117a4576040517f08c379a000000000000000000000000000000000000000000000000000000000815260040161179b906152ef565b60405180910390fd5b600060ff60008673ffffffffffffffffffffffffffffffffffffffff1673ffffffffffffffffffffffffffffffffffffffff168152602001908152602001600020905060008160000160008873ffffffffffffffffffffffffffffffffffffffff1673ffffffffffffffffffffffffffffffffffffffff16815260200190815260200160002060000154905060008260000160008973ffffffffffffffffffffffffffffffffffffffff1673ffffffffffffffffffffffffffffffffffffffff168152602001908152602001600020600101905060fb60009054906101000a900473ffffffffffffffffffffffffffffffffffffffff1673ffffffffffffffffffffffffffffffffffffffff1663294d499e6040518163ffffffff1660e01b815260040160006040518083038186803b1580156118e057600080fd5b505afa1580156118f4573d6000803e3d6000fd5b505050506040513d6000823e3d601f19601f8201168201806040525081019061191d9190614c9f565b95506000865190508067ffffffffffffffff811115611965577f4e487b7100000000000000000000000000000000000000000000000000000000600052604160045260246000fd5b6040519080825280602002602001820160405280156119935781602001602082028036833780820191505090505b50955060005b81811015611c68576000611ae28460000160008b85815181106119e5577f4e487b7100000000000000000000000000000000000000000000000000000000600052603260045260246000fd5b602002602001015173ffffffffffffffffffffffffffffffffffffffff1673ffffffffffffffffffffffffffffffffffffffff168152602001908152602001600020548760020160008760030154815260200190815260200160002060008760020154815260200190815260200160002060008c8681518110611a91577f4e487b7100000000000000000000000000000000000000000000000000000000600052603260045260246000fd5b602002602001015173ffffffffffffffffffffffffffffffffffffffff1673ffffffffffffffffffffffffffffffffffffffff16815260200190815260200160002054612e6a90919063ffffffff16565b90506000611bbb633b9aca00886002016000886003015481526020019081526020016000206000611b2160018a6002015461263990919063ffffffff16565b815260200190815260200160002060008d8781518110611b6a577f4e487b7100000000000000000000000000000000000000000000000000000000600052603260045260246000fd5b602002602001015173ffffffffffffffffffffffffffffffffffffffff1673ffffffffffffffffffffffffffffffffffffffff16815260200190815260200160002054613c8e90919063ffffffff16565b9050611c0e633b9aca00611c008760010154611bf2611be3868861263990919063ffffffff16565b8b613c7890919063ffffffff16565b613c8e90919063ffffffff16565b613c8e90919063ffffffff16565b898481518110611c47577f4e487b7100000000000000000000000000000000000000000000000000000000600052603260045260246000fd5b60200260200101818152505050508080611c609061579a565b915050611999565b5050505050509250929050565b633b9aca0081565b60008160fb60009054906101000a900473ffffffffffffffffffffffffffffffffffffffff1673ffffffffffffffffffffffffffffffffffffffff1663a0f026ff826040518263ffffffff1660e01b8152600401611cdb919061514d565b60206040518083038186803b158015611cf357600080fd5b505afa158015611d07573d6000803e3d6000fd5b505050506040513d601f19601f82011682018060405250810190611d2b9190614db8565b611d6a576040517f08c379a0000000000000000000000000000000000000000000000000000000008152600401611d61906152ef565b60405180910390fd5b600060ff60008573ffffffffffffffffffffffffffffffffffffffff1673ffffffffffffffffffffffffffffffffffffffff168152602001908152602001600020600401600101541415611dc15760009150611ff8565b60ff60008473ffffffffffffffffffffffffffffffffffffffff1673ffffffffffffffffffffffffffffffffffffffff16815260200190815260200160002060000160008573ffffffffffffffffffffffffffffffffffffffff1673ffffffffffffffffffffffffffffffffffffffff1681526020019081526020016000206000015491506000821415611e585760009150611ff8565b600060ff60008573ffffffffffffffffffffffffffffffffffffffff1673ffffffffffffffffffffffffffffffffffffffff16815260200190815260200160002060000160008673ffffffffffffffffffffffffffffffffffffffff1673ffffffffffffffffffffffffffffffffffffffff1681526020019081526020016000206001019050600060ff60008673ffffffffffffffffffffffffffffffffffffffff1673ffffffffffffffffffffffffffffffffffffffff1681526020019081526020016000206004019050806003015482600301541015611f3f57600093505050611ff8565b6000611f5c83600201548360020154612e6a90919063ffffffff16565b90506000811415611f9b57611f948360010154611f86846001015488613c7890919063ffffffff16565b613c8e90919063ffffffff16565b9450611ff4565b6001811415611fee57611fe7633b9aca00611fd98560010154611fcb86600101548a613c7890919063ffffffff16565b613c8e90919063ffffffff16565b613c8e90919063ffffffff16565b9450611ff3565b600094505b5b5050505b5092915050565b8060fb60009054906101000a900473ffffffffffffffffffffffffffffffffffffffff1673ffffffffffffffffffffffffffffffffffffffff1663a0f026ff826040518263ffffffff1660e01b815260040161205b919061514d565b60206040518083038186803b15801561207357600080fd5b505afa158015612087573d6000803e3d6000fd5b505050506040513d601f19601f820116820180604052508101906120ab9190614db8565b6120ea576040517f08c379a00000000000000000000000000000000000000000000000000000000081526004016120e1906152ef565b60405180910390fd5b600260c9541415612130576040517f08c379a0000000000000000000000000000000000000000000000000000000008152600401612127906153af565b60405180910390fd5b600260c9819055506121423383612a60565b600160c9819055505050565b61215661258d565b73ffffffffffffffffffffffffffffffffffffffff16612174611196565b73ffffffffffffffffffffffffffffffffffffffff16146121ca576040517f08c379a00000000000000000000000000000000000000000000000000000000081526004016121c19061534f565b60405180910390fd5b600073ffffffffffffffffffffffffffffffffffffffff168173ffffffffffffffffffffffffffffffffffffffff16141561223a576040517f08c379a0000000000000000000000000000000000000000000000000000000008152600401612231906152af565b60405180910390fd5b8073ffffffffffffffffffffffffffffffffffffffff16609760009054906101000a900473ffffffffffffffffffffffffffffffffffffffff1673ffffffffffffffffffffffffffffffffffffffff167f8be0079c531659141344cd1fd0a4f28419497f9722a3daafe3b4186f6b6457e060405160405180910390a380609760006101000a81548173ffffffffffffffffffffffffffffffffffffffff021916908373ffffffffffffffffffffffffffffffffffffffff16021790555050565b61230261258d565b73ffffffffffffffffffffffffffffffffffffffff16612320611196565b73ffffffffffffffffffffffffffffffffffffffff1614612376576040517f08c379a000000000000000000000000000000000000000000000000000000000815260040161236d9061534f565b60405180910390fd5b50565b6000612383613ca4565b905061238e84613cfb565b60008351118061239b5750815b156123ac576123aa8484613db4565b505b60006123da7f4910fdfa16fed3260ed0e7147f7cc6da11a60208b5b9406d12a635614ffd914360001b613e98565b90508060000160009054906101000a900460ff166125865760018160000160006101000a81548160ff0219169083151502179055506124a68583604051602401612424919061514d565b6040516020818303038152906040527f3659cfe6000000000000000000000000000000000000000000000000000000007bffffffffffffffffffffffffffffffffffffffffffffffffffffffff19166020820180517bffffffffffffffffffffffffffffffffffffffffffffffffffffffff8381831617835250505050613db4565b5060008160000160006101000a81548160ff0219169083151502179055506124cc613ca4565b73ffffffffffffffffffffffffffffffffffffffff168273ffffffffffffffffffffffffffffffffffffffff1614612539576040517f08c379a00000000000000000000000000000000000000000000000000000000081526004016125309061528f565b60405180910390fd5b61254285613cfb565b8473ffffffffffffffffffffffffffffffffffffffff167fbc7cd75a20ee27fd9adebab32041f755214dbc6bffa90cc0225b39da2e5c2d3b60405160405180910390a25b5050505050565b600033905090565b600060ff60008373ffffffffffffffffffffffffffffffffffffffff1673ffffffffffffffffffffffffffffffffffffffff16815260200190815260200160002060040160010154146125e757612636565b633b9aca0060ff60008373ffffffffffffffffffffffffffffffffffffffff1673ffffffffffffffffffffffffffffffffffffffff168152602001908152602001600020600401600101819055505b50565b6000818361264791906155b8565b905092915050565b8160ff60008373ffffffffffffffffffffffffffffffffffffffff1673ffffffffffffffffffffffffffffffffffffffff16815260200190815260200160002060000160008573ffffffffffffffffffffffffffffffffffffffff1673ffffffffffffffffffffffffffffffffffffffff16815260200190815260200160002060000181905550600082141561278e5760ff60008273ffffffffffffffffffffffffffffffffffffffff1673ffffffffffffffffffffffffffffffffffffffff16815260200190815260200160002060000160008473ffffffffffffffffffffffffffffffffffffffff1673ffffffffffffffffffffffffffffffffffffffff16815260200190815260200160002060008082016000905560018201600060018201600090556002820160009055600382016000905550505050612a5b565b600060ff60008373ffffffffffffffffffffffffffffffffffffffff1673ffffffffffffffffffffffffffffffffffffffff1681526020019081526020016000206004019050600060ff60008473ffffffffffffffffffffffffffffffffffffffff1673ffffffffffffffffffffffffffffffffffffffff16815260200190815260200160002060000160008673ffffffffffffffffffffffffffffffffffffffff1673ffffffffffffffffffffffffffffffffffffffff1681526020019081526020016000206001019050816001015481600101819055508160020154816002018190555081600301548160030181905550600060fb60009054906101000a900473ffffffffffffffffffffffffffffffffffffffff1673ffffffffffffffffffffffffffffffffffffffff1663294d499e6040518163ffffffff1660e01b815260040160006040518083038186803b1580156128eb57600080fd5b505afa1580156128ff573d6000803e3d6000fd5b505050506040513d6000823e3d601f19601f820116820180604052508101906129289190614c9f565b905060008151905060005b81811015612a555784600001600084838151811061297a577f4e487b7100000000000000000000000000000000000000000000000000000000600052603260045260246000fd5b602002602001015173ffffffffffffffffffffffffffffffffffffffff1673ffffffffffffffffffffffffffffffffffffffff168152602001908152602001600020548460000160008584815181106129fc577f4e487b7100000000000000000000000000000000000000000000000000000000600052603260045260246000fd5b602002602001015173ffffffffffffffffffffffffffffffffffffffff1673ffffffffffffffffffffffffffffffffffffffff168152602001908152602001600020819055508080612a4d9061579a565b915050612933565b50505050505b505050565b600080612a6d84846116b6565b915091506000825111612aa9577f4e487b7100000000000000000000000000000000000000000000000000000000600052600160045260246000fd5b60005b8251811015612c25576000828281518110612af0577f4e487b7100000000000000000000000000000000000000000000000000000000600052603260045260246000fd5b60200260200101511415612b0357612c12565b828181518110612b3c577f4e487b7100000000000000000000000000000000000000000000000000000000600052603260045260246000fd5b602002602001015173ffffffffffffffffffffffffffffffffffffffff1663a9059cbb86848481518110612b99577f4e487b7100000000000000000000000000000000000000000000000000000000600052603260045260246000fd5b60200260200101516040518363ffffffff1660e01b8152600401612bbe92919061520d565b602060405180830381600087803b158015612bd857600080fd5b505af1158015612bec573d6000803e3d6000fd5b505050506040513d601f19601f82011682018060405250810190612c109190614db8565b505b8080612c1d9061579a565b915050612aac565b506000612c328585611c7d565b9050612c3f85828661264f565b8373ffffffffffffffffffffffffffffffffffffffff168573ffffffffffffffffffffffffffffffffffffffff167f34d58c18c6c1df2c698ccac556acea92941ca7b99d2fccf9e3ac1852d0dec36f60405160405180910390a35050505050565b600060019054906101000a900460ff1680612cc6575060008054906101000a900460ff16155b612d05576040517f08c379a0000000000000000000000000000000000000000000000000000000008152600401612cfc9061530f565b60405180910390fd5b60008060019054906101000a900460ff161590508015612d55576001600060016101000a81548160ff02191690831515021790555060016000806101000a81548160ff0219169083151502179055505b612d5d613ea2565b612d65613f7b565b8015612d865760008060016101000a81548160ff0219169083151502179055505b50565b600060019054906101000a900460ff1680612daf575060008054906101000a900460ff16155b612dee576040517f08c379a0000000000000000000000000000000000000000000000000000000008152600401612de59061530f565b60405180910390fd5b60008060019054906101000a900460ff161590508015612e3e576001600060016101000a81548160ff02191690831515021790555060016000806101000a81548160ff0219169083151502179055505b612e466140fd565b8015612e675760008060016101000a81548160ff0219169083151502179055505b50565b60008183612e789190615699565b905092915050565b6000606080600060fe60009054906101000a900473ffffffffffffffffffffffffffffffffffffffff1673ffffffffffffffffffffffffffffffffffffffff1663db3fabeb87876040518363ffffffff1660e01b8152600401612ee4929190615168565b60206040518083038186803b158015612efc57600080fd5b505afa158015612f10573d6000803e3d6000fd5b505050506040513d601f19601f82011682018060405250810190612f349190614de1565b9050600060fe60009054906101000a900473ffffffffffffffffffffffffffffffffffffffff1673ffffffffffffffffffffffffffffffffffffffff16634c90f22988886040518363ffffffff1660e01b8152600401612f95929190615168565b60206040518083038186803b158015612fad57600080fd5b505afa158015612fc1573d6000803e3d6000fd5b505050506040513d601f19601f82011682018060405250810190612fe59190614de1565b9050600060fe60009054906101000a900473ffffffffffffffffffffffffffffffffffffffff1673ffffffffffffffffffffffffffffffffffffffff1663bcbe3f2289896040518363ffffffff1660e01b8152600401613046929190615168565b60206040518083038186803b15801561305e57600080fd5b505afa158015613072573d6000803e3d6000fd5b505050506040513d601f19601f820116820180604052508101906130969190614de1565b90506000613173670de0b6b3a76400006131658560fe60009054906101000a900473ffffffffffffffffffffffffffffffffffffffff1673ffffffffffffffffffffffffffffffffffffffff166364d321b78e8e6040518363ffffffff1660e01b8152600401613107929190615168565b60206040518083038186803b15801561311f57600080fd5b505afa158015613133573d6000803e3d6000fd5b505050506040513d601f19601f820116820180604052508101906131579190614de1565b613c7890919063ffffffff16565b613c8e90919063ffffffff16565b90506131888184612e6a90919063ffffffff16565b925061330f60fb60009054906101000a900473ffffffffffffffffffffffffffffffffffffffff1673ffffffffffffffffffffffffffffffffffffffff1663d02641a08a6040518263ffffffff1660e01b81526004016131e8919061514d565b60206040518083038186803b15801561320057600080fd5b505afa158015613214573d6000803e3d6000fd5b505050506040513d601f19601f820116820180604052508101906132389190614de1565b613301670de0b6b3a764000060fe60009054906101000a900473ffffffffffffffffffffffffffffffffffffffff1673ffffffffffffffffffffffffffffffffffffffff166397ae1974878a8a6040518463ffffffff1660e01b81526004016132a39392919061542f565b60206040518083038186803b1580156132bb57600080fd5b505afa1580156132cf573d6000803e3d6000fd5b505050506040513d601f19601f820116820180604052508101906132f39190614de1565b613c7890919063ffffffff16565b613c8e90919063ffffffff16565b96508660ff60008a73ffffffffffffffffffffffffffffffffffffffff1673ffffffffffffffffffffffffffffffffffffffff168152602001908152602001600020600301541015613396576040517f08c379a000000000000000000000000000000000000000000000000000000000815260040161338d9061538f565b60405180910390fd5b8773ffffffffffffffffffffffffffffffffffffffff1663095ea7b360fc60009054906101000a900473ffffffffffffffffffffffffffffffffffffffff16896040518363ffffffff1660e01b81526004016133f392919061520d565b602060405180830381600087803b15801561340d57600080fd5b505af1158015613421573d6000803e3d6000fd5b505050506040513d601f19601f820116820180604052508101906134459190614db8565b5060fc60009054906101000a900473ffffffffffffffffffffffffffffffffffffffff1673ffffffffffffffffffffffffffffffffffffffff166343cc3946888a8c426040518563ffffffff1660e01b81526004016134a794939291906153ea565b600060405180830381600087803b1580156134c157600080fd5b505af11580156134d5573d6000803e3d6000fd5b505050506040513d6000823e3d601f19601f820116820180604052508101906134fe9190614d4c565b8097508196505050600060fe60009054906101000a900473ffffffffffffffffffffffffffffffffffffffff1673ffffffffffffffffffffffffffffffffffffffff1663db3fabeb8b8b6040518363ffffffff1660e01b8152600401613565929190615168565b60206040518083038186803b15801561357d57600080fd5b505afa158015613591573d6000803e3d6000fd5b505050506040513d601f19601f820116820180604052508101906135b59190614de1565b9050600060fe60009054906101000a900473ffffffffffffffffffffffffffffffffffffffff1673ffffffffffffffffffffffffffffffffffffffff16634c90f2298c8c6040518363ffffffff1660e01b8152600401613616929190615168565b60206040518083038186803b15801561362e57600080fd5b505afa158015613642573d6000803e3d6000fd5b505050506040513d601f19601f820116820180604052508101906136669190614de1565b9050505060008651905060008060fd60009054906101000a900473ffffffffffffffffffffffffffffffffffffffff1673ffffffffffffffffffffffffffffffffffffffff16631856d56f8d30878f6040518563ffffffff1660e01b81526004016136d494939291906151c8565b600060405180830381600087803b1580156136ee57600080fd5b505af1158015613702573d6000803e3d6000fd5b505050506040513d6000823e3d601f19601f8201168201806040525081019061372b9190614ce0565b9150915060008251905060005b818110156139075760005b828610156138f3578b8181518110613784577f4e487b7100000000000000000000000000000000000000000000000000000000600052603260045260246000fd5b602002602001015173ffffffffffffffffffffffffffffffffffffffff168583815181106137db577f4e487b7100000000000000000000000000000000000000000000000000000000600052603260045260246000fd5b602002602001015173ffffffffffffffffffffffffffffffffffffffff1614613803576138e0565b61389684838151811061383f577f4e487b7100000000000000000000000000000000000000000000000000000000600052603260045260246000fd5b60200260200101518c8381518110613880577f4e487b7100000000000000000000000000000000000000000000000000000000600052603260045260246000fd5b602002602001015161263990919063ffffffff16565b8b87815181106138cf577f4e487b7100000000000000000000000000000000000000000000000000000000600052603260045260246000fd5b6020026020010181815250506138f3565b85806138eb9061579a565b965050613743565b5080806138ff9061579a565b915050613738565b5050505060005b81811015613b4d576000878281518110613951577f4e487b7100000000000000000000000000000000000000000000000000000000600052603260045260246000fd5b6020026020010151141561396457613b3a565b613a768782815181106139a0577f4e487b7100000000000000000000000000000000000000000000000000000000600052603260045260246000fd5b602002602001015160ff60008d73ffffffffffffffffffffffffffffffffffffffff1673ffffffffffffffffffffffffffffffffffffffff16815260200190815260200160002060010160008b8581518110613a25577f4e487b7100000000000000000000000000000000000000000000000000000000600052603260045260246000fd5b602002602001015173ffffffffffffffffffffffffffffffffffffffff1673ffffffffffffffffffffffffffffffffffffffff1681526020019081526020016000205461263990919063ffffffff16565b60ff60008c73ffffffffffffffffffffffffffffffffffffffff1673ffffffffffffffffffffffffffffffffffffffff16815260200190815260200160002060010160008a8481518110613af3577f4e487b7100000000000000000000000000000000000000000000000000000000600052603260045260246000fd5b602002602001015173ffffffffffffffffffffffffffffffffffffffff1673ffffffffffffffffffffffffffffffffffffffff168152602001908152602001600020819055505b8080613b459061579a565b91505061390e565b5050505050509250925092565b600060ff60008373ffffffffffffffffffffffffffffffffffffffff1673ffffffffffffffffffffffffffffffffffffffff168152602001908152602001600020600301541480613bab5750600084145b15613bb557613c72565b613bc1848484846141de565b613bcc838383614325565b613bd684826146f0565b613c2b8460ff60008473ffffffffffffffffffffffffffffffffffffffff1673ffffffffffffffffffffffffffffffffffffffff16815260200190815260200160002060030154612e6a90919063ffffffff16565b60ff60008373ffffffffffffffffffffffffffffffffffffffff1673ffffffffffffffffffffffffffffffffffffffff168152602001908152602001600020600301819055505b50505050565b60008183613c86919061563f565b905092915050565b60008183613c9c919061560e565b905092915050565b6000613cd27f360894a13ba1a3210667c828492db98dca3e2076cc3735a920a3ca505d382bbc60001b6148fe565b60000160009054906101000a900473ffffffffffffffffffffffffffffffffffffffff16905090565b613d0481614908565b613d43576040517f08c379a0000000000000000000000000000000000000000000000000000000008152600401613d3a9061532f565b60405180910390fd5b80613d707f360894a13ba1a3210667c828492db98dca3e2076cc3735a920a3ca505d382bbc60001b6148fe565b60000160006101000a81548173ffffffffffffffffffffffffffffffffffffffff021916908373ffffffffffffffffffffffffffffffffffffffff16021790555050565b6060613dbf83614908565b613dfe576040517f08c379a0000000000000000000000000000000000000000000000000000000008152600401613df59061536f565b60405180910390fd5b6000808473ffffffffffffffffffffffffffffffffffffffff1684604051613e269190615136565b600060405180830381855af49150503d8060008114613e61576040519150601f19603f3d011682016040523d82523d6000602084013e613e66565b606091505b5091509150613e8e8282604051806060016040528060278152602001615b5c6027913961491b565b9250505092915050565b6000819050919050565b600060019054906101000a900460ff1680613ec8575060008054906101000a900460ff16155b613f07576040517f08c379a0000000000000000000000000000000000000000000000000000000008152600401613efe9061530f565b60405180910390fd5b60008060019054906101000a900460ff161590508015613f57576001600060016101000a81548160ff02191690831515021790555060016000806101000a81548160ff0219169083151502179055505b8015613f785760008060016101000a81548160ff0219169083151502179055505b50565b600060019054906101000a900460ff1680613fa1575060008054906101000a900460ff16155b613fe0576040517f08c379a0000000000000000000000000000000000000000000000000000000008152600401613fd79061530f565b60405180910390fd5b60008060019054906101000a900460ff161590508015614030576001600060016101000a81548160ff02191690831515021790555060016000806101000a81548160ff0219169083151502179055505b600061403a61258d565b905080609760006101000a81548173ffffffffffffffffffffffffffffffffffffffff021916908373ffffffffffffffffffffffffffffffffffffffff1602179055508073ffffffffffffffffffffffffffffffffffffffff16600073ffffffffffffffffffffffffffffffffffffffff167f8be0079c531659141344cd1fd0a4f28419497f9722a3daafe3b4186f6b6457e060405160405180910390a35080156140fa5760008060016101000a81548160ff0219169083151502179055505b50565b600060019054906101000a900460ff1680614123575060008054906101000a900460ff16155b614162576040517f08c379a00000000000000000000000000000000000000000000000000000000081526004016141599061530f565b60405180910390fd5b60008060019054906101000a900460ff1615905080156141b2576001600060016101000a81548160ff02191690831515021790555060016000806101000a81548160ff0219169083151502179055505b600160c98190555080156141db5760008060016101000a81548160ff0219169083151502179055505b50565b600060ff60008373ffffffffffffffffffffffffffffffffffffffff1673ffffffffffffffffffffffffffffffffffffffff1681526020019081526020016000209050806003015485111561425c577f4e487b7100000000000000000000000000000000000000000000000000000000600052600160045260246000fd5b806003015485141561428457633b9aca0081600801819055506000816009018190555061431e565b60006142b382600901546142a5633b9aca0089613c7890919063ffffffff16565b612e6a90919063ffffffff16565b90506142df60016142d1846003015484613c8e90919063ffffffff16565b61263990919063ffffffff16565b82600801819055506143148161430684600301548560080154613c7890919063ffffffff16565b612e6a90919063ffffffff16565b8260090181905550505b5050505050565b600060ff60008373ffffffffffffffffffffffffffffffffffffffff1673ffffffffffffffffffffffffffffffffffffffff16815260200190815260200160002090506000808551905060005b818110156146e757600061446685600a0160008a85815181106143be577f4e487b7100000000000000000000000000000000000000000000000000000000600052603260045260246000fd5b602002602001015173ffffffffffffffffffffffffffffffffffffffff1673ffffffffffffffffffffffffffffffffffffffff16815260200190815260200160002054614458633b9aca008a8681518110614442577f4e487b7100000000000000000000000000000000000000000000000000000000600052603260045260246000fd5b6020026020010151613c7890919063ffffffff16565b61263990919063ffffffff16565b905061447f856003015482613c8e90919063ffffffff16565b93506144aa61449b866003015486613c7890919063ffffffff16565b82612e6a90919063ffffffff16565b85600a0160008a85815181106144e9577f4e487b7100000000000000000000000000000000000000000000000000000000600052603260045260246000fd5b602002602001015173ffffffffffffffffffffffffffffffffffffffff1673ffffffffffffffffffffffffffffffffffffffff1681526020019081526020016000208190555060008560020160008760040160030154815260200190815260200160002060008760040160020154815260200190815260200160002060008a85815181106145a0577f4e487b7100000000000000000000000000000000000000000000000000000000600052603260045260246000fd5b602002602001015173ffffffffffffffffffffffffffffffffffffffff1673ffffffffffffffffffffffffffffffffffffffff1681526020019081526020016000205490506000614601876004016001015487613c7890919063ffffffff16565b90506000614618828461263990919063ffffffff16565b9050808860020160008a60040160030154815260200190815260200160002060008a60040160020154815260200190815260200160002060008d888151811061468a577f4e487b7100000000000000000000000000000000000000000000000000000000600052603260045260246000fd5b602002602001015173ffffffffffffffffffffffffffffffffffffffff1673ffffffffffffffffffffffffffffffffffffffff168152602001908152602001600020819055505050505080806146df9061579a565b915050614372565b50505050505050565b600060ff60008373ffffffffffffffffffffffffffffffffffffffff1673ffffffffffffffffffffffffffffffffffffffff1681526020019081526020016000209050633b9aca0081600801541115614772577f4e487b7100000000000000000000000000000000000000000000000000000000600052600160045260246000fd5b60008160040160010154905060008061479c8460080154633b9aca00612e6a90919063ffffffff16565b905060008114156147e6576147c26001856004016003015461263990919063ffffffff16565b846004016003018190555060008460040160020181905550633b9aca0091506148b3565b633b9aca00614814633b9aca006148068487613c7890919063ffffffff16565b613c8e90919063ffffffff16565b101561488657614859633b9aca0061484b633b9aca0061483d8588613c7890919063ffffffff16565b613c7890919063ffffffff16565b613c8e90919063ffffffff16565b91506148766001856004016002015461263990919063ffffffff16565b84600401600201819055506148b2565b6148af633b9aca006148a18386613c7890919063ffffffff16565b613c8e90919063ffffffff16565b91505b5b600082116148ea577f4e487b7100000000000000000000000000000000000000000000000000000000600052600160045260246000fd5b818460040160010181905550505050505050565b6000819050919050565b600080823b905060008111915050919050565b6060831561492b5782905061497b565b60008351111561493e5782518084602001fd5b816040517f08c379a0000000000000000000000000000000000000000000000000000000008152600401614972919061526d565b60405180910390fd5b9392505050565b60006149956149908461548b565b615466565b905080838252602082019050828560208602820111156149b457600080fd5b60005b858110156149e457816149ca8882614aad565b8452602084019350602083019250506001810190506149b7565b5050509392505050565b6000614a016149fc846154b7565b615466565b90508083825260208201905082856020860282011115614a2057600080fd5b60005b85811015614a505781614a368882614b7f565b845260208401935060208301925050600181019050614a23565b5050509392505050565b6000614a6d614a68846154e3565b615466565b905082815260208101848484011115614a8557600080fd5b614a90848285615727565b509392505050565b600081359050614aa781615aff565b92915050565b600081519050614abc81615aff565b92915050565b600081519050614ad181615b16565b92915050565b600082601f830112614ae857600080fd5b8151614af8848260208601614982565b91505092915050565b600082601f830112614b1257600080fd5b8151614b228482602086016149ee565b91505092915050565b600081519050614b3a81615b2d565b92915050565b600082601f830112614b5157600080fd5b8135614b61848260208601614a5a565b91505092915050565b600081359050614b7981615b44565b92915050565b600081519050614b8e81615b44565b92915050565b600060208284031215614ba657600080fd5b6000614bb484828501614a98565b91505092915050565b600060208284031215614bcf57600080fd5b6000614bdd84828501614aad565b91505092915050565b600060208284031215614bf857600080fd5b6000614c0684828501614ac2565b91505092915050565b60008060408385031215614c2257600080fd5b6000614c3085828601614a98565b9250506020614c4185828601614a98565b9150509250929050565b60008060408385031215614c5e57600080fd5b6000614c6c85828601614a98565b925050602083013567ffffffffffffffff811115614c8957600080fd5b614c9585828601614b40565b9150509250929050565b600060208284031215614cb157600080fd5b600082015167ffffffffffffffff811115614ccb57600080fd5b614cd784828501614ad7565b91505092915050565b60008060408385031215614cf357600080fd5b600083015167ffffffffffffffff811115614d0d57600080fd5b614d1985828601614ad7565b925050602083015167ffffffffffffffff811115614d3657600080fd5b614d4285828601614b01565b9150509250929050565b60008060408385031215614d5f57600080fd5b600083015167ffffffffffffffff811115614d7957600080fd5b614d8585828601614b01565b925050602083015167ffffffffffffffff811115614da257600080fd5b614dae85828601614ad7565b9150509250929050565b600060208284031215614dca57600080fd5b6000614dd884828501614b2b565b91505092915050565b600060208284031215614df357600080fd5b6000614e0184828501614b7f565b91505092915050565b60008060408385031215614e1d57600080fd5b6000614e2b85828601614b6a565b9250506020614e3c85828601614a98565b9150509250929050565b6000614e528383614e76565b60208301905092915050565b6000614e6a8383615118565b60208301905092915050565b614e7f816156cd565b82525050565b614e8e816156cd565b82525050565b6000614e9f82615534565b614ea9818561557a565b9350614eb483615514565b8060005b83811015614ee5578151614ecc8882614e46565b9750614ed783615560565b925050600181019050614eb8565b5085935050505092915050565b6000614efd8261553f565b614f07818561558b565b9350614f1283615524565b8060005b83811015614f43578151614f2a8882614e5e565b9750614f358361556d565b925050600181019050614f16565b5085935050505092915050565b6000614f5b8261554a565b614f65818561559c565b9350614f75818560208601615736565b80840191505092915050565b6000614f8c82615555565b614f9681856155a7565b9350614fa6818560208601615736565b614faf81615870565b840191505092915050565b6000614fc7602f836155a7565b9150614fd282615881565b604082019050919050565b6000614fea6026836155a7565b9150614ff5826158d0565b604082019050919050565b600061500d602d836155a7565b91506150188261591f565b604082019050919050565b60006150306002836155a7565b915061503b8261596e565b602082019050919050565b6000615053602e836155a7565b915061505e82615997565b604082019050919050565b6000615076602d836155a7565b9150615081826159e6565b604082019050919050565b60006150996020836155a7565b91506150a482615a35565b602082019050919050565b60006150bc6026836155a7565b91506150c782615a5e565b604082019050919050565b60006150df6011836155a7565b91506150ea82615aad565b602082019050919050565b6000615102601f836155a7565b915061510d82615ad6565b602082019050919050565b6151218161571d565b82525050565b6151308161571d565b82525050565b60006151428284614f50565b915081905092915050565b60006020820190506151626000830184614e85565b92915050565b600060408201905061517d6000830185614e85565b61518a6020830184614e85565b9392505050565b60006060820190506151a66000830186614e85565b6151b36020830185614e85565b6151c06040830184615127565b949350505050565b60006080820190506151dd6000830187614e85565b6151ea6020830186614e85565b6151f76040830185615127565b6152046060830184614e85565b95945050505050565b60006040820190506152226000830185614e85565b61522f6020830184615127565b9392505050565b600060408201905081810360008301526152508185614e94565b905081810360208301526152648184614ef2565b90509392505050565b600060208201905081810360008301526152878184614f81565b905092915050565b600060208201905081810360008301526152a881614fba565b9050919050565b600060208201905081810360008301526152c881614fdd565b9050919050565b600060208201905081810360008301526152e881615000565b9050919050565b6000602082019050818103600083015261530881615023565b9050919050565b6000602082019050818103600083015261532881615046565b9050919050565b6000602082019050818103600083015261534881615069565b9050919050565b600060208201905081810360008301526153688161508c565b9050919050565b60006020820190508181036000830152615388816150af565b9050919050565b600060208201905081810360008301526153a8816150d2565b9050919050565b600060208201905081810360008301526153c8816150f5565b9050919050565b60006020820190506153e46000830184615127565b92915050565b60006080820190506153ff6000830187615127565b61540c6020830186614e85565b6154196040830185614e85565b6154266060830184615127565b95945050505050565b60006060820190506154446000830186615127565b6154516020830185615127565b61545e6040830184615127565b949350505050565b6000615470615481565b905061547c8282615769565b919050565b6000604051905090565b600067ffffffffffffffff8211156154a6576154a5615841565b5b602082029050602081019050919050565b600067ffffffffffffffff8211156154d2576154d1615841565b5b602082029050602081019050919050565b600067ffffffffffffffff8211156154fe576154fd615841565b5b61550782615870565b9050602081019050919050565b6000819050602082019050919050565b6000819050602082019050919050565b600081519050919050565b600081519050919050565b600081519050919050565b600081519050919050565b6000602082019050919050565b6000602082019050919050565b600082825260208201905092915050565b600082825260208201905092915050565b600081905092915050565b600082825260208201905092915050565b60006155c38261571d565b91506155ce8361571d565b9250827fffffffffffffffffffffffffffffffffffffffffffffffffffffffffffffffff03821115615603576156026157e3565b5b828201905092915050565b60006156198261571d565b91506156248361571d565b92508261563457615633615812565b5b828204905092915050565b600061564a8261571d565b91506156558361571d565b9250817fffffffffffffffffffffffffffffffffffffffffffffffffffffffffffffffff048311821515161561568e5761568d6157e3565b5b828202905092915050565b60006156a48261571d565b91506156af8361571d565b9250828210156156c2576156c16157e3565b5b828203905092915050565b60006156d8826156fd565b9050919050565b60006156ea826156fd565b9050919050565b60008115159050919050565b600073ffffffffffffffffffffffffffffffffffffffff82169050919050565b6000819050919050565b82818337600083830152505050565b60005b83811015615754578082015181840152602081019050615739565b83811115615763576000848401525b50505050565b61577282615870565b810181811067ffffffffffffffff8211171561579157615790615841565b5b80604052505050565b60006157a58261571d565b91507fffffffffffffffffffffffffffffffffffffffffffffffffffffffffffffffff8214156157d8576157d76157e3565b5b600182019050919050565b7f4e487b7100000000000000000000000000000000000000000000000000000000600052601160045260246000fd5b7f4e487b7100000000000000000000000000000000000000000000000000000000600052601260045260246000fd5b7f4e487b7100000000000000000000000000000000000000000000000000000000600052604160045260246000fd5b6000601f19601f8301169050919050565b7f45524331393637557067726164653a207570677261646520627265616b73206660008201527f7572746865722075706772616465730000000000000000000000000000000000602082015250565b7f4f776e61626c653a206e6577206f776e657220697320746865207a65726f206160008201527f6464726573730000000000000000000000000000000000000000000000000000602082015250565b7f66784b6565706572506f6f6c3a206678546f6b656e20455243323020616c6c6f60008201527f77616e6365206e6f74206d657400000000000000000000000000000000000000602082015250565b7f4946000000000000000000000000000000000000000000000000000000000000600082015250565b7f496e697469616c697a61626c653a20636f6e747261637420697320616c72656160008201527f647920696e697469616c697a6564000000000000000000000000000000000000602082015250565b7f455243313936373a206e657720696d706c656d656e746174696f6e206973206e60008201527f6f74206120636f6e747261637400000000000000000000000000000000000000602082015250565b7f4f776e61626c653a2063616c6c6572206973206e6f7420746865206f776e6572600082015250565b7f416464726573733a2064656c65676174652063616c6c20746f206e6f6e2d636f60008201527f6e74726163740000000000000000000000000000000000000000000000000000602082015250565b7f4e6f7420656e6f756768207374616b6564000000000000000000000000000000600082015250565b7f5265656e7472616e637947756172643a207265656e7472616e742063616c6c00600082015250565b615b08816156cd565b8114615b1357600080fd5b50565b615b1f816156df565b8114615b2a57600080fd5b50565b615b36816156f1565b8114615b4157600080fd5b50565b615b4d8161571d565b8114615b5857600080fd5b5056fe416464726573733a206c6f772d6c6576656c2064656c65676174652063616c6c206661696c6564a264697066735822122004c63451e8fe11d9ef4505b14ab5d4a8956c095b898ca84dee365c77977d810664736f6c63430008030033",
  "linkReferences": {},
  "deployedLinkReferences": {}
}