{
  "_format": "hh-sol-artifact-1",
  "contractName": "fxTransformer",
  "sourceName": "contracts/Bank/fxTransformer.sol",
  "abi": [
    {
      "anonymous": false,
      "inputs": [
        {
          "indexed": false,
          "internalType": "address",
          "name": "previousAdmin",
          "type": "address"
        },
        {
          "indexed": false,
          "internalType": "address",
          "name": "newAdmin",
          "type": "address"
        }
      ],
      "name": "AdminChanged",
      "type": "event"
    },
    {
      "anonymous": false,
      "inputs": [
        {
          "indexed": true,
          "internalType": "address",
          "name": "beacon",
          "type": "address"
        }
      ],
      "name": "BeaconUpgraded",
      "type": "event"
    },
    {
      "anonymous": false,
      "inputs": [
        {
          "indexed": true,
          "internalType": "address",
          "name": "previousOwner",
          "type": "address"
        },
        {
          "indexed": true,
          "internalType": "address",
          "name": "newOwner",
          "type": "address"
        }
      ],
      "name": "OwnershipTransferred",
      "type": "event"
    },
    {
      "anonymous": false,
      "inputs": [
        {
          "indexed": true,
          "internalType": "address",
          "name": "account",
          "type": "address"
        },
        {
          "indexed": true,
          "internalType": "address",
          "name": "tokenIn",
          "type": "address"
        },
        {
          "indexed": true,
          "internalType": "address",
          "name": "tokenOut",
          "type": "address"
        },
        {
          "indexed": false,
          "internalType": "uint256",
          "name": "amountIn",
          "type": "uint256"
        },
        {
          "indexed": false,
          "internalType": "uint256",
          "name": "amountOut",
          "type": "uint256"
        }
      ],
      "name": "Transform",
      "type": "event"
    },
    {
      "anonymous": false,
      "inputs": [
        {
          "indexed": true,
          "internalType": "address",
          "name": "implementation",
          "type": "address"
        }
      ],
      "name": "Upgraded",
      "type": "event"
    },
    {
      "inputs": [],
      "name": "handleAddress",
      "outputs": [
        {
          "internalType": "address",
          "name": "",
          "type": "address"
        }
      ],
      "stateMutability": "view",
      "type": "function"
    },
    {
      "inputs": [],
      "name": "initialize",
      "outputs": [],
      "stateMutability": "nonpayable",
      "type": "function"
    },
    {
      "inputs": [],
      "name": "owner",
      "outputs": [
        {
          "internalType": "address",
          "name": "",
          "type": "address"
        }
      ],
      "stateMutability": "view",
      "type": "function"
    },
    {
      "inputs": [],
      "name": "renounceOwnership",
      "outputs": [],
      "stateMutability": "nonpayable",
      "type": "function"
    },
    {
      "inputs": [
        {
          "internalType": "uint256",
          "name": "value",
          "type": "uint256"
        }
      ],
      "name": "setFee",
      "outputs": [],
      "stateMutability": "nonpayable",
      "type": "function"
    },
    {
      "inputs": [
        {
          "internalType": "address",
          "name": "_handle",
          "type": "address"
        }
      ],
      "name": "setHandleContract",
      "outputs": [],
      "stateMutability": "nonpayable",
      "type": "function"
    },
    {
      "inputs": [
        {
          "internalType": "address",
          "name": "newOwner",
          "type": "address"
        }
      ],
      "name": "transferOwnership",
      "outputs": [],
      "stateMutability": "nonpayable",
      "type": "function"
    },
    {
      "inputs": [
        {
          "internalType": "address",
          "name": "tokenIn",
          "type": "address"
        },
        {
          "internalType": "address",
          "name": "tokenOut",
          "type": "address"
        },
        {
          "internalType": "uint256",
          "name": "amountIn",
          "type": "uint256"
        },
        {
          "internalType": "uint256",
          "name": "deadline",
          "type": "uint256"
        }
      ],
      "name": "transform",
      "outputs": [
        {
          "internalType": "uint256",
          "name": "amountOut",
          "type": "uint256"
        }
      ],
      "stateMutability": "nonpayable",
      "type": "function"
    },
    {
      "inputs": [],
      "name": "transformFeePerMille",
      "outputs": [
        {
          "internalType": "uint256",
          "name": "",
          "type": "uint256"
        }
      ],
      "stateMutability": "view",
      "type": "function"
    },
    {
      "inputs": [
        {
          "internalType": "address",
          "name": "newImplementation",
          "type": "address"
        }
      ],
      "name": "upgradeTo",
      "outputs": [],
      "stateMutability": "nonpayable",
      "type": "function"
    },
    {
      "inputs": [
        {
          "internalType": "address",
          "name": "newImplementation",
          "type": "address"
        },
        {
          "internalType": "bytes",
          "name": "data",
          "type": "bytes"
        }
      ],
      "name": "upgradeToAndCall",
      "outputs": [],
      "stateMutability": "payable",
      "type": "function"
    }
  ],
  "bytecode": "0x60a06040523060601b60805234801561001757600080fd5b5060805160601c6117e961004b600039600081816102040152818161024d01528181610a540152610a9401526117e96000f3fe60806040526004361061009c5760003560e01c8063715018a611610064578063715018a61461013f57806374bf578b146101545780638129fc1c146101865780638da5cb5b1461019b5780639b1c414f146101b9578063f2fde38b146101d95761009c565b806312bc14d0146100a15780633659cfe6146100ca5780634ba24fd0146100ec5780634f1ef2861461010c57806369fe0e2d1461011f575b600080fd5b3480156100ad57600080fd5b506100b760fc5481565b6040519081526020015b60405180910390f35b3480156100d657600080fd5b506100ea6100e53660046113cf565b6101f9565b005b3480156100f857600080fd5b506100b7610107366004611407565b6102cb565b6100ea61011a36600461144c565b610a49565b34801561012b57600080fd5b506100ea61013a36600461152b565b610b03565b34801561014b57600080fd5b506100ea610b7c565b34801561016057600080fd5b5060fb546001600160a01b03165b6040516001600160a01b0390911681526020016100c1565b34801561019257600080fd5b506100ea610bb2565b3480156101a757600080fd5b506097546001600160a01b031661016e565b3480156101c557600080fd5b506100ea6101d43660046113cf565b610c35565b3480156101e557600080fd5b506100ea6101f43660046113cf565b610ccb565b306001600160a01b037f000000000000000000000000000000000000000000000000000000000000000016141561024b5760405162461bcd60e51b8152600401610242906115aa565b60405180910390fd5b7f00000000000000000000000000000000000000000000000000000000000000006001600160a01b031661027d610d63565b6001600160a01b0316146102a35760405162461bcd60e51b8152600401610242906115f6565b6102ac81610d91565b604080516000808252602082019092526102c891839190610dbb565b50565b60fb5460405163a0f026ff60e01b81526001600160a01b038087166004830152600092879291169063a0f026ff9060240160206040518083038186803b15801561031457600080fd5b505afa158015610328573d6000803e3d6000fd5b505050506040513d601f19601f8201168201806040525081019061034c919061150b565b61038f5760405162461bcd60e51b8152602060048201526014602482015273199e151bdad95b881a5cc81b9bdd081d985b1a5960621b6044820152606401610242565b60fb5460405163a0f026ff60e01b81526001600160a01b0380881660048301528792169063a0f026ff9060240160206040518083038186803b1580156103d457600080fd5b505afa1580156103e8573d6000803e3d6000fd5b505050506040513d601f19601f8201168201806040525081019061040c919061150b565b61044f5760405162461bcd60e51b8152602060048201526014602482015273199e151bdad95b881a5cc81b9bdd081d985b1a5960621b6044820152606401610242565b83804211156104aa5760405162461bcd60e51b815260206004820152602160248201527f5472616e73616374696f6e2068617320657863656564656420646561646c696e6044820152606560f81b6064820152608401610242565b60fb546001600160a01b03166001600160a01b031663b187bd266040518163ffffffff1660e01b815260040160206040518083038186803b1580156104ee57600080fd5b505afa158015610502573d6000803e3d6000fd5b505050506040513d601f19601f82011682018060405250810190610526919061150b565b1561055c5760405162461bcd60e51b815260206004820152600660248201526514185d5cd95960d21b6044820152606401610242565b866001600160a01b0316886001600160a01b0316141561058c57634e487b7160e01b600052600160045260246000fd5b6040516370a0823160e01b8152336004820152889087906001600160a01b038316906370a082319060240160206040518083038186803b1580156105cf57600080fd5b505afa1580156105e3573d6000803e3d6000fd5b505050506040513d601f19601f820116820180604052508101906106079190611543565b10156106555760405162461bcd60e51b815260206004820152601c60248201527f496e73756666696369656e74206678546f6b656e2062616c616e6365000000006044820152606401610242565b60fb54604051630681320d60e51b81526001600160a01b038a81166004830152600092169063d02641a09060240160206040518083038186803b15801561069b57600080fd5b505afa1580156106af573d6000803e3d6000fd5b505050506040513d601f19601f820116820180604052508101906106d39190611543565b60fb54604051630681320d60e51b81526001600160a01b038d811660048301529091169063d02641a09060240160206040518083038186803b15801561071857600080fd5b505afa15801561072c573d6000803e3d6000fd5b505050506040513d601f19601f820116820180604052508101906107509190611543565b61076290670de0b6b3a76400006116e5565b61076c91906116c5565b9050670de0b6b3a7640000610781828a6116e5565b61078b91906116c5565b604051632770a7eb60e21b8152336004820152602481018a905290965089906001600160a01b03841690639dc29fac90604401600060405180830381600087803b1580156107d857600080fd5b505af11580156107ec573d6000803e3d6000fd5b5050505060fc5460001415610860576040516340c10f1960e01b8152336004820152602481018890526001600160a01b038216906340c10f1990604401600060405180830381600087803b15801561084357600080fd5b505af1158015610857573d6000803e3d6000fd5b505050506109f0565b60006103e860fc548961087391906116e5565b61087d91906116c5565b9050816001600160a01b03166340c10f1960fb60009054906101000a90046001600160a01b03166001600160a01b031663ec94578e6040518163ffffffff1660e01b815260040160206040518083038186803b1580156108dc57600080fd5b505afa1580156108f0573d6000803e3d6000fd5b505050506040513d601f19601f8201168201806040525081019061091491906113eb565b6040516001600160e01b031960e084901b1681526001600160a01b03909116600482015260248101849052604401600060405180830381600087803b15801561095c57600080fd5b505af1158015610970573d6000803e3d6000fd5b50505050816001600160a01b03166340c10f1933838b6109909190611704565b6040516001600160e01b031960e085901b1681526001600160a01b0390921660048301526024820152604401600060405180830381600087803b1580156109d657600080fd5b505af11580156109ea573d6000803e3d6000fd5b50505050505b604080518a8152602081018990526001600160a01b03808d1692908e169133917fec4966fc9d9e3961979a346f42412e9a5b04e048bf88426accad64f0b0a8a67c910160405180910390a4505050505050949350505050565b306001600160a01b037f0000000000000000000000000000000000000000000000000000000000000000161415610a925760405162461bcd60e51b8152600401610242906115aa565b7f00000000000000000000000000000000000000000000000000000000000000006001600160a01b0316610ac4610d63565b6001600160a01b031614610aea5760405162461bcd60e51b8152600401610242906115f6565b610af382610d91565b610aff82826001610dbb565b5050565b6097546001600160a01b03163314610b2d5760405162461bcd60e51b815260040161024290611690565b6103e860fc541115610b775760405162461bcd60e51b81526020600482015260136024820152720466565206d757374206265203c3d203130303606c1b6044820152606401610242565b60fc55565b6097546001600160a01b03163314610ba65760405162461bcd60e51b815260040161024290611690565b610bb06000610f06565b565b600054610100900460ff1680610bcb575060005460ff16155b610be75760405162461bcd60e51b815260040161024290611642565b600054610100900460ff16158015610c09576000805461ffff19166101011790555b610c11610f58565b610c19610fbf565b610c21611026565b80156102c8576000805461ff001916905550565b6097546001600160a01b03163314610c5f5760405162461bcd60e51b815260040161024290611690565b806001600160a01b038116610ca85760405162461bcd60e51b815260206004820152600f60248201526e496e76616c6964204164647265737360881b6044820152606401610242565b5060fb80546001600160a01b0319166001600160a01b0392909216919091179055565b6097546001600160a01b03163314610cf55760405162461bcd60e51b815260040161024290611690565b6001600160a01b038116610d5a5760405162461bcd60e51b815260206004820152602660248201527f4f776e61626c653a206e6577206f776e657220697320746865207a65726f206160448201526564647265737360d01b6064820152608401610242565b6102c881610f06565b7f360894a13ba1a3210667c828492db98dca3e2076cc3735a920a3ca505d382bbc546001600160a01b031690565b6097546001600160a01b031633146102c85760405162461bcd60e51b815260040161024290611690565b6000610dc5610d63565b9050610dd084611085565b600083511180610ddd5750815b15610dee57610dec848461112a565b505b7f4910fdfa16fed3260ed0e7147f7cc6da11a60208b5b9406d12a635614ffd9143805460ff16610eff57805460ff191660011781556040516001600160a01b0383166024820152610e6d90869060440160408051601f198184030181529190526020810180516001600160e01b0316631b2ce7f360e11b17905261112a565b50805460ff19168155610e7e610d63565b6001600160a01b0316826001600160a01b031614610ef65760405162461bcd60e51b815260206004820152602f60248201527f45524331393637557067726164653a207570677261646520627265616b73206660448201526e75727468657220757067726164657360881b6064820152608401610242565b610eff85611215565b5050505050565b609780546001600160a01b038381166001600160a01b0319831681179093556040519116919082907f8be0079c531659141344cd1fd0a4f28419497f9722a3daafe3b4186f6b6457e090600090a35050565b600054610100900460ff1680610f71575060005460ff16155b610f8d5760405162461bcd60e51b815260040161024290611642565b600054610100900460ff16158015610faf576000805461ffff19166101011790555b610fb7611255565b610c21611255565b600054610100900460ff1680610fd8575060005460ff16155b610ff45760405162461bcd60e51b815260040161024290611642565b600054610100900460ff16158015611016576000805461ffff19166101011790555b61101e611255565b610c216112bf565b600054610100900460ff168061103f575060005460ff16155b61105b5760405162461bcd60e51b815260040161024290611642565b600054610100900460ff1615801561107d576000805461ffff19166101011790555b610c2161131f565b803b6110e95760405162461bcd60e51b815260206004820152602d60248201527f455243313936373a206e657720696d706c656d656e746174696f6e206973206e60448201526c1bdd08184818dbdb9d1c9858dd609a1b6064820152608401610242565b7f360894a13ba1a3210667c828492db98dca3e2076cc3735a920a3ca505d382bbc80546001600160a01b0319166001600160a01b0392909216919091179055565b6060823b6111895760405162461bcd60e51b815260206004820152602660248201527f416464726573733a2064656c65676174652063616c6c20746f206e6f6e2d636f6044820152651b9d1c9858dd60d21b6064820152608401610242565b600080846001600160a01b0316846040516111a4919061155b565b600060405180830381855af49150503d80600081146111df576040519150601f19603f3d011682016040523d82523d6000602084013e6111e4565b606091505b509150915061120c828260405180606001604052806027815260200161178d6027913961138f565b95945050505050565b61121e81611085565b6040516001600160a01b038216907fbc7cd75a20ee27fd9adebab32041f755214dbc6bffa90cc0225b39da2e5c2d3b90600090a250565b600054610100900460ff168061126e575060005460ff16155b61128a5760405162461bcd60e51b815260040161024290611642565b600054610100900460ff16158015610c21576000805461ffff191661010117905580156102c8576000805461ff001916905550565b600054610100900460ff16806112d8575060005460ff16155b6112f45760405162461bcd60e51b815260040161024290611642565b600054610100900460ff16158015611316576000805461ffff19166101011790555b610c2133610f06565b600054610100900460ff1680611338575060005460ff16155b6113545760405162461bcd60e51b815260040161024290611642565b600054610100900460ff16158015611376576000805461ffff19166101011790555b600160c95580156102c8576000805461ff001916905550565b6060831561139e5750816113c8565b8251156113ae5782518084602001fd5b8160405162461bcd60e51b81526004016102429190611577565b9392505050565b6000602082840312156113e0578081fd5b81356113c881611777565b6000602082840312156113fc578081fd5b81516113c881611777565b6000806000806080858703121561141c578283fd5b843561142781611777565b9350602085013561143781611777565b93969395505050506040820135916060013590565b6000806040838503121561145e578182fd5b823561146981611777565b9150602083013567ffffffffffffffff80821115611485578283fd5b818501915085601f830112611498578283fd5b8135818111156114aa576114aa611761565b604051601f8201601f19908116603f011681019083821181831017156114d2576114d2611761565b816040528281528860208487010111156114ea578586fd5b82602086016020830137856020848301015280955050505050509250929050565b60006020828403121561151c578081fd5b815180151581146113c8578182fd5b60006020828403121561153c578081fd5b5035919050565b600060208284031215611554578081fd5b5051919050565b6000825161156d81846020870161171b565b9190910192915050565b600060208252825180602084015261159681604085016020870161171b565b601f01601f19169190910160400192915050565b6020808252602c908201527f46756e6374696f6e206d7573742062652063616c6c6564207468726f7567682060408201526b19195b1959d85d1958d85b1b60a21b606082015260800190565b6020808252602c908201527f46756e6374696f6e206d7573742062652063616c6c6564207468726f7567682060408201526b6163746976652070726f787960a01b606082015260800190565b6020808252602e908201527f496e697469616c697a61626c653a20636f6e747261637420697320616c72656160408201526d191e481a5b9a5d1a585b1a5e995960921b606082015260800190565b6020808252818101527f4f776e61626c653a2063616c6c6572206973206e6f7420746865206f776e6572604082015260600190565b6000826116e057634e487b7160e01b81526012600452602481fd5b500490565b60008160001904831182151516156116ff576116ff61174b565b500290565b6000828210156117165761171661174b565b500390565b60005b8381101561173657818101518382015260200161171e565b83811115611745576000848401525b50505050565b634e487b7160e01b600052601160045260246000fd5b634e487b7160e01b600052604160045260246000fd5b6001600160a01b03811681146102c857600080fdfe416464726573733a206c6f772d6c6576656c2064656c65676174652063616c6c206661696c6564a26469706673582212200b1bc61213a917182d0ad840ce4cde19d58fd6eec89405967b75d583ac974ce264736f6c63430008030033",
  "linkReferences": {},
  "deployedLinkReferences": {}
}