{
  "_format": "hh-sol-artifact-1",
  "contractName": "GovernanceLock",
  "sourceName": "contracts/governance/GovernanceLock.sol",
  "abi": [
    {
      "anonymous": false,
      "inputs": [
        {
          "indexed": false,
          "internalType": "address",
          "name": "previousAdmin",
          "type": "address"
        },
        {
          "indexed": false,
          "internalType": "address",
          "name": "newAdmin",
          "type": "address"
        }
      ],
      "name": "AdminChanged",
      "type": "event"
    },
    {
      "anonymous": false,
      "inputs": [
        {
          "indexed": true,
          "internalType": "address",
          "name": "beacon",
          "type": "address"
        }
      ],
      "name": "BeaconUpgraded",
      "type": "event"
    },
    {
      "anonymous": false,
      "inputs": [
        {
          "indexed": true,
          "internalType": "address",
          "name": "depositor",
          "type": "address"
        },
        {
          "indexed": false,
          "internalType": "uint256",
          "name": "value",
          "type": "uint256"
        },
        {
          "indexed": true,
          "internalType": "uint256",
          "name": "locktime",
          "type": "uint256"
        },
        {
          "indexed": false,
          "internalType": "enum GovernanceLock.DepositType",
          "name": "depositType",
          "type": "uint8"
        },
        {
          "indexed": false,
          "internalType": "uint256",
          "name": "ts",
          "type": "uint256"
        }
      ],
      "name": "Deposit",
      "type": "event"
    },
    {
      "anonymous": false,
      "inputs": [
        {
          "indexed": true,
          "internalType": "address",
          "name": "previousOwner",
          "type": "address"
        },
        {
          "indexed": true,
          "internalType": "address",
          "name": "newOwner",
          "type": "address"
        }
      ],
      "name": "OwnershipTransferred",
      "type": "event"
    },
    {
      "anonymous": false,
      "inputs": [
        {
          "indexed": false,
          "internalType": "uint256",
          "name": "previousSupply",
          "type": "uint256"
        },
        {
          "indexed": false,
          "internalType": "uint256",
          "name": "supply",
          "type": "uint256"
        }
      ],
      "name": "Supply",
      "type": "event"
    },
    {
      "anonymous": false,
      "inputs": [
        {
          "indexed": true,
          "internalType": "address",
          "name": "implementation",
          "type": "address"
        }
      ],
      "name": "Upgraded",
      "type": "event"
    },
    {
      "anonymous": false,
      "inputs": [
        {
          "indexed": true,
          "internalType": "address",
          "name": "depositor",
          "type": "address"
        },
        {
          "indexed": false,
          "internalType": "uint256",
          "name": "value",
          "type": "uint256"
        },
        {
          "indexed": false,
          "internalType": "uint256",
          "name": "ts",
          "type": "uint256"
        }
      ],
      "name": "Withdraw",
      "type": "event"
    },
    {
      "inputs": [],
      "name": "MAX_TIME",
      "outputs": [
        {
          "internalType": "int128",
          "name": "",
          "type": "int128"
        }
      ],
      "stateMutability": "view",
      "type": "function"
    },
    {
      "inputs": [],
      "name": "REWARD_POOL_ALIAS",
      "outputs": [
        {
          "internalType": "bytes32",
          "name": "",
          "type": "bytes32"
        }
      ],
      "stateMutability": "view",
      "type": "function"
    },
    {
      "inputs": [
        {
          "internalType": "address",
          "name": "account",
          "type": "address"
        }
      ],
      "name": "balanceOf",
      "outputs": [
        {
          "internalType": "uint256",
          "name": "",
          "type": "uint256"
        }
      ],
      "stateMutability": "view",
      "type": "function"
    },
    {
      "inputs": [],
      "name": "checkpoint",
      "outputs": [],
      "stateMutability": "nonpayable",
      "type": "function"
    },
    {
      "inputs": [
        {
          "internalType": "uint256",
          "name": "value",
          "type": "uint256"
        },
        {
          "internalType": "uint256",
          "name": "unlockTime",
          "type": "uint256"
        }
      ],
      "name": "createLock",
      "outputs": [],
      "stateMutability": "nonpayable",
      "type": "function"
    },
    {
      "inputs": [
        {
          "internalType": "address",
          "name": "account",
          "type": "address"
        },
        {
          "internalType": "uint256",
          "name": "value",
          "type": "uint256"
        }
      ],
      "name": "depositFor",
      "outputs": [],
      "stateMutability": "nonpayable",
      "type": "function"
    },
    {
      "inputs": [],
      "name": "epoch",
      "outputs": [
        {
          "internalType": "uint256",
          "name": "",
          "type": "uint256"
        }
      ],
      "stateMutability": "view",
      "type": "function"
    },
    {
      "inputs": [
        {
          "internalType": "address",
          "name": "account",
          "type": "address"
        }
      ],
      "name": "getLastUserSlope",
      "outputs": [
        {
          "internalType": "int128",
          "name": "",
          "type": "int128"
        }
      ],
      "stateMutability": "view",
      "type": "function"
    },
    {
      "inputs": [
        {
          "internalType": "uint256",
          "name": "value",
          "type": "uint256"
        }
      ],
      "name": "increaseAmount",
      "outputs": [],
      "stateMutability": "nonpayable",
      "type": "function"
    },
    {
      "inputs": [
        {
          "internalType": "uint256",
          "name": "unlockTime",
          "type": "uint256"
        }
      ],
      "name": "increaseUnlockTime",
      "outputs": [],
      "stateMutability": "nonpayable",
      "type": "function"
    },
    {
      "inputs": [
        {
          "internalType": "address",
          "name": "tokenAddress",
          "type": "address"
        },
        {
          "internalType": "address",
          "name": "rewardPoolAddress",
          "type": "address"
        }
      ],
      "name": "initialize",
      "outputs": [],
      "stateMutability": "nonpayable",
      "type": "function"
    },
    {
      "inputs": [],
      "name": "isWhitelistEnabled",
      "outputs": [
        {
          "internalType": "bool",
          "name": "",
          "type": "bool"
        }
      ],
      "stateMutability": "view",
      "type": "function"
    },
    {
      "inputs": [
        {
          "internalType": "address",
          "name": "",
          "type": "address"
        }
      ],
      "name": "locked",
      "outputs": [
        {
          "internalType": "int128",
          "name": "amount",
          "type": "int128"
        },
        {
          "internalType": "uint256",
          "name": "end",
          "type": "uint256"
        }
      ],
      "stateMutability": "view",
      "type": "function"
    },
    {
      "inputs": [
        {
          "internalType": "address",
          "name": "account",
          "type": "address"
        }
      ],
      "name": "lockedEnd",
      "outputs": [
        {
          "internalType": "uint256",
          "name": "",
          "type": "uint256"
        }
      ],
      "stateMutability": "view",
      "type": "function"
    },
    {
      "inputs": [],
      "name": "owner",
      "outputs": [
        {
          "internalType": "address",
          "name": "",
          "type": "address"
        }
      ],
      "stateMutability": "view",
      "type": "function"
    },
    {
      "inputs": [
        {
          "internalType": "uint256",
          "name": "",
          "type": "uint256"
        }
      ],
      "name": "pointHistory",
      "outputs": [
        {
          "internalType": "int128",
          "name": "bias",
          "type": "int128"
        },
        {
          "internalType": "int128",
          "name": "slope",
          "type": "int128"
        },
        {
          "internalType": "uint256",
          "name": "ts",
          "type": "uint256"
        },
        {
          "internalType": "uint256",
          "name": "blk",
          "type": "uint256"
        }
      ],
      "stateMutability": "view",
      "type": "function"
    },
    {
      "inputs": [],
      "name": "renounceOwnership",
      "outputs": [],
      "stateMutability": "nonpayable",
      "type": "function"
    },
    {
      "inputs": [],
      "name": "rewardPool",
      "outputs": [
        {
          "internalType": "contract IRewardPool",
          "name": "",
          "type": "address"
        }
      ],
      "stateMutability": "view",
      "type": "function"
    },
    {
      "inputs": [
        {
          "internalType": "address",
          "name": "contractAddress",
          "type": "address"
        },
        {
          "internalType": "bool",
          "name": "isWhitelisted",
          "type": "bool"
        }
      ],
      "name": "setContractWhitelist",
      "outputs": [],
      "stateMutability": "nonpayable",
      "type": "function"
    },
    {
      "inputs": [
        {
          "internalType": "bool",
          "name": "isEnabled",
          "type": "bool"
        }
      ],
      "name": "setWhitelistEnabled",
      "outputs": [],
      "stateMutability": "nonpayable",
      "type": "function"
    },
    {
      "inputs": [
        {
          "internalType": "uint256",
          "name": "",
          "type": "uint256"
        }
      ],
      "name": "slopeChanges",
      "outputs": [
        {
          "internalType": "int128",
          "name": "",
          "type": "int128"
        }
      ],
      "stateMutability": "view",
      "type": "function"
    },
    {
      "inputs": [],
      "name": "supply",
      "outputs": [
        {
          "internalType": "uint256",
          "name": "",
          "type": "uint256"
        }
      ],
      "stateMutability": "view",
      "type": "function"
    },
    {
      "inputs": [],
      "name": "token",
      "outputs": [
        {
          "internalType": "address",
          "name": "",
          "type": "address"
        }
      ],
      "stateMutability": "view",
      "type": "function"
    },
    {
      "inputs": [],
      "name": "totalSupply",
      "outputs": [
        {
          "internalType": "uint256",
          "name": "",
          "type": "uint256"
        }
      ],
      "stateMutability": "view",
      "type": "function"
    },
    {
      "inputs": [
        {
          "internalType": "address",
          "name": "newOwner",
          "type": "address"
        }
      ],
      "name": "transferOwnership",
      "outputs": [],
      "stateMutability": "nonpayable",
      "type": "function"
    },
    {
      "inputs": [
        {
          "internalType": "address",
          "name": "newImplementation",
          "type": "address"
        }
      ],
      "name": "upgradeTo",
      "outputs": [],
      "stateMutability": "nonpayable",
      "type": "function"
    },
    {
      "inputs": [
        {
          "internalType": "address",
          "name": "newImplementation",
          "type": "address"
        },
        {
          "internalType": "bytes",
          "name": "data",
          "type": "bytes"
        }
      ],
      "name": "upgradeToAndCall",
      "outputs": [],
      "stateMutability": "payable",
      "type": "function"
    },
    {
      "inputs": [
        {
          "internalType": "address",
          "name": "",
          "type": "address"
        }
      ],
      "name": "userPointEpoch",
      "outputs": [
        {
          "internalType": "uint256",
          "name": "",
          "type": "uint256"
        }
      ],
      "stateMutability": "view",
      "type": "function"
    },
    {
      "inputs": [
        {
          "internalType": "address",
          "name": "",
          "type": "address"
        },
        {
          "internalType": "uint256",
          "name": "",
          "type": "uint256"
        }
      ],
      "name": "userPointHistory",
      "outputs": [
        {
          "internalType": "int128",
          "name": "bias",
          "type": "int128"
        },
        {
          "internalType": "int128",
          "name": "slope",
          "type": "int128"
        },
        {
          "internalType": "uint256",
          "name": "ts",
          "type": "uint256"
        },
        {
          "internalType": "uint256",
          "name": "blk",
          "type": "uint256"
        }
      ],
      "stateMutability": "view",
      "type": "function"
    },
    {
      "inputs": [
        {
          "internalType": "address",
          "name": "account",
          "type": "address"
        },
        {
          "internalType": "uint256",
          "name": "idx",
          "type": "uint256"
        }
      ],
      "name": "userPointHistoryTs",
      "outputs": [
        {
          "internalType": "uint256",
          "name": "",
          "type": "uint256"
        }
      ],
      "stateMutability": "view",
      "type": "function"
    },
    {
      "inputs": [
        {
          "internalType": "address",
          "name": "",
          "type": "address"
        }
      ],
      "name": "whitelistedContracts",
      "outputs": [
        {
          "internalType": "bool",
          "name": "",
          "type": "bool"
        }
      ],
      "stateMutability": "view",
      "type": "function"
    },
    {
      "inputs": [],
      "name": "withdraw",
      "outputs": [],
      "stateMutability": "nonpayable",
      "type": "function"
    }
  ],
  "bytecode": "0x60a06040523060601b60805234801561001757600080fd5b5060805160601c612eb961004b600039600081816109fe01528181610a3e01528181610d360152610d760152612eb96000f3fe6080604052600436106101e35760003560e01c8063715018a611610102578063cb8514dd11610095578063f3a6d60811610064578063f3a6d6081461067b578063f52a36f7146106d0578063fc0c546a14610701578063fd772ae614610721576101e3565b8063cb8514dd1461058b578063cbf9fe5f146105bf578063eac6a66714610614578063f2fde38b1461065b576101e3565b80638da5cb5b116100d15780638da5cb5b14610522578063900cf0cf14610540578063b52c05fe14610556578063c2c4c5c114610576576101e3565b8063715018a6146104745780637c616fe61461048957806381fc83bb146104a95780638ad4c447146104d7576101e3565b80633659cfe61161017a5780634deafcae116101495780634deafcae146103e35780634f1ef2861461040357806366666aa91461041657806370a0823114610454576101e3565b80633659cfe61461035d578063391feebb1461037d5780633ccfd60b146103ae578063485cc955146103c3576101e3565b8063184d69ab116101b6578063184d69ab1461026857806326949984146102935780632f4f21e2146102be57806334d901a4146102de576101e3565b8063047fc9aa146101e8578063052d9e7e1461021157806315456eba1461023357806318160ddd14610253575b600080fd5b3480156101f457600080fd5b506101fe60fc5481565b6040519081526020015b60405180910390f35b34801561021d57600080fd5b5061023161022c366004612973565b610741565b005b34801561023f57600080fd5b5061023161024e3660046129d8565b610788565b34801561025f57600080fd5b506101fe6108c4565b34801561027457600080fd5b50610104546102839060ff1681565b6040519015158152602001610208565b34801561029f57600080fd5b506102ab630784ce0081565b604051600f9190910b8152602001610208565b3480156102ca57600080fd5b506102316102d936600461294a565b610929565b3480156102ea57600080fd5b506103356102f936600461294a565b610100602090815260009283526040808420909152908252902080546001820154600290920154600f82810b93600160801b909304900b919084565b60408051600f95860b81529390940b6020840152928201526060810191909152608001610208565b34801561036957600080fd5b5061023161037836600461280b565b6109f3565b34801561038957600080fd5b5061028361039836600461280b565b6101036020526000908152604090205460ff1681565b3480156103ba57600080fd5b50610231610abc565b3480156103cf57600080fd5b506102316103de366004612825565b610c3e565b3480156103ef57600080fd5b506101fe6103fe36600461280b565b610d09565b61023161041136600461288d565b610d2b565b34801561042257600080fd5b506101045461043c9061010090046001600160a01b031681565b6040516001600160a01b039091168152602001610208565b34801561046057600080fd5b506101fe61046f36600461280b565b610de1565b34801561048057600080fd5b50610231610ec4565b34801561049557600080fd5b506102316104a43660046129d8565b610efa565b3480156104b557600080fd5b506101fe6104c436600461280b565b6101016020526000908152604090205481565b3480156104e357600080fd5b506103356104f23660046129d8565b60ff60205260009081526040902080546001820154600290920154600f82810b93600160801b909304900b919084565b34801561052e57600080fd5b506097546001600160a01b031661043c565b34801561054c57600080fd5b506101fe60fe5481565b34801561056257600080fd5b50610231610571366004612a08565b6110e4565b34801561058257600080fd5b506102316112a1565b34801561059757600080fd5b506101fe7f7e290e6ad41d75e265cc79a2623160be753008a967854a2f059120823696b9e881565b3480156105cb57600080fd5b506105fa6105da36600461280b565b60fd6020526000908152604090208054600190910154600f9190910b9082565b60408051600f9390930b8352602083019190915201610208565b34801561062057600080fd5b506101fe61062f36600461294a565b6001600160a01b0391909116600090815261010060209081526040808320938352929052206001015490565b34801561066757600080fd5b5061023161067636600461280b565b6112c1565b34801561068757600080fd5b506102ab61069636600461280b565b6001600160a01b0316600090815261010160209081526040808320546101008352818420908452909152902054600160801b9004600f0b90565b3480156106dc57600080fd5b506102ab6106eb3660046129d8565b61010260205260009081526040902054600f0b81565b34801561070d57600080fd5b5060fb5461043c906001600160a01b031681565b34801561072d57600080fd5b5061023161073c366004612857565b611359565b6097546001600160a01b031633146107745760405162461bcd60e51b815260040161076b90612b8c565b60405180910390fd5b610104805460ff1916911515919091179055565b6101045460ff16158061079a5750333b155b806107b55750336000908152610103602052604090205460ff165b6107d15760405162461bcd60e51b815260040161076b90612a78565b33600090815260fd60205260409020816107fb57634e487b7160e01b600052600160045260246000fd5b80546000600f91820b90910b136108475760405162461bcd60e51b815260206004820152601060248201526f4e6f206578697374696e67206c6f636b60801b604482015260640161076b565b4281600101541161088d5760405162461bcd60e51b815260206004820152601060248201526f131bd8dac81a185cc8195e1c1a5c995960821b604482015260640161076b565b604080518082019091528154600f90810b810b900b8152600182015460208201526108c0903390849060009060026113af565b5050565b60fe54600090815260ff6020908152604080832081516080810183528154600f81810b810b810b8352600160801b909104810b810b900b9381019390935260018101549183019190915260028101546060830152906109239042611506565b91505090565b6001600160a01b038216600090815260fd602052604090208161095c57634e487b7160e01b600052600160045260246000fd5b80546000600f91820b90910b1361098357634e487b7160e01b600052600160045260246000fd5b428160010154116109a457634e487b7160e01b600052600160045260246000fd5b6001600160a01b038316600090815260fd6020908152604080832081518083019092528054600f90810b810b900b825260010154918101919091526109ee918591859190816113af565b505050565b306001600160a01b037f0000000000000000000000000000000000000000000000000000000000000000161415610a3c5760405162461bcd60e51b815260040161076b90612aa6565b7f00000000000000000000000000000000000000000000000000000000000000006001600160a01b0316610a6e611610565b6001600160a01b031614610a945760405162461bcd60e51b815260040161076b90612af2565b610a9d8161163e565b60408051600080825260208201909252610ab991839190611668565b50565b33600090815260fd602052604090206001810154421015610b185760405162461bcd60e51b8152602060048201526016602482015275546865206c6f636b206469646e27742065787069726560501b604482015260640161076b565b805460408051808201909152600f82810b80820b90910b82526001840180546020840152600090556001600160801b0319909216835560fc546001600160801b0390921691610b678382612dae565b60fc55604080518082019091528454600f90810b810b900b815260018501546020820152610b9890339084906117b3565b60fb54610baf906001600160a01b03163385611e81565b610bba336000611ee4565b6040805184815242602082015233917ff279e6a1f5e320cca91135676d9cb6e44ca8a08c0b88342bcdb1144f6511b568910160405180910390a27f5e2aa66efd74cce82b21852e317e5490d9ecc9e6bb953ae24d90851258cc2f5c81610c208582612dae565b6040805192835260208301919091520160405180910390a150505050565b600054610100900460ff1680610c57575060005460ff16155b610c735760405162461bcd60e51b815260040161076b90612b3e565b600054610100900460ff16158015610c95576000805461ffff19166101011790555b610c9d6120ce565b610ca5612149565b610cad6121b0565b60fb80546001600160a01b0319166001600160a01b038581169190911790915561010480546001600160a81b0319166101009285169290920260ff191691909117600117905580156109ee576000805461ff0019169055505050565b6001600160a01b038116600090815260fd60205260409020600101545b919050565b306001600160a01b037f0000000000000000000000000000000000000000000000000000000000000000161415610d745760405162461bcd60e51b815260040161076b90612aa6565b7f00000000000000000000000000000000000000000000000000000000000000006001600160a01b0316610da6611610565b6001600160a01b031614610dcc5760405162461bcd60e51b815260040161076b90612af2565b610dd58261163e565b6108c082826001611668565b6001600160a01b0381166000908152610101602052604081205480610e0a576000915050610d26565b6001600160a01b03831660009081526101006020908152604080832084845282529182902082516080810184528154600f81810b810b810b8352600160801b909104810b810b900b92810192909252600181015492820183905260020154606082015290610e789042612dae565b8160200151610e879190612caf565b81518290610e96908390612d5f565b600f90810b810b90915282516000910b12159050610eb357600081525b516001600160801b03169392505050565b6097546001600160a01b03163314610eee5760405162461bcd60e51b815260040161076b90612b8c565b610ef8600061220f565b565b6101045460ff161580610f0c5750333b155b80610f275750336000908152610103602052604090205460ff165b610f435760405162461bcd60e51b815260040161076b90612a78565b33600090815260fd60205260409020610f5f62093a8083612c9b565b610f6c9062093a80612d40565b915042816001015411610fb45760405162461bcd60e51b815260206004820152601060248201526f131bd8dac81a185cc8195e1c1a5c995960821b604482015260640161076b565b80546000600f91820b90910b136110015760405162461bcd60e51b8152602060048201526011602482015270139bdd1a1a5b99c81a5cc81b1bd8dad959607a1b604482015260640161076b565b806001015482116110545760405162461bcd60e51b815260206004820152601f60248201527f43616e206f6e6c7920696e637265617365206c6f636b206475726174696f6e00604482015260640161076b565b611062630784ce0042612c45565b8211156110b15760405162461bcd60e51b815260206004820152601a60248201527f4c6f636b206d757374206e6f74206265203e2034207965617273000000000000604482015260640161076b565b604080518082019091528154600f90810b810b900b8152600182015460208201526108c0903390600090859060036113af565b6101045460ff1615806110f65750333b155b806111115750336000908152610103602052604090205460ff165b61112d5760405162461bcd60e51b815260040161076b90612a78565b61113a62093a8082612c9b565b6111479062093a80612d40565b33600090815260fd602090815260409182902082518084019093528054600f90810b810b900b835260010154908201529091508261119557634e487b7160e01b600052600160045260246000fd5b8051600f0b156111e75760405162461bcd60e51b815260206004820152601960248201527f5769746864726177206f6c6420746f6b656e7320666972737400000000000000604482015260640161076b565b4282116112365760405162461bcd60e51b815260206004820152601960248201527f4d75737420756e6c6f636b20696e207468652066757475726500000000000000604482015260640161076b565b611244630784ce0042612c45565b8211156112935760405162461bcd60e51b815260206004820152601a60248201527f4c6f636b206d757374206e6f74206265203e2034207965617273000000000000604482015260640161076b565b6109ee3384848460016113af565b6040805180820190915260008082526020820152610ab9600082836117b3565b6097546001600160a01b031633146112eb5760405162461bcd60e51b815260040161076b90612b8c565b6001600160a01b0381166113505760405162461bcd60e51b815260206004820152602660248201527f4f776e61626c653a206e6577206f776e657220697320746865207a65726f206160448201526564647265737360d01b606482015260840161076b565b610ab98161220f565b6097546001600160a01b031633146113835760405162461bcd60e51b815260040161076b90612b8c565b6001600160a01b0391909116600090815261010360205260409020805460ff1916911515919091179055565b60fc5482906113be8682612c45565b60fc5581518290879082906113d4908390612bf7565b600f90810b900b90525085156113ec57602083018690525b6001600160a01b038816600090815260fd6020908152604090912084518154600f9190910b6001600160801b03166001600160801b03199091161781559084015160019091015561143e8882856117b3565b861561145c5760fb5461145c906001600160a01b031689308a612261565b61146e886114698a610de1565b611ee4565b8260200151886001600160a01b03167fbe9cf0e939c614fad640a623a53ba0a807c8cb503c4c4c8dacabe27b86ff2dd58987426040516114b093929190612bc1565b60405180910390a37f5e2aa66efd74cce82b21852e317e5490d9ecc9e6bb953ae24d90851258cc2f5c826114e48982612c45565b6040805192835260208301919091520160405180910390a15050505050505050565b60008062093a80846040015161151c9190612c9b565b6115299062093a80612d40565b905060005b60ff8110156115e85761154462093a8083612c45565b91506000848311156115585784925061156d565b5060008281526101026020526040902054600f0b5b604086015161157c9084612dae565b866020015161158b9190612caf565b8651879061159a908390612d5f565b600f90810b900b905250828514156115b257506115e8565b80866020018181516115c49190612bf7565b600f90810b900b9052505060408501829052806115e081612df1565b91505061152e565b5060008460000151600f0b12156115fe57600084525b505090516001600160801b0316919050565b7f360894a13ba1a3210667c828492db98dca3e2076cc3735a920a3ca505d382bbc546001600160a01b031690565b6097546001600160a01b03163314610ab95760405162461bcd60e51b815260040161076b90612b8c565b6000611672611610565b905061167d84612299565b60008351118061168a5750815b1561169b57611699848461233e565b505b7f4910fdfa16fed3260ed0e7147f7cc6da11a60208b5b9406d12a635614ffd9143805460ff166117ac57805460ff191660011781556040516001600160a01b038316602482015261171a90869060440160408051601f198184030181529190526020810180516001600160e01b0316631b2ce7f360e11b17905261233e565b50805460ff1916815561172b611610565b6001600160a01b0316826001600160a01b0316146117a35760405162461bcd60e51b815260206004820152602f60248201527f45524331393637557067726164653a207570677261646520627265616b73206660448201526e75727468657220757067726164657360881b606482015260840161076b565b6117ac85612429565b5050505050565b60408051608081018252600080825260208201819052918101829052606081019190915260408051608081018252600080825260208201819052918101829052606081019190915260fe5460009081906001600160a01b0388161561193a5742876020015111801561182c575060008760000151600f0b135b1561187957865161184290630784ce0090612c5d565b600f90810b900b602080870191909152870151611860904290612dae565b856020015161186f9190612caf565b600f90810b900b85525b428660200151118015611893575060008660000151600f0b135b156118e05785516118a990630784ce0090612c5d565b600f90810b900b6020808601919091528601516118c7904290612dae565b84602001516118d69190612caf565b600f90810b900b84525b60208088015160009081526101028252604090205490870151600f9190910b93501561193a5786602001518660200151141561191e5782915061193a565b60208087015160009081526101029091526040902054600f0b91505b60008060fe541161196c57604080516080810182526000808252602082015242918101919091524360608201526119c0565b600082815260ff602090815260409182902082516080810184528154600f81810b810b810b8352600160801b909104810b810b900b9281019290925260018101549282019290925260029091015460608201525b604081015190915081600042831015611a105760408401516119e29042612dae565b60608501516119f19043612dae565b611a0390670de0b6b3a7640000612d40565b611a0d9190612c9b565b90505b6000611a1f62093a8085612c9b565b611a2c9062093a80612d40565b905060005b60ff811015611bb857611a4762093a8083612c45565b9150600042831115611a5b57429250611a70565b5060008281526101026020526040902054600f0b5b611a7a8684612dae565b8760200151611a899190612caf565b87518890611a98908390612d5f565b600f90810b900b905250602087018051829190611ab6908390612bf7565b600f90810b810b90915288516000910b12159050611ad357600087525b60008760200151600f0b1215611aeb57600060208801525b60408088018490528501519295508592670de0b6b3a764000090611b0f9085612dae565b611b199086612d40565b611b239190612c9b565b8560600151611b329190612c45565b6060880152611b42600189612c45565b975042831415611b585750436060870152611bb8565b600088815260ff60209081526040918290208951918a0151600f90810b6001600160801b03908116600160801b029390910b1691909117815590880151600182015560608801516002909101555080611bb081612df1565b915050611a31565b505060fe8590556001600160a01b038c1615611c525788602001518860200151611be29190612d5f565b84602001818151611bf39190612bf7565b600f90810b900b90525088518851611c0b9190612d5f565b84518590611c1a908390612bf7565b600f90810b810b90915260208601516000910b12159050611c3d57600060208501525b60008460000151600f0b1215611c5257600084525b600085815260ff6020908152604091829020865191870151600f90810b6001600160801b03908116600160801b029390910b1691909117815590850151600182015560608501516002909101556001600160a01b038c1615611e7357428b602001511115611d20576020890151611cc99088612bf7565b96508a602001518a602001511415611ced576020890151611cea9088612d5f565b96505b60208b81015160009081526101029091526040902080546001600160801b0319166001600160801b03600f8a900b161790555b428a602001511115611d80578a602001518a602001511115611d80576020880151611d4b9087612d5f565b60208b81015160009081526101029091526040902080546001600160801b0319166001600160801b03600f84900b1617905595505b6001600160a01b038c1660009081526101016020526040812080548290611da690612df1565b919050819055905042896040018181525050438960600181815250508861010060008f6001600160a01b03166001600160a01b03168152602001908152602001600020600083815260200190815260200160002060008201518160000160006101000a8154816001600160801b030219169083600f0b6001600160801b0316021790555060208201518160000160106101000a8154816001600160801b030219169083600f0b6001600160801b031602179055506040820151816001015560608201518160020155905050505b505050505050505050505050565b6040516001600160a01b0383166024820152604481018290526109ee90849063a9059cbb60e01b906064015b60408051601f198184030181529190526020810180516001600160e01b03166001600160e01b031990931692909217909152612469565b6101045460405163db86b79960e01b81527f7e290e6ad41d75e265cc79a2623160be753008a967854a2f059120823696b9e8600482015260009182916101009091046001600160a01b03169063db86b79990602401604080518083038186803b158015611f5057600080fd5b505afa158015611f64573d6000803e3d6000fd5b505050506040513d601f19601f82011682018060405250810190611f8891906129ab565b9150915081611f985750506108c0565b6101045460405163515e335f60e11b81526001600160a01b0386811660048301526000196024830152604482018490526101009092049091169063a2bc66be90606401602060405180830381600087803b158015611ff557600080fd5b505af1158015612009573d6000803e3d6000fd5b505050506040513d601f19601f8201168201806040525081019061202d91906129f0565b5082156120c85761010454604051630c51b88f60e01b81526001600160a01b038681166004830152602482018690526044820184905261010090920490911690630c51b88f90606401602060405180830381600087803b15801561209057600080fd5b505af11580156120a4573d6000803e3d6000fd5b505050506040513d601f19601f820116820180604052508101906117ac91906129f0565b50505050565b600054610100900460ff16806120e7575060005460ff16155b6121035760405162461bcd60e51b815260040161076b90612b3e565b600054610100900460ff16158015612125576000805461ffff19166101011790555b61212d61253b565b61213561253b565b8015610ab9576000805461ff001916905550565b600054610100900460ff1680612162575060005460ff16155b61217e5760405162461bcd60e51b815260040161076b90612b3e565b600054610100900460ff161580156121a0576000805461ffff19166101011790555b6121a861253b565b6121356125a5565b600054610100900460ff16806121c9575060005460ff16155b6121e55760405162461bcd60e51b815260040161076b90612b3e565b600054610100900460ff16158015612207576000805461ffff19166101011790555b612135612605565b609780546001600160a01b038381166001600160a01b0319831681179093556040519116919082907f8be0079c531659141344cd1fd0a4f28419497f9722a3daafe3b4186f6b6457e090600090a35050565b6040516001600160a01b03808516602483015283166044820152606481018290526120c89085906323b872dd60e01b90608401611ead565b803b6122fd5760405162461bcd60e51b815260206004820152602d60248201527f455243313936373a206e657720696d706c656d656e746174696f6e206973206e60448201526c1bdd08184818dbdb9d1c9858dd609a1b606482015260840161076b565b7f360894a13ba1a3210667c828492db98dca3e2076cc3735a920a3ca505d382bbc80546001600160a01b0319166001600160a01b0392909216919091179055565b6060823b61239d5760405162461bcd60e51b815260206004820152602660248201527f416464726573733a2064656c65676174652063616c6c20746f206e6f6e2d636f6044820152651b9d1c9858dd60d21b606482015260840161076b565b600080846001600160a01b0316846040516123b89190612a29565b600060405180830381855af49150503d80600081146123f3576040519150601f19603f3d011682016040523d82523d6000602084013e6123f8565b606091505b50915091506124208282604051806060016040528060278152602001612e5d60279139612675565b95945050505050565b61243281612299565b6040516001600160a01b038216907fbc7cd75a20ee27fd9adebab32041f755214dbc6bffa90cc0225b39da2e5c2d3b90600090a250565b60006124be826040518060400160405280602081526020017f5361666545524332303a206c6f772d6c6576656c2063616c6c206661696c6564815250856001600160a01b03166126b59092919063ffffffff16565b8051909150156109ee57808060200190518101906124dc919061298f565b6109ee5760405162461bcd60e51b815260206004820152602a60248201527f5361666545524332303a204552433230206f7065726174696f6e20646964206e6044820152691bdd081cdd58d8d9595960b21b606482015260840161076b565b600054610100900460ff1680612554575060005460ff16155b6125705760405162461bcd60e51b815260040161076b90612b3e565b600054610100900460ff16158015612135576000805461ffff19166101011790558015610ab9576000805461ff001916905550565b600054610100900460ff16806125be575060005460ff16155b6125da5760405162461bcd60e51b815260040161076b90612b3e565b600054610100900460ff161580156125fc576000805461ffff19166101011790555b6121353361220f565b600054610100900460ff168061261e575060005460ff16155b61263a5760405162461bcd60e51b815260040161076b90612b3e565b600054610100900460ff1615801561265c576000805461ffff19166101011790555b600160c9558015610ab9576000805461ff001916905550565b606083156126845750816126ae565b8251156126945782518084602001fd5b8160405162461bcd60e51b815260040161076b9190612a45565b9392505050565b60606126c484846000856126cc565b949350505050565b60608247101561272d5760405162461bcd60e51b815260206004820152602660248201527f416464726573733a20696e73756666696369656e742062616c616e636520666f6044820152651c8818d85b1b60d21b606482015260840161076b565b843b61277b5760405162461bcd60e51b815260206004820152601d60248201527f416464726573733a2063616c6c20746f206e6f6e2d636f6e7472616374000000604482015260640161076b565b600080866001600160a01b031685876040516127979190612a29565b60006040518083038185875af1925050503d80600081146127d4576040519150601f19603f3d011682016040523d82523d6000602084013e6127d9565b606091505b50915091506127e9828286612675565b979650505050505050565b80356001600160a01b0381168114610d2657600080fd5b60006020828403121561281c578081fd5b6126ae826127f4565b60008060408385031215612837578081fd5b612840836127f4565b915061284e602084016127f4565b90509250929050565b60008060408385031215612869578182fd5b612872836127f4565b9150602083013561288281612e4e565b809150509250929050565b6000806040838503121561289f578182fd5b6128a8836127f4565b9150602083013567ffffffffffffffff808211156128c4578283fd5b818501915085601f8301126128d7578283fd5b8135818111156128e9576128e9612e38565b604051601f8201601f19908116603f0116810190838211818310171561291157612911612e38565b81604052828152886020848701011115612929578586fd5b82602086016020830137856020848301015280955050505050509250929050565b6000806040838503121561295c578182fd5b612965836127f4565b946020939093013593505050565b600060208284031215612984578081fd5b81356126ae81612e4e565b6000602082840312156129a0578081fd5b81516126ae81612e4e565b600080604083850312156129bd578182fd5b82516129c881612e4e565b6020939093015192949293505050565b6000602082840312156129e9578081fd5b5035919050565b600060208284031215612a01578081fd5b5051919050565b60008060408385031215612a1a578182fd5b50508035926020909101359150565b60008251612a3b818460208701612dc5565b9190910192915050565b6000602082528251806020840152612a64816040850160208701612dc5565b601f01601f19169190910160400192915050565b60208082526014908201527310dbdb9d1c9858dd081b9bdd08185b1b1bddd95960621b604082015260600190565b6020808252602c908201527f46756e6374696f6e206d7573742062652063616c6c6564207468726f7567682060408201526b19195b1959d85d1958d85b1b60a21b606082015260800190565b6020808252602c908201527f46756e6374696f6e206d7573742062652063616c6c6564207468726f7567682060408201526b6163746976652070726f787960a01b606082015260800190565b6020808252602e908201527f496e697469616c697a61626c653a20636f6e747261637420697320616c72656160408201526d191e481a5b9a5d1a585b1a5e995960921b606082015260800190565b6020808252818101527f4f776e61626c653a2063616c6c6572206973206e6f7420746865206f776e6572604082015260600190565b8381526060810160048410612be657634e487b7160e01b600052602160045260246000fd5b602082019390935260400152919050565b600081600f0b83600f0b8282128260016001607f1b0303821381151615612c2057612c20612e0c565b8260016001607f1b0319038212811615612c3c57612c3c612e0c565b50019392505050565b60008219821115612c5857612c58612e0c565b500190565b600081600f0b83600f0b80612c7457612c74612e22565b60016001607f1b0319821460001982141615612c9257612c92612e0c565b90059392505050565b600082612caa57612caa612e22565b500490565b600081600f0b83600f0b60016001607f1b0383821384841383830485118282161615612cdd57612cdd612e0c565b60016001607f1b031986851282811687830587121615612cff57612cff612e0c565b878712925085820587128484161615612d1a57612d1a612e0c565b85850587128184161615612d3057612d30612e0c565b5050509290910295945050505050565b6000816000190483118215151615612d5a57612d5a612e0c565b500290565b600081600f0b83600f0b8281128160016001607f1b031901831281151615612d8957612d89612e0c565b8160016001607f1b03018313811615612da457612da4612e0c565b5090039392505050565b600082821015612dc057612dc0612e0c565b500390565b60005b83811015612de0578181015183820152602001612dc8565b838111156120c85750506000910152565b6000600019821415612e0557612e05612e0c565b5060010190565b634e487b7160e01b600052601160045260246000fd5b634e487b7160e01b600052601260045260246000fd5b634e487b7160e01b600052604160045260246000fd5b8015158114610ab957600080fdfe416464726573733a206c6f772d6c6576656c2064656c65676174652063616c6c206661696c6564a2646970667358221220b7f846ff0c487a3b587b3bfb18de56977ddd6df44a8d580229d721b59398f18d64736f6c63430008030033",
  "linkReferences": {},
  "deployedLinkReferences": {}
}