{
  "_format": "hh-sol-artifact-1",
  "contractName": "Handle",
  "sourceName": "contracts/Bank/Handle.sol",
  "abi": [
    {
      "anonymous": false,
      "inputs": [
        {
          "indexed": false,
          "internalType": "address",
          "name": "previousAdmin",
          "type": "address"
        },
        {
          "indexed": false,
          "internalType": "address",
          "name": "newAdmin",
          "type": "address"
        }
      ],
      "name": "AdminChanged",
      "type": "event"
    },
    {
      "anonymous": false,
      "inputs": [
        {
          "indexed": true,
          "internalType": "address",
          "name": "beacon",
          "type": "address"
        }
      ],
      "name": "BeaconUpgraded",
      "type": "event"
    },
    {
      "anonymous": false,
      "inputs": [
        {
          "indexed": true,
          "internalType": "address",
          "name": "collateralToken",
          "type": "address"
        }
      ],
      "name": "ConfigureCollateralToken",
      "type": "event"
    },
    {
      "anonymous": false,
      "inputs": [
        {
          "indexed": true,
          "internalType": "address",
          "name": "fxToken",
          "type": "address"
        }
      ],
      "name": "ConfigureFxToken",
      "type": "event"
    },
    {
      "anonymous": false,
      "inputs": [
        {
          "indexed": true,
          "internalType": "bytes32",
          "name": "role",
          "type": "bytes32"
        },
        {
          "indexed": true,
          "internalType": "bytes32",
          "name": "previousAdminRole",
          "type": "bytes32"
        },
        {
          "indexed": true,
          "internalType": "bytes32",
          "name": "newAdminRole",
          "type": "bytes32"
        }
      ],
      "name": "RoleAdminChanged",
      "type": "event"
    },
    {
      "anonymous": false,
      "inputs": [
        {
          "indexed": true,
          "internalType": "bytes32",
          "name": "role",
          "type": "bytes32"
        },
        {
          "indexed": true,
          "internalType": "address",
          "name": "account",
          "type": "address"
        },
        {
          "indexed": true,
          "internalType": "address",
          "name": "sender",
          "type": "address"
        }
      ],
      "name": "RoleGranted",
      "type": "event"
    },
    {
      "anonymous": false,
      "inputs": [
        {
          "indexed": true,
          "internalType": "bytes32",
          "name": "role",
          "type": "bytes32"
        },
        {
          "indexed": true,
          "internalType": "address",
          "name": "account",
          "type": "address"
        },
        {
          "indexed": true,
          "internalType": "address",
          "name": "sender",
          "type": "address"
        }
      ],
      "name": "RoleRevoked",
      "type": "event"
    },
    {
      "anonymous": false,
      "inputs": [
        {
          "indexed": true,
          "internalType": "address",
          "name": "account",
          "type": "address"
        },
        {
          "indexed": true,
          "internalType": "address",
          "name": "fxToken",
          "type": "address"
        },
        {
          "indexed": true,
          "internalType": "address",
          "name": "collateralToken",
          "type": "address"
        }
      ],
      "name": "UpdateCollateral",
      "type": "event"
    },
    {
      "anonymous": false,
      "inputs": [
        {
          "indexed": true,
          "internalType": "address",
          "name": "account",
          "type": "address"
        },
        {
          "indexed": true,
          "internalType": "address",
          "name": "fxToken",
          "type": "address"
        }
      ],
      "name": "UpdateDebt",
      "type": "event"
    },
    {
      "anonymous": false,
      "inputs": [
        {
          "indexed": true,
          "internalType": "address",
          "name": "implementation",
          "type": "address"
        }
      ],
      "name": "Upgraded",
      "type": "event"
    },
    {
      "inputs": [],
      "name": "ADMIN_ROLE",
      "outputs": [
        {
          "internalType": "bytes32",
          "name": "",
          "type": "bytes32"
        }
      ],
      "stateMutability": "view",
      "type": "function"
    },
    {
      "inputs": [],
      "name": "DEFAULT_ADMIN_ROLE",
      "outputs": [
        {
          "internalType": "bytes32",
          "name": "",
          "type": "bytes32"
        }
      ],
      "stateMutability": "view",
      "type": "function"
    },
    {
      "inputs": [],
      "name": "FeeRecipient",
      "outputs": [
        {
          "internalType": "address",
          "name": "",
          "type": "address"
        }
      ],
      "stateMutability": "view",
      "type": "function"
    },
    {
      "inputs": [],
      "name": "OPERATOR_ROLE",
      "outputs": [
        {
          "internalType": "bytes32",
          "name": "",
          "type": "bytes32"
        }
      ],
      "stateMutability": "view",
      "type": "function"
    },
    {
      "inputs": [],
      "name": "WETH",
      "outputs": [
        {
          "internalType": "address",
          "name": "",
          "type": "address"
        }
      ],
      "stateMutability": "view",
      "type": "function"
    },
    {
      "inputs": [],
      "name": "burnFeePerMille",
      "outputs": [
        {
          "internalType": "uint256",
          "name": "",
          "type": "uint256"
        }
      ],
      "stateMutability": "view",
      "type": "function"
    },
    {
      "inputs": [
        {
          "internalType": "address",
          "name": "",
          "type": "address"
        }
      ],
      "name": "collateralDetails",
      "outputs": [
        {
          "internalType": "uint256",
          "name": "mintCR",
          "type": "uint256"
        },
        {
          "internalType": "uint256",
          "name": "liquidationFee",
          "type": "uint256"
        },
        {
          "internalType": "uint256",
          "name": "interestRate",
          "type": "uint256"
        }
      ],
      "stateMutability": "view",
      "type": "function"
    },
    {
      "inputs": [
        {
          "internalType": "uint256",
          "name": "",
          "type": "uint256"
        }
      ],
      "name": "collateralTokens",
      "outputs": [
        {
          "internalType": "address",
          "name": "",
          "type": "address"
        }
      ],
      "stateMutability": "view",
      "type": "function"
    },
    {
      "inputs": [],
      "name": "comptroller",
      "outputs": [
        {
          "internalType": "address",
          "name": "",
          "type": "address"
        }
      ],
      "stateMutability": "view",
      "type": "function"
    },
    {
      "inputs": [],
      "name": "depositFeePerMille",
      "outputs": [
        {
          "internalType": "uint256",
          "name": "",
          "type": "uint256"
        }
      ],
      "stateMutability": "view",
      "type": "function"
    },
    {
      "inputs": [],
      "name": "fxKeeperPool",
      "outputs": [
        {
          "internalType": "address",
          "name": "",
          "type": "address"
        }
      ],
      "stateMutability": "view",
      "type": "function"
    },
    {
      "inputs": [],
      "name": "getAllCollateralTypes",
      "outputs": [
        {
          "internalType": "address[]",
          "name": "collateral",
          "type": "address[]"
        }
      ],
      "stateMutability": "view",
      "type": "function"
    },
    {
      "inputs": [],
      "name": "getAllFxTokens",
      "outputs": [
        {
          "internalType": "address[]",
          "name": "tokens",
          "type": "address[]"
        }
      ],
      "stateMutability": "view",
      "type": "function"
    },
    {
      "inputs": [
        {
          "internalType": "address",
          "name": "account",
          "type": "address"
        },
        {
          "internalType": "address",
          "name": "fxToken",
          "type": "address"
        }
      ],
      "name": "getBalance",
      "outputs": [
        {
          "internalType": "address[]",
          "name": "collateral",
          "type": "address[]"
        },
        {
          "internalType": "uint256[]",
          "name": "balances",
          "type": "uint256[]"
        }
      ],
      "stateMutability": "view",
      "type": "function"
    },
    {
      "inputs": [
        {
          "internalType": "address",
          "name": "account",
          "type": "address"
        },
        {
          "internalType": "address",
          "name": "collateralType",
          "type": "address"
        },
        {
          "internalType": "address",
          "name": "fxToken",
          "type": "address"
        }
      ],
      "name": "getCollateralBalance",
      "outputs": [
        {
          "internalType": "uint256",
          "name": "balance",
          "type": "uint256"
        }
      ],
      "stateMutability": "view",
      "type": "function"
    },
    {
      "inputs": [
        {
          "internalType": "address",
          "name": "collateral",
          "type": "address"
        }
      ],
      "name": "getCollateralDetails",
      "outputs": [
        {
          "components": [
            {
              "internalType": "uint256",
              "name": "mintCR",
              "type": "uint256"
            },
            {
              "internalType": "uint256",
              "name": "liquidationFee",
              "type": "uint256"
            },
            {
              "internalType": "uint256",
              "name": "interestRate",
              "type": "uint256"
            }
          ],
          "internalType": "struct IHandle.CollateralData",
          "name": "",
          "type": "tuple"
        }
      ],
      "stateMutability": "view",
      "type": "function"
    },
    {
      "inputs": [
        {
          "internalType": "address",
          "name": "account",
          "type": "address"
        },
        {
          "internalType": "address",
          "name": "fxToken",
          "type": "address"
        },
        {
          "internalType": "address",
          "name": "collateral",
          "type": "address"
        }
      ],
      "name": "getCollateralR0",
      "outputs": [
        {
          "internalType": "uint256",
          "name": "R0",
          "type": "uint256"
        }
      ],
      "stateMutability": "view",
      "type": "function"
    },
    {
      "inputs": [
        {
          "internalType": "address",
          "name": "account",
          "type": "address"
        },
        {
          "internalType": "address",
          "name": "fxToken",
          "type": "address"
        }
      ],
      "name": "getDebt",
      "outputs": [
        {
          "internalType": "uint256",
          "name": "",
          "type": "uint256"
        }
      ],
      "stateMutability": "view",
      "type": "function"
    },
    {
      "inputs": [
        {
          "internalType": "address",
          "name": "account",
          "type": "address"
        },
        {
          "internalType": "address",
          "name": "fxToken",
          "type": "address"
        }
      ],
      "name": "getPrincipalDebt",
      "outputs": [
        {
          "internalType": "uint256",
          "name": "",
          "type": "uint256"
        }
      ],
      "stateMutability": "view",
      "type": "function"
    },
    {
      "inputs": [
        {
          "internalType": "bytes32",
          "name": "role",
          "type": "bytes32"
        }
      ],
      "name": "getRoleAdmin",
      "outputs": [
        {
          "internalType": "bytes32",
          "name": "",
          "type": "bytes32"
        }
      ],
      "stateMutability": "view",
      "type": "function"
    },
    {
      "inputs": [
        {
          "internalType": "address",
          "name": "token",
          "type": "address"
        }
      ],
      "name": "getTokenPrice",
      "outputs": [
        {
          "internalType": "uint256",
          "name": "quote",
          "type": "uint256"
        }
      ],
      "stateMutability": "view",
      "type": "function"
    },
    {
      "inputs": [
        {
          "internalType": "bytes32",
          "name": "role",
          "type": "bytes32"
        },
        {
          "internalType": "address",
          "name": "account",
          "type": "address"
        }
      ],
      "name": "grantRole",
      "outputs": [],
      "stateMutability": "nonpayable",
      "type": "function"
    },
    {
      "inputs": [
        {
          "internalType": "bytes32",
          "name": "role",
          "type": "bytes32"
        },
        {
          "internalType": "address",
          "name": "account",
          "type": "address"
        }
      ],
      "name": "hasRole",
      "outputs": [
        {
          "internalType": "bool",
          "name": "",
          "type": "bool"
        }
      ],
      "stateMutability": "view",
      "type": "function"
    },
    {
      "inputs": [
        {
          "internalType": "address",
          "name": "weth",
          "type": "address"
        }
      ],
      "name": "initialize",
      "outputs": [],
      "stateMutability": "nonpayable",
      "type": "function"
    },
    {
      "inputs": [],
      "name": "interest",
      "outputs": [
        {
          "internalType": "address",
          "name": "",
          "type": "address"
        }
      ],
      "stateMutability": "view",
      "type": "function"
    },
    {
      "inputs": [
        {
          "internalType": "address",
          "name": "",
          "type": "address"
        }
      ],
      "name": "isCollateralValid",
      "outputs": [
        {
          "internalType": "bool",
          "name": "",
          "type": "bool"
        }
      ],
      "stateMutability": "view",
      "type": "function"
    },
    {
      "inputs": [
        {
          "internalType": "address",
          "name": "",
          "type": "address"
        }
      ],
      "name": "isFxTokenValid",
      "outputs": [
        {
          "internalType": "bool",
          "name": "",
          "type": "bool"
        }
      ],
      "stateMutability": "view",
      "type": "function"
    },
    {
      "inputs": [],
      "name": "liquidator",
      "outputs": [
        {
          "internalType": "address",
          "name": "",
          "type": "address"
        }
      ],
      "stateMutability": "view",
      "type": "function"
    },
    {
      "inputs": [],
      "name": "mintFeePerMille",
      "outputs": [
        {
          "internalType": "uint256",
          "name": "",
          "type": "uint256"
        }
      ],
      "stateMutability": "view",
      "type": "function"
    },
    {
      "inputs": [
        {
          "internalType": "address",
          "name": "",
          "type": "address"
        }
      ],
      "name": "oracles",
      "outputs": [
        {
          "internalType": "address",
          "name": "",
          "type": "address"
        }
      ],
      "stateMutability": "view",
      "type": "function"
    },
    {
      "inputs": [],
      "name": "pct",
      "outputs": [
        {
          "internalType": "address",
          "name": "",
          "type": "address"
        }
      ],
      "stateMutability": "view",
      "type": "function"
    },
    {
      "inputs": [],
      "name": "pctCollateralUpperBound",
      "outputs": [
        {
          "internalType": "uint256",
          "name": "",
          "type": "uint256"
        }
      ],
      "stateMutability": "view",
      "type": "function"
    },
    {
      "inputs": [
        {
          "internalType": "address",
          "name": "token",
          "type": "address"
        }
      ],
      "name": "removeCollateralToken",
      "outputs": [],
      "stateMutability": "nonpayable",
      "type": "function"
    },
    {
      "inputs": [
        {
          "internalType": "address",
          "name": "token",
          "type": "address"
        }
      ],
      "name": "removeFxToken",
      "outputs": [],
      "stateMutability": "nonpayable",
      "type": "function"
    },
    {
      "inputs": [
        {
          "internalType": "bytes32",
          "name": "role",
          "type": "bytes32"
        },
        {
          "internalType": "address",
          "name": "account",
          "type": "address"
        }
      ],
      "name": "renounceRole",
      "outputs": [],
      "stateMutability": "nonpayable",
      "type": "function"
    },
    {
      "inputs": [
        {
          "internalType": "bytes32",
          "name": "role",
          "type": "bytes32"
        },
        {
          "internalType": "address",
          "name": "account",
          "type": "address"
        }
      ],
      "name": "revokeRole",
      "outputs": [],
      "stateMutability": "nonpayable",
      "type": "function"
    },
    {
      "inputs": [
        {
          "internalType": "address",
          "name": "_token",
          "type": "address"
        },
        {
          "internalType": "uint256",
          "name": "_mintCR",
          "type": "uint256"
        },
        {
          "internalType": "uint256",
          "name": "_liquidationFee",
          "type": "uint256"
        },
        {
          "internalType": "uint256",
          "name": "_interestRatePerMille",
          "type": "uint256"
        }
      ],
      "name": "setCollateralToken",
      "outputs": [],
      "stateMutability": "nonpayable",
      "type": "function"
    },
    {
      "inputs": [
        {
          "internalType": "uint256",
          "name": "ratio",
          "type": "uint256"
        }
      ],
      "name": "setCollateralUpperBoundPCT",
      "outputs": [],
      "stateMutability": "nonpayable",
      "type": "function"
    },
    {
      "inputs": [
        {
          "internalType": "address[]",
          "name": "components",
          "type": "address[]"
        }
      ],
      "name": "setComponents",
      "outputs": [],
      "stateMutability": "nonpayable",
      "type": "function"
    },
    {
      "inputs": [
        {
          "internalType": "address",
          "name": "feeRecipient",
          "type": "address"
        }
      ],
      "name": "setFeeRecipient",
      "outputs": [],
      "stateMutability": "nonpayable",
      "type": "function"
    },
    {
      "inputs": [
        {
          "internalType": "uint256",
          "name": "_withdrawFeePerMille",
          "type": "uint256"
        },
        {
          "internalType": "uint256",
          "name": "_depositFeePerMille",
          "type": "uint256"
        },
        {
          "internalType": "uint256",
          "name": "_mintFeePerMille",
          "type": "uint256"
        },
        {
          "internalType": "uint256",
          "name": "_burnFeePerMille",
          "type": "uint256"
        }
      ],
      "name": "setFees",
      "outputs": [],
      "stateMutability": "nonpayable",
      "type": "function"
    },
    {
      "inputs": [
        {
          "internalType": "address",
          "name": "token",
          "type": "address"
        }
      ],
      "name": "setFxToken",
      "outputs": [],
      "stateMutability": "nonpayable",
      "type": "function"
    },
    {
      "inputs": [
        {
          "internalType": "address",
          "name": "_fxToken",
          "type": "address"
        },
        {
          "internalType": "address",
          "name": "_oracle",
          "type": "address"
        }
      ],
      "name": "setOracle",
      "outputs": [],
      "stateMutability": "nonpayable",
      "type": "function"
    },
    {
      "inputs": [
        {
          "internalType": "bytes4",
          "name": "interfaceId",
          "type": "bytes4"
        }
      ],
      "name": "supportsInterface",
      "outputs": [
        {
          "internalType": "bool",
          "name": "",
          "type": "bool"
        }
      ],
      "stateMutability": "view",
      "type": "function"
    },
    {
      "inputs": [
        {
          "internalType": "address",
          "name": "",
          "type": "address"
        }
      ],
      "name": "totalBalances",
      "outputs": [
        {
          "internalType": "uint256",
          "name": "",
          "type": "uint256"
        }
      ],
      "stateMutability": "view",
      "type": "function"
    },
    {
      "inputs": [],
      "name": "treasury",
      "outputs": [
        {
          "internalType": "address payable",
          "name": "",
          "type": "address"
        }
      ],
      "stateMutability": "view",
      "type": "function"
    },
    {
      "inputs": [
        {
          "internalType": "address",
          "name": "account",
          "type": "address"
        },
        {
          "internalType": "uint256",
          "name": "amount",
          "type": "uint256"
        },
        {
          "internalType": "address",
          "name": "fxToken",
          "type": "address"
        },
        {
          "internalType": "address",
          "name": "collateralToken",
          "type": "address"
        },
        {
          "internalType": "bool",
          "name": "increase",
          "type": "bool"
        }
      ],
      "name": "updateCollateralBalance",
      "outputs": [],
      "stateMutability": "nonpayable",
      "type": "function"
    },
    {
      "inputs": [
        {
          "internalType": "address",
          "name": "account",
          "type": "address"
        },
        {
          "internalType": "uint256",
          "name": "amount",
          "type": "uint256"
        },
        {
          "internalType": "address",
          "name": "fxToken",
          "type": "address"
        },
        {
          "internalType": "bool",
          "name": "increase",
          "type": "bool"
        }
      ],
      "name": "updateDebtPosition",
      "outputs": [],
      "stateMutability": "nonpayable",
      "type": "function"
    },
    {
      "inputs": [
        {
          "internalType": "address",
          "name": "newImplementation",
          "type": "address"
        }
      ],
      "name": "upgradeTo",
      "outputs": [],
      "stateMutability": "nonpayable",
      "type": "function"
    },
    {
      "inputs": [
        {
          "internalType": "address",
          "name": "newImplementation",
          "type": "address"
        },
        {
          "internalType": "bytes",
          "name": "data",
          "type": "bytes"
        }
      ],
      "name": "upgradeToAndCall",
      "outputs": [],
      "stateMutability": "payable",
      "type": "function"
    },
    {
      "inputs": [
        {
          "internalType": "uint256",
          "name": "",
          "type": "uint256"
        }
      ],
      "name": "validFxTokens",
      "outputs": [
        {
          "internalType": "address",
          "name": "",
          "type": "address"
        }
      ],
      "stateMutability": "view",
      "type": "function"
    },
    {
      "inputs": [],
      "name": "vaultLibrary",
      "outputs": [
        {
          "internalType": "address",
          "name": "",
          "type": "address"
        }
      ],
      "stateMutability": "view",
      "type": "function"
    },
    {
      "inputs": [
        {
          "internalType": "address",
          "name": "",
          "type": "address"
        },
        {
          "internalType": "address",
          "name": "",
          "type": "address"
        }
      ],
      "name": "vaults",
      "outputs": [
        {
          "internalType": "uint256",
          "name": "debt",
          "type": "uint256"
        },
        {
          "internalType": "uint256",
          "name": "interestLastUpdateDate",
          "type": "uint256"
        }
      ],
      "stateMutability": "view",
      "type": "function"
    },
    {
      "inputs": [],
      "name": "withdrawFeePerMille",
      "outputs": [
        {
          "internalType": "uint256",
          "name": "",
          "type": "uint256"
        }
      ],
      "stateMutability": "view",
      "type": "function"
    }
  ],
  "bytecode": "0x608060405234801561001057600080fd5b50615e1280620000216000396000f3fe6080604052600436106103355760003560e01c806391d14854116101ab578063bd9e5200116100f7578063d4fac45d11610095578063e75fd0b51161006f578063e75fd0b514610cb9578063eb0a8b9114610ce4578063ec94578e14610d0f578063f5b541a614610d3a57610335565b8063d4fac45d14610c29578063d547741f14610c67578063e74b981b14610c9057610335565b8063c4d66de8116100d1578063c4d66de814610b6f578063cf07947d14610b98578063d02641a014610bc1578063d1601f1314610bfe57610335565b8063bd9e520014610aca578063c392f76614610b07578063c462b52014610b3257610335565b8063a217fddf11610164578063abd3da5e1161013e578063abd3da5e146109e8578063ad5c464814610a25578063addd509914610a50578063aee9c87214610a8d57610335565b8063a217fddf14610957578063a300733d14610982578063a364c972146109bf57610335565b806391d148541461083357806394f9059f146108705780639931286d146108995780639cfd9669146108c45780639df5138a146108ef578063a0f026ff1461091a57610335565b80634046ebae116102855780635fe3b5671161022357806373240993116101fd578063732409931461077957806375b238fc146107a2578063803c97b3146107cd578063877034f11461080a57610335565b80635fe3b567146106fa57806361d027b3146107255780636fcba3771461075057610335565b80634d635e701161025f5780634d635e701461064e5780634f1ef2861461068c5780635c38eb3a146106a85780635eb0ac1a146106d157610335565b80634046ebae146105bb57806341e3f281146105e6578063498b5ae81461061157610335565b8063294d499e116102f257806331695c4e116102cc57806331695c4e146104ed57806336568abe1461052a5780633659cfe61461055357806338df2ff31461057c57610335565b8063294d499e146104705780632b4557591461049b5780632f2ff15d146104c457610335565b806301964f361461033a57806301ffc9a714610365578063172c48c7146103a2578063181e20a7146103df578063248a9ca31461040857806327ab02b914610445575b600080fd5b34801561034657600080fd5b5061034f610d65565b60405161035c919061557c565b60405180910390f35b34801561037157600080fd5b5061038c60048036038101906103879190614d43565b610d6c565b6040516103999190615369565b60405180910390f35b3480156103ae57600080fd5b506103c960048036038101906103c49190614d6c565b610de6565b6040516103d691906152b1565b60405180910390f35b3480156103eb57600080fd5b5061040660048036038101906104019190614af4565b610e25565b005b34801561041457600080fd5b5061042f600480360381019061042a9190614cde565b6111ad565b60405161043c9190615384565b60405180910390f35b34801561045157600080fd5b5061045a6111cd565b60405161046791906152b1565b60405180910390f35b34801561047c57600080fd5b506104856111f4565b6040516104929190615310565b60405180910390f35b3480156104a757600080fd5b506104c260048036038101906104bd91906149ec565b611282565b005b3480156104d057600080fd5b506104eb60048036038101906104e69190614d07565b611787565b005b3480156104f957600080fd5b50610514600480360381019061050f9190614a51565b6117b0565b604051610521919061557c565b60405180910390f35b34801561053657600080fd5b50610551600480360381019061054c9190614d07565b611879565b005b34801561055f57600080fd5b5061057a600480360381019061057591906149ec565b6118fc565b005b34801561058857600080fd5b506105a3600480360381019061059e91906149ec565b611923565b6040516105b2939291906155c0565b60405180910390f35b3480156105c757600080fd5b506105d061194d565b6040516105dd91906152b1565b60405180910390f35b3480156105f257600080fd5b506105fb611974565b604051610608919061557c565b60405180910390f35b34801561061d57600080fd5b5061063860048036038101906106339190614a15565b61197b565b604051610645919061557c565b60405180910390f35b34801561065a57600080fd5b5061067560048036038101906106709190614a15565b611ad0565b604051610683929190615597565b60405180910390f35b6106a660048036038101906106a19190614aa0565b611b02565b005b3480156106b457600080fd5b506106cf60048036038101906106ca9190614a15565b611b1b565b005b3480156106dd57600080fd5b506106f860048036038101906106f39190614c31565b611caf565b005b34801561070657600080fd5b5061070f612261565b60405161071c91906152b1565b60405180910390f35b34801561073157600080fd5b5061073a612288565b60405161074791906152cc565b60405180910390f35b34801561075c57600080fd5b5061077760048036038101906107729190614dbe565b6122af565b005b34801561078557600080fd5b506107a0600480360381019061079b9190614bce565b612306565b005b3480156107ae57600080fd5b506107b761258b565b6040516107c49190615384565b60405180910390f35b3480156107d957600080fd5b506107f460048036038101906107ef91906149ec565b6125af565b6040516108019190615369565b60405180910390f35b34801561081657600080fd5b50610831600480360381019061082c9190614b6b565b6125cf565b005b34801561083f57600080fd5b5061085a60048036038101906108559190614d07565b6127e9565b6040516108679190615369565b60405180910390f35b34801561087c57600080fd5b50610897600480360381019061089291906149ec565b612854565b005b3480156108a557600080fd5b506108ae612971565b6040516108bb919061557c565b60405180910390f35b3480156108d057600080fd5b506108d9612978565b6040516108e691906152b1565b60405180910390f35b3480156108fb57600080fd5b5061090461299f565b604051610911919061557c565b60405180910390f35b34801561092657600080fd5b50610941600480360381019061093c91906149ec565b6129a6565b60405161094e9190615369565b60405180910390f35b34801561096357600080fd5b5061096c6129c7565b6040516109799190615384565b60405180910390f35b34801561098e57600080fd5b506109a960048036038101906109a49190614a15565b6129ce565b6040516109b6919061557c565b60405180910390f35b3480156109cb57600080fd5b506109e660048036038101906109e19190614d6c565b612a59565b005b3480156109f457600080fd5b50610a0f6004803603810190610a0a9190614d6c565b612a95565b604051610a1c91906152b1565b60405180910390f35b348015610a3157600080fd5b50610a3a612ad4565b604051610a4791906152b1565b60405180910390f35b348015610a5c57600080fd5b50610a776004803603810190610a7291906149ec565b612afb565b604051610a8491906152b1565b60405180910390f35b348015610a9957600080fd5b50610ab46004803603810190610aaf91906149ec565b612b2f565b604051610ac1919061557c565b60405180910390f35b348015610ad657600080fd5b50610af16004803603810190610aec91906149ec565b612b47565b604051610afe9190615561565b60405180910390f35b348015610b1357600080fd5b50610b1c612bbe565b604051610b2991906152b1565b60405180910390f35b348015610b3e57600080fd5b50610b596004803603810190610b549190614a51565b612be5565b604051610b66919061557c565b60405180910390f35b348015610b7b57600080fd5b50610b966004803603810190610b9191906149ec565b612cae565b005b348015610ba457600080fd5b50610bbf6004803603810190610bba91906149ec565b612e46565b005b348015610bcd57600080fd5b50610be86004803603810190610be391906149ec565b612fd2565b604051610bf5919061557c565b60405180910390f35b348015610c0a57600080fd5b50610c1361323f565b604051610c209190615310565b60405180910390f35b348015610c3557600080fd5b50610c506004803603810190610c4b9190614a15565b6132cd565b604051610c5e929190615332565b60405180910390f35b348015610c7357600080fd5b50610c8e6004803603810190610c899190614d07565b6134c1565b005b348015610c9c57600080fd5b50610cb76004803603810190610cb291906149ec565b6134ea565b005b348015610cc557600080fd5b50610cce6135d2565b604051610cdb919061557c565b60405180910390f35b348015610cf057600080fd5b50610cf96135d9565b604051610d0691906152b1565b60405180910390f35b348015610d1b57600080fd5b50610d24613600565b604051610d3191906152b1565b60405180910390f35b348015610d4657600080fd5b50610d4f613627565b604051610d5c9190615384565b60405180910390f35b6101025481565b60007f7965db0b000000000000000000000000000000000000000000000000000000007bffffffffffffffffffffffffffffffffffffffffffffffffffffffff1916827bffffffffffffffffffffffffffffffffffffffffffffffffffffffff19161480610ddf5750610dde8261364b565b5b9050919050565b60fb8181548110610df657600080fd5b906000526020600020016000915054906101000a900473ffffffffffffffffffffffffffffffffffffffff1681565b610e4f7f97667070c54ef182b0f5858b034beac1b6f3089aa2d3188bb1e8929f4fa9b929336127e9565b610e8e576040517f08c379a0000000000000000000000000000000000000000000000000000000008152600401610e8590615401565b60405180910390fd5b600061010160008773ffffffffffffffffffffffffffffffffffffffff1673ffffffffffffffffffffffffffffffffffffffff16815260200190815260200160002060008573ffffffffffffffffffffffffffffffffffffffff1673ffffffffffffffffffffffffffffffffffffffff16815260200190815260200160002060000160008473ffffffffffffffffffffffffffffffffffffffff1673ffffffffffffffffffffffffffffffffffffffff16815260200190815260200160002054905081610f6d57610f6885826136b590919063ffffffff16565b610f81565b610f8085826136cb90919063ffffffff16565b5b61010160008873ffffffffffffffffffffffffffffffffffffffff1673ffffffffffffffffffffffffffffffffffffffff16815260200190815260200160002060008673ffffffffffffffffffffffffffffffffffffffff1673ffffffffffffffffffffffffffffffffffffffff16815260200190815260200160002060000160008573ffffffffffffffffffffffffffffffffffffffff1673ffffffffffffffffffffffffffffffffffffffff168152602001908152602001600020819055508161109e576110998560fe60008673ffffffffffffffffffffffffffffffffffffffff1673ffffffffffffffffffffffffffffffffffffffff168152602001908152602001600020546136b590919063ffffffff16565b6110f1565b6110f08560fe60008673ffffffffffffffffffffffffffffffffffffffff1673ffffffffffffffffffffffffffffffffffffffff168152602001908152602001600020546136cb90919063ffffffff16565b5b60fe60008573ffffffffffffffffffffffffffffffffffffffff1673ffffffffffffffffffffffffffffffffffffffff168152602001908152602001600020819055508273ffffffffffffffffffffffffffffffffffffffff168473ffffffffffffffffffffffffffffffffffffffff168773ffffffffffffffffffffffffffffffffffffffff167f2027a0219b5bbff94e3a2050ec5c3ab5fafaaffe9c131dd57d2366b04423eff360405160405180910390a4505050505050565b600060c96000838152602001908152602001600020600101549050919050565b61010d60009054906101000a900473ffffffffffffffffffffffffffffffffffffffff1681565b606060fb80548060200260200160405190810160405280929190818152602001828054801561127857602002820191906000526020600020905b8160009054906101000a900473ffffffffffffffffffffffffffffffffffffffff1673ffffffffffffffffffffffffffffffffffffffff168152602001906001019080831161122e575b5050505050905090565b6112b37fa49807205ce4d355092ef5a8a18f56e8913cf4a201fbe287825b095693c217756112ae6136e1565b6136e9565b8061010060008273ffffffffffffffffffffffffffffffffffffffff1673ffffffffffffffffffffffffffffffffffffffff16815260200190815260200160002060009054906101000a900460ff16611341576040517f08c379a000000000000000000000000000000000000000000000000000000000815260040161133890615461565b60405180910390fd5b61010060008373ffffffffffffffffffffffffffffffffffffffff1673ffffffffffffffffffffffffffffffffffffffff16815260200190815260200160002060009054906101000a900460ff1661139857611783565b600060ff80549050905060005b81811015611460578373ffffffffffffffffffffffffffffffffffffffff1660ff82815481106113fe577f4e487b7100000000000000000000000000000000000000000000000000000000600052603260045260246000fd5b9060005260206000200160009054906101000a900473ffffffffffffffffffffffffffffffffffffffff1673ffffffffffffffffffffffffffffffffffffffff16141561144d57809150611460565b808061145890615965565b9150506113a5565b5060ff80549050811061149c577f4e487b7100000000000000000000000000000000000000000000000000000000600052600160045260246000fd5b61010060008473ffffffffffffffffffffffffffffffffffffffff1673ffffffffffffffffffffffffffffffffffffffff16815260200190815260200160002060006101000a81549060ff0219169055600160ff805490506114fe9190615804565b8110156116d65760ff818154811061153f577f4e487b7100000000000000000000000000000000000000000000000000000000600052603260045260246000fd5b9060005260206000200160006101000a81549073ffffffffffffffffffffffffffffffffffffffff021916905560ff600160ff805490506115809190615804565b815481106115b7577f4e487b7100000000000000000000000000000000000000000000000000000000600052603260045260246000fd5b9060005260206000200160009054906101000a900473ffffffffffffffffffffffffffffffffffffffff1660ff828154811061161c577f4e487b7100000000000000000000000000000000000000000000000000000000600052603260045260246000fd5b9060005260206000200160006101000a81548173ffffffffffffffffffffffffffffffffffffffff021916908373ffffffffffffffffffffffffffffffffffffffff16021790555060ff80548061169c577f4e487b7100000000000000000000000000000000000000000000000000000000600052603160045260246000fd5b6001900381819060005260206000200160006101000a81549073ffffffffffffffffffffffffffffffffffffffff0219169055905561173e565b60ff8181548110611710577f4e487b7100000000000000000000000000000000000000000000000000000000600052603260045260246000fd5b9060005260206000200160006101000a81549073ffffffffffffffffffffffffffffffffffffffff02191690555b8273ffffffffffffffffffffffffffffffffffffffff167f1b56f46855aea33f90246d19ad4ae4f347ee3e4e01fa69f2f44856e1fb1462b160405160405180910390a2505b5050565b611790826111ad565b6117a18161179c6136e1565b6136e9565b6117ab8383613786565b505050565b600061010160008573ffffffffffffffffffffffffffffffffffffffff1673ffffffffffffffffffffffffffffffffffffffff16815260200190815260200160002060008473ffffffffffffffffffffffffffffffffffffffff1673ffffffffffffffffffffffffffffffffffffffff16815260200190815260200160002060030160008373ffffffffffffffffffffffffffffffffffffffff1673ffffffffffffffffffffffffffffffffffffffff1681526020019081526020016000205490509392505050565b6118816136e1565b73ffffffffffffffffffffffffffffffffffffffff168173ffffffffffffffffffffffffffffffffffffffff16146118ee576040517f08c379a00000000000000000000000000000000000000000000000000000000081526004016118e590615541565b60405180910390fd5b6118f88282613867565b5050565b61190581613949565b6119208160405180602001604052806000815250600061397d565b50565b60fd6020528060005260406000206000915090508060000154908060010154908060020154905083565b61010f60009054906101000a900473ffffffffffffffffffffffffffffffffffffffff1681565b6101055481565b60008061010160008573ffffffffffffffffffffffffffffffffffffffff1673ffffffffffffffffffffffffffffffffffffffff16815260200190815260200160002060008473ffffffffffffffffffffffffffffffffffffffff1673ffffffffffffffffffffffffffffffffffffffff168152602001908152602001600020600101549050600061010c60009054906101000a900473ffffffffffffffffffffffffffffffffffffffff1673ffffffffffffffffffffffffffffffffffffffff16638709294086866040518363ffffffff1660e01b8152600401611a619291906152e7565b60206040518083038186803b158015611a7957600080fd5b505afa158015611a8d573d6000803e3d6000fd5b505050506040513d601f19601f82011682018060405250810190611ab19190614d95565b9050611ac681836136cb90919063ffffffff16565b9250505092915050565b610101602052816000526040600020602052806000526040600020600091509150508060010154908060020154905082565b611b0b82613949565b611b178282600161397d565b5050565b611b4c7fa49807205ce4d355092ef5a8a18f56e8913cf4a201fbe287825b095693c21775611b476136e1565b6136e9565b600073ffffffffffffffffffffffffffffffffffffffff168273ffffffffffffffffffffffffffffffffffffffff161415611bbc576040517f08c379a0000000000000000000000000000000000000000000000000000000008152600401611bb390615441565b60405180910390fd5b600073ffffffffffffffffffffffffffffffffffffffff168173ffffffffffffffffffffffffffffffffffffffff161415611c2c576040517f08c379a0000000000000000000000000000000000000000000000000000000008152600401611c2390615441565b60405180910390fd5b8061010960008473ffffffffffffffffffffffffffffffffffffffff1673ffffffffffffffffffffffffffffffffffffffff16815260200190815260200160002060006101000a81548173ffffffffffffffffffffffffffffffffffffffff021916908373ffffffffffffffffffffffffffffffffffffffff1602179055505050565b611ce07fa49807205ce4d355092ef5a8a18f56e8913cf4a201fbe287825b095693c21775611cdb6136e1565b6136e9565b60008151905060005b81811015611db457600073ffffffffffffffffffffffffffffffffffffffff16838281518110611d42577f4e487b7100000000000000000000000000000000000000000000000000000000600052603260045260246000fd5b602002602001015173ffffffffffffffffffffffffffffffffffffffff161415611da1576040517f08c379a0000000000000000000000000000000000000000000000000000000008152600401611d98906153e1565b60405180910390fd5b8080611dac90615965565b915050611ce9565b5081600081518110611def577f4e487b7100000000000000000000000000000000000000000000000000000000600052603260045260246000fd5b602002602001015161010a60006101000a81548173ffffffffffffffffffffffffffffffffffffffff021916908373ffffffffffffffffffffffffffffffffffffffff16021790555081600181518110611e72577f4e487b7100000000000000000000000000000000000000000000000000000000600052603260045260246000fd5b602002602001015161010b60006101000a81548173ffffffffffffffffffffffffffffffffffffffff021916908373ffffffffffffffffffffffffffffffffffffffff16021790555081600281518110611ef5577f4e487b7100000000000000000000000000000000000000000000000000000000600052603260045260246000fd5b602002602001015161010c60006101000a81548173ffffffffffffffffffffffffffffffffffffffff021916908373ffffffffffffffffffffffffffffffffffffffff16021790555081600381518110611f78577f4e487b7100000000000000000000000000000000000000000000000000000000600052603260045260246000fd5b602002602001015161010d60006101000a81548173ffffffffffffffffffffffffffffffffffffffff021916908373ffffffffffffffffffffffffffffffffffffffff16021790555081600481518110611ffb577f4e487b7100000000000000000000000000000000000000000000000000000000600052603260045260246000fd5b602002602001015161010e60006101000a81548173ffffffffffffffffffffffffffffffffffffffff021916908373ffffffffffffffffffffffffffffffffffffffff1602179055508160058151811061207e577f4e487b7100000000000000000000000000000000000000000000000000000000600052603260045260246000fd5b602002602001015161010f60006101000a81548173ffffffffffffffffffffffffffffffffffffffff021916908373ffffffffffffffffffffffffffffffffffffffff16021790555081600681518110612101577f4e487b7100000000000000000000000000000000000000000000000000000000600052603260045260246000fd5b602002602001015161011060006101000a81548173ffffffffffffffffffffffffffffffffffffffff021916908373ffffffffffffffffffffffffffffffffffffffff16021790555060005b600781101561225c5760028114806121655750600381145b1561216f57612249565b6121d97f97667070c54ef182b0f5858b034beac1b6f3089aa2d3188bb1e8929f4fa9b9298483815181106121cc577f4e487b7100000000000000000000000000000000000000000000000000000000600052603260045260246000fd5b60200260200101516127e9565b612248576122477f97667070c54ef182b0f5858b034beac1b6f3089aa2d3188bb1e8929f4fa9b92984838151811061223a577f4e487b7100000000000000000000000000000000000000000000000000000000600052603260045260246000fd5b6020026020010151611787565b5b5b808061225490615965565b91505061214d565b505050565b61010b60009054906101000a900473ffffffffffffffffffffffffffffffffffffffff1681565b61010a60009054906101000a900473ffffffffffffffffffffffffffffffffffffffff1681565b6122e07fa49807205ce4d355092ef5a8a18f56e8913cf4a201fbe287825b095693c217756122db6136e1565b6136e9565b836101058190555082610106819055508061010481905550816101038190555050505050565b6123377fa49807205ce4d355092ef5a8a18f56e8913cf4a201fbe287825b095693c217756123326136e1565b6136e9565b60fc60008573ffffffffffffffffffffffffffffffffffffffff1673ffffffffffffffffffffffffffffffffffffffff16815260200190815260200160002060009054906101000a900460ff166124445760fb849080600181540180825580915050600190039060005260206000200160009091909190916101000a81548173ffffffffffffffffffffffffffffffffffffffff021916908373ffffffffffffffffffffffffffffffffffffffff160217905550600160fc60008673ffffffffffffffffffffffffffffffffffffffff1673ffffffffffffffffffffffffffffffffffffffff16815260200190815260200160002060006101000a81548160ff0219169083151502179055505b61011060009054906101000a900473ffffffffffffffffffffffffffffffffffffffff1673ffffffffffffffffffffffffffffffffffffffff1663551619136040518163ffffffff1660e01b8152600401600060405180830381600087803b1580156124af57600080fd5b505af11580156124c3573d6000803e3d6000fd5b5050505060405180606001604052808481526020018381526020018281525060fd60008673ffffffffffffffffffffffffffffffffffffffff1673ffffffffffffffffffffffffffffffffffffffff1681526020019081526020016000206000820151816000015560208201518160010155604082015181600201559050508373ffffffffffffffffffffffffffffffffffffffff167f38bfbff5a2ab4e85e1292bfc75e2e0b39855907deca3889448ce609117c8530f60405160405180910390a250505050565b7fa49807205ce4d355092ef5a8a18f56e8913cf4a201fbe287825b095693c2177581565b60fc6020528060005260406000206000915054906101000a900460ff1681565b6125f97f97667070c54ef182b0f5858b034beac1b6f3089aa2d3188bb1e8929f4fa9b929336127e9565b612638576040517f08c379a000000000000000000000000000000000000000000000000000000000815260040161262f90615401565b60405180910390fd5b61011060009054906101000a900473ffffffffffffffffffffffffffffffffffffffff1673ffffffffffffffffffffffffffffffffffffffff1663551619136040518163ffffffff1660e01b8152600401600060405180830381600087803b1580156126a357600080fd5b505af11580156126b7573d6000803e3d6000fd5b5050505060006126c7858461197b565b90506126d38584613b91565b816126f0576126eb84826136b590919063ffffffff16565b612704565b61270384826136cb90919063ffffffff16565b5b61010160008773ffffffffffffffffffffffffffffffffffffffff1673ffffffffffffffffffffffffffffffffffffffff16815260200190815260200160002060008573ffffffffffffffffffffffffffffffffffffffff1673ffffffffffffffffffffffffffffffffffffffff168152602001908152602001600020600101819055508273ffffffffffffffffffffffffffffffffffffffff168573ffffffffffffffffffffffffffffffffffffffff167f2d1a59a877ca0f4ce2a4bff5fdbf6e60dabcd7a049afa997fdc2f61bebc68c3860405160405180910390a35050505050565b600060c9600084815260200190815260200160002060000160008373ffffffffffffffffffffffffffffffffffffffff1673ffffffffffffffffffffffffffffffffffffffff16815260200190815260200160002060009054906101000a900460ff16905092915050565b6128857fa49807205ce4d355092ef5a8a18f56e8913cf4a201fbe287825b095693c217756128806136e1565b6136e9565b60fc60008273ffffffffffffffffffffffffffffffffffffffff1673ffffffffffffffffffffffffffffffffffffffff16815260200190815260200160002060009054906101000a900460ff166128db5761296e565b60fc60008273ffffffffffffffffffffffffffffffffffffffff1673ffffffffffffffffffffffffffffffffffffffff16815260200190815260200160002060006101000a81549060ff02191690558073ffffffffffffffffffffffffffffffffffffffff167f38bfbff5a2ab4e85e1292bfc75e2e0b39855907deca3889448ce609117c8530f60405160405180910390a25b50565b6101035481565b61010e60009054906101000a900473ffffffffffffffffffffffffffffffffffffffff1681565b6101065481565b6101006020528060005260406000206000915054906101000a900460ff1681565b6000801b81565b600061010160008473ffffffffffffffffffffffffffffffffffffffff1673ffffffffffffffffffffffffffffffffffffffff16815260200190815260200160002060008373ffffffffffffffffffffffffffffffffffffffff1673ffffffffffffffffffffffffffffffffffffffff16815260200190815260200160002060010154905092915050565b612a8a7fa49807205ce4d355092ef5a8a18f56e8913cf4a201fbe287825b095693c21775612a856136e1565b6136e9565b806101028190555050565b60ff8181548110612aa557600080fd5b906000526020600020016000915054906101000a900473ffffffffffffffffffffffffffffffffffffffff1681565b61010860009054906101000a900473ffffffffffffffffffffffffffffffffffffffff1681565b6101096020528060005260406000206000915054906101000a900473ffffffffffffffffffffffffffffffffffffffff1681565b60fe6020528060005260406000206000915090505481565b612b4f61470e565b60fd60008373ffffffffffffffffffffffffffffffffffffffff1673ffffffffffffffffffffffffffffffffffffffff16815260200190815260200160002060405180606001604052908160008201548152602001600182015481526020016002820154815250509050919050565b61011060009054906101000a900473ffffffffffffffffffffffffffffffffffffffff1681565b600061010160008573ffffffffffffffffffffffffffffffffffffffff1673ffffffffffffffffffffffffffffffffffffffff16815260200190815260200160002060008373ffffffffffffffffffffffffffffffffffffffff1673ffffffffffffffffffffffffffffffffffffffff16815260200190815260200160002060000160008473ffffffffffffffffffffffffffffffffffffffff1673ffffffffffffffffffffffffffffffffffffffff1681526020019081526020016000205490509392505050565b600060019054906101000a900460ff1680612cd4575060008054906101000a900460ff16155b612d13576040517f08c379a0000000000000000000000000000000000000000000000000000000008152600401612d0a90615481565b60405180910390fd5b60008060019054906101000a900460ff161590508015612d63576001600060016101000a81548160ff02191690831515021790555060016000806101000a81548160ff0219169083151502179055505b612d6b613db2565b612d957fa49807205ce4d355092ef5a8a18f56e8913cf4a201fbe287825b095693c2177533613ea3565b612ddf7f97667070c54ef182b0f5858b034beac1b6f3089aa2d3188bb1e8929f4fa9b9297fa49807205ce4d355092ef5a8a18f56e8913cf4a201fbe287825b095693c21775613eb1565b8161010860006101000a81548173ffffffffffffffffffffffffffffffffffffffff021916908373ffffffffffffffffffffffffffffffffffffffff1602179055508015612e425760008060016101000a81548160ff0219169083151502179055505b5050565b612e777fa49807205ce4d355092ef5a8a18f56e8913cf4a201fbe287825b095693c21775612e726136e1565b6136e9565b61010060008273ffffffffffffffffffffffffffffffffffffffff1673ffffffffffffffffffffffffffffffffffffffff16815260200190815260200160002060009054906101000a900460ff1615612ecf57612fcf565b60ff819080600181540180825580915050600190039060005260206000200160009091909190916101000a81548173ffffffffffffffffffffffffffffffffffffffff021916908373ffffffffffffffffffffffffffffffffffffffff160217905550600161010060008373ffffffffffffffffffffffffffffffffffffffff1673ffffffffffffffffffffffffffffffffffffffff16815260200190815260200160002060006101000a81548160ff0219169083151502179055508073ffffffffffffffffffffffffffffffffffffffff167f1b56f46855aea33f90246d19ad4ae4f347ee3e4e01fa69f2f44856e1fb1462b160405160405180910390a25b50565b600061010860009054906101000a900473ffffffffffffffffffffffffffffffffffffffff1673ffffffffffffffffffffffffffffffffffffffff168273ffffffffffffffffffffffffffffffffffffffff16141561303b57670de0b6b3a7640000905061323a565b600073ffffffffffffffffffffffffffffffffffffffff1661010960008473ffffffffffffffffffffffffffffffffffffffff1673ffffffffffffffffffffffffffffffffffffffff16815260200190815260200160002060009054906101000a900473ffffffffffffffffffffffffffffffffffffffff1673ffffffffffffffffffffffffffffffffffffffff16141561310b576040517f08c379a0000000000000000000000000000000000000000000000000000000008152600401613102906154a1565b60405180910390fd5b61010960008373ffffffffffffffffffffffffffffffffffffffff1673ffffffffffffffffffffffffffffffffffffffff16815260200190815260200160002060009054906101000a900473ffffffffffffffffffffffffffffffffffffffff1673ffffffffffffffffffffffffffffffffffffffff166337cef791836040518263ffffffff1660e01b81526004016131a491906152b1565b60206040518083038186803b1580156131bc57600080fd5b505afa1580156131d0573d6000803e3d6000fd5b505050506040513d601f19601f820116820180604052508101906131f49190614d95565b905060008111613239576040517f08c379a000000000000000000000000000000000000000000000000000000000815260040161323090615521565b60405180910390fd5b5b919050565b606060ff8054806020026020016040519081016040528092919081815260200182805480156132c357602002820191906000526020600020905b8160009054906101000a900473ffffffffffffffffffffffffffffffffffffffff1673ffffffffffffffffffffffffffffffffffffffff1681526020019060010190808311613279575b5050505050905090565b6060806132d86111f4565b915060008251905060008167ffffffffffffffff811115613322577f4e487b7100000000000000000000000000000000000000000000000000000000600052604160045260246000fd5b6040519080825280602002602001820160405280156133505781602001602082028036833780820191505090505b50905060005b828110156134b45761010160008873ffffffffffffffffffffffffffffffffffffffff1673ffffffffffffffffffffffffffffffffffffffff16815260200190815260200160002060008773ffffffffffffffffffffffffffffffffffffffff1673ffffffffffffffffffffffffffffffffffffffff1681526020019081526020016000206000016000868381518110613419577f4e487b7100000000000000000000000000000000000000000000000000000000600052603260045260246000fd5b602002602001015173ffffffffffffffffffffffffffffffffffffffff1673ffffffffffffffffffffffffffffffffffffffff16815260200190815260200160002054828281518110613495577f4e487b7100000000000000000000000000000000000000000000000000000000600052603260045260246000fd5b60200260200101818152505080806134ac90615965565b915050613356565b5080925050509250929050565b6134ca826111ad565b6134db816134d66136e1565b6136e9565b6134e58383613867565b505050565b61351b7fa49807205ce4d355092ef5a8a18f56e8913cf4a201fbe287825b095693c217756135166136e1565b6136e9565b80600073ffffffffffffffffffffffffffffffffffffffff168173ffffffffffffffffffffffffffffffffffffffff16141561358c576040517f08c379a000000000000000000000000000000000000000000000000000000000815260040161358390615501565b60405180910390fd5b8161010760006101000a81548173ffffffffffffffffffffffffffffffffffffffff021916908373ffffffffffffffffffffffffffffffffffffffff1602179055505050565b6101045481565b61010c60009054906101000a900473ffffffffffffffffffffffffffffffffffffffff1681565b61010760009054906101000a900473ffffffffffffffffffffffffffffffffffffffff1681565b7f97667070c54ef182b0f5858b034beac1b6f3089aa2d3188bb1e8929f4fa9b92981565b60007f01ffc9a7000000000000000000000000000000000000000000000000000000007bffffffffffffffffffffffffffffffffffffffffffffffffffffffff1916827bffffffffffffffffffffffffffffffffffffffffffffffffffffffff1916149050919050565b600081836136c39190615804565b905092915050565b600081836136d99190615754565b905092915050565b600033905090565b6136f382826127e9565b613782576137188173ffffffffffffffffffffffffffffffffffffffff166014613f07565b6137268360001c6020613f07565b604051602001613737929190615277565b6040516020818303038152906040526040517f08c379a0000000000000000000000000000000000000000000000000000000008152600401613779919061539f565b60405180910390fd5b5050565b61379082826127e9565b61386357600160c9600084815260200190815260200160002060000160008373ffffffffffffffffffffffffffffffffffffffff1673ffffffffffffffffffffffffffffffffffffffff16815260200190815260200160002060006101000a81548160ff0219169083151502179055506138086136e1565b73ffffffffffffffffffffffffffffffffffffffff168173ffffffffffffffffffffffffffffffffffffffff16837f2f8788117e7eff1d82e926ec794901d17c78024a50270940304540a733656f0d60405160405180910390a45b5050565b61387182826127e9565b1561394557600060c9600084815260200190815260200160002060000160008373ffffffffffffffffffffffffffffffffffffffff1673ffffffffffffffffffffffffffffffffffffffff16815260200190815260200160002060006101000a81548160ff0219169083151502179055506138ea6136e1565b73ffffffffffffffffffffffffffffffffffffffff168173ffffffffffffffffffffffffffffffffffffffff16837ff6391f5c32d9c69d2a47ea670b442974b53935d1edc7fd64eb21e047a839171b60405160405180910390a45b5050565b61397a7fa49807205ce4d355092ef5a8a18f56e8913cf4a201fbe287825b095693c217756139756136e1565b6136e9565b50565b6000613987614201565b905061399284614258565b60008351118061399f5750815b156139b0576139ae8484614311565b505b60006139de7f4910fdfa16fed3260ed0e7147f7cc6da11a60208b5b9406d12a635614ffd914360001b6143f5565b90508060000160009054906101000a900460ff16613b8a5760018160000160006101000a81548160ff021916908315150217905550613aaa8583604051602401613a2891906152b1565b6040516020818303038152906040527f3659cfe6000000000000000000000000000000000000000000000000000000007bffffffffffffffffffffffffffffffffffffffffffffffffffffffff19166020820180517bffffffffffffffffffffffffffffffffffffffffffffffffffffffff8381831617835250505050614311565b5060008160000160006101000a81548160ff021916908315150217905550613ad0614201565b73ffffffffffffffffffffffffffffffffffffffff168273ffffffffffffffffffffffffffffffffffffffff1614613b3d576040517f08c379a0000000000000000000000000000000000000000000000000000000008152600401613b3490615421565b60405180910390fd5b613b4685614258565b8473ffffffffffffffffffffffffffffffffffffffff167fbc7cd75a20ee27fd9adebab32041f755214dbc6bffa90cc0225b39da2e5c2d3b60405160405180910390a25b5050505050565b60008061011060009054906101000a900473ffffffffffffffffffffffffffffffffffffffff1673ffffffffffffffffffffffffffffffffffffffff1663d56a5c736040518163ffffffff1660e01b815260040160006040518083038186803b158015613bfd57600080fd5b505afa158015613c11573d6000803e3d6000fd5b505050506040513d6000823e3d601f19601f82011682018060405250810190613c3a9190614c72565b91509150600081519050600061010160008773ffffffffffffffffffffffffffffffffffffffff1673ffffffffffffffffffffffffffffffffffffffff16815260200190815260200160002060008673ffffffffffffffffffffffffffffffffffffffff1673ffffffffffffffffffffffffffffffffffffffff168152602001908152602001600020905060005b82811015613da957848181518110613d09577f4e487b7100000000000000000000000000000000000000000000000000000000600052603260045260246000fd5b6020026020010151826003016000868481518110613d50577f4e487b7100000000000000000000000000000000000000000000000000000000600052603260045260246000fd5b602002602001015173ffffffffffffffffffffffffffffffffffffffff1673ffffffffffffffffffffffffffffffffffffffff168152602001908152602001600020819055508080613da190615965565b915050613cc8565b50505050505050565b600060019054906101000a900460ff1680613dd8575060008054906101000a900460ff16155b613e17576040517f08c379a0000000000000000000000000000000000000000000000000000000008152600401613e0e90615481565b60405180910390fd5b60008060019054906101000a900460ff161590508015613e67576001600060016101000a81548160ff02191690831515021790555060016000806101000a81548160ff0219169083151502179055505b613e6f6143ff565b613e776144d8565b613e7f6145b1565b8015613ea05760008060016101000a81548160ff0219169083151502179055505b50565b613ead8282613786565b5050565b80613ebb836111ad565b837fbd79b86ffe0ab8e8776151514217cd7cacd52c909f66475c3af44e129f0b00ff60405160405180910390a48060c96000848152602001908152602001600020600101819055505050565b606060006002836002613f1a91906157aa565b613f249190615754565b67ffffffffffffffff811115613f63577f4e487b7100000000000000000000000000000000000000000000000000000000600052604160045260246000fd5b6040519080825280601f01601f191660200182016040528015613f955781602001600182028036833780820191505090505b5090507f300000000000000000000000000000000000000000000000000000000000000081600081518110613ff3577f4e487b7100000000000000000000000000000000000000000000000000000000600052603260045260246000fd5b60200101907effffffffffffffffffffffffffffffffffffffffffffffffffffffffffffff1916908160001a9053507f78000000000000000000000000000000000000000000000000000000000000008160018151811061407d577f4e487b7100000000000000000000000000000000000000000000000000000000600052603260045260246000fd5b60200101907effffffffffffffffffffffffffffffffffffffffffffffffffffffffffffff1916908160001a905350600060018460026140bd91906157aa565b6140c79190615754565b90505b60018111156141b3577f3031323334353637383961626364656600000000000000000000000000000000600f86166010811061412f577f4e487b7100000000000000000000000000000000000000000000000000000000600052603260045260246000fd5b1a60f81b82828151811061416c577f4e487b7100000000000000000000000000000000000000000000000000000000600052603260045260246000fd5b60200101907effffffffffffffffffffffffffffffffffffffffffffffffffffffffffffff1916908160001a905350600485901c9450806141ac9061590a565b90506140ca565b50600084146141f7576040517f08c379a00000000000000000000000000000000000000000000000000000000081526004016141ee906153c1565b60405180910390fd5b8091505092915050565b600061422f7f360894a13ba1a3210667c828492db98dca3e2076cc3735a920a3ca505d382bbc60001b61468a565b60000160009054906101000a900473ffffffffffffffffffffffffffffffffffffffff16905090565b61426181614694565b6142a0576040517f08c379a0000000000000000000000000000000000000000000000000000000008152600401614297906154c1565b60405180910390fd5b806142cd7f360894a13ba1a3210667c828492db98dca3e2076cc3735a920a3ca505d382bbc60001b61468a565b60000160006101000a81548173ffffffffffffffffffffffffffffffffffffffff021916908373ffffffffffffffffffffffffffffffffffffffff16021790555050565b606061431c83614694565b61435b576040517f08c379a0000000000000000000000000000000000000000000000000000000008152600401614352906154e1565b60405180910390fd5b6000808473ffffffffffffffffffffffffffffffffffffffff16846040516143839190615260565b600060405180830381855af49150503d80600081146143be576040519150601f19603f3d011682016040523d82523d6000602084013e6143c3565b606091505b50915091506143eb8282604051806060016040528060278152602001615db6602791396146a7565b9250505092915050565b6000819050919050565b600060019054906101000a900460ff1680614425575060008054906101000a900460ff16155b614464576040517f08c379a000000000000000000000000000000000000000000000000000000000815260040161445b90615481565b60405180910390fd5b60008060019054906101000a900460ff1615905080156144b4576001600060016101000a81548160ff02191690831515021790555060016000806101000a81548160ff0219169083151502179055505b80156144d55760008060016101000a81548160ff0219169083151502179055505b50565b600060019054906101000a900460ff16806144fe575060008054906101000a900460ff16155b61453d576040517f08c379a000000000000000000000000000000000000000000000000000000000815260040161453490615481565b60405180910390fd5b60008060019054906101000a900460ff16159050801561458d576001600060016101000a81548160ff02191690831515021790555060016000806101000a81548160ff0219169083151502179055505b80156145ae5760008060016101000a81548160ff0219169083151502179055505b50565b600060019054906101000a900460ff16806145d7575060008054906101000a900460ff16155b614616576040517f08c379a000000000000000000000000000000000000000000000000000000000815260040161460d90615481565b60405180910390fd5b60008060019054906101000a900460ff161590508015614666576001600060016101000a81548160ff02191690831515021790555060016000806101000a81548160ff0219169083151502179055505b80156146875760008060016101000a81548160ff0219169083151502179055505b50565b6000819050919050565b600080823b905060008111915050919050565b606083156146b757829050614707565b6000835111156146ca5782518084602001fd5b816040517f08c379a00000000000000000000000000000000000000000000000000000000081526004016146fe919061539f565b60405180910390fd5b9392505050565b60405180606001604052806000815260200160008152602001600081525090565b600061474261473d8461561c565b6155f7565b9050808382526020820190508285602086028201111561476157600080fd5b60005b85811015614791578161477788826148b1565b845260208401935060208301925050600181019050614764565b5050509392505050565b60006147ae6147a98461561c565b6155f7565b905080838252602082019050828560208602820111156147cd57600080fd5b60005b858110156147fd57816147e388826148c6565b8452602084019350602083019250506001810190506147d0565b5050509392505050565b600061481a61481584615648565b6155f7565b9050808382526020820190508285602086028201111561483957600080fd5b60005b85811015614869578161484f88826149d7565b84526020840193506020830192505060018101905061483c565b5050509392505050565b600061488661488184615674565b6155f7565b90508281526020810184848401111561489e57600080fd5b6148a98482856158c8565b509392505050565b6000813590506148c081615d42565b92915050565b6000815190506148d581615d42565b92915050565b600082601f8301126148ec57600080fd5b81356148fc84826020860161472f565b91505092915050565b600082601f83011261491657600080fd5b815161492684826020860161479b565b91505092915050565b600082601f83011261494057600080fd5b8151614950848260208601614807565b91505092915050565b60008135905061496881615d59565b92915050565b60008135905061497d81615d70565b92915050565b60008135905061499281615d87565b92915050565b600082601f8301126149a957600080fd5b81356149b9848260208601614873565b91505092915050565b6000813590506149d181615d9e565b92915050565b6000815190506149e681615d9e565b92915050565b6000602082840312156149fe57600080fd5b6000614a0c848285016148b1565b91505092915050565b60008060408385031215614a2857600080fd5b6000614a36858286016148b1565b9250506020614a47858286016148b1565b9150509250929050565b600080600060608486031215614a6657600080fd5b6000614a74868287016148b1565b9350506020614a85868287016148b1565b9250506040614a96868287016148b1565b9150509250925092565b60008060408385031215614ab357600080fd5b6000614ac1858286016148b1565b925050602083013567ffffffffffffffff811115614ade57600080fd5b614aea85828601614998565b9150509250929050565b600080600080600060a08688031215614b0c57600080fd5b6000614b1a888289016148b1565b9550506020614b2b888289016149c2565b9450506040614b3c888289016148b1565b9350506060614b4d888289016148b1565b9250506080614b5e88828901614959565b9150509295509295909350565b60008060008060808587031215614b8157600080fd5b6000614b8f878288016148b1565b9450506020614ba0878288016149c2565b9350506040614bb1878288016148b1565b9250506060614bc287828801614959565b91505092959194509250565b60008060008060808587031215614be457600080fd5b6000614bf2878288016148b1565b9450506020614c03878288016149c2565b9350506040614c14878288016149c2565b9250506060614c25878288016149c2565b91505092959194509250565b600060208284031215614c4357600080fd5b600082013567ffffffffffffffff811115614c5d57600080fd5b614c69848285016148db565b91505092915050565b60008060408385031215614c8557600080fd5b600083015167ffffffffffffffff811115614c9f57600080fd5b614cab8582860161492f565b925050602083015167ffffffffffffffff811115614cc857600080fd5b614cd485828601614905565b9150509250929050565b600060208284031215614cf057600080fd5b6000614cfe8482850161496e565b91505092915050565b60008060408385031215614d1a57600080fd5b6000614d288582860161496e565b9250506020614d39858286016148b1565b9150509250929050565b600060208284031215614d5557600080fd5b6000614d6384828501614983565b91505092915050565b600060208284031215614d7e57600080fd5b6000614d8c848285016149c2565b91505092915050565b600060208284031215614da757600080fd5b6000614db5848285016149d7565b91505092915050565b60008060008060808587031215614dd457600080fd5b6000614de2878288016149c2565b9450506020614df3878288016149c2565b9350506040614e04878288016149c2565b9250506060614e15878288016149c2565b91505092959194509250565b6000614e2d8383614e60565b60208301905092915050565b6000614e458383615242565b60208301905092915050565b614e5a8161584a565b82525050565b614e6981615838565b82525050565b614e7881615838565b82525050565b6000614e89826156c5565b614e93818561570b565b9350614e9e836156a5565b8060005b83811015614ecf578151614eb68882614e21565b9750614ec1836156f1565b925050600181019050614ea2565b5085935050505092915050565b6000614ee7826156d0565b614ef1818561571c565b9350614efc836156b5565b8060005b83811015614f2d578151614f148882614e39565b9750614f1f836156fe565b925050600181019050614f00565b5085935050505092915050565b614f438161585c565b82525050565b614f5281615868565b82525050565b6000614f63826156db565b614f6d818561572d565b9350614f7d8185602086016158d7565b80840191505092915050565b6000614f94826156e6565b614f9e8185615738565b9350614fae8185602086016158d7565b614fb781615a0c565b840191505092915050565b6000614fcd826156e6565b614fd78185615749565b9350614fe78185602086016158d7565b80840191505092915050565b6000615000602083615738565b915061500b82615a1d565b602082019050919050565b6000615023600f83615738565b915061502e82615a46565b602082019050919050565b6000615046600283615738565b915061505182615a6f565b602082019050919050565b6000615069602f83615738565b915061507482615a98565b604082019050919050565b600061508c600283615738565b915061509782615ae7565b602082019050919050565b60006150af600283615738565b91506150ba82615b10565b602082019050919050565b60006150d2602e83615738565b91506150dd82615b39565b604082019050919050565b60006150f5601383615738565b915061510082615b88565b602082019050919050565b6000615118602d83615738565b915061512382615bb1565b604082019050919050565b600061513b602683615738565b915061514682615c00565b604082019050919050565b600061515e600f83615738565b915061516982615c4f565b602082019050919050565b6000615181601783615749565b915061518c82615c78565b601782019050919050565b60006151a4601383615738565b91506151af82615ca1565b602082019050919050565b60006151c7601183615749565b91506151d282615cca565b601182019050919050565b60006151ea602f83615738565b91506151f582615cf3565b604082019050919050565b6060820160008201516152166000850182615242565b5060208201516152296020850182615242565b50604082015161523c6040850182615242565b50505050565b61524b816158be565b82525050565b61525a816158be565b82525050565b600061526c8284614f58565b915081905092915050565b600061528282615174565b915061528e8285614fc2565b9150615299826151ba565b91506152a58284614fc2565b91508190509392505050565b60006020820190506152c66000830184614e6f565b92915050565b60006020820190506152e16000830184614e51565b92915050565b60006040820190506152fc6000830185614e6f565b6153096020830184614e6f565b9392505050565b6000602082019050818103600083015261532a8184614e7e565b905092915050565b6000604082019050818103600083015261534c8185614e7e565b905081810360208301526153608184614edc565b90509392505050565b600060208201905061537e6000830184614f3a565b92915050565b60006020820190506153996000830184614f49565b92915050565b600060208201905081810360008301526153b98184614f89565b905092915050565b600060208201905081810360008301526153da81614ff3565b9050919050565b600060208201905081810360008301526153fa81615016565b9050919050565b6000602082019050818103600083015261541a81615039565b9050919050565b6000602082019050818103600083015261543a8161505c565b9050919050565b6000602082019050818103600083015261545a8161507f565b9050919050565b6000602082019050818103600083015261547a816150a2565b9050919050565b6000602082019050818103600083015261549a816150c5565b9050919050565b600060208201905081810360008301526154ba816150e8565b9050919050565b600060208201905081810360008301526154da8161510b565b9050919050565b600060208201905081810360008301526154fa8161512e565b9050919050565b6000602082019050818103600083015261551a81615151565b9050919050565b6000602082019050818103600083015261553a81615197565b9050919050565b6000602082019050818103600083015261555a816151dd565b9050919050565b60006060820190506155766000830184615200565b92915050565b60006020820190506155916000830184615251565b92915050565b60006040820190506155ac6000830185615251565b6155b96020830184615251565b9392505050565b60006060820190506155d56000830186615251565b6155e26020830185615251565b6155ef6040830184615251565b949350505050565b6000615601615612565b905061560d8282615934565b919050565b6000604051905090565b600067ffffffffffffffff821115615637576156366159dd565b5b602082029050602081019050919050565b600067ffffffffffffffff821115615663576156626159dd565b5b602082029050602081019050919050565b600067ffffffffffffffff82111561568f5761568e6159dd565b5b61569882615a0c565b9050602081019050919050565b6000819050602082019050919050565b6000819050602082019050919050565b600081519050919050565b600081519050919050565b600081519050919050565b600081519050919050565b6000602082019050919050565b6000602082019050919050565b600082825260208201905092915050565b600082825260208201905092915050565b600081905092915050565b600082825260208201905092915050565b600081905092915050565b600061575f826158be565b915061576a836158be565b9250827fffffffffffffffffffffffffffffffffffffffffffffffffffffffffffffffff0382111561579f5761579e6159ae565b5b828201905092915050565b60006157b5826158be565b91506157c0836158be565b9250817fffffffffffffffffffffffffffffffffffffffffffffffffffffffffffffffff04831182151516156157f9576157f86159ae565b5b828202905092915050565b600061580f826158be565b915061581a836158be565b92508282101561582d5761582c6159ae565b5b828203905092915050565b60006158438261589e565b9050919050565b60006158558261589e565b9050919050565b60008115159050919050565b6000819050919050565b60007fffffffff0000000000000000000000000000000000000000000000000000000082169050919050565b600073ffffffffffffffffffffffffffffffffffffffff82169050919050565b6000819050919050565b82818337600083830152505050565b60005b838110156158f55780820151818401526020810190506158da565b83811115615904576000848401525b50505050565b6000615915826158be565b91506000821415615929576159286159ae565b5b600182039050919050565b61593d82615a0c565b810181811067ffffffffffffffff8211171561595c5761595b6159dd565b5b80604052505050565b6000615970826158be565b91507fffffffffffffffffffffffffffffffffffffffffffffffffffffffffffffffff8214156159a3576159a26159ae565b5b600182019050919050565b7f4e487b7100000000000000000000000000000000000000000000000000000000600052601160045260246000fd5b7f4e487b7100000000000000000000000000000000000000000000000000000000600052604160045260246000fd5b6000601f19601f8301169050919050565b7f537472696e67733a20686578206c656e67746820696e73756666696369656e74600082015250565b7f496e76616c696420616464726573730000000000000000000000000000000000600082015250565b7f4e4f000000000000000000000000000000000000000000000000000000000000600082015250565b7f45524331393637557067726164653a207570677261646520627265616b73206660008201527f7572746865722075706772616465730000000000000000000000000000000000602082015250565b7f495a000000000000000000000000000000000000000000000000000000000000600082015250565b7f4946000000000000000000000000000000000000000000000000000000000000600082015250565b7f496e697469616c697a61626c653a20636f6e747261637420697320616c72656160008201527f647920696e697469616c697a6564000000000000000000000000000000000000602082015250565b7f4e6f206f7261636c6520666f7220746f6b656e00000000000000000000000000600082015250565b7f455243313936373a206e657720696d706c656d656e746174696f6e206973206e60008201527f6f74206120636f6e747261637400000000000000000000000000000000000000602082015250565b7f416464726573733a2064656c65676174652063616c6c20746f206e6f6e2d636f60008201527f6e74726163740000000000000000000000000000000000000000000000000000602082015250565b7f496e76616c696420416464726573730000000000000000000000000000000000600082015250565b7f416363657373436f6e74726f6c3a206163636f756e7420000000000000000000600082015250565b7f546f6b656e207072696365206973207a65726f00000000000000000000000000600082015250565b7f206973206d697373696e6720726f6c6520000000000000000000000000000000600082015250565b7f416363657373436f6e74726f6c3a2063616e206f6e6c792072656e6f756e636560008201527f20726f6c657320666f722073656c660000000000000000000000000000000000602082015250565b615d4b81615838565b8114615d5657600080fd5b50565b615d628161585c565b8114615d6d57600080fd5b50565b615d7981615868565b8114615d8457600080fd5b50565b615d9081615872565b8114615d9b57600080fd5b50565b615da7816158be565b8114615db257600080fd5b5056fe416464726573733a206c6f772d6c6576656c2064656c65676174652063616c6c206661696c6564a2646970667358221220b38aa9b191b2c233d30316611e89ee90d139339078022efe10d4c02ee6e2dd0b64736f6c63430008030033",
  "linkReferences": {},
  "deployedLinkReferences": {}
}