{
  "_format": "hh-sol-artifact-1",
  "contractName": "Handle",
  "sourceName": "contracts/Bank/Handle.sol",
  "abi": [
    {
      "anonymous": false,
      "inputs": [
        {
          "indexed": false,
          "internalType": "address",
          "name": "previousAdmin",
          "type": "address"
        },
        {
          "indexed": false,
          "internalType": "address",
          "name": "newAdmin",
          "type": "address"
        }
      ],
      "name": "AdminChanged",
      "type": "event"
    },
    {
      "anonymous": false,
      "inputs": [
        {
          "indexed": true,
          "internalType": "address",
          "name": "beacon",
          "type": "address"
        }
      ],
      "name": "BeaconUpgraded",
      "type": "event"
    },
    {
      "anonymous": false,
      "inputs": [
        {
          "indexed": true,
          "internalType": "address",
          "name": "collateralToken",
          "type": "address"
        }
      ],
      "name": "ConfigureCollateralToken",
      "type": "event"
    },
    {
      "anonymous": false,
      "inputs": [
        {
          "indexed": true,
          "internalType": "address",
          "name": "fxToken",
          "type": "address"
        },
        {
          "indexed": false,
          "internalType": "bool",
          "name": "removed",
          "type": "bool"
        }
      ],
      "name": "ConfigureFxToken",
      "type": "event"
    },
    {
      "anonymous": false,
      "inputs": [
        {
          "indexed": true,
          "internalType": "bytes32",
          "name": "role",
          "type": "bytes32"
        },
        {
          "indexed": true,
          "internalType": "bytes32",
          "name": "previousAdminRole",
          "type": "bytes32"
        },
        {
          "indexed": true,
          "internalType": "bytes32",
          "name": "newAdminRole",
          "type": "bytes32"
        }
      ],
      "name": "RoleAdminChanged",
      "type": "event"
    },
    {
      "anonymous": false,
      "inputs": [
        {
          "indexed": true,
          "internalType": "bytes32",
          "name": "role",
          "type": "bytes32"
        },
        {
          "indexed": true,
          "internalType": "address",
          "name": "account",
          "type": "address"
        },
        {
          "indexed": true,
          "internalType": "address",
          "name": "sender",
          "type": "address"
        }
      ],
      "name": "RoleGranted",
      "type": "event"
    },
    {
      "anonymous": false,
      "inputs": [
        {
          "indexed": true,
          "internalType": "bytes32",
          "name": "role",
          "type": "bytes32"
        },
        {
          "indexed": true,
          "internalType": "address",
          "name": "account",
          "type": "address"
        },
        {
          "indexed": true,
          "internalType": "address",
          "name": "sender",
          "type": "address"
        }
      ],
      "name": "RoleRevoked",
      "type": "event"
    },
    {
      "anonymous": false,
      "inputs": [
        {
          "indexed": true,
          "internalType": "address",
          "name": "account",
          "type": "address"
        },
        {
          "indexed": true,
          "internalType": "address",
          "name": "fxToken",
          "type": "address"
        },
        {
          "indexed": true,
          "internalType": "address",
          "name": "collateralToken",
          "type": "address"
        }
      ],
      "name": "UpdateCollateral",
      "type": "event"
    },
    {
      "anonymous": false,
      "inputs": [
        {
          "indexed": true,
          "internalType": "address",
          "name": "account",
          "type": "address"
        },
        {
          "indexed": true,
          "internalType": "address",
          "name": "fxToken",
          "type": "address"
        }
      ],
      "name": "UpdateDebt",
      "type": "event"
    },
    {
      "anonymous": false,
      "inputs": [
        {
          "indexed": true,
          "internalType": "address",
          "name": "implementation",
          "type": "address"
        }
      ],
      "name": "Upgraded",
      "type": "event"
    },
    {
      "inputs": [],
      "name": "ADMIN_ROLE",
      "outputs": [
        {
          "internalType": "bytes32",
          "name": "",
          "type": "bytes32"
        }
      ],
      "stateMutability": "view",
      "type": "function"
    },
    {
      "inputs": [],
      "name": "DEFAULT_ADMIN_ROLE",
      "outputs": [
        {
          "internalType": "bytes32",
          "name": "",
          "type": "bytes32"
        }
      ],
      "stateMutability": "view",
      "type": "function"
    },
    {
      "inputs": [],
      "name": "FeeRecipient",
      "outputs": [
        {
          "internalType": "address",
          "name": "",
          "type": "address"
        }
      ],
      "stateMutability": "view",
      "type": "function"
    },
    {
      "inputs": [],
      "name": "OPERATOR_ROLE",
      "outputs": [
        {
          "internalType": "bytes32",
          "name": "",
          "type": "bytes32"
        }
      ],
      "stateMutability": "view",
      "type": "function"
    },
    {
      "inputs": [],
      "name": "WETH",
      "outputs": [
        {
          "internalType": "address",
          "name": "",
          "type": "address"
        }
      ],
      "stateMutability": "view",
      "type": "function"
    },
    {
      "inputs": [],
      "name": "burnFeePerMille",
      "outputs": [
        {
          "internalType": "uint256",
          "name": "",
          "type": "uint256"
        }
      ],
      "stateMutability": "view",
      "type": "function"
    },
    {
      "inputs": [],
      "name": "comptroller",
      "outputs": [
        {
          "internalType": "address",
          "name": "",
          "type": "address"
        }
      ],
      "stateMutability": "view",
      "type": "function"
    },
    {
      "inputs": [],
      "name": "depositFeePerMille",
      "outputs": [
        {
          "internalType": "uint256",
          "name": "",
          "type": "uint256"
        }
      ],
      "stateMutability": "view",
      "type": "function"
    },
    {
      "inputs": [],
      "name": "fxKeeperPool",
      "outputs": [
        {
          "internalType": "address",
          "name": "",
          "type": "address"
        }
      ],
      "stateMutability": "view",
      "type": "function"
    },
    {
      "inputs": [],
      "name": "getAllCollateralTypes",
      "outputs": [
        {
          "internalType": "address[]",
          "name": "collateral",
          "type": "address[]"
        }
      ],
      "stateMutability": "view",
      "type": "function"
    },
    {
      "inputs": [
        {
          "internalType": "address",
          "name": "account",
          "type": "address"
        },
        {
          "internalType": "address",
          "name": "fxToken",
          "type": "address"
        }
      ],
      "name": "getBalance",
      "outputs": [
        {
          "internalType": "address[]",
          "name": "collateral",
          "type": "address[]"
        },
        {
          "internalType": "uint256[]",
          "name": "balances",
          "type": "uint256[]"
        }
      ],
      "stateMutability": "view",
      "type": "function"
    },
    {
      "inputs": [
        {
          "internalType": "address",
          "name": "account",
          "type": "address"
        },
        {
          "internalType": "address",
          "name": "collateralType",
          "type": "address"
        },
        {
          "internalType": "address",
          "name": "fxToken",
          "type": "address"
        }
      ],
      "name": "getCollateralBalance",
      "outputs": [
        {
          "internalType": "uint256",
          "name": "balance",
          "type": "uint256"
        }
      ],
      "stateMutability": "view",
      "type": "function"
    },
    {
      "inputs": [
        {
          "internalType": "address",
          "name": "collateral",
          "type": "address"
        }
      ],
      "name": "getCollateralDetails",
      "outputs": [
        {
          "components": [
            {
              "internalType": "uint256",
              "name": "mintCR",
              "type": "uint256"
            },
            {
              "internalType": "uint256",
              "name": "liquidationFee",
              "type": "uint256"
            },
            {
              "internalType": "uint256",
              "name": "interestRate",
              "type": "uint256"
            }
          ],
          "internalType": "struct IHandle.CollateralData",
          "name": "",
          "type": "tuple"
        }
      ],
      "stateMutability": "view",
      "type": "function"
    },
    {
      "inputs": [
        {
          "internalType": "address",
          "name": "account",
          "type": "address"
        },
        {
          "internalType": "address",
          "name": "fxToken",
          "type": "address"
        },
        {
          "internalType": "address",
          "name": "collateral",
          "type": "address"
        }
      ],
      "name": "getCollateralR0",
      "outputs": [
        {
          "internalType": "uint256",
          "name": "R0",
          "type": "uint256"
        }
      ],
      "stateMutability": "view",
      "type": "function"
    },
    {
      "inputs": [
        {
          "internalType": "address",
          "name": "account",
          "type": "address"
        },
        {
          "internalType": "address",
          "name": "fxToken",
          "type": "address"
        }
      ],
      "name": "getDebt",
      "outputs": [
        {
          "internalType": "uint256",
          "name": "",
          "type": "uint256"
        }
      ],
      "stateMutability": "view",
      "type": "function"
    },
    {
      "inputs": [
        {
          "internalType": "address",
          "name": "account",
          "type": "address"
        },
        {
          "internalType": "address",
          "name": "fxToken",
          "type": "address"
        }
      ],
      "name": "getPrincipalDebt",
      "outputs": [
        {
          "internalType": "uint256",
          "name": "",
          "type": "uint256"
        }
      ],
      "stateMutability": "view",
      "type": "function"
    },
    {
      "inputs": [
        {
          "internalType": "bytes32",
          "name": "role",
          "type": "bytes32"
        }
      ],
      "name": "getRoleAdmin",
      "outputs": [
        {
          "internalType": "bytes32",
          "name": "",
          "type": "bytes32"
        }
      ],
      "stateMutability": "view",
      "type": "function"
    },
    {
      "inputs": [
        {
          "internalType": "address",
          "name": "token",
          "type": "address"
        }
      ],
      "name": "getTokenPrice",
      "outputs": [
        {
          "internalType": "uint256",
          "name": "quote",
          "type": "uint256"
        }
      ],
      "stateMutability": "view",
      "type": "function"
    },
    {
      "inputs": [
        {
          "internalType": "bytes32",
          "name": "role",
          "type": "bytes32"
        },
        {
          "internalType": "address",
          "name": "account",
          "type": "address"
        }
      ],
      "name": "grantRole",
      "outputs": [],
      "stateMutability": "nonpayable",
      "type": "function"
    },
    {
      "inputs": [
        {
          "internalType": "bytes32",
          "name": "role",
          "type": "bytes32"
        },
        {
          "internalType": "address",
          "name": "account",
          "type": "address"
        }
      ],
      "name": "hasRole",
      "outputs": [
        {
          "internalType": "bool",
          "name": "",
          "type": "bool"
        }
      ],
      "stateMutability": "view",
      "type": "function"
    },
    {
      "inputs": [
        {
          "internalType": "address",
          "name": "weth",
          "type": "address"
        }
      ],
      "name": "initialize",
      "outputs": [],
      "stateMutability": "nonpayable",
      "type": "function"
    },
    {
      "inputs": [],
      "name": "interest",
      "outputs": [
        {
          "internalType": "address",
          "name": "",
          "type": "address"
        }
      ],
      "stateMutability": "view",
      "type": "function"
    },
    {
      "inputs": [
        {
          "internalType": "address",
          "name": "",
          "type": "address"
        }
      ],
      "name": "isCollateralValid",
      "outputs": [
        {
          "internalType": "bool",
          "name": "",
          "type": "bool"
        }
      ],
      "stateMutability": "view",
      "type": "function"
    },
    {
      "inputs": [
        {
          "internalType": "address",
          "name": "",
          "type": "address"
        }
      ],
      "name": "isFxTokenValid",
      "outputs": [
        {
          "internalType": "bool",
          "name": "",
          "type": "bool"
        }
      ],
      "stateMutability": "view",
      "type": "function"
    },
    {
      "inputs": [],
      "name": "isPaused",
      "outputs": [
        {
          "internalType": "bool",
          "name": "",
          "type": "bool"
        }
      ],
      "stateMutability": "view",
      "type": "function"
    },
    {
      "inputs": [],
      "name": "liquidator",
      "outputs": [
        {
          "internalType": "address",
          "name": "",
          "type": "address"
        }
      ],
      "stateMutability": "view",
      "type": "function"
    },
    {
      "inputs": [],
      "name": "mintFeePerMille",
      "outputs": [
        {
          "internalType": "uint256",
          "name": "",
          "type": "uint256"
        }
      ],
      "stateMutability": "view",
      "type": "function"
    },
    {
      "inputs": [
        {
          "internalType": "address",
          "name": "",
          "type": "address"
        }
      ],
      "name": "oracles",
      "outputs": [
        {
          "internalType": "address",
          "name": "",
          "type": "address"
        }
      ],
      "stateMutability": "view",
      "type": "function"
    },
    {
      "inputs": [],
      "name": "pct",
      "outputs": [
        {
          "internalType": "address",
          "name": "",
          "type": "address"
        }
      ],
      "stateMutability": "view",
      "type": "function"
    },
    {
      "inputs": [],
      "name": "pctCollateralUpperBound",
      "outputs": [
        {
          "internalType": "uint256",
          "name": "",
          "type": "uint256"
        }
      ],
      "stateMutability": "view",
      "type": "function"
    },
    {
      "inputs": [],
      "name": "referral",
      "outputs": [
        {
          "internalType": "address",
          "name": "",
          "type": "address"
        }
      ],
      "stateMutability": "view",
      "type": "function"
    },
    {
      "inputs": [
        {
          "internalType": "address",
          "name": "token",
          "type": "address"
        }
      ],
      "name": "removeCollateralToken",
      "outputs": [],
      "stateMutability": "nonpayable",
      "type": "function"
    },
    {
      "inputs": [
        {
          "internalType": "address",
          "name": "token",
          "type": "address"
        }
      ],
      "name": "removeFxToken",
      "outputs": [],
      "stateMutability": "nonpayable",
      "type": "function"
    },
    {
      "inputs": [
        {
          "internalType": "bytes32",
          "name": "role",
          "type": "bytes32"
        },
        {
          "internalType": "address",
          "name": "account",
          "type": "address"
        }
      ],
      "name": "renounceRole",
      "outputs": [],
      "stateMutability": "nonpayable",
      "type": "function"
    },
    {
      "inputs": [
        {
          "internalType": "bytes32",
          "name": "role",
          "type": "bytes32"
        },
        {
          "internalType": "address",
          "name": "account",
          "type": "address"
        }
      ],
      "name": "revokeRole",
      "outputs": [],
      "stateMutability": "nonpayable",
      "type": "function"
    },
    {
      "inputs": [
        {
          "internalType": "address",
          "name": "token",
          "type": "address"
        },
        {
          "internalType": "uint256",
          "name": "mintCR",
          "type": "uint256"
        },
        {
          "internalType": "uint256",
          "name": "liquidationFee",
          "type": "uint256"
        },
        {
          "internalType": "uint256",
          "name": "interestRatePerMille",
          "type": "uint256"
        }
      ],
      "name": "setCollateralToken",
      "outputs": [],
      "stateMutability": "nonpayable",
      "type": "function"
    },
    {
      "inputs": [
        {
          "internalType": "uint256",
          "name": "ratio",
          "type": "uint256"
        }
      ],
      "name": "setCollateralUpperBoundPCT",
      "outputs": [],
      "stateMutability": "nonpayable",
      "type": "function"
    },
    {
      "inputs": [
        {
          "internalType": "address[]",
          "name": "components",
          "type": "address[]"
        }
      ],
      "name": "setComponents",
      "outputs": [],
      "stateMutability": "nonpayable",
      "type": "function"
    },
    {
      "inputs": [
        {
          "internalType": "address",
          "name": "feeRecipient",
          "type": "address"
        }
      ],
      "name": "setFeeRecipient",
      "outputs": [],
      "stateMutability": "nonpayable",
      "type": "function"
    },
    {
      "inputs": [
        {
          "internalType": "uint256",
          "name": "_withdrawFeePerMille",
          "type": "uint256"
        },
        {
          "internalType": "uint256",
          "name": "_depositFeePerMille",
          "type": "uint256"
        },
        {
          "internalType": "uint256",
          "name": "_mintFeePerMille",
          "type": "uint256"
        },
        {
          "internalType": "uint256",
          "name": "_burnFeePerMille",
          "type": "uint256"
        }
      ],
      "name": "setFees",
      "outputs": [],
      "stateMutability": "nonpayable",
      "type": "function"
    },
    {
      "inputs": [
        {
          "internalType": "address",
          "name": "token",
          "type": "address"
        }
      ],
      "name": "setFxToken",
      "outputs": [],
      "stateMutability": "nonpayable",
      "type": "function"
    },
    {
      "inputs": [
        {
          "internalType": "address",
          "name": "token",
          "type": "address"
        },
        {
          "internalType": "address",
          "name": "oracle",
          "type": "address"
        }
      ],
      "name": "setOracle",
      "outputs": [],
      "stateMutability": "nonpayable",
      "type": "function"
    },
    {
      "inputs": [
        {
          "internalType": "bool",
          "name": "value",
          "type": "bool"
        }
      ],
      "name": "setPaused",
      "outputs": [],
      "stateMutability": "nonpayable",
      "type": "function"
    },
    {
      "inputs": [
        {
          "internalType": "bytes4",
          "name": "interfaceId",
          "type": "bytes4"
        }
      ],
      "name": "supportsInterface",
      "outputs": [
        {
          "internalType": "bool",
          "name": "",
          "type": "bool"
        }
      ],
      "stateMutability": "view",
      "type": "function"
    },
    {
      "inputs": [
        {
          "internalType": "address",
          "name": "",
          "type": "address"
        }
      ],
      "name": "totalBalances",
      "outputs": [
        {
          "internalType": "uint256",
          "name": "",
          "type": "uint256"
        }
      ],
      "stateMutability": "view",
      "type": "function"
    },
    {
      "inputs": [],
      "name": "treasury",
      "outputs": [
        {
          "internalType": "address payable",
          "name": "",
          "type": "address"
        }
      ],
      "stateMutability": "view",
      "type": "function"
    },
    {
      "inputs": [
        {
          "internalType": "address",
          "name": "account",
          "type": "address"
        },
        {
          "internalType": "uint256",
          "name": "amount",
          "type": "uint256"
        },
        {
          "internalType": "address",
          "name": "fxToken",
          "type": "address"
        },
        {
          "internalType": "address",
          "name": "collateralToken",
          "type": "address"
        },
        {
          "internalType": "bool",
          "name": "increase",
          "type": "bool"
        }
      ],
      "name": "updateCollateralBalance",
      "outputs": [],
      "stateMutability": "nonpayable",
      "type": "function"
    },
    {
      "inputs": [
        {
          "internalType": "address",
          "name": "account",
          "type": "address"
        },
        {
          "internalType": "uint256",
          "name": "amount",
          "type": "uint256"
        },
        {
          "internalType": "address",
          "name": "fxToken",
          "type": "address"
        },
        {
          "internalType": "bool",
          "name": "increase",
          "type": "bool"
        }
      ],
      "name": "updateDebtPosition",
      "outputs": [],
      "stateMutability": "nonpayable",
      "type": "function"
    },
    {
      "inputs": [
        {
          "internalType": "address",
          "name": "newImplementation",
          "type": "address"
        }
      ],
      "name": "upgradeTo",
      "outputs": [],
      "stateMutability": "nonpayable",
      "type": "function"
    },
    {
      "inputs": [
        {
          "internalType": "address",
          "name": "newImplementation",
          "type": "address"
        },
        {
          "internalType": "bytes",
          "name": "data",
          "type": "bytes"
        }
      ],
      "name": "upgradeToAndCall",
      "outputs": [],
      "stateMutability": "payable",
      "type": "function"
    },
    {
      "inputs": [],
      "name": "vaultLibrary",
      "outputs": [
        {
          "internalType": "address",
          "name": "",
          "type": "address"
        }
      ],
      "stateMutability": "view",
      "type": "function"
    },
    {
      "inputs": [
        {
          "internalType": "address",
          "name": "",
          "type": "address"
        },
        {
          "internalType": "address",
          "name": "",
          "type": "address"
        }
      ],
      "name": "vaults",
      "outputs": [
        {
          "internalType": "uint256",
          "name": "debt",
          "type": "uint256"
        }
      ],
      "stateMutability": "view",
      "type": "function"
    },
    {
      "inputs": [],
      "name": "withdrawFeePerMille",
      "outputs": [
        {
          "internalType": "uint256",
          "name": "",
          "type": "uint256"
        }
      ],
      "stateMutability": "view",
      "type": "function"
    }
  ],
  "bytecode": "0x608060405234801561001057600080fd5b5061627580620000216000396000f3fe60806040526004361061031a5760003560e01c8063877034f1116101ab578063b187bd26116100f7578063d4fac45d11610095578063e75fd0b51161006f578063e75fd0b514610c38578063eb0a8b9114610c63578063ec94578e14610c8e578063f5b541a614610cb95761031a565b8063d4fac45d14610ba8578063d547741f14610be6578063e74b981b14610c0f5761031a565b8063c462b520116100d1578063c462b52014610adc578063c4d66de814610b19578063cf07947d14610b42578063d02641a014610b6b5761031a565b8063b187bd2614610a49578063bd9e520014610a74578063c392f76614610ab15761031a565b8063a0f026ff11610164578063a364c9721161013e578063a364c9721461097b578063ad5c4648146109a4578063addd5099146109cf578063aee9c87214610a0c5761031a565b8063a0f026ff146108d6578063a217fddf14610913578063a300733d1461093e5761031a565b8063877034f1146107c657806391d14854146107ef57806394f9059f1461082c5780639931286d146108555780639cfd9669146108805780639df5138a146108ab5761031a565b80634046ebae1161026a5780635eb0ac1a116102235780636fcba377116101fd5780636fcba3771461070c578063732409931461073557806375b238fc1461075e578063803c97b3146107895761031a565b80635eb0ac1a1461068d5780635fe3b567146106b657806361d027b3146106e15761031a565b80634046ebae1461057857806341e3f281146105a3578063498b5ae8146105ce5780634d635e701461060b5780634f1ef286146106485780635c38eb3a146106645761031a565b806327ab02b9116102d75780632f2ff15d116102b15780632f2ff15d146104c057806331695c4e146104e957806336568abe146105265780633659cfe61461054f5761031a565b806327ab02b914610441578063294d499e1461046c5780632b455759146104975761031a565b806301964f361461031f57806301ffc9a71461034a5780631441a5a91461038757806316c38b3c146103b2578063181e20a7146103db578063248a9ca314610404575b600080fd5b34801561032b57600080fd5b50610334610ce4565b604051610341919061599b565b60405180910390f35b34801561035657600080fd5b50610371600480360381019061036c919061502d565b610ceb565b60405161037e9190615708565b60405180910390f35b34801561039357600080fd5b5061039c610d65565b6040516103a99190615627565b60405180910390f35b3480156103be57600080fd5b506103d960048036038101906103d49190614f9f565b610d8c565b005b3480156103e757600080fd5b5061040260048036038101906103fd9190614db5565b610e13565b005b34801561041057600080fd5b5061042b60048036038101906104269190614fc8565b6111ec565b6040516104389190615723565b60405180910390f35b34801561044d57600080fd5b5061045661120c565b6040516104639190615627565b60405180910390f35b34801561047857600080fd5b50610481611233565b60405161048e91906156af565b60405180910390f35b3480156104a357600080fd5b506104be60048036038101906104b99190614cad565b6112c1565b005b3480156104cc57600080fd5b506104e760048036038101906104e29190614ff1565b6116c2565b005b3480156104f557600080fd5b50610510600480360381019061050b9190614d12565b6116eb565b60405161051d919061599b565b60405180910390f35b34801561053257600080fd5b5061054d60048036038101906105489190614ff1565b6117b4565b005b34801561055b57600080fd5b5061057660048036038101906105719190614cad565b611837565b005b34801561058457600080fd5b5061058d61185e565b60405161059a9190615627565b60405180910390f35b3480156105af57600080fd5b506105b8611885565b6040516105c5919061599b565b60405180910390f35b3480156105da57600080fd5b506105f560048036038101906105f09190614cd6565b61188c565b604051610602919061599b565b60405180910390f35b34801561061757600080fd5b50610632600480360381019061062d9190614cd6565b6119db565b60405161063f919061599b565b60405180910390f35b610662600480360381019061065d9190614d61565b611a07565b005b34801561067057600080fd5b5061068b60048036038101906106869190614cd6565b611a20565b005b34801561069957600080fd5b506106b460048036038101906106af9190614ef2565b611bb5565b005b3480156106c257600080fd5b506106cb612222565b6040516106d89190615627565b60405180910390f35b3480156106ed57600080fd5b506106f6612249565b6040516107039190615642565b60405180910390f35b34801561071857600080fd5b50610733600480360381019061072e91906150a8565b612270565b005b34801561074157600080fd5b5061075c60048036038101906107579190614e8f565b6122ff565b005b34801561076a57600080fd5b50610773612623565b6040516107809190615723565b60405180910390f35b34801561079557600080fd5b506107b060048036038101906107ab9190614cad565b612647565b6040516107bd9190615708565b60405180910390f35b3480156107d257600080fd5b506107ed60048036038101906107e89190614e2c565b612667565b005b3480156107fb57600080fd5b5061081660048036038101906108119190614ff1565b612a1f565b6040516108239190615708565b60405180910390f35b34801561083857600080fd5b50610853600480360381019061084e9190614cad565b612a8a565b005b34801561086157600080fd5b5061086a612b88565b604051610877919061599b565b60405180910390f35b34801561088c57600080fd5b50610895612b8f565b6040516108a29190615627565b60405180910390f35b3480156108b757600080fd5b506108c0612bb6565b6040516108cd919061599b565b60405180910390f35b3480156108e257600080fd5b506108fd60048036038101906108f89190614cad565b612bbd565b60405161090a9190615708565b60405180910390f35b34801561091f57600080fd5b50610928612bde565b6040516109359190615723565b60405180910390f35b34801561094a57600080fd5b5061096560048036038101906109609190614cd6565b612be5565b604051610972919061599b565b60405180910390f35b34801561098757600080fd5b506109a2600480360381019061099d9190615056565b612c70565b005b3480156109b057600080fd5b506109b9612ce4565b6040516109c69190615627565b60405180910390f35b3480156109db57600080fd5b506109f660048036038101906109f19190614cad565b612d0b565b604051610a039190615627565b60405180910390f35b348015610a1857600080fd5b50610a336004803603810190610a2e9190614cad565b612d3f565b604051610a40919061599b565b60405180910390f35b348015610a5557600080fd5b50610a5e612d57565b604051610a6b9190615708565b60405180910390f35b348015610a8057600080fd5b50610a9b6004803603810190610a969190614cad565b612d6b565b604051610aa89190615980565b60405180910390f35b348015610abd57600080fd5b50610ac6612de2565b604051610ad39190615627565b60405180910390f35b348015610ae857600080fd5b50610b036004803603810190610afe9190614d12565b612e09565b604051610b10919061599b565b60405180910390f35b348015610b2557600080fd5b50610b406004803603810190610b3b9190614cad565b612ed2565b005b348015610b4e57600080fd5b50610b696004803603810190610b649190614cad565b61306a565b005b348015610b7757600080fd5b50610b926004803603810190610b8d9190614cad565b6132b1565b604051610b9f919061599b565b60405180910390f35b348015610bb457600080fd5b50610bcf6004803603810190610bca9190614cd6565b61351e565b604051610bdd9291906156d1565b60405180910390f35b348015610bf257600080fd5b50610c0d6004803603810190610c089190614ff1565b613712565b005b348015610c1b57600080fd5b50610c366004803603810190610c319190614cad565b61373b565b005b348015610c4457600080fd5b50610c4d61385b565b604051610c5a919061599b565b60405180910390f35b348015610c6f57600080fd5b50610c78613862565b604051610c859190615627565b60405180910390f35b348015610c9a57600080fd5b50610ca3613889565b604051610cb09190615627565b60405180910390f35b348015610cc557600080fd5b50610cce6138b0565b604051610cdb9190615723565b60405180910390f35b6101025481565b60007f7965db0b000000000000000000000000000000000000000000000000000000007bffffffffffffffffffffffffffffffffffffffffffffffffffffffff1916827bffffffffffffffffffffffffffffffffffffffffffffffffffffffff19161480610d5e5750610d5d826138d4565b5b9050919050565b61011160009054906101000a900473ffffffffffffffffffffffffffffffffffffffff1681565b610db67fa49807205ce4d355092ef5a8a18f56e8913cf4a201fbe287825b095693c2177533612a1f565b610df5576040517f08c379a0000000000000000000000000000000000000000000000000000000008152600401610dec90615900565b60405180910390fd5b8061010a60006101000a81548160ff02191690831515021790555050565b610e3d7f97667070c54ef182b0f5858b034beac1b6f3089aa2d3188bb1e8929f4fa9b92933612a1f565b610e7c576040517f08c379a0000000000000000000000000000000000000000000000000000000008152600401610e73906157c0565b60405180910390fd5b61010a60009054906101000a900460ff1615610ecd576040517f08c379a0000000000000000000000000000000000000000000000000000000008152600401610ec490615780565b60405180910390fd5b600061010160008773ffffffffffffffffffffffffffffffffffffffff1673ffffffffffffffffffffffffffffffffffffffff16815260200190815260200160002060008573ffffffffffffffffffffffffffffffffffffffff1673ffffffffffffffffffffffffffffffffffffffff16815260200190815260200160002060000160008473ffffffffffffffffffffffffffffffffffffffff1673ffffffffffffffffffffffffffffffffffffffff16815260200190815260200160002054905081610fac57610fa7858261393e90919063ffffffff16565b610fc0565b610fbf858261395490919063ffffffff16565b5b61010160008873ffffffffffffffffffffffffffffffffffffffff1673ffffffffffffffffffffffffffffffffffffffff16815260200190815260200160002060008673ffffffffffffffffffffffffffffffffffffffff1673ffffffffffffffffffffffffffffffffffffffff16815260200190815260200160002060000160008573ffffffffffffffffffffffffffffffffffffffff1673ffffffffffffffffffffffffffffffffffffffff16815260200190815260200160002081905550816110dd576110d88560fe60008673ffffffffffffffffffffffffffffffffffffffff1673ffffffffffffffffffffffffffffffffffffffff1681526020019081526020016000205461393e90919063ffffffff16565b611130565b61112f8560fe60008673ffffffffffffffffffffffffffffffffffffffff1673ffffffffffffffffffffffffffffffffffffffff1681526020019081526020016000205461395490919063ffffffff16565b5b60fe60008573ffffffffffffffffffffffffffffffffffffffff1673ffffffffffffffffffffffffffffffffffffffff168152602001908152602001600020819055508273ffffffffffffffffffffffffffffffffffffffff168473ffffffffffffffffffffffffffffffffffffffff168773ffffffffffffffffffffffffffffffffffffffff167f2027a0219b5bbff94e3a2050ec5c3ab5fafaaffe9c131dd57d2366b04423eff360405160405180910390a4505050505050565b600060c96000838152602001908152602001600020600101549050919050565b61010d60009054906101000a900473ffffffffffffffffffffffffffffffffffffffff1681565b606060fb8054806020026020016040519081016040528092919081815260200182805480156112b757602002820191906000526020600020905b8160009054906101000a900473ffffffffffffffffffffffffffffffffffffffff1673ffffffffffffffffffffffffffffffffffffffff168152602001906001019080831161126d575b5050505050905090565b6112eb7fa49807205ce4d355092ef5a8a18f56e8913cf4a201fbe287825b095693c2177533612a1f565b61132a576040517f08c379a000000000000000000000000000000000000000000000000000000000815260040161132190615900565b60405180910390fd5b600060ff80549050905060005b818110156113f2578273ffffffffffffffffffffffffffffffffffffffff1660ff8281548110611390577f4e487b7100000000000000000000000000000000000000000000000000000000600052603260045260246000fd5b9060005260206000200160009054906101000a900473ffffffffffffffffffffffffffffffffffffffff1673ffffffffffffffffffffffffffffffffffffffff1614156113df578091506113f2565b80806113ea90615d24565b915050611337565b5060ff80549050811061142e577f4e487b7100000000000000000000000000000000000000000000000000000000600052600160045260246000fd5b61010060008373ffffffffffffffffffffffffffffffffffffffff1673ffffffffffffffffffffffffffffffffffffffff16815260200190815260200160002060006101000a81549060ff0219169055600160ff805490506114909190615bc3565b8110156116015760ff600160ff805490506114ab9190615bc3565b815481106114e2577f4e487b7100000000000000000000000000000000000000000000000000000000600052603260045260246000fd5b9060005260206000200160009054906101000a900473ffffffffffffffffffffffffffffffffffffffff1660ff8281548110611547577f4e487b7100000000000000000000000000000000000000000000000000000000600052603260045260246000fd5b9060005260206000200160006101000a81548173ffffffffffffffffffffffffffffffffffffffff021916908373ffffffffffffffffffffffffffffffffffffffff16021790555060ff8054806115c7577f4e487b7100000000000000000000000000000000000000000000000000000000600052603160045260246000fd5b6001900381819060005260206000200160006101000a81549073ffffffffffffffffffffffffffffffffffffffff0219169055905561166f565b60ff805480611639577f4e487b7100000000000000000000000000000000000000000000000000000000600052603160045260246000fd5b6001900381819060005260206000200160006101000a81549073ffffffffffffffffffffffffffffffffffffffff021916905590555b8173ffffffffffffffffffffffffffffffffffffffff167ffb41d6cdd88df98fceed3d16a841a5d7353cd0f003ab68854b734248bfdee04d60016040516116b69190615708565b60405180910390a25050565b6116cb826111ec565b6116dc816116d761396a565b613972565b6116e68383613a0f565b505050565b600061010160008573ffffffffffffffffffffffffffffffffffffffff1673ffffffffffffffffffffffffffffffffffffffff16815260200190815260200160002060008473ffffffffffffffffffffffffffffffffffffffff1673ffffffffffffffffffffffffffffffffffffffff16815260200190815260200160002060020160008373ffffffffffffffffffffffffffffffffffffffff1673ffffffffffffffffffffffffffffffffffffffff1681526020019081526020016000205490509392505050565b6117bc61396a565b73ffffffffffffffffffffffffffffffffffffffff168173ffffffffffffffffffffffffffffffffffffffff1614611829576040517f08c379a000000000000000000000000000000000000000000000000000000000815260040161182090615960565b60405180910390fd5b6118338282613af0565b5050565b61184081613bd2565b61185b81604051806020016040528060008152506000613c3e565b50565b61010f60009054906101000a900473ffffffffffffffffffffffffffffffffffffffff1681565b6101055481565b60008061010160008573ffffffffffffffffffffffffffffffffffffffff1673ffffffffffffffffffffffffffffffffffffffff16815260200190815260200160002060008473ffffffffffffffffffffffffffffffffffffffff1673ffffffffffffffffffffffffffffffffffffffff1681526020019081526020016000206001015490506119d261010c60009054906101000a900473ffffffffffffffffffffffffffffffffffffffff1673ffffffffffffffffffffffffffffffffffffffff16638709294086866040518363ffffffff1660e01b815260040161197392919061565d565b60206040518083038186803b15801561198b57600080fd5b505afa15801561199f573d6000803e3d6000fd5b505050506040513d601f19601f820116820180604052508101906119c3919061507f565b8261395490919063ffffffff16565b91505092915050565b610101602052816000526040600020602052806000526040600020600091509150508060010154905081565b611a1082613bd2565b611a1c82826001613c3e565b5050565b611a4a7fa49807205ce4d355092ef5a8a18f56e8913cf4a201fbe287825b095693c2177533612a1f565b611a89576040517f08c379a0000000000000000000000000000000000000000000000000000000008152600401611a8090615900565b60405180910390fd5b600073ffffffffffffffffffffffffffffffffffffffff168273ffffffffffffffffffffffffffffffffffffffff1614158015611af35750600073ffffffffffffffffffffffffffffffffffffffff168173ffffffffffffffffffffffffffffffffffffffff1614155b611b32576040517f08c379a0000000000000000000000000000000000000000000000000000000008152600401611b2990615820565b60405180910390fd5b8061010960008473ffffffffffffffffffffffffffffffffffffffff1673ffffffffffffffffffffffffffffffffffffffff16815260200190815260200160002060006101000a81548173ffffffffffffffffffffffffffffffffffffffff021916908373ffffffffffffffffffffffffffffffffffffffff1602179055505050565b611bdf7fa49807205ce4d355092ef5a8a18f56e8913cf4a201fbe287825b095693c2177533612a1f565b611c1e576040517f08c379a0000000000000000000000000000000000000000000000000000000008152600401611c1590615900565b60405180910390fd5b60008151905060005b81811015611cf257600073ffffffffffffffffffffffffffffffffffffffff16838281518110611c80577f4e487b7100000000000000000000000000000000000000000000000000000000600052603260045260246000fd5b602002602001015173ffffffffffffffffffffffffffffffffffffffff161415611cdf576040517f08c379a0000000000000000000000000000000000000000000000000000000008152600401611cd6906157a0565b60405180910390fd5b8080611cea90615d24565b915050611c27565b5081600081518110611d2d577f4e487b7100000000000000000000000000000000000000000000000000000000600052603260045260246000fd5b602002602001015161010a60016101000a81548173ffffffffffffffffffffffffffffffffffffffff021916908373ffffffffffffffffffffffffffffffffffffffff16021790555081600181518110611db0577f4e487b7100000000000000000000000000000000000000000000000000000000600052603260045260246000fd5b602002602001015161010b60006101000a81548173ffffffffffffffffffffffffffffffffffffffff021916908373ffffffffffffffffffffffffffffffffffffffff16021790555081600281518110611e33577f4e487b7100000000000000000000000000000000000000000000000000000000600052603260045260246000fd5b602002602001015161010c60006101000a81548173ffffffffffffffffffffffffffffffffffffffff021916908373ffffffffffffffffffffffffffffffffffffffff16021790555081600381518110611eb6577f4e487b7100000000000000000000000000000000000000000000000000000000600052603260045260246000fd5b602002602001015161010d60006101000a81548173ffffffffffffffffffffffffffffffffffffffff021916908373ffffffffffffffffffffffffffffffffffffffff16021790555081600481518110611f39577f4e487b7100000000000000000000000000000000000000000000000000000000600052603260045260246000fd5b602002602001015161010e60006101000a81548173ffffffffffffffffffffffffffffffffffffffff021916908373ffffffffffffffffffffffffffffffffffffffff16021790555081600581518110611fbc577f4e487b7100000000000000000000000000000000000000000000000000000000600052603260045260246000fd5b602002602001015161010f60006101000a81548173ffffffffffffffffffffffffffffffffffffffff021916908373ffffffffffffffffffffffffffffffffffffffff1602179055508160068151811061203f577f4e487b7100000000000000000000000000000000000000000000000000000000600052603260045260246000fd5b602002602001015161011060006101000a81548173ffffffffffffffffffffffffffffffffffffffff021916908373ffffffffffffffffffffffffffffffffffffffff160217905550816007815181106120c2577f4e487b7100000000000000000000000000000000000000000000000000000000600052603260045260246000fd5b602002602001015161011160006101000a81548173ffffffffffffffffffffffffffffffffffffffff021916908373ffffffffffffffffffffffffffffffffffffffff16021790555060005b600781101561221d5760028114806121265750600381145b156121305761220a565b61219a7f97667070c54ef182b0f5858b034beac1b6f3089aa2d3188bb1e8929f4fa9b92984838151811061218d577f4e487b7100000000000000000000000000000000000000000000000000000000600052603260045260246000fd5b6020026020010151612a1f565b612209576122087f97667070c54ef182b0f5858b034beac1b6f3089aa2d3188bb1e8929f4fa9b9298483815181106121fb577f4e487b7100000000000000000000000000000000000000000000000000000000600052603260045260246000fd5b60200260200101516116c2565b5b5b808061221590615d24565b91505061210e565b505050565b61010b60009054906101000a900473ffffffffffffffffffffffffffffffffffffffff1681565b61010a60019054906101000a900473ffffffffffffffffffffffffffffffffffffffff1681565b61229a7fa49807205ce4d355092ef5a8a18f56e8913cf4a201fbe287825b095693c2177533612a1f565b6122d9576040517f08c379a00000000000000000000000000000000000000000000000000000000081526004016122d090615900565b60405180910390fd5b836101058190555082610106819055508061010481905550816101038190555050505050565b6123297f97667070c54ef182b0f5858b034beac1b6f3089aa2d3188bb1e8929f4fa9b92933612a1f565b8061235a57506123597fa49807205ce4d355092ef5a8a18f56e8913cf4a201fbe287825b095693c2177533612a1f565b5b612399576040517f08c379a000000000000000000000000000000000000000000000000000000000815260040161239090615800565b60405180910390fd5b606e8310156123dd576040517f08c379a00000000000000000000000000000000000000000000000000000000081526004016123d490615840565b60405180910390fd5b600060fd60008673ffffffffffffffffffffffffffffffffffffffff1673ffffffffffffffffffffffffffffffffffffffff16815260200190815260200160002090506000816000015414156124915760fb859080600181540180825580915050600190039060005260206000200160009091909190916101000a81548173ffffffffffffffffffffffffffffffffffffffff021916908373ffffffffffffffffffffffffffffffffffffffff1602179055505b60fc60008673ffffffffffffffffffffffffffffffffffffffff1673ffffffffffffffffffffffffffffffffffffffff16815260200190815260200160002060009054906101000a900460ff1661253b57600160fc60008773ffffffffffffffffffffffffffffffffffffffff1673ffffffffffffffffffffffffffffffffffffffff16815260200190815260200160002060006101000a81548160ff0219169083151502179055505b61011060009054906101000a900473ffffffffffffffffffffffffffffffffffffffff1673ffffffffffffffffffffffffffffffffffffffff1663551619136040518163ffffffff1660e01b8152600401600060405180830381600087803b1580156125a657600080fd5b505af11580156125ba573d6000803e3d6000fd5b505050508381600001819055508281600101819055508181600201819055508473ffffffffffffffffffffffffffffffffffffffff167f38bfbff5a2ab4e85e1292bfc75e2e0b39855907deca3889448ce609117c8530f60405160405180910390a25050505050565b7fa49807205ce4d355092ef5a8a18f56e8913cf4a201fbe287825b095693c2177581565b60fc6020528060005260406000206000915054906101000a900460ff1681565b6126917f97667070c54ef182b0f5858b034beac1b6f3089aa2d3188bb1e8929f4fa9b92933612a1f565b6126d0576040517f08c379a00000000000000000000000000000000000000000000000000000000081526004016126c7906157c0565b60405180910390fd5b61010a60009054906101000a900460ff1615612721576040517f08c379a000000000000000000000000000000000000000000000000000000000815260040161271890615780565b60405180910390fd5b61011060009054906101000a900473ffffffffffffffffffffffffffffffffffffffff1673ffffffffffffffffffffffffffffffffffffffff1663551619136040518163ffffffff1660e01b8152600401600060405180830381600087803b15801561278c57600080fd5b505af11580156127a0573d6000803e3d6000fd5b5050505060006127b0858461188c565b9050600061010c60009054906101000a900473ffffffffffffffffffffffffffffffffffffffff1673ffffffffffffffffffffffffffffffffffffffff16638709294087866040518363ffffffff1660e01b815260040161281292919061565d565b60206040518083038186803b15801561282a57600080fd5b505afa15801561283e573d6000803e3d6000fd5b505050506040513d601f19601f82011682018060405250810190612862919061507f565b905060008111156128fe578373ffffffffffffffffffffffffffffffffffffffff166340c10f1961010760009054906101000a900473ffffffffffffffffffffffffffffffffffffffff16836040518363ffffffff1660e01b81526004016128cb929190615686565b600060405180830381600087803b1580156128e557600080fd5b505af11580156128f9573d6000803e3d6000fd5b505050505b6129088685613e52565b8261292557612920858361393e90919063ffffffff16565b612939565b612938858361395490919063ffffffff16565b5b61010160008873ffffffffffffffffffffffffffffffffffffffff1673ffffffffffffffffffffffffffffffffffffffff16815260200190815260200160002060008673ffffffffffffffffffffffffffffffffffffffff1673ffffffffffffffffffffffffffffffffffffffff168152602001908152602001600020600101819055508373ffffffffffffffffffffffffffffffffffffffff168673ffffffffffffffffffffffffffffffffffffffff167f2d1a59a877ca0f4ce2a4bff5fdbf6e60dabcd7a049afa997fdc2f61bebc68c3860405160405180910390a3505050505050565b600060c9600084815260200190815260200160002060000160008373ffffffffffffffffffffffffffffffffffffffff1673ffffffffffffffffffffffffffffffffffffffff16815260200190815260200160002060009054906101000a900460ff16905092915050565b612ab47fa49807205ce4d355092ef5a8a18f56e8913cf4a201fbe287825b095693c2177533612a1f565b612af3576040517f08c379a0000000000000000000000000000000000000000000000000000000008152600401612aea90615900565b60405180910390fd5b60fc60008273ffffffffffffffffffffffffffffffffffffffff1673ffffffffffffffffffffffffffffffffffffffff16815260200190815260200160002060006101000a81549060ff02191690558073ffffffffffffffffffffffffffffffffffffffff167f38bfbff5a2ab4e85e1292bfc75e2e0b39855907deca3889448ce609117c8530f60405160405180910390a250565b6101035481565b61010e60009054906101000a900473ffffffffffffffffffffffffffffffffffffffff1681565b6101065481565b6101006020528060005260406000206000915054906101000a900460ff1681565b6000801b81565b600061010160008473ffffffffffffffffffffffffffffffffffffffff1673ffffffffffffffffffffffffffffffffffffffff16815260200190815260200160002060008373ffffffffffffffffffffffffffffffffffffffff1673ffffffffffffffffffffffffffffffffffffffff16815260200190815260200160002060010154905092915050565b612c9a7fa49807205ce4d355092ef5a8a18f56e8913cf4a201fbe287825b095693c2177533612a1f565b612cd9576040517f08c379a0000000000000000000000000000000000000000000000000000000008152600401612cd090615900565b60405180910390fd5b806101028190555050565b61010860009054906101000a900473ffffffffffffffffffffffffffffffffffffffff1681565b6101096020528060005260406000206000915054906101000a900473ffffffffffffffffffffffffffffffffffffffff1681565b60fe6020528060005260406000206000915090505481565b61010a60009054906101000a900460ff1681565b612d736149cf565b60fd60008373ffffffffffffffffffffffffffffffffffffffff1673ffffffffffffffffffffffffffffffffffffffff16815260200190815260200160002060405180606001604052908160008201548152602001600182015481526020016002820154815250509050919050565b61011060009054906101000a900473ffffffffffffffffffffffffffffffffffffffff1681565b600061010160008573ffffffffffffffffffffffffffffffffffffffff1673ffffffffffffffffffffffffffffffffffffffff16815260200190815260200160002060008373ffffffffffffffffffffffffffffffffffffffff1673ffffffffffffffffffffffffffffffffffffffff16815260200190815260200160002060000160008473ffffffffffffffffffffffffffffffffffffffff1673ffffffffffffffffffffffffffffffffffffffff1681526020019081526020016000205490509392505050565b600060019054906101000a900460ff1680612ef8575060008054906101000a900460ff16155b612f37576040517f08c379a0000000000000000000000000000000000000000000000000000000008152600401612f2e90615860565b60405180910390fd5b60008060019054906101000a900460ff161590508015612f87576001600060016101000a81548160ff02191690831515021790555060016000806101000a81548160ff0219169083151502179055505b612f8f614073565b612fb97fa49807205ce4d355092ef5a8a18f56e8913cf4a201fbe287825b095693c2177533614164565b6130037f97667070c54ef182b0f5858b034beac1b6f3089aa2d3188bb1e8929f4fa9b9297fa49807205ce4d355092ef5a8a18f56e8913cf4a201fbe287825b095693c21775614172565b8161010860006101000a81548173ffffffffffffffffffffffffffffffffffffffff021916908373ffffffffffffffffffffffffffffffffffffffff16021790555080156130665760008060016101000a81548160ff0219169083151502179055505b5050565b6130947fa49807205ce4d355092ef5a8a18f56e8913cf4a201fbe287825b095693c2177533612a1f565b6130d3576040517f08c379a00000000000000000000000000000000000000000000000000000000081526004016130ca90615900565b60405180910390fd5b600073ffffffffffffffffffffffffffffffffffffffff168173ffffffffffffffffffffffffffffffffffffffff161415613143576040517f08c379a000000000000000000000000000000000000000000000000000000000815260040161313a90615920565b60405180910390fd5b6001151561010060008373ffffffffffffffffffffffffffffffffffffffff1673ffffffffffffffffffffffffffffffffffffffff16815260200190815260200160002060009054906101000a900460ff16151514156131a2576132ae565b60ff819080600181540180825580915050600190039060005260206000200160009091909190916101000a81548173ffffffffffffffffffffffffffffffffffffffff021916908373ffffffffffffffffffffffffffffffffffffffff160217905550600161010060008373ffffffffffffffffffffffffffffffffffffffff1673ffffffffffffffffffffffffffffffffffffffff16815260200190815260200160002060006101000a81548160ff0219169083151502179055508073ffffffffffffffffffffffffffffffffffffffff167ffb41d6cdd88df98fceed3d16a841a5d7353cd0f003ab68854b734248bfdee04d60006040516132a59190615708565b60405180910390a25b50565b600061010860009054906101000a900473ffffffffffffffffffffffffffffffffffffffff1673ffffffffffffffffffffffffffffffffffffffff168273ffffffffffffffffffffffffffffffffffffffff16141561331a57670de0b6b3a76400009050613519565b600073ffffffffffffffffffffffffffffffffffffffff1661010960008473ffffffffffffffffffffffffffffffffffffffff1673ffffffffffffffffffffffffffffffffffffffff16815260200190815260200160002060009054906101000a900473ffffffffffffffffffffffffffffffffffffffff1673ffffffffffffffffffffffffffffffffffffffff1614156133ea576040517f08c379a00000000000000000000000000000000000000000000000000000000081526004016133e190615880565b60405180910390fd5b61010960008373ffffffffffffffffffffffffffffffffffffffff1673ffffffffffffffffffffffffffffffffffffffff16815260200190815260200160002060009054906101000a900473ffffffffffffffffffffffffffffffffffffffff1673ffffffffffffffffffffffffffffffffffffffff166337cef791836040518263ffffffff1660e01b81526004016134839190615627565b60206040518083038186803b15801561349b57600080fd5b505afa1580156134af573d6000803e3d6000fd5b505050506040513d601f19601f820116820180604052508101906134d3919061507f565b905060008111613518576040517f08c379a000000000000000000000000000000000000000000000000000000000815260040161350f90615940565b60405180910390fd5b5b919050565b606080613529611233565b915060008251905060008167ffffffffffffffff811115613573577f4e487b7100000000000000000000000000000000000000000000000000000000600052604160045260246000fd5b6040519080825280602002602001820160405280156135a15781602001602082028036833780820191505090505b50905060005b828110156137055761010160008873ffffffffffffffffffffffffffffffffffffffff1673ffffffffffffffffffffffffffffffffffffffff16815260200190815260200160002060008773ffffffffffffffffffffffffffffffffffffffff1673ffffffffffffffffffffffffffffffffffffffff168152602001908152602001600020600001600086838151811061366a577f4e487b7100000000000000000000000000000000000000000000000000000000600052603260045260246000fd5b602002602001015173ffffffffffffffffffffffffffffffffffffffff1673ffffffffffffffffffffffffffffffffffffffff168152602001908152602001600020548282815181106136e6577f4e487b7100000000000000000000000000000000000000000000000000000000600052603260045260246000fd5b60200260200101818152505080806136fd90615d24565b9150506135a7565b5080925050509250929050565b61371b826111ec565b61372c8161372761396a565b613972565b6137368383613af0565b505050565b6137657fa49807205ce4d355092ef5a8a18f56e8913cf4a201fbe287825b095693c2177533612a1f565b6137a4576040517f08c379a000000000000000000000000000000000000000000000000000000000815260040161379b90615900565b60405180910390fd5b80600073ffffffffffffffffffffffffffffffffffffffff168173ffffffffffffffffffffffffffffffffffffffff161415613815576040517f08c379a000000000000000000000000000000000000000000000000000000000815260040161380c906158e0565b60405180910390fd5b8161010760006101000a81548173ffffffffffffffffffffffffffffffffffffffff021916908373ffffffffffffffffffffffffffffffffffffffff1602179055505050565b6101045481565b61010c60009054906101000a900473ffffffffffffffffffffffffffffffffffffffff1681565b61010760009054906101000a900473ffffffffffffffffffffffffffffffffffffffff1681565b7f97667070c54ef182b0f5858b034beac1b6f3089aa2d3188bb1e8929f4fa9b92981565b60007f01ffc9a7000000000000000000000000000000000000000000000000000000007bffffffffffffffffffffffffffffffffffffffffffffffffffffffff1916827bffffffffffffffffffffffffffffffffffffffffffffffffffffffff1916149050919050565b6000818361394c9190615bc3565b905092915050565b600081836139629190615b13565b905092915050565b600033905090565b61397c8282612a1f565b613a0b576139a18173ffffffffffffffffffffffffffffffffffffffff1660146141c8565b6139af8360001c60206141c8565b6040516020016139c09291906155ed565b6040516020818303038152906040526040517f08c379a0000000000000000000000000000000000000000000000000000000008152600401613a02919061573e565b60405180910390fd5b5050565b613a198282612a1f565b613aec57600160c9600084815260200190815260200160002060000160008373ffffffffffffffffffffffffffffffffffffffff1673ffffffffffffffffffffffffffffffffffffffff16815260200190815260200160002060006101000a81548160ff021916908315150217905550613a9161396a565b73ffffffffffffffffffffffffffffffffffffffff168173ffffffffffffffffffffffffffffffffffffffff16837f2f8788117e7eff1d82e926ec794901d17c78024a50270940304540a733656f0d60405160405180910390a45b5050565b613afa8282612a1f565b15613bce57600060c9600084815260200190815260200160002060000160008373ffffffffffffffffffffffffffffffffffffffff1673ffffffffffffffffffffffffffffffffffffffff16815260200190815260200160002060006101000a81548160ff021916908315150217905550613b7361396a565b73ffffffffffffffffffffffffffffffffffffffff168173ffffffffffffffffffffffffffffffffffffffff16837ff6391f5c32d9c69d2a47ea670b442974b53935d1edc7fd64eb21e047a839171b60405160405180910390a45b5050565b613bfc7fa49807205ce4d355092ef5a8a18f56e8913cf4a201fbe287825b095693c2177533612a1f565b613c3b576040517f08c379a0000000000000000000000000000000000000000000000000000000008152600401613c3290615900565b60405180910390fd5b50565b6000613c486144c2565b9050613c5384614519565b600083511180613c605750815b15613c7157613c6f84846145d2565b505b6000613c9f7f4910fdfa16fed3260ed0e7147f7cc6da11a60208b5b9406d12a635614ffd914360001b6146b6565b90508060000160009054906101000a900460ff16613e4b5760018160000160006101000a81548160ff021916908315150217905550613d6b8583604051602401613ce99190615627565b6040516020818303038152906040527f3659cfe6000000000000000000000000000000000000000000000000000000007bffffffffffffffffffffffffffffffffffffffffffffffffffffffff19166020820180517bffffffffffffffffffffffffffffffffffffffffffffffffffffffff83818316178352505050506145d2565b5060008160000160006101000a81548160ff021916908315150217905550613d916144c2565b73ffffffffffffffffffffffffffffffffffffffff168273ffffffffffffffffffffffffffffffffffffffff1614613dfe576040517f08c379a0000000000000000000000000000000000000000000000000000000008152600401613df5906157e0565b60405180910390fd5b613e0785614519565b8473ffffffffffffffffffffffffffffffffffffffff167fbc7cd75a20ee27fd9adebab32041f755214dbc6bffa90cc0225b39da2e5c2d3b60405160405180910390a25b5050505050565b60008061011060009054906101000a900473ffffffffffffffffffffffffffffffffffffffff1673ffffffffffffffffffffffffffffffffffffffff1663d56a5c736040518163ffffffff1660e01b815260040160006040518083038186803b158015613ebe57600080fd5b505afa158015613ed2573d6000803e3d6000fd5b505050506040513d6000823e3d601f19601f82011682018060405250810190613efb9190614f33565b91509150600081519050600061010160008773ffffffffffffffffffffffffffffffffffffffff1673ffffffffffffffffffffffffffffffffffffffff16815260200190815260200160002060008673ffffffffffffffffffffffffffffffffffffffff1673ffffffffffffffffffffffffffffffffffffffff168152602001908152602001600020905060005b8281101561406a57848181518110613fca577f4e487b7100000000000000000000000000000000000000000000000000000000600052603260045260246000fd5b6020026020010151826002016000868481518110614011577f4e487b7100000000000000000000000000000000000000000000000000000000600052603260045260246000fd5b602002602001015173ffffffffffffffffffffffffffffffffffffffff1673ffffffffffffffffffffffffffffffffffffffff16815260200190815260200160002081905550808061406290615d24565b915050613f89565b50505050505050565b600060019054906101000a900460ff1680614099575060008054906101000a900460ff16155b6140d8576040517f08c379a00000000000000000000000000000000000000000000000000000000081526004016140cf90615860565b60405180910390fd5b60008060019054906101000a900460ff161590508015614128576001600060016101000a81548160ff02191690831515021790555060016000806101000a81548160ff0219169083151502179055505b6141306146c0565b614138614799565b614140614872565b80156141615760008060016101000a81548160ff0219169083151502179055505b50565b61416e8282613a0f565b5050565b8061417c836111ec565b837fbd79b86ffe0ab8e8776151514217cd7cacd52c909f66475c3af44e129f0b00ff60405160405180910390a48060c96000848152602001908152602001600020600101819055505050565b6060600060028360026141db9190615b69565b6141e59190615b13565b67ffffffffffffffff811115614224577f4e487b7100000000000000000000000000000000000000000000000000000000600052604160045260246000fd5b6040519080825280601f01601f1916602001820160405280156142565781602001600182028036833780820191505090505b5090507f3000000000000000000000000000000000000000000000000000000000000000816000815181106142b4577f4e487b7100000000000000000000000000000000000000000000000000000000600052603260045260246000fd5b60200101907effffffffffffffffffffffffffffffffffffffffffffffffffffffffffffff1916908160001a9053507f78000000000000000000000000000000000000000000000000000000000000008160018151811061433e577f4e487b7100000000000000000000000000000000000000000000000000000000600052603260045260246000fd5b60200101907effffffffffffffffffffffffffffffffffffffffffffffffffffffffffffff1916908160001a9053506000600184600261437e9190615b69565b6143889190615b13565b90505b6001811115614474577f3031323334353637383961626364656600000000000000000000000000000000600f8616601081106143f0577f4e487b7100000000000000000000000000000000000000000000000000000000600052603260045260246000fd5b1a60f81b82828151811061442d577f4e487b7100000000000000000000000000000000000000000000000000000000600052603260045260246000fd5b60200101907effffffffffffffffffffffffffffffffffffffffffffffffffffffffffffff1916908160001a905350600485901c94508061446d90615cc9565b905061438b565b50600084146144b8576040517f08c379a00000000000000000000000000000000000000000000000000000000081526004016144af90615760565b60405180910390fd5b8091505092915050565b60006144f07f360894a13ba1a3210667c828492db98dca3e2076cc3735a920a3ca505d382bbc60001b61494b565b60000160009054906101000a900473ffffffffffffffffffffffffffffffffffffffff16905090565b61452281614955565b614561576040517f08c379a0000000000000000000000000000000000000000000000000000000008152600401614558906158a0565b60405180910390fd5b8061458e7f360894a13ba1a3210667c828492db98dca3e2076cc3735a920a3ca505d382bbc60001b61494b565b60000160006101000a81548173ffffffffffffffffffffffffffffffffffffffff021916908373ffffffffffffffffffffffffffffffffffffffff16021790555050565b60606145dd83614955565b61461c576040517f08c379a0000000000000000000000000000000000000000000000000000000008152600401614613906158c0565b60405180910390fd5b6000808473ffffffffffffffffffffffffffffffffffffffff168460405161464491906155d6565b600060405180830381855af49150503d806000811461467f576040519150601f19603f3d011682016040523d82523d6000602084013e614684565b606091505b50915091506146ac828260405180606001604052806027815260200161621960279139614968565b9250505092915050565b6000819050919050565b600060019054906101000a900460ff16806146e6575060008054906101000a900460ff16155b614725576040517f08c379a000000000000000000000000000000000000000000000000000000000815260040161471c90615860565b60405180910390fd5b60008060019054906101000a900460ff161590508015614775576001600060016101000a81548160ff02191690831515021790555060016000806101000a81548160ff0219169083151502179055505b80156147965760008060016101000a81548160ff0219169083151502179055505b50565b600060019054906101000a900460ff16806147bf575060008054906101000a900460ff16155b6147fe576040517f08c379a00000000000000000000000000000000000000000000000000000000081526004016147f590615860565b60405180910390fd5b60008060019054906101000a900460ff16159050801561484e576001600060016101000a81548160ff02191690831515021790555060016000806101000a81548160ff0219169083151502179055505b801561486f5760008060016101000a81548160ff0219169083151502179055505b50565b600060019054906101000a900460ff1680614898575060008054906101000a900460ff16155b6148d7576040517f08c379a00000000000000000000000000000000000000000000000000000000081526004016148ce90615860565b60405180910390fd5b60008060019054906101000a900460ff161590508015614927576001600060016101000a81548160ff02191690831515021790555060016000806101000a81548160ff0219169083151502179055505b80156149485760008060016101000a81548160ff0219169083151502179055505b50565b6000819050919050565b600080823b905060008111915050919050565b60608315614978578290506149c8565b60008351111561498b5782518084602001fd5b816040517f08c379a00000000000000000000000000000000000000000000000000000000081526004016149bf919061573e565b60405180910390fd5b9392505050565b60405180606001604052806000815260200160008152602001600081525090565b6000614a036149fe846159db565b6159b6565b90508083825260208201905082856020860282011115614a2257600080fd5b60005b85811015614a525781614a388882614b72565b845260208401935060208301925050600181019050614a25565b5050509392505050565b6000614a6f614a6a846159db565b6159b6565b90508083825260208201905082856020860282011115614a8e57600080fd5b60005b85811015614abe5781614aa48882614b87565b845260208401935060208301925050600181019050614a91565b5050509392505050565b6000614adb614ad684615a07565b6159b6565b90508083825260208201905082856020860282011115614afa57600080fd5b60005b85811015614b2a5781614b108882614c98565b845260208401935060208301925050600181019050614afd565b5050509392505050565b6000614b47614b4284615a33565b6159b6565b905082815260208101848484011115614b5f57600080fd5b614b6a848285615c87565b509392505050565b600081359050614b81816161a5565b92915050565b600081519050614b96816161a5565b92915050565b600082601f830112614bad57600080fd5b8135614bbd8482602086016149f0565b91505092915050565b600082601f830112614bd757600080fd5b8151614be7848260208601614a5c565b91505092915050565b600082601f830112614c0157600080fd5b8151614c11848260208601614ac8565b91505092915050565b600081359050614c29816161bc565b92915050565b600081359050614c3e816161d3565b92915050565b600081359050614c53816161ea565b92915050565b600082601f830112614c6a57600080fd5b8135614c7a848260208601614b34565b91505092915050565b600081359050614c9281616201565b92915050565b600081519050614ca781616201565b92915050565b600060208284031215614cbf57600080fd5b6000614ccd84828501614b72565b91505092915050565b60008060408385031215614ce957600080fd5b6000614cf785828601614b72565b9250506020614d0885828601614b72565b9150509250929050565b600080600060608486031215614d2757600080fd5b6000614d3586828701614b72565b9350506020614d4686828701614b72565b9250506040614d5786828701614b72565b9150509250925092565b60008060408385031215614d7457600080fd5b6000614d8285828601614b72565b925050602083013567ffffffffffffffff811115614d9f57600080fd5b614dab85828601614c59565b9150509250929050565b600080600080600060a08688031215614dcd57600080fd5b6000614ddb88828901614b72565b9550506020614dec88828901614c83565b9450506040614dfd88828901614b72565b9350506060614e0e88828901614b72565b9250506080614e1f88828901614c1a565b9150509295509295909350565b60008060008060808587031215614e4257600080fd5b6000614e5087828801614b72565b9450506020614e6187828801614c83565b9350506040614e7287828801614b72565b9250506060614e8387828801614c1a565b91505092959194509250565b60008060008060808587031215614ea557600080fd5b6000614eb387828801614b72565b9450506020614ec487828801614c83565b9350506040614ed587828801614c83565b9250506060614ee687828801614c83565b91505092959194509250565b600060208284031215614f0457600080fd5b600082013567ffffffffffffffff811115614f1e57600080fd5b614f2a84828501614b9c565b91505092915050565b60008060408385031215614f4657600080fd5b600083015167ffffffffffffffff811115614f6057600080fd5b614f6c85828601614bf0565b925050602083015167ffffffffffffffff811115614f8957600080fd5b614f9585828601614bc6565b9150509250929050565b600060208284031215614fb157600080fd5b6000614fbf84828501614c1a565b91505092915050565b600060208284031215614fda57600080fd5b6000614fe884828501614c2f565b91505092915050565b6000806040838503121561500457600080fd5b600061501285828601614c2f565b925050602061502385828601614b72565b9150509250929050565b60006020828403121561503f57600080fd5b600061504d84828501614c44565b91505092915050565b60006020828403121561506857600080fd5b600061507684828501614c83565b91505092915050565b60006020828403121561509157600080fd5b600061509f84828501614c98565b91505092915050565b600080600080608085870312156150be57600080fd5b60006150cc87828801614c83565b94505060206150dd87828801614c83565b93505060406150ee87828801614c83565b92505060606150ff87828801614c83565b91505092959194509250565b6000615117838361514a565b60208301905092915050565b600061512f83836155b8565b60208301905092915050565b61514481615c09565b82525050565b61515381615bf7565b82525050565b61516281615bf7565b82525050565b600061517382615a84565b61517d8185615aca565b935061518883615a64565b8060005b838110156151b95781516151a0888261510b565b97506151ab83615ab0565b92505060018101905061518c565b5085935050505092915050565b60006151d182615a8f565b6151db8185615adb565b93506151e683615a74565b8060005b838110156152175781516151fe8882615123565b975061520983615abd565b9250506001810190506151ea565b5085935050505092915050565b61522d81615c1b565b82525050565b61523c81615c27565b82525050565b600061524d82615a9a565b6152578185615aec565b9350615267818560208601615c96565b80840191505092915050565b600061527e82615aa5565b6152888185615af7565b9350615298818560208601615c96565b6152a181615dcb565b840191505092915050565b60006152b782615aa5565b6152c18185615b08565b93506152d1818560208601615c96565b80840191505092915050565b60006152ea602083615af7565b91506152f582615ddc565b602082019050919050565b600061530d600683615af7565b915061531882615e05565b602082019050919050565b6000615330600f83615af7565b915061533b82615e2e565b602082019050919050565b6000615353600283615af7565b915061535e82615e57565b602082019050919050565b6000615376602f83615af7565b915061538182615e80565b604082019050919050565b6000615399600283615af7565b91506153a482615ecf565b602082019050919050565b60006153bc600283615af7565b91506153c782615ef8565b602082019050919050565b60006153df600283615af7565b91506153ea82615f21565b602082019050919050565b6000615402602e83615af7565b915061540d82615f4a565b604082019050919050565b6000615425601383615af7565b915061543082615f99565b602082019050919050565b6000615448602d83615af7565b915061545382615fc2565b604082019050919050565b600061546b602683615af7565b915061547682616011565b604082019050919050565b600061548e600f83615af7565b915061549982616060565b602082019050919050565b60006154b1600283615af7565b91506154bc82616089565b602082019050919050565b60006154d4601583615af7565b91506154df826160b2565b602082019050919050565b60006154f7601783615b08565b9150615502826160db565b601782019050919050565b600061551a601383615af7565b915061552582616104565b602082019050919050565b600061553d601183615b08565b91506155488261612d565b601182019050919050565b6000615560602f83615af7565b915061556b82616156565b604082019050919050565b60608201600082015161558c60008501826155b8565b50602082015161559f60208501826155b8565b5060408201516155b260408501826155b8565b50505050565b6155c181615c7d565b82525050565b6155d081615c7d565b82525050565b60006155e28284615242565b915081905092915050565b60006155f8826154ea565b915061560482856152ac565b915061560f82615530565b915061561b82846152ac565b91508190509392505050565b600060208201905061563c6000830184615159565b92915050565b6000602082019050615657600083018461513b565b92915050565b60006040820190506156726000830185615159565b61567f6020830184615159565b9392505050565b600060408201905061569b6000830185615159565b6156a860208301846155c7565b9392505050565b600060208201905081810360008301526156c98184615168565b905092915050565b600060408201905081810360008301526156eb8185615168565b905081810360208301526156ff81846151c6565b90509392505050565b600060208201905061571d6000830184615224565b92915050565b60006020820190506157386000830184615233565b92915050565b600060208201905081810360008301526157588184615273565b905092915050565b60006020820190508181036000830152615779816152dd565b9050919050565b6000602082019050818103600083015261579981615300565b9050919050565b600060208201905081810360008301526157b981615323565b9050919050565b600060208201905081810360008301526157d981615346565b9050919050565b600060208201905081810360008301526157f981615369565b9050919050565b600060208201905081810360008301526158198161538c565b9050919050565b60006020820190508181036000830152615839816153af565b9050919050565b60006020820190508181036000830152615859816153d2565b9050919050565b60006020820190508181036000830152615879816153f5565b9050919050565b6000602082019050818103600083015261589981615418565b9050919050565b600060208201905081810360008301526158b98161543b565b9050919050565b600060208201905081810360008301526158d98161545e565b9050919050565b600060208201905081810360008301526158f981615481565b9050919050565b60006020820190508181036000830152615919816154a4565b9050919050565b60006020820190508181036000830152615939816154c7565b9050919050565b600060208201905081810360008301526159598161550d565b9050919050565b6000602082019050818103600083015261597981615553565b9050919050565b60006060820190506159956000830184615576565b92915050565b60006020820190506159b060008301846155c7565b92915050565b60006159c06159d1565b90506159cc8282615cf3565b919050565b6000604051905090565b600067ffffffffffffffff8211156159f6576159f5615d9c565b5b602082029050602081019050919050565b600067ffffffffffffffff821115615a2257615a21615d9c565b5b602082029050602081019050919050565b600067ffffffffffffffff821115615a4e57615a4d615d9c565b5b615a5782615dcb565b9050602081019050919050565b6000819050602082019050919050565b6000819050602082019050919050565b600081519050919050565b600081519050919050565b600081519050919050565b600081519050919050565b6000602082019050919050565b6000602082019050919050565b600082825260208201905092915050565b600082825260208201905092915050565b600081905092915050565b600082825260208201905092915050565b600081905092915050565b6000615b1e82615c7d565b9150615b2983615c7d565b9250827fffffffffffffffffffffffffffffffffffffffffffffffffffffffffffffffff03821115615b5e57615b5d615d6d565b5b828201905092915050565b6000615b7482615c7d565b9150615b7f83615c7d565b9250817fffffffffffffffffffffffffffffffffffffffffffffffffffffffffffffffff0483118215151615615bb857615bb7615d6d565b5b828202905092915050565b6000615bce82615c7d565b9150615bd983615c7d565b925082821015615bec57615beb615d6d565b5b828203905092915050565b6000615c0282615c5d565b9050919050565b6000615c1482615c5d565b9050919050565b60008115159050919050565b6000819050919050565b60007fffffffff0000000000000000000000000000000000000000000000000000000082169050919050565b600073ffffffffffffffffffffffffffffffffffffffff82169050919050565b6000819050919050565b82818337600083830152505050565b60005b83811015615cb4578082015181840152602081019050615c99565b83811115615cc3576000848401525b50505050565b6000615cd482615c7d565b91506000821415615ce857615ce7615d6d565b5b600182039050919050565b615cfc82615dcb565b810181811067ffffffffffffffff82111715615d1b57615d1a615d9c565b5b80604052505050565b6000615d2f82615c7d565b91507fffffffffffffffffffffffffffffffffffffffffffffffffffffffffffffffff821415615d6257615d61615d6d565b5b600182019050919050565b7f4e487b7100000000000000000000000000000000000000000000000000000000600052601160045260246000fd5b7f4e487b7100000000000000000000000000000000000000000000000000000000600052604160045260246000fd5b6000601f19601f8301169050919050565b7f537472696e67733a20686578206c656e67746820696e73756666696369656e74600082015250565b7f5061757365640000000000000000000000000000000000000000000000000000600082015250565b7f496e76616c696420616464726573730000000000000000000000000000000000600082015250565b7f4e4f000000000000000000000000000000000000000000000000000000000000600082015250565b7f45524331393637557067726164653a207570677261646520627265616b73206660008201527f7572746865722075706772616465730000000000000000000000000000000000602082015250565b7f4e57000000000000000000000000000000000000000000000000000000000000600082015250565b7f495a000000000000000000000000000000000000000000000000000000000000600082015250565b7f4352000000000000000000000000000000000000000000000000000000000000600082015250565b7f496e697469616c697a61626c653a20636f6e747261637420697320616c72656160008201527f647920696e697469616c697a6564000000000000000000000000000000000000602082015250565b7f4e6f206f7261636c6520666f7220746f6b656e00000000000000000000000000600082015250565b7f455243313936373a206e657720696d706c656d656e746174696f6e206973206e60008201527f6f74206120636f6e747261637400000000000000000000000000000000000000602082015250565b7f416464726573733a2064656c65676174652063616c6c20746f206e6f6e2d636f60008201527f6e74726163740000000000000000000000000000000000000000000000000000602082015250565b7f496e76616c696420416464726573730000000000000000000000000000000000600082015250565b7f4e41000000000000000000000000000000000000000000000000000000000000600082015250565b7f496e76616c696420746f6b656e20616464726573730000000000000000000000600082015250565b7f416363657373436f6e74726f6c3a206163636f756e7420000000000000000000600082015250565b7f546f6b656e207072696365206973207a65726f00000000000000000000000000600082015250565b7f206973206d697373696e6720726f6c6520000000000000000000000000000000600082015250565b7f416363657373436f6e74726f6c3a2063616e206f6e6c792072656e6f756e636560008201527f20726f6c657320666f722073656c660000000000000000000000000000000000602082015250565b6161ae81615bf7565b81146161b957600080fd5b50565b6161c581615c1b565b81146161d057600080fd5b50565b6161dc81615c27565b81146161e757600080fd5b50565b6161f381615c31565b81146161fe57600080fd5b50565b61620a81615c7d565b811461621557600080fd5b5056fe416464726573733a206c6f772d6c6576656c2064656c65676174652063616c6c206661696c6564a2646970667358221220f90e9b2f2c7738ffdc21ca95197ae6e020695883e073d22029d0ec0c03a233d864736f6c63430008030033",
  "linkReferences": {},
  "deployedLinkReferences": {}
}