{
  "_format": "hh-sol-artifact-1",
  "contractName": "Handle",
  "sourceName": "contracts/Bank/Handle.sol",
  "abi": [
    {
      "anonymous": false,
      "inputs": [
        {
          "indexed": false,
          "internalType": "address",
          "name": "previousAdmin",
          "type": "address"
        },
        {
          "indexed": false,
          "internalType": "address",
          "name": "newAdmin",
          "type": "address"
        }
      ],
      "name": "AdminChanged",
      "type": "event"
    },
    {
      "anonymous": false,
      "inputs": [
        {
          "indexed": true,
          "internalType": "address",
          "name": "beacon",
          "type": "address"
        }
      ],
      "name": "BeaconUpgraded",
      "type": "event"
    },
    {
      "anonymous": false,
      "inputs": [
        {
          "indexed": true,
          "internalType": "address",
          "name": "collateralToken",
          "type": "address"
        }
      ],
      "name": "ConfigureCollateralToken",
      "type": "event"
    },
    {
      "anonymous": false,
      "inputs": [
        {
          "indexed": true,
          "internalType": "address",
          "name": "fxToken",
          "type": "address"
        },
        {
          "indexed": false,
          "internalType": "bool",
          "name": "removed",
          "type": "bool"
        }
      ],
      "name": "ConfigureFxToken",
      "type": "event"
    },
    {
      "anonymous": false,
      "inputs": [
        {
          "indexed": true,
          "internalType": "bytes32",
          "name": "role",
          "type": "bytes32"
        },
        {
          "indexed": true,
          "internalType": "bytes32",
          "name": "previousAdminRole",
          "type": "bytes32"
        },
        {
          "indexed": true,
          "internalType": "bytes32",
          "name": "newAdminRole",
          "type": "bytes32"
        }
      ],
      "name": "RoleAdminChanged",
      "type": "event"
    },
    {
      "anonymous": false,
      "inputs": [
        {
          "indexed": true,
          "internalType": "bytes32",
          "name": "role",
          "type": "bytes32"
        },
        {
          "indexed": true,
          "internalType": "address",
          "name": "account",
          "type": "address"
        },
        {
          "indexed": true,
          "internalType": "address",
          "name": "sender",
          "type": "address"
        }
      ],
      "name": "RoleGranted",
      "type": "event"
    },
    {
      "anonymous": false,
      "inputs": [
        {
          "indexed": true,
          "internalType": "bytes32",
          "name": "role",
          "type": "bytes32"
        },
        {
          "indexed": true,
          "internalType": "address",
          "name": "account",
          "type": "address"
        },
        {
          "indexed": true,
          "internalType": "address",
          "name": "sender",
          "type": "address"
        }
      ],
      "name": "RoleRevoked",
      "type": "event"
    },
    {
      "anonymous": false,
      "inputs": [
        {
          "indexed": true,
          "internalType": "address",
          "name": "account",
          "type": "address"
        },
        {
          "indexed": true,
          "internalType": "address",
          "name": "fxToken",
          "type": "address"
        },
        {
          "indexed": true,
          "internalType": "address",
          "name": "collateralToken",
          "type": "address"
        }
      ],
      "name": "UpdateCollateral",
      "type": "event"
    },
    {
      "anonymous": false,
      "inputs": [
        {
          "indexed": true,
          "internalType": "address",
          "name": "account",
          "type": "address"
        },
        {
          "indexed": true,
          "internalType": "address",
          "name": "fxToken",
          "type": "address"
        }
      ],
      "name": "UpdateDebt",
      "type": "event"
    },
    {
      "anonymous": false,
      "inputs": [
        {
          "indexed": true,
          "internalType": "address",
          "name": "implementation",
          "type": "address"
        }
      ],
      "name": "Upgraded",
      "type": "event"
    },
    {
      "inputs": [],
      "name": "ADMIN_ROLE",
      "outputs": [
        {
          "internalType": "bytes32",
          "name": "",
          "type": "bytes32"
        }
      ],
      "stateMutability": "view",
      "type": "function"
    },
    {
      "inputs": [],
      "name": "DEFAULT_ADMIN_ROLE",
      "outputs": [
        {
          "internalType": "bytes32",
          "name": "",
          "type": "bytes32"
        }
      ],
      "stateMutability": "view",
      "type": "function"
    },
    {
      "inputs": [],
      "name": "FeeRecipient",
      "outputs": [
        {
          "internalType": "address",
          "name": "",
          "type": "address"
        }
      ],
      "stateMutability": "view",
      "type": "function"
    },
    {
      "inputs": [],
      "name": "OPERATOR_ROLE",
      "outputs": [
        {
          "internalType": "bytes32",
          "name": "",
          "type": "bytes32"
        }
      ],
      "stateMutability": "view",
      "type": "function"
    },
    {
      "inputs": [],
      "name": "WETH",
      "outputs": [
        {
          "internalType": "address",
          "name": "",
          "type": "address"
        }
      ],
      "stateMutability": "view",
      "type": "function"
    },
    {
      "inputs": [],
      "name": "burnFeePerMille",
      "outputs": [
        {
          "internalType": "uint256",
          "name": "",
          "type": "uint256"
        }
      ],
      "stateMutability": "view",
      "type": "function"
    },
    {
      "inputs": [],
      "name": "comptroller",
      "outputs": [
        {
          "internalType": "address",
          "name": "",
          "type": "address"
        }
      ],
      "stateMutability": "view",
      "type": "function"
    },
    {
      "inputs": [],
      "name": "depositFeePerMille",
      "outputs": [
        {
          "internalType": "uint256",
          "name": "",
          "type": "uint256"
        }
      ],
      "stateMutability": "view",
      "type": "function"
    },
    {
      "inputs": [],
      "name": "forex",
      "outputs": [
        {
          "internalType": "address",
          "name": "",
          "type": "address"
        }
      ],
      "stateMutability": "view",
      "type": "function"
    },
    {
      "inputs": [],
      "name": "fxKeeperPool",
      "outputs": [
        {
          "internalType": "address",
          "name": "",
          "type": "address"
        }
      ],
      "stateMutability": "view",
      "type": "function"
    },
    {
      "inputs": [],
      "name": "getAllCollateralTypes",
      "outputs": [
        {
          "internalType": "address[]",
          "name": "collateral",
          "type": "address[]"
        }
      ],
      "stateMutability": "view",
      "type": "function"
    },
    {
      "inputs": [
        {
          "internalType": "address",
          "name": "account",
          "type": "address"
        },
        {
          "internalType": "address",
          "name": "fxToken",
          "type": "address"
        }
      ],
      "name": "getBalance",
      "outputs": [
        {
          "internalType": "address[]",
          "name": "collateral",
          "type": "address[]"
        },
        {
          "internalType": "uint256[]",
          "name": "balances",
          "type": "uint256[]"
        }
      ],
      "stateMutability": "view",
      "type": "function"
    },
    {
      "inputs": [
        {
          "internalType": "address",
          "name": "account",
          "type": "address"
        },
        {
          "internalType": "address",
          "name": "collateralType",
          "type": "address"
        },
        {
          "internalType": "address",
          "name": "fxToken",
          "type": "address"
        }
      ],
      "name": "getCollateralBalance",
      "outputs": [
        {
          "internalType": "uint256",
          "name": "balance",
          "type": "uint256"
        }
      ],
      "stateMutability": "view",
      "type": "function"
    },
    {
      "inputs": [
        {
          "internalType": "address",
          "name": "collateral",
          "type": "address"
        }
      ],
      "name": "getCollateralDetails",
      "outputs": [
        {
          "components": [
            {
              "internalType": "uint256",
              "name": "mintCR",
              "type": "uint256"
            },
            {
              "internalType": "uint256",
              "name": "liquidationFee",
              "type": "uint256"
            },
            {
              "internalType": "uint256",
              "name": "interestRate",
              "type": "uint256"
            }
          ],
          "internalType": "struct IHandle.CollateralData",
          "name": "",
          "type": "tuple"
        }
      ],
      "stateMutability": "view",
      "type": "function"
    },
    {
      "inputs": [
        {
          "internalType": "address",
          "name": "account",
          "type": "address"
        },
        {
          "internalType": "address",
          "name": "fxToken",
          "type": "address"
        },
        {
          "internalType": "address",
          "name": "collateral",
          "type": "address"
        }
      ],
      "name": "getCollateralR0",
      "outputs": [
        {
          "internalType": "uint256",
          "name": "R0",
          "type": "uint256"
        }
      ],
      "stateMutability": "view",
      "type": "function"
    },
    {
      "inputs": [
        {
          "internalType": "address",
          "name": "account",
          "type": "address"
        },
        {
          "internalType": "address",
          "name": "fxToken",
          "type": "address"
        }
      ],
      "name": "getDebt",
      "outputs": [
        {
          "internalType": "uint256",
          "name": "",
          "type": "uint256"
        }
      ],
      "stateMutability": "view",
      "type": "function"
    },
    {
      "inputs": [
        {
          "internalType": "address",
          "name": "account",
          "type": "address"
        },
        {
          "internalType": "address",
          "name": "fxToken",
          "type": "address"
        }
      ],
      "name": "getPrincipalDebt",
      "outputs": [
        {
          "internalType": "uint256",
          "name": "",
          "type": "uint256"
        }
      ],
      "stateMutability": "view",
      "type": "function"
    },
    {
      "inputs": [
        {
          "internalType": "bytes32",
          "name": "role",
          "type": "bytes32"
        }
      ],
      "name": "getRoleAdmin",
      "outputs": [
        {
          "internalType": "bytes32",
          "name": "",
          "type": "bytes32"
        }
      ],
      "stateMutability": "view",
      "type": "function"
    },
    {
      "inputs": [
        {
          "internalType": "address",
          "name": "token",
          "type": "address"
        }
      ],
      "name": "getTokenPrice",
      "outputs": [
        {
          "internalType": "uint256",
          "name": "quote",
          "type": "uint256"
        }
      ],
      "stateMutability": "view",
      "type": "function"
    },
    {
      "inputs": [
        {
          "internalType": "bytes32",
          "name": "role",
          "type": "bytes32"
        },
        {
          "internalType": "address",
          "name": "account",
          "type": "address"
        }
      ],
      "name": "grantRole",
      "outputs": [],
      "stateMutability": "nonpayable",
      "type": "function"
    },
    {
      "inputs": [
        {
          "internalType": "bytes32",
          "name": "role",
          "type": "bytes32"
        },
        {
          "internalType": "address",
          "name": "account",
          "type": "address"
        }
      ],
      "name": "hasRole",
      "outputs": [
        {
          "internalType": "bool",
          "name": "",
          "type": "bool"
        }
      ],
      "stateMutability": "view",
      "type": "function"
    },
    {
      "inputs": [
        {
          "internalType": "address",
          "name": "weth",
          "type": "address"
        }
      ],
      "name": "initialize",
      "outputs": [],
      "stateMutability": "nonpayable",
      "type": "function"
    },
    {
      "inputs": [],
      "name": "interest",
      "outputs": [
        {
          "internalType": "address",
          "name": "",
          "type": "address"
        }
      ],
      "stateMutability": "view",
      "type": "function"
    },
    {
      "inputs": [
        {
          "internalType": "address",
          "name": "",
          "type": "address"
        }
      ],
      "name": "isCollateralValid",
      "outputs": [
        {
          "internalType": "bool",
          "name": "",
          "type": "bool"
        }
      ],
      "stateMutability": "view",
      "type": "function"
    },
    {
      "inputs": [
        {
          "internalType": "address",
          "name": "",
          "type": "address"
        }
      ],
      "name": "isFxTokenValid",
      "outputs": [
        {
          "internalType": "bool",
          "name": "",
          "type": "bool"
        }
      ],
      "stateMutability": "view",
      "type": "function"
    },
    {
      "inputs": [],
      "name": "isPaused",
      "outputs": [
        {
          "internalType": "bool",
          "name": "",
          "type": "bool"
        }
      ],
      "stateMutability": "view",
      "type": "function"
    },
    {
      "inputs": [],
      "name": "liquidator",
      "outputs": [
        {
          "internalType": "address",
          "name": "",
          "type": "address"
        }
      ],
      "stateMutability": "view",
      "type": "function"
    },
    {
      "inputs": [],
      "name": "mintFeePerMille",
      "outputs": [
        {
          "internalType": "uint256",
          "name": "",
          "type": "uint256"
        }
      ],
      "stateMutability": "view",
      "type": "function"
    },
    {
      "inputs": [
        {
          "internalType": "address",
          "name": "",
          "type": "address"
        }
      ],
      "name": "oracles",
      "outputs": [
        {
          "internalType": "address",
          "name": "",
          "type": "address"
        }
      ],
      "stateMutability": "view",
      "type": "function"
    },
    {
      "inputs": [],
      "name": "pct",
      "outputs": [
        {
          "internalType": "address",
          "name": "",
          "type": "address"
        }
      ],
      "stateMutability": "view",
      "type": "function"
    },
    {
      "inputs": [],
      "name": "pctCollateralUpperBound",
      "outputs": [
        {
          "internalType": "uint256",
          "name": "",
          "type": "uint256"
        }
      ],
      "stateMutability": "view",
      "type": "function"
    },
    {
      "inputs": [],
      "name": "referral",
      "outputs": [
        {
          "internalType": "address",
          "name": "",
          "type": "address"
        }
      ],
      "stateMutability": "view",
      "type": "function"
    },
    {
      "inputs": [
        {
          "internalType": "address",
          "name": "token",
          "type": "address"
        }
      ],
      "name": "removeCollateralToken",
      "outputs": [],
      "stateMutability": "nonpayable",
      "type": "function"
    },
    {
      "inputs": [
        {
          "internalType": "address",
          "name": "token",
          "type": "address"
        }
      ],
      "name": "removeFxToken",
      "outputs": [],
      "stateMutability": "nonpayable",
      "type": "function"
    },
    {
      "inputs": [
        {
          "internalType": "bytes32",
          "name": "role",
          "type": "bytes32"
        },
        {
          "internalType": "address",
          "name": "account",
          "type": "address"
        }
      ],
      "name": "renounceRole",
      "outputs": [],
      "stateMutability": "nonpayable",
      "type": "function"
    },
    {
      "inputs": [
        {
          "internalType": "bytes32",
          "name": "role",
          "type": "bytes32"
        },
        {
          "internalType": "address",
          "name": "account",
          "type": "address"
        }
      ],
      "name": "revokeRole",
      "outputs": [],
      "stateMutability": "nonpayable",
      "type": "function"
    },
    {
      "inputs": [],
      "name": "rewards",
      "outputs": [
        {
          "internalType": "address",
          "name": "",
          "type": "address"
        }
      ],
      "stateMutability": "view",
      "type": "function"
    },
    {
      "inputs": [
        {
          "internalType": "address",
          "name": "token",
          "type": "address"
        },
        {
          "internalType": "uint256",
          "name": "mintCR",
          "type": "uint256"
        },
        {
          "internalType": "uint256",
          "name": "liquidationFee",
          "type": "uint256"
        },
        {
          "internalType": "uint256",
          "name": "interestRatePerMille",
          "type": "uint256"
        }
      ],
      "name": "setCollateralToken",
      "outputs": [],
      "stateMutability": "nonpayable",
      "type": "function"
    },
    {
      "inputs": [
        {
          "internalType": "uint256",
          "name": "ratio",
          "type": "uint256"
        }
      ],
      "name": "setCollateralUpperBoundPCT",
      "outputs": [],
      "stateMutability": "nonpayable",
      "type": "function"
    },
    {
      "inputs": [
        {
          "internalType": "address[]",
          "name": "components",
          "type": "address[]"
        }
      ],
      "name": "setComponents",
      "outputs": [],
      "stateMutability": "nonpayable",
      "type": "function"
    },
    {
      "inputs": [
        {
          "internalType": "address",
          "name": "feeRecipient",
          "type": "address"
        }
      ],
      "name": "setFeeRecipient",
      "outputs": [],
      "stateMutability": "nonpayable",
      "type": "function"
    },
    {
      "inputs": [
        {
          "internalType": "uint256",
          "name": "_withdrawFeePerMille",
          "type": "uint256"
        },
        {
          "internalType": "uint256",
          "name": "_depositFeePerMille",
          "type": "uint256"
        },
        {
          "internalType": "uint256",
          "name": "_mintFeePerMille",
          "type": "uint256"
        },
        {
          "internalType": "uint256",
          "name": "_burnFeePerMille",
          "type": "uint256"
        }
      ],
      "name": "setFees",
      "outputs": [],
      "stateMutability": "nonpayable",
      "type": "function"
    },
    {
      "inputs": [
        {
          "internalType": "address",
          "name": "token",
          "type": "address"
        }
      ],
      "name": "setFxToken",
      "outputs": [],
      "stateMutability": "nonpayable",
      "type": "function"
    },
    {
      "inputs": [
        {
          "internalType": "address",
          "name": "token",
          "type": "address"
        },
        {
          "internalType": "address",
          "name": "oracle",
          "type": "address"
        }
      ],
      "name": "setOracle",
      "outputs": [],
      "stateMutability": "nonpayable",
      "type": "function"
    },
    {
      "inputs": [
        {
          "internalType": "bool",
          "name": "value",
          "type": "bool"
        }
      ],
      "name": "setPaused",
      "outputs": [],
      "stateMutability": "nonpayable",
      "type": "function"
    },
    {
      "inputs": [
        {
          "internalType": "bytes4",
          "name": "interfaceId",
          "type": "bytes4"
        }
      ],
      "name": "supportsInterface",
      "outputs": [
        {
          "internalType": "bool",
          "name": "",
          "type": "bool"
        }
      ],
      "stateMutability": "view",
      "type": "function"
    },
    {
      "inputs": [
        {
          "internalType": "address",
          "name": "",
          "type": "address"
        }
      ],
      "name": "totalBalances",
      "outputs": [
        {
          "internalType": "uint256",
          "name": "",
          "type": "uint256"
        }
      ],
      "stateMutability": "view",
      "type": "function"
    },
    {
      "inputs": [],
      "name": "treasury",
      "outputs": [
        {
          "internalType": "address payable",
          "name": "",
          "type": "address"
        }
      ],
      "stateMutability": "view",
      "type": "function"
    },
    {
      "inputs": [
        {
          "internalType": "address",
          "name": "account",
          "type": "address"
        },
        {
          "internalType": "uint256",
          "name": "amount",
          "type": "uint256"
        },
        {
          "internalType": "address",
          "name": "fxToken",
          "type": "address"
        },
        {
          "internalType": "address",
          "name": "collateralToken",
          "type": "address"
        },
        {
          "internalType": "bool",
          "name": "increase",
          "type": "bool"
        }
      ],
      "name": "updateCollateralBalance",
      "outputs": [],
      "stateMutability": "nonpayable",
      "type": "function"
    },
    {
      "inputs": [
        {
          "internalType": "address",
          "name": "account",
          "type": "address"
        },
        {
          "internalType": "uint256",
          "name": "amount",
          "type": "uint256"
        },
        {
          "internalType": "address",
          "name": "fxToken",
          "type": "address"
        },
        {
          "internalType": "bool",
          "name": "increase",
          "type": "bool"
        }
      ],
      "name": "updateDebtPosition",
      "outputs": [],
      "stateMutability": "nonpayable",
      "type": "function"
    },
    {
      "inputs": [
        {
          "internalType": "address",
          "name": "newImplementation",
          "type": "address"
        }
      ],
      "name": "upgradeTo",
      "outputs": [],
      "stateMutability": "nonpayable",
      "type": "function"
    },
    {
      "inputs": [
        {
          "internalType": "address",
          "name": "newImplementation",
          "type": "address"
        },
        {
          "internalType": "bytes",
          "name": "data",
          "type": "bytes"
        }
      ],
      "name": "upgradeToAndCall",
      "outputs": [],
      "stateMutability": "payable",
      "type": "function"
    },
    {
      "inputs": [],
      "name": "vaultLibrary",
      "outputs": [
        {
          "internalType": "address",
          "name": "",
          "type": "address"
        }
      ],
      "stateMutability": "view",
      "type": "function"
    },
    {
      "inputs": [
        {
          "internalType": "address",
          "name": "",
          "type": "address"
        },
        {
          "internalType": "address",
          "name": "",
          "type": "address"
        }
      ],
      "name": "vaults",
      "outputs": [
        {
          "internalType": "uint256",
          "name": "debt",
          "type": "uint256"
        }
      ],
      "stateMutability": "view",
      "type": "function"
    },
    {
      "inputs": [],
      "name": "withdrawFeePerMille",
      "outputs": [
        {
          "internalType": "uint256",
          "name": "",
          "type": "uint256"
        }
      ],
      "stateMutability": "view",
      "type": "function"
    }
  ],
  "bytecode": "0x60a06040523060601b60805234801561001757600080fd5b5060805160601c6136d661004b6000396000818161111901528181611159015281816112a201526112e201526136d66000f3fe6080604052600436106103505760003560e01c806391d14854116101c6578063bd9e5200116100f7578063d547741f11610095578063eb0a8b911161006f578063eb0a8b9114610aee578063ec94578e14610b0f578063f5b541a614610b30578063ffcd9da614610b5257610350565b8063d547741f14610a97578063e74b981b14610ab7578063e75fd0b514610ad757610350565b8063c4d66de8116100d1578063c4d66de814610a09578063cf07947d14610a29578063d02641a014610a49578063d4fac45d14610a6957610350565b8063bd9e520014610954578063c392f76614610996578063c462b520146109b757610350565b8063a217fddf11610164578063ad5c46481161013e578063ad5c4648146108b4578063addd5099146108d5578063aee9c8721461090c578063b187bd261461093957610350565b8063a217fddf14610835578063a300733d1461084a578063a364c9721461089457610350565b80639cfd9669116101a05780639cfd9669146107ab5780639df5138a146107cc5780639ec5a894146107e3578063a0f026ff1461080457610350565b806391d148541461075457806394f9059f146107745780639931286d1461079457610350565b80634046ebae116102a05780635fe3b5671161023e578063732409931161021857806373240993146106c257806375b238fc146106e2578063803c97b314610704578063877034f11461073457610350565b80635fe3b5671461065b57806361d027b31461067c5780636fcba377146106a257610350565b80634d635e701161027a5780634d635e70146105cc5780634f1ef286146106085780635c38eb3a1461061b5780635eb0ac1a1461063b57610350565b80634046ebae1461057457806341e3f28114610595578063498b5ae8146105ac57610350565b806327ab02b91161030d5780632f2ff15d116102e75780632f2ff15d146104bd57806331695c4e146104dd57806336568abe146105345780633659cfe61461055457610350565b806327ab02b91461045a578063294d499e1461047b5780632b4557591461049d57610350565b806301964f361461035557806301ffc9a71461037f5780631441a5a9146103af57806316c38b3c146103e8578063181e20a71461040a578063248a9ca31461042a575b600080fd5b34801561036157600080fd5b5061036c6101025481565b6040519081526020015b60405180910390f35b34801561038b57600080fd5b5061039f61039a36600461321d565b610b73565b6040519015158152602001610376565b3480156103bb57600080fd5b50610111546103d0906001600160a01b031681565b6040516001600160a01b039091168152602001610376565b3480156103f457600080fd5b506104086104033660046131c7565b610bac565b005b34801561041657600080fd5b50610408610425366004612f81565b610bfd565b34801561043657600080fd5b5061036c6104453660046131e1565b600090815260c9602052604090206001015490565b34801561046657600080fd5b5061010d546103d0906001600160a01b031681565b34801561048757600080fd5b50610490610da8565b6040516103769190613362565b3480156104a957600080fd5b506104086104b8366004612e41565b610e0a565b3480156104c957600080fd5b506104086104d83660046131f9565b611064565b3480156104e957600080fd5b5061036c6104f8366004612e95565b6001600160a01b039283166000908152610101602090815260408083209486168352938152838220929094168152600290910190925290205490565b34801561054057600080fd5b5061040861054f3660046131f9565b611090565b34801561056057600080fd5b5061040861056f366004612e41565b61110e565b34801561058057600080fd5b5061010f546103d0906001600160a01b031681565b3480156105a157600080fd5b5061036c6101055481565b3480156105b857600080fd5b5061036c6105c7366004612e5d565b6111d7565b3480156105d857600080fd5b5061036c6105e7366004612e5d565b61010160209081526000928352604080842090915290825290206001015481565b610408610616366004612edf565b611297565b34801561062757600080fd5b50610408610636366004612e5d565b61134d565b34801561064757600080fd5b5061040861065636600461306e565b611401565b34801561066757600080fd5b5061010b546103d0906001600160a01b031681565b34801561068857600080fd5b5061010a546103d09061010090046001600160a01b031681565b3480156106ae57600080fd5b506104086106bd36600461325d565b611872565b3480156106ce57600080fd5b506104086106dd366004613034565b6118c1565b3480156106ee57600080fd5b5061036c60008051602061368183398151915281565b34801561071057600080fd5b5061039f61071f366004612e41565b60fc6020526000908152604090205460ff1681565b34801561074057600080fd5b5061040861074f366004612fe4565b611ac1565b34801561076057600080fd5b5061039f61076f3660046131f9565b611d43565b34801561078057600080fd5b5061040861078f366004612e41565b611d6e565b3480156107a057600080fd5b5061036c6101035481565b3480156107b757600080fd5b5061010e546103d0906001600160a01b031681565b3480156107d857600080fd5b5061036c6101065481565b3480156107ef57600080fd5b50610113546103d0906001600160a01b031681565b34801561081057600080fd5b5061039f61081f366004612e41565b6101006020526000908152604090205460ff1681565b34801561084157600080fd5b5061036c600081565b34801561085657600080fd5b5061036c610865366004612e5d565b6001600160a01b0391821660009081526101016020908152604080832093909416825291909152206001015490565b3480156108a057600080fd5b506104086108af3660046131e1565b611deb565b3480156108c057600080fd5b50610108546103d0906001600160a01b031681565b3480156108e157600080fd5b506103d06108f0366004612e41565b610109602052600090815260409020546001600160a01b031681565b34801561091857600080fd5b5061036c610927366004612e41565b60fe6020526000908152604090205481565b34801561094557600080fd5b5061010a5461039f9060ff1681565b34801561096057600080fd5b5061097461096f366004612e41565b611e25565b6040805182518152602080840151908201529181015190820152606001610376565b3480156109a257600080fd5b50610110546103d0906001600160a01b031681565b3480156109c357600080fd5b5061036c6109d2366004612e95565b6001600160a01b03928316600090815261010160209081526040808320938616835292815282822093909416815291909252205490565b348015610a1557600080fd5b50610408610a24366004612e41565b611e8b565b348015610a3557600080fd5b50610408610a44366004612e41565b611f71565b348015610a5557600080fd5b5061036c610a64366004612e41565b6120bc565b348015610a7557600080fd5b50610a89610a84366004612e5d565b612219565b604051610376929190613375565b348015610aa357600080fd5b50610408610ab23660046131f9565b612349565b348015610ac357600080fd5b50610408610ad2366004612e41565b61236f565b348015610ae357600080fd5b5061036c6101045481565b348015610afa57600080fd5b5061010c546103d0906001600160a01b031681565b348015610b1b57600080fd5b50610107546103d0906001600160a01b031681565b348015610b3c57600080fd5b5061036c60008051602061363a83398151915281565b348015610b5e57600080fd5b50610112546103d0906001600160a01b031681565b60006001600160e01b03198216637965db0b60e01b1480610ba457506301ffc9a760e01b6001600160e01b03198316145b90505b919050565b610bc460008051602061368183398151915233611d43565b610be95760405162461bcd60e51b8152600401610be0906134d7565b60405180910390fd5b61010a805460ff1916911515919091179055565b610c1560008051602061363a83398151915233611d43565b610c465760405162461bcd60e51b81526020600482015260026024820152614e4f60f01b6044820152606401610be0565b61010a5460ff1615610c835760405162461bcd60e51b815260206004820152600660248201526514185d5cd95960d21b6044820152606401610be0565b6001600160a01b03808616600090815261010160209081526040808320878516845282528083209386168352929052205481610cc857610cc38186612410565b610cd2565b610cd28186612423565b6001600160a01b03808816600090815261010160209081526040808320898516845282528083209388168352929052205581610d30576001600160a01b038316600090815260fe6020526040902054610d2b9086612410565b610d53565b6001600160a01b038316600090815260fe6020526040902054610d539086612423565b6001600160a01b03808516600081815260fe60205260408082209490945592519092878316928a16917f2027a0219b5bbff94e3a2050ec5c3ab5fafaaffe9c131dd57d2366b04423eff39190a4505050505050565b606060fb805480602002602001604051908101604052809291908181526020018280548015610e0057602002820191906000526020600020905b81546001600160a01b03168152600190910190602001808311610de2575b5050505050905090565b610e2260008051602061368183398151915233611d43565b610e3e5760405162461bcd60e51b8152600401610be0906134d7565b60ff5460005b81811015610eac57826001600160a01b031660ff8281548110610e7757634e487b7160e01b600052603260045260246000fd5b6000918252602090912001546001600160a01b03161415610e9a57809150610eac565b80610ea4816135dd565b915050610e44565b5060ff548110610ecc57634e487b7160e01b600052600160045260246000fd5b6001600160a01b038216600090815261010060205260409020805460ff1916905560ff54610efc9060019061357f565b811015610fdf5760ff8054610f139060019061357f565b81548110610f3157634e487b7160e01b600052603260045260246000fd5b60009182526020909120015460ff80546001600160a01b039092169183908110610f6b57634e487b7160e01b600052603260045260246000fd5b9060005260206000200160006101000a8154816001600160a01b0302191690836001600160a01b0316021790555060ff805480610fb857634e487b7160e01b600052603160045260246000fd5b600082815260209020810160001990810180546001600160a01b0319169055019055611021565b60ff805480610ffe57634e487b7160e01b600052603160045260246000fd5b600082815260209020810160001990810180546001600160a01b03191690550190555b604051600181526001600160a01b038316907ffb41d6cdd88df98fceed3d16a841a5d7353cd0f003ab68854b734248bfdee04d9060200160405180910390a25050565b600082815260c9602052604090206001015461108181335b61242f565b61108b8383612493565b505050565b6001600160a01b03811633146111005760405162461bcd60e51b815260206004820152602f60248201527f416363657373436f6e74726f6c3a2063616e206f6e6c792072656e6f756e636560448201526e103937b632b9903337b91039b2b63360891b6064820152608401610be0565b61110a8282612519565b5050565b306001600160a01b037f00000000000000000000000000000000000000000000000000000000000000001614156111575760405162461bcd60e51b8152600401610be0906133f1565b7f00000000000000000000000000000000000000000000000000000000000000006001600160a01b0316611189612580565b6001600160a01b0316146111af5760405162461bcd60e51b8152600401610be09061343d565b6111b8816125ae565b604080516000808252602082019092526111d4918391906125e2565b50565b6001600160a01b0382811660008181526101016020908152604080832086861680855292528083206001015461010c54915163021c24a560e61b8152600481019590955260248501929092529193909261128f929091169063870929409060440160206040518083038186803b15801561125057600080fd5b505afa158015611264573d6000803e3d6000fd5b505050506040513d601f19601f820116820180604052508101906112889190613245565b8290612423565b949350505050565b306001600160a01b037f00000000000000000000000000000000000000000000000000000000000000001614156112e05760405162461bcd60e51b8152600401610be0906133f1565b7f00000000000000000000000000000000000000000000000000000000000000006001600160a01b0316611312612580565b6001600160a01b0316146113385760405162461bcd60e51b8152600401610be09061343d565b611341826125ae565b61110a828260016125e2565b61136560008051602061368183398151915233611d43565b6113815760405162461bcd60e51b8152600401610be0906134d7565b6001600160a01b038216158015906113a157506001600160a01b03811615155b6113d25760405162461bcd60e51b815260206004820152600260248201526124ad60f11b6044820152606401610be0565b6001600160a01b0391821660009081526101096020526040902080546001600160a01b03191691909216179055565b61141960008051602061368183398151915233611d43565b6114355760405162461bcd60e51b8152600401610be0906134d7565b805160005b818110156114d05760006001600160a01b031683828151811061146d57634e487b7160e01b600052603260045260246000fd5b60200260200101516001600160a01b031614156114be5760405162461bcd60e51b815260206004820152600f60248201526e496e76616c6964206164647265737360881b6044820152606401610be0565b806114c8816135dd565b91505061143a565b50816000815181106114f257634e487b7160e01b600052603260045260246000fd5b602002602001015161010a60016101000a8154816001600160a01b0302191690836001600160a01b031602179055508160018151811061154257634e487b7160e01b600052603260045260246000fd5b602002602001015161010b60006101000a8154816001600160a01b0302191690836001600160a01b031602179055508160028151811061159257634e487b7160e01b600052603260045260246000fd5b602002602001015161010c60006101000a8154816001600160a01b0302191690836001600160a01b03160217905550816003815181106115e257634e487b7160e01b600052603260045260246000fd5b602002602001015161010d60006101000a8154816001600160a01b0302191690836001600160a01b031602179055508160048151811061163257634e487b7160e01b600052603260045260246000fd5b602002602001015161010e60006101000a8154816001600160a01b0302191690836001600160a01b031602179055508160058151811061168257634e487b7160e01b600052603260045260246000fd5b602002602001015161010f60006101000a8154816001600160a01b0302191690836001600160a01b03160217905550816006815181106116d257634e487b7160e01b600052603260045260246000fd5b602002602001015161011060006101000a8154816001600160a01b0302191690836001600160a01b031602179055508160078151811061172257634e487b7160e01b600052603260045260246000fd5b602002602001015161011160006101000a8154816001600160a01b0302191690836001600160a01b031602179055508160088151811061177257634e487b7160e01b600052603260045260246000fd5b602002602001015161011260006101000a8154816001600160a01b0302191690836001600160a01b03160217905550816009815181106117c257634e487b7160e01b600052603260045260246000fd5b602002602001015161011360006101000a8154816001600160a01b0302191690836001600160a01b0316021790555060005b600981101561108b57806002148061180c5750806003145b806118175750806008145b1561182157611860565b61186060008051602061363a83398151915284838151811061185357634e487b7160e01b600052603260045260246000fd5b6020026020010151611064565b8061186a816135dd565b9150506117f4565b61188a60008051602061368183398151915233611d43565b6118a65760405162461bcd60e51b8152600401610be0906134d7565b61010593909355610106919091556101049190915561010355565b6118d960008051602061363a83398151915233611d43565b806118f757506118f760008051602061368183398151915233611d43565b6119285760405162461bcd60e51b81526020600482015260026024820152614e5760f01b6044820152606401610be0565b606e83101561195e5760405162461bcd60e51b815260206004820152600260248201526121a960f11b6044820152606401610be0565b6001600160a01b038416600090815260fd6020526040902080546119c85760fb80546001810182556000919091527f3e7257b7272bb46d49cd6019b04ddee20da7c0cb13f7c1ec3391291b2ccebabc0180546001600160a01b0319166001600160a01b0387161790555b6001600160a01b038516600090815260fc602052604090205460ff16611a0c576001600160a01b038516600090815260fc60205260409020805460ff191660011790555b61011060009054906101000a90046001600160a01b03166001600160a01b031663551619136040518163ffffffff1660e01b8152600401600060405180830381600087803b158015611a5d57600080fd5b505af1158015611a71573d6000803e3d6000fd5b5050508482555060018101839055600281018290556040516001600160a01b038616907f38bfbff5a2ab4e85e1292bfc75e2e0b39855907deca3889448ce609117c8530f90600090a25050505050565b611ad960008051602061363a83398151915233611d43565b611b0a5760405162461bcd60e51b81526020600482015260026024820152614e4f60f01b6044820152606401610be0565b61010a5460ff1615611b475760405162461bcd60e51b815260206004820152600660248201526514185d5cd95960d21b6044820152606401610be0565b61011060009054906101000a90046001600160a01b03166001600160a01b031663551619136040518163ffffffff1660e01b8152600401600060405180830381600087803b158015611b9857600080fd5b505af1158015611bac573d6000803e3d6000fd5b505050506000611bbc85846111d7565b61010c5460405163021c24a560e61b81526001600160a01b03888116600483015286811660248301529293506000929091169063870929409060440160206040518083038186803b158015611c1057600080fd5b505afa158015611c24573d6000803e3d6000fd5b505050506040513d601f19601f82011682018060405250810190611c489190613245565b90508015611cb857610107546040516340c10f1960e01b81526001600160a01b03918216600482015260248101839052908516906340c10f1990604401600060405180830381600087803b158015611c9f57600080fd5b505af1158015611cb3573d6000803e3d6000fd5b505050505b611cc2868561272d565b82611cd657611cd18286612410565b611ce0565b611ce08286612423565b6001600160a01b03808816600081815261010160209081526040808320948a1680845294909152808220600101949094559251919290917f2d1a59a877ca0f4ce2a4bff5fdbf6e60dabcd7a049afa997fdc2f61bebc68c389190a3505050505050565b600091825260c9602090815260408084206001600160a01b0393909316845291905290205460ff1690565b611d8660008051602061368183398151915233611d43565b611da25760405162461bcd60e51b8152600401610be0906134d7565b6001600160a01b038116600081815260fc6020526040808220805460ff19169055517f38bfbff5a2ab4e85e1292bfc75e2e0b39855907deca3889448ce609117c8530f9190a250565b611e0360008051602061368183398151915233611d43565b611e1f5760405162461bcd60e51b8152600401610be0906134d7565b61010255565b611e4960405180606001604052806000815260200160008152602001600081525090565b506001600160a01b0316600090815260fd6020908152604091829020825160608101845281548152600182015492810192909252600201549181019190915290565b600054610100900460ff1680611ea4575060005460ff16155b611ec05760405162461bcd60e51b8152600401610be090613489565b600054610100900460ff16158015611ee2576000805461ffff19166101011790555b611eea61288c565b611f026000805160206136818339815191523361290f565b611f1a60008051602061368183398151915280612919565b611f4060008051602061363a833981519152600080516020613681833981519152612919565b61010880546001600160a01b0319166001600160a01b038416179055801561110a576000805461ff00191690555050565b611f8960008051602061368183398151915233611d43565b611fa55760405162461bcd60e51b8152600401610be0906134d7565b6001600160a01b038116611ff35760405162461bcd60e51b8152602060048201526015602482015274496e76616c696420746f6b656e206164647265737360581b6044820152606401610be0565b6001600160a01b0381166000908152610100602052604090205460ff1615156001141561201f576111d4565b60ff805460018082019092557fe08ec2af2cfc251225e1968fd6ca21e4044f129bffa95bac3503be8bdb30a3670180546001600160a01b0319166001600160a01b038416908117909155600081815261010060209081526040808320805460ff1916909517909455925190815290917ffb41d6cdd88df98fceed3d16a841a5d7353cd0f003ab68854b734248bfdee04d910160405180910390a250565b610108546000906001600160a01b03838116911614156120e55750670de0b6b3a7640000610ba7565b6001600160a01b0382811660009081526101096020526040902054166121435760405162461bcd60e51b815260206004820152601360248201527227379037b930b1b632903337b9103a37b5b2b760691b6044820152606401610be0565b6001600160a01b0382811660008181526101096020526040908190205490516337cef79160e01b81526004810192909252909116906337cef7919060240160206040518083038186803b15801561219957600080fd5b505afa1580156121ad573d6000803e3d6000fd5b505050506040513d601f19601f820116820180604052508101906121d19190613245565b905060008111610ba75760405162461bcd60e51b8152602060048201526013602482015272546f6b656e207072696365206973207a65726f60681b6044820152606401610be0565b606080612224610da8565b805190925060008167ffffffffffffffff81111561225257634e487b7160e01b600052604160045260246000fd5b60405190808252806020026020018201604052801561227b578160200160208202803683370190505b50905060005b8281101561233c576001600160a01b03808816600090815261010160209081526040808320938a16835292905290812086519091908790849081106122d657634e487b7160e01b600052603260045260246000fd5b60200260200101516001600160a01b03166001600160a01b031681526020019081526020016000205482828151811061231f57634e487b7160e01b600052603260045260246000fd5b602090810291909101015280612334816135dd565b915050612281565b5080925050509250929050565b600082815260c96020526040902060010154612365813361107c565b61108b8383612519565b61238760008051602061368183398151915233611d43565b6123a35760405162461bcd60e51b8152600401610be0906134d7565b806001600160a01b0381166123ec5760405162461bcd60e51b815260206004820152600f60248201526e496e76616c6964204164647265737360881b6044820152606401610be0565b5061010780546001600160a01b0319166001600160a01b0392909216919091179055565b600061241c828461357f565b9392505050565b600061241c8284613548565b6124398282611d43565b61110a57612451816001600160a01b03166014612964565b61245c836020612964565b60405160200161246d9291906132ed565b60408051601f198184030181529082905262461bcd60e51b8252610be0916004016133be565b61249d8282611d43565b61110a57600082815260c9602090815260408083206001600160a01b03851684529091529020805460ff191660011790556124d53390565b6001600160a01b0316816001600160a01b0316837f2f8788117e7eff1d82e926ec794901d17c78024a50270940304540a733656f0d60405160405180910390a45050565b6125238282611d43565b1561110a57600082815260c9602090815260408083206001600160a01b0385168085529252808320805460ff1916905551339285917ff6391f5c32d9c69d2a47ea670b442974b53935d1edc7fd64eb21e047a839171b9190a45050565b7f360894a13ba1a3210667c828492db98dca3e2076cc3735a920a3ca505d382bbc546001600160a01b031690565b6125c660008051602061368183398151915233611d43565b6111d45760405162461bcd60e51b8152600401610be0906134d7565b60006125ec612580565b90506125f784612b46565b6000835111806126045750815b15612615576126138484612beb565b505b7f4910fdfa16fed3260ed0e7147f7cc6da11a60208b5b9406d12a635614ffd9143805460ff1661272657805460ff191660011781556040516001600160a01b038316602482015261269490869060440160408051601f198184030181529190526020810180516001600160e01b0316631b2ce7f360e11b179052612beb565b50805460ff191681556126a5612580565b6001600160a01b0316826001600160a01b03161461271d5760405162461bcd60e51b815260206004820152602f60248201527f45524331393637557067726164653a207570677261646520627265616b73206660448201526e75727468657220757067726164657360881b6064820152608401610be0565b61272685612cd6565b5050505050565b60008061011060009054906101000a90046001600160a01b03166001600160a01b031663d56a5c736040518163ffffffff1660e01b815260040160006040518083038186803b15801561277f57600080fd5b505afa158015612793573d6000803e3d6000fd5b505050506040513d6000823e601f3d908101601f191682016040526127bb919081019061310a565b80516001600160a01b03808816600090815261010160209081526040808320938a16835292905290812093955091935091905b828110156128835784818151811061281657634e487b7160e01b600052603260045260246000fd5b602002602001015182600201600086848151811061284457634e487b7160e01b600052603260045260246000fd5b60200260200101516001600160a01b03166001600160a01b0316815260200190815260200160002081905550808061287b906135dd565b9150506127ee565b50505050505050565b600054610100900460ff16806128a5575060005460ff16155b6128c15760405162461bcd60e51b8152600401610be090613489565b600054610100900460ff161580156128e3576000805461ffff19166101011790555b6128eb612d16565b6128f3612d16565b6128fb612d16565b80156111d4576000805461ff001916905550565b61110a8282612493565b600082815260c96020526040808220600101805490849055905190918391839186917fbd79b86ffe0ab8e8776151514217cd7cacd52c909f66475c3af44e129f0b00ff9190a4505050565b60606000612973836002613560565b61297e906002613548565b67ffffffffffffffff8111156129a457634e487b7160e01b600052604160045260246000fd5b6040519080825280601f01601f1916602001820160405280156129ce576020820181803683370190505b509050600360fc1b816000815181106129f757634e487b7160e01b600052603260045260246000fd5b60200101906001600160f81b031916908160001a905350600f60fb1b81600181518110612a3457634e487b7160e01b600052603260045260246000fd5b60200101906001600160f81b031916908160001a9053506000612a58846002613560565b612a63906001613548565b90505b6001811115612af7576f181899199a1a9b1b9c1cb0b131b232b360811b85600f1660108110612aa557634e487b7160e01b600052603260045260246000fd5b1a60f81b828281518110612ac957634e487b7160e01b600052603260045260246000fd5b60200101906001600160f81b031916908160001a90535060049490941c93612af0816135c6565b9050612a66565b50831561241c5760405162461bcd60e51b815260206004820181905260248201527f537472696e67733a20686578206c656e67746820696e73756666696369656e746044820152606401610be0565b803b612baa5760405162461bcd60e51b815260206004820152602d60248201527f455243313936373a206e657720696d706c656d656e746174696f6e206973206e60448201526c1bdd08184818dbdb9d1c9858dd609a1b6064820152608401610be0565b7f360894a13ba1a3210667c828492db98dca3e2076cc3735a920a3ca505d382bbc80546001600160a01b0319166001600160a01b0392909216919091179055565b6060823b612c4a5760405162461bcd60e51b815260206004820152602660248201527f416464726573733a2064656c65676174652063616c6c20746f206e6f6e2d636f6044820152651b9d1c9858dd60d21b6064820152608401610be0565b600080846001600160a01b031684604051612c6591906132d1565b600060405180830381855af49150503d8060008114612ca0576040519150601f19603f3d011682016040523d82523d6000602084013e612ca5565b606091505b5091509150612ccd828260405180606001604052806027815260200161365a60279139612d80565b95945050505050565b612cdf81612b46565b6040516001600160a01b038216907fbc7cd75a20ee27fd9adebab32041f755214dbc6bffa90cc0225b39da2e5c2d3b90600090a250565b600054610100900460ff1680612d2f575060005460ff16155b612d4b5760405162461bcd60e51b8152600401610be090613489565b600054610100900460ff161580156128fb576000805461ffff191661010117905580156111d4576000805461ff001916905550565b60608315612d8f57508161241c565b825115612d9f5782518084602001fd5b8160405162461bcd60e51b8152600401610be091906133be565b600082601f830112612dc9578081fd5b81516020612dde612dd983613524565b6134f3565b80838252828201915082860187848660051b8901011115612dfd578586fd5b855b85811015612e24578151612e1281613624565b84529284019290840190600101612dff565b5090979650505050505050565b80358015158114610ba757600080fd5b600060208284031215612e52578081fd5b813561241c81613624565b60008060408385031215612e6f578081fd5b8235612e7a81613624565b91506020830135612e8a81613624565b809150509250929050565b600080600060608486031215612ea9578081fd5b8335612eb481613624565b92506020840135612ec481613624565b91506040840135612ed481613624565b809150509250925092565b60008060408385031215612ef1578182fd5b8235612efc81613624565b915060208381013567ffffffffffffffff80821115612f19578384fd5b818601915086601f830112612f2c578384fd5b813581811115612f3e57612f3e61360e565b612f50601f8201601f191685016134f3565b91508082528784828501011115612f65578485fd5b8084840185840137810190920192909252919491935090915050565b600080600080600060a08688031215612f98578081fd5b8535612fa381613624565b9450602086013593506040860135612fba81613624565b92506060860135612fca81613624565b9150612fd860808701612e31565b90509295509295909350565b60008060008060808587031215612ff9578384fd5b843561300481613624565b935060208501359250604085013561301b81613624565b915061302960608601612e31565b905092959194509250565b60008060008060808587031215613049578182fd5b843561305481613624565b966020860135965060408601359560600135945092505050565b60006020808385031215613080578182fd5b823567ffffffffffffffff811115613096578283fd5b8301601f810185136130a6578283fd5b80356130b4612dd982613524565b80828252848201915084840188868560051b87010111156130d3578687fd5b8694505b838510156130fe5780356130ea81613624565b8352600194909401939185019185016130d7565b50979650505050505050565b6000806040838503121561311c578182fd5b825167ffffffffffffffff80821115613133578384fd5b818501915085601f830112613146578384fd5b81516020613156612dd983613524565b8083825282820191508286018a848660051b8901011115613175578889fd5b8896505b84871015613197578051835260019690960195918301918301613179565b50918801519196509093505050808211156131b0578283fd5b506131bd85828601612db9565b9150509250929050565b6000602082840312156131d8578081fd5b61241c82612e31565b6000602082840312156131f2578081fd5b5035919050565b6000806040838503121561320b578182fd5b823591506020830135612e8a81613624565b60006020828403121561322e578081fd5b81356001600160e01b03198116811461241c578182fd5b600060208284031215613256578081fd5b5051919050565b60008060008060808587031215613272578182fd5b5050823594602084013594506040840135936060013592509050565b6000815180845260208085019450808401835b838110156132c65781516001600160a01b0316875295820195908201906001016132a1565b509495945050505050565b600082516132e3818460208701613596565b9190910192915050565b60007f416363657373436f6e74726f6c3a206163636f756e742000000000000000000082528351613325816017850160208801613596565b7001034b99036b4b9b9b4b733903937b6329607d1b6017918401918201528351613356816028840160208801613596565b01602801949350505050565b60006020825261241c602083018461328e565b600060408252613388604083018561328e565b828103602084810191909152845180835285820192820190845b81811015612e24578451835293830193918301916001016133a2565b60006020825282518060208401526133dd816040850160208701613596565b601f01601f19169190910160400192915050565b6020808252602c908201527f46756e6374696f6e206d7573742062652063616c6c6564207468726f7567682060408201526b19195b1959d85d1958d85b1b60a21b606082015260800190565b6020808252602c908201527f46756e6374696f6e206d7573742062652063616c6c6564207468726f7567682060408201526b6163746976652070726f787960a01b606082015260800190565b6020808252602e908201527f496e697469616c697a61626c653a20636f6e747261637420697320616c72656160408201526d191e481a5b9a5d1a585b1a5e995960921b606082015260800190565b6020808252600290820152614e4160f01b604082015260600190565b604051601f8201601f1916810167ffffffffffffffff8111828210171561351c5761351c61360e565b604052919050565b600067ffffffffffffffff82111561353e5761353e61360e565b5060051b60200190565b6000821982111561355b5761355b6135f8565b500190565b600081600019048311821515161561357a5761357a6135f8565b500290565b600082821015613591576135916135f8565b500390565b60005b838110156135b1578181015183820152602001613599565b838111156135c0576000848401525b50505050565b6000816135d5576135d56135f8565b506000190190565b60006000198214156135f1576135f16135f8565b5060010190565b634e487b7160e01b600052601160045260246000fd5b634e487b7160e01b600052604160045260246000fd5b6001600160a01b03811681146111d457600080fdfe97667070c54ef182b0f5858b034beac1b6f3089aa2d3188bb1e8929f4fa9b929416464726573733a206c6f772d6c6576656c2064656c65676174652063616c6c206661696c6564a49807205ce4d355092ef5a8a18f56e8913cf4a201fbe287825b095693c21775a26469706673582212203f148d8a55598631097df1633f1274e3f29a9457055e898b02261244df7cd50464736f6c63430008030033",
  "linkReferences": {},
  "deployedLinkReferences": {}
}