{
  "_format": "hh-sol-artifact-1",
  "contractName": "Handle",
  "sourceName": "contracts/Bank/Handle.sol",
  "abi": [
    {
      "anonymous": false,
      "inputs": [
        {
          "indexed": false,
          "internalType": "address",
          "name": "previousAdmin",
          "type": "address"
        },
        {
          "indexed": false,
          "internalType": "address",
          "name": "newAdmin",
          "type": "address"
        }
      ],
      "name": "AdminChanged",
      "type": "event"
    },
    {
      "anonymous": false,
      "inputs": [
        {
          "indexed": true,
          "internalType": "address",
          "name": "beacon",
          "type": "address"
        }
      ],
      "name": "BeaconUpgraded",
      "type": "event"
    },
    {
      "anonymous": false,
      "inputs": [
        {
          "indexed": true,
          "internalType": "bytes32",
          "name": "role",
          "type": "bytes32"
        },
        {
          "indexed": true,
          "internalType": "bytes32",
          "name": "previousAdminRole",
          "type": "bytes32"
        },
        {
          "indexed": true,
          "internalType": "bytes32",
          "name": "newAdminRole",
          "type": "bytes32"
        }
      ],
      "name": "RoleAdminChanged",
      "type": "event"
    },
    {
      "anonymous": false,
      "inputs": [
        {
          "indexed": true,
          "internalType": "bytes32",
          "name": "role",
          "type": "bytes32"
        },
        {
          "indexed": true,
          "internalType": "address",
          "name": "account",
          "type": "address"
        },
        {
          "indexed": true,
          "internalType": "address",
          "name": "sender",
          "type": "address"
        }
      ],
      "name": "RoleGranted",
      "type": "event"
    },
    {
      "anonymous": false,
      "inputs": [
        {
          "indexed": true,
          "internalType": "bytes32",
          "name": "role",
          "type": "bytes32"
        },
        {
          "indexed": true,
          "internalType": "address",
          "name": "account",
          "type": "address"
        },
        {
          "indexed": true,
          "internalType": "address",
          "name": "sender",
          "type": "address"
        }
      ],
      "name": "RoleRevoked",
      "type": "event"
    },
    {
      "anonymous": false,
      "inputs": [
        {
          "indexed": true,
          "internalType": "address",
          "name": "account",
          "type": "address"
        },
        {
          "indexed": true,
          "internalType": "address",
          "name": "fxToken",
          "type": "address"
        },
        {
          "indexed": true,
          "internalType": "address",
          "name": "collateralToken",
          "type": "address"
        }
      ],
      "name": "UpdateCollateral",
      "type": "event"
    },
    {
      "anonymous": false,
      "inputs": [
        {
          "indexed": true,
          "internalType": "address",
          "name": "account",
          "type": "address"
        },
        {
          "indexed": true,
          "internalType": "address",
          "name": "fxToken",
          "type": "address"
        }
      ],
      "name": "UpdateDebt",
      "type": "event"
    },
    {
      "anonymous": false,
      "inputs": [
        {
          "indexed": true,
          "internalType": "address",
          "name": "implementation",
          "type": "address"
        }
      ],
      "name": "Upgraded",
      "type": "event"
    },
    {
      "inputs": [],
      "name": "ADMIN_ROLE",
      "outputs": [
        {
          "internalType": "bytes32",
          "name": "",
          "type": "bytes32"
        }
      ],
      "stateMutability": "view",
      "type": "function"
    },
    {
      "inputs": [],
      "name": "DEFAULT_ADMIN_ROLE",
      "outputs": [
        {
          "internalType": "bytes32",
          "name": "",
          "type": "bytes32"
        }
      ],
      "stateMutability": "view",
      "type": "function"
    },
    {
      "inputs": [],
      "name": "FeeRecipient",
      "outputs": [
        {
          "internalType": "address",
          "name": "",
          "type": "address"
        }
      ],
      "stateMutability": "view",
      "type": "function"
    },
    {
      "inputs": [],
      "name": "OPERATOR_ROLE",
      "outputs": [
        {
          "internalType": "bytes32",
          "name": "",
          "type": "bytes32"
        }
      ],
      "stateMutability": "view",
      "type": "function"
    },
    {
      "inputs": [],
      "name": "WETH",
      "outputs": [
        {
          "internalType": "address",
          "name": "",
          "type": "address"
        }
      ],
      "stateMutability": "view",
      "type": "function"
    },
    {
      "inputs": [],
      "name": "burnFeePerMille",
      "outputs": [
        {
          "internalType": "uint256",
          "name": "",
          "type": "uint256"
        }
      ],
      "stateMutability": "view",
      "type": "function"
    },
    {
      "inputs": [
        {
          "internalType": "address",
          "name": "",
          "type": "address"
        }
      ],
      "name": "collateralDetails",
      "outputs": [
        {
          "internalType": "uint256",
          "name": "mintCR",
          "type": "uint256"
        },
        {
          "internalType": "uint256",
          "name": "liquidationFee",
          "type": "uint256"
        }
      ],
      "stateMutability": "view",
      "type": "function"
    },
    {
      "inputs": [
        {
          "internalType": "uint256",
          "name": "",
          "type": "uint256"
        }
      ],
      "name": "collateralTokens",
      "outputs": [
        {
          "internalType": "address",
          "name": "",
          "type": "address"
        }
      ],
      "stateMutability": "view",
      "type": "function"
    },
    {
      "inputs": [],
      "name": "comptroller",
      "outputs": [
        {
          "internalType": "address",
          "name": "",
          "type": "address"
        }
      ],
      "stateMutability": "view",
      "type": "function"
    },
    {
      "inputs": [],
      "name": "depositFeePerMille",
      "outputs": [
        {
          "internalType": "uint256",
          "name": "",
          "type": "uint256"
        }
      ],
      "stateMutability": "view",
      "type": "function"
    },
    {
      "inputs": [],
      "name": "fxKeeperPool",
      "outputs": [
        {
          "internalType": "address",
          "name": "",
          "type": "address"
        }
      ],
      "stateMutability": "view",
      "type": "function"
    },
    {
      "inputs": [],
      "name": "getAllCollateralTypes",
      "outputs": [
        {
          "internalType": "address[]",
          "name": "collateral",
          "type": "address[]"
        }
      ],
      "stateMutability": "view",
      "type": "function"
    },
    {
      "inputs": [],
      "name": "getAllFxTokens",
      "outputs": [
        {
          "internalType": "address[]",
          "name": "tokens",
          "type": "address[]"
        }
      ],
      "stateMutability": "view",
      "type": "function"
    },
    {
      "inputs": [
        {
          "internalType": "address",
          "name": "account",
          "type": "address"
        },
        {
          "internalType": "address",
          "name": "fxToken",
          "type": "address"
        }
      ],
      "name": "getBalance",
      "outputs": [
        {
          "internalType": "address[]",
          "name": "collateral",
          "type": "address[]"
        },
        {
          "internalType": "uint256[]",
          "name": "balances",
          "type": "uint256[]"
        }
      ],
      "stateMutability": "view",
      "type": "function"
    },
    {
      "inputs": [
        {
          "internalType": "address",
          "name": "account",
          "type": "address"
        },
        {
          "internalType": "address",
          "name": "collateralType",
          "type": "address"
        },
        {
          "internalType": "address",
          "name": "fxToken",
          "type": "address"
        }
      ],
      "name": "getCollateralBalance",
      "outputs": [
        {
          "internalType": "uint256",
          "name": "balance",
          "type": "uint256"
        }
      ],
      "stateMutability": "view",
      "type": "function"
    },
    {
      "inputs": [
        {
          "internalType": "address",
          "name": "collateral",
          "type": "address"
        }
      ],
      "name": "getCollateralDetails",
      "outputs": [
        {
          "components": [
            {
              "internalType": "uint256",
              "name": "mintCR",
              "type": "uint256"
            },
            {
              "internalType": "uint256",
              "name": "liquidationFee",
              "type": "uint256"
            }
          ],
          "internalType": "struct IHandle.CollateralData",
          "name": "",
          "type": "tuple"
        }
      ],
      "stateMutability": "view",
      "type": "function"
    },
    {
      "inputs": [
        {
          "internalType": "address",
          "name": "account",
          "type": "address"
        },
        {
          "internalType": "address",
          "name": "fxToken",
          "type": "address"
        }
      ],
      "name": "getDebt",
      "outputs": [
        {
          "internalType": "uint256",
          "name": "",
          "type": "uint256"
        }
      ],
      "stateMutability": "view",
      "type": "function"
    },
    {
      "inputs": [
        {
          "internalType": "address",
          "name": "account",
          "type": "address"
        },
        {
          "internalType": "address",
          "name": "fxToken",
          "type": "address"
        }
      ],
      "name": "getInterestLastUpdateDate",
      "outputs": [
        {
          "internalType": "uint256",
          "name": "date",
          "type": "uint256"
        }
      ],
      "stateMutability": "view",
      "type": "function"
    },
    {
      "inputs": [
        {
          "internalType": "address",
          "name": "account",
          "type": "address"
        },
        {
          "internalType": "address",
          "name": "fxToken",
          "type": "address"
        }
      ],
      "name": "getRawDebt",
      "outputs": [
        {
          "internalType": "uint256",
          "name": "",
          "type": "uint256"
        }
      ],
      "stateMutability": "view",
      "type": "function"
    },
    {
      "inputs": [
        {
          "internalType": "bytes32",
          "name": "role",
          "type": "bytes32"
        }
      ],
      "name": "getRoleAdmin",
      "outputs": [
        {
          "internalType": "bytes32",
          "name": "",
          "type": "bytes32"
        }
      ],
      "stateMutability": "view",
      "type": "function"
    },
    {
      "inputs": [
        {
          "internalType": "address",
          "name": "token",
          "type": "address"
        }
      ],
      "name": "getTokenDetails",
      "outputs": [
        {
          "components": [
            {
              "internalType": "uint256",
              "name": "rewardRatio",
              "type": "uint256"
            }
          ],
          "internalType": "struct IHandle.TokenData",
          "name": "",
          "type": "tuple"
        }
      ],
      "stateMutability": "view",
      "type": "function"
    },
    {
      "inputs": [
        {
          "internalType": "address",
          "name": "token",
          "type": "address"
        }
      ],
      "name": "getTokenPrice",
      "outputs": [
        {
          "internalType": "uint256",
          "name": "quote",
          "type": "uint256"
        }
      ],
      "stateMutability": "view",
      "type": "function"
    },
    {
      "inputs": [
        {
          "internalType": "bytes32",
          "name": "role",
          "type": "bytes32"
        },
        {
          "internalType": "address",
          "name": "account",
          "type": "address"
        }
      ],
      "name": "grantRole",
      "outputs": [],
      "stateMutability": "nonpayable",
      "type": "function"
    },
    {
      "inputs": [
        {
          "internalType": "bytes32",
          "name": "role",
          "type": "bytes32"
        },
        {
          "internalType": "address",
          "name": "account",
          "type": "address"
        }
      ],
      "name": "hasRole",
      "outputs": [
        {
          "internalType": "bool",
          "name": "",
          "type": "bool"
        }
      ],
      "stateMutability": "view",
      "type": "function"
    },
    {
      "inputs": [
        {
          "internalType": "address",
          "name": "weth",
          "type": "address"
        }
      ],
      "name": "initialize",
      "outputs": [],
      "stateMutability": "nonpayable",
      "type": "function"
    },
    {
      "inputs": [
        {
          "internalType": "address",
          "name": "",
          "type": "address"
        },
        {
          "internalType": "address",
          "name": "",
          "type": "address"
        }
      ],
      "name": "interestLastUpdateDate",
      "outputs": [
        {
          "internalType": "uint256",
          "name": "",
          "type": "uint256"
        }
      ],
      "stateMutability": "view",
      "type": "function"
    },
    {
      "inputs": [
        {
          "internalType": "address",
          "name": "",
          "type": "address"
        }
      ],
      "name": "interestRate",
      "outputs": [
        {
          "internalType": "uint256",
          "name": "",
          "type": "uint256"
        }
      ],
      "stateMutability": "view",
      "type": "function"
    },
    {
      "inputs": [
        {
          "internalType": "address",
          "name": "",
          "type": "address"
        }
      ],
      "name": "isCollateralValid",
      "outputs": [
        {
          "internalType": "bool",
          "name": "",
          "type": "bool"
        }
      ],
      "stateMutability": "view",
      "type": "function"
    },
    {
      "inputs": [
        {
          "internalType": "address",
          "name": "",
          "type": "address"
        }
      ],
      "name": "isFxTokenValid",
      "outputs": [
        {
          "internalType": "bool",
          "name": "",
          "type": "bool"
        }
      ],
      "stateMutability": "view",
      "type": "function"
    },
    {
      "inputs": [],
      "name": "mintFeePerMille",
      "outputs": [
        {
          "internalType": "uint256",
          "name": "",
          "type": "uint256"
        }
      ],
      "stateMutability": "view",
      "type": "function"
    },
    {
      "inputs": [],
      "name": "mintRewardToken",
      "outputs": [
        {
          "internalType": "address",
          "name": "",
          "type": "address"
        }
      ],
      "stateMutability": "view",
      "type": "function"
    },
    {
      "inputs": [],
      "name": "mintToken",
      "outputs": [
        {
          "internalType": "address",
          "name": "",
          "type": "address"
        }
      ],
      "stateMutability": "view",
      "type": "function"
    },
    {
      "inputs": [
        {
          "internalType": "address",
          "name": "",
          "type": "address"
        }
      ],
      "name": "oracles",
      "outputs": [
        {
          "internalType": "address",
          "name": "",
          "type": "address"
        }
      ],
      "stateMutability": "view",
      "type": "function"
    },
    {
      "inputs": [],
      "name": "poolRewardToken",
      "outputs": [
        {
          "internalType": "address",
          "name": "",
          "type": "address"
        }
      ],
      "stateMutability": "view",
      "type": "function"
    },
    {
      "inputs": [
        {
          "internalType": "address",
          "name": "token",
          "type": "address"
        }
      ],
      "name": "removeCollateralToken",
      "outputs": [],
      "stateMutability": "nonpayable",
      "type": "function"
    },
    {
      "inputs": [
        {
          "internalType": "address",
          "name": "token",
          "type": "address"
        }
      ],
      "name": "removeFxToken",
      "outputs": [],
      "stateMutability": "nonpayable",
      "type": "function"
    },
    {
      "inputs": [
        {
          "internalType": "bytes32",
          "name": "role",
          "type": "bytes32"
        },
        {
          "internalType": "address",
          "name": "account",
          "type": "address"
        }
      ],
      "name": "renounceRole",
      "outputs": [],
      "stateMutability": "nonpayable",
      "type": "function"
    },
    {
      "inputs": [
        {
          "internalType": "bytes32",
          "name": "role",
          "type": "bytes32"
        },
        {
          "internalType": "address",
          "name": "account",
          "type": "address"
        }
      ],
      "name": "revokeRole",
      "outputs": [],
      "stateMutability": "nonpayable",
      "type": "function"
    },
    {
      "inputs": [
        {
          "internalType": "address",
          "name": "collateral",
          "type": "address"
        },
        {
          "internalType": "uint256",
          "name": "ratePerMille",
          "type": "uint256"
        }
      ],
      "name": "setCollateralInterestRate",
      "outputs": [],
      "stateMutability": "nonpayable",
      "type": "function"
    },
    {
      "inputs": [
        {
          "internalType": "address",
          "name": "_token",
          "type": "address"
        },
        {
          "internalType": "uint256",
          "name": "_mintCR",
          "type": "uint256"
        },
        {
          "internalType": "uint256",
          "name": "_liquidationFee",
          "type": "uint256"
        }
      ],
      "name": "setCollateralToken",
      "outputs": [],
      "stateMutability": "nonpayable",
      "type": "function"
    },
    {
      "inputs": [
        {
          "internalType": "address",
          "name": "_treasury",
          "type": "address"
        },
        {
          "internalType": "address",
          "name": "_comptroller",
          "type": "address"
        },
        {
          "internalType": "address",
          "name": "_vaultLibrary",
          "type": "address"
        },
        {
          "internalType": "address",
          "name": "_fxKeeperPool",
          "type": "address"
        }
      ],
      "name": "setComponents",
      "outputs": [],
      "stateMutability": "nonpayable",
      "type": "function"
    },
    {
      "inputs": [
        {
          "internalType": "address",
          "name": "feeRecipient",
          "type": "address"
        }
      ],
      "name": "setFeeRecipient",
      "outputs": [],
      "stateMutability": "nonpayable",
      "type": "function"
    },
    {
      "inputs": [
        {
          "internalType": "uint256",
          "name": "_withdrawFeePerMille",
          "type": "uint256"
        },
        {
          "internalType": "uint256",
          "name": "_depositFeePerMille",
          "type": "uint256"
        },
        {
          "internalType": "uint256",
          "name": "_mintFeePerMille",
          "type": "uint256"
        },
        {
          "internalType": "uint256",
          "name": "_burnFeePerMille",
          "type": "uint256"
        }
      ],
      "name": "setFees",
      "outputs": [],
      "stateMutability": "nonpayable",
      "type": "function"
    },
    {
      "inputs": [
        {
          "internalType": "address",
          "name": "token",
          "type": "address"
        },
        {
          "internalType": "uint256",
          "name": "rewardRatio",
          "type": "uint256"
        }
      ],
      "name": "setFxToken",
      "outputs": [],
      "stateMutability": "nonpayable",
      "type": "function"
    },
    {
      "inputs": [
        {
          "internalType": "address",
          "name": "account",
          "type": "address"
        },
        {
          "internalType": "address",
          "name": "fxToken",
          "type": "address"
        },
        {
          "internalType": "uint256",
          "name": "date",
          "type": "uint256"
        }
      ],
      "name": "setInterestLastUpdateDate",
      "outputs": [],
      "stateMutability": "nonpayable",
      "type": "function"
    },
    {
      "inputs": [
        {
          "internalType": "address",
          "name": "token",
          "type": "address"
        }
      ],
      "name": "setMintToken",
      "outputs": [],
      "stateMutability": "nonpayable",
      "type": "function"
    },
    {
      "inputs": [
        {
          "internalType": "address",
          "name": "_fxToken",
          "type": "address"
        },
        {
          "internalType": "address",
          "name": "_oracle",
          "type": "address"
        }
      ],
      "name": "setOracle",
      "outputs": [],
      "stateMutability": "nonpayable",
      "type": "function"
    },
    {
      "inputs": [
        {
          "internalType": "address",
          "name": "token",
          "type": "address"
        },
        {
          "internalType": "bytes32",
          "name": "which",
          "type": "bytes32"
        }
      ],
      "name": "setRewardToken",
      "outputs": [],
      "stateMutability": "nonpayable",
      "type": "function"
    },
    {
      "inputs": [
        {
          "internalType": "bytes4",
          "name": "interfaceId",
          "type": "bytes4"
        }
      ],
      "name": "supportsInterface",
      "outputs": [
        {
          "internalType": "bool",
          "name": "",
          "type": "bool"
        }
      ],
      "stateMutability": "view",
      "type": "function"
    },
    {
      "inputs": [
        {
          "internalType": "address",
          "name": "",
          "type": "address"
        }
      ],
      "name": "tokenDetails",
      "outputs": [
        {
          "internalType": "uint256",
          "name": "rewardRatio",
          "type": "uint256"
        }
      ],
      "stateMutability": "view",
      "type": "function"
    },
    {
      "inputs": [
        {
          "internalType": "address",
          "name": "",
          "type": "address"
        }
      ],
      "name": "totalBalances",
      "outputs": [
        {
          "internalType": "uint256",
          "name": "",
          "type": "uint256"
        }
      ],
      "stateMutability": "view",
      "type": "function"
    },
    {
      "inputs": [],
      "name": "treasury",
      "outputs": [
        {
          "internalType": "address payable",
          "name": "",
          "type": "address"
        }
      ],
      "stateMutability": "view",
      "type": "function"
    },
    {
      "inputs": [
        {
          "internalType": "address",
          "name": "account",
          "type": "address"
        },
        {
          "internalType": "uint256",
          "name": "amount",
          "type": "uint256"
        },
        {
          "internalType": "address",
          "name": "fxToken",
          "type": "address"
        },
        {
          "internalType": "address",
          "name": "collateralToken",
          "type": "address"
        },
        {
          "internalType": "bool",
          "name": "increase",
          "type": "bool"
        }
      ],
      "name": "updateCollateralBalance",
      "outputs": [],
      "stateMutability": "nonpayable",
      "type": "function"
    },
    {
      "inputs": [
        {
          "internalType": "address",
          "name": "account",
          "type": "address"
        },
        {
          "internalType": "uint256",
          "name": "amount",
          "type": "uint256"
        },
        {
          "internalType": "address",
          "name": "fxToken",
          "type": "address"
        },
        {
          "internalType": "bool",
          "name": "increase",
          "type": "bool"
        }
      ],
      "name": "updateDebtPosition",
      "outputs": [],
      "stateMutability": "nonpayable",
      "type": "function"
    },
    {
      "inputs": [
        {
          "internalType": "address",
          "name": "newImplementation",
          "type": "address"
        }
      ],
      "name": "upgradeTo",
      "outputs": [],
      "stateMutability": "nonpayable",
      "type": "function"
    },
    {
      "inputs": [
        {
          "internalType": "address",
          "name": "newImplementation",
          "type": "address"
        },
        {
          "internalType": "bytes",
          "name": "data",
          "type": "bytes"
        }
      ],
      "name": "upgradeToAndCall",
      "outputs": [],
      "stateMutability": "payable",
      "type": "function"
    },
    {
      "inputs": [
        {
          "internalType": "uint256",
          "name": "",
          "type": "uint256"
        }
      ],
      "name": "validFxTokens",
      "outputs": [
        {
          "internalType": "address",
          "name": "",
          "type": "address"
        }
      ],
      "stateMutability": "view",
      "type": "function"
    },
    {
      "inputs": [],
      "name": "vaultLibrary",
      "outputs": [
        {
          "internalType": "address",
          "name": "",
          "type": "address"
        }
      ],
      "stateMutability": "view",
      "type": "function"
    },
    {
      "inputs": [
        {
          "internalType": "address",
          "name": "",
          "type": "address"
        },
        {
          "internalType": "address",
          "name": "",
          "type": "address"
        }
      ],
      "name": "vaults",
      "outputs": [
        {
          "internalType": "uint256",
          "name": "debt",
          "type": "uint256"
        },
        {
          "internalType": "uint256",
          "name": "issuanceDelta",
          "type": "uint256"
        }
      ],
      "stateMutability": "view",
      "type": "function"
    },
    {
      "inputs": [],
      "name": "withdrawFeePerMille",
      "outputs": [
        {
          "internalType": "uint256",
          "name": "",
          "type": "uint256"
        }
      ],
      "stateMutability": "view",
      "type": "function"
    }
  ],
  "bytecode": "0x608060405234801561001057600080fd5b50615bfb80620000216000396000f3fe6080604052600436106103975760003560e01c806394f9059f116101dc578063c68da11011610102578063e74b981b116100a0578063ec94578e1161006f578063ec94578e14610e60578063f5b541a614610e8b578063f70eebf514610eb6578063fe4d18e814610ee157610397565b8063e74b981b14610db8578063e75fd0b514610de1578063e9258d5814610e0c578063eb0a8b9114610e3557610397565b8063d4fac45d116100dc578063d4fac45d14610ceb578063d547741f14610d29578063d5d907db14610d52578063dd4be68314610d7b57610397565b8063c68da11014610c46578063d02641a014610c83578063d1601f1314610cc057610397565b8063ad5c46481161017a578063bcc1eb9b11610149578063bcc1eb9b14610b7a578063bd9e520014610ba3578063c462b52014610be0578063c4d66de814610c1d57610397565b8063ad5c464814610aaa578063addd509914610ad5578063aee9c87214610b12578063b1c566a014610b4f57610397565b80639df5138a116101b65780639df5138a146109da578063a0f026ff14610a05578063a217fddf14610a42578063abd3da5e14610a6d57610397565b806394f9059f1461095d57806397af572e146109865780639931286d146109af57610397565b8063498b5ae8116102c15780636fcba3771161025f578063803c97b31161022e578063803c97b31461087d578063877034f1146108ba57806388aa8bee146108e357806391d148541461092057610397565b80636fcba377146107af57806373dfdae9146107d857806375b238fc146108155780637c2c69c01461084057610397565b80634f1ef2861161029b5780634f1ef286146107145780635c38eb3a146107305780635fe3b5671461075957806361d027b31461078457610397565b8063498b5ae8146106705780634a13e91d146106ad5780634d635e70146106d657610397565b80632b4557591161033957806338df2ff31161030857806338df2ff3146105a157806339683a05146105df57806341e3f2811461061c57806345afdc8d1461064757610397565b80632b455759146104fd5780632f2ff15d1461052657806336568abe1461054f5780633659cfe61461057857610397565b80632004ffd9116103755780632004ffd91461043f578063248a9ca31461046a57806327ab02b9146104a7578063294d499e146104d257610397565b806301ffc9a71461039c578063172c48c7146103d9578063181e20a714610416575b600080fd5b3480156103a857600080fd5b506103c360048036038101906103be9190614b2b565b610f0a565b6040516103d0919061517d565b60405180910390f35b3480156103e557600080fd5b5061040060048036038101906103fb9190614b54565b610f84565b60405161040d91906150c5565b60405180910390f35b34801561042257600080fd5b5061043d6004803603810190610438919061499d565b610fc4565b005b34801561044b57600080fd5b506104546113df565b60405161046191906150c5565b60405180910390f35b34801561047657600080fd5b50610491600480360381019061048c9190614ac6565b611406565b60405161049e9190615198565b60405180910390f35b3480156104b357600080fd5b506104bc611426565b6040516104c991906150c5565b60405180910390f35b3480156104de57600080fd5b506104e761144c565b6040516104f49190615124565b60405180910390f35b34801561050957600080fd5b50610524600480360381019061051f919061476b565b6114db565b005b34801561053257600080fd5b5061054d60048036038101906105489190614aef565b611970565b005b34801561055b57600080fd5b5061057660048036038101906105719190614aef565b611999565b005b34801561058457600080fd5b5061059f600480360381019061059a919061476b565b611a1c565b005b3480156105ad57600080fd5b506105c860048036038101906105c3919061476b565b611a43565b6040516105d69291906153e6565b60405180910390f35b3480156105eb57600080fd5b5061060660048036038101906106019190614794565b611a68565b60405161061391906153cb565b60405180910390f35b34801561062857600080fd5b50610631611af3565b60405161063e91906153cb565b60405180910390f35b34801561065357600080fd5b5061066e6004803603810190610669919061481f565b611afa565b005b34801561067c57600080fd5b5061069760048036038101906106929190614794565b611ec5565b6040516106a491906153cb565b60405180910390f35b3480156106b957600080fd5b506106d460048036038101906106cf919061476b565b612019565b005b3480156106e257600080fd5b506106fd60048036038101906106f89190614794565b61208e565b60405161070b9291906153e6565b60405180910390f35b61072e6004803603810190610729919061490d565b6120c0565b005b34801561073c57600080fd5b5061075760048036038101906107529190614794565b6120d9565b005b34801561076557600080fd5b5061076e61226d565b60405161077b91906150c5565b60405180910390f35b34801561079057600080fd5b50610799612293565b6040516107a691906150e0565b60405180910390f35b3480156107bb57600080fd5b506107d660048036038101906107d19190614ba6565b6122b9565b005b3480156107e457600080fd5b506107ff60048036038101906107fa9190614794565b612310565b60405161080c91906153cb565b60405180910390f35b34801561082157600080fd5b5061082a612336565b6040516108379190615198565b60405180910390f35b34801561084c57600080fd5b506108676004803603810190610862919061476b565b61235a565b60405161087491906153cb565b60405180910390f35b34801561088957600080fd5b506108a4600480360381019061089f919061476b565b612373565b6040516108b1919061517d565b60405180910390f35b3480156108c657600080fd5b506108e160048036038101906108dc9190614a14565b612394565b005b3480156108ef57600080fd5b5061090a6004803603810190610905919061476b565b612598565b60405161091791906153b0565b60405180910390f35b34801561092c57600080fd5b5061094760048036038101906109429190614aef565b6125fc565b604051610954919061517d565b60405180910390f35b34801561096957600080fd5b50610984600480360381019061097f919061476b565b612667565b005b34801561099257600080fd5b506109ad60048036038101906109a89190614a77565b6126eb565b005b3480156109bb57600080fd5b506109c461289d565b6040516109d191906153cb565b60405180910390f35b3480156109e657600080fd5b506109ef6128a4565b6040516109fc91906153cb565b60405180910390f35b348015610a1157600080fd5b50610a2c6004803603810190610a27919061476b565b6128ab565b604051610a39919061517d565b60405180910390f35b348015610a4e57600080fd5b50610a576128cc565b604051610a649190615198565b60405180910390f35b348015610a7957600080fd5b50610a946004803603810190610a8f9190614b54565b6128d3565b604051610aa191906150c5565b60405180910390f35b348015610ab657600080fd5b50610abf612913565b604051610acc91906150c5565b60405180910390f35b348015610ae157600080fd5b50610afc6004803603810190610af7919061476b565b61293a565b604051610b0991906150c5565b60405180910390f35b348015610b1e57600080fd5b50610b396004803603810190610b34919061476b565b61296e565b604051610b4691906153cb565b60405180910390f35b348015610b5b57600080fd5b50610b64612987565b604051610b7191906150c5565b60405180910390f35b348015610b8657600080fd5b50610ba16004803603810190610b9c9190614961565b6129ad565b005b348015610baf57600080fd5b50610bca6004803603810190610bc5919061476b565b612a99565b604051610bd79190615395565b60405180910390f35b348015610bec57600080fd5b50610c076004803603810190610c0291906147d0565b612b07565b604051610c1491906153cb565b60405180910390f35b348015610c2957600080fd5b50610c446004803603810190610c3f919061476b565b612bd0565b005b348015610c5257600080fd5b50610c6d6004803603810190610c689190614794565b612d68565b604051610c7a91906153cb565b60405180910390f35b348015610c8f57600080fd5b50610caa6004803603810190610ca5919061476b565b612df0565b604051610cb791906153cb565b60405180910390f35b348015610ccc57600080fd5b50610cd561305d565b604051610ce29190615124565b60405180910390f35b348015610cf757600080fd5b50610d126004803603810190610d0d9190614794565b6130ec565b604051610d20929190615146565b60405180910390f35b348015610d3557600080fd5b50610d506004803603810190610d4b9190614aef565b6132e0565b005b348015610d5e57600080fd5b50610d796004803603810190610d749190614882565b613309565b005b348015610d8757600080fd5b50610da26004803603810190610d9d919061476b565b6133f9565b604051610daf91906153cb565b60405180910390f35b348015610dc457600080fd5b50610ddf6004803603810190610dda919061476b565b613418565b005b348015610ded57600080fd5b50610df6613500565b604051610e0391906153cb565b60405180910390f35b348015610e1857600080fd5b50610e336004803603810190610e2e91906148d1565b613507565b005b348015610e4157600080fd5b50610e4a61357d565b604051610e5791906150c5565b60405180910390f35b348015610e6c57600080fd5b50610e756135a3565b604051610e8291906150c5565b60405180910390f35b348015610e9757600080fd5b50610ea06135ca565b604051610ead9190615198565b60405180910390f35b348015610ec257600080fd5b50610ecb6135ee565b604051610ed891906150c5565b60405180910390f35b348015610eed57600080fd5b50610f086004803603810190610f039190614961565b613615565b005b60007f7965db0b000000000000000000000000000000000000000000000000000000007bffffffffffffffffffffffffffffffffffffffffffffffffffffffff1916827bffffffffffffffffffffffffffffffffffffffffffffffffffffffff19161480610f7d5750610f7c826137b6565b5b9050919050565b6101028181548110610f9557600080fd5b906000526020600020016000915054906101000a900473ffffffffffffffffffffffffffffffffffffffff1681565b610fee7f97667070c54ef182b0f5858b034beac1b6f3089aa2d3188bb1e8929f4fa9b929336125fc565b61102d576040517f08c379a0000000000000000000000000000000000000000000000000000000008152600401611024906151f5565b60405180910390fd5b60fb60009054906101000a900473ffffffffffffffffffffffffffffffffffffffff1673ffffffffffffffffffffffffffffffffffffffff163373ffffffffffffffffffffffffffffffffffffffff16146110bd576040517f08c379a00000000000000000000000000000000000000000000000000000000081526004016110b4906152f5565b60405180910390fd5b600061010860008773ffffffffffffffffffffffffffffffffffffffff1673ffffffffffffffffffffffffffffffffffffffff16815260200190815260200160002060008573ffffffffffffffffffffffffffffffffffffffff1673ffffffffffffffffffffffffffffffffffffffff16815260200190815260200160002060010160008473ffffffffffffffffffffffffffffffffffffffff1673ffffffffffffffffffffffffffffffffffffffff1681526020019081526020016000205490508161119c57611197858261382090919063ffffffff16565b6111b0565b6111af858261383690919063ffffffff16565b5b61010860008873ffffffffffffffffffffffffffffffffffffffff1673ffffffffffffffffffffffffffffffffffffffff16815260200190815260200160002060008673ffffffffffffffffffffffffffffffffffffffff1673ffffffffffffffffffffffffffffffffffffffff16815260200190815260200160002060010160008573ffffffffffffffffffffffffffffffffffffffff1673ffffffffffffffffffffffffffffffffffffffff16815260200190815260200160002081905550816112ce576112c98561010960008673ffffffffffffffffffffffffffffffffffffffff1673ffffffffffffffffffffffffffffffffffffffff1681526020019081526020016000205461382090919063ffffffff16565b611322565b6113218561010960008673ffffffffffffffffffffffffffffffffffffffff1673ffffffffffffffffffffffffffffffffffffffff1681526020019081526020016000205461383690919063ffffffff16565b5b61010960008573ffffffffffffffffffffffffffffffffffffffff1673ffffffffffffffffffffffffffffffffffffffff168152602001908152602001600020819055508273ffffffffffffffffffffffffffffffffffffffff168473ffffffffffffffffffffffffffffffffffffffff168773ffffffffffffffffffffffffffffffffffffffff167f2027a0219b5bbff94e3a2050ec5c3ab5fafaaffe9c131dd57d2366b04423eff360405160405180910390a4505050505050565b61010b60009054906101000a900473ffffffffffffffffffffffffffffffffffffffff1681565b600060c96000838152602001908152602001600020600101549050919050565b60fe60009054906101000a900473ffffffffffffffffffffffffffffffffffffffff1681565b60606101028054806020026020016040519081016040528092919081815260200182805480156114d157602002820191906000526020600020905b8160009054906101000a900473ffffffffffffffffffffffffffffffffffffffff1673ffffffffffffffffffffffffffffffffffffffff1681526020019060010190808311611487575b5050505050905090565b61150c7fa49807205ce4d355092ef5a8a18f56e8913cf4a201fbe287825b095693c2177561150761384c565b613854565b8061010660008273ffffffffffffffffffffffffffffffffffffffff1673ffffffffffffffffffffffffffffffffffffffff16815260200190815260200160002060009054906101000a900460ff1661159a576040517f08c379a000000000000000000000000000000000000000000000000000000000815260040161159190615255565b60405180910390fd5b60006001610105805490506115af9190615514565b905060005b61010580549050811015611676578373ffffffffffffffffffffffffffffffffffffffff166101058281548110611614577f4e487b7100000000000000000000000000000000000000000000000000000000600052603260045260246000fd5b9060005260206000200160009054906101000a900473ffffffffffffffffffffffffffffffffffffffff1673ffffffffffffffffffffffffffffffffffffffff16141561166357809150611676565b808061166e90615725565b9150506115b4565b5061010760008473ffffffffffffffffffffffffffffffffffffffff1673ffffffffffffffffffffffffffffffffffffffff168152602001908152602001600020600080820160009055505061010660008473ffffffffffffffffffffffffffffffffffffffff1673ffffffffffffffffffffffffffffffffffffffff16815260200190815260200160002060006101000a81549060ff021916905560016101058054905061172591906155c4565b811015611902576101058181548110611767577f4e487b7100000000000000000000000000000000000000000000000000000000600052603260045260246000fd5b9060005260206000200160006101000a81549073ffffffffffffffffffffffffffffffffffffffff02191690556101056001610105805490506117aa91906155c4565b815481106117e1577f4e487b7100000000000000000000000000000000000000000000000000000000600052603260045260246000fd5b9060005260206000200160009054906101000a900473ffffffffffffffffffffffffffffffffffffffff166101058281548110611847577f4e487b7100000000000000000000000000000000000000000000000000000000600052603260045260246000fd5b9060005260206000200160006101000a81548173ffffffffffffffffffffffffffffffffffffffff021916908373ffffffffffffffffffffffffffffffffffffffff1602179055506101058054806118c8577f4e487b7100000000000000000000000000000000000000000000000000000000600052603160045260246000fd5b6001900381819060005260206000200160006101000a81549073ffffffffffffffffffffffffffffffffffffffff0219169055905561196b565b610105818154811061193d577f4e487b7100000000000000000000000000000000000000000000000000000000600052603260045260246000fd5b9060005260206000200160006101000a81549073ffffffffffffffffffffffffffffffffffffffff02191690555b505050565b61197982611406565b61198a8161198561384c565b613854565b61199483836138f1565b505050565b6119a161384c565b73ffffffffffffffffffffffffffffffffffffffff168173ffffffffffffffffffffffffffffffffffffffff1614611a0e576040517f08c379a0000000000000000000000000000000000000000000000000000000008152600401611a0590615375565b60405180910390fd5b611a1882826139d2565b5050565b611a2581613ab4565b611a4081604051806020016040528060008152506000613ae8565b50565b6101046020528060005260406000206000915090508060000154908060010154905082565b600061010860008473ffffffffffffffffffffffffffffffffffffffff1673ffffffffffffffffffffffffffffffffffffffff16815260200190815260200160002060008373ffffffffffffffffffffffffffffffffffffffff1673ffffffffffffffffffffffffffffffffffffffff16815260200190815260200160002060000154905092915050565b61010f5481565b611b2b7fa49807205ce4d355092ef5a8a18f56e8913cf4a201fbe287825b095693c21775611b2661384c565b613854565b83600073ffffffffffffffffffffffffffffffffffffffff168173ffffffffffffffffffffffffffffffffffffffff161415611b9c576040517f08c379a0000000000000000000000000000000000000000000000000000000008152600401611b9390615335565b60405180910390fd5b83600073ffffffffffffffffffffffffffffffffffffffff168173ffffffffffffffffffffffffffffffffffffffff161415611c0d576040517f08c379a0000000000000000000000000000000000000000000000000000000008152600401611c0490615335565b60405180910390fd5b83600073ffffffffffffffffffffffffffffffffffffffff168173ffffffffffffffffffffffffffffffffffffffff161415611c7e576040517f08c379a0000000000000000000000000000000000000000000000000000000008152600401611c7590615335565b60405180910390fd5b8660fb60006101000a81548173ffffffffffffffffffffffffffffffffffffffff021916908373ffffffffffffffffffffffffffffffffffffffff1602179055508560fc60006101000a81548173ffffffffffffffffffffffffffffffffffffffff021916908373ffffffffffffffffffffffffffffffffffffffff1602179055508460fd60006101000a81548173ffffffffffffffffffffffffffffffffffffffff021916908373ffffffffffffffffffffffffffffffffffffffff1602179055508360fe60006101000a81548173ffffffffffffffffffffffffffffffffffffffff021916908373ffffffffffffffffffffffffffffffffffffffff160217905550611dce7f97667070c54ef182b0f5858b034beac1b6f3089aa2d3188bb1e8929f4fa9b92960fb60009054906101000a900473ffffffffffffffffffffffffffffffffffffffff166125fc565b611e1f57611e1e7f97667070c54ef182b0f5858b034beac1b6f3089aa2d3188bb1e8929f4fa9b92960fb60009054906101000a900473ffffffffffffffffffffffffffffffffffffffff16611970565b5b611e6b7f97667070c54ef182b0f5858b034beac1b6f3089aa2d3188bb1e8929f4fa9b92960fc60009054906101000a900473ffffffffffffffffffffffffffffffffffffffff166125fc565b611ebc57611ebb7f97667070c54ef182b0f5858b034beac1b6f3089aa2d3188bb1e8929f4fa9b92960fc60009054906101000a900473ffffffffffffffffffffffffffffffffffffffff16611970565b5b50505050505050565b60008061010860008573ffffffffffffffffffffffffffffffffffffffff1673ffffffffffffffffffffffffffffffffffffffff16815260200190815260200160002060008473ffffffffffffffffffffffffffffffffffffffff1673ffffffffffffffffffffffffffffffffffffffff168152602001908152602001600020600001549050600060fd60009054906101000a900473ffffffffffffffffffffffffffffffffffffffff1673ffffffffffffffffffffffffffffffffffffffff16638709294086866040518363ffffffff1660e01b8152600401611faa9291906150fb565b60206040518083038186803b158015611fc257600080fd5b505afa158015611fd6573d6000803e3d6000fd5b505050506040513d601f19601f82011682018060405250810190611ffa9190614b7d565b905061200f818361383690919063ffffffff16565b9250505092915050565b61204a7fa49807205ce4d355092ef5a8a18f56e8913cf4a201fbe287825b095693c2177561204561384c565b613854565b8060ff60006101000a81548173ffffffffffffffffffffffffffffffffffffffff021916908373ffffffffffffffffffffffffffffffffffffffff16021790555050565b610108602052816000526040600020602052806000526040600020600091509150508060000154908060020154905082565b6120c982613ab4565b6120d582826001613ae8565b5050565b61210a7fa49807205ce4d355092ef5a8a18f56e8913cf4a201fbe287825b095693c2177561210561384c565b613854565b600073ffffffffffffffffffffffffffffffffffffffff168273ffffffffffffffffffffffffffffffffffffffff16141561217a576040517f08c379a000000000000000000000000000000000000000000000000000000000815260040161217190615235565b60405180910390fd5b600073ffffffffffffffffffffffffffffffffffffffff168173ffffffffffffffffffffffffffffffffffffffff1614156121ea576040517f08c379a00000000000000000000000000000000000000000000000000000000081526004016121e190615235565b60405180910390fd5b8061011260008473ffffffffffffffffffffffffffffffffffffffff1673ffffffffffffffffffffffffffffffffffffffff16815260200190815260200160002060006101000a81548173ffffffffffffffffffffffffffffffffffffffff021916908373ffffffffffffffffffffffffffffffffffffffff1602179055505050565b60fc60009054906101000a900473ffffffffffffffffffffffffffffffffffffffff1681565b60fb60009054906101000a900473ffffffffffffffffffffffffffffffffffffffff1681565b6122ea7fa49807205ce4d355092ef5a8a18f56e8913cf4a201fbe287825b095693c217756122e561384c565b613854565b8361010f8190555082610110819055508061010e819055508161010d8190555050505050565b610111602052816000526040600020602052806000526040600020600091509150505481565b7fa49807205ce4d355092ef5a8a18f56e8913cf4a201fbe287825b095693c2177581565b61010a6020528060005260406000206000915090505481565b6101036020528060005260406000206000915054906101000a900460ff1681565b6123be7f97667070c54ef182b0f5858b034beac1b6f3089aa2d3188bb1e8929f4fa9b929336125fc565b6123fd576040517f08c379a00000000000000000000000000000000000000000000000000000000081526004016123f4906151f5565b60405180910390fd5b600061010860008673ffffffffffffffffffffffffffffffffffffffff1673ffffffffffffffffffffffffffffffffffffffff16815260200190815260200160002060008473ffffffffffffffffffffffffffffffffffffffff1673ffffffffffffffffffffffffffffffffffffffff1681526020019081526020016000206000015490508161249f5761249a848261382090919063ffffffff16565b6124b3565b6124b2848261383690919063ffffffff16565b5b61010860008773ffffffffffffffffffffffffffffffffffffffff1673ffffffffffffffffffffffffffffffffffffffff16815260200190815260200160002060008573ffffffffffffffffffffffffffffffffffffffff1673ffffffffffffffffffffffffffffffffffffffff168152602001908152602001600020600001819055508273ffffffffffffffffffffffffffffffffffffffff168573ffffffffffffffffffffffffffffffffffffffff167f2d1a59a877ca0f4ce2a4bff5fdbf6e60dabcd7a049afa997fdc2f61bebc68c3860405160405180910390a35050505050565b6125a0614658565b61010760008373ffffffffffffffffffffffffffffffffffffffff1673ffffffffffffffffffffffffffffffffffffffff1681526020019081526020016000206040518060200160405290816000820154815250509050919050565b600060c9600084815260200190815260200160002060000160008373ffffffffffffffffffffffffffffffffffffffff1673ffffffffffffffffffffffffffffffffffffffff16815260200190815260200160002060009054906101000a900460ff16905092915050565b6126987fa49807205ce4d355092ef5a8a18f56e8913cf4a201fbe287825b095693c2177561269361384c565b613854565b61010360008273ffffffffffffffffffffffffffffffffffffffff1673ffffffffffffffffffffffffffffffffffffffff16815260200190815260200160002060006101000a81549060ff021916905550565b61271c7fa49807205ce4d355092ef5a8a18f56e8913cf4a201fbe287825b095693c2177561271761384c565b613854565b61010360008473ffffffffffffffffffffffffffffffffffffffff1673ffffffffffffffffffffffffffffffffffffffff16815260200190815260200160002060009054906101000a900460ff1661282c57610102839080600181540180825580915050600190039060005260206000200160009091909190916101000a81548173ffffffffffffffffffffffffffffffffffffffff021916908373ffffffffffffffffffffffffffffffffffffffff160217905550600161010360008573ffffffffffffffffffffffffffffffffffffffff1673ffffffffffffffffffffffffffffffffffffffff16815260200190815260200160002060006101000a81548160ff0219169083151502179055505b60405180604001604052808381526020018281525061010460008573ffffffffffffffffffffffffffffffffffffffff1673ffffffffffffffffffffffffffffffffffffffff1681526020019081526020016000206000820151816000015560208201518160010155905050505050565b61010d5481565b6101105481565b6101066020528060005260406000206000915054906101000a900460ff1681565b6000801b81565b61010581815481106128e457600080fd5b906000526020600020016000915054906101000a900473ffffffffffffffffffffffffffffffffffffffff1681565b61010160009054906101000a900473ffffffffffffffffffffffffffffffffffffffff1681565b6101126020528060005260406000206000915054906101000a900473ffffffffffffffffffffffffffffffffffffffff1681565b6101096020528060005260406000206000915090505481565b60ff60009054906101000a900473ffffffffffffffffffffffffffffffffffffffff1681565b6129de7fa49807205ce4d355092ef5a8a18f56e8913cf4a201fbe287825b095693c217756129d961384c565b613854565b81600073ffffffffffffffffffffffffffffffffffffffff168173ffffffffffffffffffffffffffffffffffffffff161415612a4f576040517f08c379a0000000000000000000000000000000000000000000000000000000008152600401612a4690615335565b60405180910390fd5b8161010a60008573ffffffffffffffffffffffffffffffffffffffff1673ffffffffffffffffffffffffffffffffffffffff16815260200190815260200160002081905550505050565b612aa161466b565b61010460008373ffffffffffffffffffffffffffffffffffffffff1673ffffffffffffffffffffffffffffffffffffffff168152602001908152602001600020604051806040016040529081600082015481526020016001820154815250509050919050565b600061010860008573ffffffffffffffffffffffffffffffffffffffff1673ffffffffffffffffffffffffffffffffffffffff16815260200190815260200160002060008373ffffffffffffffffffffffffffffffffffffffff1673ffffffffffffffffffffffffffffffffffffffff16815260200190815260200160002060010160008473ffffffffffffffffffffffffffffffffffffffff1673ffffffffffffffffffffffffffffffffffffffff1681526020019081526020016000205490509392505050565b600060019054906101000a900460ff1680612bf6575060008054906101000a900460ff16155b612c35576040517f08c379a0000000000000000000000000000000000000000000000000000000008152600401612c2c90615275565b60405180910390fd5b60008060019054906101000a900460ff161590508015612c85576001600060016101000a81548160ff02191690831515021790555060016000806101000a81548160ff0219169083151502179055505b612c8d613cfc565b612cb77fa49807205ce4d355092ef5a8a18f56e8913cf4a201fbe287825b095693c2177533613ded565b612d017f97667070c54ef182b0f5858b034beac1b6f3089aa2d3188bb1e8929f4fa9b9297fa49807205ce4d355092ef5a8a18f56e8913cf4a201fbe287825b095693c21775613dfb565b8161010160006101000a81548173ffffffffffffffffffffffffffffffffffffffff021916908373ffffffffffffffffffffffffffffffffffffffff1602179055508015612d645760008060016101000a81548160ff0219169083151502179055505b5050565b600061011160008473ffffffffffffffffffffffffffffffffffffffff1673ffffffffffffffffffffffffffffffffffffffff16815260200190815260200160002060008373ffffffffffffffffffffffffffffffffffffffff1673ffffffffffffffffffffffffffffffffffffffff16815260200190815260200160002054905092915050565b600061010160009054906101000a900473ffffffffffffffffffffffffffffffffffffffff1673ffffffffffffffffffffffffffffffffffffffff168273ffffffffffffffffffffffffffffffffffffffff161415612e5957670de0b6b3a76400009050613058565b600073ffffffffffffffffffffffffffffffffffffffff1661011260008473ffffffffffffffffffffffffffffffffffffffff1673ffffffffffffffffffffffffffffffffffffffff16815260200190815260200160002060009054906101000a900473ffffffffffffffffffffffffffffffffffffffff1673ffffffffffffffffffffffffffffffffffffffff161415612f29576040517f08c379a0000000000000000000000000000000000000000000000000000000008152600401612f2090615295565b60405180910390fd5b61011260008373ffffffffffffffffffffffffffffffffffffffff1673ffffffffffffffffffffffffffffffffffffffff16815260200190815260200160002060009054906101000a900473ffffffffffffffffffffffffffffffffffffffff1673ffffffffffffffffffffffffffffffffffffffff166337cef791836040518263ffffffff1660e01b8152600401612fc291906150c5565b60206040518083038186803b158015612fda57600080fd5b505afa158015612fee573d6000803e3d6000fd5b505050506040513d601f19601f820116820180604052508101906130129190614b7d565b905060008111613057576040517f08c379a000000000000000000000000000000000000000000000000000000000815260040161304e90615355565b60405180910390fd5b5b919050565b60606101058054806020026020016040519081016040528092919081815260200182805480156130e257602002820191906000526020600020905b8160009054906101000a900473ffffffffffffffffffffffffffffffffffffffff1673ffffffffffffffffffffffffffffffffffffffff1681526020019060010190808311613098575b5050505050905090565b6060806130f761144c565b915060008251905060008167ffffffffffffffff811115613141577f4e487b7100000000000000000000000000000000000000000000000000000000600052604160045260246000fd5b60405190808252806020026020018201604052801561316f5781602001602082028036833780820191505090505b50905060005b828110156132d35761010860008873ffffffffffffffffffffffffffffffffffffffff1673ffffffffffffffffffffffffffffffffffffffff16815260200190815260200160002060008773ffffffffffffffffffffffffffffffffffffffff1673ffffffffffffffffffffffffffffffffffffffff1681526020019081526020016000206001016000868381518110613238577f4e487b7100000000000000000000000000000000000000000000000000000000600052603260045260246000fd5b602002602001015173ffffffffffffffffffffffffffffffffffffffff1673ffffffffffffffffffffffffffffffffffffffff168152602001908152602001600020548282815181106132b4577f4e487b7100000000000000000000000000000000000000000000000000000000600052603260045260246000fd5b60200260200101818152505080806132cb90615725565b915050613175565b5080925050509250929050565b6132e982611406565b6132fa816132f561384c565b613854565b61330483836139d2565b505050565b6133337f97667070c54ef182b0f5858b034beac1b6f3089aa2d3188bb1e8929f4fa9b929336125fc565b613372576040517f08c379a0000000000000000000000000000000000000000000000000000000008152600401613369906151f5565b60405180910390fd5b8061011160008573ffffffffffffffffffffffffffffffffffffffff1673ffffffffffffffffffffffffffffffffffffffff16815260200190815260200160002060008473ffffffffffffffffffffffffffffffffffffffff1673ffffffffffffffffffffffffffffffffffffffff16815260200190815260200160002081905550505050565b6101076020528060005260406000206000915090508060000154905081565b6134497fa49807205ce4d355092ef5a8a18f56e8913cf4a201fbe287825b095693c2177561344461384c565b613854565b80600073ffffffffffffffffffffffffffffffffffffffff168173ffffffffffffffffffffffffffffffffffffffff1614156134ba576040517f08c379a00000000000000000000000000000000000000000000000000000000081526004016134b190615335565b60405180910390fd5b8161010c60006101000a81548173ffffffffffffffffffffffffffffffffffffffff021916908373ffffffffffffffffffffffffffffffffffffffff1602179055505050565b61010e5481565b6135387fa49807205ce4d355092ef5a8a18f56e8913cf4a201fbe287825b095693c2177561353361384c565b613854565b6000613579576040517f08c379a0000000000000000000000000000000000000000000000000000000008152600401613570906152b5565b60405180910390fd5b5050565b60fd60009054906101000a900473ffffffffffffffffffffffffffffffffffffffff1681565b61010c60009054906101000a900473ffffffffffffffffffffffffffffffffffffffff1681565b7f97667070c54ef182b0f5858b034beac1b6f3089aa2d3188bb1e8929f4fa9b92981565b61010060009054906101000a900473ffffffffffffffffffffffffffffffffffffffff1681565b6136467fa49807205ce4d355092ef5a8a18f56e8913cf4a201fbe287825b095693c2177561364161384c565b613854565b61010660008373ffffffffffffffffffffffffffffffffffffffff1673ffffffffffffffffffffffffffffffffffffffff16815260200190815260200160002060009054906101000a900460ff1661375657610105829080600181540180825580915050600190039060005260206000200160009091909190916101000a81548173ffffffffffffffffffffffffffffffffffffffff021916908373ffffffffffffffffffffffffffffffffffffffff160217905550600161010660008473ffffffffffffffffffffffffffffffffffffffff1673ffffffffffffffffffffffffffffffffffffffff16815260200190815260200160002060006101000a81548160ff0219169083151502179055505b60405180602001604052808281525061010760008473ffffffffffffffffffffffffffffffffffffffff1673ffffffffffffffffffffffffffffffffffffffff168152602001908152602001600020600082015181600001559050505050565b60007f01ffc9a7000000000000000000000000000000000000000000000000000000007bffffffffffffffffffffffffffffffffffffffffffffffffffffffff1916827bffffffffffffffffffffffffffffffffffffffffffffffffffffffff1916149050919050565b6000818361382e91906155c4565b905092915050565b600081836138449190615514565b905092915050565b600033905090565b61385e82826125fc565b6138ed576138838173ffffffffffffffffffffffffffffffffffffffff166014613e51565b6138918360001c6020613e51565b6040516020016138a292919061508b565b6040516020818303038152906040526040517f08c379a00000000000000000000000000000000000000000000000000000000081526004016138e491906151b3565b60405180910390fd5b5050565b6138fb82826125fc565b6139ce57600160c9600084815260200190815260200160002060000160008373ffffffffffffffffffffffffffffffffffffffff1673ffffffffffffffffffffffffffffffffffffffff16815260200190815260200160002060006101000a81548160ff02191690831515021790555061397361384c565b73ffffffffffffffffffffffffffffffffffffffff168173ffffffffffffffffffffffffffffffffffffffff16837f2f8788117e7eff1d82e926ec794901d17c78024a50270940304540a733656f0d60405160405180910390a45b5050565b6139dc82826125fc565b15613ab057600060c9600084815260200190815260200160002060000160008373ffffffffffffffffffffffffffffffffffffffff1673ffffffffffffffffffffffffffffffffffffffff16815260200190815260200160002060006101000a81548160ff021916908315150217905550613a5561384c565b73ffffffffffffffffffffffffffffffffffffffff168173ffffffffffffffffffffffffffffffffffffffff16837ff6391f5c32d9c69d2a47ea670b442974b53935d1edc7fd64eb21e047a839171b60405160405180910390a45b5050565b613ae57fa49807205ce4d355092ef5a8a18f56e8913cf4a201fbe287825b095693c21775613ae061384c565b613854565b50565b6000613af261414b565b9050613afd846141a2565b600083511180613b0a5750815b15613b1b57613b19848461425b565b505b6000613b497f4910fdfa16fed3260ed0e7147f7cc6da11a60208b5b9406d12a635614ffd914360001b61433f565b90508060000160009054906101000a900460ff16613cf55760018160000160006101000a81548160ff021916908315150217905550613c158583604051602401613b9391906150c5565b6040516020818303038152906040527f3659cfe6000000000000000000000000000000000000000000000000000000007bffffffffffffffffffffffffffffffffffffffffffffffffffffffff19166020820180517bffffffffffffffffffffffffffffffffffffffffffffffffffffffff838183161783525050505061425b565b5060008160000160006101000a81548160ff021916908315150217905550613c3b61414b565b73ffffffffffffffffffffffffffffffffffffffff168273ffffffffffffffffffffffffffffffffffffffff1614613ca8576040517f08c379a0000000000000000000000000000000000000000000000000000000008152600401613c9f90615215565b60405180910390fd5b613cb1856141a2565b8473ffffffffffffffffffffffffffffffffffffffff167fbc7cd75a20ee27fd9adebab32041f755214dbc6bffa90cc0225b39da2e5c2d3b60405160405180910390a25b5050505050565b600060019054906101000a900460ff1680613d22575060008054906101000a900460ff16155b613d61576040517f08c379a0000000000000000000000000000000000000000000000000000000008152600401613d5890615275565b60405180910390fd5b60008060019054906101000a900460ff161590508015613db1576001600060016101000a81548160ff02191690831515021790555060016000806101000a81548160ff0219169083151502179055505b613db9614349565b613dc1614422565b613dc96144fb565b8015613dea5760008060016101000a81548160ff0219169083151502179055505b50565b613df782826138f1565b5050565b80613e0583611406565b837fbd79b86ffe0ab8e8776151514217cd7cacd52c909f66475c3af44e129f0b00ff60405160405180910390a48060c96000848152602001908152602001600020600101819055505050565b606060006002836002613e64919061556a565b613e6e9190615514565b67ffffffffffffffff811115613ead577f4e487b7100000000000000000000000000000000000000000000000000000000600052604160045260246000fd5b6040519080825280601f01601f191660200182016040528015613edf5781602001600182028036833780820191505090505b5090507f300000000000000000000000000000000000000000000000000000000000000081600081518110613f3d577f4e487b7100000000000000000000000000000000000000000000000000000000600052603260045260246000fd5b60200101907effffffffffffffffffffffffffffffffffffffffffffffffffffffffffffff1916908160001a9053507f780000000000000000000000000000000000000000000000000000000000000081600181518110613fc7577f4e487b7100000000000000000000000000000000000000000000000000000000600052603260045260246000fd5b60200101907effffffffffffffffffffffffffffffffffffffffffffffffffffffffffffff1916908160001a90535060006001846002614007919061556a565b6140119190615514565b90505b60018111156140fd577f3031323334353637383961626364656600000000000000000000000000000000600f861660108110614079577f4e487b7100000000000000000000000000000000000000000000000000000000600052603260045260246000fd5b1a60f81b8282815181106140b6577f4e487b7100000000000000000000000000000000000000000000000000000000600052603260045260246000fd5b60200101907effffffffffffffffffffffffffffffffffffffffffffffffffffffffffffff1916908160001a905350600485901c9450806140f6906156ca565b9050614014565b5060008414614141576040517f08c379a0000000000000000000000000000000000000000000000000000000008152600401614138906151d5565b60405180910390fd5b8091505092915050565b60006141797f360894a13ba1a3210667c828492db98dca3e2076cc3735a920a3ca505d382bbc60001b6145d4565b60000160009054906101000a900473ffffffffffffffffffffffffffffffffffffffff16905090565b6141ab816145de565b6141ea576040517f08c379a00000000000000000000000000000000000000000000000000000000081526004016141e1906152d5565b60405180910390fd5b806142177f360894a13ba1a3210667c828492db98dca3e2076cc3735a920a3ca505d382bbc60001b6145d4565b60000160006101000a81548173ffffffffffffffffffffffffffffffffffffffff021916908373ffffffffffffffffffffffffffffffffffffffff16021790555050565b6060614266836145de565b6142a5576040517f08c379a000000000000000000000000000000000000000000000000000000000815260040161429c90615315565b60405180910390fd5b6000808473ffffffffffffffffffffffffffffffffffffffff16846040516142cd9190615074565b600060405180830381855af49150503d8060008114614308576040519150601f19603f3d011682016040523d82523d6000602084013e61430d565b606091505b50915091506143358282604051806060016040528060278152602001615b9f602791396145f1565b9250505092915050565b6000819050919050565b600060019054906101000a900460ff168061436f575060008054906101000a900460ff16155b6143ae576040517f08c379a00000000000000000000000000000000000000000000000000000000081526004016143a590615275565b60405180910390fd5b60008060019054906101000a900460ff1615905080156143fe576001600060016101000a81548160ff02191690831515021790555060016000806101000a81548160ff0219169083151502179055505b801561441f5760008060016101000a81548160ff0219169083151502179055505b50565b600060019054906101000a900460ff1680614448575060008054906101000a900460ff16155b614487576040517f08c379a000000000000000000000000000000000000000000000000000000000815260040161447e90615275565b60405180910390fd5b60008060019054906101000a900460ff1615905080156144d7576001600060016101000a81548160ff02191690831515021790555060016000806101000a81548160ff0219169083151502179055505b80156144f85760008060016101000a81548160ff0219169083151502179055505b50565b600060019054906101000a900460ff1680614521575060008054906101000a900460ff16155b614560576040517f08c379a000000000000000000000000000000000000000000000000000000000815260040161455790615275565b60405180910390fd5b60008060019054906101000a900460ff1615905080156145b0576001600060016101000a81548160ff02191690831515021790555060016000806101000a81548160ff0219169083151502179055505b80156145d15760008060016101000a81548160ff0219169083151502179055505b50565b6000819050919050565b600080823b905060008111915050919050565b6060831561460157829050614651565b6000835111156146145782518084602001fd5b816040517f08c379a000000000000000000000000000000000000000000000000000000000815260040161464891906151b3565b60405180910390fd5b9392505050565b6040518060200160405280600081525090565b604051806040016040528060008152602001600081525090565b600061469861469384615434565b61540f565b9050828152602081018484840111156146b057600080fd5b6146bb848285615688565b509392505050565b6000813590506146d281615b2b565b92915050565b6000813590506146e781615b42565b92915050565b6000813590506146fc81615b59565b92915050565b60008135905061471181615b70565b92915050565b600082601f83011261472857600080fd5b8135614738848260208601614685565b91505092915050565b60008135905061475081615b87565b92915050565b60008151905061476581615b87565b92915050565b60006020828403121561477d57600080fd5b600061478b848285016146c3565b91505092915050565b600080604083850312156147a757600080fd5b60006147b5858286016146c3565b92505060206147c6858286016146c3565b9150509250929050565b6000806000606084860312156147e557600080fd5b60006147f3868287016146c3565b9350506020614804868287016146c3565b9250506040614815868287016146c3565b9150509250925092565b6000806000806080858703121561483557600080fd5b6000614843878288016146c3565b9450506020614854878288016146c3565b9350506040614865878288016146c3565b9250506060614876878288016146c3565b91505092959194509250565b60008060006060848603121561489757600080fd5b60006148a5868287016146c3565b93505060206148b6868287016146c3565b92505060406148c786828701614741565b9150509250925092565b600080604083850312156148e457600080fd5b60006148f2858286016146c3565b9250506020614903858286016146ed565b9150509250929050565b6000806040838503121561492057600080fd5b600061492e858286016146c3565b925050602083013567ffffffffffffffff81111561494b57600080fd5b61495785828601614717565b9150509250929050565b6000806040838503121561497457600080fd5b6000614982858286016146c3565b925050602061499385828601614741565b9150509250929050565b600080600080600060a086880312156149b557600080fd5b60006149c3888289016146c3565b95505060206149d488828901614741565b94505060406149e5888289016146c3565b93505060606149f6888289016146c3565b9250506080614a07888289016146d8565b9150509295509295909350565b60008060008060808587031215614a2a57600080fd5b6000614a38878288016146c3565b9450506020614a4987828801614741565b9350506040614a5a878288016146c3565b9250506060614a6b878288016146d8565b91505092959194509250565b600080600060608486031215614a8c57600080fd5b6000614a9a868287016146c3565b9350506020614aab86828701614741565b9250506040614abc86828701614741565b9150509250925092565b600060208284031215614ad857600080fd5b6000614ae6848285016146ed565b91505092915050565b60008060408385031215614b0257600080fd5b6000614b10858286016146ed565b9250506020614b21858286016146c3565b9150509250929050565b600060208284031215614b3d57600080fd5b6000614b4b84828501614702565b91505092915050565b600060208284031215614b6657600080fd5b6000614b7484828501614741565b91505092915050565b600060208284031215614b8f57600080fd5b6000614b9d84828501614756565b91505092915050565b60008060008060808587031215614bbc57600080fd5b6000614bca87828801614741565b9450506020614bdb87828801614741565b9350506040614bec87828801614741565b9250506060614bfd87828801614741565b91505092959194509250565b6000614c158383614c48565b60208301905092915050565b6000614c2d8383615056565b60208301905092915050565b614c428161560a565b82525050565b614c51816155f8565b82525050565b614c60816155f8565b82525050565b6000614c7182615485565b614c7b81856154cb565b9350614c8683615465565b8060005b83811015614cb7578151614c9e8882614c09565b9750614ca9836154b1565b925050600181019050614c8a565b5085935050505092915050565b6000614ccf82615490565b614cd981856154dc565b9350614ce483615475565b8060005b83811015614d15578151614cfc8882614c21565b9750614d07836154be565b925050600181019050614ce8565b5085935050505092915050565b614d2b8161561c565b82525050565b614d3a81615628565b82525050565b6000614d4b8261549b565b614d5581856154ed565b9350614d65818560208601615697565b80840191505092915050565b6000614d7c826154a6565b614d8681856154f8565b9350614d96818560208601615697565b614d9f816157cc565b840191505092915050565b6000614db5826154a6565b614dbf8185615509565b9350614dcf818560208601615697565b80840191505092915050565b6000614de86020836154f8565b9150614df3826157dd565b602082019050919050565b6000614e0b6002836154f8565b9150614e1682615806565b602082019050919050565b6000614e2e602f836154f8565b9150614e398261582f565b604082019050919050565b6000614e516002836154f8565b9150614e5c8261587e565b602082019050919050565b6000614e746002836154f8565b9150614e7f826158a7565b602082019050919050565b6000614e97602e836154f8565b9150614ea2826158d0565b604082019050919050565b6000614eba6013836154f8565b9150614ec58261591f565b602082019050919050565b6000614edd6013836154f8565b9150614ee882615948565b602082019050919050565b6000614f00602d836154f8565b9150614f0b82615971565b604082019050919050565b6000614f23600c836154f8565b9150614f2e826159c0565b602082019050919050565b6000614f466026836154f8565b9150614f51826159e9565b604082019050919050565b6000614f69600f836154f8565b9150614f7482615a38565b602082019050919050565b6000614f8c601783615509565b9150614f9782615a61565b601782019050919050565b6000614faf6013836154f8565b9150614fba82615a8a565b602082019050919050565b6000614fd2601183615509565b9150614fdd82615ab3565b601182019050919050565b6000614ff5602f836154f8565b915061500082615adc565b604082019050919050565b6040820160008201516150216000850182615056565b5060208201516150346020850182615056565b50505050565b6020820160008201516150506000850182615056565b50505050565b61505f8161567e565b82525050565b61506e8161567e565b82525050565b60006150808284614d40565b915081905092915050565b600061509682614f7f565b91506150a28285614daa565b91506150ad82614fc5565b91506150b98284614daa565b91508190509392505050565b60006020820190506150da6000830184614c57565b92915050565b60006020820190506150f56000830184614c39565b92915050565b60006040820190506151106000830185614c57565b61511d6020830184614c57565b9392505050565b6000602082019050818103600083015261513e8184614c66565b905092915050565b600060408201905081810360008301526151608185614c66565b905081810360208301526151748184614cc4565b90509392505050565b60006020820190506151926000830184614d22565b92915050565b60006020820190506151ad6000830184614d31565b92915050565b600060208201905081810360008301526151cd8184614d71565b905092915050565b600060208201905081810360008301526151ee81614ddb565b9050919050565b6000602082019050818103600083015261520e81614dfe565b9050919050565b6000602082019050818103600083015261522e81614e21565b9050919050565b6000602082019050818103600083015261524e81614e44565b9050919050565b6000602082019050818103600083015261526e81614e67565b9050919050565b6000602082019050818103600083015261528e81614e8a565b9050919050565b600060208201905081810360008301526152ae81614ead565b9050919050565b600060208201905081810360008301526152ce81614ed0565b9050919050565b600060208201905081810360008301526152ee81614ef3565b9050919050565b6000602082019050818103600083015261530e81614f16565b9050919050565b6000602082019050818103600083015261532e81614f39565b9050919050565b6000602082019050818103600083015261534e81614f5c565b9050919050565b6000602082019050818103600083015261536e81614fa2565b9050919050565b6000602082019050818103600083015261538e81614fe8565b9050919050565b60006040820190506153aa600083018461500b565b92915050565b60006020820190506153c5600083018461503a565b92915050565b60006020820190506153e06000830184615065565b92915050565b60006040820190506153fb6000830185615065565b6154086020830184615065565b9392505050565b600061541961542a565b905061542582826156f4565b919050565b6000604051905090565b600067ffffffffffffffff82111561544f5761544e61579d565b5b615458826157cc565b9050602081019050919050565b6000819050602082019050919050565b6000819050602082019050919050565b600081519050919050565b600081519050919050565b600081519050919050565b600081519050919050565b6000602082019050919050565b6000602082019050919050565b600082825260208201905092915050565b600082825260208201905092915050565b600081905092915050565b600082825260208201905092915050565b600081905092915050565b600061551f8261567e565b915061552a8361567e565b9250827fffffffffffffffffffffffffffffffffffffffffffffffffffffffffffffffff0382111561555f5761555e61576e565b5b828201905092915050565b60006155758261567e565b91506155808361567e565b9250817fffffffffffffffffffffffffffffffffffffffffffffffffffffffffffffffff04831182151516156155b9576155b861576e565b5b828202905092915050565b60006155cf8261567e565b91506155da8361567e565b9250828210156155ed576155ec61576e565b5b828203905092915050565b60006156038261565e565b9050919050565b60006156158261565e565b9050919050565b60008115159050919050565b6000819050919050565b60007fffffffff0000000000000000000000000000000000000000000000000000000082169050919050565b600073ffffffffffffffffffffffffffffffffffffffff82169050919050565b6000819050919050565b82818337600083830152505050565b60005b838110156156b557808201518184015260208101905061569a565b838111156156c4576000848401525b50505050565b60006156d58261567e565b915060008214156156e9576156e861576e565b5b600182039050919050565b6156fd826157cc565b810181811067ffffffffffffffff8211171561571c5761571b61579d565b5b80604052505050565b60006157308261567e565b91507fffffffffffffffffffffffffffffffffffffffffffffffffffffffffffffffff8214156157635761576261576e565b5b600182019050919050565b7f4e487b7100000000000000000000000000000000000000000000000000000000600052601160045260246000fd5b7f4e487b7100000000000000000000000000000000000000000000000000000000600052604160045260246000fd5b6000601f19601f8301169050919050565b7f537472696e67733a20686578206c656e67746820696e73756666696369656e74600082015250565b7f4e4f000000000000000000000000000000000000000000000000000000000000600082015250565b7f45524331393637557067726164653a207570677261646520627265616b73206660008201527f7572746865722075706772616465730000000000000000000000000000000000602082015250565b7f495a000000000000000000000000000000000000000000000000000000000000600082015250565b7f4946000000000000000000000000000000000000000000000000000000000000600082015250565b7f496e697469616c697a61626c653a20636f6e747261637420697320616c72656160008201527f647920696e697469616c697a6564000000000000000000000000000000000000602082015250565b7f4e6f206f7261636c6520666f7220746f6b656e00000000000000000000000000600082015250565b7f4e6f7420696d706c656d656e7465642079657400000000000000000000000000600082015250565b7f455243313936373a206e657720696d706c656d656e746174696f6e206973206e60008201527f6f74206120636f6e747261637400000000000000000000000000000000000000602082015250565b7f4e6f742074726561737572790000000000000000000000000000000000000000600082015250565b7f416464726573733a2064656c65676174652063616c6c20746f206e6f6e2d636f60008201527f6e74726163740000000000000000000000000000000000000000000000000000602082015250565b7f496e76616c696420416464726573730000000000000000000000000000000000600082015250565b7f416363657373436f6e74726f6c3a206163636f756e7420000000000000000000600082015250565b7f546f6b656e207072696365206973207a65726f00000000000000000000000000600082015250565b7f206973206d697373696e6720726f6c6520000000000000000000000000000000600082015250565b7f416363657373436f6e74726f6c3a2063616e206f6e6c792072656e6f756e636560008201527f20726f6c657320666f722073656c660000000000000000000000000000000000602082015250565b615b34816155f8565b8114615b3f57600080fd5b50565b615b4b8161561c565b8114615b5657600080fd5b50565b615b6281615628565b8114615b6d57600080fd5b50565b615b7981615632565b8114615b8457600080fd5b50565b615b908161567e565b8114615b9b57600080fd5b5056fe416464726573733a206c6f772d6c6576656c2064656c65676174652063616c6c206661696c6564a26469706673582212203cca6a651109bbd75730c06c1b5c708bd0ead77ba7ad106ac4a893cb0a5e4ef464736f6c63430008030033",
  "linkReferences": {},
  "deployedLinkReferences": {}
}