{
  "_format": "hh-sol-artifact-1",
  "contractName": "Handle",
  "sourceName": "contracts/Bank/Handle.sol",
  "abi": [
    {
      "anonymous": false,
      "inputs": [
        {
          "indexed": false,
          "internalType": "address",
          "name": "previousAdmin",
          "type": "address"
        },
        {
          "indexed": false,
          "internalType": "address",
          "name": "newAdmin",
          "type": "address"
        }
      ],
      "name": "AdminChanged",
      "type": "event"
    },
    {
      "anonymous": false,
      "inputs": [
        {
          "indexed": true,
          "internalType": "address",
          "name": "beacon",
          "type": "address"
        }
      ],
      "name": "BeaconUpgraded",
      "type": "event"
    },
    {
      "anonymous": false,
      "inputs": [
        {
          "indexed": true,
          "internalType": "address",
          "name": "collateralToken",
          "type": "address"
        }
      ],
      "name": "ConfigureCollateralToken",
      "type": "event"
    },
    {
      "anonymous": false,
      "inputs": [
        {
          "indexed": true,
          "internalType": "address",
          "name": "fxToken",
          "type": "address"
        }
      ],
      "name": "ConfigureFxToken",
      "type": "event"
    },
    {
      "anonymous": false,
      "inputs": [
        {
          "indexed": true,
          "internalType": "bytes32",
          "name": "role",
          "type": "bytes32"
        },
        {
          "indexed": true,
          "internalType": "bytes32",
          "name": "previousAdminRole",
          "type": "bytes32"
        },
        {
          "indexed": true,
          "internalType": "bytes32",
          "name": "newAdminRole",
          "type": "bytes32"
        }
      ],
      "name": "RoleAdminChanged",
      "type": "event"
    },
    {
      "anonymous": false,
      "inputs": [
        {
          "indexed": true,
          "internalType": "bytes32",
          "name": "role",
          "type": "bytes32"
        },
        {
          "indexed": true,
          "internalType": "address",
          "name": "account",
          "type": "address"
        },
        {
          "indexed": true,
          "internalType": "address",
          "name": "sender",
          "type": "address"
        }
      ],
      "name": "RoleGranted",
      "type": "event"
    },
    {
      "anonymous": false,
      "inputs": [
        {
          "indexed": true,
          "internalType": "bytes32",
          "name": "role",
          "type": "bytes32"
        },
        {
          "indexed": true,
          "internalType": "address",
          "name": "account",
          "type": "address"
        },
        {
          "indexed": true,
          "internalType": "address",
          "name": "sender",
          "type": "address"
        }
      ],
      "name": "RoleRevoked",
      "type": "event"
    },
    {
      "anonymous": false,
      "inputs": [
        {
          "indexed": true,
          "internalType": "address",
          "name": "account",
          "type": "address"
        },
        {
          "indexed": true,
          "internalType": "address",
          "name": "fxToken",
          "type": "address"
        },
        {
          "indexed": true,
          "internalType": "address",
          "name": "collateralToken",
          "type": "address"
        }
      ],
      "name": "UpdateCollateral",
      "type": "event"
    },
    {
      "anonymous": false,
      "inputs": [
        {
          "indexed": true,
          "internalType": "address",
          "name": "account",
          "type": "address"
        },
        {
          "indexed": true,
          "internalType": "address",
          "name": "fxToken",
          "type": "address"
        }
      ],
      "name": "UpdateDebt",
      "type": "event"
    },
    {
      "anonymous": false,
      "inputs": [
        {
          "indexed": true,
          "internalType": "address",
          "name": "implementation",
          "type": "address"
        }
      ],
      "name": "Upgraded",
      "type": "event"
    },
    {
      "inputs": [],
      "name": "ADMIN_ROLE",
      "outputs": [
        {
          "internalType": "bytes32",
          "name": "",
          "type": "bytes32"
        }
      ],
      "stateMutability": "view",
      "type": "function"
    },
    {
      "inputs": [],
      "name": "DEFAULT_ADMIN_ROLE",
      "outputs": [
        {
          "internalType": "bytes32",
          "name": "",
          "type": "bytes32"
        }
      ],
      "stateMutability": "view",
      "type": "function"
    },
    {
      "inputs": [],
      "name": "FeeRecipient",
      "outputs": [
        {
          "internalType": "address",
          "name": "",
          "type": "address"
        }
      ],
      "stateMutability": "view",
      "type": "function"
    },
    {
      "inputs": [],
      "name": "OPERATOR_ROLE",
      "outputs": [
        {
          "internalType": "bytes32",
          "name": "",
          "type": "bytes32"
        }
      ],
      "stateMutability": "view",
      "type": "function"
    },
    {
      "inputs": [],
      "name": "WETH",
      "outputs": [
        {
          "internalType": "address",
          "name": "",
          "type": "address"
        }
      ],
      "stateMutability": "view",
      "type": "function"
    },
    {
      "inputs": [],
      "name": "burnFeePerMille",
      "outputs": [
        {
          "internalType": "uint256",
          "name": "",
          "type": "uint256"
        }
      ],
      "stateMutability": "view",
      "type": "function"
    },
    {
      "inputs": [],
      "name": "comptroller",
      "outputs": [
        {
          "internalType": "address",
          "name": "",
          "type": "address"
        }
      ],
      "stateMutability": "view",
      "type": "function"
    },
    {
      "inputs": [],
      "name": "depositFeePerMille",
      "outputs": [
        {
          "internalType": "uint256",
          "name": "",
          "type": "uint256"
        }
      ],
      "stateMutability": "view",
      "type": "function"
    },
    {
      "inputs": [],
      "name": "fxKeeperPool",
      "outputs": [
        {
          "internalType": "address",
          "name": "",
          "type": "address"
        }
      ],
      "stateMutability": "view",
      "type": "function"
    },
    {
      "inputs": [],
      "name": "getAllCollateralTypes",
      "outputs": [
        {
          "internalType": "address[]",
          "name": "collateral",
          "type": "address[]"
        }
      ],
      "stateMutability": "view",
      "type": "function"
    },
    {
      "inputs": [
        {
          "internalType": "address",
          "name": "account",
          "type": "address"
        },
        {
          "internalType": "address",
          "name": "fxToken",
          "type": "address"
        }
      ],
      "name": "getBalance",
      "outputs": [
        {
          "internalType": "address[]",
          "name": "collateral",
          "type": "address[]"
        },
        {
          "internalType": "uint256[]",
          "name": "balances",
          "type": "uint256[]"
        }
      ],
      "stateMutability": "view",
      "type": "function"
    },
    {
      "inputs": [
        {
          "internalType": "address",
          "name": "account",
          "type": "address"
        },
        {
          "internalType": "address",
          "name": "collateralType",
          "type": "address"
        },
        {
          "internalType": "address",
          "name": "fxToken",
          "type": "address"
        }
      ],
      "name": "getCollateralBalance",
      "outputs": [
        {
          "internalType": "uint256",
          "name": "balance",
          "type": "uint256"
        }
      ],
      "stateMutability": "view",
      "type": "function"
    },
    {
      "inputs": [
        {
          "internalType": "address",
          "name": "collateral",
          "type": "address"
        }
      ],
      "name": "getCollateralDetails",
      "outputs": [
        {
          "components": [
            {
              "internalType": "uint256",
              "name": "mintCR",
              "type": "uint256"
            },
            {
              "internalType": "uint256",
              "name": "liquidationFee",
              "type": "uint256"
            },
            {
              "internalType": "uint256",
              "name": "interestRate",
              "type": "uint256"
            }
          ],
          "internalType": "struct IHandle.CollateralData",
          "name": "",
          "type": "tuple"
        }
      ],
      "stateMutability": "view",
      "type": "function"
    },
    {
      "inputs": [
        {
          "internalType": "address",
          "name": "account",
          "type": "address"
        },
        {
          "internalType": "address",
          "name": "fxToken",
          "type": "address"
        },
        {
          "internalType": "address",
          "name": "collateral",
          "type": "address"
        }
      ],
      "name": "getCollateralR0",
      "outputs": [
        {
          "internalType": "uint256",
          "name": "R0",
          "type": "uint256"
        }
      ],
      "stateMutability": "view",
      "type": "function"
    },
    {
      "inputs": [
        {
          "internalType": "address",
          "name": "account",
          "type": "address"
        },
        {
          "internalType": "address",
          "name": "fxToken",
          "type": "address"
        }
      ],
      "name": "getDebt",
      "outputs": [
        {
          "internalType": "uint256",
          "name": "",
          "type": "uint256"
        }
      ],
      "stateMutability": "view",
      "type": "function"
    },
    {
      "inputs": [
        {
          "internalType": "address",
          "name": "account",
          "type": "address"
        },
        {
          "internalType": "address",
          "name": "fxToken",
          "type": "address"
        }
      ],
      "name": "getPrincipalDebt",
      "outputs": [
        {
          "internalType": "uint256",
          "name": "",
          "type": "uint256"
        }
      ],
      "stateMutability": "view",
      "type": "function"
    },
    {
      "inputs": [
        {
          "internalType": "bytes32",
          "name": "role",
          "type": "bytes32"
        }
      ],
      "name": "getRoleAdmin",
      "outputs": [
        {
          "internalType": "bytes32",
          "name": "",
          "type": "bytes32"
        }
      ],
      "stateMutability": "view",
      "type": "function"
    },
    {
      "inputs": [
        {
          "internalType": "address",
          "name": "token",
          "type": "address"
        }
      ],
      "name": "getTokenPrice",
      "outputs": [
        {
          "internalType": "uint256",
          "name": "quote",
          "type": "uint256"
        }
      ],
      "stateMutability": "view",
      "type": "function"
    },
    {
      "inputs": [
        {
          "internalType": "bytes32",
          "name": "role",
          "type": "bytes32"
        },
        {
          "internalType": "address",
          "name": "account",
          "type": "address"
        }
      ],
      "name": "grantRole",
      "outputs": [],
      "stateMutability": "nonpayable",
      "type": "function"
    },
    {
      "inputs": [
        {
          "internalType": "bytes32",
          "name": "role",
          "type": "bytes32"
        },
        {
          "internalType": "address",
          "name": "account",
          "type": "address"
        }
      ],
      "name": "hasRole",
      "outputs": [
        {
          "internalType": "bool",
          "name": "",
          "type": "bool"
        }
      ],
      "stateMutability": "view",
      "type": "function"
    },
    {
      "inputs": [
        {
          "internalType": "address",
          "name": "weth",
          "type": "address"
        }
      ],
      "name": "initialize",
      "outputs": [],
      "stateMutability": "nonpayable",
      "type": "function"
    },
    {
      "inputs": [],
      "name": "interest",
      "outputs": [
        {
          "internalType": "address",
          "name": "",
          "type": "address"
        }
      ],
      "stateMutability": "view",
      "type": "function"
    },
    {
      "inputs": [
        {
          "internalType": "address",
          "name": "",
          "type": "address"
        }
      ],
      "name": "isCollateralValid",
      "outputs": [
        {
          "internalType": "bool",
          "name": "",
          "type": "bool"
        }
      ],
      "stateMutability": "view",
      "type": "function"
    },
    {
      "inputs": [
        {
          "internalType": "address",
          "name": "",
          "type": "address"
        }
      ],
      "name": "isFxTokenValid",
      "outputs": [
        {
          "internalType": "bool",
          "name": "",
          "type": "bool"
        }
      ],
      "stateMutability": "view",
      "type": "function"
    },
    {
      "inputs": [],
      "name": "isPaused",
      "outputs": [
        {
          "internalType": "bool",
          "name": "",
          "type": "bool"
        }
      ],
      "stateMutability": "view",
      "type": "function"
    },
    {
      "inputs": [],
      "name": "liquidator",
      "outputs": [
        {
          "internalType": "address",
          "name": "",
          "type": "address"
        }
      ],
      "stateMutability": "view",
      "type": "function"
    },
    {
      "inputs": [],
      "name": "mintFeePerMille",
      "outputs": [
        {
          "internalType": "uint256",
          "name": "",
          "type": "uint256"
        }
      ],
      "stateMutability": "view",
      "type": "function"
    },
    {
      "inputs": [
        {
          "internalType": "address",
          "name": "",
          "type": "address"
        }
      ],
      "name": "oracles",
      "outputs": [
        {
          "internalType": "address",
          "name": "",
          "type": "address"
        }
      ],
      "stateMutability": "view",
      "type": "function"
    },
    {
      "inputs": [],
      "name": "pct",
      "outputs": [
        {
          "internalType": "address",
          "name": "",
          "type": "address"
        }
      ],
      "stateMutability": "view",
      "type": "function"
    },
    {
      "inputs": [],
      "name": "pctCollateralUpperBound",
      "outputs": [
        {
          "internalType": "uint256",
          "name": "",
          "type": "uint256"
        }
      ],
      "stateMutability": "view",
      "type": "function"
    },
    {
      "inputs": [],
      "name": "referral",
      "outputs": [
        {
          "internalType": "address",
          "name": "",
          "type": "address"
        }
      ],
      "stateMutability": "view",
      "type": "function"
    },
    {
      "inputs": [
        {
          "internalType": "address",
          "name": "token",
          "type": "address"
        }
      ],
      "name": "removeCollateralToken",
      "outputs": [],
      "stateMutability": "nonpayable",
      "type": "function"
    },
    {
      "inputs": [
        {
          "internalType": "address",
          "name": "token",
          "type": "address"
        }
      ],
      "name": "removeFxToken",
      "outputs": [],
      "stateMutability": "nonpayable",
      "type": "function"
    },
    {
      "inputs": [
        {
          "internalType": "bytes32",
          "name": "role",
          "type": "bytes32"
        },
        {
          "internalType": "address",
          "name": "account",
          "type": "address"
        }
      ],
      "name": "renounceRole",
      "outputs": [],
      "stateMutability": "nonpayable",
      "type": "function"
    },
    {
      "inputs": [
        {
          "internalType": "bytes32",
          "name": "role",
          "type": "bytes32"
        },
        {
          "internalType": "address",
          "name": "account",
          "type": "address"
        }
      ],
      "name": "revokeRole",
      "outputs": [],
      "stateMutability": "nonpayable",
      "type": "function"
    },
    {
      "inputs": [
        {
          "internalType": "address",
          "name": "token",
          "type": "address"
        },
        {
          "internalType": "uint256",
          "name": "mintCR",
          "type": "uint256"
        },
        {
          "internalType": "uint256",
          "name": "liquidationFee",
          "type": "uint256"
        },
        {
          "internalType": "uint256",
          "name": "interestRatePerMille",
          "type": "uint256"
        }
      ],
      "name": "setCollateralToken",
      "outputs": [],
      "stateMutability": "nonpayable",
      "type": "function"
    },
    {
      "inputs": [
        {
          "internalType": "uint256",
          "name": "ratio",
          "type": "uint256"
        }
      ],
      "name": "setCollateralUpperBoundPCT",
      "outputs": [],
      "stateMutability": "nonpayable",
      "type": "function"
    },
    {
      "inputs": [
        {
          "internalType": "address[]",
          "name": "components",
          "type": "address[]"
        }
      ],
      "name": "setComponents",
      "outputs": [],
      "stateMutability": "nonpayable",
      "type": "function"
    },
    {
      "inputs": [
        {
          "internalType": "address",
          "name": "feeRecipient",
          "type": "address"
        }
      ],
      "name": "setFeeRecipient",
      "outputs": [],
      "stateMutability": "nonpayable",
      "type": "function"
    },
    {
      "inputs": [
        {
          "internalType": "uint256",
          "name": "_withdrawFeePerMille",
          "type": "uint256"
        },
        {
          "internalType": "uint256",
          "name": "_depositFeePerMille",
          "type": "uint256"
        },
        {
          "internalType": "uint256",
          "name": "_mintFeePerMille",
          "type": "uint256"
        },
        {
          "internalType": "uint256",
          "name": "_burnFeePerMille",
          "type": "uint256"
        }
      ],
      "name": "setFees",
      "outputs": [],
      "stateMutability": "nonpayable",
      "type": "function"
    },
    {
      "inputs": [
        {
          "internalType": "address",
          "name": "token",
          "type": "address"
        }
      ],
      "name": "setFxToken",
      "outputs": [],
      "stateMutability": "nonpayable",
      "type": "function"
    },
    {
      "inputs": [
        {
          "internalType": "address",
          "name": "token",
          "type": "address"
        },
        {
          "internalType": "address",
          "name": "oracle",
          "type": "address"
        }
      ],
      "name": "setOracle",
      "outputs": [],
      "stateMutability": "nonpayable",
      "type": "function"
    },
    {
      "inputs": [
        {
          "internalType": "bool",
          "name": "value",
          "type": "bool"
        }
      ],
      "name": "setPaused",
      "outputs": [],
      "stateMutability": "nonpayable",
      "type": "function"
    },
    {
      "inputs": [
        {
          "internalType": "bytes4",
          "name": "interfaceId",
          "type": "bytes4"
        }
      ],
      "name": "supportsInterface",
      "outputs": [
        {
          "internalType": "bool",
          "name": "",
          "type": "bool"
        }
      ],
      "stateMutability": "view",
      "type": "function"
    },
    {
      "inputs": [
        {
          "internalType": "address",
          "name": "",
          "type": "address"
        }
      ],
      "name": "totalBalances",
      "outputs": [
        {
          "internalType": "uint256",
          "name": "",
          "type": "uint256"
        }
      ],
      "stateMutability": "view",
      "type": "function"
    },
    {
      "inputs": [],
      "name": "treasury",
      "outputs": [
        {
          "internalType": "address payable",
          "name": "",
          "type": "address"
        }
      ],
      "stateMutability": "view",
      "type": "function"
    },
    {
      "inputs": [
        {
          "internalType": "address",
          "name": "account",
          "type": "address"
        },
        {
          "internalType": "uint256",
          "name": "amount",
          "type": "uint256"
        },
        {
          "internalType": "address",
          "name": "fxToken",
          "type": "address"
        },
        {
          "internalType": "address",
          "name": "collateralToken",
          "type": "address"
        },
        {
          "internalType": "bool",
          "name": "increase",
          "type": "bool"
        }
      ],
      "name": "updateCollateralBalance",
      "outputs": [],
      "stateMutability": "nonpayable",
      "type": "function"
    },
    {
      "inputs": [
        {
          "internalType": "address",
          "name": "account",
          "type": "address"
        },
        {
          "internalType": "uint256",
          "name": "amount",
          "type": "uint256"
        },
        {
          "internalType": "address",
          "name": "fxToken",
          "type": "address"
        },
        {
          "internalType": "bool",
          "name": "increase",
          "type": "bool"
        }
      ],
      "name": "updateDebtPosition",
      "outputs": [],
      "stateMutability": "nonpayable",
      "type": "function"
    },
    {
      "inputs": [
        {
          "internalType": "address",
          "name": "newImplementation",
          "type": "address"
        }
      ],
      "name": "upgradeTo",
      "outputs": [],
      "stateMutability": "nonpayable",
      "type": "function"
    },
    {
      "inputs": [
        {
          "internalType": "address",
          "name": "newImplementation",
          "type": "address"
        },
        {
          "internalType": "bytes",
          "name": "data",
          "type": "bytes"
        }
      ],
      "name": "upgradeToAndCall",
      "outputs": [],
      "stateMutability": "payable",
      "type": "function"
    },
    {
      "inputs": [],
      "name": "vaultLibrary",
      "outputs": [
        {
          "internalType": "address",
          "name": "",
          "type": "address"
        }
      ],
      "stateMutability": "view",
      "type": "function"
    },
    {
      "inputs": [
        {
          "internalType": "address",
          "name": "",
          "type": "address"
        },
        {
          "internalType": "address",
          "name": "",
          "type": "address"
        }
      ],
      "name": "vaults",
      "outputs": [
        {
          "internalType": "uint256",
          "name": "debt",
          "type": "uint256"
        }
      ],
      "stateMutability": "view",
      "type": "function"
    },
    {
      "inputs": [],
      "name": "withdrawFeePerMille",
      "outputs": [
        {
          "internalType": "uint256",
          "name": "",
          "type": "uint256"
        }
      ],
      "stateMutability": "view",
      "type": "function"
    }
  ],
  "bytecode": "0x608060405234801561001057600080fd5b5061600c80620000216000396000f3fe60806040526004361061031a5760003560e01c8063877034f1116101ab578063b187bd26116100f7578063d4fac45d11610095578063e75fd0b51161006f578063e75fd0b514610c38578063eb0a8b9114610c63578063ec94578e14610c8e578063f5b541a614610cb95761031a565b8063d4fac45d14610ba8578063d547741f14610be6578063e74b981b14610c0f5761031a565b8063c462b520116100d1578063c462b52014610adc578063c4d66de814610b19578063cf07947d14610b42578063d02641a014610b6b5761031a565b8063b187bd2614610a49578063bd9e520014610a74578063c392f76614610ab15761031a565b8063a0f026ff11610164578063a364c9721161013e578063a364c9721461097b578063ad5c4648146109a4578063addd5099146109cf578063aee9c87214610a0c5761031a565b8063a0f026ff146108d6578063a217fddf14610913578063a300733d1461093e5761031a565b8063877034f1146107c657806391d14854146107ef57806394f9059f1461082c5780639931286d146108555780639cfd9669146108805780639df5138a146108ab5761031a565b80634046ebae1161026a5780635eb0ac1a116102235780636fcba377116101fd5780636fcba3771461070c578063732409931461073557806375b238fc1461075e578063803c97b3146107895761031a565b80635eb0ac1a1461068d5780635fe3b567146106b657806361d027b3146106e15761031a565b80634046ebae1461057857806341e3f281146105a3578063498b5ae8146105ce5780634d635e701461060b5780634f1ef286146106485780635c38eb3a146106645761031a565b806327ab02b9116102d75780632f2ff15d116102b15780632f2ff15d146104c057806331695c4e146104e957806336568abe146105265780633659cfe61461054f5761031a565b806327ab02b914610441578063294d499e1461046c5780632b455759146104975761031a565b806301964f361461031f57806301ffc9a71461034a5780631441a5a91461038757806316c38b3c146103b2578063181e20a7146103db578063248a9ca314610404575b600080fd5b34801561032b57600080fd5b50610334610ce4565b604051610341919061575b565b60405180910390f35b34801561035657600080fd5b50610371600480360381019061036c9190614e59565b610ceb565b60405161037e91906154e8565b60405180910390f35b34801561039357600080fd5b5061039c610d65565b6040516103a99190615430565b60405180910390f35b3480156103be57600080fd5b506103d960048036038101906103d49190614dcb565b610d8c565b005b3480156103e757600080fd5b5061040260048036038101906103fd9190614be1565b610e13565b005b34801561041057600080fd5b5061042b60048036038101906104269190614df4565b6111ec565b6040516104389190615503565b60405180910390f35b34801561044d57600080fd5b5061045661120c565b6040516104639190615430565b60405180910390f35b34801561047857600080fd5b50610481611233565b60405161048e919061548f565b60405180910390f35b3480156104a357600080fd5b506104be60048036038101906104b99190614ad9565b6112c1565b005b3480156104cc57600080fd5b506104e760048036038101906104e29190614e1d565b611717565b005b3480156104f557600080fd5b50610510600480360381019061050b9190614b3e565b611740565b60405161051d919061575b565b60405180910390f35b34801561053257600080fd5b5061054d60048036038101906105489190614e1d565b611809565b005b34801561055b57600080fd5b5061057660048036038101906105719190614ad9565b61188c565b005b34801561058457600080fd5b5061058d6118b3565b60405161059a9190615430565b60405180910390f35b3480156105af57600080fd5b506105b86118da565b6040516105c5919061575b565b60405180910390f35b3480156105da57600080fd5b506105f560048036038101906105f09190614b02565b6118e1565b604051610602919061575b565b60405180910390f35b34801561061757600080fd5b50610632600480360381019061062d9190614b02565b611a30565b60405161063f919061575b565b60405180910390f35b610662600480360381019061065d9190614b8d565b611a5c565b005b34801561067057600080fd5b5061068b60048036038101906106869190614b02565b611a75565b005b34801561069957600080fd5b506106b460048036038101906106af9190614d1e565b611c0a565b005b3480156106c257600080fd5b506106cb612277565b6040516106d89190615430565b60405180910390f35b3480156106ed57600080fd5b506106f661229e565b604051610703919061544b565b60405180910390f35b34801561071857600080fd5b50610733600480360381019061072e9190614ed4565b6122c5565b005b34801561074157600080fd5b5061075c60048036038101906107579190614cbb565b612354565b005b34801561076a57600080fd5b50610773612678565b6040516107809190615503565b60405180910390f35b34801561079557600080fd5b506107b060048036038101906107ab9190614ad9565b61269c565b6040516107bd91906154e8565b60405180910390f35b3480156107d257600080fd5b506107ed60048036038101906107e89190614c58565b6126bc565b005b3480156107fb57600080fd5b5061081660048036038101906108119190614e1d565b612927565b60405161082391906154e8565b60405180910390f35b34801561083857600080fd5b50610853600480360381019061084e9190614ad9565b612992565b005b34801561086157600080fd5b5061086a612a90565b604051610877919061575b565b60405180910390f35b34801561088c57600080fd5b50610895612a97565b6040516108a29190615430565b60405180910390f35b3480156108b757600080fd5b506108c0612abe565b6040516108cd919061575b565b60405180910390f35b3480156108e257600080fd5b506108fd60048036038101906108f89190614ad9565b612ac5565b60405161090a91906154e8565b60405180910390f35b34801561091f57600080fd5b50610928612ae6565b6040516109359190615503565b60405180910390f35b34801561094a57600080fd5b5061096560048036038101906109609190614b02565b612aed565b604051610972919061575b565b60405180910390f35b34801561098757600080fd5b506109a2600480360381019061099d9190614e82565b612b78565b005b3480156109b057600080fd5b506109b9612bec565b6040516109c69190615430565b60405180910390f35b3480156109db57600080fd5b506109f660048036038101906109f19190614ad9565b612c13565b604051610a039190615430565b60405180910390f35b348015610a1857600080fd5b50610a336004803603810190610a2e9190614ad9565b612c47565b604051610a40919061575b565b60405180910390f35b348015610a5557600080fd5b50610a5e612c5f565b604051610a6b91906154e8565b60405180910390f35b348015610a8057600080fd5b50610a9b6004803603810190610a969190614ad9565b612c73565b604051610aa89190615740565b60405180910390f35b348015610abd57600080fd5b50610ac6612cea565b604051610ad39190615430565b60405180910390f35b348015610ae857600080fd5b50610b036004803603810190610afe9190614b3e565b612d11565b604051610b10919061575b565b60405180910390f35b348015610b2557600080fd5b50610b406004803603810190610b3b9190614ad9565b612dda565b005b348015610b4e57600080fd5b50610b696004803603810190610b649190614ad9565b612f72565b005b348015610b7757600080fd5b50610b926004803603810190610b8d9190614ad9565b6130dd565b604051610b9f919061575b565b60405180910390f35b348015610bb457600080fd5b50610bcf6004803603810190610bca9190614b02565b61334a565b604051610bdd9291906154b1565b60405180910390f35b348015610bf257600080fd5b50610c0d6004803603810190610c089190614e1d565b61353e565b005b348015610c1b57600080fd5b50610c366004803603810190610c319190614ad9565b613567565b005b348015610c4457600080fd5b50610c4d613687565b604051610c5a919061575b565b60405180910390f35b348015610c6f57600080fd5b50610c7861368e565b604051610c859190615430565b60405180910390f35b348015610c9a57600080fd5b50610ca36136b5565b604051610cb09190615430565b60405180910390f35b348015610cc557600080fd5b50610cce6136dc565b604051610cdb9190615503565b60405180910390f35b6101025481565b60007f7965db0b000000000000000000000000000000000000000000000000000000007bffffffffffffffffffffffffffffffffffffffffffffffffffffffff1916827bffffffffffffffffffffffffffffffffffffffffffffffffffffffff19161480610d5e5750610d5d82613700565b5b9050919050565b61011160009054906101000a900473ffffffffffffffffffffffffffffffffffffffff1681565b610db67fa49807205ce4d355092ef5a8a18f56e8913cf4a201fbe287825b095693c2177533612927565b610df5576040517f08c379a0000000000000000000000000000000000000000000000000000000008152600401610dec906156e0565b60405180910390fd5b8061010a60006101000a81548160ff02191690831515021790555050565b610e3d7f97667070c54ef182b0f5858b034beac1b6f3089aa2d3188bb1e8929f4fa9b92933612927565b610e7c576040517f08c379a0000000000000000000000000000000000000000000000000000000008152600401610e73906155a0565b60405180910390fd5b61010a60009054906101000a900460ff1615610ecd576040517f08c379a0000000000000000000000000000000000000000000000000000000008152600401610ec490615560565b60405180910390fd5b600061010160008773ffffffffffffffffffffffffffffffffffffffff1673ffffffffffffffffffffffffffffffffffffffff16815260200190815260200160002060008573ffffffffffffffffffffffffffffffffffffffff1673ffffffffffffffffffffffffffffffffffffffff16815260200190815260200160002060000160008473ffffffffffffffffffffffffffffffffffffffff1673ffffffffffffffffffffffffffffffffffffffff16815260200190815260200160002054905081610fac57610fa7858261376a90919063ffffffff16565b610fc0565b610fbf858261378090919063ffffffff16565b5b61010160008873ffffffffffffffffffffffffffffffffffffffff1673ffffffffffffffffffffffffffffffffffffffff16815260200190815260200160002060008673ffffffffffffffffffffffffffffffffffffffff1673ffffffffffffffffffffffffffffffffffffffff16815260200190815260200160002060000160008573ffffffffffffffffffffffffffffffffffffffff1673ffffffffffffffffffffffffffffffffffffffff16815260200190815260200160002081905550816110dd576110d88560fe60008673ffffffffffffffffffffffffffffffffffffffff1673ffffffffffffffffffffffffffffffffffffffff1681526020019081526020016000205461376a90919063ffffffff16565b611130565b61112f8560fe60008673ffffffffffffffffffffffffffffffffffffffff1673ffffffffffffffffffffffffffffffffffffffff1681526020019081526020016000205461378090919063ffffffff16565b5b60fe60008573ffffffffffffffffffffffffffffffffffffffff1673ffffffffffffffffffffffffffffffffffffffff168152602001908152602001600020819055508273ffffffffffffffffffffffffffffffffffffffff168473ffffffffffffffffffffffffffffffffffffffff168773ffffffffffffffffffffffffffffffffffffffff167f2027a0219b5bbff94e3a2050ec5c3ab5fafaaffe9c131dd57d2366b04423eff360405160405180910390a4505050505050565b600060c96000838152602001908152602001600020600101549050919050565b61010d60009054906101000a900473ffffffffffffffffffffffffffffffffffffffff1681565b606060fb8054806020026020016040519081016040528092919081815260200182805480156112b757602002820191906000526020600020905b8160009054906101000a900473ffffffffffffffffffffffffffffffffffffffff1673ffffffffffffffffffffffffffffffffffffffff168152602001906001019080831161126d575b5050505050905090565b6112eb7fa49807205ce4d355092ef5a8a18f56e8913cf4a201fbe287825b095693c2177533612927565b61132a576040517f08c379a0000000000000000000000000000000000000000000000000000000008152600401611321906156e0565b60405180910390fd5b600060ff80549050905060005b818110156113f2578273ffffffffffffffffffffffffffffffffffffffff1660ff8281548110611390577f4e487b7100000000000000000000000000000000000000000000000000000000600052603260045260246000fd5b9060005260206000200160009054906101000a900473ffffffffffffffffffffffffffffffffffffffff1673ffffffffffffffffffffffffffffffffffffffff1614156113df578091506113f2565b80806113ea90615ae4565b915050611337565b5060ff80549050811061142e577f4e487b7100000000000000000000000000000000000000000000000000000000600052600160045260246000fd5b61010060008373ffffffffffffffffffffffffffffffffffffffff1673ffffffffffffffffffffffffffffffffffffffff16815260200190815260200160002060006101000a81549060ff0219169055600160ff805490506114909190615983565b8110156116685760ff81815481106114d1577f4e487b7100000000000000000000000000000000000000000000000000000000600052603260045260246000fd5b9060005260206000200160006101000a81549073ffffffffffffffffffffffffffffffffffffffff021916905560ff600160ff805490506115129190615983565b81548110611549577f4e487b7100000000000000000000000000000000000000000000000000000000600052603260045260246000fd5b9060005260206000200160009054906101000a900473ffffffffffffffffffffffffffffffffffffffff1660ff82815481106115ae577f4e487b7100000000000000000000000000000000000000000000000000000000600052603260045260246000fd5b9060005260206000200160006101000a81548173ffffffffffffffffffffffffffffffffffffffff021916908373ffffffffffffffffffffffffffffffffffffffff16021790555060ff80548061162e577f4e487b7100000000000000000000000000000000000000000000000000000000600052603160045260246000fd5b6001900381819060005260206000200160006101000a81549073ffffffffffffffffffffffffffffffffffffffff021916905590556116d0565b60ff81815481106116a2577f4e487b7100000000000000000000000000000000000000000000000000000000600052603260045260246000fd5b9060005260206000200160006101000a81549073ffffffffffffffffffffffffffffffffffffffff02191690555b8173ffffffffffffffffffffffffffffffffffffffff167f1b56f46855aea33f90246d19ad4ae4f347ee3e4e01fa69f2f44856e1fb1462b160405160405180910390a25050565b611720826111ec565b6117318161172c613796565b61379e565b61173b838361383b565b505050565b600061010160008573ffffffffffffffffffffffffffffffffffffffff1673ffffffffffffffffffffffffffffffffffffffff16815260200190815260200160002060008473ffffffffffffffffffffffffffffffffffffffff1673ffffffffffffffffffffffffffffffffffffffff16815260200190815260200160002060020160008373ffffffffffffffffffffffffffffffffffffffff1673ffffffffffffffffffffffffffffffffffffffff1681526020019081526020016000205490509392505050565b611811613796565b73ffffffffffffffffffffffffffffffffffffffff168173ffffffffffffffffffffffffffffffffffffffff161461187e576040517f08c379a000000000000000000000000000000000000000000000000000000000815260040161187590615720565b60405180910390fd5b611888828261391c565b5050565b611895816139fe565b6118b081604051806020016040528060008152506000613a6a565b50565b61010f60009054906101000a900473ffffffffffffffffffffffffffffffffffffffff1681565b6101055481565b60008061010160008573ffffffffffffffffffffffffffffffffffffffff1673ffffffffffffffffffffffffffffffffffffffff16815260200190815260200160002060008473ffffffffffffffffffffffffffffffffffffffff1673ffffffffffffffffffffffffffffffffffffffff168152602001908152602001600020600101549050611a2761010c60009054906101000a900473ffffffffffffffffffffffffffffffffffffffff1673ffffffffffffffffffffffffffffffffffffffff16638709294086866040518363ffffffff1660e01b81526004016119c8929190615466565b60206040518083038186803b1580156119e057600080fd5b505afa1580156119f4573d6000803e3d6000fd5b505050506040513d601f19601f82011682018060405250810190611a189190614eab565b8261378090919063ffffffff16565b91505092915050565b610101602052816000526040600020602052806000526040600020600091509150508060010154905081565b611a65826139fe565b611a7182826001613a6a565b5050565b611a9f7fa49807205ce4d355092ef5a8a18f56e8913cf4a201fbe287825b095693c2177533612927565b611ade576040517f08c379a0000000000000000000000000000000000000000000000000000000008152600401611ad5906156e0565b60405180910390fd5b600073ffffffffffffffffffffffffffffffffffffffff168273ffffffffffffffffffffffffffffffffffffffff1614158015611b485750600073ffffffffffffffffffffffffffffffffffffffff168173ffffffffffffffffffffffffffffffffffffffff1614155b611b87576040517f08c379a0000000000000000000000000000000000000000000000000000000008152600401611b7e90615600565b60405180910390fd5b8061010960008473ffffffffffffffffffffffffffffffffffffffff1673ffffffffffffffffffffffffffffffffffffffff16815260200190815260200160002060006101000a81548173ffffffffffffffffffffffffffffffffffffffff021916908373ffffffffffffffffffffffffffffffffffffffff1602179055505050565b611c347fa49807205ce4d355092ef5a8a18f56e8913cf4a201fbe287825b095693c2177533612927565b611c73576040517f08c379a0000000000000000000000000000000000000000000000000000000008152600401611c6a906156e0565b60405180910390fd5b60008151905060005b81811015611d4757600073ffffffffffffffffffffffffffffffffffffffff16838281518110611cd5577f4e487b7100000000000000000000000000000000000000000000000000000000600052603260045260246000fd5b602002602001015173ffffffffffffffffffffffffffffffffffffffff161415611d34576040517f08c379a0000000000000000000000000000000000000000000000000000000008152600401611d2b90615580565b60405180910390fd5b8080611d3f90615ae4565b915050611c7c565b5081600081518110611d82577f4e487b7100000000000000000000000000000000000000000000000000000000600052603260045260246000fd5b602002602001015161010a60016101000a81548173ffffffffffffffffffffffffffffffffffffffff021916908373ffffffffffffffffffffffffffffffffffffffff16021790555081600181518110611e05577f4e487b7100000000000000000000000000000000000000000000000000000000600052603260045260246000fd5b602002602001015161010b60006101000a81548173ffffffffffffffffffffffffffffffffffffffff021916908373ffffffffffffffffffffffffffffffffffffffff16021790555081600281518110611e88577f4e487b7100000000000000000000000000000000000000000000000000000000600052603260045260246000fd5b602002602001015161010c60006101000a81548173ffffffffffffffffffffffffffffffffffffffff021916908373ffffffffffffffffffffffffffffffffffffffff16021790555081600381518110611f0b577f4e487b7100000000000000000000000000000000000000000000000000000000600052603260045260246000fd5b602002602001015161010d60006101000a81548173ffffffffffffffffffffffffffffffffffffffff021916908373ffffffffffffffffffffffffffffffffffffffff16021790555081600481518110611f8e577f4e487b7100000000000000000000000000000000000000000000000000000000600052603260045260246000fd5b602002602001015161010e60006101000a81548173ffffffffffffffffffffffffffffffffffffffff021916908373ffffffffffffffffffffffffffffffffffffffff16021790555081600581518110612011577f4e487b7100000000000000000000000000000000000000000000000000000000600052603260045260246000fd5b602002602001015161010f60006101000a81548173ffffffffffffffffffffffffffffffffffffffff021916908373ffffffffffffffffffffffffffffffffffffffff16021790555081600681518110612094577f4e487b7100000000000000000000000000000000000000000000000000000000600052603260045260246000fd5b602002602001015161011060006101000a81548173ffffffffffffffffffffffffffffffffffffffff021916908373ffffffffffffffffffffffffffffffffffffffff16021790555081600781518110612117577f4e487b7100000000000000000000000000000000000000000000000000000000600052603260045260246000fd5b602002602001015161011160006101000a81548173ffffffffffffffffffffffffffffffffffffffff021916908373ffffffffffffffffffffffffffffffffffffffff16021790555060005b600781101561227257600281148061217b5750600381145b156121855761225f565b6121ef7f97667070c54ef182b0f5858b034beac1b6f3089aa2d3188bb1e8929f4fa9b9298483815181106121e2577f4e487b7100000000000000000000000000000000000000000000000000000000600052603260045260246000fd5b6020026020010151612927565b61225e5761225d7f97667070c54ef182b0f5858b034beac1b6f3089aa2d3188bb1e8929f4fa9b929848381518110612250577f4e487b7100000000000000000000000000000000000000000000000000000000600052603260045260246000fd5b6020026020010151611717565b5b5b808061226a90615ae4565b915050612163565b505050565b61010b60009054906101000a900473ffffffffffffffffffffffffffffffffffffffff1681565b61010a60019054906101000a900473ffffffffffffffffffffffffffffffffffffffff1681565b6122ef7fa49807205ce4d355092ef5a8a18f56e8913cf4a201fbe287825b095693c2177533612927565b61232e576040517f08c379a0000000000000000000000000000000000000000000000000000000008152600401612325906156e0565b60405180910390fd5b836101058190555082610106819055508061010481905550816101038190555050505050565b61237e7f97667070c54ef182b0f5858b034beac1b6f3089aa2d3188bb1e8929f4fa9b92933612927565b806123af57506123ae7fa49807205ce4d355092ef5a8a18f56e8913cf4a201fbe287825b095693c2177533612927565b5b6123ee576040517f08c379a00000000000000000000000000000000000000000000000000000000081526004016123e5906155e0565b60405180910390fd5b606e831015612432576040517f08c379a000000000000000000000000000000000000000000000000000000000815260040161242990615620565b60405180910390fd5b600060fd60008673ffffffffffffffffffffffffffffffffffffffff1673ffffffffffffffffffffffffffffffffffffffff16815260200190815260200160002090506000816000015414156124e65760fb859080600181540180825580915050600190039060005260206000200160009091909190916101000a81548173ffffffffffffffffffffffffffffffffffffffff021916908373ffffffffffffffffffffffffffffffffffffffff1602179055505b60fc60008673ffffffffffffffffffffffffffffffffffffffff1673ffffffffffffffffffffffffffffffffffffffff16815260200190815260200160002060009054906101000a900460ff1661259057600160fc60008773ffffffffffffffffffffffffffffffffffffffff1673ffffffffffffffffffffffffffffffffffffffff16815260200190815260200160002060006101000a81548160ff0219169083151502179055505b61011060009054906101000a900473ffffffffffffffffffffffffffffffffffffffff1673ffffffffffffffffffffffffffffffffffffffff1663551619136040518163ffffffff1660e01b8152600401600060405180830381600087803b1580156125fb57600080fd5b505af115801561260f573d6000803e3d6000fd5b505050508381600001819055508281600101819055508181600201819055508473ffffffffffffffffffffffffffffffffffffffff167f38bfbff5a2ab4e85e1292bfc75e2e0b39855907deca3889448ce609117c8530f60405160405180910390a25050505050565b7fa49807205ce4d355092ef5a8a18f56e8913cf4a201fbe287825b095693c2177581565b60fc6020528060005260406000206000915054906101000a900460ff1681565b6126e67f97667070c54ef182b0f5858b034beac1b6f3089aa2d3188bb1e8929f4fa9b92933612927565b612725576040517f08c379a000000000000000000000000000000000000000000000000000000000815260040161271c906155a0565b60405180910390fd5b61010a60009054906101000a900460ff1615612776576040517f08c379a000000000000000000000000000000000000000000000000000000000815260040161276d90615560565b60405180910390fd5b61011060009054906101000a900473ffffffffffffffffffffffffffffffffffffffff1673ffffffffffffffffffffffffffffffffffffffff1663551619136040518163ffffffff1660e01b8152600401600060405180830381600087803b1580156127e157600080fd5b505af11580156127f5573d6000803e3d6000fd5b50505050600061280585846118e1565b90506128118584613c7e565b8161282e57612829848261376a90919063ffffffff16565b612842565b612841848261378090919063ffffffff16565b5b61010160008773ffffffffffffffffffffffffffffffffffffffff1673ffffffffffffffffffffffffffffffffffffffff16815260200190815260200160002060008573ffffffffffffffffffffffffffffffffffffffff1673ffffffffffffffffffffffffffffffffffffffff168152602001908152602001600020600101819055508273ffffffffffffffffffffffffffffffffffffffff168573ffffffffffffffffffffffffffffffffffffffff167f2d1a59a877ca0f4ce2a4bff5fdbf6e60dabcd7a049afa997fdc2f61bebc68c3860405160405180910390a35050505050565b600060c9600084815260200190815260200160002060000160008373ffffffffffffffffffffffffffffffffffffffff1673ffffffffffffffffffffffffffffffffffffffff16815260200190815260200160002060009054906101000a900460ff16905092915050565b6129bc7fa49807205ce4d355092ef5a8a18f56e8913cf4a201fbe287825b095693c2177533612927565b6129fb576040517f08c379a00000000000000000000000000000000000000000000000000000000081526004016129f2906156e0565b60405180910390fd5b60fc60008273ffffffffffffffffffffffffffffffffffffffff1673ffffffffffffffffffffffffffffffffffffffff16815260200190815260200160002060006101000a81549060ff02191690558073ffffffffffffffffffffffffffffffffffffffff167f38bfbff5a2ab4e85e1292bfc75e2e0b39855907deca3889448ce609117c8530f60405160405180910390a250565b6101035481565b61010e60009054906101000a900473ffffffffffffffffffffffffffffffffffffffff1681565b6101065481565b6101006020528060005260406000206000915054906101000a900460ff1681565b6000801b81565b600061010160008473ffffffffffffffffffffffffffffffffffffffff1673ffffffffffffffffffffffffffffffffffffffff16815260200190815260200160002060008373ffffffffffffffffffffffffffffffffffffffff1673ffffffffffffffffffffffffffffffffffffffff16815260200190815260200160002060010154905092915050565b612ba27fa49807205ce4d355092ef5a8a18f56e8913cf4a201fbe287825b095693c2177533612927565b612be1576040517f08c379a0000000000000000000000000000000000000000000000000000000008152600401612bd8906156e0565b60405180910390fd5b806101028190555050565b61010860009054906101000a900473ffffffffffffffffffffffffffffffffffffffff1681565b6101096020528060005260406000206000915054906101000a900473ffffffffffffffffffffffffffffffffffffffff1681565b60fe6020528060005260406000206000915090505481565b61010a60009054906101000a900460ff1681565b612c7b6147fb565b60fd60008373ffffffffffffffffffffffffffffffffffffffff1673ffffffffffffffffffffffffffffffffffffffff16815260200190815260200160002060405180606001604052908160008201548152602001600182015481526020016002820154815250509050919050565b61011060009054906101000a900473ffffffffffffffffffffffffffffffffffffffff1681565b600061010160008573ffffffffffffffffffffffffffffffffffffffff1673ffffffffffffffffffffffffffffffffffffffff16815260200190815260200160002060008373ffffffffffffffffffffffffffffffffffffffff1673ffffffffffffffffffffffffffffffffffffffff16815260200190815260200160002060000160008473ffffffffffffffffffffffffffffffffffffffff1673ffffffffffffffffffffffffffffffffffffffff1681526020019081526020016000205490509392505050565b600060019054906101000a900460ff1680612e00575060008054906101000a900460ff16155b612e3f576040517f08c379a0000000000000000000000000000000000000000000000000000000008152600401612e3690615640565b60405180910390fd5b60008060019054906101000a900460ff161590508015612e8f576001600060016101000a81548160ff02191690831515021790555060016000806101000a81548160ff0219169083151502179055505b612e97613e9f565b612ec17fa49807205ce4d355092ef5a8a18f56e8913cf4a201fbe287825b095693c2177533613f90565b612f0b7f97667070c54ef182b0f5858b034beac1b6f3089aa2d3188bb1e8929f4fa9b9297fa49807205ce4d355092ef5a8a18f56e8913cf4a201fbe287825b095693c21775613f9e565b8161010860006101000a81548173ffffffffffffffffffffffffffffffffffffffff021916908373ffffffffffffffffffffffffffffffffffffffff1602179055508015612f6e5760008060016101000a81548160ff0219169083151502179055505b5050565b612f9c7fa49807205ce4d355092ef5a8a18f56e8913cf4a201fbe287825b095693c2177533612927565b612fdb576040517f08c379a0000000000000000000000000000000000000000000000000000000008152600401612fd2906156e0565b60405180910390fd5b60ff819080600181540180825580915050600190039060005260206000200160009091909190916101000a81548173ffffffffffffffffffffffffffffffffffffffff021916908373ffffffffffffffffffffffffffffffffffffffff160217905550600161010060008373ffffffffffffffffffffffffffffffffffffffff1673ffffffffffffffffffffffffffffffffffffffff16815260200190815260200160002060006101000a81548160ff0219169083151502179055508073ffffffffffffffffffffffffffffffffffffffff167f1b56f46855aea33f90246d19ad4ae4f347ee3e4e01fa69f2f44856e1fb1462b160405160405180910390a250565b600061010860009054906101000a900473ffffffffffffffffffffffffffffffffffffffff1673ffffffffffffffffffffffffffffffffffffffff168273ffffffffffffffffffffffffffffffffffffffff16141561314657670de0b6b3a76400009050613345565b600073ffffffffffffffffffffffffffffffffffffffff1661010960008473ffffffffffffffffffffffffffffffffffffffff1673ffffffffffffffffffffffffffffffffffffffff16815260200190815260200160002060009054906101000a900473ffffffffffffffffffffffffffffffffffffffff1673ffffffffffffffffffffffffffffffffffffffff161415613216576040517f08c379a000000000000000000000000000000000000000000000000000000000815260040161320d90615660565b60405180910390fd5b61010960008373ffffffffffffffffffffffffffffffffffffffff1673ffffffffffffffffffffffffffffffffffffffff16815260200190815260200160002060009054906101000a900473ffffffffffffffffffffffffffffffffffffffff1673ffffffffffffffffffffffffffffffffffffffff166337cef791836040518263ffffffff1660e01b81526004016132af9190615430565b60206040518083038186803b1580156132c757600080fd5b505afa1580156132db573d6000803e3d6000fd5b505050506040513d601f19601f820116820180604052508101906132ff9190614eab565b905060008111613344576040517f08c379a000000000000000000000000000000000000000000000000000000000815260040161333b90615700565b60405180910390fd5b5b919050565b606080613355611233565b915060008251905060008167ffffffffffffffff81111561339f577f4e487b7100000000000000000000000000000000000000000000000000000000600052604160045260246000fd5b6040519080825280602002602001820160405280156133cd5781602001602082028036833780820191505090505b50905060005b828110156135315761010160008873ffffffffffffffffffffffffffffffffffffffff1673ffffffffffffffffffffffffffffffffffffffff16815260200190815260200160002060008773ffffffffffffffffffffffffffffffffffffffff1673ffffffffffffffffffffffffffffffffffffffff1681526020019081526020016000206000016000868381518110613496577f4e487b7100000000000000000000000000000000000000000000000000000000600052603260045260246000fd5b602002602001015173ffffffffffffffffffffffffffffffffffffffff1673ffffffffffffffffffffffffffffffffffffffff16815260200190815260200160002054828281518110613512577f4e487b7100000000000000000000000000000000000000000000000000000000600052603260045260246000fd5b602002602001018181525050808061352990615ae4565b9150506133d3565b5080925050509250929050565b613547826111ec565b61355881613553613796565b61379e565b613562838361391c565b505050565b6135917fa49807205ce4d355092ef5a8a18f56e8913cf4a201fbe287825b095693c2177533612927565b6135d0576040517f08c379a00000000000000000000000000000000000000000000000000000000081526004016135c7906156e0565b60405180910390fd5b80600073ffffffffffffffffffffffffffffffffffffffff168173ffffffffffffffffffffffffffffffffffffffff161415613641576040517f08c379a0000000000000000000000000000000000000000000000000000000008152600401613638906156c0565b60405180910390fd5b8161010760006101000a81548173ffffffffffffffffffffffffffffffffffffffff021916908373ffffffffffffffffffffffffffffffffffffffff1602179055505050565b6101045481565b61010c60009054906101000a900473ffffffffffffffffffffffffffffffffffffffff1681565b61010760009054906101000a900473ffffffffffffffffffffffffffffffffffffffff1681565b7f97667070c54ef182b0f5858b034beac1b6f3089aa2d3188bb1e8929f4fa9b92981565b60007f01ffc9a7000000000000000000000000000000000000000000000000000000007bffffffffffffffffffffffffffffffffffffffffffffffffffffffff1916827bffffffffffffffffffffffffffffffffffffffffffffffffffffffff1916149050919050565b600081836137789190615983565b905092915050565b6000818361378e91906158d3565b905092915050565b600033905090565b6137a88282612927565b613837576137cd8173ffffffffffffffffffffffffffffffffffffffff166014613ff4565b6137db8360001c6020613ff4565b6040516020016137ec9291906153f6565b6040516020818303038152906040526040517f08c379a000000000000000000000000000000000000000000000000000000000815260040161382e919061551e565b60405180910390fd5b5050565b6138458282612927565b61391857600160c9600084815260200190815260200160002060000160008373ffffffffffffffffffffffffffffffffffffffff1673ffffffffffffffffffffffffffffffffffffffff16815260200190815260200160002060006101000a81548160ff0219169083151502179055506138bd613796565b73ffffffffffffffffffffffffffffffffffffffff168173ffffffffffffffffffffffffffffffffffffffff16837f2f8788117e7eff1d82e926ec794901d17c78024a50270940304540a733656f0d60405160405180910390a45b5050565b6139268282612927565b156139fa57600060c9600084815260200190815260200160002060000160008373ffffffffffffffffffffffffffffffffffffffff1673ffffffffffffffffffffffffffffffffffffffff16815260200190815260200160002060006101000a81548160ff02191690831515021790555061399f613796565b73ffffffffffffffffffffffffffffffffffffffff168173ffffffffffffffffffffffffffffffffffffffff16837ff6391f5c32d9c69d2a47ea670b442974b53935d1edc7fd64eb21e047a839171b60405160405180910390a45b5050565b613a287fa49807205ce4d355092ef5a8a18f56e8913cf4a201fbe287825b095693c2177533612927565b613a67576040517f08c379a0000000000000000000000000000000000000000000000000000000008152600401613a5e906156e0565b60405180910390fd5b50565b6000613a746142ee565b9050613a7f84614345565b600083511180613a8c5750815b15613a9d57613a9b84846143fe565b505b6000613acb7f4910fdfa16fed3260ed0e7147f7cc6da11a60208b5b9406d12a635614ffd914360001b6144e2565b90508060000160009054906101000a900460ff16613c775760018160000160006101000a81548160ff021916908315150217905550613b978583604051602401613b159190615430565b6040516020818303038152906040527f3659cfe6000000000000000000000000000000000000000000000000000000007bffffffffffffffffffffffffffffffffffffffffffffffffffffffff19166020820180517bffffffffffffffffffffffffffffffffffffffffffffffffffffffff83818316178352505050506143fe565b5060008160000160006101000a81548160ff021916908315150217905550613bbd6142ee565b73ffffffffffffffffffffffffffffffffffffffff168273ffffffffffffffffffffffffffffffffffffffff1614613c2a576040517f08c379a0000000000000000000000000000000000000000000000000000000008152600401613c21906155c0565b60405180910390fd5b613c3385614345565b8473ffffffffffffffffffffffffffffffffffffffff167fbc7cd75a20ee27fd9adebab32041f755214dbc6bffa90cc0225b39da2e5c2d3b60405160405180910390a25b5050505050565b60008061011060009054906101000a900473ffffffffffffffffffffffffffffffffffffffff1673ffffffffffffffffffffffffffffffffffffffff1663d56a5c736040518163ffffffff1660e01b815260040160006040518083038186803b158015613cea57600080fd5b505afa158015613cfe573d6000803e3d6000fd5b505050506040513d6000823e3d601f19601f82011682018060405250810190613d279190614d5f565b91509150600081519050600061010160008773ffffffffffffffffffffffffffffffffffffffff1673ffffffffffffffffffffffffffffffffffffffff16815260200190815260200160002060008673ffffffffffffffffffffffffffffffffffffffff1673ffffffffffffffffffffffffffffffffffffffff168152602001908152602001600020905060005b82811015613e9657848181518110613df6577f4e487b7100000000000000000000000000000000000000000000000000000000600052603260045260246000fd5b6020026020010151826002016000868481518110613e3d577f4e487b7100000000000000000000000000000000000000000000000000000000600052603260045260246000fd5b602002602001015173ffffffffffffffffffffffffffffffffffffffff1673ffffffffffffffffffffffffffffffffffffffff168152602001908152602001600020819055508080613e8e90615ae4565b915050613db5565b50505050505050565b600060019054906101000a900460ff1680613ec5575060008054906101000a900460ff16155b613f04576040517f08c379a0000000000000000000000000000000000000000000000000000000008152600401613efb90615640565b60405180910390fd5b60008060019054906101000a900460ff161590508015613f54576001600060016101000a81548160ff02191690831515021790555060016000806101000a81548160ff0219169083151502179055505b613f5c6144ec565b613f646145c5565b613f6c61469e565b8015613f8d5760008060016101000a81548160ff0219169083151502179055505b50565b613f9a828261383b565b5050565b80613fa8836111ec565b837fbd79b86ffe0ab8e8776151514217cd7cacd52c909f66475c3af44e129f0b00ff60405160405180910390a48060c96000848152602001908152602001600020600101819055505050565b6060600060028360026140079190615929565b61401191906158d3565b67ffffffffffffffff811115614050577f4e487b7100000000000000000000000000000000000000000000000000000000600052604160045260246000fd5b6040519080825280601f01601f1916602001820160405280156140825781602001600182028036833780820191505090505b5090507f3000000000000000000000000000000000000000000000000000000000000000816000815181106140e0577f4e487b7100000000000000000000000000000000000000000000000000000000600052603260045260246000fd5b60200101907effffffffffffffffffffffffffffffffffffffffffffffffffffffffffffff1916908160001a9053507f78000000000000000000000000000000000000000000000000000000000000008160018151811061416a577f4e487b7100000000000000000000000000000000000000000000000000000000600052603260045260246000fd5b60200101907effffffffffffffffffffffffffffffffffffffffffffffffffffffffffffff1916908160001a905350600060018460026141aa9190615929565b6141b491906158d3565b90505b60018111156142a0577f3031323334353637383961626364656600000000000000000000000000000000600f86166010811061421c577f4e487b7100000000000000000000000000000000000000000000000000000000600052603260045260246000fd5b1a60f81b828281518110614259577f4e487b7100000000000000000000000000000000000000000000000000000000600052603260045260246000fd5b60200101907effffffffffffffffffffffffffffffffffffffffffffffffffffffffffffff1916908160001a905350600485901c94508061429990615a89565b90506141b7565b50600084146142e4576040517f08c379a00000000000000000000000000000000000000000000000000000000081526004016142db90615540565b60405180910390fd5b8091505092915050565b600061431c7f360894a13ba1a3210667c828492db98dca3e2076cc3735a920a3ca505d382bbc60001b614777565b60000160009054906101000a900473ffffffffffffffffffffffffffffffffffffffff16905090565b61434e81614781565b61438d576040517f08c379a000000000000000000000000000000000000000000000000000000000815260040161438490615680565b60405180910390fd5b806143ba7f360894a13ba1a3210667c828492db98dca3e2076cc3735a920a3ca505d382bbc60001b614777565b60000160006101000a81548173ffffffffffffffffffffffffffffffffffffffff021916908373ffffffffffffffffffffffffffffffffffffffff16021790555050565b606061440983614781565b614448576040517f08c379a000000000000000000000000000000000000000000000000000000000815260040161443f906156a0565b60405180910390fd5b6000808473ffffffffffffffffffffffffffffffffffffffff168460405161447091906153df565b600060405180830381855af49150503d80600081146144ab576040519150601f19603f3d011682016040523d82523d6000602084013e6144b0565b606091505b50915091506144d88282604051806060016040528060278152602001615fb060279139614794565b9250505092915050565b6000819050919050565b600060019054906101000a900460ff1680614512575060008054906101000a900460ff16155b614551576040517f08c379a000000000000000000000000000000000000000000000000000000000815260040161454890615640565b60405180910390fd5b60008060019054906101000a900460ff1615905080156145a1576001600060016101000a81548160ff02191690831515021790555060016000806101000a81548160ff0219169083151502179055505b80156145c25760008060016101000a81548160ff0219169083151502179055505b50565b600060019054906101000a900460ff16806145eb575060008054906101000a900460ff16155b61462a576040517f08c379a000000000000000000000000000000000000000000000000000000000815260040161462190615640565b60405180910390fd5b60008060019054906101000a900460ff16159050801561467a576001600060016101000a81548160ff02191690831515021790555060016000806101000a81548160ff0219169083151502179055505b801561469b5760008060016101000a81548160ff0219169083151502179055505b50565b600060019054906101000a900460ff16806146c4575060008054906101000a900460ff16155b614703576040517f08c379a00000000000000000000000000000000000000000000000000000000081526004016146fa90615640565b60405180910390fd5b60008060019054906101000a900460ff161590508015614753576001600060016101000a81548160ff02191690831515021790555060016000806101000a81548160ff0219169083151502179055505b80156147745760008060016101000a81548160ff0219169083151502179055505b50565b6000819050919050565b600080823b905060008111915050919050565b606083156147a4578290506147f4565b6000835111156147b75782518084602001fd5b816040517f08c379a00000000000000000000000000000000000000000000000000000000081526004016147eb919061551e565b60405180910390fd5b9392505050565b60405180606001604052806000815260200160008152602001600081525090565b600061482f61482a8461579b565b615776565b9050808382526020820190508285602086028201111561484e57600080fd5b60005b8581101561487e5781614864888261499e565b845260208401935060208301925050600181019050614851565b5050509392505050565b600061489b6148968461579b565b615776565b905080838252602082019050828560208602820111156148ba57600080fd5b60005b858110156148ea57816148d088826149b3565b8452602084019350602083019250506001810190506148bd565b5050509392505050565b6000614907614902846157c7565b615776565b9050808382526020820190508285602086028201111561492657600080fd5b60005b85811015614956578161493c8882614ac4565b845260208401935060208301925050600181019050614929565b5050509392505050565b600061497361496e846157f3565b615776565b90508281526020810184848401111561498b57600080fd5b614996848285615a47565b509392505050565b6000813590506149ad81615f3c565b92915050565b6000815190506149c281615f3c565b92915050565b600082601f8301126149d957600080fd5b81356149e984826020860161481c565b91505092915050565b600082601f830112614a0357600080fd5b8151614a13848260208601614888565b91505092915050565b600082601f830112614a2d57600080fd5b8151614a3d8482602086016148f4565b91505092915050565b600081359050614a5581615f53565b92915050565b600081359050614a6a81615f6a565b92915050565b600081359050614a7f81615f81565b92915050565b600082601f830112614a9657600080fd5b8135614aa6848260208601614960565b91505092915050565b600081359050614abe81615f98565b92915050565b600081519050614ad381615f98565b92915050565b600060208284031215614aeb57600080fd5b6000614af98482850161499e565b91505092915050565b60008060408385031215614b1557600080fd5b6000614b238582860161499e565b9250506020614b348582860161499e565b9150509250929050565b600080600060608486031215614b5357600080fd5b6000614b618682870161499e565b9350506020614b728682870161499e565b9250506040614b838682870161499e565b9150509250925092565b60008060408385031215614ba057600080fd5b6000614bae8582860161499e565b925050602083013567ffffffffffffffff811115614bcb57600080fd5b614bd785828601614a85565b9150509250929050565b600080600080600060a08688031215614bf957600080fd5b6000614c078882890161499e565b9550506020614c1888828901614aaf565b9450506040614c298882890161499e565b9350506060614c3a8882890161499e565b9250506080614c4b88828901614a46565b9150509295509295909350565b60008060008060808587031215614c6e57600080fd5b6000614c7c8782880161499e565b9450506020614c8d87828801614aaf565b9350506040614c9e8782880161499e565b9250506060614caf87828801614a46565b91505092959194509250565b60008060008060808587031215614cd157600080fd5b6000614cdf8782880161499e565b9450506020614cf087828801614aaf565b9350506040614d0187828801614aaf565b9250506060614d1287828801614aaf565b91505092959194509250565b600060208284031215614d3057600080fd5b600082013567ffffffffffffffff811115614d4a57600080fd5b614d56848285016149c8565b91505092915050565b60008060408385031215614d7257600080fd5b600083015167ffffffffffffffff811115614d8c57600080fd5b614d9885828601614a1c565b925050602083015167ffffffffffffffff811115614db557600080fd5b614dc1858286016149f2565b9150509250929050565b600060208284031215614ddd57600080fd5b6000614deb84828501614a46565b91505092915050565b600060208284031215614e0657600080fd5b6000614e1484828501614a5b565b91505092915050565b60008060408385031215614e3057600080fd5b6000614e3e85828601614a5b565b9250506020614e4f8582860161499e565b9150509250929050565b600060208284031215614e6b57600080fd5b6000614e7984828501614a70565b91505092915050565b600060208284031215614e9457600080fd5b6000614ea284828501614aaf565b91505092915050565b600060208284031215614ebd57600080fd5b6000614ecb84828501614ac4565b91505092915050565b60008060008060808587031215614eea57600080fd5b6000614ef887828801614aaf565b9450506020614f0987828801614aaf565b9350506040614f1a87828801614aaf565b9250506060614f2b87828801614aaf565b91505092959194509250565b6000614f438383614f76565b60208301905092915050565b6000614f5b83836153c1565b60208301905092915050565b614f70816159c9565b82525050565b614f7f816159b7565b82525050565b614f8e816159b7565b82525050565b6000614f9f82615844565b614fa9818561588a565b9350614fb483615824565b8060005b83811015614fe5578151614fcc8882614f37565b9750614fd783615870565b925050600181019050614fb8565b5085935050505092915050565b6000614ffd8261584f565b615007818561589b565b935061501283615834565b8060005b8381101561504357815161502a8882614f4f565b97506150358361587d565b925050600181019050615016565b5085935050505092915050565b615059816159db565b82525050565b615068816159e7565b82525050565b60006150798261585a565b61508381856158ac565b9350615093818560208601615a56565b80840191505092915050565b60006150aa82615865565b6150b481856158b7565b93506150c4818560208601615a56565b6150cd81615b8b565b840191505092915050565b60006150e382615865565b6150ed81856158c8565b93506150fd818560208601615a56565b80840191505092915050565b60006151166020836158b7565b915061512182615b9c565b602082019050919050565b60006151396006836158b7565b915061514482615bc5565b602082019050919050565b600061515c600f836158b7565b915061516782615bee565b602082019050919050565b600061517f6002836158b7565b915061518a82615c17565b602082019050919050565b60006151a2602f836158b7565b91506151ad82615c40565b604082019050919050565b60006151c56002836158b7565b91506151d082615c8f565b602082019050919050565b60006151e86002836158b7565b91506151f382615cb8565b602082019050919050565b600061520b6002836158b7565b915061521682615ce1565b602082019050919050565b600061522e602e836158b7565b915061523982615d0a565b604082019050919050565b60006152516013836158b7565b915061525c82615d59565b602082019050919050565b6000615274602d836158b7565b915061527f82615d82565b604082019050919050565b60006152976026836158b7565b91506152a282615dd1565b604082019050919050565b60006152ba600f836158b7565b91506152c582615e20565b602082019050919050565b60006152dd6002836158b7565b91506152e882615e49565b602082019050919050565b60006153006017836158c8565b915061530b82615e72565b601782019050919050565b60006153236013836158b7565b915061532e82615e9b565b602082019050919050565b60006153466011836158c8565b915061535182615ec4565b601182019050919050565b6000615369602f836158b7565b915061537482615eed565b604082019050919050565b60608201600082015161539560008501826153c1565b5060208201516153a860208501826153c1565b5060408201516153bb60408501826153c1565b50505050565b6153ca81615a3d565b82525050565b6153d981615a3d565b82525050565b60006153eb828461506e565b915081905092915050565b6000615401826152f3565b915061540d82856150d8565b915061541882615339565b915061542482846150d8565b91508190509392505050565b60006020820190506154456000830184614f85565b92915050565b60006020820190506154606000830184614f67565b92915050565b600060408201905061547b6000830185614f85565b6154886020830184614f85565b9392505050565b600060208201905081810360008301526154a98184614f94565b905092915050565b600060408201905081810360008301526154cb8185614f94565b905081810360208301526154df8184614ff2565b90509392505050565b60006020820190506154fd6000830184615050565b92915050565b6000602082019050615518600083018461505f565b92915050565b60006020820190508181036000830152615538818461509f565b905092915050565b6000602082019050818103600083015261555981615109565b9050919050565b600060208201905081810360008301526155798161512c565b9050919050565b600060208201905081810360008301526155998161514f565b9050919050565b600060208201905081810360008301526155b981615172565b9050919050565b600060208201905081810360008301526155d981615195565b9050919050565b600060208201905081810360008301526155f9816151b8565b9050919050565b60006020820190508181036000830152615619816151db565b9050919050565b60006020820190508181036000830152615639816151fe565b9050919050565b6000602082019050818103600083015261565981615221565b9050919050565b6000602082019050818103600083015261567981615244565b9050919050565b6000602082019050818103600083015261569981615267565b9050919050565b600060208201905081810360008301526156b98161528a565b9050919050565b600060208201905081810360008301526156d9816152ad565b9050919050565b600060208201905081810360008301526156f9816152d0565b9050919050565b6000602082019050818103600083015261571981615316565b9050919050565b600060208201905081810360008301526157398161535c565b9050919050565b6000606082019050615755600083018461537f565b92915050565b600060208201905061577060008301846153d0565b92915050565b6000615780615791565b905061578c8282615ab3565b919050565b6000604051905090565b600067ffffffffffffffff8211156157b6576157b5615b5c565b5b602082029050602081019050919050565b600067ffffffffffffffff8211156157e2576157e1615b5c565b5b602082029050602081019050919050565b600067ffffffffffffffff82111561580e5761580d615b5c565b5b61581782615b8b565b9050602081019050919050565b6000819050602082019050919050565b6000819050602082019050919050565b600081519050919050565b600081519050919050565b600081519050919050565b600081519050919050565b6000602082019050919050565b6000602082019050919050565b600082825260208201905092915050565b600082825260208201905092915050565b600081905092915050565b600082825260208201905092915050565b600081905092915050565b60006158de82615a3d565b91506158e983615a3d565b9250827fffffffffffffffffffffffffffffffffffffffffffffffffffffffffffffffff0382111561591e5761591d615b2d565b5b828201905092915050565b600061593482615a3d565b915061593f83615a3d565b9250817fffffffffffffffffffffffffffffffffffffffffffffffffffffffffffffffff048311821515161561597857615977615b2d565b5b828202905092915050565b600061598e82615a3d565b915061599983615a3d565b9250828210156159ac576159ab615b2d565b5b828203905092915050565b60006159c282615a1d565b9050919050565b60006159d482615a1d565b9050919050565b60008115159050919050565b6000819050919050565b60007fffffffff0000000000000000000000000000000000000000000000000000000082169050919050565b600073ffffffffffffffffffffffffffffffffffffffff82169050919050565b6000819050919050565b82818337600083830152505050565b60005b83811015615a74578082015181840152602081019050615a59565b83811115615a83576000848401525b50505050565b6000615a9482615a3d565b91506000821415615aa857615aa7615b2d565b5b600182039050919050565b615abc82615b8b565b810181811067ffffffffffffffff82111715615adb57615ada615b5c565b5b80604052505050565b6000615aef82615a3d565b91507fffffffffffffffffffffffffffffffffffffffffffffffffffffffffffffffff821415615b2257615b21615b2d565b5b600182019050919050565b7f4e487b7100000000000000000000000000000000000000000000000000000000600052601160045260246000fd5b7f4e487b7100000000000000000000000000000000000000000000000000000000600052604160045260246000fd5b6000601f19601f8301169050919050565b7f537472696e67733a20686578206c656e67746820696e73756666696369656e74600082015250565b7f5061757365640000000000000000000000000000000000000000000000000000600082015250565b7f496e76616c696420616464726573730000000000000000000000000000000000600082015250565b7f4e4f000000000000000000000000000000000000000000000000000000000000600082015250565b7f45524331393637557067726164653a207570677261646520627265616b73206660008201527f7572746865722075706772616465730000000000000000000000000000000000602082015250565b7f4e57000000000000000000000000000000000000000000000000000000000000600082015250565b7f495a000000000000000000000000000000000000000000000000000000000000600082015250565b7f4352000000000000000000000000000000000000000000000000000000000000600082015250565b7f496e697469616c697a61626c653a20636f6e747261637420697320616c72656160008201527f647920696e697469616c697a6564000000000000000000000000000000000000602082015250565b7f4e6f206f7261636c6520666f7220746f6b656e00000000000000000000000000600082015250565b7f455243313936373a206e657720696d706c656d656e746174696f6e206973206e60008201527f6f74206120636f6e747261637400000000000000000000000000000000000000602082015250565b7f416464726573733a2064656c65676174652063616c6c20746f206e6f6e2d636f60008201527f6e74726163740000000000000000000000000000000000000000000000000000602082015250565b7f496e76616c696420416464726573730000000000000000000000000000000000600082015250565b7f4e41000000000000000000000000000000000000000000000000000000000000600082015250565b7f416363657373436f6e74726f6c3a206163636f756e7420000000000000000000600082015250565b7f546f6b656e207072696365206973207a65726f00000000000000000000000000600082015250565b7f206973206d697373696e6720726f6c6520000000000000000000000000000000600082015250565b7f416363657373436f6e74726f6c3a2063616e206f6e6c792072656e6f756e636560008201527f20726f6c657320666f722073656c660000000000000000000000000000000000602082015250565b615f45816159b7565b8114615f5057600080fd5b50565b615f5c816159db565b8114615f6757600080fd5b50565b615f73816159e7565b8114615f7e57600080fd5b50565b615f8a816159f1565b8114615f9557600080fd5b50565b615fa181615a3d565b8114615fac57600080fd5b5056fe416464726573733a206c6f772d6c6576656c2064656c65676174652063616c6c206661696c6564a26469706673582212201b74604c50ecbccb01385e980aeebaff7d6f83e6a9c33dbd22266bdffa17380964736f6c63430008030033",
  "linkReferences": {},
  "deployedLinkReferences": {}
}