{
  "_format": "hh-sol-artifact-1",
  "contractName": "Handle",
  "sourceName": "contracts/Bank/Handle.sol",
  "abi": [
    {
      "anonymous": false,
      "inputs": [
        {
          "indexed": false,
          "internalType": "address",
          "name": "previousAdmin",
          "type": "address"
        },
        {
          "indexed": false,
          "internalType": "address",
          "name": "newAdmin",
          "type": "address"
        }
      ],
      "name": "AdminChanged",
      "type": "event"
    },
    {
      "anonymous": false,
      "inputs": [
        {
          "indexed": true,
          "internalType": "address",
          "name": "beacon",
          "type": "address"
        }
      ],
      "name": "BeaconUpgraded",
      "type": "event"
    },
    {
      "anonymous": false,
      "inputs": [
        {
          "indexed": true,
          "internalType": "address",
          "name": "collateralToken",
          "type": "address"
        }
      ],
      "name": "ConfigureCollateralToken",
      "type": "event"
    },
    {
      "anonymous": false,
      "inputs": [
        {
          "indexed": true,
          "internalType": "address",
          "name": "fxToken",
          "type": "address"
        }
      ],
      "name": "ConfigureFxToken",
      "type": "event"
    },
    {
      "anonymous": false,
      "inputs": [
        {
          "indexed": true,
          "internalType": "bytes32",
          "name": "role",
          "type": "bytes32"
        },
        {
          "indexed": true,
          "internalType": "bytes32",
          "name": "previousAdminRole",
          "type": "bytes32"
        },
        {
          "indexed": true,
          "internalType": "bytes32",
          "name": "newAdminRole",
          "type": "bytes32"
        }
      ],
      "name": "RoleAdminChanged",
      "type": "event"
    },
    {
      "anonymous": false,
      "inputs": [
        {
          "indexed": true,
          "internalType": "bytes32",
          "name": "role",
          "type": "bytes32"
        },
        {
          "indexed": true,
          "internalType": "address",
          "name": "account",
          "type": "address"
        },
        {
          "indexed": true,
          "internalType": "address",
          "name": "sender",
          "type": "address"
        }
      ],
      "name": "RoleGranted",
      "type": "event"
    },
    {
      "anonymous": false,
      "inputs": [
        {
          "indexed": true,
          "internalType": "bytes32",
          "name": "role",
          "type": "bytes32"
        },
        {
          "indexed": true,
          "internalType": "address",
          "name": "account",
          "type": "address"
        },
        {
          "indexed": true,
          "internalType": "address",
          "name": "sender",
          "type": "address"
        }
      ],
      "name": "RoleRevoked",
      "type": "event"
    },
    {
      "anonymous": false,
      "inputs": [
        {
          "indexed": true,
          "internalType": "address",
          "name": "account",
          "type": "address"
        },
        {
          "indexed": true,
          "internalType": "address",
          "name": "fxToken",
          "type": "address"
        },
        {
          "indexed": true,
          "internalType": "address",
          "name": "collateralToken",
          "type": "address"
        }
      ],
      "name": "UpdateCollateral",
      "type": "event"
    },
    {
      "anonymous": false,
      "inputs": [
        {
          "indexed": true,
          "internalType": "address",
          "name": "account",
          "type": "address"
        },
        {
          "indexed": true,
          "internalType": "address",
          "name": "fxToken",
          "type": "address"
        }
      ],
      "name": "UpdateDebt",
      "type": "event"
    },
    {
      "anonymous": false,
      "inputs": [
        {
          "indexed": true,
          "internalType": "address",
          "name": "implementation",
          "type": "address"
        }
      ],
      "name": "Upgraded",
      "type": "event"
    },
    {
      "inputs": [],
      "name": "ADMIN_ROLE",
      "outputs": [
        {
          "internalType": "bytes32",
          "name": "",
          "type": "bytes32"
        }
      ],
      "stateMutability": "view",
      "type": "function"
    },
    {
      "inputs": [],
      "name": "DEFAULT_ADMIN_ROLE",
      "outputs": [
        {
          "internalType": "bytes32",
          "name": "",
          "type": "bytes32"
        }
      ],
      "stateMutability": "view",
      "type": "function"
    },
    {
      "inputs": [],
      "name": "FeeRecipient",
      "outputs": [
        {
          "internalType": "address",
          "name": "",
          "type": "address"
        }
      ],
      "stateMutability": "view",
      "type": "function"
    },
    {
      "inputs": [],
      "name": "OPERATOR_ROLE",
      "outputs": [
        {
          "internalType": "bytes32",
          "name": "",
          "type": "bytes32"
        }
      ],
      "stateMutability": "view",
      "type": "function"
    },
    {
      "inputs": [],
      "name": "WETH",
      "outputs": [
        {
          "internalType": "address",
          "name": "",
          "type": "address"
        }
      ],
      "stateMutability": "view",
      "type": "function"
    },
    {
      "inputs": [],
      "name": "burnFeePerMille",
      "outputs": [
        {
          "internalType": "uint256",
          "name": "",
          "type": "uint256"
        }
      ],
      "stateMutability": "view",
      "type": "function"
    },
    {
      "inputs": [
        {
          "internalType": "address",
          "name": "",
          "type": "address"
        }
      ],
      "name": "collateralDetails",
      "outputs": [
        {
          "internalType": "uint256",
          "name": "mintCR",
          "type": "uint256"
        },
        {
          "internalType": "uint256",
          "name": "liquidationFee",
          "type": "uint256"
        },
        {
          "internalType": "uint256",
          "name": "interestRate",
          "type": "uint256"
        }
      ],
      "stateMutability": "view",
      "type": "function"
    },
    {
      "inputs": [
        {
          "internalType": "uint256",
          "name": "",
          "type": "uint256"
        }
      ],
      "name": "collateralTokens",
      "outputs": [
        {
          "internalType": "address",
          "name": "",
          "type": "address"
        }
      ],
      "stateMutability": "view",
      "type": "function"
    },
    {
      "inputs": [],
      "name": "comptroller",
      "outputs": [
        {
          "internalType": "address",
          "name": "",
          "type": "address"
        }
      ],
      "stateMutability": "view",
      "type": "function"
    },
    {
      "inputs": [],
      "name": "depositFeePerMille",
      "outputs": [
        {
          "internalType": "uint256",
          "name": "",
          "type": "uint256"
        }
      ],
      "stateMutability": "view",
      "type": "function"
    },
    {
      "inputs": [],
      "name": "fxKeeperPool",
      "outputs": [
        {
          "internalType": "address",
          "name": "",
          "type": "address"
        }
      ],
      "stateMutability": "view",
      "type": "function"
    },
    {
      "inputs": [],
      "name": "getAllCollateralTypes",
      "outputs": [
        {
          "internalType": "address[]",
          "name": "collateral",
          "type": "address[]"
        }
      ],
      "stateMutability": "view",
      "type": "function"
    },
    {
      "inputs": [],
      "name": "getAllFxTokens",
      "outputs": [
        {
          "internalType": "address[]",
          "name": "tokens",
          "type": "address[]"
        }
      ],
      "stateMutability": "view",
      "type": "function"
    },
    {
      "inputs": [
        {
          "internalType": "address",
          "name": "account",
          "type": "address"
        },
        {
          "internalType": "address",
          "name": "fxToken",
          "type": "address"
        }
      ],
      "name": "getBalance",
      "outputs": [
        {
          "internalType": "address[]",
          "name": "collateral",
          "type": "address[]"
        },
        {
          "internalType": "uint256[]",
          "name": "balances",
          "type": "uint256[]"
        }
      ],
      "stateMutability": "view",
      "type": "function"
    },
    {
      "inputs": [
        {
          "internalType": "address",
          "name": "account",
          "type": "address"
        },
        {
          "internalType": "address",
          "name": "collateralType",
          "type": "address"
        },
        {
          "internalType": "address",
          "name": "fxToken",
          "type": "address"
        }
      ],
      "name": "getCollateralBalance",
      "outputs": [
        {
          "internalType": "uint256",
          "name": "balance",
          "type": "uint256"
        }
      ],
      "stateMutability": "view",
      "type": "function"
    },
    {
      "inputs": [
        {
          "internalType": "address",
          "name": "collateral",
          "type": "address"
        }
      ],
      "name": "getCollateralDetails",
      "outputs": [
        {
          "components": [
            {
              "internalType": "uint256",
              "name": "mintCR",
              "type": "uint256"
            },
            {
              "internalType": "uint256",
              "name": "liquidationFee",
              "type": "uint256"
            },
            {
              "internalType": "uint256",
              "name": "interestRate",
              "type": "uint256"
            }
          ],
          "internalType": "struct IHandle.CollateralData",
          "name": "",
          "type": "tuple"
        }
      ],
      "stateMutability": "view",
      "type": "function"
    },
    {
      "inputs": [
        {
          "internalType": "address",
          "name": "account",
          "type": "address"
        },
        {
          "internalType": "address",
          "name": "fxToken",
          "type": "address"
        }
      ],
      "name": "getDebt",
      "outputs": [
        {
          "internalType": "uint256",
          "name": "",
          "type": "uint256"
        }
      ],
      "stateMutability": "view",
      "type": "function"
    },
    {
      "inputs": [
        {
          "internalType": "address",
          "name": "account",
          "type": "address"
        },
        {
          "internalType": "address",
          "name": "fxToken",
          "type": "address"
        }
      ],
      "name": "getInterestLastUpdateDate",
      "outputs": [
        {
          "internalType": "uint256",
          "name": "date",
          "type": "uint256"
        }
      ],
      "stateMutability": "view",
      "type": "function"
    },
    {
      "inputs": [
        {
          "internalType": "address",
          "name": "account",
          "type": "address"
        },
        {
          "internalType": "address",
          "name": "fxToken",
          "type": "address"
        }
      ],
      "name": "getRawDebt",
      "outputs": [
        {
          "internalType": "uint256",
          "name": "",
          "type": "uint256"
        }
      ],
      "stateMutability": "view",
      "type": "function"
    },
    {
      "inputs": [
        {
          "internalType": "bytes32",
          "name": "role",
          "type": "bytes32"
        }
      ],
      "name": "getRoleAdmin",
      "outputs": [
        {
          "internalType": "bytes32",
          "name": "",
          "type": "bytes32"
        }
      ],
      "stateMutability": "view",
      "type": "function"
    },
    {
      "inputs": [
        {
          "internalType": "address",
          "name": "token",
          "type": "address"
        }
      ],
      "name": "getTokenPrice",
      "outputs": [
        {
          "internalType": "uint256",
          "name": "quote",
          "type": "uint256"
        }
      ],
      "stateMutability": "view",
      "type": "function"
    },
    {
      "inputs": [
        {
          "internalType": "bytes32",
          "name": "role",
          "type": "bytes32"
        },
        {
          "internalType": "address",
          "name": "account",
          "type": "address"
        }
      ],
      "name": "grantRole",
      "outputs": [],
      "stateMutability": "nonpayable",
      "type": "function"
    },
    {
      "inputs": [
        {
          "internalType": "bytes32",
          "name": "role",
          "type": "bytes32"
        },
        {
          "internalType": "address",
          "name": "account",
          "type": "address"
        }
      ],
      "name": "hasRole",
      "outputs": [
        {
          "internalType": "bool",
          "name": "",
          "type": "bool"
        }
      ],
      "stateMutability": "view",
      "type": "function"
    },
    {
      "inputs": [
        {
          "internalType": "address",
          "name": "weth",
          "type": "address"
        }
      ],
      "name": "initialize",
      "outputs": [],
      "stateMutability": "nonpayable",
      "type": "function"
    },
    {
      "inputs": [
        {
          "internalType": "address",
          "name": "",
          "type": "address"
        }
      ],
      "name": "isCollateralValid",
      "outputs": [
        {
          "internalType": "bool",
          "name": "",
          "type": "bool"
        }
      ],
      "stateMutability": "view",
      "type": "function"
    },
    {
      "inputs": [
        {
          "internalType": "address",
          "name": "",
          "type": "address"
        }
      ],
      "name": "isFxTokenValid",
      "outputs": [
        {
          "internalType": "bool",
          "name": "",
          "type": "bool"
        }
      ],
      "stateMutability": "view",
      "type": "function"
    },
    {
      "inputs": [],
      "name": "liquidator",
      "outputs": [
        {
          "internalType": "address",
          "name": "",
          "type": "address"
        }
      ],
      "stateMutability": "view",
      "type": "function"
    },
    {
      "inputs": [],
      "name": "mintFeePerMille",
      "outputs": [
        {
          "internalType": "uint256",
          "name": "",
          "type": "uint256"
        }
      ],
      "stateMutability": "view",
      "type": "function"
    },
    {
      "inputs": [
        {
          "internalType": "address",
          "name": "",
          "type": "address"
        }
      ],
      "name": "oracles",
      "outputs": [
        {
          "internalType": "address",
          "name": "",
          "type": "address"
        }
      ],
      "stateMutability": "view",
      "type": "function"
    },
    {
      "inputs": [],
      "name": "pct",
      "outputs": [
        {
          "internalType": "address",
          "name": "",
          "type": "address"
        }
      ],
      "stateMutability": "view",
      "type": "function"
    },
    {
      "inputs": [],
      "name": "pctCollateralUpperBound",
      "outputs": [
        {
          "internalType": "uint256",
          "name": "",
          "type": "uint256"
        }
      ],
      "stateMutability": "view",
      "type": "function"
    },
    {
      "inputs": [
        {
          "internalType": "address",
          "name": "token",
          "type": "address"
        }
      ],
      "name": "removeCollateralToken",
      "outputs": [],
      "stateMutability": "nonpayable",
      "type": "function"
    },
    {
      "inputs": [
        {
          "internalType": "address",
          "name": "token",
          "type": "address"
        }
      ],
      "name": "removeFxToken",
      "outputs": [],
      "stateMutability": "nonpayable",
      "type": "function"
    },
    {
      "inputs": [
        {
          "internalType": "bytes32",
          "name": "role",
          "type": "bytes32"
        },
        {
          "internalType": "address",
          "name": "account",
          "type": "address"
        }
      ],
      "name": "renounceRole",
      "outputs": [],
      "stateMutability": "nonpayable",
      "type": "function"
    },
    {
      "inputs": [
        {
          "internalType": "bytes32",
          "name": "role",
          "type": "bytes32"
        },
        {
          "internalType": "address",
          "name": "account",
          "type": "address"
        }
      ],
      "name": "revokeRole",
      "outputs": [],
      "stateMutability": "nonpayable",
      "type": "function"
    },
    {
      "inputs": [
        {
          "internalType": "address",
          "name": "_token",
          "type": "address"
        },
        {
          "internalType": "uint256",
          "name": "_mintCR",
          "type": "uint256"
        },
        {
          "internalType": "uint256",
          "name": "_liquidationFee",
          "type": "uint256"
        },
        {
          "internalType": "uint256",
          "name": "_interestRatePerMille",
          "type": "uint256"
        }
      ],
      "name": "setCollateralToken",
      "outputs": [],
      "stateMutability": "nonpayable",
      "type": "function"
    },
    {
      "inputs": [
        {
          "internalType": "uint256",
          "name": "ratio",
          "type": "uint256"
        }
      ],
      "name": "setCollateralUpperBoundPCT",
      "outputs": [],
      "stateMutability": "nonpayable",
      "type": "function"
    },
    {
      "inputs": [
        {
          "internalType": "address[]",
          "name": "components",
          "type": "address[]"
        }
      ],
      "name": "setComponents",
      "outputs": [],
      "stateMutability": "nonpayable",
      "type": "function"
    },
    {
      "inputs": [
        {
          "internalType": "address",
          "name": "feeRecipient",
          "type": "address"
        }
      ],
      "name": "setFeeRecipient",
      "outputs": [],
      "stateMutability": "nonpayable",
      "type": "function"
    },
    {
      "inputs": [
        {
          "internalType": "uint256",
          "name": "_withdrawFeePerMille",
          "type": "uint256"
        },
        {
          "internalType": "uint256",
          "name": "_depositFeePerMille",
          "type": "uint256"
        },
        {
          "internalType": "uint256",
          "name": "_mintFeePerMille",
          "type": "uint256"
        },
        {
          "internalType": "uint256",
          "name": "_burnFeePerMille",
          "type": "uint256"
        }
      ],
      "name": "setFees",
      "outputs": [],
      "stateMutability": "nonpayable",
      "type": "function"
    },
    {
      "inputs": [
        {
          "internalType": "address",
          "name": "token",
          "type": "address"
        }
      ],
      "name": "setFxToken",
      "outputs": [],
      "stateMutability": "nonpayable",
      "type": "function"
    },
    {
      "inputs": [
        {
          "internalType": "address",
          "name": "account",
          "type": "address"
        },
        {
          "internalType": "address",
          "name": "fxToken",
          "type": "address"
        },
        {
          "internalType": "uint256",
          "name": "date",
          "type": "uint256"
        }
      ],
      "name": "setInterestLastUpdateDate",
      "outputs": [],
      "stateMutability": "nonpayable",
      "type": "function"
    },
    {
      "inputs": [
        {
          "internalType": "address",
          "name": "_fxToken",
          "type": "address"
        },
        {
          "internalType": "address",
          "name": "_oracle",
          "type": "address"
        }
      ],
      "name": "setOracle",
      "outputs": [],
      "stateMutability": "nonpayable",
      "type": "function"
    },
    {
      "inputs": [
        {
          "internalType": "bytes4",
          "name": "interfaceId",
          "type": "bytes4"
        }
      ],
      "name": "supportsInterface",
      "outputs": [
        {
          "internalType": "bool",
          "name": "",
          "type": "bool"
        }
      ],
      "stateMutability": "view",
      "type": "function"
    },
    {
      "inputs": [
        {
          "internalType": "address",
          "name": "",
          "type": "address"
        }
      ],
      "name": "totalBalances",
      "outputs": [
        {
          "internalType": "uint256",
          "name": "",
          "type": "uint256"
        }
      ],
      "stateMutability": "view",
      "type": "function"
    },
    {
      "inputs": [],
      "name": "treasury",
      "outputs": [
        {
          "internalType": "address payable",
          "name": "",
          "type": "address"
        }
      ],
      "stateMutability": "view",
      "type": "function"
    },
    {
      "inputs": [
        {
          "internalType": "address",
          "name": "account",
          "type": "address"
        },
        {
          "internalType": "uint256",
          "name": "amount",
          "type": "uint256"
        },
        {
          "internalType": "address",
          "name": "fxToken",
          "type": "address"
        },
        {
          "internalType": "address",
          "name": "collateralToken",
          "type": "address"
        },
        {
          "internalType": "bool",
          "name": "increase",
          "type": "bool"
        }
      ],
      "name": "updateCollateralBalance",
      "outputs": [],
      "stateMutability": "nonpayable",
      "type": "function"
    },
    {
      "inputs": [
        {
          "internalType": "address",
          "name": "account",
          "type": "address"
        },
        {
          "internalType": "uint256",
          "name": "amount",
          "type": "uint256"
        },
        {
          "internalType": "address",
          "name": "fxToken",
          "type": "address"
        },
        {
          "internalType": "bool",
          "name": "increase",
          "type": "bool"
        }
      ],
      "name": "updateDebtPosition",
      "outputs": [],
      "stateMutability": "nonpayable",
      "type": "function"
    },
    {
      "inputs": [
        {
          "internalType": "address",
          "name": "newImplementation",
          "type": "address"
        }
      ],
      "name": "upgradeTo",
      "outputs": [],
      "stateMutability": "nonpayable",
      "type": "function"
    },
    {
      "inputs": [
        {
          "internalType": "address",
          "name": "newImplementation",
          "type": "address"
        },
        {
          "internalType": "bytes",
          "name": "data",
          "type": "bytes"
        }
      ],
      "name": "upgradeToAndCall",
      "outputs": [],
      "stateMutability": "payable",
      "type": "function"
    },
    {
      "inputs": [
        {
          "internalType": "uint256",
          "name": "",
          "type": "uint256"
        }
      ],
      "name": "validFxTokens",
      "outputs": [
        {
          "internalType": "address",
          "name": "",
          "type": "address"
        }
      ],
      "stateMutability": "view",
      "type": "function"
    },
    {
      "inputs": [],
      "name": "vaultLibrary",
      "outputs": [
        {
          "internalType": "address",
          "name": "",
          "type": "address"
        }
      ],
      "stateMutability": "view",
      "type": "function"
    },
    {
      "inputs": [
        {
          "internalType": "address",
          "name": "",
          "type": "address"
        },
        {
          "internalType": "address",
          "name": "",
          "type": "address"
        }
      ],
      "name": "vaults",
      "outputs": [
        {
          "internalType": "uint256",
          "name": "debt",
          "type": "uint256"
        },
        {
          "internalType": "uint256",
          "name": "interestLastUpdateDate",
          "type": "uint256"
        }
      ],
      "stateMutability": "view",
      "type": "function"
    },
    {
      "inputs": [],
      "name": "withdrawFeePerMille",
      "outputs": [
        {
          "internalType": "uint256",
          "name": "",
          "type": "uint256"
        }
      ],
      "stateMutability": "view",
      "type": "function"
    }
  ],
  "bytecode": "0x608060405234801561001057600080fd5b50615a6180620000216000396000f3fe6080604052600436106103355760003560e01c806391d14854116101ab578063c462b520116100f7578063d547741f11610095578063e75fd0b51161006f578063e75fd0b514610cb7578063eb0a8b9114610ce2578063ec94578e14610d0d578063f5b541a614610d3857610335565b8063d547741f14610c3c578063d5d907db14610c65578063e74b981b14610c8e57610335565b8063cf07947d116100d1578063cf07947d14610b6d578063d02641a014610b96578063d1601f1314610bd3578063d4fac45d14610bfe57610335565b8063c462b52014610aca578063c4d66de814610b07578063c68da11014610b3057610335565b8063a217fddf11610164578063ad5c46481161013e578063ad5c4648146109e8578063addd509914610a13578063aee9c87214610a50578063bd9e520014610a8d57610335565b8063a217fddf14610957578063a364c97214610982578063abd3da5e146109ab57610335565b806391d148541461083357806394f9059f146108705780639931286d146108995780639cfd9669146108c45780639df5138a146108ef578063a0f026ff1461091a57610335565b80634046ebae116102855780635fe3b5671161022357806373240993116101fd578063732409931461077957806375b238fc146107a2578063803c97b3146107cd578063877034f11461080a57610335565b80635fe3b567146106fa57806361d027b3146107255780636fcba3771461075057610335565b80634d635e701161025f5780634d635e701461064e5780634f1ef2861461068c5780635c38eb3a146106a85780635eb0ac1a146106d157610335565b80634046ebae146105bb57806341e3f281146105e6578063498b5ae81461061157610335565b8063294d499e116102f257806336568abe116102cc57806336568abe146104ed5780633659cfe61461051657806338df2ff31461053f57806339683a051461057e57610335565b8063294d499e146104705780632b4557591461049b5780632f2ff15d146104c457610335565b806301964f361461033a57806301ffc9a714610365578063172c48c7146103a2578063181e20a7146103df578063248a9ca31461040857806327ab02b914610445575b600080fd5b34801561034657600080fd5b5061034f610d63565b60405161035c91906151f7565b60405180910390f35b34801561037157600080fd5b5061038c600480360381019061038791906149be565b610d6a565b6040516103999190614fe4565b60405180910390f35b3480156103ae57600080fd5b506103c960048036038101906103c491906149e7565b610de4565b6040516103d69190614f2c565b60405180910390f35b3480156103eb57600080fd5b50610406600480360381019061040191906147db565b610e23565b005b34801561041457600080fd5b5061042f600480360381019061042a9190614959565b6111ab565b60405161043c9190614fff565b60405180910390f35b34801561045157600080fd5b5061045a6111cb565b6040516104679190614f2c565b60405180910390f35b34801561047c57600080fd5b506104856111f2565b6040516104929190614f8b565b60405180910390f35b3480156104a757600080fd5b506104c260048036038101906104bd9190614684565b611280565b005b3480156104d057600080fd5b506104eb60048036038101906104e69190614982565b611703565b005b3480156104f957600080fd5b50610514600480360381019061050f9190614982565b61172c565b005b34801561052257600080fd5b5061053d60048036038101906105389190614684565b6117af565b005b34801561054b57600080fd5b5061056660048036038101906105619190614684565b6117d6565b6040516105759392919061523b565b60405180910390f35b34801561058a57600080fd5b506105a560048036038101906105a091906146ad565b611800565b6040516105b291906151f7565b60405180910390f35b3480156105c757600080fd5b506105d061188b565b6040516105dd9190614f2c565b60405180910390f35b3480156105f257600080fd5b506105fb6118b2565b60405161060891906151f7565b60405180910390f35b34801561061d57600080fd5b50610638600480360381019061063391906146ad565b6118b9565b60405161064591906151f7565b60405180910390f35b34801561065a57600080fd5b50610675600480360381019061067091906146ad565b611a0e565b604051610683929190615212565b60405180910390f35b6106a660048036038101906106a19190614787565b611a40565b005b3480156106b457600080fd5b506106cf60048036038101906106ca91906146ad565b611a59565b005b3480156106dd57600080fd5b506106f860048036038101906106f39190614918565b611bed565b005b34801561070657600080fd5b5061070f612285565b60405161071c9190614f2c565b60405180910390f35b34801561073157600080fd5b5061073a6122ac565b6040516107479190614f47565b60405180910390f35b34801561075c57600080fd5b5061077760048036038101906107729190614a39565b6122d3565b005b34801561078557600080fd5b506107a0600480360381019061079b91906148b5565b61232a565b005b3480156107ae57600080fd5b506107b761252c565b6040516107c49190614fff565b60405180910390f35b3480156107d957600080fd5b506107f460048036038101906107ef9190614684565b612550565b6040516108019190614fe4565b60405180910390f35b34801561081657600080fd5b50610831600480360381019061082c9190614852565b612570565b005b34801561083f57600080fd5b5061085a60048036038101906108559190614982565b612774565b6040516108679190614fe4565b60405180910390f35b34801561087c57600080fd5b5061089760048036038101906108929190614684565b6127df565b005b3480156108a557600080fd5b506108ae6128a5565b6040516108bb91906151f7565b60405180910390f35b3480156108d057600080fd5b506108d96128ac565b6040516108e69190614f2c565b60405180910390f35b3480156108fb57600080fd5b506109046128d3565b60405161091191906151f7565b60405180910390f35b34801561092657600080fd5b50610941600480360381019061093c9190614684565b6128da565b60405161094e9190614fe4565b60405180910390f35b34801561096357600080fd5b5061096c6128fb565b6040516109799190614fff565b60405180910390f35b34801561098e57600080fd5b506109a960048036038101906109a491906149e7565b612902565b005b3480156109b757600080fd5b506109d260048036038101906109cd91906149e7565b61293e565b6040516109df9190614f2c565b60405180910390f35b3480156109f457600080fd5b506109fd61297d565b604051610a0a9190614f2c565b60405180910390f35b348015610a1f57600080fd5b50610a3a6004803603810190610a359190614684565b6129a4565b604051610a479190614f2c565b60405180910390f35b348015610a5c57600080fd5b50610a776004803603810190610a729190614684565b6129d8565b604051610a8491906151f7565b60405180910390f35b348015610a9957600080fd5b50610ab46004803603810190610aaf9190614684565b6129f0565b604051610ac191906151dc565b60405180910390f35b348015610ad657600080fd5b50610af16004803603810190610aec91906146e9565b612a67565b604051610afe91906151f7565b60405180910390f35b348015610b1357600080fd5b50610b2e6004803603810190610b299190614684565b612b30565b005b348015610b3c57600080fd5b50610b576004803603810190610b5291906146ad565b612cc8565b604051610b6491906151f7565b60405180910390f35b348015610b7957600080fd5b50610b946004803603810190610b8f9190614684565b612d53565b005b348015610ba257600080fd5b50610bbd6004803603810190610bb89190614684565b612ed9565b604051610bca91906151f7565b60405180910390f35b348015610bdf57600080fd5b50610be8613146565b604051610bf59190614f8b565b60405180910390f35b348015610c0a57600080fd5b50610c256004803603810190610c2091906146ad565b6131d4565b604051610c33929190614fad565b60405180910390f35b348015610c4857600080fd5b50610c636004803603810190610c5e9190614982565b6133c8565b005b348015610c7157600080fd5b50610c8c6004803603810190610c879190614738565b6133f1565b005b348015610c9a57600080fd5b50610cb56004803603810190610cb09190614684565b6134e4565b005b348015610cc357600080fd5b50610ccc6135cc565b604051610cd991906151f7565b60405180910390f35b348015610cee57600080fd5b50610cf76135d3565b604051610d049190614f2c565b60405180910390f35b348015610d1957600080fd5b50610d226135fa565b604051610d2f9190614f2c565b60405180910390f35b348015610d4457600080fd5b50610d4d613621565b604051610d5a9190614fff565b60405180910390f35b6101025481565b60007f7965db0b000000000000000000000000000000000000000000000000000000007bffffffffffffffffffffffffffffffffffffffffffffffffffffffff1916827bffffffffffffffffffffffffffffffffffffffffffffffffffffffff19161480610ddd5750610ddc82613645565b5b9050919050565b60fb8181548110610df457600080fd5b906000526020600020016000915054906101000a900473ffffffffffffffffffffffffffffffffffffffff1681565b610e4d7f97667070c54ef182b0f5858b034beac1b6f3089aa2d3188bb1e8929f4fa9b92933612774565b610e8c576040517f08c379a0000000000000000000000000000000000000000000000000000000008152600401610e839061507c565b60405180910390fd5b600061010160008773ffffffffffffffffffffffffffffffffffffffff1673ffffffffffffffffffffffffffffffffffffffff16815260200190815260200160002060008573ffffffffffffffffffffffffffffffffffffffff1673ffffffffffffffffffffffffffffffffffffffff16815260200190815260200160002060000160008473ffffffffffffffffffffffffffffffffffffffff1673ffffffffffffffffffffffffffffffffffffffff16815260200190815260200160002054905081610f6b57610f6685826136af90919063ffffffff16565b610f7f565b610f7e85826136c590919063ffffffff16565b5b61010160008873ffffffffffffffffffffffffffffffffffffffff1673ffffffffffffffffffffffffffffffffffffffff16815260200190815260200160002060008673ffffffffffffffffffffffffffffffffffffffff1673ffffffffffffffffffffffffffffffffffffffff16815260200190815260200160002060000160008573ffffffffffffffffffffffffffffffffffffffff1673ffffffffffffffffffffffffffffffffffffffff168152602001908152602001600020819055508161109c576110978560fe60008673ffffffffffffffffffffffffffffffffffffffff1673ffffffffffffffffffffffffffffffffffffffff168152602001908152602001600020546136af90919063ffffffff16565b6110ef565b6110ee8560fe60008673ffffffffffffffffffffffffffffffffffffffff1673ffffffffffffffffffffffffffffffffffffffff168152602001908152602001600020546136c590919063ffffffff16565b5b60fe60008573ffffffffffffffffffffffffffffffffffffffff1673ffffffffffffffffffffffffffffffffffffffff168152602001908152602001600020819055508273ffffffffffffffffffffffffffffffffffffffff168473ffffffffffffffffffffffffffffffffffffffff168773ffffffffffffffffffffffffffffffffffffffff167f2027a0219b5bbff94e3a2050ec5c3ab5fafaaffe9c131dd57d2366b04423eff360405160405180910390a4505050505050565b600060c96000838152602001908152602001600020600101549050919050565b61010d60009054906101000a900473ffffffffffffffffffffffffffffffffffffffff1681565b606060fb80548060200260200160405190810160405280929190818152602001828054801561127657602002820191906000526020600020905b8160009054906101000a900473ffffffffffffffffffffffffffffffffffffffff1673ffffffffffffffffffffffffffffffffffffffff168152602001906001019080831161122c575b5050505050905090565b6112b17fa49807205ce4d355092ef5a8a18f56e8913cf4a201fbe287825b095693c217756112ac6136db565b6136e3565b8061010060008273ffffffffffffffffffffffffffffffffffffffff1673ffffffffffffffffffffffffffffffffffffffff16815260200190815260200160002060009054906101000a900460ff1661133f576040517f08c379a0000000000000000000000000000000000000000000000000000000008152600401611336906150dc565b60405180910390fd5b6000600160ff8054905061135391906153a3565b905060005b60ff80549050811015611418578373ffffffffffffffffffffffffffffffffffffffff1660ff82815481106113b6577f4e487b7100000000000000000000000000000000000000000000000000000000600052603260045260246000fd5b9060005260206000200160009054906101000a900473ffffffffffffffffffffffffffffffffffffffff1673ffffffffffffffffffffffffffffffffffffffff16141561140557809150611418565b8080611410906155b4565b915050611358565b5061010060008473ffffffffffffffffffffffffffffffffffffffff1673ffffffffffffffffffffffffffffffffffffffff16815260200190815260200160002060006101000a81549060ff0219169055600160ff8054905061147b9190615453565b8110156116535760ff81815481106114bc577f4e487b7100000000000000000000000000000000000000000000000000000000600052603260045260246000fd5b9060005260206000200160006101000a81549073ffffffffffffffffffffffffffffffffffffffff021916905560ff600160ff805490506114fd9190615453565b81548110611534577f4e487b7100000000000000000000000000000000000000000000000000000000600052603260045260246000fd5b9060005260206000200160009054906101000a900473ffffffffffffffffffffffffffffffffffffffff1660ff8281548110611599577f4e487b7100000000000000000000000000000000000000000000000000000000600052603260045260246000fd5b9060005260206000200160006101000a81548173ffffffffffffffffffffffffffffffffffffffff021916908373ffffffffffffffffffffffffffffffffffffffff16021790555060ff805480611619577f4e487b7100000000000000000000000000000000000000000000000000000000600052603160045260246000fd5b6001900381819060005260206000200160006101000a81549073ffffffffffffffffffffffffffffffffffffffff021916905590556116bb565b60ff818154811061168d577f4e487b7100000000000000000000000000000000000000000000000000000000600052603260045260246000fd5b9060005260206000200160006101000a81549073ffffffffffffffffffffffffffffffffffffffff02191690555b8273ffffffffffffffffffffffffffffffffffffffff167f1b56f46855aea33f90246d19ad4ae4f347ee3e4e01fa69f2f44856e1fb1462b160405160405180910390a2505050565b61170c826111ab565b61171d816117186136db565b6136e3565b6117278383613780565b505050565b6117346136db565b73ffffffffffffffffffffffffffffffffffffffff168173ffffffffffffffffffffffffffffffffffffffff16146117a1576040517f08c379a0000000000000000000000000000000000000000000000000000000008152600401611798906151bc565b60405180910390fd5b6117ab8282613861565b5050565b6117b881613943565b6117d381604051806020016040528060008152506000613977565b50565b60fd6020528060005260406000206000915090508060000154908060010154908060020154905083565b600061010160008473ffffffffffffffffffffffffffffffffffffffff1673ffffffffffffffffffffffffffffffffffffffff16815260200190815260200160002060008373ffffffffffffffffffffffffffffffffffffffff1673ffffffffffffffffffffffffffffffffffffffff16815260200190815260200160002060010154905092915050565b61010f60009054906101000a900473ffffffffffffffffffffffffffffffffffffffff1681565b6101055481565b60008061010160008573ffffffffffffffffffffffffffffffffffffffff1673ffffffffffffffffffffffffffffffffffffffff16815260200190815260200160002060008473ffffffffffffffffffffffffffffffffffffffff1673ffffffffffffffffffffffffffffffffffffffff168152602001908152602001600020600101549050600061010c60009054906101000a900473ffffffffffffffffffffffffffffffffffffffff1673ffffffffffffffffffffffffffffffffffffffff16638709294086866040518363ffffffff1660e01b815260040161199f929190614f62565b60206040518083038186803b1580156119b757600080fd5b505afa1580156119cb573d6000803e3d6000fd5b505050506040513d601f19601f820116820180604052508101906119ef9190614a10565b9050611a0481836136c590919063ffffffff16565b9250505092915050565b610101602052816000526040600020602052806000526040600020600091509150508060010154908060020154905082565b611a4982613943565b611a5582826001613977565b5050565b611a8a7fa49807205ce4d355092ef5a8a18f56e8913cf4a201fbe287825b095693c21775611a856136db565b6136e3565b600073ffffffffffffffffffffffffffffffffffffffff168273ffffffffffffffffffffffffffffffffffffffff161415611afa576040517f08c379a0000000000000000000000000000000000000000000000000000000008152600401611af1906150bc565b60405180910390fd5b600073ffffffffffffffffffffffffffffffffffffffff168173ffffffffffffffffffffffffffffffffffffffff161415611b6a576040517f08c379a0000000000000000000000000000000000000000000000000000000008152600401611b61906150bc565b60405180910390fd5b8061010960008473ffffffffffffffffffffffffffffffffffffffff1673ffffffffffffffffffffffffffffffffffffffff16815260200190815260200160002060006101000a81548173ffffffffffffffffffffffffffffffffffffffff021916908373ffffffffffffffffffffffffffffffffffffffff1602179055505050565b611c1e7fa49807205ce4d355092ef5a8a18f56e8913cf4a201fbe287825b095693c21775611c196136db565b6136e3565b60008151905060005b81811015611cf257600073ffffffffffffffffffffffffffffffffffffffff16838281518110611c80577f4e487b7100000000000000000000000000000000000000000000000000000000600052603260045260246000fd5b602002602001015173ffffffffffffffffffffffffffffffffffffffff161415611cdf576040517f08c379a0000000000000000000000000000000000000000000000000000000008152600401611cd69061505c565b60405180910390fd5b8080611cea906155b4565b915050611c27565b5081600081518110611d2d577f4e487b7100000000000000000000000000000000000000000000000000000000600052603260045260246000fd5b602002602001015161010a60006101000a81548173ffffffffffffffffffffffffffffffffffffffff021916908373ffffffffffffffffffffffffffffffffffffffff16021790555081600181518110611db0577f4e487b7100000000000000000000000000000000000000000000000000000000600052603260045260246000fd5b602002602001015161010b60006101000a81548173ffffffffffffffffffffffffffffffffffffffff021916908373ffffffffffffffffffffffffffffffffffffffff16021790555081600281518110611e33577f4e487b7100000000000000000000000000000000000000000000000000000000600052603260045260246000fd5b602002602001015161010c60006101000a81548173ffffffffffffffffffffffffffffffffffffffff021916908373ffffffffffffffffffffffffffffffffffffffff16021790555081600381518110611eb6577f4e487b7100000000000000000000000000000000000000000000000000000000600052603260045260246000fd5b602002602001015161010d60006101000a81548173ffffffffffffffffffffffffffffffffffffffff021916908373ffffffffffffffffffffffffffffffffffffffff16021790555081600481518110611f39577f4e487b7100000000000000000000000000000000000000000000000000000000600052603260045260246000fd5b602002602001015161010e60006101000a81548173ffffffffffffffffffffffffffffffffffffffff021916908373ffffffffffffffffffffffffffffffffffffffff16021790555081600581518110611fbc577f4e487b7100000000000000000000000000000000000000000000000000000000600052603260045260246000fd5b602002602001015161010f60006101000a81548173ffffffffffffffffffffffffffffffffffffffff021916908373ffffffffffffffffffffffffffffffffffffffff1602179055506120527f97667070c54ef182b0f5858b034beac1b6f3089aa2d3188bb1e8929f4fa9b92961010a60009054906101000a900473ffffffffffffffffffffffffffffffffffffffff16612774565b6120a4576120a37f97667070c54ef182b0f5858b034beac1b6f3089aa2d3188bb1e8929f4fa9b92961010a60009054906101000a900473ffffffffffffffffffffffffffffffffffffffff16611703565b5b6120f17f97667070c54ef182b0f5858b034beac1b6f3089aa2d3188bb1e8929f4fa9b92961010b60009054906101000a900473ffffffffffffffffffffffffffffffffffffffff16612774565b612143576121427f97667070c54ef182b0f5858b034beac1b6f3089aa2d3188bb1e8929f4fa9b92961010b60009054906101000a900473ffffffffffffffffffffffffffffffffffffffff16611703565b5b6121907f97667070c54ef182b0f5858b034beac1b6f3089aa2d3188bb1e8929f4fa9b92961010e60009054906101000a900473ffffffffffffffffffffffffffffffffffffffff16612774565b6121e2576121e17f97667070c54ef182b0f5858b034beac1b6f3089aa2d3188bb1e8929f4fa9b92961010e60009054906101000a900473ffffffffffffffffffffffffffffffffffffffff16611703565b5b61222f7f97667070c54ef182b0f5858b034beac1b6f3089aa2d3188bb1e8929f4fa9b92961010f60009054906101000a900473ffffffffffffffffffffffffffffffffffffffff16612774565b612281576122807f97667070c54ef182b0f5858b034beac1b6f3089aa2d3188bb1e8929f4fa9b92961010f60009054906101000a900473ffffffffffffffffffffffffffffffffffffffff16611703565b5b5050565b61010b60009054906101000a900473ffffffffffffffffffffffffffffffffffffffff1681565b61010a60009054906101000a900473ffffffffffffffffffffffffffffffffffffffff1681565b6123047fa49807205ce4d355092ef5a8a18f56e8913cf4a201fbe287825b095693c217756122ff6136db565b6136e3565b836101058190555082610106819055508061010481905550816101038190555050505050565b61235b7fa49807205ce4d355092ef5a8a18f56e8913cf4a201fbe287825b095693c217756123566136db565b6136e3565b60fc60008573ffffffffffffffffffffffffffffffffffffffff1673ffffffffffffffffffffffffffffffffffffffff16815260200190815260200160002060009054906101000a900460ff166124685760fb849080600181540180825580915050600190039060005260206000200160009091909190916101000a81548173ffffffffffffffffffffffffffffffffffffffff021916908373ffffffffffffffffffffffffffffffffffffffff160217905550600160fc60008673ffffffffffffffffffffffffffffffffffffffff1673ffffffffffffffffffffffffffffffffffffffff16815260200190815260200160002060006101000a81548160ff0219169083151502179055505b60405180606001604052808481526020018381526020018281525060fd60008673ffffffffffffffffffffffffffffffffffffffff1673ffffffffffffffffffffffffffffffffffffffff1681526020019081526020016000206000820151816000015560208201518160010155604082015181600201559050508373ffffffffffffffffffffffffffffffffffffffff167f38bfbff5a2ab4e85e1292bfc75e2e0b39855907deca3889448ce609117c8530f60405160405180910390a250505050565b7fa49807205ce4d355092ef5a8a18f56e8913cf4a201fbe287825b095693c2177581565b60fc6020528060005260406000206000915054906101000a900460ff1681565b61259a7f97667070c54ef182b0f5858b034beac1b6f3089aa2d3188bb1e8929f4fa9b92933612774565b6125d9576040517f08c379a00000000000000000000000000000000000000000000000000000000081526004016125d09061507c565b60405180910390fd5b600061010160008673ffffffffffffffffffffffffffffffffffffffff1673ffffffffffffffffffffffffffffffffffffffff16815260200190815260200160002060008473ffffffffffffffffffffffffffffffffffffffff1673ffffffffffffffffffffffffffffffffffffffff1681526020019081526020016000206001015490508161267b5761267684826136af90919063ffffffff16565b61268f565b61268e84826136c590919063ffffffff16565b5b61010160008773ffffffffffffffffffffffffffffffffffffffff1673ffffffffffffffffffffffffffffffffffffffff16815260200190815260200160002060008573ffffffffffffffffffffffffffffffffffffffff1673ffffffffffffffffffffffffffffffffffffffff168152602001908152602001600020600101819055508273ffffffffffffffffffffffffffffffffffffffff168573ffffffffffffffffffffffffffffffffffffffff167f2d1a59a877ca0f4ce2a4bff5fdbf6e60dabcd7a049afa997fdc2f61bebc68c3860405160405180910390a35050505050565b600060c9600084815260200190815260200160002060000160008373ffffffffffffffffffffffffffffffffffffffff1673ffffffffffffffffffffffffffffffffffffffff16815260200190815260200160002060009054906101000a900460ff16905092915050565b6128107fa49807205ce4d355092ef5a8a18f56e8913cf4a201fbe287825b095693c2177561280b6136db565b6136e3565b60fc60008273ffffffffffffffffffffffffffffffffffffffff1673ffffffffffffffffffffffffffffffffffffffff16815260200190815260200160002060006101000a81549060ff02191690558073ffffffffffffffffffffffffffffffffffffffff167f38bfbff5a2ab4e85e1292bfc75e2e0b39855907deca3889448ce609117c8530f60405160405180910390a250565b6101035481565b61010e60009054906101000a900473ffffffffffffffffffffffffffffffffffffffff1681565b6101065481565b6101006020528060005260406000206000915054906101000a900460ff1681565b6000801b81565b6129337fa49807205ce4d355092ef5a8a18f56e8913cf4a201fbe287825b095693c2177561292e6136db565b6136e3565b806101028190555050565b60ff818154811061294e57600080fd5b906000526020600020016000915054906101000a900473ffffffffffffffffffffffffffffffffffffffff1681565b61010860009054906101000a900473ffffffffffffffffffffffffffffffffffffffff1681565b6101096020528060005260406000206000915054906101000a900473ffffffffffffffffffffffffffffffffffffffff1681565b60fe6020528060005260406000206000915090505481565b6129f86144e7565b60fd60008373ffffffffffffffffffffffffffffffffffffffff1673ffffffffffffffffffffffffffffffffffffffff16815260200190815260200160002060405180606001604052908160008201548152602001600182015481526020016002820154815250509050919050565b600061010160008573ffffffffffffffffffffffffffffffffffffffff1673ffffffffffffffffffffffffffffffffffffffff16815260200190815260200160002060008373ffffffffffffffffffffffffffffffffffffffff1673ffffffffffffffffffffffffffffffffffffffff16815260200190815260200160002060000160008473ffffffffffffffffffffffffffffffffffffffff1673ffffffffffffffffffffffffffffffffffffffff1681526020019081526020016000205490509392505050565b600060019054906101000a900460ff1680612b56575060008054906101000a900460ff16155b612b95576040517f08c379a0000000000000000000000000000000000000000000000000000000008152600401612b8c906150fc565b60405180910390fd5b60008060019054906101000a900460ff161590508015612be5576001600060016101000a81548160ff02191690831515021790555060016000806101000a81548160ff0219169083151502179055505b612bed613b8b565b612c177fa49807205ce4d355092ef5a8a18f56e8913cf4a201fbe287825b095693c2177533613c7c565b612c617f97667070c54ef182b0f5858b034beac1b6f3089aa2d3188bb1e8929f4fa9b9297fa49807205ce4d355092ef5a8a18f56e8913cf4a201fbe287825b095693c21775613c8a565b8161010860006101000a81548173ffffffffffffffffffffffffffffffffffffffff021916908373ffffffffffffffffffffffffffffffffffffffff1602179055508015612cc45760008060016101000a81548160ff0219169083151502179055505b5050565b600061010160008473ffffffffffffffffffffffffffffffffffffffff1673ffffffffffffffffffffffffffffffffffffffff16815260200190815260200160002060008373ffffffffffffffffffffffffffffffffffffffff1673ffffffffffffffffffffffffffffffffffffffff16815260200190815260200160002060020154905092915050565b612d847fa49807205ce4d355092ef5a8a18f56e8913cf4a201fbe287825b095693c21775612d7f6136db565b6136e3565b61010060008273ffffffffffffffffffffffffffffffffffffffff1673ffffffffffffffffffffffffffffffffffffffff16815260200190815260200160002060009054906101000a900460ff16612e935760ff819080600181540180825580915050600190039060005260206000200160009091909190916101000a81548173ffffffffffffffffffffffffffffffffffffffff021916908373ffffffffffffffffffffffffffffffffffffffff160217905550600161010060008373ffffffffffffffffffffffffffffffffffffffff1673ffffffffffffffffffffffffffffffffffffffff16815260200190815260200160002060006101000a81548160ff0219169083151502179055505b8073ffffffffffffffffffffffffffffffffffffffff167f1b56f46855aea33f90246d19ad4ae4f347ee3e4e01fa69f2f44856e1fb1462b160405160405180910390a250565b600061010860009054906101000a900473ffffffffffffffffffffffffffffffffffffffff1673ffffffffffffffffffffffffffffffffffffffff168273ffffffffffffffffffffffffffffffffffffffff161415612f4257670de0b6b3a76400009050613141565b600073ffffffffffffffffffffffffffffffffffffffff1661010960008473ffffffffffffffffffffffffffffffffffffffff1673ffffffffffffffffffffffffffffffffffffffff16815260200190815260200160002060009054906101000a900473ffffffffffffffffffffffffffffffffffffffff1673ffffffffffffffffffffffffffffffffffffffff161415613012576040517f08c379a00000000000000000000000000000000000000000000000000000000081526004016130099061511c565b60405180910390fd5b61010960008373ffffffffffffffffffffffffffffffffffffffff1673ffffffffffffffffffffffffffffffffffffffff16815260200190815260200160002060009054906101000a900473ffffffffffffffffffffffffffffffffffffffff1673ffffffffffffffffffffffffffffffffffffffff166337cef791836040518263ffffffff1660e01b81526004016130ab9190614f2c565b60206040518083038186803b1580156130c357600080fd5b505afa1580156130d7573d6000803e3d6000fd5b505050506040513d601f19601f820116820180604052508101906130fb9190614a10565b905060008111613140576040517f08c379a00000000000000000000000000000000000000000000000000000000081526004016131379061519c565b60405180910390fd5b5b919050565b606060ff8054806020026020016040519081016040528092919081815260200182805480156131ca57602002820191906000526020600020905b8160009054906101000a900473ffffffffffffffffffffffffffffffffffffffff1673ffffffffffffffffffffffffffffffffffffffff1681526020019060010190808311613180575b5050505050905090565b6060806131df6111f2565b915060008251905060008167ffffffffffffffff811115613229577f4e487b7100000000000000000000000000000000000000000000000000000000600052604160045260246000fd5b6040519080825280602002602001820160405280156132575781602001602082028036833780820191505090505b50905060005b828110156133bb5761010160008873ffffffffffffffffffffffffffffffffffffffff1673ffffffffffffffffffffffffffffffffffffffff16815260200190815260200160002060008773ffffffffffffffffffffffffffffffffffffffff1673ffffffffffffffffffffffffffffffffffffffff1681526020019081526020016000206000016000868381518110613320577f4e487b7100000000000000000000000000000000000000000000000000000000600052603260045260246000fd5b602002602001015173ffffffffffffffffffffffffffffffffffffffff1673ffffffffffffffffffffffffffffffffffffffff1681526020019081526020016000205482828151811061339c577f4e487b7100000000000000000000000000000000000000000000000000000000600052603260045260246000fd5b60200260200101818152505080806133b3906155b4565b91505061325d565b5080925050509250929050565b6133d1826111ab565b6133e2816133dd6136db565b6136e3565b6133ec8383613861565b505050565b61341b7f97667070c54ef182b0f5858b034beac1b6f3089aa2d3188bb1e8929f4fa9b92933612774565b61345a576040517f08c379a00000000000000000000000000000000000000000000000000000000081526004016134519061507c565b60405180910390fd5b8061010160008573ffffffffffffffffffffffffffffffffffffffff1673ffffffffffffffffffffffffffffffffffffffff16815260200190815260200160002060008473ffffffffffffffffffffffffffffffffffffffff1673ffffffffffffffffffffffffffffffffffffffff16815260200190815260200160002060020181905550505050565b6135157fa49807205ce4d355092ef5a8a18f56e8913cf4a201fbe287825b095693c217756135106136db565b6136e3565b80600073ffffffffffffffffffffffffffffffffffffffff168173ffffffffffffffffffffffffffffffffffffffff161415613586576040517f08c379a000000000000000000000000000000000000000000000000000000000815260040161357d9061517c565b60405180910390fd5b8161010760006101000a81548173ffffffffffffffffffffffffffffffffffffffff021916908373ffffffffffffffffffffffffffffffffffffffff1602179055505050565b6101045481565b61010c60009054906101000a900473ffffffffffffffffffffffffffffffffffffffff1681565b61010760009054906101000a900473ffffffffffffffffffffffffffffffffffffffff1681565b7f97667070c54ef182b0f5858b034beac1b6f3089aa2d3188bb1e8929f4fa9b92981565b60007f01ffc9a7000000000000000000000000000000000000000000000000000000007bffffffffffffffffffffffffffffffffffffffffffffffffffffffff1916827bffffffffffffffffffffffffffffffffffffffffffffffffffffffff1916149050919050565b600081836136bd9190615453565b905092915050565b600081836136d391906153a3565b905092915050565b600033905090565b6136ed8282612774565b61377c576137128173ffffffffffffffffffffffffffffffffffffffff166014613ce0565b6137208360001c6020613ce0565b604051602001613731929190614ef2565b6040516020818303038152906040526040517f08c379a0000000000000000000000000000000000000000000000000000000008152600401613773919061501a565b60405180910390fd5b5050565b61378a8282612774565b61385d57600160c9600084815260200190815260200160002060000160008373ffffffffffffffffffffffffffffffffffffffff1673ffffffffffffffffffffffffffffffffffffffff16815260200190815260200160002060006101000a81548160ff0219169083151502179055506138026136db565b73ffffffffffffffffffffffffffffffffffffffff168173ffffffffffffffffffffffffffffffffffffffff16837f2f8788117e7eff1d82e926ec794901d17c78024a50270940304540a733656f0d60405160405180910390a45b5050565b61386b8282612774565b1561393f57600060c9600084815260200190815260200160002060000160008373ffffffffffffffffffffffffffffffffffffffff1673ffffffffffffffffffffffffffffffffffffffff16815260200190815260200160002060006101000a81548160ff0219169083151502179055506138e46136db565b73ffffffffffffffffffffffffffffffffffffffff168173ffffffffffffffffffffffffffffffffffffffff16837ff6391f5c32d9c69d2a47ea670b442974b53935d1edc7fd64eb21e047a839171b60405160405180910390a45b5050565b6139747fa49807205ce4d355092ef5a8a18f56e8913cf4a201fbe287825b095693c2177561396f6136db565b6136e3565b50565b6000613981613fda565b905061398c84614031565b6000835111806139995750815b156139aa576139a884846140ea565b505b60006139d87f4910fdfa16fed3260ed0e7147f7cc6da11a60208b5b9406d12a635614ffd914360001b6141ce565b90508060000160009054906101000a900460ff16613b845760018160000160006101000a81548160ff021916908315150217905550613aa48583604051602401613a229190614f2c565b6040516020818303038152906040527f3659cfe6000000000000000000000000000000000000000000000000000000007bffffffffffffffffffffffffffffffffffffffffffffffffffffffff19166020820180517bffffffffffffffffffffffffffffffffffffffffffffffffffffffff83818316178352505050506140ea565b5060008160000160006101000a81548160ff021916908315150217905550613aca613fda565b73ffffffffffffffffffffffffffffffffffffffff168273ffffffffffffffffffffffffffffffffffffffff1614613b37576040517f08c379a0000000000000000000000000000000000000000000000000000000008152600401613b2e9061509c565b60405180910390fd5b613b4085614031565b8473ffffffffffffffffffffffffffffffffffffffff167fbc7cd75a20ee27fd9adebab32041f755214dbc6bffa90cc0225b39da2e5c2d3b60405160405180910390a25b5050505050565b600060019054906101000a900460ff1680613bb1575060008054906101000a900460ff16155b613bf0576040517f08c379a0000000000000000000000000000000000000000000000000000000008152600401613be7906150fc565b60405180910390fd5b60008060019054906101000a900460ff161590508015613c40576001600060016101000a81548160ff02191690831515021790555060016000806101000a81548160ff0219169083151502179055505b613c486141d8565b613c506142b1565b613c5861438a565b8015613c795760008060016101000a81548160ff0219169083151502179055505b50565b613c868282613780565b5050565b80613c94836111ab565b837fbd79b86ffe0ab8e8776151514217cd7cacd52c909f66475c3af44e129f0b00ff60405160405180910390a48060c96000848152602001908152602001600020600101819055505050565b606060006002836002613cf391906153f9565b613cfd91906153a3565b67ffffffffffffffff811115613d3c577f4e487b7100000000000000000000000000000000000000000000000000000000600052604160045260246000fd5b6040519080825280601f01601f191660200182016040528015613d6e5781602001600182028036833780820191505090505b5090507f300000000000000000000000000000000000000000000000000000000000000081600081518110613dcc577f4e487b7100000000000000000000000000000000000000000000000000000000600052603260045260246000fd5b60200101907effffffffffffffffffffffffffffffffffffffffffffffffffffffffffffff1916908160001a9053507f780000000000000000000000000000000000000000000000000000000000000081600181518110613e56577f4e487b7100000000000000000000000000000000000000000000000000000000600052603260045260246000fd5b60200101907effffffffffffffffffffffffffffffffffffffffffffffffffffffffffffff1916908160001a90535060006001846002613e9691906153f9565b613ea091906153a3565b90505b6001811115613f8c577f3031323334353637383961626364656600000000000000000000000000000000600f861660108110613f08577f4e487b7100000000000000000000000000000000000000000000000000000000600052603260045260246000fd5b1a60f81b828281518110613f45577f4e487b7100000000000000000000000000000000000000000000000000000000600052603260045260246000fd5b60200101907effffffffffffffffffffffffffffffffffffffffffffffffffffffffffffff1916908160001a905350600485901c945080613f8590615559565b9050613ea3565b5060008414613fd0576040517f08c379a0000000000000000000000000000000000000000000000000000000008152600401613fc79061503c565b60405180910390fd5b8091505092915050565b60006140087f360894a13ba1a3210667c828492db98dca3e2076cc3735a920a3ca505d382bbc60001b614463565b60000160009054906101000a900473ffffffffffffffffffffffffffffffffffffffff16905090565b61403a8161446d565b614079576040517f08c379a00000000000000000000000000000000000000000000000000000000081526004016140709061513c565b60405180910390fd5b806140a67f360894a13ba1a3210667c828492db98dca3e2076cc3735a920a3ca505d382bbc60001b614463565b60000160006101000a81548173ffffffffffffffffffffffffffffffffffffffff021916908373ffffffffffffffffffffffffffffffffffffffff16021790555050565b60606140f58361446d565b614134576040517f08c379a000000000000000000000000000000000000000000000000000000000815260040161412b9061515c565b60405180910390fd5b6000808473ffffffffffffffffffffffffffffffffffffffff168460405161415c9190614edb565b600060405180830381855af49150503d8060008114614197576040519150601f19603f3d011682016040523d82523d6000602084013e61419c565b606091505b50915091506141c48282604051806060016040528060278152602001615a0560279139614480565b9250505092915050565b6000819050919050565b600060019054906101000a900460ff16806141fe575060008054906101000a900460ff16155b61423d576040517f08c379a0000000000000000000000000000000000000000000000000000000008152600401614234906150fc565b60405180910390fd5b60008060019054906101000a900460ff16159050801561428d576001600060016101000a81548160ff02191690831515021790555060016000806101000a81548160ff0219169083151502179055505b80156142ae5760008060016101000a81548160ff0219169083151502179055505b50565b600060019054906101000a900460ff16806142d7575060008054906101000a900460ff16155b614316576040517f08c379a000000000000000000000000000000000000000000000000000000000815260040161430d906150fc565b60405180910390fd5b60008060019054906101000a900460ff161590508015614366576001600060016101000a81548160ff02191690831515021790555060016000806101000a81548160ff0219169083151502179055505b80156143875760008060016101000a81548160ff0219169083151502179055505b50565b600060019054906101000a900460ff16806143b0575060008054906101000a900460ff16155b6143ef576040517f08c379a00000000000000000000000000000000000000000000000000000000081526004016143e6906150fc565b60405180910390fd5b60008060019054906101000a900460ff16159050801561443f576001600060016101000a81548160ff02191690831515021790555060016000806101000a81548160ff0219169083151502179055505b80156144605760008060016101000a81548160ff0219169083151502179055505b50565b6000819050919050565b600080823b905060008111915050919050565b60608315614490578290506144e0565b6000835111156144a35782518084602001fd5b816040517f08c379a00000000000000000000000000000000000000000000000000000000081526004016144d7919061501a565b60405180910390fd5b9392505050565b60405180606001604052806000815260200160008152602001600081525090565b600061451b61451684615297565b615272565b9050808382526020820190508285602086028201111561453a57600080fd5b60005b8581101561456a578161455088826145b2565b84526020840193506020830192505060018101905061453d565b5050509392505050565b6000614587614582846152c3565b615272565b90508281526020810184848401111561459f57600080fd5b6145aa848285615517565b509392505050565b6000813590506145c181615991565b92915050565b600082601f8301126145d857600080fd5b81356145e8848260208601614508565b91505092915050565b600081359050614600816159a8565b92915050565b600081359050614615816159bf565b92915050565b60008135905061462a816159d6565b92915050565b600082601f83011261464157600080fd5b8135614651848260208601614574565b91505092915050565b600081359050614669816159ed565b92915050565b60008151905061467e816159ed565b92915050565b60006020828403121561469657600080fd5b60006146a4848285016145b2565b91505092915050565b600080604083850312156146c057600080fd5b60006146ce858286016145b2565b92505060206146df858286016145b2565b9150509250929050565b6000806000606084860312156146fe57600080fd5b600061470c868287016145b2565b935050602061471d868287016145b2565b925050604061472e868287016145b2565b9150509250925092565b60008060006060848603121561474d57600080fd5b600061475b868287016145b2565b935050602061476c868287016145b2565b925050604061477d8682870161465a565b9150509250925092565b6000806040838503121561479a57600080fd5b60006147a8858286016145b2565b925050602083013567ffffffffffffffff8111156147c557600080fd5b6147d185828601614630565b9150509250929050565b600080600080600060a086880312156147f357600080fd5b6000614801888289016145b2565b95505060206148128882890161465a565b9450506040614823888289016145b2565b9350506060614834888289016145b2565b9250506080614845888289016145f1565b9150509295509295909350565b6000806000806080858703121561486857600080fd5b6000614876878288016145b2565b94505060206148878782880161465a565b9350506040614898878288016145b2565b92505060606148a9878288016145f1565b91505092959194509250565b600080600080608085870312156148cb57600080fd5b60006148d9878288016145b2565b94505060206148ea8782880161465a565b93505060406148fb8782880161465a565b925050606061490c8782880161465a565b91505092959194509250565b60006020828403121561492a57600080fd5b600082013567ffffffffffffffff81111561494457600080fd5b614950848285016145c7565b91505092915050565b60006020828403121561496b57600080fd5b600061497984828501614606565b91505092915050565b6000806040838503121561499557600080fd5b60006149a385828601614606565b92505060206149b4858286016145b2565b9150509250929050565b6000602082840312156149d057600080fd5b60006149de8482850161461b565b91505092915050565b6000602082840312156149f957600080fd5b6000614a078482850161465a565b91505092915050565b600060208284031215614a2257600080fd5b6000614a308482850161466f565b91505092915050565b60008060008060808587031215614a4f57600080fd5b6000614a5d8782880161465a565b9450506020614a6e8782880161465a565b9350506040614a7f8782880161465a565b9250506060614a908782880161465a565b91505092959194509250565b6000614aa88383614adb565b60208301905092915050565b6000614ac08383614ebd565b60208301905092915050565b614ad581615499565b82525050565b614ae481615487565b82525050565b614af381615487565b82525050565b6000614b0482615314565b614b0e818561535a565b9350614b19836152f4565b8060005b83811015614b4a578151614b318882614a9c565b9750614b3c83615340565b925050600181019050614b1d565b5085935050505092915050565b6000614b628261531f565b614b6c818561536b565b9350614b7783615304565b8060005b83811015614ba8578151614b8f8882614ab4565b9750614b9a8361534d565b925050600181019050614b7b565b5085935050505092915050565b614bbe816154ab565b82525050565b614bcd816154b7565b82525050565b6000614bde8261532a565b614be8818561537c565b9350614bf8818560208601615526565b80840191505092915050565b6000614c0f82615335565b614c198185615387565b9350614c29818560208601615526565b614c328161565b565b840191505092915050565b6000614c4882615335565b614c528185615398565b9350614c62818560208601615526565b80840191505092915050565b6000614c7b602083615387565b9150614c868261566c565b602082019050919050565b6000614c9e600f83615387565b9150614ca982615695565b602082019050919050565b6000614cc1600283615387565b9150614ccc826156be565b602082019050919050565b6000614ce4602f83615387565b9150614cef826156e7565b604082019050919050565b6000614d07600283615387565b9150614d1282615736565b602082019050919050565b6000614d2a600283615387565b9150614d358261575f565b602082019050919050565b6000614d4d602e83615387565b9150614d5882615788565b604082019050919050565b6000614d70601383615387565b9150614d7b826157d7565b602082019050919050565b6000614d93602d83615387565b9150614d9e82615800565b604082019050919050565b6000614db6602683615387565b9150614dc18261584f565b604082019050919050565b6000614dd9600f83615387565b9150614de48261589e565b602082019050919050565b6000614dfc601783615398565b9150614e07826158c7565b601782019050919050565b6000614e1f601383615387565b9150614e2a826158f0565b602082019050919050565b6000614e42601183615398565b9150614e4d82615919565b601182019050919050565b6000614e65602f83615387565b9150614e7082615942565b604082019050919050565b606082016000820151614e916000850182614ebd565b506020820151614ea46020850182614ebd565b506040820151614eb76040850182614ebd565b50505050565b614ec68161550d565b82525050565b614ed58161550d565b82525050565b6000614ee78284614bd3565b915081905092915050565b6000614efd82614def565b9150614f098285614c3d565b9150614f1482614e35565b9150614f208284614c3d565b91508190509392505050565b6000602082019050614f416000830184614aea565b92915050565b6000602082019050614f5c6000830184614acc565b92915050565b6000604082019050614f776000830185614aea565b614f846020830184614aea565b9392505050565b60006020820190508181036000830152614fa58184614af9565b905092915050565b60006040820190508181036000830152614fc78185614af9565b90508181036020830152614fdb8184614b57565b90509392505050565b6000602082019050614ff96000830184614bb5565b92915050565b60006020820190506150146000830184614bc4565b92915050565b600060208201905081810360008301526150348184614c04565b905092915050565b6000602082019050818103600083015261505581614c6e565b9050919050565b6000602082019050818103600083015261507581614c91565b9050919050565b6000602082019050818103600083015261509581614cb4565b9050919050565b600060208201905081810360008301526150b581614cd7565b9050919050565b600060208201905081810360008301526150d581614cfa565b9050919050565b600060208201905081810360008301526150f581614d1d565b9050919050565b6000602082019050818103600083015261511581614d40565b9050919050565b6000602082019050818103600083015261513581614d63565b9050919050565b6000602082019050818103600083015261515581614d86565b9050919050565b6000602082019050818103600083015261517581614da9565b9050919050565b6000602082019050818103600083015261519581614dcc565b9050919050565b600060208201905081810360008301526151b581614e12565b9050919050565b600060208201905081810360008301526151d581614e58565b9050919050565b60006060820190506151f16000830184614e7b565b92915050565b600060208201905061520c6000830184614ecc565b92915050565b60006040820190506152276000830185614ecc565b6152346020830184614ecc565b9392505050565b60006060820190506152506000830186614ecc565b61525d6020830185614ecc565b61526a6040830184614ecc565b949350505050565b600061527c61528d565b90506152888282615583565b919050565b6000604051905090565b600067ffffffffffffffff8211156152b2576152b161562c565b5b602082029050602081019050919050565b600067ffffffffffffffff8211156152de576152dd61562c565b5b6152e78261565b565b9050602081019050919050565b6000819050602082019050919050565b6000819050602082019050919050565b600081519050919050565b600081519050919050565b600081519050919050565b600081519050919050565b6000602082019050919050565b6000602082019050919050565b600082825260208201905092915050565b600082825260208201905092915050565b600081905092915050565b600082825260208201905092915050565b600081905092915050565b60006153ae8261550d565b91506153b98361550d565b9250827fffffffffffffffffffffffffffffffffffffffffffffffffffffffffffffffff038211156153ee576153ed6155fd565b5b828201905092915050565b60006154048261550d565b915061540f8361550d565b9250817fffffffffffffffffffffffffffffffffffffffffffffffffffffffffffffffff0483118215151615615448576154476155fd565b5b828202905092915050565b600061545e8261550d565b91506154698361550d565b92508282101561547c5761547b6155fd565b5b828203905092915050565b6000615492826154ed565b9050919050565b60006154a4826154ed565b9050919050565b60008115159050919050565b6000819050919050565b60007fffffffff0000000000000000000000000000000000000000000000000000000082169050919050565b600073ffffffffffffffffffffffffffffffffffffffff82169050919050565b6000819050919050565b82818337600083830152505050565b60005b83811015615544578082015181840152602081019050615529565b83811115615553576000848401525b50505050565b60006155648261550d565b91506000821415615578576155776155fd565b5b600182039050919050565b61558c8261565b565b810181811067ffffffffffffffff821117156155ab576155aa61562c565b5b80604052505050565b60006155bf8261550d565b91507fffffffffffffffffffffffffffffffffffffffffffffffffffffffffffffffff8214156155f2576155f16155fd565b5b600182019050919050565b7f4e487b7100000000000000000000000000000000000000000000000000000000600052601160045260246000fd5b7f4e487b7100000000000000000000000000000000000000000000000000000000600052604160045260246000fd5b6000601f19601f8301169050919050565b7f537472696e67733a20686578206c656e67746820696e73756666696369656e74600082015250565b7f496e76616c696420616464726573730000000000000000000000000000000000600082015250565b7f4e4f000000000000000000000000000000000000000000000000000000000000600082015250565b7f45524331393637557067726164653a207570677261646520627265616b73206660008201527f7572746865722075706772616465730000000000000000000000000000000000602082015250565b7f495a000000000000000000000000000000000000000000000000000000000000600082015250565b7f4946000000000000000000000000000000000000000000000000000000000000600082015250565b7f496e697469616c697a61626c653a20636f6e747261637420697320616c72656160008201527f647920696e697469616c697a6564000000000000000000000000000000000000602082015250565b7f4e6f206f7261636c6520666f7220746f6b656e00000000000000000000000000600082015250565b7f455243313936373a206e657720696d706c656d656e746174696f6e206973206e60008201527f6f74206120636f6e747261637400000000000000000000000000000000000000602082015250565b7f416464726573733a2064656c65676174652063616c6c20746f206e6f6e2d636f60008201527f6e74726163740000000000000000000000000000000000000000000000000000602082015250565b7f496e76616c696420416464726573730000000000000000000000000000000000600082015250565b7f416363657373436f6e74726f6c3a206163636f756e7420000000000000000000600082015250565b7f546f6b656e207072696365206973207a65726f00000000000000000000000000600082015250565b7f206973206d697373696e6720726f6c6520000000000000000000000000000000600082015250565b7f416363657373436f6e74726f6c3a2063616e206f6e6c792072656e6f756e636560008201527f20726f6c657320666f722073656c660000000000000000000000000000000000602082015250565b61599a81615487565b81146159a557600080fd5b50565b6159b1816154ab565b81146159bc57600080fd5b50565b6159c8816154b7565b81146159d357600080fd5b50565b6159df816154c1565b81146159ea57600080fd5b50565b6159f68161550d565b8114615a0157600080fd5b5056fe416464726573733a206c6f772d6c6576656c2064656c65676174652063616c6c206661696c6564a26469706673582212209a87a3a82bddef2c1565b405e8b87c4e419a1a812de5b13f98d9bc07a309168e64736f6c63430008030033",
  "linkReferences": {},
  "deployedLinkReferences": {}
}