{
  "_format": "hh-sol-artifact-1",
  "contractName": "Handle",
  "sourceName": "contracts/Bank/Handle.sol",
  "abi": [
    {
      "anonymous": false,
      "inputs": [
        {
          "indexed": false,
          "internalType": "address",
          "name": "previousAdmin",
          "type": "address"
        },
        {
          "indexed": false,
          "internalType": "address",
          "name": "newAdmin",
          "type": "address"
        }
      ],
      "name": "AdminChanged",
      "type": "event"
    },
    {
      "anonymous": false,
      "inputs": [
        {
          "indexed": true,
          "internalType": "address",
          "name": "beacon",
          "type": "address"
        }
      ],
      "name": "BeaconUpgraded",
      "type": "event"
    },
    {
      "anonymous": false,
      "inputs": [
        {
          "indexed": true,
          "internalType": "address",
          "name": "collateralToken",
          "type": "address"
        }
      ],
      "name": "ConfigureCollateralToken",
      "type": "event"
    },
    {
      "anonymous": false,
      "inputs": [
        {
          "indexed": true,
          "internalType": "address",
          "name": "fxToken",
          "type": "address"
        }
      ],
      "name": "ConfigureFxToken",
      "type": "event"
    },
    {
      "anonymous": false,
      "inputs": [
        {
          "indexed": true,
          "internalType": "bytes32",
          "name": "role",
          "type": "bytes32"
        },
        {
          "indexed": true,
          "internalType": "bytes32",
          "name": "previousAdminRole",
          "type": "bytes32"
        },
        {
          "indexed": true,
          "internalType": "bytes32",
          "name": "newAdminRole",
          "type": "bytes32"
        }
      ],
      "name": "RoleAdminChanged",
      "type": "event"
    },
    {
      "anonymous": false,
      "inputs": [
        {
          "indexed": true,
          "internalType": "bytes32",
          "name": "role",
          "type": "bytes32"
        },
        {
          "indexed": true,
          "internalType": "address",
          "name": "account",
          "type": "address"
        },
        {
          "indexed": true,
          "internalType": "address",
          "name": "sender",
          "type": "address"
        }
      ],
      "name": "RoleGranted",
      "type": "event"
    },
    {
      "anonymous": false,
      "inputs": [
        {
          "indexed": true,
          "internalType": "bytes32",
          "name": "role",
          "type": "bytes32"
        },
        {
          "indexed": true,
          "internalType": "address",
          "name": "account",
          "type": "address"
        },
        {
          "indexed": true,
          "internalType": "address",
          "name": "sender",
          "type": "address"
        }
      ],
      "name": "RoleRevoked",
      "type": "event"
    },
    {
      "anonymous": false,
      "inputs": [
        {
          "indexed": true,
          "internalType": "address",
          "name": "account",
          "type": "address"
        },
        {
          "indexed": true,
          "internalType": "address",
          "name": "fxToken",
          "type": "address"
        },
        {
          "indexed": true,
          "internalType": "address",
          "name": "collateralToken",
          "type": "address"
        }
      ],
      "name": "UpdateCollateral",
      "type": "event"
    },
    {
      "anonymous": false,
      "inputs": [
        {
          "indexed": true,
          "internalType": "address",
          "name": "account",
          "type": "address"
        },
        {
          "indexed": true,
          "internalType": "address",
          "name": "fxToken",
          "type": "address"
        }
      ],
      "name": "UpdateDebt",
      "type": "event"
    },
    {
      "anonymous": false,
      "inputs": [
        {
          "indexed": true,
          "internalType": "address",
          "name": "implementation",
          "type": "address"
        }
      ],
      "name": "Upgraded",
      "type": "event"
    },
    {
      "inputs": [],
      "name": "ADMIN_ROLE",
      "outputs": [
        {
          "internalType": "bytes32",
          "name": "",
          "type": "bytes32"
        }
      ],
      "stateMutability": "view",
      "type": "function"
    },
    {
      "inputs": [],
      "name": "DEFAULT_ADMIN_ROLE",
      "outputs": [
        {
          "internalType": "bytes32",
          "name": "",
          "type": "bytes32"
        }
      ],
      "stateMutability": "view",
      "type": "function"
    },
    {
      "inputs": [],
      "name": "FeeRecipient",
      "outputs": [
        {
          "internalType": "address",
          "name": "",
          "type": "address"
        }
      ],
      "stateMutability": "view",
      "type": "function"
    },
    {
      "inputs": [],
      "name": "OPERATOR_ROLE",
      "outputs": [
        {
          "internalType": "bytes32",
          "name": "",
          "type": "bytes32"
        }
      ],
      "stateMutability": "view",
      "type": "function"
    },
    {
      "inputs": [],
      "name": "WETH",
      "outputs": [
        {
          "internalType": "address",
          "name": "",
          "type": "address"
        }
      ],
      "stateMutability": "view",
      "type": "function"
    },
    {
      "inputs": [],
      "name": "burnFeePerMille",
      "outputs": [
        {
          "internalType": "uint256",
          "name": "",
          "type": "uint256"
        }
      ],
      "stateMutability": "view",
      "type": "function"
    },
    {
      "inputs": [
        {
          "internalType": "address",
          "name": "",
          "type": "address"
        }
      ],
      "name": "collateralDetails",
      "outputs": [
        {
          "internalType": "uint256",
          "name": "mintCR",
          "type": "uint256"
        },
        {
          "internalType": "uint256",
          "name": "liquidationFee",
          "type": "uint256"
        },
        {
          "internalType": "uint256",
          "name": "interestRate",
          "type": "uint256"
        }
      ],
      "stateMutability": "view",
      "type": "function"
    },
    {
      "inputs": [
        {
          "internalType": "uint256",
          "name": "",
          "type": "uint256"
        }
      ],
      "name": "collateralTokens",
      "outputs": [
        {
          "internalType": "address",
          "name": "",
          "type": "address"
        }
      ],
      "stateMutability": "view",
      "type": "function"
    },
    {
      "inputs": [],
      "name": "comptroller",
      "outputs": [
        {
          "internalType": "address",
          "name": "",
          "type": "address"
        }
      ],
      "stateMutability": "view",
      "type": "function"
    },
    {
      "inputs": [],
      "name": "depositFeePerMille",
      "outputs": [
        {
          "internalType": "uint256",
          "name": "",
          "type": "uint256"
        }
      ],
      "stateMutability": "view",
      "type": "function"
    },
    {
      "inputs": [],
      "name": "fxKeeperPool",
      "outputs": [
        {
          "internalType": "address",
          "name": "",
          "type": "address"
        }
      ],
      "stateMutability": "view",
      "type": "function"
    },
    {
      "inputs": [],
      "name": "getAllCollateralTypes",
      "outputs": [
        {
          "internalType": "address[]",
          "name": "collateral",
          "type": "address[]"
        }
      ],
      "stateMutability": "view",
      "type": "function"
    },
    {
      "inputs": [],
      "name": "getAllFxTokens",
      "outputs": [
        {
          "internalType": "address[]",
          "name": "tokens",
          "type": "address[]"
        }
      ],
      "stateMutability": "view",
      "type": "function"
    },
    {
      "inputs": [
        {
          "internalType": "address",
          "name": "account",
          "type": "address"
        },
        {
          "internalType": "address",
          "name": "fxToken",
          "type": "address"
        }
      ],
      "name": "getBalance",
      "outputs": [
        {
          "internalType": "address[]",
          "name": "collateral",
          "type": "address[]"
        },
        {
          "internalType": "uint256[]",
          "name": "balances",
          "type": "uint256[]"
        }
      ],
      "stateMutability": "view",
      "type": "function"
    },
    {
      "inputs": [
        {
          "internalType": "address",
          "name": "account",
          "type": "address"
        },
        {
          "internalType": "address",
          "name": "collateralType",
          "type": "address"
        },
        {
          "internalType": "address",
          "name": "fxToken",
          "type": "address"
        }
      ],
      "name": "getCollateralBalance",
      "outputs": [
        {
          "internalType": "uint256",
          "name": "balance",
          "type": "uint256"
        }
      ],
      "stateMutability": "view",
      "type": "function"
    },
    {
      "inputs": [
        {
          "internalType": "address",
          "name": "collateral",
          "type": "address"
        }
      ],
      "name": "getCollateralDetails",
      "outputs": [
        {
          "components": [
            {
              "internalType": "uint256",
              "name": "mintCR",
              "type": "uint256"
            },
            {
              "internalType": "uint256",
              "name": "liquidationFee",
              "type": "uint256"
            },
            {
              "internalType": "uint256",
              "name": "interestRate",
              "type": "uint256"
            }
          ],
          "internalType": "struct IHandle.CollateralData",
          "name": "",
          "type": "tuple"
        }
      ],
      "stateMutability": "view",
      "type": "function"
    },
    {
      "inputs": [
        {
          "internalType": "address",
          "name": "account",
          "type": "address"
        },
        {
          "internalType": "address",
          "name": "fxToken",
          "type": "address"
        }
      ],
      "name": "getDebt",
      "outputs": [
        {
          "internalType": "uint256",
          "name": "",
          "type": "uint256"
        }
      ],
      "stateMutability": "view",
      "type": "function"
    },
    {
      "inputs": [
        {
          "internalType": "address",
          "name": "account",
          "type": "address"
        },
        {
          "internalType": "address",
          "name": "fxToken",
          "type": "address"
        }
      ],
      "name": "getInterestLastUpdateDate",
      "outputs": [
        {
          "internalType": "uint256",
          "name": "date",
          "type": "uint256"
        }
      ],
      "stateMutability": "view",
      "type": "function"
    },
    {
      "inputs": [
        {
          "internalType": "address",
          "name": "account",
          "type": "address"
        },
        {
          "internalType": "address",
          "name": "fxToken",
          "type": "address"
        }
      ],
      "name": "getRawDebt",
      "outputs": [
        {
          "internalType": "uint256",
          "name": "",
          "type": "uint256"
        }
      ],
      "stateMutability": "view",
      "type": "function"
    },
    {
      "inputs": [
        {
          "internalType": "bytes32",
          "name": "role",
          "type": "bytes32"
        }
      ],
      "name": "getRoleAdmin",
      "outputs": [
        {
          "internalType": "bytes32",
          "name": "",
          "type": "bytes32"
        }
      ],
      "stateMutability": "view",
      "type": "function"
    },
    {
      "inputs": [
        {
          "internalType": "address",
          "name": "token",
          "type": "address"
        }
      ],
      "name": "getTokenPrice",
      "outputs": [
        {
          "internalType": "uint256",
          "name": "quote",
          "type": "uint256"
        }
      ],
      "stateMutability": "view",
      "type": "function"
    },
    {
      "inputs": [
        {
          "internalType": "bytes32",
          "name": "role",
          "type": "bytes32"
        },
        {
          "internalType": "address",
          "name": "account",
          "type": "address"
        }
      ],
      "name": "grantRole",
      "outputs": [],
      "stateMutability": "nonpayable",
      "type": "function"
    },
    {
      "inputs": [
        {
          "internalType": "bytes32",
          "name": "role",
          "type": "bytes32"
        },
        {
          "internalType": "address",
          "name": "account",
          "type": "address"
        }
      ],
      "name": "hasRole",
      "outputs": [
        {
          "internalType": "bool",
          "name": "",
          "type": "bool"
        }
      ],
      "stateMutability": "view",
      "type": "function"
    },
    {
      "inputs": [
        {
          "internalType": "address",
          "name": "weth",
          "type": "address"
        }
      ],
      "name": "initialize",
      "outputs": [],
      "stateMutability": "nonpayable",
      "type": "function"
    },
    {
      "inputs": [
        {
          "internalType": "address",
          "name": "",
          "type": "address"
        }
      ],
      "name": "isCollateralValid",
      "outputs": [
        {
          "internalType": "bool",
          "name": "",
          "type": "bool"
        }
      ],
      "stateMutability": "view",
      "type": "function"
    },
    {
      "inputs": [
        {
          "internalType": "address",
          "name": "",
          "type": "address"
        }
      ],
      "name": "isFxTokenValid",
      "outputs": [
        {
          "internalType": "bool",
          "name": "",
          "type": "bool"
        }
      ],
      "stateMutability": "view",
      "type": "function"
    },
    {
      "inputs": [],
      "name": "mintFeePerMille",
      "outputs": [
        {
          "internalType": "uint256",
          "name": "",
          "type": "uint256"
        }
      ],
      "stateMutability": "view",
      "type": "function"
    },
    {
      "inputs": [
        {
          "internalType": "address",
          "name": "",
          "type": "address"
        }
      ],
      "name": "oracles",
      "outputs": [
        {
          "internalType": "address",
          "name": "",
          "type": "address"
        }
      ],
      "stateMutability": "view",
      "type": "function"
    },
    {
      "inputs": [],
      "name": "pct",
      "outputs": [
        {
          "internalType": "address",
          "name": "",
          "type": "address"
        }
      ],
      "stateMutability": "view",
      "type": "function"
    },
    {
      "inputs": [],
      "name": "pctCollateralUpperBound",
      "outputs": [
        {
          "internalType": "uint256",
          "name": "",
          "type": "uint256"
        }
      ],
      "stateMutability": "view",
      "type": "function"
    },
    {
      "inputs": [
        {
          "internalType": "address",
          "name": "token",
          "type": "address"
        }
      ],
      "name": "removeCollateralToken",
      "outputs": [],
      "stateMutability": "nonpayable",
      "type": "function"
    },
    {
      "inputs": [
        {
          "internalType": "address",
          "name": "token",
          "type": "address"
        }
      ],
      "name": "removeFxToken",
      "outputs": [],
      "stateMutability": "nonpayable",
      "type": "function"
    },
    {
      "inputs": [
        {
          "internalType": "bytes32",
          "name": "role",
          "type": "bytes32"
        },
        {
          "internalType": "address",
          "name": "account",
          "type": "address"
        }
      ],
      "name": "renounceRole",
      "outputs": [],
      "stateMutability": "nonpayable",
      "type": "function"
    },
    {
      "inputs": [
        {
          "internalType": "bytes32",
          "name": "role",
          "type": "bytes32"
        },
        {
          "internalType": "address",
          "name": "account",
          "type": "address"
        }
      ],
      "name": "revokeRole",
      "outputs": [],
      "stateMutability": "nonpayable",
      "type": "function"
    },
    {
      "inputs": [
        {
          "internalType": "address",
          "name": "_token",
          "type": "address"
        },
        {
          "internalType": "uint256",
          "name": "_mintCR",
          "type": "uint256"
        },
        {
          "internalType": "uint256",
          "name": "_liquidationFee",
          "type": "uint256"
        },
        {
          "internalType": "uint256",
          "name": "_interestRatePerMille",
          "type": "uint256"
        }
      ],
      "name": "setCollateralToken",
      "outputs": [],
      "stateMutability": "nonpayable",
      "type": "function"
    },
    {
      "inputs": [
        {
          "internalType": "uint256",
          "name": "ratio",
          "type": "uint256"
        }
      ],
      "name": "setCollateralUpperBoundPCT",
      "outputs": [],
      "stateMutability": "nonpayable",
      "type": "function"
    },
    {
      "inputs": [
        {
          "internalType": "address",
          "name": "_treasury",
          "type": "address"
        },
        {
          "internalType": "address",
          "name": "_comptroller",
          "type": "address"
        },
        {
          "internalType": "address",
          "name": "_vaultLibrary",
          "type": "address"
        },
        {
          "internalType": "address",
          "name": "_fxKeeperPool",
          "type": "address"
        },
        {
          "internalType": "address",
          "name": "_pct",
          "type": "address"
        }
      ],
      "name": "setComponents",
      "outputs": [],
      "stateMutability": "nonpayable",
      "type": "function"
    },
    {
      "inputs": [
        {
          "internalType": "address",
          "name": "feeRecipient",
          "type": "address"
        }
      ],
      "name": "setFeeRecipient",
      "outputs": [],
      "stateMutability": "nonpayable",
      "type": "function"
    },
    {
      "inputs": [
        {
          "internalType": "uint256",
          "name": "_withdrawFeePerMille",
          "type": "uint256"
        },
        {
          "internalType": "uint256",
          "name": "_depositFeePerMille",
          "type": "uint256"
        },
        {
          "internalType": "uint256",
          "name": "_mintFeePerMille",
          "type": "uint256"
        },
        {
          "internalType": "uint256",
          "name": "_burnFeePerMille",
          "type": "uint256"
        }
      ],
      "name": "setFees",
      "outputs": [],
      "stateMutability": "nonpayable",
      "type": "function"
    },
    {
      "inputs": [
        {
          "internalType": "address",
          "name": "token",
          "type": "address"
        }
      ],
      "name": "setFxToken",
      "outputs": [],
      "stateMutability": "nonpayable",
      "type": "function"
    },
    {
      "inputs": [
        {
          "internalType": "address",
          "name": "account",
          "type": "address"
        },
        {
          "internalType": "address",
          "name": "fxToken",
          "type": "address"
        },
        {
          "internalType": "uint256",
          "name": "date",
          "type": "uint256"
        }
      ],
      "name": "setInterestLastUpdateDate",
      "outputs": [],
      "stateMutability": "nonpayable",
      "type": "function"
    },
    {
      "inputs": [
        {
          "internalType": "address",
          "name": "_fxToken",
          "type": "address"
        },
        {
          "internalType": "address",
          "name": "_oracle",
          "type": "address"
        }
      ],
      "name": "setOracle",
      "outputs": [],
      "stateMutability": "nonpayable",
      "type": "function"
    },
    {
      "inputs": [
        {
          "internalType": "bytes4",
          "name": "interfaceId",
          "type": "bytes4"
        }
      ],
      "name": "supportsInterface",
      "outputs": [
        {
          "internalType": "bool",
          "name": "",
          "type": "bool"
        }
      ],
      "stateMutability": "view",
      "type": "function"
    },
    {
      "inputs": [
        {
          "internalType": "address",
          "name": "",
          "type": "address"
        }
      ],
      "name": "totalBalances",
      "outputs": [
        {
          "internalType": "uint256",
          "name": "",
          "type": "uint256"
        }
      ],
      "stateMutability": "view",
      "type": "function"
    },
    {
      "inputs": [],
      "name": "treasury",
      "outputs": [
        {
          "internalType": "address payable",
          "name": "",
          "type": "address"
        }
      ],
      "stateMutability": "view",
      "type": "function"
    },
    {
      "inputs": [
        {
          "internalType": "address",
          "name": "account",
          "type": "address"
        },
        {
          "internalType": "uint256",
          "name": "amount",
          "type": "uint256"
        },
        {
          "internalType": "address",
          "name": "fxToken",
          "type": "address"
        },
        {
          "internalType": "address",
          "name": "collateralToken",
          "type": "address"
        },
        {
          "internalType": "bool",
          "name": "increase",
          "type": "bool"
        }
      ],
      "name": "updateCollateralBalance",
      "outputs": [],
      "stateMutability": "nonpayable",
      "type": "function"
    },
    {
      "inputs": [
        {
          "internalType": "address",
          "name": "account",
          "type": "address"
        },
        {
          "internalType": "uint256",
          "name": "amount",
          "type": "uint256"
        },
        {
          "internalType": "address",
          "name": "fxToken",
          "type": "address"
        },
        {
          "internalType": "bool",
          "name": "increase",
          "type": "bool"
        }
      ],
      "name": "updateDebtPosition",
      "outputs": [],
      "stateMutability": "nonpayable",
      "type": "function"
    },
    {
      "inputs": [
        {
          "internalType": "address",
          "name": "newImplementation",
          "type": "address"
        }
      ],
      "name": "upgradeTo",
      "outputs": [],
      "stateMutability": "nonpayable",
      "type": "function"
    },
    {
      "inputs": [
        {
          "internalType": "address",
          "name": "newImplementation",
          "type": "address"
        },
        {
          "internalType": "bytes",
          "name": "data",
          "type": "bytes"
        }
      ],
      "name": "upgradeToAndCall",
      "outputs": [],
      "stateMutability": "payable",
      "type": "function"
    },
    {
      "inputs": [
        {
          "internalType": "uint256",
          "name": "",
          "type": "uint256"
        }
      ],
      "name": "validFxTokens",
      "outputs": [
        {
          "internalType": "address",
          "name": "",
          "type": "address"
        }
      ],
      "stateMutability": "view",
      "type": "function"
    },
    {
      "inputs": [],
      "name": "vaultLibrary",
      "outputs": [
        {
          "internalType": "address",
          "name": "",
          "type": "address"
        }
      ],
      "stateMutability": "view",
      "type": "function"
    },
    {
      "inputs": [
        {
          "internalType": "address",
          "name": "",
          "type": "address"
        },
        {
          "internalType": "address",
          "name": "",
          "type": "address"
        }
      ],
      "name": "vaults",
      "outputs": [
        {
          "internalType": "uint256",
          "name": "debt",
          "type": "uint256"
        },
        {
          "internalType": "uint256",
          "name": "interestLastUpdateDate",
          "type": "uint256"
        }
      ],
      "stateMutability": "view",
      "type": "function"
    },
    {
      "inputs": [],
      "name": "withdrawFeePerMille",
      "outputs": [
        {
          "internalType": "uint256",
          "name": "",
          "type": "uint256"
        }
      ],
      "stateMutability": "view",
      "type": "function"
    }
  ],
  "bytecode": "0x608060405234801561001057600080fd5b5061578b80620000216000396000f3fe60806040526004361061031a5760003560e01c806394f9059f116101ab578063c4d66de8116100f7578063d5d907db11610095578063eb0a8b911161006f578063eb0a8b9114610c73578063ec94578e14610c9e578063ee4ebf5c14610cc9578063f5b541a614610cf25761031a565b8063d5d907db14610bf6578063e74b981b14610c1f578063e75fd0b514610c485761031a565b8063d02641a0116100d1578063d02641a014610b27578063d1601f1314610b64578063d4fac45d14610b8f578063d547741f14610bcd5761031a565b8063c4d66de814610a98578063c68da11014610ac1578063cf07947d14610afe5761031a565b8063a364c97211610164578063addd50991161013e578063addd5099146109a4578063aee9c872146109e1578063bd9e520014610a1e578063c462b52014610a5b5761031a565b8063a364c97214610913578063abd3da5e1461093c578063ad5c4648146109795761031a565b806394f9059f146108015780639931286d1461082a5780639cfd9669146108555780639df5138a14610880578063a0f026ff146108ab578063a217fddf146108e85761031a565b806341e3f2811161026a57806361d027b31161022357806375b238fc116101fd57806375b238fc14610733578063803c97b31461075e578063877034f11461079b57806391d14854146107c45761031a565b806361d027b3146106b65780636fcba377146106e1578063732409931461070a5761031a565b806341e3f281146105a0578063498b5ae8146105cb5780634d635e70146106085780634f1ef286146106465780635c38eb3a146106625780635fe3b5671461068b5761031a565b8063294d499e116102d757806336568abe116102b157806336568abe146104d25780633659cfe6146104fb57806338df2ff31461052457806339683a05146105635761031a565b8063294d499e146104555780632b455759146104805780632f2ff15d146104a95761031a565b806301964f361461031f57806301ffc9a71461034a578063172c48c714610387578063181e20a7146103c4578063248a9ca3146103ed57806327ab02b91461042a575b600080fd5b34801561032b57600080fd5b50610334610d1d565b6040516103419190614f76565b60405180910390f35b34801561035657600080fd5b50610371600480360381019061036c9190614780565b610d24565b60405161037e9190614d83565b60405180910390f35b34801561039357600080fd5b506103ae60048036038101906103a991906147a9565b610d9e565b6040516103bb9190614ccb565b60405180910390f35b3480156103d057600080fd5b506103eb60048036038101906103e691906145de565b610ddd565b005b3480156103f957600080fd5b50610414600480360381019061040f919061471b565b611165565b6040516104219190614d9e565b60405180910390f35b34801561043657600080fd5b5061043f611185565b60405161044c9190614ccb565b60405180910390f35b34801561046157600080fd5b5061046a6111ac565b6040516104779190614d2a565b60405180910390f35b34801561048c57600080fd5b506104a760048036038101906104a29190614410565b61123a565b005b3480156104b557600080fd5b506104d060048036038101906104cb9190614744565b6116bd565b005b3480156104de57600080fd5b506104f960048036038101906104f49190614744565b6116e6565b005b34801561050757600080fd5b50610522600480360381019061051d9190614410565b611769565b005b34801561053057600080fd5b5061054b60048036038101906105469190614410565b611790565b60405161055a93929190614fba565b60405180910390f35b34801561056f57600080fd5b5061058a60048036038101906105859190614439565b6117ba565b6040516105979190614f76565b60405180910390f35b3480156105ac57600080fd5b506105b5611845565b6040516105c29190614f76565b60405180910390f35b3480156105d757600080fd5b506105f260048036038101906105ed9190614439565b61184c565b6040516105ff9190614f76565b60405180910390f35b34801561061457600080fd5b5061062f600480360381019061062a9190614439565b6119a1565b60405161063d929190614f91565b60405180910390f35b610660600480360381019061065b919061458a565b6119d3565b005b34801561066e57600080fd5b5061068960048036038101906106849190614439565b6119ec565b005b34801561069757600080fd5b506106a0611b80565b6040516106ad9190614ccb565b60405180910390f35b3480156106c257600080fd5b506106cb611ba7565b6040516106d89190614ce6565b60405180910390f35b3480156106ed57600080fd5b50610708600480360381019061070391906147fb565b611bce565b005b34801561071657600080fd5b50610731600480360381019061072c91906146b8565b611c25565b005b34801561073f57600080fd5b50610748611e27565b6040516107559190614d9e565b60405180910390f35b34801561076a57600080fd5b5061078560048036038101906107809190614410565b611e4b565b6040516107929190614d83565b60405180910390f35b3480156107a757600080fd5b506107c260048036038101906107bd9190614655565b611e6b565b005b3480156107d057600080fd5b506107eb60048036038101906107e69190614744565b61206f565b6040516107f89190614d83565b60405180910390f35b34801561080d57600080fd5b5061082860048036038101906108239190614410565b6120da565b005b34801561083657600080fd5b5061083f6121a0565b60405161084c9190614f76565b60405180910390f35b34801561086157600080fd5b5061086a6121a7565b6040516108779190614ccb565b60405180910390f35b34801561088c57600080fd5b506108956121ce565b6040516108a29190614f76565b60405180910390f35b3480156108b757600080fd5b506108d260048036038101906108cd9190614410565b6121d5565b6040516108df9190614d83565b60405180910390f35b3480156108f457600080fd5b506108fd6121f6565b60405161090a9190614d9e565b60405180910390f35b34801561091f57600080fd5b5061093a600480360381019061093591906147a9565b6121fd565b005b34801561094857600080fd5b50610963600480360381019061095e91906147a9565b612239565b6040516109709190614ccb565b60405180910390f35b34801561098557600080fd5b5061098e612278565b60405161099b9190614ccb565b60405180910390f35b3480156109b057600080fd5b506109cb60048036038101906109c69190614410565b61229f565b6040516109d89190614ccb565b60405180910390f35b3480156109ed57600080fd5b50610a086004803603810190610a039190614410565b6122d3565b604051610a159190614f76565b60405180910390f35b348015610a2a57600080fd5b50610a456004803603810190610a409190614410565b6122eb565b604051610a529190614f5b565b60405180910390f35b348015610a6757600080fd5b50610a826004803603810190610a7d9190614475565b612362565b604051610a8f9190614f76565b60405180910390f35b348015610aa457600080fd5b50610abf6004803603810190610aba9190614410565b61242b565b005b348015610acd57600080fd5b50610ae86004803603810190610ae39190614439565b6125c3565b604051610af59190614f76565b60405180910390f35b348015610b0a57600080fd5b50610b256004803603810190610b209190614410565b61264e565b005b348015610b3357600080fd5b50610b4e6004803603810190610b499190614410565b6127d4565b604051610b5b9190614f76565b60405180910390f35b348015610b7057600080fd5b50610b79612a41565b604051610b869190614d2a565b60405180910390f35b348015610b9b57600080fd5b50610bb66004803603810190610bb19190614439565b612acf565b604051610bc4929190614d4c565b60405180910390f35b348015610bd957600080fd5b50610bf46004803603810190610bef9190614744565b612cc3565b005b348015610c0257600080fd5b50610c1d6004803603810190610c18919061453b565b612cec565b005b348015610c2b57600080fd5b50610c466004803603810190610c419190614410565b612ddf565b005b348015610c5457600080fd5b50610c5d612ec7565b604051610c6a9190614f76565b60405180910390f35b348015610c7f57600080fd5b50610c88612ece565b604051610c959190614ccb565b60405180910390f35b348015610caa57600080fd5b50610cb3612ef5565b604051610cc09190614ccb565b60405180910390f35b348015610cd557600080fd5b50610cf06004803603810190610ceb91906144c4565b612f1c565b005b348015610cfe57600080fd5b50610d07613443565b604051610d149190614d9e565b60405180910390f35b6101025481565b60007f7965db0b000000000000000000000000000000000000000000000000000000007bffffffffffffffffffffffffffffffffffffffffffffffffffffffff1916827bffffffffffffffffffffffffffffffffffffffffffffffffffffffff19161480610d975750610d9682613467565b5b9050919050565b60fb8181548110610dae57600080fd5b906000526020600020016000915054906101000a900473ffffffffffffffffffffffffffffffffffffffff1681565b610e077f97667070c54ef182b0f5858b034beac1b6f3089aa2d3188bb1e8929f4fa9b9293361206f565b610e46576040517f08c379a0000000000000000000000000000000000000000000000000000000008152600401610e3d90614dfb565b60405180910390fd5b600061010160008773ffffffffffffffffffffffffffffffffffffffff1673ffffffffffffffffffffffffffffffffffffffff16815260200190815260200160002060008573ffffffffffffffffffffffffffffffffffffffff1673ffffffffffffffffffffffffffffffffffffffff16815260200190815260200160002060000160008473ffffffffffffffffffffffffffffffffffffffff1673ffffffffffffffffffffffffffffffffffffffff16815260200190815260200160002054905081610f2557610f2085826134d190919063ffffffff16565b610f39565b610f3885826134e790919063ffffffff16565b5b61010160008873ffffffffffffffffffffffffffffffffffffffff1673ffffffffffffffffffffffffffffffffffffffff16815260200190815260200160002060008673ffffffffffffffffffffffffffffffffffffffff1673ffffffffffffffffffffffffffffffffffffffff16815260200190815260200160002060000160008573ffffffffffffffffffffffffffffffffffffffff1673ffffffffffffffffffffffffffffffffffffffff1681526020019081526020016000208190555081611056576110518560fe60008673ffffffffffffffffffffffffffffffffffffffff1673ffffffffffffffffffffffffffffffffffffffff168152602001908152602001600020546134d190919063ffffffff16565b6110a9565b6110a88560fe60008673ffffffffffffffffffffffffffffffffffffffff1673ffffffffffffffffffffffffffffffffffffffff168152602001908152602001600020546134e790919063ffffffff16565b5b60fe60008573ffffffffffffffffffffffffffffffffffffffff1673ffffffffffffffffffffffffffffffffffffffff168152602001908152602001600020819055508273ffffffffffffffffffffffffffffffffffffffff168473ffffffffffffffffffffffffffffffffffffffff168773ffffffffffffffffffffffffffffffffffffffff167f2027a0219b5bbff94e3a2050ec5c3ab5fafaaffe9c131dd57d2366b04423eff360405160405180910390a4505050505050565b600060c96000838152602001908152602001600020600101549050919050565b61010d60009054906101000a900473ffffffffffffffffffffffffffffffffffffffff1681565b606060fb80548060200260200160405190810160405280929190818152602001828054801561123057602002820191906000526020600020905b8160009054906101000a900473ffffffffffffffffffffffffffffffffffffffff1673ffffffffffffffffffffffffffffffffffffffff16815260200190600101908083116111e6575b5050505050905090565b61126b7fa49807205ce4d355092ef5a8a18f56e8913cf4a201fbe287825b095693c217756112666134fd565b613505565b8061010060008273ffffffffffffffffffffffffffffffffffffffff1673ffffffffffffffffffffffffffffffffffffffff16815260200190815260200160002060009054906101000a900460ff166112f9576040517f08c379a00000000000000000000000000000000000000000000000000000000081526004016112f090614e5b565b60405180910390fd5b6000600160ff8054905061130d91906150f6565b905060005b60ff805490508110156113d2578373ffffffffffffffffffffffffffffffffffffffff1660ff8281548110611370577f4e487b7100000000000000000000000000000000000000000000000000000000600052603260045260246000fd5b9060005260206000200160009054906101000a900473ffffffffffffffffffffffffffffffffffffffff1673ffffffffffffffffffffffffffffffffffffffff1614156113bf578091506113d2565b80806113ca90615307565b915050611312565b5061010060008473ffffffffffffffffffffffffffffffffffffffff1673ffffffffffffffffffffffffffffffffffffffff16815260200190815260200160002060006101000a81549060ff0219169055600160ff8054905061143591906151a6565b81101561160d5760ff8181548110611476577f4e487b7100000000000000000000000000000000000000000000000000000000600052603260045260246000fd5b9060005260206000200160006101000a81549073ffffffffffffffffffffffffffffffffffffffff021916905560ff600160ff805490506114b791906151a6565b815481106114ee577f4e487b7100000000000000000000000000000000000000000000000000000000600052603260045260246000fd5b9060005260206000200160009054906101000a900473ffffffffffffffffffffffffffffffffffffffff1660ff8281548110611553577f4e487b7100000000000000000000000000000000000000000000000000000000600052603260045260246000fd5b9060005260206000200160006101000a81548173ffffffffffffffffffffffffffffffffffffffff021916908373ffffffffffffffffffffffffffffffffffffffff16021790555060ff8054806115d3577f4e487b7100000000000000000000000000000000000000000000000000000000600052603160045260246000fd5b6001900381819060005260206000200160006101000a81549073ffffffffffffffffffffffffffffffffffffffff02191690559055611675565b60ff8181548110611647577f4e487b7100000000000000000000000000000000000000000000000000000000600052603260045260246000fd5b9060005260206000200160006101000a81549073ffffffffffffffffffffffffffffffffffffffff02191690555b8273ffffffffffffffffffffffffffffffffffffffff167f1b56f46855aea33f90246d19ad4ae4f347ee3e4e01fa69f2f44856e1fb1462b160405160405180910390a2505050565b6116c682611165565b6116d7816116d26134fd565b613505565b6116e183836135a2565b505050565b6116ee6134fd565b73ffffffffffffffffffffffffffffffffffffffff168173ffffffffffffffffffffffffffffffffffffffff161461175b576040517f08c379a000000000000000000000000000000000000000000000000000000000815260040161175290614f3b565b60405180910390fd5b6117658282613683565b5050565b61177281613765565b61178d81604051806020016040528060008152506000613799565b50565b60fd6020528060005260406000206000915090508060000154908060010154908060020154905083565b600061010160008473ffffffffffffffffffffffffffffffffffffffff1673ffffffffffffffffffffffffffffffffffffffff16815260200190815260200160002060008373ffffffffffffffffffffffffffffffffffffffff1673ffffffffffffffffffffffffffffffffffffffff16815260200190815260200160002060010154905092915050565b6101055481565b60008061010160008573ffffffffffffffffffffffffffffffffffffffff1673ffffffffffffffffffffffffffffffffffffffff16815260200190815260200160002060008473ffffffffffffffffffffffffffffffffffffffff1673ffffffffffffffffffffffffffffffffffffffff168152602001908152602001600020600101549050600061010c60009054906101000a900473ffffffffffffffffffffffffffffffffffffffff1673ffffffffffffffffffffffffffffffffffffffff16638709294086866040518363ffffffff1660e01b8152600401611932929190614d01565b60206040518083038186803b15801561194a57600080fd5b505afa15801561195e573d6000803e3d6000fd5b505050506040513d601f19601f8201168201806040525081019061198291906147d2565b905061199781836134e790919063ffffffff16565b9250505092915050565b610101602052816000526040600020602052806000526040600020600091509150508060010154908060020154905082565b6119dc82613765565b6119e882826001613799565b5050565b611a1d7fa49807205ce4d355092ef5a8a18f56e8913cf4a201fbe287825b095693c21775611a186134fd565b613505565b600073ffffffffffffffffffffffffffffffffffffffff168273ffffffffffffffffffffffffffffffffffffffff161415611a8d576040517f08c379a0000000000000000000000000000000000000000000000000000000008152600401611a8490614e3b565b60405180910390fd5b600073ffffffffffffffffffffffffffffffffffffffff168173ffffffffffffffffffffffffffffffffffffffff161415611afd576040517f08c379a0000000000000000000000000000000000000000000000000000000008152600401611af490614e3b565b60405180910390fd5b8061010960008473ffffffffffffffffffffffffffffffffffffffff1673ffffffffffffffffffffffffffffffffffffffff16815260200190815260200160002060006101000a81548173ffffffffffffffffffffffffffffffffffffffff021916908373ffffffffffffffffffffffffffffffffffffffff1602179055505050565b61010b60009054906101000a900473ffffffffffffffffffffffffffffffffffffffff1681565b61010a60009054906101000a900473ffffffffffffffffffffffffffffffffffffffff1681565b611bff7fa49807205ce4d355092ef5a8a18f56e8913cf4a201fbe287825b095693c21775611bfa6134fd565b613505565b836101058190555082610106819055508061010481905550816101038190555050505050565b611c567fa49807205ce4d355092ef5a8a18f56e8913cf4a201fbe287825b095693c21775611c516134fd565b613505565b60fc60008573ffffffffffffffffffffffffffffffffffffffff1673ffffffffffffffffffffffffffffffffffffffff16815260200190815260200160002060009054906101000a900460ff16611d635760fb849080600181540180825580915050600190039060005260206000200160009091909190916101000a81548173ffffffffffffffffffffffffffffffffffffffff021916908373ffffffffffffffffffffffffffffffffffffffff160217905550600160fc60008673ffffffffffffffffffffffffffffffffffffffff1673ffffffffffffffffffffffffffffffffffffffff16815260200190815260200160002060006101000a81548160ff0219169083151502179055505b60405180606001604052808481526020018381526020018281525060fd60008673ffffffffffffffffffffffffffffffffffffffff1673ffffffffffffffffffffffffffffffffffffffff1681526020019081526020016000206000820151816000015560208201518160010155604082015181600201559050508373ffffffffffffffffffffffffffffffffffffffff167f38bfbff5a2ab4e85e1292bfc75e2e0b39855907deca3889448ce609117c8530f60405160405180910390a250505050565b7fa49807205ce4d355092ef5a8a18f56e8913cf4a201fbe287825b095693c2177581565b60fc6020528060005260406000206000915054906101000a900460ff1681565b611e957f97667070c54ef182b0f5858b034beac1b6f3089aa2d3188bb1e8929f4fa9b9293361206f565b611ed4576040517f08c379a0000000000000000000000000000000000000000000000000000000008152600401611ecb90614dfb565b60405180910390fd5b600061010160008673ffffffffffffffffffffffffffffffffffffffff1673ffffffffffffffffffffffffffffffffffffffff16815260200190815260200160002060008473ffffffffffffffffffffffffffffffffffffffff1673ffffffffffffffffffffffffffffffffffffffff16815260200190815260200160002060010154905081611f7657611f7184826134d190919063ffffffff16565b611f8a565b611f8984826134e790919063ffffffff16565b5b61010160008773ffffffffffffffffffffffffffffffffffffffff1673ffffffffffffffffffffffffffffffffffffffff16815260200190815260200160002060008573ffffffffffffffffffffffffffffffffffffffff1673ffffffffffffffffffffffffffffffffffffffff168152602001908152602001600020600101819055508273ffffffffffffffffffffffffffffffffffffffff168573ffffffffffffffffffffffffffffffffffffffff167f2d1a59a877ca0f4ce2a4bff5fdbf6e60dabcd7a049afa997fdc2f61bebc68c3860405160405180910390a35050505050565b600060c9600084815260200190815260200160002060000160008373ffffffffffffffffffffffffffffffffffffffff1673ffffffffffffffffffffffffffffffffffffffff16815260200190815260200160002060009054906101000a900460ff16905092915050565b61210b7fa49807205ce4d355092ef5a8a18f56e8913cf4a201fbe287825b095693c217756121066134fd565b613505565b60fc60008273ffffffffffffffffffffffffffffffffffffffff1673ffffffffffffffffffffffffffffffffffffffff16815260200190815260200160002060006101000a81549060ff02191690558073ffffffffffffffffffffffffffffffffffffffff167f38bfbff5a2ab4e85e1292bfc75e2e0b39855907deca3889448ce609117c8530f60405160405180910390a250565b6101035481565b61010e60009054906101000a900473ffffffffffffffffffffffffffffffffffffffff1681565b6101065481565b6101006020528060005260406000206000915054906101000a900460ff1681565b6000801b81565b61222e7fa49807205ce4d355092ef5a8a18f56e8913cf4a201fbe287825b095693c217756122296134fd565b613505565b806101028190555050565b60ff818154811061224957600080fd5b906000526020600020016000915054906101000a900473ffffffffffffffffffffffffffffffffffffffff1681565b61010860009054906101000a900473ffffffffffffffffffffffffffffffffffffffff1681565b6101096020528060005260406000206000915054906101000a900473ffffffffffffffffffffffffffffffffffffffff1681565b60fe6020528060005260406000206000915090505481565b6122f3614309565b60fd60008373ffffffffffffffffffffffffffffffffffffffff1673ffffffffffffffffffffffffffffffffffffffff16815260200190815260200160002060405180606001604052908160008201548152602001600182015481526020016002820154815250509050919050565b600061010160008573ffffffffffffffffffffffffffffffffffffffff1673ffffffffffffffffffffffffffffffffffffffff16815260200190815260200160002060008373ffffffffffffffffffffffffffffffffffffffff1673ffffffffffffffffffffffffffffffffffffffff16815260200190815260200160002060000160008473ffffffffffffffffffffffffffffffffffffffff1673ffffffffffffffffffffffffffffffffffffffff1681526020019081526020016000205490509392505050565b600060019054906101000a900460ff1680612451575060008054906101000a900460ff16155b612490576040517f08c379a000000000000000000000000000000000000000000000000000000000815260040161248790614e7b565b60405180910390fd5b60008060019054906101000a900460ff1615905080156124e0576001600060016101000a81548160ff02191690831515021790555060016000806101000a81548160ff0219169083151502179055505b6124e86139ad565b6125127fa49807205ce4d355092ef5a8a18f56e8913cf4a201fbe287825b095693c2177533613a9e565b61255c7f97667070c54ef182b0f5858b034beac1b6f3089aa2d3188bb1e8929f4fa9b9297fa49807205ce4d355092ef5a8a18f56e8913cf4a201fbe287825b095693c21775613aac565b8161010860006101000a81548173ffffffffffffffffffffffffffffffffffffffff021916908373ffffffffffffffffffffffffffffffffffffffff16021790555080156125bf5760008060016101000a81548160ff0219169083151502179055505b5050565b600061010160008473ffffffffffffffffffffffffffffffffffffffff1673ffffffffffffffffffffffffffffffffffffffff16815260200190815260200160002060008373ffffffffffffffffffffffffffffffffffffffff1673ffffffffffffffffffffffffffffffffffffffff16815260200190815260200160002060020154905092915050565b61267f7fa49807205ce4d355092ef5a8a18f56e8913cf4a201fbe287825b095693c2177561267a6134fd565b613505565b61010060008273ffffffffffffffffffffffffffffffffffffffff1673ffffffffffffffffffffffffffffffffffffffff16815260200190815260200160002060009054906101000a900460ff1661278e5760ff819080600181540180825580915050600190039060005260206000200160009091909190916101000a81548173ffffffffffffffffffffffffffffffffffffffff021916908373ffffffffffffffffffffffffffffffffffffffff160217905550600161010060008373ffffffffffffffffffffffffffffffffffffffff1673ffffffffffffffffffffffffffffffffffffffff16815260200190815260200160002060006101000a81548160ff0219169083151502179055505b8073ffffffffffffffffffffffffffffffffffffffff167f1b56f46855aea33f90246d19ad4ae4f347ee3e4e01fa69f2f44856e1fb1462b160405160405180910390a250565b600061010860009054906101000a900473ffffffffffffffffffffffffffffffffffffffff1673ffffffffffffffffffffffffffffffffffffffff168273ffffffffffffffffffffffffffffffffffffffff16141561283d57670de0b6b3a76400009050612a3c565b600073ffffffffffffffffffffffffffffffffffffffff1661010960008473ffffffffffffffffffffffffffffffffffffffff1673ffffffffffffffffffffffffffffffffffffffff16815260200190815260200160002060009054906101000a900473ffffffffffffffffffffffffffffffffffffffff1673ffffffffffffffffffffffffffffffffffffffff16141561290d576040517f08c379a000000000000000000000000000000000000000000000000000000000815260040161290490614e9b565b60405180910390fd5b61010960008373ffffffffffffffffffffffffffffffffffffffff1673ffffffffffffffffffffffffffffffffffffffff16815260200190815260200160002060009054906101000a900473ffffffffffffffffffffffffffffffffffffffff1673ffffffffffffffffffffffffffffffffffffffff166337cef791836040518263ffffffff1660e01b81526004016129a69190614ccb565b60206040518083038186803b1580156129be57600080fd5b505afa1580156129d2573d6000803e3d6000fd5b505050506040513d601f19601f820116820180604052508101906129f691906147d2565b905060008111612a3b576040517f08c379a0000000000000000000000000000000000000000000000000000000008152600401612a3290614f1b565b60405180910390fd5b5b919050565b606060ff805480602002602001604051908101604052809291908181526020018280548015612ac557602002820191906000526020600020905b8160009054906101000a900473ffffffffffffffffffffffffffffffffffffffff1673ffffffffffffffffffffffffffffffffffffffff1681526020019060010190808311612a7b575b5050505050905090565b606080612ada6111ac565b915060008251905060008167ffffffffffffffff811115612b24577f4e487b7100000000000000000000000000000000000000000000000000000000600052604160045260246000fd5b604051908082528060200260200182016040528015612b525781602001602082028036833780820191505090505b50905060005b82811015612cb65761010160008873ffffffffffffffffffffffffffffffffffffffff1673ffffffffffffffffffffffffffffffffffffffff16815260200190815260200160002060008773ffffffffffffffffffffffffffffffffffffffff1673ffffffffffffffffffffffffffffffffffffffff1681526020019081526020016000206000016000868381518110612c1b577f4e487b7100000000000000000000000000000000000000000000000000000000600052603260045260246000fd5b602002602001015173ffffffffffffffffffffffffffffffffffffffff1673ffffffffffffffffffffffffffffffffffffffff16815260200190815260200160002054828281518110612c97577f4e487b7100000000000000000000000000000000000000000000000000000000600052603260045260246000fd5b6020026020010181815250508080612cae90615307565b915050612b58565b5080925050509250929050565b612ccc82611165565b612cdd81612cd86134fd565b613505565b612ce78383613683565b505050565b612d167f97667070c54ef182b0f5858b034beac1b6f3089aa2d3188bb1e8929f4fa9b9293361206f565b612d55576040517f08c379a0000000000000000000000000000000000000000000000000000000008152600401612d4c90614dfb565b60405180910390fd5b8061010160008573ffffffffffffffffffffffffffffffffffffffff1673ffffffffffffffffffffffffffffffffffffffff16815260200190815260200160002060008473ffffffffffffffffffffffffffffffffffffffff1673ffffffffffffffffffffffffffffffffffffffff16815260200190815260200160002060020181905550505050565b612e107fa49807205ce4d355092ef5a8a18f56e8913cf4a201fbe287825b095693c21775612e0b6134fd565b613505565b80600073ffffffffffffffffffffffffffffffffffffffff168173ffffffffffffffffffffffffffffffffffffffff161415612e81576040517f08c379a0000000000000000000000000000000000000000000000000000000008152600401612e7890614efb565b60405180910390fd5b8161010760006101000a81548173ffffffffffffffffffffffffffffffffffffffff021916908373ffffffffffffffffffffffffffffffffffffffff1602179055505050565b6101045481565b61010c60009054906101000a900473ffffffffffffffffffffffffffffffffffffffff1681565b61010760009054906101000a900473ffffffffffffffffffffffffffffffffffffffff1681565b612f4d7fa49807205ce4d355092ef5a8a18f56e8913cf4a201fbe287825b095693c21775612f486134fd565b613505565b84600073ffffffffffffffffffffffffffffffffffffffff168173ffffffffffffffffffffffffffffffffffffffff161415612fbe576040517f08c379a0000000000000000000000000000000000000000000000000000000008152600401612fb590614efb565b60405180910390fd5b84600073ffffffffffffffffffffffffffffffffffffffff168173ffffffffffffffffffffffffffffffffffffffff16141561302f576040517f08c379a000000000000000000000000000000000000000000000000000000000815260040161302690614efb565b60405180910390fd5b84600073ffffffffffffffffffffffffffffffffffffffff168173ffffffffffffffffffffffffffffffffffffffff1614156130a0576040517f08c379a000000000000000000000000000000000000000000000000000000000815260040161309790614efb565b60405180910390fd5b83600073ffffffffffffffffffffffffffffffffffffffff168173ffffffffffffffffffffffffffffffffffffffff161415613111576040517f08c379a000000000000000000000000000000000000000000000000000000000815260040161310890614efb565b60405180910390fd5b8861010a60006101000a81548173ffffffffffffffffffffffffffffffffffffffff021916908373ffffffffffffffffffffffffffffffffffffffff1602179055508761010b60006101000a81548173ffffffffffffffffffffffffffffffffffffffff021916908373ffffffffffffffffffffffffffffffffffffffff1602179055508661010c60006101000a81548173ffffffffffffffffffffffffffffffffffffffff021916908373ffffffffffffffffffffffffffffffffffffffff1602179055508561010d60006101000a81548173ffffffffffffffffffffffffffffffffffffffff021916908373ffffffffffffffffffffffffffffffffffffffff1602179055508461010e60006101000a81548173ffffffffffffffffffffffffffffffffffffffff021916908373ffffffffffffffffffffffffffffffffffffffff1602179055506132a87f97667070c54ef182b0f5858b034beac1b6f3089aa2d3188bb1e8929f4fa9b92961010a60009054906101000a900473ffffffffffffffffffffffffffffffffffffffff1661206f565b6132fa576132f97f97667070c54ef182b0f5858b034beac1b6f3089aa2d3188bb1e8929f4fa9b92961010a60009054906101000a900473ffffffffffffffffffffffffffffffffffffffff166116bd565b5b6133477f97667070c54ef182b0f5858b034beac1b6f3089aa2d3188bb1e8929f4fa9b92961010b60009054906101000a900473ffffffffffffffffffffffffffffffffffffffff1661206f565b613399576133987f97667070c54ef182b0f5858b034beac1b6f3089aa2d3188bb1e8929f4fa9b92961010b60009054906101000a900473ffffffffffffffffffffffffffffffffffffffff166116bd565b5b6133e67f97667070c54ef182b0f5858b034beac1b6f3089aa2d3188bb1e8929f4fa9b92961010e60009054906101000a900473ffffffffffffffffffffffffffffffffffffffff1661206f565b613438576134377f97667070c54ef182b0f5858b034beac1b6f3089aa2d3188bb1e8929f4fa9b92961010e60009054906101000a900473ffffffffffffffffffffffffffffffffffffffff166116bd565b5b505050505050505050565b7f97667070c54ef182b0f5858b034beac1b6f3089aa2d3188bb1e8929f4fa9b92981565b60007f01ffc9a7000000000000000000000000000000000000000000000000000000007bffffffffffffffffffffffffffffffffffffffffffffffffffffffff1916827bffffffffffffffffffffffffffffffffffffffffffffffffffffffff1916149050919050565b600081836134df91906151a6565b905092915050565b600081836134f591906150f6565b905092915050565b600033905090565b61350f828261206f565b61359e576135348173ffffffffffffffffffffffffffffffffffffffff166014613b02565b6135428360001c6020613b02565b604051602001613553929190614c91565b6040516020818303038152906040526040517f08c379a00000000000000000000000000000000000000000000000000000000081526004016135959190614db9565b60405180910390fd5b5050565b6135ac828261206f565b61367f57600160c9600084815260200190815260200160002060000160008373ffffffffffffffffffffffffffffffffffffffff1673ffffffffffffffffffffffffffffffffffffffff16815260200190815260200160002060006101000a81548160ff0219169083151502179055506136246134fd565b73ffffffffffffffffffffffffffffffffffffffff168173ffffffffffffffffffffffffffffffffffffffff16837f2f8788117e7eff1d82e926ec794901d17c78024a50270940304540a733656f0d60405160405180910390a45b5050565b61368d828261206f565b1561376157600060c9600084815260200190815260200160002060000160008373ffffffffffffffffffffffffffffffffffffffff1673ffffffffffffffffffffffffffffffffffffffff16815260200190815260200160002060006101000a81548160ff0219169083151502179055506137066134fd565b73ffffffffffffffffffffffffffffffffffffffff168173ffffffffffffffffffffffffffffffffffffffff16837ff6391f5c32d9c69d2a47ea670b442974b53935d1edc7fd64eb21e047a839171b60405160405180910390a45b5050565b6137967fa49807205ce4d355092ef5a8a18f56e8913cf4a201fbe287825b095693c217756137916134fd565b613505565b50565b60006137a3613dfc565b90506137ae84613e53565b6000835111806137bb5750815b156137cc576137ca8484613f0c565b505b60006137fa7f4910fdfa16fed3260ed0e7147f7cc6da11a60208b5b9406d12a635614ffd914360001b613ff0565b90508060000160009054906101000a900460ff166139a65760018160000160006101000a81548160ff0219169083151502179055506138c685836040516024016138449190614ccb565b6040516020818303038152906040527f3659cfe6000000000000000000000000000000000000000000000000000000007bffffffffffffffffffffffffffffffffffffffffffffffffffffffff19166020820180517bffffffffffffffffffffffffffffffffffffffffffffffffffffffff8381831617835250505050613f0c565b5060008160000160006101000a81548160ff0219169083151502179055506138ec613dfc565b73ffffffffffffffffffffffffffffffffffffffff168273ffffffffffffffffffffffffffffffffffffffff1614613959576040517f08c379a000000000000000000000000000000000000000000000000000000000815260040161395090614e1b565b60405180910390fd5b61396285613e53565b8473ffffffffffffffffffffffffffffffffffffffff167fbc7cd75a20ee27fd9adebab32041f755214dbc6bffa90cc0225b39da2e5c2d3b60405160405180910390a25b5050505050565b600060019054906101000a900460ff16806139d3575060008054906101000a900460ff16155b613a12576040517f08c379a0000000000000000000000000000000000000000000000000000000008152600401613a0990614e7b565b60405180910390fd5b60008060019054906101000a900460ff161590508015613a62576001600060016101000a81548160ff02191690831515021790555060016000806101000a81548160ff0219169083151502179055505b613a6a613ffa565b613a726140d3565b613a7a6141ac565b8015613a9b5760008060016101000a81548160ff0219169083151502179055505b50565b613aa882826135a2565b5050565b80613ab683611165565b837fbd79b86ffe0ab8e8776151514217cd7cacd52c909f66475c3af44e129f0b00ff60405160405180910390a48060c96000848152602001908152602001600020600101819055505050565b606060006002836002613b15919061514c565b613b1f91906150f6565b67ffffffffffffffff811115613b5e577f4e487b7100000000000000000000000000000000000000000000000000000000600052604160045260246000fd5b6040519080825280601f01601f191660200182016040528015613b905781602001600182028036833780820191505090505b5090507f300000000000000000000000000000000000000000000000000000000000000081600081518110613bee577f4e487b7100000000000000000000000000000000000000000000000000000000600052603260045260246000fd5b60200101907effffffffffffffffffffffffffffffffffffffffffffffffffffffffffffff1916908160001a9053507f780000000000000000000000000000000000000000000000000000000000000081600181518110613c78577f4e487b7100000000000000000000000000000000000000000000000000000000600052603260045260246000fd5b60200101907effffffffffffffffffffffffffffffffffffffffffffffffffffffffffffff1916908160001a90535060006001846002613cb8919061514c565b613cc291906150f6565b90505b6001811115613dae577f3031323334353637383961626364656600000000000000000000000000000000600f861660108110613d2a577f4e487b7100000000000000000000000000000000000000000000000000000000600052603260045260246000fd5b1a60f81b828281518110613d67577f4e487b7100000000000000000000000000000000000000000000000000000000600052603260045260246000fd5b60200101907effffffffffffffffffffffffffffffffffffffffffffffffffffffffffffff1916908160001a905350600485901c945080613da7906152ac565b9050613cc5565b5060008414613df2576040517f08c379a0000000000000000000000000000000000000000000000000000000008152600401613de990614ddb565b60405180910390fd5b8091505092915050565b6000613e2a7f360894a13ba1a3210667c828492db98dca3e2076cc3735a920a3ca505d382bbc60001b614285565b60000160009054906101000a900473ffffffffffffffffffffffffffffffffffffffff16905090565b613e5c8161428f565b613e9b576040517f08c379a0000000000000000000000000000000000000000000000000000000008152600401613e9290614ebb565b60405180910390fd5b80613ec87f360894a13ba1a3210667c828492db98dca3e2076cc3735a920a3ca505d382bbc60001b614285565b60000160006101000a81548173ffffffffffffffffffffffffffffffffffffffff021916908373ffffffffffffffffffffffffffffffffffffffff16021790555050565b6060613f178361428f565b613f56576040517f08c379a0000000000000000000000000000000000000000000000000000000008152600401613f4d90614edb565b60405180910390fd5b6000808473ffffffffffffffffffffffffffffffffffffffff1684604051613f7e9190614c7a565b600060405180830381855af49150503d8060008114613fb9576040519150601f19603f3d011682016040523d82523d6000602084013e613fbe565b606091505b5091509150613fe6828260405180606001604052806027815260200161572f602791396142a2565b9250505092915050565b6000819050919050565b600060019054906101000a900460ff1680614020575060008054906101000a900460ff16155b61405f576040517f08c379a000000000000000000000000000000000000000000000000000000000815260040161405690614e7b565b60405180910390fd5b60008060019054906101000a900460ff1615905080156140af576001600060016101000a81548160ff02191690831515021790555060016000806101000a81548160ff0219169083151502179055505b80156140d05760008060016101000a81548160ff0219169083151502179055505b50565b600060019054906101000a900460ff16806140f9575060008054906101000a900460ff16155b614138576040517f08c379a000000000000000000000000000000000000000000000000000000000815260040161412f90614e7b565b60405180910390fd5b60008060019054906101000a900460ff161590508015614188576001600060016101000a81548160ff02191690831515021790555060016000806101000a81548160ff0219169083151502179055505b80156141a95760008060016101000a81548160ff0219169083151502179055505b50565b600060019054906101000a900460ff16806141d2575060008054906101000a900460ff16155b614211576040517f08c379a000000000000000000000000000000000000000000000000000000000815260040161420890614e7b565b60405180910390fd5b60008060019054906101000a900460ff161590508015614261576001600060016101000a81548160ff02191690831515021790555060016000806101000a81548160ff0219169083151502179055505b80156142825760008060016101000a81548160ff0219169083151502179055505b50565b6000819050919050565b600080823b905060008111915050919050565b606083156142b257829050614302565b6000835111156142c55782518084602001fd5b816040517f08c379a00000000000000000000000000000000000000000000000000000000081526004016142f99190614db9565b60405180910390fd5b9392505050565b60405180606001604052806000815260200160008152602001600081525090565b600061433d61433884615016565b614ff1565b90508281526020810184848401111561435557600080fd5b61436084828561526a565b509392505050565b600081359050614377816156bb565b92915050565b60008135905061438c816156d2565b92915050565b6000813590506143a1816156e9565b92915050565b6000813590506143b681615700565b92915050565b600082601f8301126143cd57600080fd5b81356143dd84826020860161432a565b91505092915050565b6000813590506143f581615717565b92915050565b60008151905061440a81615717565b92915050565b60006020828403121561442257600080fd5b600061443084828501614368565b91505092915050565b6000806040838503121561444c57600080fd5b600061445a85828601614368565b925050602061446b85828601614368565b9150509250929050565b60008060006060848603121561448a57600080fd5b600061449886828701614368565b93505060206144a986828701614368565b92505060406144ba86828701614368565b9150509250925092565b600080600080600060a086880312156144dc57600080fd5b60006144ea88828901614368565b95505060206144fb88828901614368565b945050604061450c88828901614368565b935050606061451d88828901614368565b925050608061452e88828901614368565b9150509295509295909350565b60008060006060848603121561455057600080fd5b600061455e86828701614368565b935050602061456f86828701614368565b9250506040614580868287016143e6565b9150509250925092565b6000806040838503121561459d57600080fd5b60006145ab85828601614368565b925050602083013567ffffffffffffffff8111156145c857600080fd5b6145d4858286016143bc565b9150509250929050565b600080600080600060a086880312156145f657600080fd5b600061460488828901614368565b9550506020614615888289016143e6565b945050604061462688828901614368565b935050606061463788828901614368565b92505060806146488882890161437d565b9150509295509295909350565b6000806000806080858703121561466b57600080fd5b600061467987828801614368565b945050602061468a878288016143e6565b935050604061469b87828801614368565b92505060606146ac8782880161437d565b91505092959194509250565b600080600080608085870312156146ce57600080fd5b60006146dc87828801614368565b94505060206146ed878288016143e6565b93505060406146fe878288016143e6565b925050606061470f878288016143e6565b91505092959194509250565b60006020828403121561472d57600080fd5b600061473b84828501614392565b91505092915050565b6000806040838503121561475757600080fd5b600061476585828601614392565b925050602061477685828601614368565b9150509250929050565b60006020828403121561479257600080fd5b60006147a0848285016143a7565b91505092915050565b6000602082840312156147bb57600080fd5b60006147c9848285016143e6565b91505092915050565b6000602082840312156147e457600080fd5b60006147f2848285016143fb565b91505092915050565b6000806000806080858703121561481157600080fd5b600061481f878288016143e6565b9450506020614830878288016143e6565b9350506040614841878288016143e6565b9250506060614852878288016143e6565b91505092959194509250565b600061486a838361489d565b60208301905092915050565b60006148828383614c5c565b60208301905092915050565b614897816151ec565b82525050565b6148a6816151da565b82525050565b6148b5816151da565b82525050565b60006148c682615067565b6148d081856150ad565b93506148db83615047565b8060005b8381101561490c5781516148f3888261485e565b97506148fe83615093565b9250506001810190506148df565b5085935050505092915050565b600061492482615072565b61492e81856150be565b935061493983615057565b8060005b8381101561496a5781516149518882614876565b975061495c836150a0565b92505060018101905061493d565b5085935050505092915050565b614980816151fe565b82525050565b61498f8161520a565b82525050565b60006149a08261507d565b6149aa81856150cf565b93506149ba818560208601615279565b80840191505092915050565b60006149d182615088565b6149db81856150da565b93506149eb818560208601615279565b6149f4816153ae565b840191505092915050565b6000614a0a82615088565b614a1481856150eb565b9350614a24818560208601615279565b80840191505092915050565b6000614a3d6020836150da565b9150614a48826153bf565b602082019050919050565b6000614a606002836150da565b9150614a6b826153e8565b602082019050919050565b6000614a83602f836150da565b9150614a8e82615411565b604082019050919050565b6000614aa66002836150da565b9150614ab182615460565b602082019050919050565b6000614ac96002836150da565b9150614ad482615489565b602082019050919050565b6000614aec602e836150da565b9150614af7826154b2565b604082019050919050565b6000614b0f6013836150da565b9150614b1a82615501565b602082019050919050565b6000614b32602d836150da565b9150614b3d8261552a565b604082019050919050565b6000614b556026836150da565b9150614b6082615579565b604082019050919050565b6000614b78600f836150da565b9150614b83826155c8565b602082019050919050565b6000614b9b6017836150eb565b9150614ba6826155f1565b601782019050919050565b6000614bbe6013836150da565b9150614bc98261561a565b602082019050919050565b6000614be16011836150eb565b9150614bec82615643565b601182019050919050565b6000614c04602f836150da565b9150614c0f8261566c565b604082019050919050565b606082016000820151614c306000850182614c5c565b506020820151614c436020850182614c5c565b506040820151614c566040850182614c5c565b50505050565b614c6581615260565b82525050565b614c7481615260565b82525050565b6000614c868284614995565b915081905092915050565b6000614c9c82614b8e565b9150614ca882856149ff565b9150614cb382614bd4565b9150614cbf82846149ff565b91508190509392505050565b6000602082019050614ce060008301846148ac565b92915050565b6000602082019050614cfb600083018461488e565b92915050565b6000604082019050614d1660008301856148ac565b614d2360208301846148ac565b9392505050565b60006020820190508181036000830152614d4481846148bb565b905092915050565b60006040820190508181036000830152614d6681856148bb565b90508181036020830152614d7a8184614919565b90509392505050565b6000602082019050614d986000830184614977565b92915050565b6000602082019050614db36000830184614986565b92915050565b60006020820190508181036000830152614dd381846149c6565b905092915050565b60006020820190508181036000830152614df481614a30565b9050919050565b60006020820190508181036000830152614e1481614a53565b9050919050565b60006020820190508181036000830152614e3481614a76565b9050919050565b60006020820190508181036000830152614e5481614a99565b9050919050565b60006020820190508181036000830152614e7481614abc565b9050919050565b60006020820190508181036000830152614e9481614adf565b9050919050565b60006020820190508181036000830152614eb481614b02565b9050919050565b60006020820190508181036000830152614ed481614b25565b9050919050565b60006020820190508181036000830152614ef481614b48565b9050919050565b60006020820190508181036000830152614f1481614b6b565b9050919050565b60006020820190508181036000830152614f3481614bb1565b9050919050565b60006020820190508181036000830152614f5481614bf7565b9050919050565b6000606082019050614f706000830184614c1a565b92915050565b6000602082019050614f8b6000830184614c6b565b92915050565b6000604082019050614fa66000830185614c6b565b614fb36020830184614c6b565b9392505050565b6000606082019050614fcf6000830186614c6b565b614fdc6020830185614c6b565b614fe96040830184614c6b565b949350505050565b6000614ffb61500c565b905061500782826152d6565b919050565b6000604051905090565b600067ffffffffffffffff8211156150315761503061537f565b5b61503a826153ae565b9050602081019050919050565b6000819050602082019050919050565b6000819050602082019050919050565b600081519050919050565b600081519050919050565b600081519050919050565b600081519050919050565b6000602082019050919050565b6000602082019050919050565b600082825260208201905092915050565b600082825260208201905092915050565b600081905092915050565b600082825260208201905092915050565b600081905092915050565b600061510182615260565b915061510c83615260565b9250827fffffffffffffffffffffffffffffffffffffffffffffffffffffffffffffffff0382111561514157615140615350565b5b828201905092915050565b600061515782615260565b915061516283615260565b9250817fffffffffffffffffffffffffffffffffffffffffffffffffffffffffffffffff048311821515161561519b5761519a615350565b5b828202905092915050565b60006151b182615260565b91506151bc83615260565b9250828210156151cf576151ce615350565b5b828203905092915050565b60006151e582615240565b9050919050565b60006151f782615240565b9050919050565b60008115159050919050565b6000819050919050565b60007fffffffff0000000000000000000000000000000000000000000000000000000082169050919050565b600073ffffffffffffffffffffffffffffffffffffffff82169050919050565b6000819050919050565b82818337600083830152505050565b60005b8381101561529757808201518184015260208101905061527c565b838111156152a6576000848401525b50505050565b60006152b782615260565b915060008214156152cb576152ca615350565b5b600182039050919050565b6152df826153ae565b810181811067ffffffffffffffff821117156152fe576152fd61537f565b5b80604052505050565b600061531282615260565b91507fffffffffffffffffffffffffffffffffffffffffffffffffffffffffffffffff82141561534557615344615350565b5b600182019050919050565b7f4e487b7100000000000000000000000000000000000000000000000000000000600052601160045260246000fd5b7f4e487b7100000000000000000000000000000000000000000000000000000000600052604160045260246000fd5b6000601f19601f8301169050919050565b7f537472696e67733a20686578206c656e67746820696e73756666696369656e74600082015250565b7f4e4f000000000000000000000000000000000000000000000000000000000000600082015250565b7f45524331393637557067726164653a207570677261646520627265616b73206660008201527f7572746865722075706772616465730000000000000000000000000000000000602082015250565b7f495a000000000000000000000000000000000000000000000000000000000000600082015250565b7f4946000000000000000000000000000000000000000000000000000000000000600082015250565b7f496e697469616c697a61626c653a20636f6e747261637420697320616c72656160008201527f647920696e697469616c697a6564000000000000000000000000000000000000602082015250565b7f4e6f206f7261636c6520666f7220746f6b656e00000000000000000000000000600082015250565b7f455243313936373a206e657720696d706c656d656e746174696f6e206973206e60008201527f6f74206120636f6e747261637400000000000000000000000000000000000000602082015250565b7f416464726573733a2064656c65676174652063616c6c20746f206e6f6e2d636f60008201527f6e74726163740000000000000000000000000000000000000000000000000000602082015250565b7f496e76616c696420416464726573730000000000000000000000000000000000600082015250565b7f416363657373436f6e74726f6c3a206163636f756e7420000000000000000000600082015250565b7f546f6b656e207072696365206973207a65726f00000000000000000000000000600082015250565b7f206973206d697373696e6720726f6c6520000000000000000000000000000000600082015250565b7f416363657373436f6e74726f6c3a2063616e206f6e6c792072656e6f756e636560008201527f20726f6c657320666f722073656c660000000000000000000000000000000000602082015250565b6156c4816151da565b81146156cf57600080fd5b50565b6156db816151fe565b81146156e657600080fd5b50565b6156f28161520a565b81146156fd57600080fd5b50565b61570981615214565b811461571457600080fd5b50565b61572081615260565b811461572b57600080fd5b5056fe416464726573733a206c6f772d6c6576656c2064656c65676174652063616c6c206661696c6564a2646970667358221220e4d3769926f3d18c9554b61db7860e7ad0e3177a011a0d71c61434a109fab3ab64736f6c63430008030033",
  "linkReferences": {},
  "deployedLinkReferences": {}
}