{
  "_format": "hh-sol-artifact-1",
  "contractName": "Liquidator",
  "sourceName": "contracts/Bank/Liquidator.sol",
  "abi": [
    {
      "anonymous": false,
      "inputs": [
        {
          "indexed": false,
          "internalType": "address",
          "name": "previousAdmin",
          "type": "address"
        },
        {
          "indexed": false,
          "internalType": "address",
          "name": "newAdmin",
          "type": "address"
        }
      ],
      "name": "AdminChanged",
      "type": "event"
    },
    {
      "anonymous": false,
      "inputs": [
        {
          "indexed": true,
          "internalType": "address",
          "name": "beacon",
          "type": "address"
        }
      ],
      "name": "BeaconUpgraded",
      "type": "event"
    },
    {
      "anonymous": false,
      "inputs": [
        {
          "indexed": false,
          "internalType": "address",
          "name": "from",
          "type": "address"
        },
        {
          "indexed": false,
          "internalType": "address",
          "name": "token",
          "type": "address"
        },
        {
          "indexed": false,
          "internalType": "uint256",
          "name": "tokenAmount",
          "type": "uint256"
        },
        {
          "indexed": false,
          "internalType": "uint256[]",
          "name": "collateralAmounts",
          "type": "uint256[]"
        },
        {
          "indexed": false,
          "internalType": "address[]",
          "name": "collateralTypes",
          "type": "address[]"
        }
      ],
      "name": "Liquidate",
      "type": "event"
    },
    {
      "anonymous": false,
      "inputs": [
        {
          "indexed": true,
          "internalType": "address",
          "name": "previousOwner",
          "type": "address"
        },
        {
          "indexed": true,
          "internalType": "address",
          "name": "newOwner",
          "type": "address"
        }
      ],
      "name": "OwnershipTransferred",
      "type": "event"
    },
    {
      "anonymous": false,
      "inputs": [
        {
          "indexed": false,
          "internalType": "address",
          "name": "from",
          "type": "address"
        },
        {
          "indexed": false,
          "internalType": "address",
          "name": "token",
          "type": "address"
        },
        {
          "indexed": false,
          "internalType": "uint256",
          "name": "tokenAmount",
          "type": "uint256"
        },
        {
          "indexed": false,
          "internalType": "uint256[]",
          "name": "collateralAmounts",
          "type": "uint256[]"
        },
        {
          "indexed": false,
          "internalType": "address[]",
          "name": "collateralTypes",
          "type": "address[]"
        }
      ],
      "name": "Redeem",
      "type": "event"
    },
    {
      "anonymous": false,
      "inputs": [
        {
          "indexed": true,
          "internalType": "address",
          "name": "implementation",
          "type": "address"
        }
      ],
      "name": "Upgraded",
      "type": "event"
    },
    {
      "inputs": [
        {
          "internalType": "uint256",
          "name": "amount",
          "type": "uint256"
        },
        {
          "internalType": "address",
          "name": "token",
          "type": "address"
        },
        {
          "internalType": "address",
          "name": "from",
          "type": "address"
        },
        {
          "internalType": "uint256",
          "name": "deadline",
          "type": "uint256"
        },
        {
          "internalType": "address",
          "name": "referral",
          "type": "address"
        }
      ],
      "name": "buyCollateral",
      "outputs": [
        {
          "internalType": "uint256[]",
          "name": "collateralAmounts",
          "type": "uint256[]"
        },
        {
          "internalType": "address[]",
          "name": "collateralTypes",
          "type": "address[]"
        },
        {
          "internalType": "uint256",
          "name": "etherAmount",
          "type": "uint256"
        }
      ],
      "stateMutability": "nonpayable",
      "type": "function"
    },
    {
      "inputs": [
        {
          "internalType": "uint256",
          "name": "amount",
          "type": "uint256"
        },
        {
          "internalType": "address",
          "name": "token",
          "type": "address"
        },
        {
          "internalType": "address[]",
          "name": "from",
          "type": "address[]"
        },
        {
          "internalType": "uint256",
          "name": "deadline",
          "type": "uint256"
        },
        {
          "internalType": "address",
          "name": "referral",
          "type": "address"
        }
      ],
      "name": "buyCollateralFromManyVaults",
      "outputs": [
        {
          "internalType": "uint256[]",
          "name": "collateralAmounts",
          "type": "uint256[]"
        },
        {
          "internalType": "address[]",
          "name": "collateralTypes",
          "type": "address[]"
        },
        {
          "internalType": "uint256",
          "name": "etherAmount",
          "type": "uint256"
        }
      ],
      "stateMutability": "nonpayable",
      "type": "function"
    },
    {
      "inputs": [],
      "name": "crScalar",
      "outputs": [
        {
          "internalType": "uint256",
          "name": "",
          "type": "uint256"
        }
      ],
      "stateMutability": "view",
      "type": "function"
    },
    {
      "inputs": [
        {
          "internalType": "address",
          "name": "token",
          "type": "address"
        },
        {
          "internalType": "address",
          "name": "from",
          "type": "address"
        }
      ],
      "name": "getAllowedBuyCollateralFromTokenAmount",
      "outputs": [
        {
          "internalType": "uint256",
          "name": "allowedAmount",
          "type": "uint256"
        },
        {
          "internalType": "bool",
          "name": "isLiquidation",
          "type": "bool"
        }
      ],
      "stateMutability": "view",
      "type": "function"
    },
    {
      "inputs": [
        {
          "internalType": "address",
          "name": "account",
          "type": "address"
        },
        {
          "internalType": "address",
          "name": "fxToken",
          "type": "address"
        }
      ],
      "name": "getLiquidationRatio",
      "outputs": [
        {
          "internalType": "uint256",
          "name": "ratio",
          "type": "uint256"
        }
      ],
      "stateMutability": "view",
      "type": "function"
    },
    {
      "inputs": [],
      "name": "handleAddress",
      "outputs": [
        {
          "internalType": "address",
          "name": "",
          "type": "address"
        }
      ],
      "stateMutability": "view",
      "type": "function"
    },
    {
      "inputs": [],
      "name": "initialize",
      "outputs": [],
      "stateMutability": "nonpayable",
      "type": "function"
    },
    {
      "inputs": [],
      "name": "keeperPoolThreshold",
      "outputs": [
        {
          "internalType": "uint256",
          "name": "",
          "type": "uint256"
        }
      ],
      "stateMutability": "view",
      "type": "function"
    },
    {
      "inputs": [
        {
          "internalType": "address",
          "name": "account",
          "type": "address"
        },
        {
          "internalType": "address",
          "name": "fxToken",
          "type": "address"
        }
      ],
      "name": "liquidate",
      "outputs": [
        {
          "internalType": "uint256",
          "name": "fxAmount",
          "type": "uint256"
        },
        {
          "internalType": "address[]",
          "name": "collateralTypes",
          "type": "address[]"
        },
        {
          "internalType": "uint256[]",
          "name": "collateralAmounts",
          "type": "uint256[]"
        }
      ],
      "stateMutability": "nonpayable",
      "type": "function"
    },
    {
      "inputs": [],
      "name": "owner",
      "outputs": [
        {
          "internalType": "address",
          "name": "",
          "type": "address"
        }
      ],
      "stateMutability": "view",
      "type": "function"
    },
    {
      "inputs": [],
      "name": "protocolRedemptionFeeRatio",
      "outputs": [
        {
          "internalType": "uint256",
          "name": "",
          "type": "uint256"
        }
      ],
      "stateMutability": "view",
      "type": "function"
    },
    {
      "inputs": [],
      "name": "redemptionFeeRatio",
      "outputs": [
        {
          "internalType": "uint256",
          "name": "",
          "type": "uint256"
        }
      ],
      "stateMutability": "view",
      "type": "function"
    },
    {
      "inputs": [],
      "name": "renounceOwnership",
      "outputs": [],
      "stateMutability": "nonpayable",
      "type": "function"
    },
    {
      "inputs": [
        {
          "internalType": "uint256",
          "name": "value",
          "type": "uint256"
        }
      ],
      "name": "setCrScalar",
      "outputs": [],
      "stateMutability": "nonpayable",
      "type": "function"
    },
    {
      "inputs": [
        {
          "internalType": "address",
          "name": "_handle",
          "type": "address"
        }
      ],
      "name": "setHandleContract",
      "outputs": [],
      "stateMutability": "nonpayable",
      "type": "function"
    },
    {
      "inputs": [
        {
          "internalType": "uint256",
          "name": "amount",
          "type": "uint256"
        }
      ],
      "name": "setKeeperPoolThreshold",
      "outputs": [],
      "stateMutability": "nonpayable",
      "type": "function"
    },
    {
      "inputs": [
        {
          "internalType": "uint256",
          "name": "ratio",
          "type": "uint256"
        }
      ],
      "name": "setProtocolRedemptionFeeRatio",
      "outputs": [],
      "stateMutability": "nonpayable",
      "type": "function"
    },
    {
      "inputs": [
        {
          "internalType": "uint256",
          "name": "ratio",
          "type": "uint256"
        }
      ],
      "name": "setRedemptionFeeRatio",
      "outputs": [],
      "stateMutability": "nonpayable",
      "type": "function"
    },
    {
      "inputs": [
        {
          "internalType": "uint256",
          "name": "crTarget",
          "type": "uint256"
        },
        {
          "internalType": "uint256",
          "name": "debt",
          "type": "uint256"
        },
        {
          "internalType": "uint256",
          "name": "collateral",
          "type": "uint256"
        },
        {
          "internalType": "uint256",
          "name": "returnRatio",
          "type": "uint256"
        }
      ],
      "name": "tokensRequiredForCrIncrease",
      "outputs": [
        {
          "internalType": "uint256",
          "name": "amount",
          "type": "uint256"
        }
      ],
      "stateMutability": "pure",
      "type": "function"
    },
    {
      "inputs": [
        {
          "internalType": "address",
          "name": "newOwner",
          "type": "address"
        }
      ],
      "name": "transferOwnership",
      "outputs": [],
      "stateMutability": "nonpayable",
      "type": "function"
    },
    {
      "inputs": [
        {
          "internalType": "address",
          "name": "newImplementation",
          "type": "address"
        }
      ],
      "name": "upgradeTo",
      "outputs": [],
      "stateMutability": "nonpayable",
      "type": "function"
    },
    {
      "inputs": [
        {
          "internalType": "address",
          "name": "newImplementation",
          "type": "address"
        },
        {
          "internalType": "bytes",
          "name": "data",
          "type": "bytes"
        }
      ],
      "name": "upgradeToAndCall",
      "outputs": [],
      "stateMutability": "payable",
      "type": "function"
    }
  ],
  "bytecode": "0x608060405234801561001057600080fd5b50615fab80620000216000396000f3fe6080604052600436106101355760003560e01c80638150c6f4116100ab578063bc8f795f1161006f578063bc8f795f146103f8578063c4b672ff14610421578063c960bf9b1461044a578063db17174e14610489578063eb9cd9d0146104c6578063f2fde38b146104f157610135565b80638150c6f414610311578063853993901461033c57806386b9d81f146103655780638da5cb5b146103a45780639b1c414f146103cf57610135565b80633a037336116100fd5780633a037336146102215780634f1ef2861461025f578063715018a61461027b57806374bf578b146102925780637630a69c146102bd5780638129fc1c146102fa57610135565b806317d9eca21461013a5780631a8ce042146101655780633288e015146101a45780633659cfe6146101cd578063368a80bd146101f6575b600080fd5b34801561014657600080fd5b5061014f61051a565b60405161015c9190615688565b60405180910390f35b34801561017157600080fd5b5061018c60048036038101906101879190614c5a565b610520565b60405161019b939291906153e1565b60405180910390f35b3480156101b057600080fd5b506101cb60048036038101906101c69190614c08565b6107d4565b005b3480156101d957600080fd5b506101f460048036038101906101ef91906149a8565b6108a6565b005b34801561020257600080fd5b5061020b6108cd565b6040516102189190615688565b60405180910390f35b34801561022d57600080fd5b5061024860048036038101906102439190614a23565b6108d4565b6040516102569291906156e8565b60405180910390f35b61027960048036038101906102749190614a5f565b610da6565b005b34801561028757600080fd5b50610290610dbf565b005b34801561029e57600080fd5b506102a7610efc565b6040516102b491906151f1565b60405180910390f35b3480156102c957600080fd5b506102e460048036038101906102df9190614a23565b610f26565b6040516102f19190615688565b60405180910390f35b34801561030657600080fd5b5061030f611043565b005b34801561031d57600080fd5b50610326611134565b6040516103339190615688565b60405180910390f35b34801561034857600080fd5b50610363600480360381019061035e9190614c08565b61113b565b005b34801561037157600080fd5b5061038c60048036038101906103879190614a23565b6111c1565b60405161039b939291906156a3565b60405180910390f35b3480156103b057600080fd5b506103b961161f565b6040516103c691906151f1565b60405180910390f35b3480156103db57600080fd5b506103f660048036038101906103f191906149a8565b611649565b005b34801561040457600080fd5b5061041f600480360381019061041a9190614c08565b6118c9565b005b34801561042d57600080fd5b5061044860048036038101906104439190614c08565b61194f565b005b34801561045657600080fd5b50610471600480360381019061046c9190614cd1565b611a21565b604051610480939291906153e1565b60405180910390f35b34801561049557600080fd5b506104b060048036038101906104ab9190614d60565b6125ee565b6040516104bd9190615688565b60405180910390f35b3480156104d257600080fd5b506104db612737565b6040516104e89190615688565b60405180910390f35b3480156104fd57600080fd5b50610518600480360381019061051391906149a8565b61273d565b005b60fe5481565b60608060008480421115610569576040517f08c379a0000000000000000000000000000000000000000000000000000000008152600401610560906154a8565b60405180910390fd5b8760fb60009054906101000a900473ffffffffffffffffffffffffffffffffffffffff1673ffffffffffffffffffffffffffffffffffffffff1663a0f026ff826040518263ffffffff1660e01b81526004016105c591906151f1565b60206040518083038186803b1580156105dd57600080fd5b505afa1580156105f1573d6000803e3d6000fd5b505050506040513d601f19601f820116820180604052508101906106159190614bdf565b610654576040517f08c379a000000000000000000000000000000000000000000000000000000000815260040161064b90615508565b60405180910390fd5b600260c954141561069a576040517f08c379a000000000000000000000000000000000000000000000000000000000815260040161069190615668565b60405180910390fd5b600260c98190555060fb60009054906101000a900473ffffffffffffffffffffffffffffffffffffffff1673ffffffffffffffffffffffffffffffffffffffff16631441a5a96040518163ffffffff1660e01b815260040160206040518083038186803b15801561070a57600080fd5b505afa15801561071e573d6000803e3d6000fd5b505050506040513d601f19601f8201168201806040525081019061074291906149d1565b73ffffffffffffffffffffffffffffffffffffffff16637543e3f033886040518363ffffffff1660e01b815260040161077c92919061520c565b600060405180830381600087803b15801561079657600080fd5b505af11580156107aa573d6000803e3d6000fd5b505050506107b98a8a8a6128e9565b945094509450600160c9819055505050955095509592505050565b6107dc61334d565b73ffffffffffffffffffffffffffffffffffffffff166107fa61161f565b73ffffffffffffffffffffffffffffffffffffffff1614610850576040517f08c379a0000000000000000000000000000000000000000000000000000000008152600401610847906155c8565b60405180910390fd5b670de0b6b3a764000081111561089b576040517f08c379a000000000000000000000000000000000000000000000000000000000815260040161089290615648565b60405180910390fd5b806101008190555050565b6108af81613355565b6108ca816040518060200160405280600081525060006133d4565b50565b6101015481565b600080600060fd60009054906101000a900473ffffffffffffffffffffffffffffffffffffffff1673ffffffffffffffffffffffffffffffffffffffff1663bcbe3f2285876040518363ffffffff1660e01b815260040161093692919061520c565b60206040518083038186803b15801561094e57600080fd5b505afa158015610962573d6000803e3d6000fd5b505050506040513d601f19601f820116820180604052508101906109869190614c31565b9050600060fd60009054906101000a900473ffffffffffffffffffffffffffffffffffffffff1673ffffffffffffffffffffffffffffffffffffffff1663db3fabeb86886040518363ffffffff1660e01b81526004016109e792919061520c565b60206040518083038186803b1580156109ff57600080fd5b505afa158015610a13573d6000803e3d6000fd5b505050506040513d601f19601f82011682018060405250810190610a379190614c31565b9050600060fd60009054906101000a900473ffffffffffffffffffffffffffffffffffffffff1673ffffffffffffffffffffffffffffffffffffffff16634c90f22987896040518363ffffffff1660e01b8152600401610a9892919061520c565b60206040518083038186803b158015610ab057600080fd5b505afa158015610ac4573d6000803e3d6000fd5b505050506040513d601f19601f82011682018060405250810190610ae89190614c31565b90506000610b1983610b0b670de0b6b3a7640000856135e890919063ffffffff16565b6135fe90919063ffffffff16565b9050838110610b5d576040517f08c379a0000000000000000000000000000000000000000000000000000000008152600401610b5490615528565b60405180910390fd5b6000670de0b6b3a76400009050610b74888a610f26565b82111595508515610cad57610bba6064610bac610b9d606460fe5461361490919063ffffffff16565b886135e890919063ffffffff16565b6135fe90919063ffffffff16565b9450600060fd60009054906101000a900473ffffffffffffffffffffffffffffffffffffffff1673ffffffffffffffffffffffffffffffffffffffff166364d321b78a8c6040518363ffffffff1660e01b8152600401610c1b92919061520c565b60206040518083038186803b158015610c3357600080fd5b505afa158015610c47573d6000803e3d6000fd5b505050506040513d601f19601f82011682018060405250810190610c6b9190614c31565b9050610c88670de0b6b3a76400008461362a90919063ffffffff16565b811115610c955782610ca9565b610ca8818361361490919063ffffffff16565b5b9150505b610cb9858585846125ee565b9650600060fb60009054906101000a900473ffffffffffffffffffffffffffffffffffffffff1673ffffffffffffffffffffffffffffffffffffffff1663d02641a08b6040518263ffffffff1660e01b8152600401610d1891906151f1565b60206040518083038186803b158015610d3057600080fd5b505afa158015610d44573d6000803e3d6000fd5b505050506040513d601f19601f82011682018060405250810190610d689190614c31565b9050610d9781610d89670de0b6b3a76400008b6135e890919063ffffffff16565b6135fe90919063ffffffff16565b97505050505050509250929050565b610daf82613355565b610dbb828260016133d4565b5050565b610dc761334d565b73ffffffffffffffffffffffffffffffffffffffff16610de561161f565b73ffffffffffffffffffffffffffffffffffffffff1614610e3b576040517f08c379a0000000000000000000000000000000000000000000000000000000008152600401610e32906155c8565b60405180910390fd5b600073ffffffffffffffffffffffffffffffffffffffff16609760009054906101000a900473ffffffffffffffffffffffffffffffffffffffff1673ffffffffffffffffffffffffffffffffffffffff167f8be0079c531659141344cd1fd0a4f28419497f9722a3daafe3b4186f6b6457e060405160405180910390a36000609760006101000a81548173ffffffffffffffffffffffffffffffffffffffff021916908373ffffffffffffffffffffffffffffffffffffffff160217905550565b600060fb60009054906101000a900473ffffffffffffffffffffffffffffffffffffffff16905090565b6000610ffb6064610fed605060fd60009054906101000a900473ffffffffffffffffffffffffffffffffffffffff1673ffffffffffffffffffffffffffffffffffffffff1663bcbe3f2288886040518363ffffffff1660e01b8152600401610f8f92919061520c565b60206040518083038186803b158015610fa757600080fd5b505afa158015610fbb573d6000803e3d6000fd5b505050506040513d601f19601f82011682018060405250810190610fdf9190614c31565b6135e890919063ffffffff16565b6135fe90919063ffffffff16565b9050600061102e6064611020606e670de0b6b3a76400006135e890919063ffffffff16565b6135fe90919063ffffffff16565b90508082101561103c578091505b5092915050565b600060019054906101000a900460ff1680611069575060008054906101000a900460ff16155b6110a8576040517f08c379a000000000000000000000000000000000000000000000000000000000815260040161109f90615548565b60405180910390fd5b60008060019054906101000a900460ff1615905080156110f8576001600060016101000a81548160ff02191690831515021790555060016000806101000a81548160ff0219169083151502179055505b611100613640565b611108613729565b611110613812565b80156111315760008060016101000a81548160ff0219169083151502179055505b50565b6101005481565b61114361334d565b73ffffffffffffffffffffffffffffffffffffffff1661116161161f565b73ffffffffffffffffffffffffffffffffffffffff16146111b7576040517f08c379a00000000000000000000000000000000000000000000000000000000081526004016111ae906155c8565b60405180910390fd5b8060ff8190555050565b60006060808360fb60009054906101000a900473ffffffffffffffffffffffffffffffffffffffff1673ffffffffffffffffffffffffffffffffffffffff1663a0f026ff826040518263ffffffff1660e01b815260040161122291906151f1565b60206040518083038186803b15801561123a57600080fd5b505afa15801561124e573d6000803e3d6000fd5b505050506040513d601f19601f820116820180604052508101906112729190614bdf565b6112b1576040517f08c379a00000000000000000000000000000000000000000000000000000000081526004016112a890615508565b60405180910390fd5b600260c95414156112f7576040517f08c379a00000000000000000000000000000000000000000000000000000000081526004016112ee90615668565b60405180910390fd5b600260c981905550600060fb60009054906101000a900473ffffffffffffffffffffffffffffffffffffffff1673ffffffffffffffffffffffffffffffffffffffff1663d02641a0876040518263ffffffff1660e01b815260040161135c91906151f1565b60206040518083038186803b15801561137457600080fd5b505afa158015611388573d6000803e3d6000fd5b505050506040513d601f19601f820116820180604052508101906113ac9190614c31565b90506113b886826138f3565b600060fd60009054906101000a900473ffffffffffffffffffffffffffffffffffffffff1673ffffffffffffffffffffffffffffffffffffffff1663db3fabeb89896040518363ffffffff1660e01b815260040161141792919061520c565b60206040518083038186803b15801561142f57600080fd5b505afa158015611443573d6000803e3d6000fd5b505050506040513d601f19601f820116820180604052508101906114679190614c31565b9050600060fd60009054906101000a900473ffffffffffffffffffffffffffffffffffffffff1673ffffffffffffffffffffffffffffffffffffffff16634c90f2298a8a6040518363ffffffff1660e01b81526004016114c892919061520c565b60206040518083038186803b1580156114e057600080fd5b505afa1580156114f4573d6000803e3d6000fd5b505050506040513d601f19601f820116820180604052508101906115189190614c31565b905061152689898484613ad6565b600060fd60009054906101000a900473ffffffffffffffffffffffffffffffffffffffff1673ffffffffffffffffffffffffffffffffffffffff166364d321b78b8b6040518363ffffffff1660e01b815260040161158592919061520c565b60206040518083038186803b15801561159d57600080fd5b505afa1580156115b1573d6000803e3d6000fd5b505050506040513d601f19601f820116820180604052508101906115d59190614c31565b90506115e58a8a85858589613b6e565b97506115f38a8a8a87613ddc565b80975081985050506116098a8a83878c8c613e64565b955050505050600160c981905550509250925092565b6000609760009054906101000a900473ffffffffffffffffffffffffffffffffffffffff16905090565b61165161334d565b73ffffffffffffffffffffffffffffffffffffffff1661166f61161f565b73ffffffffffffffffffffffffffffffffffffffff16146116c5576040517f08c379a00000000000000000000000000000000000000000000000000000000081526004016116bc906155c8565b60405180910390fd5b8060fb60006101000a81548173ffffffffffffffffffffffffffffffffffffffff021916908373ffffffffffffffffffffffffffffffffffffffff16021790555060fb60009054906101000a900473ffffffffffffffffffffffffffffffffffffffff1673ffffffffffffffffffffffffffffffffffffffff166361d027b36040518163ffffffff1660e01b815260040160206040518083038186803b15801561176e57600080fd5b505afa158015611782573d6000803e3d6000fd5b505050506040513d601f19601f820116820180604052508101906117a691906149fa565b60fc60006101000a81548173ffffffffffffffffffffffffffffffffffffffff021916908373ffffffffffffffffffffffffffffffffffffffff16021790555060fb60009054906101000a900473ffffffffffffffffffffffffffffffffffffffff1673ffffffffffffffffffffffffffffffffffffffff1663eb0a8b916040518163ffffffff1660e01b815260040160206040518083038186803b15801561184e57600080fd5b505afa158015611862573d6000803e3d6000fd5b505050506040513d601f19601f8201168201806040525081019061188691906149d1565b60fd60006101000a81548173ffffffffffffffffffffffffffffffffffffffff021916908373ffffffffffffffffffffffffffffffffffffffff16021790555050565b6118d161334d565b73ffffffffffffffffffffffffffffffffffffffff166118ef61161f565b73ffffffffffffffffffffffffffffffffffffffff1614611945576040517f08c379a000000000000000000000000000000000000000000000000000000000815260040161193c906155c8565b60405180910390fd5b8060fe8190555050565b61195761334d565b73ffffffffffffffffffffffffffffffffffffffff1661197561161f565b73ffffffffffffffffffffffffffffffffffffffff16146119cb576040517f08c379a00000000000000000000000000000000000000000000000000000000081526004016119c2906155c8565b60405180910390fd5b670de0b6b3a7640000811115611a16576040517f08c379a0000000000000000000000000000000000000000000000000000000008152600401611a0d90615648565b60405180910390fd5b806101018190555050565b60608060008480421115611a6a576040517f08c379a0000000000000000000000000000000000000000000000000000000008152600401611a61906154a8565b60405180910390fd5b8760fb60009054906101000a900473ffffffffffffffffffffffffffffffffffffffff1673ffffffffffffffffffffffffffffffffffffffff1663a0f026ff826040518263ffffffff1660e01b8152600401611ac691906151f1565b60206040518083038186803b158015611ade57600080fd5b505afa158015611af2573d6000803e3d6000fd5b505050506040513d601f19601f82011682018060405250810190611b169190614bdf565b611b55576040517f08c379a0000000000000000000000000000000000000000000000000000000008152600401611b4c90615508565b60405180910390fd5b600260c9541415611b9b576040517f08c379a0000000000000000000000000000000000000000000000000000000008152600401611b9290615668565b60405180910390fd5b600260c98190555060fb60009054906101000a900473ffffffffffffffffffffffffffffffffffffffff1673ffffffffffffffffffffffffffffffffffffffff16631441a5a96040518163ffffffff1660e01b815260040160206040518083038186803b158015611c0b57600080fd5b505afa158015611c1f573d6000803e3d6000fd5b505050506040513d601f19601f82011682018060405250810190611c4391906149d1565b73ffffffffffffffffffffffffffffffffffffffff16637543e3f033886040518363ffffffff1660e01b8152600401611c7d92919061520c565b600060405180830381600087803b158015611c9757600080fd5b505af1158015611cab573d6000803e3d6000fd5b5050505060fb60009054906101000a900473ffffffffffffffffffffffffffffffffffffffff1673ffffffffffffffffffffffffffffffffffffffff1663294d499e6040518163ffffffff1660e01b815260040160006040518083038186803b158015611d1757600080fd5b505afa158015611d2b573d6000803e3d6000fd5b505050506040513d6000823e3d601f19601f82011682018060405250810190611d549190614ab3565b9350835167ffffffffffffffff811115611d97577f4e487b7100000000000000000000000000000000000000000000000000000000600052604160045260246000fd5b604051908082528060200260200182016040528015611dc55781602001602082028036833780820191505090505b509450600092506000600467ffffffffffffffff811115611e0f577f4e487b7100000000000000000000000000000000000000000000000000000000600052604160045260246000fd5b604051908082528060200260200182016040528015611e3d5781602001602082028036833780820191505090505b50905060fb60009054906101000a900473ffffffffffffffffffffffffffffffffffffffff1673ffffffffffffffffffffffffffffffffffffffff1663d02641a08b6040518263ffffffff1660e01b8152600401611e9b91906151f1565b60206040518083038186803b158015611eb357600080fd5b505afa158015611ec7573d6000803e3d6000fd5b505050506040513d601f19601f82011682018060405250810190611eeb9190614c31565b81600081518110611f25577f4e487b7100000000000000000000000000000000000000000000000000000000600052603260045260246000fd5b60200260200101818152505061204160fd60009054906101000a900473ffffffffffffffffffffffffffffffffffffffff1673ffffffffffffffffffffffffffffffffffffffff166380ef72a98c6040518263ffffffff1660e01b8152600401611f8f91906151f1565b60206040518083038186803b158015611fa757600080fd5b505afa158015611fbb573d6000803e3d6000fd5b505050506040513d601f19601f82011682018060405250810190611fdf9190614c31565b6120338360008151811061201c577f4e487b7100000000000000000000000000000000000000000000000000000000600052603260045260246000fd5b60200260200101518e6135e890919063ffffffff16565b6135fe90919063ffffffff16565b8160018151811061207b577f4e487b7100000000000000000000000000000000000000000000000000000000600052603260045260246000fd5b6020026020010181815250506000816002815181106120c3577f4e487b7100000000000000000000000000000000000000000000000000000000600052603260045260246000fd5b60200260200101818152505088518160038151811061210b577f4e487b7100000000000000000000000000000000000000000000000000000000600052603260045260246000fd5b602002602001018181525050606060005b82600381518110612156577f4e487b7100000000000000000000000000000000000000000000000000000000600052603260045260246000fd5b60200260200101518110156125d657606060006121b48f8f8f86815181106121a7577f4e487b7100000000000000000000000000000000000000000000000000000000600052603260045260246000fd5b60200260200101516128e9565b80935081945082965050505080856002815181106121fb577f4e487b7100000000000000000000000000000000000000000000000000000000600052603260045260246000fd5b602002602001018181525050505060005b8751811015612300576122a8838281518110612251577f4e487b7100000000000000000000000000000000000000000000000000000000600052603260045260246000fd5b60200260200101518a8381518110612292577f4e487b7100000000000000000000000000000000000000000000000000000000600052603260045260246000fd5b602002602001015161361490919063ffffffff16565b8982815181106122e1577f4e487b7100000000000000000000000000000000000000000000000000000000600052603260045260246000fd5b60200260200101818152505080806122f890615a45565b91505061220c565b508260018151811061233b577f4e487b7100000000000000000000000000000000000000000000000000000000600052603260045260246000fd5b60200260200101518360028151811061237d577f4e487b7100000000000000000000000000000000000000000000000000000000600052603260045260246000fd5b6020026020010151116124245761241f836002815181106123c7577f4e487b7100000000000000000000000000000000000000000000000000000000600052603260045260246000fd5b602002602001015184600181518110612409577f4e487b7100000000000000000000000000000000000000000000000000000000600052603260045260246000fd5b602002602001015161362a90919063ffffffff16565b612427565b60005b83600181518110612461577f4e487b7100000000000000000000000000000000000000000000000000000000600052603260045260246000fd5b6020026020010181815250506124c1836002815181106124aa577f4e487b7100000000000000000000000000000000000000000000000000000000600052603260045260246000fd5b60200260200101518761361490919063ffffffff16565b95506000836001815181106124ff577f4e487b7100000000000000000000000000000000000000000000000000000000600052603260045260246000fd5b60200260200101511415612512576125d6565b6125c18360008151811061254f577f4e487b7100000000000000000000000000000000000000000000000000000000600052603260045260246000fd5b60200260200101516125b3670de0b6b3a76400008660018151811061259d577f4e487b7100000000000000000000000000000000000000000000000000000000600052603260045260246000fd5b60200260200101516135e890919063ffffffff16565b6135fe90919063ffffffff16565b9c5080806125ce90615a45565b91505061211c565b505050600160c9819055505050955095509592505050565b6000670de0b6b3a7640000851161263a576040517f08c379a0000000000000000000000000000000000000000000000000000000008152600401612631906155e8565b60405180910390fd5b82841061267c576040517f08c379a000000000000000000000000000000000000000000000000000000000815260040161267390615568565b60405180910390fd5b8482106126be576040517f08c379a00000000000000000000000000000000000000000000000000000000081526004016126b590615448565b60405180910390fd5b60006126ff6126de670de0b6b3a7640000866135e890919063ffffffff16565b6126f188886135e890919063ffffffff16565b61362a90919063ffffffff16565b90506000612716848861362a90919063ffffffff16565b905061272b81836135fe90919063ffffffff16565b92505050949350505050565b60ff5481565b61274561334d565b73ffffffffffffffffffffffffffffffffffffffff1661276361161f565b73ffffffffffffffffffffffffffffffffffffffff16146127b9576040517f08c379a00000000000000000000000000000000000000000000000000000000081526004016127b0906155c8565b60405180910390fd5b600073ffffffffffffffffffffffffffffffffffffffff168173ffffffffffffffffffffffffffffffffffffffff161415612829576040517f08c379a000000000000000000000000000000000000000000000000000000000815260040161282090615488565b60405180910390fd5b8073ffffffffffffffffffffffffffffffffffffffff16609760009054906101000a900473ffffffffffffffffffffffffffffffffffffffff1673ffffffffffffffffffffffffffffffffffffffff167f8be0079c531659141344cd1fd0a4f28419497f9722a3daafe3b4186f6b6457e060405160405180910390a380609760006101000a81548173ffffffffffffffffffffffffffffffffffffffff021916908373ffffffffffffffffffffffffffffffffffffffff16021790555050565b606080600080868673ffffffffffffffffffffffffffffffffffffffff166370a08231336040518263ffffffff1660e01b815260040161292991906151f1565b60206040518083038186803b15801561294157600080fd5b505afa158015612955573d6000803e3d6000fd5b505050506040513d601f19601f820116820180604052508101906129799190614c31565b10156129ba576040517f08c379a00000000000000000000000000000000000000000000000000000000081526004016129b190615588565b60405180910390fd5b60006129c687876108d4565b809350819250505060008111612a11576040517f08c379a0000000000000000000000000000000000000000000000000000000008152600401612a0890615588565b60405180910390fd5b80881115612a1d578097505b8760fb60009054906101000a900473ffffffffffffffffffffffffffffffffffffffff1673ffffffffffffffffffffffffffffffffffffffff1663498b5ae8888a6040518363ffffffff1660e01b8152600401612a7b92919061520c565b60206040518083038186803b158015612a9357600080fd5b505afa158015612aa7573d6000803e3d6000fd5b505050506040513d601f19601f82011682018060405250810190612acb9190614c31565b1015612b0c576040517f08c379a0000000000000000000000000000000000000000000000000000000008152600401612b0390615588565b60405180910390fd5b50612be4670de0b6b3a7640000612bd68960fb60009054906101000a900473ffffffffffffffffffffffffffffffffffffffff1673ffffffffffffffffffffffffffffffffffffffff1663d02641a08b6040518263ffffffff1660e01b8152600401612b7891906151f1565b60206040518083038186803b158015612b9057600080fd5b505afa158015612ba4573d6000803e3d6000fd5b505050506040513d601f19601f82011682018060405250810190612bc89190614c31565b6135e890919063ffffffff16565b6135fe90919063ffffffff16565b915080612f2b576000612ce26ec097ce7bc90715b34b9f1000000000612cd461010054612cc660fd60009054906101000a900473ffffffffffffffffffffffffffffffffffffffff1673ffffffffffffffffffffffffffffffffffffffff166364d321b78c8e6040518363ffffffff1660e01b8152600401612c6792919061520c565b60206040518083038186803b158015612c7f57600080fd5b505afa158015612c93573d6000803e3d6000fd5b505050506040513d601f19601f82011682018060405250810190612cb79190614c31565b886135e890919063ffffffff16565b6135e890919063ffffffff16565b6135fe90919063ffffffff16565b905082811115612d27576040517f08c379a0000000000000000000000000000000000000000000000000000000008152600401612d1e90615648565b60405180910390fd5b600081118015612d3a5750600061010154115b15612ecb5760fc60009054906101000a900473ffffffffffffffffffffffffffffffffffffffff1673ffffffffffffffffffffffffffffffffffffffff1663eb2266fc8760fb60009054906101000a900473ffffffffffffffffffffffffffffffffffffffff1673ffffffffffffffffffffffffffffffffffffffff1663ec94578e6040518163ffffffff1660e01b815260040160206040518083038186803b158015612de657600080fd5b505afa158015612dfa573d6000803e3d6000fd5b505050506040513d601f19601f82011682018060405250810190612e1e91906149d1565b612e4e670de0b6b3a7640000612e4061010154886135e890919063ffffffff16565b6135fe90919063ffffffff16565b8b60016040518663ffffffff1660e01b8152600401612e719594939291906152bf565b600060405180830381600087803b158015612e8b57600080fd5b505af1158015612e9f573d6000803e3d6000fd5b505050506040513d6000823e3d601f19601f82011682018060405250810190612ec89190614af4565b50505b612f27612f18670de0b6b3a7640000612f0a612efb61010154670de0b6b3a764000061362a90919063ffffffff16565b856135e890919063ffffffff16565b6135fe90919063ffffffff16565b8461361490919063ffffffff16565b9250505b600060fd60009054906101000a900473ffffffffffffffffffffffffffffffffffffffff1673ffffffffffffffffffffffffffffffffffffffff1663234ab3e28789866040518463ffffffff1660e01b8152600401612f8c93929190615288565b60006040518083038186803b158015612fa457600080fd5b505afa158015612fb8573d6000803e3d6000fd5b505050506040513d6000823e3d601f19601f82011682018060405250810190612fe19190614b60565b8093508197508296505050508061302d576040517f08c379a000000000000000000000000000000000000000000000000000000000815260040161302490615628565b60405180910390fd5b8673ffffffffffffffffffffffffffffffffffffffff16639dc29fac338a6040518363ffffffff1660e01b8152600401613068929190615373565b600060405180830381600087803b15801561308257600080fd5b505af1158015613096573d6000803e3d6000fd5b5050505060fb60009054906101000a900473ffffffffffffffffffffffffffffffffffffffff1673ffffffffffffffffffffffffffffffffffffffff1663877034f1878a8a60006040518563ffffffff1660e01b81526004016130fc949392919061539c565b600060405180830381600087803b15801561311657600080fd5b505af115801561312a573d6000803e3d6000fd5b505050505060008351905060005b818110156132b757600086828151811061317b577f4e487b7100000000000000000000000000000000000000000000000000000000600052603260045260246000fd5b6020026020010151141561318e576132a4565b60fc60009054906101000a900473ffffffffffffffffffffffffffffffffffffffff1673ffffffffffffffffffffffffffffffffffffffff166358166d2488878481518110613206577f4e487b7100000000000000000000000000000000000000000000000000000000600052603260045260246000fd5b6020026020010151338a8681518110613248577f4e487b7100000000000000000000000000000000000000000000000000000000600052603260045260246000fd5b60200260200101518d6040518663ffffffff1660e01b8152600401613271959493929190615235565b600060405180830381600087803b15801561328b57600080fd5b505af115801561329f573d6000803e3d6000fd5b505050505b80806132af90615a45565b915050613138565b508115613302577f2426307748198161cc6d888a254354d78b8e8a97610a53f1d4742a819010eb5c86888a88886040516132f5959493929190615312565b60405180910390a1613342565b7f85801d8b70db8bdabd6c7f02c3cad017384b116cf25ca73238bba9a4d86bd1a386888a8888604051613339959493929190615312565b60405180910390a15b505093509350939050565b600033905090565b61335d61334d565b73ffffffffffffffffffffffffffffffffffffffff1661337b61161f565b73ffffffffffffffffffffffffffffffffffffffff16146133d1576040517f08c379a00000000000000000000000000000000000000000000000000000000081526004016133c8906155c8565b60405180910390fd5b50565b60006133de613f90565b90506133e984613fe7565b6000835111806133f65750815b156134075761340584846140a0565b505b60006134357f4910fdfa16fed3260ed0e7147f7cc6da11a60208b5b9406d12a635614ffd914360001b614184565b90508060000160009054906101000a900460ff166135e15760018160000160006101000a81548160ff021916908315150217905550613501858360405160240161347f91906151f1565b6040516020818303038152906040527f3659cfe6000000000000000000000000000000000000000000000000000000007bffffffffffffffffffffffffffffffffffffffffffffffffffffffff19166020820180517bffffffffffffffffffffffffffffffffffffffffffffffffffffffff83818316178352505050506140a0565b5060008160000160006101000a81548160ff021916908315150217905550613527613f90565b73ffffffffffffffffffffffffffffffffffffffff168273ffffffffffffffffffffffffffffffffffffffff1614613594576040517f08c379a000000000000000000000000000000000000000000000000000000000815260040161358b90615468565b60405180910390fd5b61359d85613fe7565b8473ffffffffffffffffffffffffffffffffffffffff167fbc7cd75a20ee27fd9adebab32041f755214dbc6bffa90cc0225b39da2e5c2d3b60405160405180910390a25b5050505050565b600081836135f691906158ea565b905092915050565b6000818361360c91906158b9565b905092915050565b600081836136229190615863565b905092915050565b600081836136389190615944565b905092915050565b600060019054906101000a900460ff1680613666575060008054906101000a900460ff16155b6136a5576040517f08c379a000000000000000000000000000000000000000000000000000000000815260040161369c90615548565b60405180910390fd5b60008060019054906101000a900460ff1615905080156136f5576001600060016101000a81548160ff02191690831515021790555060016000806101000a81548160ff0219169083151502179055505b6136fd61418e565b613705614267565b80156137265760008060016101000a81548160ff0219169083151502179055505b50565b600060019054906101000a900460ff168061374f575060008054906101000a900460ff16155b61378e576040517f08c379a000000000000000000000000000000000000000000000000000000000815260040161378590615548565b60405180910390fd5b60008060019054906101000a900460ff1615905080156137de576001600060016101000a81548160ff02191690831515021790555060016000806101000a81548160ff0219169083151502179055505b6137e6614340565b6137ee614419565b801561380f5760008060016101000a81548160ff0219169083151502179055505b50565b600060019054906101000a900460ff1680613838575060008054906101000a900460ff16155b613877576040517f08c379a000000000000000000000000000000000000000000000000000000000815260040161386e90615548565b60405180910390fd5b60008060019054906101000a900460ff1615905080156138c7576001600060016101000a81548160ff02191690831515021790555060016000806101000a81548160ff0219169083151502179055505b6138cf61459b565b80156138f05760008060016101000a81548160ff0219169083151502179055505b50565b600060fb60009054906101000a900473ffffffffffffffffffffffffffffffffffffffff1673ffffffffffffffffffffffffffffffffffffffff166327ab02b96040518163ffffffff1660e01b815260040160206040518083038186803b15801561395d57600080fd5b505afa158015613971573d6000803e3d6000fd5b505050506040513d601f19601f8201168201806040525081019061399591906149d1565b90508073ffffffffffffffffffffffffffffffffffffffff163373ffffffffffffffffffffffffffffffffffffffff1614156139d15750613ad2565b6000613a88670de0b6b3a7640000613a7a858573ffffffffffffffffffffffffffffffffffffffff1663883c95da896040518263ffffffff1660e01b8152600401613a1c91906151f1565b60206040518083038186803b158015613a3457600080fd5b505afa158015613a48573d6000803e3d6000fd5b505050506040513d601f19601f82011682018060405250810190613a6c9190614c31565b6135e890919063ffffffff16565b6135fe90919063ffffffff16565b905060ff54811115613acf576040517f08c379a0000000000000000000000000000000000000000000000000000000008152600401613ac6906154c8565b60405180910390fd5b50505b5050565b6000613b0583613af7670de0b6b3a7640000856135e890919063ffffffff16565b6135fe90919063ffffffff16565b9050613b118585610f26565b8111158015613b285750670de0b6b3a76400008110155b613b67576040517f08c379a0000000000000000000000000000000000000000000000000000000008152600401613b5e90615528565b60405180910390fd5b5050505050565b600080613c586064613c4a613b8f606460fe5461361490919063ffffffff16565b60fd60009054906101000a900473ffffffffffffffffffffffffffffffffffffffff1673ffffffffffffffffffffffffffffffffffffffff1663bcbe3f228d8d6040518363ffffffff1660e01b8152600401613bec92919061520c565b60206040518083038186803b158015613c0457600080fd5b505afa158015613c18573d6000803e3d6000fd5b505050506040513d601f19601f82011682018060405250810190613c3c9190614c31565b6135e890919063ffffffff16565b6135fe90919063ffffffff16565b90506000613ca3670de0b6b3a7640000613c9589613c87670de0b6b3a76400008b6135e890919063ffffffff16565b6135fe90919063ffffffff16565b61362a90919063ffffffff16565b905080851115613cb1578094505b613d0384613cf5670de0b6b3a7640000613ce7868c8c613ce28d670de0b6b3a764000061361490919063ffffffff16565b6125ee565b6135e890919063ffffffff16565b6135fe90919063ffffffff16565b9250828873ffffffffffffffffffffffffffffffffffffffff166370a08231336040518263ffffffff1660e01b8152600401613d3f91906151f1565b60206040518083038186803b158015613d5757600080fd5b505afa158015613d6b573d6000803e3d6000fd5b505050506040513d601f19601f82011682018060405250810190613d8f9190614c31565b1015613dd0576040517f08c379a0000000000000000000000000000000000000000000000000000000008152600401613dc7906154e8565b60405180910390fd5b50509695505050505050565b6060806000613dec8587896128e9565b809350819550829450505050613e25670de0b6b3a7640000613e1786886135e890919063ffffffff16565b6135fe90919063ffffffff16565b8114613e5a577f4e487b7100000000000000000000000000000000000000000000000000000000600052600160045260246000fd5b5094509492505050565b606080613ec0670de0b6b3a7640000613eb287613ea4670de0b6b3a7640000613e968c8b6135e890919063ffffffff16565b6135fe90919063ffffffff16565b6135e890919063ffffffff16565b6135fe90919063ffffffff16565b935060fc60009054906101000a900473ffffffffffffffffffffffffffffffffffffffff1673ffffffffffffffffffffffffffffffffffffffff1663eb2266fc8933878b60006040518663ffffffff1660e01b8152600401613f269594939291906152bf565b600060405180830381600087803b158015613f4057600080fd5b505af1158015613f54573d6000803e3d6000fd5b505050506040513d6000823e3d601f19601f82011682018060405250810190613f7d9190614af4565b8093508192505050509695505050505050565b6000613fbe7f360894a13ba1a3210667c828492db98dca3e2076cc3735a920a3ca505d382bbc60001b61467c565b60000160009054906101000a900473ffffffffffffffffffffffffffffffffffffffff16905090565b613ff081614686565b61402f576040517f08c379a0000000000000000000000000000000000000000000000000000000008152600401614026906155a8565b60405180910390fd5b8061405c7f360894a13ba1a3210667c828492db98dca3e2076cc3735a920a3ca505d382bbc60001b61467c565b60000160006101000a81548173ffffffffffffffffffffffffffffffffffffffff021916908373ffffffffffffffffffffffffffffffffffffffff16021790555050565b60606140ab83614686565b6140ea576040517f08c379a00000000000000000000000000000000000000000000000000000000081526004016140e190615608565b60405180910390fd5b6000808473ffffffffffffffffffffffffffffffffffffffff168460405161411291906151da565b600060405180830381855af49150503d806000811461414d576040519150601f19603f3d011682016040523d82523d6000602084013e614152565b606091505b509150915061417a8282604051806060016040528060278152602001615f4f60279139614699565b9250505092915050565b6000819050919050565b600060019054906101000a900460ff16806141b4575060008054906101000a900460ff16155b6141f3576040517f08c379a00000000000000000000000000000000000000000000000000000000081526004016141ea90615548565b60405180910390fd5b60008060019054906101000a900460ff161590508015614243576001600060016101000a81548160ff02191690831515021790555060016000806101000a81548160ff0219169083151502179055505b80156142645760008060016101000a81548160ff0219169083151502179055505b50565b600060019054906101000a900460ff168061428d575060008054906101000a900460ff16155b6142cc576040517f08c379a00000000000000000000000000000000000000000000000000000000081526004016142c390615548565b60405180910390fd5b60008060019054906101000a900460ff16159050801561431c576001600060016101000a81548160ff02191690831515021790555060016000806101000a81548160ff0219169083151502179055505b801561433d5760008060016101000a81548160ff0219169083151502179055505b50565b600060019054906101000a900460ff1680614366575060008054906101000a900460ff16155b6143a5576040517f08c379a000000000000000000000000000000000000000000000000000000000815260040161439c90615548565b60405180910390fd5b60008060019054906101000a900460ff1615905080156143f5576001600060016101000a81548160ff02191690831515021790555060016000806101000a81548160ff0219169083151502179055505b80156144165760008060016101000a81548160ff0219169083151502179055505b50565b600060019054906101000a900460ff168061443f575060008054906101000a900460ff16155b61447e576040517f08c379a000000000000000000000000000000000000000000000000000000000815260040161447590615548565b60405180910390fd5b60008060019054906101000a900460ff1615905080156144ce576001600060016101000a81548160ff02191690831515021790555060016000806101000a81548160ff0219169083151502179055505b60006144d861334d565b905080609760006101000a81548173ffffffffffffffffffffffffffffffffffffffff021916908373ffffffffffffffffffffffffffffffffffffffff1602179055508073ffffffffffffffffffffffffffffffffffffffff16600073ffffffffffffffffffffffffffffffffffffffff167f8be0079c531659141344cd1fd0a4f28419497f9722a3daafe3b4186f6b6457e060405160405180910390a35080156145985760008060016101000a81548160ff0219169083151502179055505b50565b600060019054906101000a900460ff16806145c1575060008054906101000a900460ff16155b614600576040517f08c379a00000000000000000000000000000000000000000000000000000000081526004016145f790615548565b60405180910390fd5b60008060019054906101000a900460ff161590508015614650576001600060016101000a81548160ff02191690831515021790555060016000806101000a81548160ff0219169083151502179055505b600160c98190555080156146795760008060016101000a81548160ff0219169083151502179055505b50565b6000819050919050565b600080823b905060008111915050919050565b606083156146a9578290506146f9565b6000835111156146bc5782518084602001fd5b816040517f08c379a00000000000000000000000000000000000000000000000000000000081526004016146f09190615426565b60405180910390fd5b9392505050565b600061471361470e84615736565b615711565b9050808382526020820190508285602086028201111561473257600080fd5b60005b8581101561476257816147488882614882565b845260208401935060208301925050600181019050614735565b5050509392505050565b600061477f61477a84615736565b615711565b9050808382526020820190508285602086028201111561479e57600080fd5b60005b858110156147ce57816147b48882614897565b8452602084019350602083019250506001810190506147a1565b5050509392505050565b60006147eb6147e684615762565b615711565b9050808382526020820190508285602086028201111561480a57600080fd5b60005b8581101561483a57816148208882614993565b84526020840193506020830192505060018101905061480d565b5050509392505050565b60006148576148528461578e565b615711565b90508281526020810184848401111561486f57600080fd5b61487a8482856159d2565b509392505050565b60008135905061489181615ef2565b92915050565b6000815190506148a681615ef2565b92915050565b6000815190506148bb81615f09565b92915050565b600082601f8301126148d257600080fd5b81356148e2848260208601614700565b91505092915050565b600082601f8301126148fc57600080fd5b815161490c84826020860161476c565b91505092915050565b600082601f83011261492657600080fd5b81516149368482602086016147d8565b91505092915050565b60008151905061494e81615f20565b92915050565b600082601f83011261496557600080fd5b8135614975848260208601614844565b91505092915050565b60008135905061498d81615f37565b92915050565b6000815190506149a281615f37565b92915050565b6000602082840312156149ba57600080fd5b60006149c884828501614882565b91505092915050565b6000602082840312156149e357600080fd5b60006149f184828501614897565b91505092915050565b600060208284031215614a0c57600080fd5b6000614a1a848285016148ac565b91505092915050565b60008060408385031215614a3657600080fd5b6000614a4485828601614882565b9250506020614a5585828601614882565b9150509250929050565b60008060408385031215614a7257600080fd5b6000614a8085828601614882565b925050602083013567ffffffffffffffff811115614a9d57600080fd5b614aa985828601614954565b9150509250929050565b600060208284031215614ac557600080fd5b600082015167ffffffffffffffff811115614adf57600080fd5b614aeb848285016148eb565b91505092915050565b60008060408385031215614b0757600080fd5b600083015167ffffffffffffffff811115614b2157600080fd5b614b2d858286016148eb565b925050602083015167ffffffffffffffff811115614b4a57600080fd5b614b5685828601614915565b9150509250929050565b600080600060608486031215614b7557600080fd5b600084015167ffffffffffffffff811115614b8f57600080fd5b614b9b868287016148eb565b935050602084015167ffffffffffffffff811115614bb857600080fd5b614bc486828701614915565b9250506040614bd58682870161493f565b9150509250925092565b600060208284031215614bf157600080fd5b6000614bff8482850161493f565b91505092915050565b600060208284031215614c1a57600080fd5b6000614c288482850161497e565b91505092915050565b600060208284031215614c4357600080fd5b6000614c5184828501614993565b91505092915050565b600080600080600060a08688031215614c7257600080fd5b6000614c808882890161497e565b9550506020614c9188828901614882565b9450506040614ca288828901614882565b9350506060614cb38882890161497e565b9250506080614cc488828901614882565b9150509295509295909350565b600080600080600060a08688031215614ce957600080fd5b6000614cf78882890161497e565b9550506020614d0888828901614882565b945050604086013567ffffffffffffffff811115614d2557600080fd5b614d31888289016148c1565b9350506060614d428882890161497e565b9250506080614d5388828901614882565b9150509295509295909350565b60008060008060808587031215614d7657600080fd5b6000614d848782880161497e565b9450506020614d958782880161497e565b9350506040614da68782880161497e565b9250506060614db78782880161497e565b91505092959194509250565b6000614dcf8383614df3565b60208301905092915050565b6000614de783836151bc565b60208301905092915050565b614dfc81615978565b82525050565b614e0b81615978565b82525050565b6000614e1c826157df565b614e268185615825565b9350614e31836157bf565b8060005b83811015614e62578151614e498882614dc3565b9750614e548361580b565b925050600181019050614e35565b5085935050505092915050565b6000614e7a826157ea565b614e848185615836565b9350614e8f836157cf565b8060005b83811015614ec0578151614ea78882614ddb565b9750614eb283615818565b925050600181019050614e93565b5085935050505092915050565b614ed68161599c565b82525050565b6000614ee7826157f5565b614ef18185615847565b9350614f018185602086016159e1565b80840191505092915050565b6000614f1882615800565b614f228185615852565b9350614f328185602086016159e1565b614f3b81615b1b565b840191505092915050565b6000614f53600883615852565b9150614f5e82615b2c565b602082019050919050565b6000614f76602f83615852565b9150614f8182615b55565b604082019050919050565b6000614f99602683615852565b9150614fa482615ba4565b604082019050919050565b6000614fbc602183615852565b9150614fc782615bf3565b604082019050919050565b6000614fdf600283615852565b9150614fea82615c42565b602082019050919050565b6000615002602083615852565b915061500d82615c6b565b602082019050919050565b6000615025600283615852565b915061503082615c94565b602082019050919050565b6000615048600283615852565b915061505382615cbd565b602082019050919050565b600061506b602e83615852565b915061507682615ce6565b604082019050919050565b600061508e601083615852565b915061509982615d35565b602082019050919050565b60006150b1600283615852565b91506150bc82615d5e565b602082019050919050565b60006150d4602d83615852565b91506150df82615d87565b604082019050919050565b60006150f7602083615852565b915061510282615dd6565b602082019050919050565b600061511a601183615852565b915061512582615dff565b602082019050919050565b600061513d602683615852565b915061514882615e28565b604082019050919050565b6000615160600283615852565b915061516b82615e77565b602082019050919050565b6000615183600683615852565b915061518e82615ea0565b602082019050919050565b60006151a6601f83615852565b91506151b182615ec9565b602082019050919050565b6151c5816159c8565b82525050565b6151d4816159c8565b82525050565b60006151e68284614edc565b915081905092915050565b60006020820190506152066000830184614e02565b92915050565b60006040820190506152216000830185614e02565b61522e6020830184614e02565b9392505050565b600060a08201905061524a6000830188614e02565b6152576020830187614e02565b6152646040830186614e02565b61527160608301856151cb565b61527e6080830184614e02565b9695505050505050565b600060608201905061529d6000830186614e02565b6152aa6020830185614e02565b6152b760408301846151cb565b949350505050565b600060a0820190506152d46000830188614e02565b6152e16020830187614e02565b6152ee60408301866151cb565b6152fb6060830185614e02565b6153086080830184614ecd565b9695505050505050565b600060a0820190506153276000830188614e02565b6153346020830187614e02565b61534160408301866151cb565b81810360608301526153538185614e6f565b905081810360808301526153678184614e11565b90509695505050505050565b60006040820190506153886000830185614e02565b61539560208301846151cb565b9392505050565b60006080820190506153b16000830187614e02565b6153be60208301866151cb565b6153cb6040830185614e02565b6153d86060830184614ecd565b95945050505050565b600060608201905081810360008301526153fb8186614e6f565b9050818103602083015261540f8185614e11565b905061541e60408301846151cb565b949350505050565b600060208201905081810360008301526154408184614f0d565b905092915050565b6000602082019050818103600083015261546181614f46565b9050919050565b6000602082019050818103600083015261548181614f69565b9050919050565b600060208201905081810360008301526154a181614f8c565b9050919050565b600060208201905081810360008301526154c181614faf565b9050919050565b600060208201905081810360008301526154e181614fd2565b9050919050565b6000602082019050818103600083015261550181614ff5565b9050919050565b6000602082019050818103600083015261552181615018565b9050919050565b600060208201905081810360008301526155418161503b565b9050919050565b600060208201905081810360008301526155618161505e565b9050919050565b6000602082019050818103600083015261558181615081565b9050919050565b600060208201905081810360008301526155a1816150a4565b9050919050565b600060208201905081810360008301526155c1816150c7565b9050919050565b600060208201905081810360008301526155e1816150ea565b9050919050565b600060208201905081810360008301526156018161510d565b9050919050565b6000602082019050818103600083015261562181615130565b9050919050565b6000602082019050818103600083015261564181615153565b9050919050565b6000602082019050818103600083015261566181615176565b9050919050565b6000602082019050818103600083015261568181615199565b9050919050565b600060208201905061569d60008301846151cb565b92915050565b60006060820190506156b860008301866151cb565b81810360208301526156ca8185614e11565b905081810360408301526156de8184614e6f565b9050949350505050565b60006040820190506156fd60008301856151cb565b61570a6020830184614ecd565b9392505050565b600061571b61572c565b90506157278282615a14565b919050565b6000604051905090565b600067ffffffffffffffff82111561575157615750615aec565b5b602082029050602081019050919050565b600067ffffffffffffffff82111561577d5761577c615aec565b5b602082029050602081019050919050565b600067ffffffffffffffff8211156157a9576157a8615aec565b5b6157b282615b1b565b9050602081019050919050565b6000819050602082019050919050565b6000819050602082019050919050565b600081519050919050565b600081519050919050565b600081519050919050565b600081519050919050565b6000602082019050919050565b6000602082019050919050565b600082825260208201905092915050565b600082825260208201905092915050565b600081905092915050565b600082825260208201905092915050565b600061586e826159c8565b9150615879836159c8565b9250827fffffffffffffffffffffffffffffffffffffffffffffffffffffffffffffffff038211156158ae576158ad615a8e565b5b828201905092915050565b60006158c4826159c8565b91506158cf836159c8565b9250826158df576158de615abd565b5b828204905092915050565b60006158f5826159c8565b9150615900836159c8565b9250817fffffffffffffffffffffffffffffffffffffffffffffffffffffffffffffffff048311821515161561593957615938615a8e565b5b828202905092915050565b600061594f826159c8565b915061595a836159c8565b92508282101561596d5761596c615a8e565b5b828203905092915050565b6000615983826159a8565b9050919050565b6000615995826159a8565b9050919050565b60008115159050919050565b600073ffffffffffffffffffffffffffffffffffffffff82169050919050565b6000819050919050565b82818337600083830152505050565b60005b838110156159ff5780820151818401526020810190506159e4565b83811115615a0e576000848401525b50505050565b615a1d82615b1b565b810181811067ffffffffffffffff82111715615a3c57615a3b615aec565b5b80604052505050565b6000615a50826159c8565b91507fffffffffffffffffffffffffffffffffffffffffffffffffffffffffffffffff821415615a8357615a82615a8e565b5b600182019050919050565b7f4e487b7100000000000000000000000000000000000000000000000000000000600052601160045260246000fd5b7f4e487b7100000000000000000000000000000000000000000000000000000000600052601260045260246000fd5b7f4e487b7100000000000000000000000000000000000000000000000000000000600052604160045260246000fd5b6000601f19601f8301169050919050565b7f5252203e3d204352000000000000000000000000000000000000000000000000600082015250565b7f45524331393637557067726164653a207570677261646520627265616b73206660008201527f7572746865722075706772616465730000000000000000000000000000000000602082015250565b7f4f776e61626c653a206e6577206f776e657220697320746865207a65726f206160008201527f6464726573730000000000000000000000000000000000000000000000000000602082015250565b7f5472616e73616374696f6e2068617320657863656564656420646561646c696e60008201527f6500000000000000000000000000000000000000000000000000000000000000602082015250565b7f4e57000000000000000000000000000000000000000000000000000000000000600082015250565b7f4c697175696461746f723a20696e73756666696369656e742062616c616e6365600082015250565b7f4946000000000000000000000000000000000000000000000000000000000000600082015250565b7f4352000000000000000000000000000000000000000000000000000000000000600082015250565b7f496e697469616c697a61626c653a20636f6e747261637420697320616c72656160008201527f647920696e697469616c697a6564000000000000000000000000000000000000602082015250565b7f496e76616c6964207661756c7420435200000000000000000000000000000000600082015250565b7f4941000000000000000000000000000000000000000000000000000000000000600082015250565b7f455243313936373a206e657720696d706c656d656e746174696f6e206973206e60008201527f6f74206120636f6e747261637400000000000000000000000000000000000000602082015250565b7f4f776e61626c653a2063616c6c6572206973206e6f7420746865206f776e6572600082015250565b7f496e76616c696420746172676574204352000000000000000000000000000000600082015250565b7f416464726573733a2064656c65676174652063616c6c20746f206e6f6e2d636f60008201527f6e74726163740000000000000000000000000000000000000000000000000000602082015250565b7f4341000000000000000000000000000000000000000000000000000000000000600082015250565b7f303c523c3d310000000000000000000000000000000000000000000000000000600082015250565b7f5265656e7472616e637947756172643a207265656e7472616e742063616c6c00600082015250565b615efb81615978565b8114615f0657600080fd5b50565b615f128161598a565b8114615f1d57600080fd5b50565b615f298161599c565b8114615f3457600080fd5b50565b615f40816159c8565b8114615f4b57600080fd5b5056fe416464726573733a206c6f772d6c6576656c2064656c65676174652063616c6c206661696c6564a264697066735822122075118fb1a7c3a03bd6f5e86f12b4cc74ccffde8505d17dff27fb40c268dc662a64736f6c63430008030033",
  "linkReferences": {},
  "deployedLinkReferences": {}
}