{
  "_format": "hh-sol-artifact-1",
  "contractName": "Liquidator",
  "sourceName": "contracts/Bank/Liquidator.sol",
  "abi": [
    {
      "anonymous": false,
      "inputs": [
        {
          "indexed": false,
          "internalType": "address",
          "name": "previousAdmin",
          "type": "address"
        },
        {
          "indexed": false,
          "internalType": "address",
          "name": "newAdmin",
          "type": "address"
        }
      ],
      "name": "AdminChanged",
      "type": "event"
    },
    {
      "anonymous": false,
      "inputs": [
        {
          "indexed": true,
          "internalType": "address",
          "name": "beacon",
          "type": "address"
        }
      ],
      "name": "BeaconUpgraded",
      "type": "event"
    },
    {
      "anonymous": false,
      "inputs": [
        {
          "indexed": false,
          "internalType": "address",
          "name": "from",
          "type": "address"
        },
        {
          "indexed": false,
          "internalType": "address",
          "name": "token",
          "type": "address"
        },
        {
          "indexed": false,
          "internalType": "uint256",
          "name": "tokenAmount",
          "type": "uint256"
        },
        {
          "indexed": false,
          "internalType": "uint256[]",
          "name": "collateralAmounts",
          "type": "uint256[]"
        },
        {
          "indexed": false,
          "internalType": "address[]",
          "name": "collateralTypes",
          "type": "address[]"
        }
      ],
      "name": "BuyCollateral",
      "type": "event"
    },
    {
      "anonymous": false,
      "inputs": [
        {
          "indexed": true,
          "internalType": "address",
          "name": "previousOwner",
          "type": "address"
        },
        {
          "indexed": true,
          "internalType": "address",
          "name": "newOwner",
          "type": "address"
        }
      ],
      "name": "OwnershipTransferred",
      "type": "event"
    },
    {
      "anonymous": false,
      "inputs": [
        {
          "indexed": true,
          "internalType": "address",
          "name": "implementation",
          "type": "address"
        }
      ],
      "name": "Upgraded",
      "type": "event"
    },
    {
      "inputs": [
        {
          "internalType": "uint256",
          "name": "amount",
          "type": "uint256"
        },
        {
          "internalType": "address",
          "name": "token",
          "type": "address"
        },
        {
          "internalType": "address",
          "name": "from",
          "type": "address"
        },
        {
          "internalType": "uint256",
          "name": "deadline",
          "type": "uint256"
        }
      ],
      "name": "buyCollateral",
      "outputs": [
        {
          "internalType": "uint256[]",
          "name": "collateralAmounts",
          "type": "uint256[]"
        },
        {
          "internalType": "address[]",
          "name": "collateralTypes",
          "type": "address[]"
        },
        {
          "internalType": "uint256",
          "name": "etherAmount",
          "type": "uint256"
        }
      ],
      "stateMutability": "nonpayable",
      "type": "function"
    },
    {
      "inputs": [
        {
          "internalType": "uint256",
          "name": "amount",
          "type": "uint256"
        },
        {
          "internalType": "address",
          "name": "token",
          "type": "address"
        },
        {
          "internalType": "address[]",
          "name": "from",
          "type": "address[]"
        },
        {
          "internalType": "uint256",
          "name": "deadline",
          "type": "uint256"
        }
      ],
      "name": "buyCollateralFromManyVaults",
      "outputs": [
        {
          "internalType": "uint256[]",
          "name": "collateralAmounts",
          "type": "uint256[]"
        },
        {
          "internalType": "address[]",
          "name": "collateralTypes",
          "type": "address[]"
        },
        {
          "internalType": "uint256",
          "name": "etherAmount",
          "type": "uint256"
        }
      ],
      "stateMutability": "nonpayable",
      "type": "function"
    },
    {
      "inputs": [],
      "name": "crScalar",
      "outputs": [
        {
          "internalType": "uint256",
          "name": "",
          "type": "uint256"
        }
      ],
      "stateMutability": "view",
      "type": "function"
    },
    {
      "inputs": [
        {
          "internalType": "uint256",
          "name": "amount",
          "type": "uint256"
        },
        {
          "internalType": "address",
          "name": "token",
          "type": "address"
        },
        {
          "internalType": "address",
          "name": "from",
          "type": "address"
        }
      ],
      "name": "getAllowedBuyCollateralFromTokenAmount",
      "outputs": [
        {
          "internalType": "uint256",
          "name": "allowedAmount",
          "type": "uint256"
        }
      ],
      "stateMutability": "view",
      "type": "function"
    },
    {
      "inputs": [
        {
          "internalType": "address",
          "name": "account",
          "type": "address"
        },
        {
          "internalType": "address",
          "name": "fxToken",
          "type": "address"
        }
      ],
      "name": "getLiquidationRatio",
      "outputs": [
        {
          "internalType": "uint256",
          "name": "ratio",
          "type": "uint256"
        }
      ],
      "stateMutability": "view",
      "type": "function"
    },
    {
      "inputs": [],
      "name": "handle",
      "outputs": [
        {
          "internalType": "contract IHandle",
          "name": "",
          "type": "address"
        }
      ],
      "stateMutability": "view",
      "type": "function"
    },
    {
      "inputs": [],
      "name": "handleAddress",
      "outputs": [
        {
          "internalType": "address",
          "name": "",
          "type": "address"
        }
      ],
      "stateMutability": "view",
      "type": "function"
    },
    {
      "inputs": [],
      "name": "initialize",
      "outputs": [],
      "stateMutability": "nonpayable",
      "type": "function"
    },
    {
      "inputs": [
        {
          "internalType": "address",
          "name": "account",
          "type": "address"
        },
        {
          "internalType": "address",
          "name": "fxToken",
          "type": "address"
        }
      ],
      "name": "liquidate",
      "outputs": [
        {
          "internalType": "uint256",
          "name": "fxAmount",
          "type": "uint256"
        },
        {
          "internalType": "address[]",
          "name": "collateralTypes",
          "type": "address[]"
        },
        {
          "internalType": "uint256[]",
          "name": "collateralAmounts",
          "type": "uint256[]"
        }
      ],
      "stateMutability": "nonpayable",
      "type": "function"
    },
    {
      "inputs": [],
      "name": "owner",
      "outputs": [
        {
          "internalType": "address",
          "name": "",
          "type": "address"
        }
      ],
      "stateMutability": "view",
      "type": "function"
    },
    {
      "inputs": [],
      "name": "renounceOwnership",
      "outputs": [],
      "stateMutability": "nonpayable",
      "type": "function"
    },
    {
      "inputs": [
        {
          "internalType": "uint256",
          "name": "value",
          "type": "uint256"
        }
      ],
      "name": "setCrScalar",
      "outputs": [],
      "stateMutability": "nonpayable",
      "type": "function"
    },
    {
      "inputs": [
        {
          "internalType": "address",
          "name": "_handle",
          "type": "address"
        }
      ],
      "name": "setHandleContract",
      "outputs": [],
      "stateMutability": "nonpayable",
      "type": "function"
    },
    {
      "inputs": [
        {
          "internalType": "uint256",
          "name": "crTarget",
          "type": "uint256"
        },
        {
          "internalType": "uint256",
          "name": "debt",
          "type": "uint256"
        },
        {
          "internalType": "uint256",
          "name": "collateral",
          "type": "uint256"
        },
        {
          "internalType": "uint256",
          "name": "returnRatio",
          "type": "uint256"
        }
      ],
      "name": "tokensRequiredForCrIncrease",
      "outputs": [
        {
          "internalType": "uint256",
          "name": "amount",
          "type": "uint256"
        }
      ],
      "stateMutability": "pure",
      "type": "function"
    },
    {
      "inputs": [
        {
          "internalType": "address",
          "name": "newOwner",
          "type": "address"
        }
      ],
      "name": "transferOwnership",
      "outputs": [],
      "stateMutability": "nonpayable",
      "type": "function"
    },
    {
      "inputs": [
        {
          "internalType": "address",
          "name": "newImplementation",
          "type": "address"
        }
      ],
      "name": "upgradeTo",
      "outputs": [],
      "stateMutability": "nonpayable",
      "type": "function"
    },
    {
      "inputs": [
        {
          "internalType": "address",
          "name": "newImplementation",
          "type": "address"
        },
        {
          "internalType": "bytes",
          "name": "data",
          "type": "bytes"
        }
      ],
      "name": "upgradeToAndCall",
      "outputs": [],
      "stateMutability": "payable",
      "type": "function"
    }
  ],
  "bytecode": "0x608060405234801561001057600080fd5b50615295806100206000396000f3fe6080604052600436106100fe5760003560e01c80638129fc1c116100955780639b1c414f116100645780639b1c414f1461032e578063bc8f795f14610357578063db17174e14610380578063f2fde38b146103bd578063fd0da099146103e6576100fe565b80638129fc1c1461027057806386b9d81f146102875780638da5cb5b146102c65780638dac8d13146102f1576100fe565b80634f1ef286116100d15780634f1ef286146101d5578063715018a6146101f157806374bf578b146102085780637630a69c14610233576100fe565b806317d9eca2146101035780633659cfe61461012e5780633ffd92081461015757806343cc394614610196575b600080fd5b34801561010f57600080fd5b50610118610411565b6040516101259190614a1b565b60405180910390f35b34801561013a57600080fd5b5061015560048036038101906101509190613e04565b610417565b005b34801561016357600080fd5b5061017e60048036038101906101799190614168565b61043e565b60405161018d939291906147d9565b60405180910390f35b3480156101a257600080fd5b506101bd60048036038101906101b89190614105565b610ea8565b6040516101cc939291906147d9565b60405180910390f35b6101ef60048036038101906101ea9190613ebb565b610ff9565b005b3480156101fd57600080fd5b50610206611012565b005b34801561021457600080fd5b5061021d61114f565b60405161022a91906145f7565b60405180910390f35b34801561023f57600080fd5b5061025a60048036038101906102559190613e7f565b611179565b6040516102679190614a1b565b60405180910390f35b34801561027c57600080fd5b50610285611296565b005b34801561029357600080fd5b506102ae60048036038101906102a99190613e7f565b611387565b6040516102bd93929190614a36565b60405180910390f35b3480156102d257600080fd5b506102db6117db565b6040516102e891906145f7565b60405180910390f35b3480156102fd57600080fd5b50610318600480360381019061031391906140b6565b611805565b6040516103259190614a1b565b60405180910390f35b34801561033a57600080fd5b5061035560048036038101906103509190613e04565b611cd0565b005b34801561036357600080fd5b5061037e60048036038101906103799190614064565b611f50565b005b34801561038c57600080fd5b506103a760048036038101906103a291906141e3565b611fd6565b6040516103b49190614a1b565b60405180910390f35b3480156103c957600080fd5b506103e460048036038101906103df9190613e04565b61209b565b005b3480156103f257600080fd5b506103fb612247565b604051610408919061481e565b60405180910390f35b60fe5481565b6104208161226d565b61043b816040518060200160405280600081525060006122ec565b50565b60608060008380421115610487576040517f08c379a000000000000000000000000000000000000000000000000000000000815260040161047e906148bb565b60405180910390fd5b8660fb60009054906101000a900473ffffffffffffffffffffffffffffffffffffffff1673ffffffffffffffffffffffffffffffffffffffff1663a0f026ff826040518263ffffffff1660e01b81526004016104e391906145f7565b60206040518083038186803b1580156104fb57600080fd5b505afa15801561050f573d6000803e3d6000fd5b505050506040513d601f19601f82011682018060405250810190610533919061403b565b610572576040517f08c379a0000000000000000000000000000000000000000000000000000000008152600401610569906148fb565b60405180910390fd5b60fb60009054906101000a900473ffffffffffffffffffffffffffffffffffffffff1673ffffffffffffffffffffffffffffffffffffffff1663294d499e6040518163ffffffff1660e01b815260040160006040518083038186803b1580156105da57600080fd5b505afa1580156105ee573d6000803e3d6000fd5b505050506040513d6000823e3d601f19601f820116820180604052508101906106179190613f0f565b9350835167ffffffffffffffff81111561065a577f4e487b7100000000000000000000000000000000000000000000000000000000600052604160045260246000fd5b6040519080825280602002602001820160405280156106885781602001602082028036833780820191505090505b509450600092506000600467ffffffffffffffff8111156106d2577f4e487b7100000000000000000000000000000000000000000000000000000000600052604160045260246000fd5b6040519080825280602002602001820160405280156107005781602001602082028036833780820191505090505b50905060fb60009054906101000a900473ffffffffffffffffffffffffffffffffffffffff1673ffffffffffffffffffffffffffffffffffffffff1663d02641a08a6040518263ffffffff1660e01b815260040161075e91906145f7565b60206040518083038186803b15801561077657600080fd5b505afa15801561078a573d6000803e3d6000fd5b505050506040513d601f19601f820116820180604052508101906107ae919061408d565b816000815181106107e8577f4e487b7100000000000000000000000000000000000000000000000000000000600052603260045260246000fd5b60200260200101818152505061090460fd60009054906101000a900473ffffffffffffffffffffffffffffffffffffffff1673ffffffffffffffffffffffffffffffffffffffff166380ef72a98b6040518263ffffffff1660e01b815260040161085291906145f7565b60206040518083038186803b15801561086a57600080fd5b505afa15801561087e573d6000803e3d6000fd5b505050506040513d601f19601f820116820180604052508101906108a2919061408d565b6108f6836000815181106108df577f4e487b7100000000000000000000000000000000000000000000000000000000600052603260045260246000fd5b60200260200101518d61250090919063ffffffff16565b61251690919063ffffffff16565b8160018151811061093e577f4e487b7100000000000000000000000000000000000000000000000000000000600052603260045260246000fd5b602002602001018181525050600081600281518110610986577f4e487b7100000000000000000000000000000000000000000000000000000000600052603260045260246000fd5b6020026020010181815250508751816003815181106109ce577f4e487b7100000000000000000000000000000000000000000000000000000000600052603260045260246000fd5b602002602001018181525050606060005b82600381518110610a19577f4e487b7100000000000000000000000000000000000000000000000000000000600052603260045260246000fd5b6020026020010151811015610e995760606000610a778e8e8e8681518110610a6a577f4e487b7100000000000000000000000000000000000000000000000000000000600052603260045260246000fd5b602002602001015161252c565b8093508194508296505050508085600281518110610abe577f4e487b7100000000000000000000000000000000000000000000000000000000600052603260045260246000fd5b602002602001018181525050505060005b8751811015610bc357610b6b838281518110610b14577f4e487b7100000000000000000000000000000000000000000000000000000000600052603260045260246000fd5b60200260200101518a8381518110610b55577f4e487b7100000000000000000000000000000000000000000000000000000000600052603260045260246000fd5b6020026020010151612c4e90919063ffffffff16565b898281518110610ba4577f4e487b7100000000000000000000000000000000000000000000000000000000600052603260045260246000fd5b6020026020010181815250508080610bbb90614dd3565b915050610acf565b5082600181518110610bfe577f4e487b7100000000000000000000000000000000000000000000000000000000600052603260045260246000fd5b602002602001015183600281518110610c40577f4e487b7100000000000000000000000000000000000000000000000000000000600052603260045260246000fd5b602002602001015111610ce757610ce283600281518110610c8a577f4e487b7100000000000000000000000000000000000000000000000000000000600052603260045260246000fd5b602002602001015184600181518110610ccc577f4e487b7100000000000000000000000000000000000000000000000000000000600052603260045260246000fd5b6020026020010151612c6490919063ffffffff16565b610cea565b60005b83600181518110610d24577f4e487b7100000000000000000000000000000000000000000000000000000000600052603260045260246000fd5b602002602001018181525050610d8483600281518110610d6d577f4e487b7100000000000000000000000000000000000000000000000000000000600052603260045260246000fd5b602002602001015187612c4e90919063ffffffff16565b9550600083600181518110610dc2577f4e487b7100000000000000000000000000000000000000000000000000000000600052603260045260246000fd5b60200260200101511415610dd557610e99565b610e8483600081518110610e12577f4e487b7100000000000000000000000000000000000000000000000000000000600052603260045260246000fd5b6020026020010151610e76670de0b6b3a764000086600181518110610e60577f4e487b7100000000000000000000000000000000000000000000000000000000600052603260045260246000fd5b602002602001015161250090919063ffffffff16565b61251690919063ffffffff16565b9b508080610e9190614dd3565b9150506109df565b50505050509450945094915050565b60608060008380421115610ef1576040517f08c379a0000000000000000000000000000000000000000000000000000000008152600401610ee8906148bb565b60405180910390fd5b8660fb60009054906101000a900473ffffffffffffffffffffffffffffffffffffffff1673ffffffffffffffffffffffffffffffffffffffff1663a0f026ff826040518263ffffffff1660e01b8152600401610f4d91906145f7565b60206040518083038186803b158015610f6557600080fd5b505afa158015610f79573d6000803e3d6000fd5b505050506040513d601f19601f82011682018060405250810190610f9d919061403b565b610fdc576040517f08c379a0000000000000000000000000000000000000000000000000000000008152600401610fd3906148fb565b60405180910390fd5b610fe789898961252c565b94509450945050509450945094915050565b6110028261226d565b61100e828260016122ec565b5050565b61101a612c7a565b73ffffffffffffffffffffffffffffffffffffffff166110386117db565b73ffffffffffffffffffffffffffffffffffffffff161461108e576040517f08c379a00000000000000000000000000000000000000000000000000000000081526004016110859061499b565b60405180910390fd5b600073ffffffffffffffffffffffffffffffffffffffff16609760009054906101000a900473ffffffffffffffffffffffffffffffffffffffff1673ffffffffffffffffffffffffffffffffffffffff167f8be0079c531659141344cd1fd0a4f28419497f9722a3daafe3b4186f6b6457e060405160405180910390a36000609760006101000a81548173ffffffffffffffffffffffffffffffffffffffff021916908373ffffffffffffffffffffffffffffffffffffffff160217905550565b600060fb60009054906101000a900473ffffffffffffffffffffffffffffffffffffffff16905090565b600061124e6064611240605060fd60009054906101000a900473ffffffffffffffffffffffffffffffffffffffff1673ffffffffffffffffffffffffffffffffffffffff1663bcbe3f2288886040518363ffffffff1660e01b81526004016111e2929190614612565b60206040518083038186803b1580156111fa57600080fd5b505afa15801561120e573d6000803e3d6000fd5b505050506040513d601f19601f82011682018060405250810190611232919061408d565b61250090919063ffffffff16565b61251690919063ffffffff16565b905060006112816064611273606e670de0b6b3a764000061250090919063ffffffff16565b61251690919063ffffffff16565b90508082101561128f578091505b5092915050565b600060019054906101000a900460ff16806112bc575060008054906101000a900460ff16155b6112fb576040517f08c379a00000000000000000000000000000000000000000000000000000000081526004016112f29061493b565b60405180910390fd5b60008060019054906101000a900460ff16159050801561134b576001600060016101000a81548160ff02191690831515021790555060016000806101000a81548160ff0219169083151502179055505b611353612c82565b61135b612d6b565b611363612e54565b80156113845760008060016101000a81548160ff0219169083151502179055505b50565b60006060808360fb60009054906101000a900473ffffffffffffffffffffffffffffffffffffffff1673ffffffffffffffffffffffffffffffffffffffff1663a0f026ff826040518263ffffffff1660e01b81526004016113e891906145f7565b60206040518083038186803b15801561140057600080fd5b505afa158015611414573d6000803e3d6000fd5b505050506040513d601f19601f82011682018060405250810190611438919061403b565b611477576040517f08c379a000000000000000000000000000000000000000000000000000000000815260040161146e906148fb565b60405180910390fd5b600260c95414156114bd576040517f08c379a00000000000000000000000000000000000000000000000000000000081526004016114b4906149fb565b60405180910390fd5b600260c981905550600060fd60009054906101000a900473ffffffffffffffffffffffffffffffffffffffff1673ffffffffffffffffffffffffffffffffffffffff1663db3fabeb88886040518363ffffffff1660e01b8152600401611524929190614612565b60206040518083038186803b15801561153c57600080fd5b505afa158015611550573d6000803e3d6000fd5b505050506040513d601f19601f82011682018060405250810190611574919061408d565b9050600060fd60009054906101000a900473ffffffffffffffffffffffffffffffffffffffff1673ffffffffffffffffffffffffffffffffffffffff16634c90f22989896040518363ffffffff1660e01b81526004016115d5929190614612565b60206040518083038186803b1580156115ed57600080fd5b505afa158015611601573d6000803e3d6000fd5b505050506040513d601f19601f82011682018060405250810190611625919061408d565b905061163388888484612f35565b600060fd60009054906101000a900473ffffffffffffffffffffffffffffffffffffffff1673ffffffffffffffffffffffffffffffffffffffff166364d321b78a8a6040518363ffffffff1660e01b8152600401611692929190614612565b60206040518083038186803b1580156116aa57600080fd5b505afa1580156116be573d6000803e3d6000fd5b505050506040513d601f19601f820116820180604052508101906116e2919061408d565b9050600060fb60009054906101000a900473ffffffffffffffffffffffffffffffffffffffff1673ffffffffffffffffffffffffffffffffffffffff1663d02641a08a6040518263ffffffff1660e01b815260040161174191906145f7565b60206040518083038186803b15801561175957600080fd5b505afa15801561176d573d6000803e3d6000fd5b505050506040513d601f19601f82011682018060405250810190611791919061408d565b90506117a18a8a86868686612fcd565b97506117af8a8a8a8461323b565b80975081985050506117c58a8a84848c8c6132c3565b955050505050600160c981905550509250925092565b6000609760009054906101000a900473ffffffffffffffffffffffffffffffffffffffff16905090565b60008060fd60009054906101000a900473ffffffffffffffffffffffffffffffffffffffff1673ffffffffffffffffffffffffffffffffffffffff1663bcbe3f2284866040518363ffffffff1660e01b8152600401611865929190614612565b60206040518083038186803b15801561187d57600080fd5b505afa158015611891573d6000803e3d6000fd5b505050506040513d601f19601f820116820180604052508101906118b5919061408d565b9050600060fd60009054906101000a900473ffffffffffffffffffffffffffffffffffffffff1673ffffffffffffffffffffffffffffffffffffffff1663db3fabeb85876040518363ffffffff1660e01b8152600401611916929190614612565b60206040518083038186803b15801561192e57600080fd5b505afa158015611942573d6000803e3d6000fd5b505050506040513d601f19601f82011682018060405250810190611966919061408d565b9050600060fd60009054906101000a900473ffffffffffffffffffffffffffffffffffffffff1673ffffffffffffffffffffffffffffffffffffffff16634c90f22986886040518363ffffffff1660e01b81526004016119c7929190614612565b60206040518083038186803b1580156119df57600080fd5b505afa1580156119f3573d6000803e3d6000fd5b505050506040513d601f19601f82011682018060405250810190611a17919061408d565b90506000611a4883611a3a670de0b6b3a76400008561250090919063ffffffff16565b61251690919063ffffffff16565b9050838110611a8c576040517f08c379a0000000000000000000000000000000000000000000000000000000008152600401611a839061491b565b60405180910390fd5b6000670de0b6b3a76400009050611aa38789611179565b8211611bd757611ae46064611ad6611ac7606460fe54612c4e90919063ffffffff16565b8861250090919063ffffffff16565b61251690919063ffffffff16565b9450600060fd60009054906101000a900473ffffffffffffffffffffffffffffffffffffffff1673ffffffffffffffffffffffffffffffffffffffff166364d321b7898b6040518363ffffffff1660e01b8152600401611b45929190614612565b60206040518083038186803b158015611b5d57600080fd5b505afa158015611b71573d6000803e3d6000fd5b505050506040513d601f19601f82011682018060405250810190611b95919061408d565b9050611bb2670de0b6b3a764000084612c6490919063ffffffff16565b811115611bbf5782611bd3565b611bd28183612c4e90919063ffffffff16565b5b9150505b611be385858584611fd6565b9550600060fb60009054906101000a900473ffffffffffffffffffffffffffffffffffffffff1673ffffffffffffffffffffffffffffffffffffffff1663d02641a08a6040518263ffffffff1660e01b8152600401611c4291906145f7565b60206040518083038186803b158015611c5a57600080fd5b505afa158015611c6e573d6000803e3d6000fd5b505050506040513d601f19601f82011682018060405250810190611c92919061408d565b9050611cc181611cb3670de0b6b3a76400008a61250090919063ffffffff16565b61251690919063ffffffff16565b96505050505050509392505050565b611cd8612c7a565b73ffffffffffffffffffffffffffffffffffffffff16611cf66117db565b73ffffffffffffffffffffffffffffffffffffffff1614611d4c576040517f08c379a0000000000000000000000000000000000000000000000000000000008152600401611d439061499b565b60405180910390fd5b8060fb60006101000a81548173ffffffffffffffffffffffffffffffffffffffff021916908373ffffffffffffffffffffffffffffffffffffffff16021790555060fb60009054906101000a900473ffffffffffffffffffffffffffffffffffffffff1673ffffffffffffffffffffffffffffffffffffffff166361d027b36040518163ffffffff1660e01b815260040160206040518083038186803b158015611df557600080fd5b505afa158015611e09573d6000803e3d6000fd5b505050506040513d601f19601f82011682018060405250810190611e2d9190613e56565b60fc60006101000a81548173ffffffffffffffffffffffffffffffffffffffff021916908373ffffffffffffffffffffffffffffffffffffffff16021790555060fb60009054906101000a900473ffffffffffffffffffffffffffffffffffffffff1673ffffffffffffffffffffffffffffffffffffffff1663eb0a8b916040518163ffffffff1660e01b815260040160206040518083038186803b158015611ed557600080fd5b505afa158015611ee9573d6000803e3d6000fd5b505050506040513d601f19601f82011682018060405250810190611f0d9190613e2d565b60fd60006101000a81548173ffffffffffffffffffffffffffffffffffffffff021916908373ffffffffffffffffffffffffffffffffffffffff16021790555050565b611f58612c7a565b73ffffffffffffffffffffffffffffffffffffffff16611f766117db565b73ffffffffffffffffffffffffffffffffffffffff1614611fcc576040517f08c379a0000000000000000000000000000000000000000000000000000000008152600401611fc39061499b565b60405180910390fd5b8060fe8190555050565b6000670de0b6b3a76400008511612022576040517f08c379a00000000000000000000000000000000000000000000000000000000081526004016120199061489b565b60405180910390fd5b6000612063612042670de0b6b3a76400008661250090919063ffffffff16565b612055888861250090919063ffffffff16565b612c6490919063ffffffff16565b9050600061207a8488612c6490919063ffffffff16565b905061208f818361251690919063ffffffff16565b92505050949350505050565b6120a3612c7a565b73ffffffffffffffffffffffffffffffffffffffff166120c16117db565b73ffffffffffffffffffffffffffffffffffffffff1614612117576040517f08c379a000000000000000000000000000000000000000000000000000000000815260040161210e9061499b565b60405180910390fd5b600073ffffffffffffffffffffffffffffffffffffffff168173ffffffffffffffffffffffffffffffffffffffff161415612187576040517f08c379a000000000000000000000000000000000000000000000000000000000815260040161217e9061487b565b60405180910390fd5b8073ffffffffffffffffffffffffffffffffffffffff16609760009054906101000a900473ffffffffffffffffffffffffffffffffffffffff1673ffffffffffffffffffffffffffffffffffffffff167f8be0079c531659141344cd1fd0a4f28419497f9722a3daafe3b4186f6b6457e060405160405180910390a380609760006101000a81548173ffffffffffffffffffffffffffffffffffffffff021916908373ffffffffffffffffffffffffffffffffffffffff16021790555050565b60fb60009054906101000a900473ffffffffffffffffffffffffffffffffffffffff1681565b612275612c7a565b73ffffffffffffffffffffffffffffffffffffffff166122936117db565b73ffffffffffffffffffffffffffffffffffffffff16146122e9576040517f08c379a00000000000000000000000000000000000000000000000000000000081526004016122e09061499b565b60405180910390fd5b50565b60006122f66133ec565b905061230184613443565b60008351118061230e5750815b1561231f5761231d84846134fc565b505b600061234d7f4910fdfa16fed3260ed0e7147f7cc6da11a60208b5b9406d12a635614ffd914360001b6135e0565b90508060000160009054906101000a900460ff166124f95760018160000160006101000a81548160ff021916908315150217905550612419858360405160240161239791906145f7565b6040516020818303038152906040527f3659cfe6000000000000000000000000000000000000000000000000000000007bffffffffffffffffffffffffffffffffffffffffffffffffffffffff19166020820180517bffffffffffffffffffffffffffffffffffffffffffffffffffffffff83818316178352505050506134fc565b5060008160000160006101000a81548160ff02191690831515021790555061243f6133ec565b73ffffffffffffffffffffffffffffffffffffffff168273ffffffffffffffffffffffffffffffffffffffff16146124ac576040517f08c379a00000000000000000000000000000000000000000000000000000000081526004016124a39061485b565b60405180910390fd5b6124b585613443565b8473ffffffffffffffffffffffffffffffffffffffff167fbc7cd75a20ee27fd9adebab32041f755214dbc6bffa90cc0225b39da2e5c2d3b60405160405180910390a25b5050505050565b6000818361250e9190614c54565b905092915050565b600081836125249190614c23565b905092915050565b6060806000858573ffffffffffffffffffffffffffffffffffffffff166370a08231336040518263ffffffff1660e01b815260040161256b91906145f7565b60206040518083038186803b15801561258357600080fd5b505afa158015612597573d6000803e3d6000fd5b505050506040513d601f19601f820116820180604052508101906125bb919061408d565b10156125fc576040517f08c379a00000000000000000000000000000000000000000000000000000000081526004016125f39061495b565b60405180910390fd5b6000612609878787611805565b90506000811161264e576040517f08c379a00000000000000000000000000000000000000000000000000000000081526004016126459061495b565b60405180910390fd5b8087111561265a578096505b8660fb60009054906101000a900473ffffffffffffffffffffffffffffffffffffffff1673ffffffffffffffffffffffffffffffffffffffff1663498b5ae887896040518363ffffffff1660e01b81526004016126b8929190614612565b60206040518083038186803b1580156126d057600080fd5b505afa1580156126e4573d6000803e3d6000fd5b505050506040513d601f19601f82011682018060405250810190612708919061408d565b1015612749576040517f08c379a00000000000000000000000000000000000000000000000000000000081526004016127409061495b565b60405180910390fd5b50612821670de0b6b3a76400006128138860fb60009054906101000a900473ffffffffffffffffffffffffffffffffffffffff1673ffffffffffffffffffffffffffffffffffffffff1663d02641a08a6040518263ffffffff1660e01b81526004016127b591906145f7565b60206040518083038186803b1580156127cd57600080fd5b505afa1580156127e1573d6000803e3d6000fd5b505050506040513d601f19601f82011682018060405250810190612805919061408d565b61250090919063ffffffff16565b61251690919063ffffffff16565b9050600060fd60009054906101000a900473ffffffffffffffffffffffffffffffffffffffff1673ffffffffffffffffffffffffffffffffffffffff1663234ab3e28688856040518463ffffffff1660e01b81526004016128849392919061468e565b60006040518083038186803b15801561289c57600080fd5b505afa1580156128b0573d6000803e3d6000fd5b505050506040513d6000823e3d601f19601f820116820180604052508101906128d99190613fbc565b80935081965082955050505080612925576040517f08c379a000000000000000000000000000000000000000000000000000000000815260040161291c906149db565b60405180910390fd5b8573ffffffffffffffffffffffffffffffffffffffff16639dc29fac33896040518363ffffffff1660e01b815260040161296092919061476b565b600060405180830381600087803b15801561297a57600080fd5b505af115801561298e573d6000803e3d6000fd5b5050505060fb60009054906101000a900473ffffffffffffffffffffffffffffffffffffffff1673ffffffffffffffffffffffffffffffffffffffff1663877034f186898960006040518563ffffffff1660e01b81526004016129f49493929190614794565b600060405180830381600087803b158015612a0e57600080fd5b505af1158015612a22573d6000803e3d6000fd5b5050505050600060fb60009054906101000a900473ffffffffffffffffffffffffffffffffffffffff1673ffffffffffffffffffffffffffffffffffffffff1663294d499e6040518163ffffffff1660e01b815260040160006040518083038186803b158015612a9157600080fd5b505afa158015612aa5573d6000803e3d6000fd5b505050506040513d6000823e3d601f19601f82011682018060405250810190612ace9190613f0f565b905060005b8151811015612c045760fc60009054906101000a900473ffffffffffffffffffffffffffffffffffffffff1673ffffffffffffffffffffffffffffffffffffffff166358166d2487848481518110612b54577f4e487b7100000000000000000000000000000000000000000000000000000000600052603260045260246000fd5b602002602001015133898681518110612b96577f4e487b7100000000000000000000000000000000000000000000000000000000600052603260045260246000fd5b60200260200101518c6040518663ffffffff1660e01b8152600401612bbf95949392919061463b565b600060405180830381600087803b158015612bd957600080fd5b505af1158015612bed573d6000803e3d6000fd5b505050508080612bfc90614dd3565b915050612ad3565b507fcc1d23f3064dc189f0e66b9a2967a6af88c329702d8d1b8154af088427585a9d8587898787604051612c3c95949392919061470a565b60405180910390a15093509350939050565b60008183612c5c9190614bcd565b905092915050565b60008183612c729190614cae565b905092915050565b600033905090565b600060019054906101000a900460ff1680612ca8575060008054906101000a900460ff16155b612ce7576040517f08c379a0000000000000000000000000000000000000000000000000000000008152600401612cde9061493b565b60405180910390fd5b60008060019054906101000a900460ff161590508015612d37576001600060016101000a81548160ff02191690831515021790555060016000806101000a81548160ff0219169083151502179055505b612d3f6135ea565b612d476136c3565b8015612d685760008060016101000a81548160ff0219169083151502179055505b50565b600060019054906101000a900460ff1680612d91575060008054906101000a900460ff16155b612dd0576040517f08c379a0000000000000000000000000000000000000000000000000000000008152600401612dc79061493b565b60405180910390fd5b60008060019054906101000a900460ff161590508015612e20576001600060016101000a81548160ff02191690831515021790555060016000806101000a81548160ff0219169083151502179055505b612e2861379c565b612e30613875565b8015612e515760008060016101000a81548160ff0219169083151502179055505b50565b600060019054906101000a900460ff1680612e7a575060008054906101000a900460ff16155b612eb9576040517f08c379a0000000000000000000000000000000000000000000000000000000008152600401612eb09061493b565b60405180910390fd5b60008060019054906101000a900460ff161590508015612f09576001600060016101000a81548160ff02191690831515021790555060016000806101000a81548160ff0219169083151502179055505b612f116139f7565b8015612f325760008060016101000a81548160ff0219169083151502179055505b50565b6000612f6483612f56670de0b6b3a76400008561250090919063ffffffff16565b61251690919063ffffffff16565b9050612f708585611179565b8111158015612f875750670de0b6b3a76400008110155b612fc6576040517f08c379a0000000000000000000000000000000000000000000000000000000008152600401612fbd9061491b565b60405180910390fd5b5050505050565b6000806130b760646130a9612fee606460fe54612c4e90919063ffffffff16565b60fd60009054906101000a900473ffffffffffffffffffffffffffffffffffffffff1673ffffffffffffffffffffffffffffffffffffffff1663bcbe3f228d8d6040518363ffffffff1660e01b815260040161304b929190614612565b60206040518083038186803b15801561306357600080fd5b505afa158015613077573d6000803e3d6000fd5b505050506040513d601f19601f8201168201806040525081019061309b919061408d565b61250090919063ffffffff16565b61251690919063ffffffff16565b90506000613102670de0b6b3a76400006130f4896130e6670de0b6b3a76400008b61250090919063ffffffff16565b61251690919063ffffffff16565b612c6490919063ffffffff16565b905080851115613110578094505b61316284613154670de0b6b3a7640000613146868c8c6131418d670de0b6b3a7640000612c4e90919063ffffffff16565b611fd6565b61250090919063ffffffff16565b61251690919063ffffffff16565b9250828873ffffffffffffffffffffffffffffffffffffffff166370a08231336040518263ffffffff1660e01b815260040161319e91906145f7565b60206040518083038186803b1580156131b657600080fd5b505afa1580156131ca573d6000803e3d6000fd5b505050506040513d601f19601f820116820180604052508101906131ee919061408d565b101561322f576040517f08c379a0000000000000000000000000000000000000000000000000000000008152600401613226906148db565b60405180910390fd5b50509695505050505050565b606080600061324b85878961252c565b809350819550829450505050613284670de0b6b3a7640000613276868861250090919063ffffffff16565b61251690919063ffffffff16565b81146132b9577f4e487b7100000000000000000000000000000000000000000000000000000000600052600160045260246000fd5b5094509492505050565b60608061331f670de0b6b3a764000061331187613303670de0b6b3a76400006132f58c8b61250090919063ffffffff16565b61251690919063ffffffff16565b61250090919063ffffffff16565b61251690919063ffffffff16565b935060fc60009054906101000a900473ffffffffffffffffffffffffffffffffffffffff1673ffffffffffffffffffffffffffffffffffffffff1663337b219a8933878b6040518563ffffffff1660e01b815260040161338294939291906146c5565b600060405180830381600087803b15801561339c57600080fd5b505af11580156133b0573d6000803e3d6000fd5b505050506040513d6000823e3d601f19601f820116820180604052508101906133d99190613f50565b8093508192505050509695505050505050565b600061341a7f360894a13ba1a3210667c828492db98dca3e2076cc3735a920a3ca505d382bbc60001b613ad8565b60000160009054906101000a900473ffffffffffffffffffffffffffffffffffffffff16905090565b61344c81613ae2565b61348b576040517f08c379a00000000000000000000000000000000000000000000000000000000081526004016134829061497b565b60405180910390fd5b806134b87f360894a13ba1a3210667c828492db98dca3e2076cc3735a920a3ca505d382bbc60001b613ad8565b60000160006101000a81548173ffffffffffffffffffffffffffffffffffffffff021916908373ffffffffffffffffffffffffffffffffffffffff16021790555050565b606061350783613ae2565b613546576040517f08c379a000000000000000000000000000000000000000000000000000000000815260040161353d906149bb565b60405180910390fd5b6000808473ffffffffffffffffffffffffffffffffffffffff168460405161356e91906145e0565b600060405180830381855af49150503d80600081146135a9576040519150601f19603f3d011682016040523d82523d6000602084013e6135ae565b606091505b50915091506135d6828260405180606001604052806027815260200161523960279139613af5565b9250505092915050565b6000819050919050565b600060019054906101000a900460ff1680613610575060008054906101000a900460ff16155b61364f576040517f08c379a00000000000000000000000000000000000000000000000000000000081526004016136469061493b565b60405180910390fd5b60008060019054906101000a900460ff16159050801561369f576001600060016101000a81548160ff02191690831515021790555060016000806101000a81548160ff0219169083151502179055505b80156136c05760008060016101000a81548160ff0219169083151502179055505b50565b600060019054906101000a900460ff16806136e9575060008054906101000a900460ff16155b613728576040517f08c379a000000000000000000000000000000000000000000000000000000000815260040161371f9061493b565b60405180910390fd5b60008060019054906101000a900460ff161590508015613778576001600060016101000a81548160ff02191690831515021790555060016000806101000a81548160ff0219169083151502179055505b80156137995760008060016101000a81548160ff0219169083151502179055505b50565b600060019054906101000a900460ff16806137c2575060008054906101000a900460ff16155b613801576040517f08c379a00000000000000000000000000000000000000000000000000000000081526004016137f89061493b565b60405180910390fd5b60008060019054906101000a900460ff161590508015613851576001600060016101000a81548160ff02191690831515021790555060016000806101000a81548160ff0219169083151502179055505b80156138725760008060016101000a81548160ff0219169083151502179055505b50565b600060019054906101000a900460ff168061389b575060008054906101000a900460ff16155b6138da576040517f08c379a00000000000000000000000000000000000000000000000000000000081526004016138d19061493b565b60405180910390fd5b60008060019054906101000a900460ff16159050801561392a576001600060016101000a81548160ff02191690831515021790555060016000806101000a81548160ff0219169083151502179055505b6000613934612c7a565b905080609760006101000a81548173ffffffffffffffffffffffffffffffffffffffff021916908373ffffffffffffffffffffffffffffffffffffffff1602179055508073ffffffffffffffffffffffffffffffffffffffff16600073ffffffffffffffffffffffffffffffffffffffff167f8be0079c531659141344cd1fd0a4f28419497f9722a3daafe3b4186f6b6457e060405160405180910390a35080156139f45760008060016101000a81548160ff0219169083151502179055505b50565b600060019054906101000a900460ff1680613a1d575060008054906101000a900460ff16155b613a5c576040517f08c379a0000000000000000000000000000000000000000000000000000000008152600401613a539061493b565b60405180910390fd5b60008060019054906101000a900460ff161590508015613aac576001600060016101000a81548160ff02191690831515021790555060016000806101000a81548160ff0219169083151502179055505b600160c9819055508015613ad55760008060016101000a81548160ff0219169083151502179055505b50565b6000819050919050565b600080823b905060008111915050919050565b60608315613b0557829050613b55565b600083511115613b185782518084602001fd5b816040517f08c379a0000000000000000000000000000000000000000000000000000000008152600401613b4c9190614839565b60405180910390fd5b9392505050565b6000613b6f613b6a84614aa0565b614a7b565b90508083825260208201905082856020860282011115613b8e57600080fd5b60005b85811015613bbe5781613ba48882613cde565b845260208401935060208301925050600181019050613b91565b5050509392505050565b6000613bdb613bd684614aa0565b614a7b565b90508083825260208201905082856020860282011115613bfa57600080fd5b60005b85811015613c2a5781613c108882613cf3565b845260208401935060208301925050600181019050613bfd565b5050509392505050565b6000613c47613c4284614acc565b614a7b565b90508083825260208201905082856020860282011115613c6657600080fd5b60005b85811015613c965781613c7c8882613def565b845260208401935060208301925050600181019050613c69565b5050509392505050565b6000613cb3613cae84614af8565b614a7b565b905082815260208101848484011115613ccb57600080fd5b613cd6848285614d60565b509392505050565b600081359050613ced816151dc565b92915050565b600081519050613d02816151dc565b92915050565b600081519050613d17816151f3565b92915050565b600082601f830112613d2e57600080fd5b8135613d3e848260208601613b5c565b91505092915050565b600082601f830112613d5857600080fd5b8151613d68848260208601613bc8565b91505092915050565b600082601f830112613d8257600080fd5b8151613d92848260208601613c34565b91505092915050565b600081519050613daa8161520a565b92915050565b600082601f830112613dc157600080fd5b8135613dd1848260208601613ca0565b91505092915050565b600081359050613de981615221565b92915050565b600081519050613dfe81615221565b92915050565b600060208284031215613e1657600080fd5b6000613e2484828501613cde565b91505092915050565b600060208284031215613e3f57600080fd5b6000613e4d84828501613cf3565b91505092915050565b600060208284031215613e6857600080fd5b6000613e7684828501613d08565b91505092915050565b60008060408385031215613e9257600080fd5b6000613ea085828601613cde565b9250506020613eb185828601613cde565b9150509250929050565b60008060408385031215613ece57600080fd5b6000613edc85828601613cde565b925050602083013567ffffffffffffffff811115613ef957600080fd5b613f0585828601613db0565b9150509250929050565b600060208284031215613f2157600080fd5b600082015167ffffffffffffffff811115613f3b57600080fd5b613f4784828501613d47565b91505092915050565b60008060408385031215613f6357600080fd5b600083015167ffffffffffffffff811115613f7d57600080fd5b613f8985828601613d47565b925050602083015167ffffffffffffffff811115613fa657600080fd5b613fb285828601613d71565b9150509250929050565b600080600060608486031215613fd157600080fd5b600084015167ffffffffffffffff811115613feb57600080fd5b613ff786828701613d47565b935050602084015167ffffffffffffffff81111561401457600080fd5b61402086828701613d71565b925050604061403186828701613d9b565b9150509250925092565b60006020828403121561404d57600080fd5b600061405b84828501613d9b565b91505092915050565b60006020828403121561407657600080fd5b600061408484828501613dda565b91505092915050565b60006020828403121561409f57600080fd5b60006140ad84828501613def565b91505092915050565b6000806000606084860312156140cb57600080fd5b60006140d986828701613dda565b93505060206140ea86828701613cde565b92505060406140fb86828701613cde565b9150509250925092565b6000806000806080858703121561411b57600080fd5b600061412987828801613dda565b945050602061413a87828801613cde565b935050604061414b87828801613cde565b925050606061415c87828801613dda565b91505092959194509250565b6000806000806080858703121561417e57600080fd5b600061418c87828801613dda565b945050602061419d87828801613cde565b935050604085013567ffffffffffffffff8111156141ba57600080fd5b6141c687828801613d1d565b92505060606141d787828801613dda565b91505092959194509250565b600080600080608085870312156141f957600080fd5b600061420787828801613dda565b945050602061421887828801613dda565b935050604061422987828801613dda565b925050606061423a87828801613dda565b91505092959194509250565b60006142528383614276565b60208301905092915050565b600061426a83836145c2565b60208301905092915050565b61427f81614ce2565b82525050565b61428e81614ce2565b82525050565b600061429f82614b49565b6142a98185614b8f565b93506142b483614b29565b8060005b838110156142e55781516142cc8882614246565b97506142d783614b75565b9250506001810190506142b8565b5085935050505092915050565b60006142fd82614b54565b6143078185614ba0565b935061431283614b39565b8060005b8381101561434357815161432a888261425e565b975061433583614b82565b925050600181019050614316565b5085935050505092915050565b61435981614d06565b82525050565b600061436a82614b5f565b6143748185614bb1565b9350614384818560208601614d6f565b80840191505092915050565b61439981614d3c565b82525050565b60006143aa82614b6a565b6143b48185614bbc565b93506143c4818560208601614d6f565b6143cd81614ea9565b840191505092915050565b60006143e5602f83614bbc565b91506143f082614eba565b604082019050919050565b6000614408602683614bbc565b915061441382614f09565b604082019050919050565b600061442b601183614bbc565b915061443682614f58565b602082019050919050565b600061444e602183614bbc565b915061445982614f81565b604082019050919050565b6000614471601483614bbc565b915061447c82614fd0565b602082019050919050565b6000614494600283614bbc565b915061449f82614ff9565b602082019050919050565b60006144b7600283614bbc565b91506144c282615022565b602082019050919050565b60006144da602e83614bbc565b91506144e58261504b565b604082019050919050565b60006144fd600283614bbc565b91506145088261509a565b602082019050919050565b6000614520602d83614bbc565b915061452b826150c3565b604082019050919050565b6000614543602083614bbc565b915061454e82615112565b602082019050919050565b6000614566602683614bbc565b91506145718261513b565b604082019050919050565b6000614589600283614bbc565b91506145948261518a565b602082019050919050565b60006145ac601f83614bbc565b91506145b7826151b3565b602082019050919050565b6145cb81614d32565b82525050565b6145da81614d32565b82525050565b60006145ec828461435f565b915081905092915050565b600060208201905061460c6000830184614285565b92915050565b60006040820190506146276000830185614285565b6146346020830184614285565b9392505050565b600060a0820190506146506000830188614285565b61465d6020830187614285565b61466a6040830186614285565b61467760608301856145d1565b6146846080830184614285565b9695505050505050565b60006060820190506146a36000830186614285565b6146b06020830185614285565b6146bd60408301846145d1565b949350505050565b60006080820190506146da6000830187614285565b6146e76020830186614285565b6146f460408301856145d1565b6147016060830184614285565b95945050505050565b600060a08201905061471f6000830188614285565b61472c6020830187614285565b61473960408301866145d1565b818103606083015261474b81856142f2565b9050818103608083015261475f8184614294565b90509695505050505050565b60006040820190506147806000830185614285565b61478d60208301846145d1565b9392505050565b60006080820190506147a96000830187614285565b6147b660208301866145d1565b6147c36040830185614285565b6147d06060830184614350565b95945050505050565b600060608201905081810360008301526147f381866142f2565b905081810360208301526148078185614294565b905061481660408301846145d1565b949350505050565b60006020820190506148336000830184614390565b92915050565b60006020820190508181036000830152614853818461439f565b905092915050565b60006020820190508181036000830152614874816143d8565b9050919050565b60006020820190508181036000830152614894816143fb565b9050919050565b600060208201905081810360008301526148b48161441e565b9050919050565b600060208201905081810360008301526148d481614441565b9050919050565b600060208201905081810360008301526148f481614464565b9050919050565b6000602082019050818103600083015261491481614487565b9050919050565b60006020820190508181036000830152614934816144aa565b9050919050565b60006020820190508181036000830152614954816144cd565b9050919050565b60006020820190508181036000830152614974816144f0565b9050919050565b6000602082019050818103600083015261499481614513565b9050919050565b600060208201905081810360008301526149b481614536565b9050919050565b600060208201905081810360008301526149d481614559565b9050919050565b600060208201905081810360008301526149f48161457c565b9050919050565b60006020820190508181036000830152614a148161459f565b9050919050565b6000602082019050614a3060008301846145d1565b92915050565b6000606082019050614a4b60008301866145d1565b8181036020830152614a5d8185614294565b90508181036040830152614a7181846142f2565b9050949350505050565b6000614a85614a96565b9050614a918282614da2565b919050565b6000604051905090565b600067ffffffffffffffff821115614abb57614aba614e7a565b5b602082029050602081019050919050565b600067ffffffffffffffff821115614ae757614ae6614e7a565b5b602082029050602081019050919050565b600067ffffffffffffffff821115614b1357614b12614e7a565b5b614b1c82614ea9565b9050602081019050919050565b6000819050602082019050919050565b6000819050602082019050919050565b600081519050919050565b600081519050919050565b600081519050919050565b600081519050919050565b6000602082019050919050565b6000602082019050919050565b600082825260208201905092915050565b600082825260208201905092915050565b600081905092915050565b600082825260208201905092915050565b6000614bd882614d32565b9150614be383614d32565b9250827fffffffffffffffffffffffffffffffffffffffffffffffffffffffffffffffff03821115614c1857614c17614e1c565b5b828201905092915050565b6000614c2e82614d32565b9150614c3983614d32565b925082614c4957614c48614e4b565b5b828204905092915050565b6000614c5f82614d32565b9150614c6a83614d32565b9250817fffffffffffffffffffffffffffffffffffffffffffffffffffffffffffffffff0483118215151615614ca357614ca2614e1c565b5b828202905092915050565b6000614cb982614d32565b9150614cc483614d32565b925082821015614cd757614cd6614e1c565b5b828203905092915050565b6000614ced82614d12565b9050919050565b6000614cff82614d12565b9050919050565b60008115159050919050565b600073ffffffffffffffffffffffffffffffffffffffff82169050919050565b6000819050919050565b6000614d4782614d4e565b9050919050565b6000614d5982614d12565b9050919050565b82818337600083830152505050565b60005b83811015614d8d578082015181840152602081019050614d72565b83811115614d9c576000848401525b50505050565b614dab82614ea9565b810181811067ffffffffffffffff82111715614dca57614dc9614e7a565b5b80604052505050565b6000614dde82614d32565b91507fffffffffffffffffffffffffffffffffffffffffffffffffffffffffffffffff821415614e1157614e10614e1c565b5b600182019050919050565b7f4e487b7100000000000000000000000000000000000000000000000000000000600052601160045260246000fd5b7f4e487b7100000000000000000000000000000000000000000000000000000000600052601260045260246000fd5b7f4e487b7100000000000000000000000000000000000000000000000000000000600052604160045260246000fd5b6000601f19601f8301169050919050565b7f45524331393637557067726164653a207570677261646520627265616b73206660008201527f7572746865722075706772616465730000000000000000000000000000000000602082015250565b7f4f776e61626c653a206e6577206f776e657220697320746865207a65726f206160008201527f6464726573730000000000000000000000000000000000000000000000000000602082015250565b7f496e76616c696420435220746172676574000000000000000000000000000000600082015250565b7f5472616e73616374696f6e2068617320657863656564656420646561646c696e60008201527f6500000000000000000000000000000000000000000000000000000000000000602082015250565b7f496e73756666696369656e742062616c616e6365000000000000000000000000600082015250565b7f4946000000000000000000000000000000000000000000000000000000000000600082015250565b7f4352000000000000000000000000000000000000000000000000000000000000600082015250565b7f496e697469616c697a61626c653a20636f6e747261637420697320616c72656160008201527f647920696e697469616c697a6564000000000000000000000000000000000000602082015250565b7f4941000000000000000000000000000000000000000000000000000000000000600082015250565b7f455243313936373a206e657720696d706c656d656e746174696f6e206973206e60008201527f6f74206120636f6e747261637400000000000000000000000000000000000000602082015250565b7f4f776e61626c653a2063616c6c6572206973206e6f7420746865206f776e6572600082015250565b7f416464726573733a2064656c65676174652063616c6c20746f206e6f6e2d636f60008201527f6e74726163740000000000000000000000000000000000000000000000000000602082015250565b7f4341000000000000000000000000000000000000000000000000000000000000600082015250565b7f5265656e7472616e637947756172643a207265656e7472616e742063616c6c00600082015250565b6151e581614ce2565b81146151f057600080fd5b50565b6151fc81614cf4565b811461520757600080fd5b50565b61521381614d06565b811461521e57600080fd5b50565b61522a81614d32565b811461523557600080fd5b5056fe416464726573733a206c6f772d6c6576656c2064656c65676174652063616c6c206661696c6564a2646970667358221220998982a0354d429fd3547257375a7f5dcd8333e2c8c4f42dae8ae0bafe2d5cb264736f6c63430008030033",
  "linkReferences": {},
  "deployedLinkReferences": {}
}