{
  "_format": "hh-sol-artifact-1",
  "contractName": "Liquidator",
  "sourceName": "contracts/Bank/Liquidator.sol",
  "abi": [
    {
      "anonymous": false,
      "inputs": [
        {
          "indexed": false,
          "internalType": "address",
          "name": "previousAdmin",
          "type": "address"
        },
        {
          "indexed": false,
          "internalType": "address",
          "name": "newAdmin",
          "type": "address"
        }
      ],
      "name": "AdminChanged",
      "type": "event"
    },
    {
      "anonymous": false,
      "inputs": [
        {
          "indexed": true,
          "internalType": "address",
          "name": "beacon",
          "type": "address"
        }
      ],
      "name": "BeaconUpgraded",
      "type": "event"
    },
    {
      "anonymous": false,
      "inputs": [
        {
          "indexed": false,
          "internalType": "address",
          "name": "from",
          "type": "address"
        },
        {
          "indexed": false,
          "internalType": "address",
          "name": "token",
          "type": "address"
        },
        {
          "indexed": false,
          "internalType": "uint256",
          "name": "tokenAmount",
          "type": "uint256"
        },
        {
          "indexed": false,
          "internalType": "uint256[]",
          "name": "collateralAmounts",
          "type": "uint256[]"
        },
        {
          "indexed": false,
          "internalType": "address[]",
          "name": "collateralTypes",
          "type": "address[]"
        }
      ],
      "name": "BuyCollateral",
      "type": "event"
    },
    {
      "anonymous": false,
      "inputs": [
        {
          "indexed": true,
          "internalType": "address",
          "name": "previousOwner",
          "type": "address"
        },
        {
          "indexed": true,
          "internalType": "address",
          "name": "newOwner",
          "type": "address"
        }
      ],
      "name": "OwnershipTransferred",
      "type": "event"
    },
    {
      "anonymous": false,
      "inputs": [
        {
          "indexed": true,
          "internalType": "address",
          "name": "implementation",
          "type": "address"
        }
      ],
      "name": "Upgraded",
      "type": "event"
    },
    {
      "inputs": [
        {
          "internalType": "uint256",
          "name": "amount",
          "type": "uint256"
        },
        {
          "internalType": "address",
          "name": "token",
          "type": "address"
        },
        {
          "internalType": "address",
          "name": "from",
          "type": "address"
        },
        {
          "internalType": "uint256",
          "name": "deadline",
          "type": "uint256"
        }
      ],
      "name": "buyCollateral",
      "outputs": [
        {
          "internalType": "uint256[]",
          "name": "collateralAmounts",
          "type": "uint256[]"
        },
        {
          "internalType": "address[]",
          "name": "collateralTypes",
          "type": "address[]"
        },
        {
          "internalType": "uint256",
          "name": "etherAmount",
          "type": "uint256"
        }
      ],
      "stateMutability": "nonpayable",
      "type": "function"
    },
    {
      "inputs": [
        {
          "internalType": "uint256",
          "name": "amount",
          "type": "uint256"
        },
        {
          "internalType": "address",
          "name": "token",
          "type": "address"
        },
        {
          "internalType": "address[]",
          "name": "from",
          "type": "address[]"
        },
        {
          "internalType": "uint256",
          "name": "deadline",
          "type": "uint256"
        }
      ],
      "name": "buyCollateralFromManyVaults",
      "outputs": [
        {
          "internalType": "uint256[]",
          "name": "collateralAmounts",
          "type": "uint256[]"
        },
        {
          "internalType": "address[]",
          "name": "collateralTypes",
          "type": "address[]"
        },
        {
          "internalType": "uint256",
          "name": "etherAmount",
          "type": "uint256"
        }
      ],
      "stateMutability": "nonpayable",
      "type": "function"
    },
    {
      "inputs": [],
      "name": "handle",
      "outputs": [
        {
          "internalType": "contract IHandle",
          "name": "",
          "type": "address"
        }
      ],
      "stateMutability": "view",
      "type": "function"
    },
    {
      "inputs": [],
      "name": "handleAddress",
      "outputs": [
        {
          "internalType": "address",
          "name": "",
          "type": "address"
        }
      ],
      "stateMutability": "view",
      "type": "function"
    },
    {
      "inputs": [],
      "name": "initialize",
      "outputs": [],
      "stateMutability": "nonpayable",
      "type": "function"
    },
    {
      "inputs": [],
      "name": "owner",
      "outputs": [
        {
          "internalType": "address",
          "name": "",
          "type": "address"
        }
      ],
      "stateMutability": "view",
      "type": "function"
    },
    {
      "inputs": [],
      "name": "renounceOwnership",
      "outputs": [],
      "stateMutability": "nonpayable",
      "type": "function"
    },
    {
      "inputs": [
        {
          "internalType": "address",
          "name": "_handle",
          "type": "address"
        }
      ],
      "name": "setHandleContract",
      "outputs": [],
      "stateMutability": "nonpayable",
      "type": "function"
    },
    {
      "inputs": [
        {
          "internalType": "address",
          "name": "newOwner",
          "type": "address"
        }
      ],
      "name": "transferOwnership",
      "outputs": [],
      "stateMutability": "nonpayable",
      "type": "function"
    },
    {
      "inputs": [
        {
          "internalType": "address",
          "name": "newImplementation",
          "type": "address"
        }
      ],
      "name": "upgradeTo",
      "outputs": [],
      "stateMutability": "nonpayable",
      "type": "function"
    },
    {
      "inputs": [
        {
          "internalType": "address",
          "name": "newImplementation",
          "type": "address"
        },
        {
          "internalType": "bytes",
          "name": "data",
          "type": "bytes"
        }
      ],
      "name": "upgradeToAndCall",
      "outputs": [],
      "stateMutability": "payable",
      "type": "function"
    }
  ],
  "bytecode": "0x608060405234801561001057600080fd5b50613e37806100206000396000f3fe60806040526004361061009c5760003560e01c806374bf578b1161006457806374bf578b1461017b5780638129fc1c146101a65780638da5cb5b146101bd5780639b1c414f146101e8578063f2fde38b14610211578063fd0da0991461023a5761009c565b80633659cfe6146100a15780633ffd9208146100ca57806343cc3946146101095780634f1ef28614610148578063715018a614610164575b600080fd5b3480156100ad57600080fd5b506100c860048036038101906100c39190612d47565b610265565b005b3480156100d657600080fd5b506100f160048036038101906100ec9190612f8b565b61028c565b604051610100939291906134c8565b60405180910390f35b34801561011557600080fd5b50610130600480360381019061012b9190612f28565b610cf6565b60405161013f939291906134c8565b60405180910390f35b610162600480360381019061015d9190612dc2565b610e47565b005b34801561017057600080fd5b50610179610e60565b005b34801561018757600080fd5b50610190610f9d565b60405161019d919061332b565b60405180910390f35b3480156101b257600080fd5b506101bb610fc7565b005b3480156101c957600080fd5b506101d26110b8565b6040516101df919061332b565b60405180910390f35b3480156101f457600080fd5b5061020f600480360381019061020a9190612d47565b6110e2565b005b34801561021d57600080fd5b5061023860048036038101906102339190612d47565b611362565b005b34801561024657600080fd5b5061024f61150e565b60405161025c919061350d565b60405180910390f35b61026e81611534565b610289816040518060200160405280600081525060006115b3565b50565b606080600083804211156102d5576040517f08c379a00000000000000000000000000000000000000000000000000000000081526004016102cc9061358a565b60405180910390fd5b8660fb60009054906101000a900473ffffffffffffffffffffffffffffffffffffffff1673ffffffffffffffffffffffffffffffffffffffff1663a0f026ff826040518263ffffffff1660e01b8152600401610331919061332b565b60206040518083038186803b15801561034957600080fd5b505afa15801561035d573d6000803e3d6000fd5b505050506040513d601f19601f820116820180604052508101906103819190612ed6565b6103c0576040517f08c379a00000000000000000000000000000000000000000000000000000000081526004016103b7906135aa565b60405180910390fd5b60fb60009054906101000a900473ffffffffffffffffffffffffffffffffffffffff1673ffffffffffffffffffffffffffffffffffffffff1663294d499e6040518163ffffffff1660e01b815260040160006040518083038186803b15801561042857600080fd5b505afa15801561043c573d6000803e3d6000fd5b505050506040513d6000823e3d601f19601f820116820180604052508101906104659190612e16565b9350835167ffffffffffffffff8111156104a8577f4e487b7100000000000000000000000000000000000000000000000000000000600052604160045260246000fd5b6040519080825280602002602001820160405280156104d65781602001602082028036833780820191505090505b509450600092506000600467ffffffffffffffff811115610520577f4e487b7100000000000000000000000000000000000000000000000000000000600052604160045260246000fd5b60405190808252806020026020018201604052801561054e5781602001602082028036833780820191505090505b50905060fb60009054906101000a900473ffffffffffffffffffffffffffffffffffffffff1673ffffffffffffffffffffffffffffffffffffffff1663d02641a08a6040518263ffffffff1660e01b81526004016105ac919061332b565b60206040518083038186803b1580156105c457600080fd5b505afa1580156105d8573d6000803e3d6000fd5b505050506040513d601f19601f820116820180604052508101906105fc9190612eff565b81600081518110610636577f4e487b7100000000000000000000000000000000000000000000000000000000600052603260045260246000fd5b60200260200101818152505061075260fd60009054906101000a900473ffffffffffffffffffffffffffffffffffffffff1673ffffffffffffffffffffffffffffffffffffffff166380ef72a98b6040518263ffffffff1660e01b81526004016106a0919061332b565b60206040518083038186803b1580156106b857600080fd5b505afa1580156106cc573d6000803e3d6000fd5b505050506040513d601f19601f820116820180604052508101906106f09190612eff565b6107448360008151811061072d577f4e487b7100000000000000000000000000000000000000000000000000000000600052603260045260246000fd5b60200260200101518d6117c790919063ffffffff16565b6117dd90919063ffffffff16565b8160018151811061078c577f4e487b7100000000000000000000000000000000000000000000000000000000600052603260045260246000fd5b6020026020010181815250506000816002815181106107d4577f4e487b7100000000000000000000000000000000000000000000000000000000600052603260045260246000fd5b60200260200101818152505087518160038151811061081c577f4e487b7100000000000000000000000000000000000000000000000000000000600052603260045260246000fd5b602002602001018181525050606060005b82600381518110610867577f4e487b7100000000000000000000000000000000000000000000000000000000600052603260045260246000fd5b6020026020010151811015610ce757606060006108c58e8e8e86815181106108b8577f4e487b7100000000000000000000000000000000000000000000000000000000600052603260045260246000fd5b60200260200101516117f3565b809350819450829650505050808560028151811061090c577f4e487b7100000000000000000000000000000000000000000000000000000000600052603260045260246000fd5b602002602001018181525050505060005b8751811015610a11576109b9838281518110610962577f4e487b7100000000000000000000000000000000000000000000000000000000600052603260045260246000fd5b60200260200101518a83815181106109a3577f4e487b7100000000000000000000000000000000000000000000000000000000600052603260045260246000fd5b602002602001015161204890919063ffffffff16565b8982815181106109f2577f4e487b7100000000000000000000000000000000000000000000000000000000600052603260045260246000fd5b6020026020010181815250508080610a0990613a19565b91505061091d565b5082600181518110610a4c577f4e487b7100000000000000000000000000000000000000000000000000000000600052603260045260246000fd5b602002602001015183600281518110610a8e577f4e487b7100000000000000000000000000000000000000000000000000000000600052603260045260246000fd5b602002602001015111610b3557610b3083600281518110610ad8577f4e487b7100000000000000000000000000000000000000000000000000000000600052603260045260246000fd5b602002602001015184600181518110610b1a577f4e487b7100000000000000000000000000000000000000000000000000000000600052603260045260246000fd5b602002602001015161205e90919063ffffffff16565b610b38565b60005b83600181518110610b72577f4e487b7100000000000000000000000000000000000000000000000000000000600052603260045260246000fd5b602002602001018181525050610bd283600281518110610bbb577f4e487b7100000000000000000000000000000000000000000000000000000000600052603260045260246000fd5b60200260200101518761204890919063ffffffff16565b9550600083600181518110610c10577f4e487b7100000000000000000000000000000000000000000000000000000000600052603260045260246000fd5b60200260200101511415610c2357610ce7565b610cd283600081518110610c60577f4e487b7100000000000000000000000000000000000000000000000000000000600052603260045260246000fd5b6020026020010151610cc4670de0b6b3a764000086600181518110610cae577f4e487b7100000000000000000000000000000000000000000000000000000000600052603260045260246000fd5b60200260200101516117c790919063ffffffff16565b6117dd90919063ffffffff16565b9b508080610cdf90613a19565b91505061082d565b50505050509450945094915050565b60608060008380421115610d3f576040517f08c379a0000000000000000000000000000000000000000000000000000000008152600401610d369061358a565b60405180910390fd5b8660fb60009054906101000a900473ffffffffffffffffffffffffffffffffffffffff1673ffffffffffffffffffffffffffffffffffffffff1663a0f026ff826040518263ffffffff1660e01b8152600401610d9b919061332b565b60206040518083038186803b158015610db357600080fd5b505afa158015610dc7573d6000803e3d6000fd5b505050506040513d601f19601f82011682018060405250810190610deb9190612ed6565b610e2a576040517f08c379a0000000000000000000000000000000000000000000000000000000008152600401610e21906135aa565b60405180910390fd5b610e358989896117f3565b94509450945050509450945094915050565b610e5082611534565b610e5c828260016115b3565b5050565b610e68612074565b73ffffffffffffffffffffffffffffffffffffffff16610e866110b8565b73ffffffffffffffffffffffffffffffffffffffff1614610edc576040517f08c379a0000000000000000000000000000000000000000000000000000000008152600401610ed39061362a565b60405180910390fd5b600073ffffffffffffffffffffffffffffffffffffffff16609760009054906101000a900473ffffffffffffffffffffffffffffffffffffffff1673ffffffffffffffffffffffffffffffffffffffff167f8be0079c531659141344cd1fd0a4f28419497f9722a3daafe3b4186f6b6457e060405160405180910390a36000609760006101000a81548173ffffffffffffffffffffffffffffffffffffffff021916908373ffffffffffffffffffffffffffffffffffffffff160217905550565b600060fb60009054906101000a900473ffffffffffffffffffffffffffffffffffffffff16905090565b600060019054906101000a900460ff1680610fed575060008054906101000a900460ff16155b61102c576040517f08c379a0000000000000000000000000000000000000000000000000000000008152600401611023906135ca565b60405180910390fd5b60008060019054906101000a900460ff16159050801561107c576001600060016101000a81548160ff02191690831515021790555060016000806101000a81548160ff0219169083151502179055505b61108461207c565b61108c612165565b61109461224e565b80156110b55760008060016101000a81548160ff0219169083151502179055505b50565b6000609760009054906101000a900473ffffffffffffffffffffffffffffffffffffffff16905090565b6110ea612074565b73ffffffffffffffffffffffffffffffffffffffff166111086110b8565b73ffffffffffffffffffffffffffffffffffffffff161461115e576040517f08c379a00000000000000000000000000000000000000000000000000000000081526004016111559061362a565b60405180910390fd5b8060fb60006101000a81548173ffffffffffffffffffffffffffffffffffffffff021916908373ffffffffffffffffffffffffffffffffffffffff16021790555060fb60009054906101000a900473ffffffffffffffffffffffffffffffffffffffff1673ffffffffffffffffffffffffffffffffffffffff166361d027b36040518163ffffffff1660e01b815260040160206040518083038186803b15801561120757600080fd5b505afa15801561121b573d6000803e3d6000fd5b505050506040513d601f19601f8201168201806040525081019061123f9190612d99565b60fc60006101000a81548173ffffffffffffffffffffffffffffffffffffffff021916908373ffffffffffffffffffffffffffffffffffffffff16021790555060fb60009054906101000a900473ffffffffffffffffffffffffffffffffffffffff1673ffffffffffffffffffffffffffffffffffffffff1663eb0a8b916040518163ffffffff1660e01b815260040160206040518083038186803b1580156112e757600080fd5b505afa1580156112fb573d6000803e3d6000fd5b505050506040513d601f19601f8201168201806040525081019061131f9190612d70565b60fd60006101000a81548173ffffffffffffffffffffffffffffffffffffffff021916908373ffffffffffffffffffffffffffffffffffffffff16021790555050565b61136a612074565b73ffffffffffffffffffffffffffffffffffffffff166113886110b8565b73ffffffffffffffffffffffffffffffffffffffff16146113de576040517f08c379a00000000000000000000000000000000000000000000000000000000081526004016113d59061362a565b60405180910390fd5b600073ffffffffffffffffffffffffffffffffffffffff168173ffffffffffffffffffffffffffffffffffffffff16141561144e576040517f08c379a00000000000000000000000000000000000000000000000000000000081526004016114459061356a565b60405180910390fd5b8073ffffffffffffffffffffffffffffffffffffffff16609760009054906101000a900473ffffffffffffffffffffffffffffffffffffffff1673ffffffffffffffffffffffffffffffffffffffff167f8be0079c531659141344cd1fd0a4f28419497f9722a3daafe3b4186f6b6457e060405160405180910390a380609760006101000a81548173ffffffffffffffffffffffffffffffffffffffff021916908373ffffffffffffffffffffffffffffffffffffffff16021790555050565b60fb60009054906101000a900473ffffffffffffffffffffffffffffffffffffffff1681565b61153c612074565b73ffffffffffffffffffffffffffffffffffffffff1661155a6110b8565b73ffffffffffffffffffffffffffffffffffffffff16146115b0576040517f08c379a00000000000000000000000000000000000000000000000000000000081526004016115a79061362a565b60405180910390fd5b50565b60006115bd61232f565b90506115c884612386565b6000835111806115d55750815b156115e6576115e4848461243f565b505b60006116147f4910fdfa16fed3260ed0e7147f7cc6da11a60208b5b9406d12a635614ffd914360001b612523565b90508060000160009054906101000a900460ff166117c05760018160000160006101000a81548160ff0219169083151502179055506116e0858360405160240161165e919061332b565b6040516020818303038152906040527f3659cfe6000000000000000000000000000000000000000000000000000000007bffffffffffffffffffffffffffffffffffffffffffffffffffffffff19166020820180517bffffffffffffffffffffffffffffffffffffffffffffffffffffffff838183161783525050505061243f565b5060008160000160006101000a81548160ff02191690831515021790555061170661232f565b73ffffffffffffffffffffffffffffffffffffffff168273ffffffffffffffffffffffffffffffffffffffff1614611773576040517f08c379a000000000000000000000000000000000000000000000000000000000815260040161176a9061354a565b60405180910390fd5b61177c85612386565b8473ffffffffffffffffffffffffffffffffffffffff167fbc7cd75a20ee27fd9adebab32041f755214dbc6bffa90cc0225b39da2e5c2d3b60405160405180910390a25b5050505050565b600081836117d5919061389a565b905092915050565b600081836117eb9190613869565b905092915050565b6060806000858573ffffffffffffffffffffffffffffffffffffffff166370a08231336040518263ffffffff1660e01b8152600401611832919061332b565b60206040518083038186803b15801561184a57600080fd5b505afa15801561185e573d6000803e3d6000fd5b505050506040513d601f19601f820116820180604052508101906118829190612eff565b10156118c3576040517f08c379a00000000000000000000000000000000000000000000000000000000081526004016118ba906135ea565b60405180910390fd5b60fc60009054906101000a900473ffffffffffffffffffffffffffffffffffffffff1673ffffffffffffffffffffffffffffffffffffffff16633fa6b81985876040518363ffffffff1660e01b8152600401611920929190613346565b600060405180830381600087803b15801561193a57600080fd5b505af115801561194e573d6000803e3d6000fd5b50505050600060fd60009054906101000a900473ffffffffffffffffffffffffffffffffffffffff1673ffffffffffffffffffffffffffffffffffffffff16638dac8d138888886040518463ffffffff1660e01b81526004016119b39392919061368a565b60206040518083038186803b1580156119cb57600080fd5b505afa1580156119df573d6000803e3d6000fd5b505050506040513d601f19601f82011682018060405250810190611a039190612eff565b905060008111611a48576040517f08c379a0000000000000000000000000000000000000000000000000000000008152600401611a3f906135ea565b60405180910390fd5b80871115611a54578096505b8660fb60009054906101000a900473ffffffffffffffffffffffffffffffffffffffff1673ffffffffffffffffffffffffffffffffffffffff1663498b5ae887896040518363ffffffff1660e01b8152600401611ab2929190613346565b60206040518083038186803b158015611aca57600080fd5b505afa158015611ade573d6000803e3d6000fd5b505050506040513d601f19601f82011682018060405250810190611b029190612eff565b1015611b43576040517f08c379a0000000000000000000000000000000000000000000000000000000008152600401611b3a906135ea565b60405180910390fd5b50611c1b670de0b6b3a7640000611c0d8860fb60009054906101000a900473ffffffffffffffffffffffffffffffffffffffff1673ffffffffffffffffffffffffffffffffffffffff1663d02641a08a6040518263ffffffff1660e01b8152600401611baf919061332b565b60206040518083038186803b158015611bc757600080fd5b505afa158015611bdb573d6000803e3d6000fd5b505050506040513d601f19601f82011682018060405250810190611bff9190612eff565b6117c790919063ffffffff16565b6117dd90919063ffffffff16565b9050600060fd60009054906101000a900473ffffffffffffffffffffffffffffffffffffffff1673ffffffffffffffffffffffffffffffffffffffff1663234ab3e28688856040518463ffffffff1660e01b8152600401611c7e939291906133c2565b60006040518083038186803b158015611c9657600080fd5b505afa158015611caa573d6000803e3d6000fd5b505050506040513d6000823e3d601f19601f82011682018060405250810190611cd39190612e57565b80935081965082955050505080611d1f576040517f08c379a0000000000000000000000000000000000000000000000000000000008152600401611d169061366a565b60405180910390fd5b8573ffffffffffffffffffffffffffffffffffffffff16639dc29fac33896040518363ffffffff1660e01b8152600401611d5a92919061345a565b600060405180830381600087803b158015611d7457600080fd5b505af1158015611d88573d6000803e3d6000fd5b5050505060fb60009054906101000a900473ffffffffffffffffffffffffffffffffffffffff1673ffffffffffffffffffffffffffffffffffffffff1663877034f186898960006040518563ffffffff1660e01b8152600401611dee9493929190613483565b600060405180830381600087803b158015611e0857600080fd5b505af1158015611e1c573d6000803e3d6000fd5b5050505050600060fb60009054906101000a900473ffffffffffffffffffffffffffffffffffffffff1673ffffffffffffffffffffffffffffffffffffffff1663294d499e6040518163ffffffff1660e01b815260040160006040518083038186803b158015611e8b57600080fd5b505afa158015611e9f573d6000803e3d6000fd5b505050506040513d6000823e3d601f19601f82011682018060405250810190611ec89190612e16565b905060005b8151811015611ffe5760fc60009054906101000a900473ffffffffffffffffffffffffffffffffffffffff1673ffffffffffffffffffffffffffffffffffffffff166358166d2487848481518110611f4e577f4e487b7100000000000000000000000000000000000000000000000000000000600052603260045260246000fd5b602002602001015133898681518110611f90577f4e487b7100000000000000000000000000000000000000000000000000000000600052603260045260246000fd5b60200260200101518c6040518663ffffffff1660e01b8152600401611fb995949392919061336f565b600060405180830381600087803b158015611fd357600080fd5b505af1158015611fe7573d6000803e3d6000fd5b505050508080611ff690613a19565b915050611ecd565b507fcc1d23f3064dc189f0e66b9a2967a6af88c329702d8d1b8154af088427585a9d85878987876040516120369594939291906133f9565b60405180910390a15093509350939050565b600081836120569190613813565b905092915050565b6000818361206c91906138f4565b905092915050565b600033905090565b600060019054906101000a900460ff16806120a2575060008054906101000a900460ff16155b6120e1576040517f08c379a00000000000000000000000000000000000000000000000000000000081526004016120d8906135ca565b60405180910390fd5b60008060019054906101000a900460ff161590508015612131576001600060016101000a81548160ff02191690831515021790555060016000806101000a81548160ff0219169083151502179055505b61213961252d565b612141612606565b80156121625760008060016101000a81548160ff0219169083151502179055505b50565b600060019054906101000a900460ff168061218b575060008054906101000a900460ff16155b6121ca576040517f08c379a00000000000000000000000000000000000000000000000000000000081526004016121c1906135ca565b60405180910390fd5b60008060019054906101000a900460ff16159050801561221a576001600060016101000a81548160ff02191690831515021790555060016000806101000a81548160ff0219169083151502179055505b6122226126df565b61222a6127b8565b801561224b5760008060016101000a81548160ff0219169083151502179055505b50565b600060019054906101000a900460ff1680612274575060008054906101000a900460ff16155b6122b3576040517f08c379a00000000000000000000000000000000000000000000000000000000081526004016122aa906135ca565b60405180910390fd5b60008060019054906101000a900460ff161590508015612303576001600060016101000a81548160ff02191690831515021790555060016000806101000a81548160ff0219169083151502179055505b61230b61293a565b801561232c5760008060016101000a81548160ff0219169083151502179055505b50565b600061235d7f360894a13ba1a3210667c828492db98dca3e2076cc3735a920a3ca505d382bbc60001b612a1b565b60000160009054906101000a900473ffffffffffffffffffffffffffffffffffffffff16905090565b61238f81612a25565b6123ce576040517f08c379a00000000000000000000000000000000000000000000000000000000081526004016123c59061360a565b60405180910390fd5b806123fb7f360894a13ba1a3210667c828492db98dca3e2076cc3735a920a3ca505d382bbc60001b612a1b565b60000160006101000a81548173ffffffffffffffffffffffffffffffffffffffff021916908373ffffffffffffffffffffffffffffffffffffffff16021790555050565b606061244a83612a25565b612489576040517f08c379a00000000000000000000000000000000000000000000000000000000081526004016124809061364a565b60405180910390fd5b6000808473ffffffffffffffffffffffffffffffffffffffff16846040516124b19190613314565b600060405180830381855af49150503d80600081146124ec576040519150601f19603f3d011682016040523d82523d6000602084013e6124f1565b606091505b50915091506125198282604051806060016040528060278152602001613ddb60279139612a38565b9250505092915050565b6000819050919050565b600060019054906101000a900460ff1680612553575060008054906101000a900460ff16155b612592576040517f08c379a0000000000000000000000000000000000000000000000000000000008152600401612589906135ca565b60405180910390fd5b60008060019054906101000a900460ff1615905080156125e2576001600060016101000a81548160ff02191690831515021790555060016000806101000a81548160ff0219169083151502179055505b80156126035760008060016101000a81548160ff0219169083151502179055505b50565b600060019054906101000a900460ff168061262c575060008054906101000a900460ff16155b61266b576040517f08c379a0000000000000000000000000000000000000000000000000000000008152600401612662906135ca565b60405180910390fd5b60008060019054906101000a900460ff1615905080156126bb576001600060016101000a81548160ff02191690831515021790555060016000806101000a81548160ff0219169083151502179055505b80156126dc5760008060016101000a81548160ff0219169083151502179055505b50565b600060019054906101000a900460ff1680612705575060008054906101000a900460ff16155b612744576040517f08c379a000000000000000000000000000000000000000000000000000000000815260040161273b906135ca565b60405180910390fd5b60008060019054906101000a900460ff161590508015612794576001600060016101000a81548160ff02191690831515021790555060016000806101000a81548160ff0219169083151502179055505b80156127b55760008060016101000a81548160ff0219169083151502179055505b50565b600060019054906101000a900460ff16806127de575060008054906101000a900460ff16155b61281d576040517f08c379a0000000000000000000000000000000000000000000000000000000008152600401612814906135ca565b60405180910390fd5b60008060019054906101000a900460ff16159050801561286d576001600060016101000a81548160ff02191690831515021790555060016000806101000a81548160ff0219169083151502179055505b6000612877612074565b905080609760006101000a81548173ffffffffffffffffffffffffffffffffffffffff021916908373ffffffffffffffffffffffffffffffffffffffff1602179055508073ffffffffffffffffffffffffffffffffffffffff16600073ffffffffffffffffffffffffffffffffffffffff167f8be0079c531659141344cd1fd0a4f28419497f9722a3daafe3b4186f6b6457e060405160405180910390a35080156129375760008060016101000a81548160ff0219169083151502179055505b50565b600060019054906101000a900460ff1680612960575060008054906101000a900460ff16155b61299f576040517f08c379a0000000000000000000000000000000000000000000000000000000008152600401612996906135ca565b60405180910390fd5b60008060019054906101000a900460ff1615905080156129ef576001600060016101000a81548160ff02191690831515021790555060016000806101000a81548160ff0219169083151502179055505b600160c9819055508015612a185760008060016101000a81548160ff0219169083151502179055505b50565b6000819050919050565b600080823b905060008111915050919050565b60608315612a4857829050612a98565b600083511115612a5b5782518084602001fd5b816040517f08c379a0000000000000000000000000000000000000000000000000000000008152600401612a8f9190613528565b60405180910390fd5b9392505050565b6000612ab2612aad846136e6565b6136c1565b90508083825260208201905082856020860282011115612ad157600080fd5b60005b85811015612b015781612ae78882612c21565b845260208401935060208301925050600181019050612ad4565b5050509392505050565b6000612b1e612b19846136e6565b6136c1565b90508083825260208201905082856020860282011115612b3d57600080fd5b60005b85811015612b6d5781612b538882612c36565b845260208401935060208301925050600181019050612b40565b5050509392505050565b6000612b8a612b8584613712565b6136c1565b90508083825260208201905082856020860282011115612ba957600080fd5b60005b85811015612bd95781612bbf8882612d32565b845260208401935060208301925050600181019050612bac565b5050509392505050565b6000612bf6612bf18461373e565b6136c1565b905082815260208101848484011115612c0e57600080fd5b612c198482856139a6565b509392505050565b600081359050612c3081613d7e565b92915050565b600081519050612c4581613d7e565b92915050565b600081519050612c5a81613d95565b92915050565b600082601f830112612c7157600080fd5b8135612c81848260208601612a9f565b91505092915050565b600082601f830112612c9b57600080fd5b8151612cab848260208601612b0b565b91505092915050565b600082601f830112612cc557600080fd5b8151612cd5848260208601612b77565b91505092915050565b600081519050612ced81613dac565b92915050565b600082601f830112612d0457600080fd5b8135612d14848260208601612be3565b91505092915050565b600081359050612d2c81613dc3565b92915050565b600081519050612d4181613dc3565b92915050565b600060208284031215612d5957600080fd5b6000612d6784828501612c21565b91505092915050565b600060208284031215612d8257600080fd5b6000612d9084828501612c36565b91505092915050565b600060208284031215612dab57600080fd5b6000612db984828501612c4b565b91505092915050565b60008060408385031215612dd557600080fd5b6000612de385828601612c21565b925050602083013567ffffffffffffffff811115612e0057600080fd5b612e0c85828601612cf3565b9150509250929050565b600060208284031215612e2857600080fd5b600082015167ffffffffffffffff811115612e4257600080fd5b612e4e84828501612c8a565b91505092915050565b600080600060608486031215612e6c57600080fd5b600084015167ffffffffffffffff811115612e8657600080fd5b612e9286828701612c8a565b935050602084015167ffffffffffffffff811115612eaf57600080fd5b612ebb86828701612cb4565b9250506040612ecc86828701612cde565b9150509250925092565b600060208284031215612ee857600080fd5b6000612ef684828501612cde565b91505092915050565b600060208284031215612f1157600080fd5b6000612f1f84828501612d32565b91505092915050565b60008060008060808587031215612f3e57600080fd5b6000612f4c87828801612d1d565b9450506020612f5d87828801612c21565b9350506040612f6e87828801612c21565b9250506060612f7f87828801612d1d565b91505092959194509250565b60008060008060808587031215612fa157600080fd5b6000612faf87828801612d1d565b9450506020612fc087828801612c21565b935050604085013567ffffffffffffffff811115612fdd57600080fd5b612fe987828801612c60565b9250506060612ffa87828801612d1d565b91505092959194509250565b60006130128383613036565b60208301905092915050565b600061302a83836132f6565b60208301905092915050565b61303f81613928565b82525050565b61304e81613928565b82525050565b600061305f8261378f565b61306981856137d5565b93506130748361376f565b8060005b838110156130a557815161308c8882613006565b9750613097836137bb565b925050600181019050613078565b5085935050505092915050565b60006130bd8261379a565b6130c781856137e6565b93506130d28361377f565b8060005b838110156131035781516130ea888261301e565b97506130f5836137c8565b9250506001810190506130d6565b5085935050505092915050565b6131198161394c565b82525050565b600061312a826137a5565b61313481856137f7565b93506131448185602086016139b5565b80840191505092915050565b61315981613982565b82525050565b600061316a826137b0565b6131748185613802565b93506131848185602086016139b5565b61318d81613aef565b840191505092915050565b60006131a5602f83613802565b91506131b082613b00565b604082019050919050565b60006131c8602683613802565b91506131d382613b4f565b604082019050919050565b60006131eb602183613802565b91506131f682613b9e565b604082019050919050565b600061320e600283613802565b915061321982613bed565b602082019050919050565b6000613231602e83613802565b915061323c82613c16565b604082019050919050565b6000613254600283613802565b915061325f82613c65565b602082019050919050565b6000613277602d83613802565b915061328282613c8e565b604082019050919050565b600061329a602083613802565b91506132a582613cdd565b602082019050919050565b60006132bd602683613802565b91506132c882613d06565b604082019050919050565b60006132e0600283613802565b91506132eb82613d55565b602082019050919050565b6132ff81613978565b82525050565b61330e81613978565b82525050565b6000613320828461311f565b915081905092915050565b60006020820190506133406000830184613045565b92915050565b600060408201905061335b6000830185613045565b6133686020830184613045565b9392505050565b600060a0820190506133846000830188613045565b6133916020830187613045565b61339e6040830186613045565b6133ab6060830185613305565b6133b86080830184613045565b9695505050505050565b60006060820190506133d76000830186613045565b6133e46020830185613045565b6133f16040830184613305565b949350505050565b600060a08201905061340e6000830188613045565b61341b6020830187613045565b6134286040830186613305565b818103606083015261343a81856130b2565b9050818103608083015261344e8184613054565b90509695505050505050565b600060408201905061346f6000830185613045565b61347c6020830184613305565b9392505050565b60006080820190506134986000830187613045565b6134a56020830186613305565b6134b26040830185613045565b6134bf6060830184613110565b95945050505050565b600060608201905081810360008301526134e281866130b2565b905081810360208301526134f68185613054565b90506135056040830184613305565b949350505050565b60006020820190506135226000830184613150565b92915050565b60006020820190508181036000830152613542818461315f565b905092915050565b6000602082019050818103600083015261356381613198565b9050919050565b60006020820190508181036000830152613583816131bb565b9050919050565b600060208201905081810360008301526135a3816131de565b9050919050565b600060208201905081810360008301526135c381613201565b9050919050565b600060208201905081810360008301526135e381613224565b9050919050565b6000602082019050818103600083015261360381613247565b9050919050565b600060208201905081810360008301526136238161326a565b9050919050565b600060208201905081810360008301526136438161328d565b9050919050565b60006020820190508181036000830152613663816132b0565b9050919050565b60006020820190508181036000830152613683816132d3565b9050919050565b600060608201905061369f6000830186613305565b6136ac6020830185613045565b6136b96040830184613045565b949350505050565b60006136cb6136dc565b90506136d782826139e8565b919050565b6000604051905090565b600067ffffffffffffffff82111561370157613700613ac0565b5b602082029050602081019050919050565b600067ffffffffffffffff82111561372d5761372c613ac0565b5b602082029050602081019050919050565b600067ffffffffffffffff82111561375957613758613ac0565b5b61376282613aef565b9050602081019050919050565b6000819050602082019050919050565b6000819050602082019050919050565b600081519050919050565b600081519050919050565b600081519050919050565b600081519050919050565b6000602082019050919050565b6000602082019050919050565b600082825260208201905092915050565b600082825260208201905092915050565b600081905092915050565b600082825260208201905092915050565b600061381e82613978565b915061382983613978565b9250827fffffffffffffffffffffffffffffffffffffffffffffffffffffffffffffffff0382111561385e5761385d613a62565b5b828201905092915050565b600061387482613978565b915061387f83613978565b92508261388f5761388e613a91565b5b828204905092915050565b60006138a582613978565b91506138b083613978565b9250817fffffffffffffffffffffffffffffffffffffffffffffffffffffffffffffffff04831182151516156138e9576138e8613a62565b5b828202905092915050565b60006138ff82613978565b915061390a83613978565b92508282101561391d5761391c613a62565b5b828203905092915050565b600061393382613958565b9050919050565b600061394582613958565b9050919050565b60008115159050919050565b600073ffffffffffffffffffffffffffffffffffffffff82169050919050565b6000819050919050565b600061398d82613994565b9050919050565b600061399f82613958565b9050919050565b82818337600083830152505050565b60005b838110156139d35780820151818401526020810190506139b8565b838111156139e2576000848401525b50505050565b6139f182613aef565b810181811067ffffffffffffffff82111715613a1057613a0f613ac0565b5b80604052505050565b6000613a2482613978565b91507fffffffffffffffffffffffffffffffffffffffffffffffffffffffffffffffff821415613a5757613a56613a62565b5b600182019050919050565b7f4e487b7100000000000000000000000000000000000000000000000000000000600052601160045260246000fd5b7f4e487b7100000000000000000000000000000000000000000000000000000000600052601260045260246000fd5b7f4e487b7100000000000000000000000000000000000000000000000000000000600052604160045260246000fd5b6000601f19601f8301169050919050565b7f45524331393637557067726164653a207570677261646520627265616b73206660008201527f7572746865722075706772616465730000000000000000000000000000000000602082015250565b7f4f776e61626c653a206e6577206f776e657220697320746865207a65726f206160008201527f6464726573730000000000000000000000000000000000000000000000000000602082015250565b7f5472616e73616374696f6e2068617320657863656564656420646561646c696e60008201527f6500000000000000000000000000000000000000000000000000000000000000602082015250565b7f4946000000000000000000000000000000000000000000000000000000000000600082015250565b7f496e697469616c697a61626c653a20636f6e747261637420697320616c72656160008201527f647920696e697469616c697a6564000000000000000000000000000000000000602082015250565b7f4941000000000000000000000000000000000000000000000000000000000000600082015250565b7f455243313936373a206e657720696d706c656d656e746174696f6e206973206e60008201527f6f74206120636f6e747261637400000000000000000000000000000000000000602082015250565b7f4f776e61626c653a2063616c6c6572206973206e6f7420746865206f776e6572600082015250565b7f416464726573733a2064656c65676174652063616c6c20746f206e6f6e2d636f60008201527f6e74726163740000000000000000000000000000000000000000000000000000602082015250565b7f4341000000000000000000000000000000000000000000000000000000000000600082015250565b613d8781613928565b8114613d9257600080fd5b50565b613d9e8161393a565b8114613da957600080fd5b50565b613db58161394c565b8114613dc057600080fd5b50565b613dcc81613978565b8114613dd757600080fd5b5056fe416464726573733a206c6f772d6c6576656c2064656c65676174652063616c6c206661696c6564a2646970667358221220c0886b82a59abcce57f69ba6cadd5d9cf627659c759c7a6b4ba90245c64be0ef64736f6c63430008030033",
  "linkReferences": {},
  "deployedLinkReferences": {}
}