{
  "_format": "hh-sol-artifact-1",
  "contractName": "Liquidator",
  "sourceName": "contracts/Bank/Liquidator.sol",
  "abi": [
    {
      "anonymous": false,
      "inputs": [
        {
          "indexed": false,
          "internalType": "address",
          "name": "previousAdmin",
          "type": "address"
        },
        {
          "indexed": false,
          "internalType": "address",
          "name": "newAdmin",
          "type": "address"
        }
      ],
      "name": "AdminChanged",
      "type": "event"
    },
    {
      "anonymous": false,
      "inputs": [
        {
          "indexed": true,
          "internalType": "address",
          "name": "beacon",
          "type": "address"
        }
      ],
      "name": "BeaconUpgraded",
      "type": "event"
    },
    {
      "anonymous": false,
      "inputs": [
        {
          "indexed": false,
          "internalType": "address",
          "name": "from",
          "type": "address"
        },
        {
          "indexed": false,
          "internalType": "address",
          "name": "token",
          "type": "address"
        },
        {
          "indexed": false,
          "internalType": "uint256",
          "name": "tokenAmount",
          "type": "uint256"
        },
        {
          "indexed": false,
          "internalType": "uint256[]",
          "name": "collateralAmounts",
          "type": "uint256[]"
        },
        {
          "indexed": false,
          "internalType": "address[]",
          "name": "collateralTypes",
          "type": "address[]"
        }
      ],
      "name": "Liquidate",
      "type": "event"
    },
    {
      "anonymous": false,
      "inputs": [
        {
          "indexed": true,
          "internalType": "address",
          "name": "previousOwner",
          "type": "address"
        },
        {
          "indexed": true,
          "internalType": "address",
          "name": "newOwner",
          "type": "address"
        }
      ],
      "name": "OwnershipTransferred",
      "type": "event"
    },
    {
      "anonymous": false,
      "inputs": [
        {
          "indexed": false,
          "internalType": "address",
          "name": "from",
          "type": "address"
        },
        {
          "indexed": false,
          "internalType": "address",
          "name": "token",
          "type": "address"
        },
        {
          "indexed": false,
          "internalType": "uint256",
          "name": "tokenAmount",
          "type": "uint256"
        },
        {
          "indexed": false,
          "internalType": "uint256[]",
          "name": "collateralAmounts",
          "type": "uint256[]"
        },
        {
          "indexed": false,
          "internalType": "address[]",
          "name": "collateralTypes",
          "type": "address[]"
        }
      ],
      "name": "Redeem",
      "type": "event"
    },
    {
      "anonymous": false,
      "inputs": [
        {
          "indexed": true,
          "internalType": "address",
          "name": "implementation",
          "type": "address"
        }
      ],
      "name": "Upgraded",
      "type": "event"
    },
    {
      "inputs": [
        {
          "internalType": "uint256",
          "name": "amount",
          "type": "uint256"
        },
        {
          "internalType": "address",
          "name": "token",
          "type": "address"
        },
        {
          "internalType": "address",
          "name": "from",
          "type": "address"
        },
        {
          "internalType": "uint256",
          "name": "deadline",
          "type": "uint256"
        },
        {
          "internalType": "address",
          "name": "referral",
          "type": "address"
        }
      ],
      "name": "buyCollateral",
      "outputs": [
        {
          "internalType": "uint256[]",
          "name": "collateralAmounts",
          "type": "uint256[]"
        },
        {
          "internalType": "address[]",
          "name": "collateralTypes",
          "type": "address[]"
        },
        {
          "internalType": "uint256",
          "name": "etherAmount",
          "type": "uint256"
        }
      ],
      "stateMutability": "nonpayable",
      "type": "function"
    },
    {
      "inputs": [
        {
          "internalType": "uint256",
          "name": "amount",
          "type": "uint256"
        },
        {
          "internalType": "address",
          "name": "token",
          "type": "address"
        },
        {
          "internalType": "address[]",
          "name": "from",
          "type": "address[]"
        },
        {
          "internalType": "uint256",
          "name": "deadline",
          "type": "uint256"
        },
        {
          "internalType": "address",
          "name": "referral",
          "type": "address"
        }
      ],
      "name": "buyCollateralFromManyVaults",
      "outputs": [
        {
          "internalType": "uint256[]",
          "name": "collateralAmounts",
          "type": "uint256[]"
        },
        {
          "internalType": "address[]",
          "name": "collateralTypes",
          "type": "address[]"
        },
        {
          "internalType": "uint256",
          "name": "etherAmount",
          "type": "uint256"
        }
      ],
      "stateMutability": "nonpayable",
      "type": "function"
    },
    {
      "inputs": [],
      "name": "crScalar",
      "outputs": [
        {
          "internalType": "uint256",
          "name": "",
          "type": "uint256"
        }
      ],
      "stateMutability": "view",
      "type": "function"
    },
    {
      "inputs": [
        {
          "internalType": "address",
          "name": "token",
          "type": "address"
        },
        {
          "internalType": "address",
          "name": "from",
          "type": "address"
        }
      ],
      "name": "getAllowedBuyCollateralFromTokenAmount",
      "outputs": [
        {
          "internalType": "uint256",
          "name": "allowedAmount",
          "type": "uint256"
        },
        {
          "internalType": "bool",
          "name": "isLiquidation",
          "type": "bool"
        }
      ],
      "stateMutability": "view",
      "type": "function"
    },
    {
      "inputs": [
        {
          "internalType": "address",
          "name": "account",
          "type": "address"
        },
        {
          "internalType": "address",
          "name": "fxToken",
          "type": "address"
        }
      ],
      "name": "getLiquidationRatio",
      "outputs": [
        {
          "internalType": "uint256",
          "name": "ratio",
          "type": "uint256"
        }
      ],
      "stateMutability": "view",
      "type": "function"
    },
    {
      "inputs": [],
      "name": "handleAddress",
      "outputs": [
        {
          "internalType": "address",
          "name": "",
          "type": "address"
        }
      ],
      "stateMutability": "view",
      "type": "function"
    },
    {
      "inputs": [],
      "name": "initialize",
      "outputs": [],
      "stateMutability": "nonpayable",
      "type": "function"
    },
    {
      "inputs": [],
      "name": "keeperPoolThreshold",
      "outputs": [
        {
          "internalType": "uint256",
          "name": "",
          "type": "uint256"
        }
      ],
      "stateMutability": "view",
      "type": "function"
    },
    {
      "inputs": [
        {
          "internalType": "address",
          "name": "account",
          "type": "address"
        },
        {
          "internalType": "address",
          "name": "fxToken",
          "type": "address"
        }
      ],
      "name": "liquidate",
      "outputs": [
        {
          "internalType": "uint256",
          "name": "fxAmount",
          "type": "uint256"
        },
        {
          "internalType": "address[]",
          "name": "collateralTypes",
          "type": "address[]"
        },
        {
          "internalType": "uint256[]",
          "name": "collateralAmounts",
          "type": "uint256[]"
        }
      ],
      "stateMutability": "nonpayable",
      "type": "function"
    },
    {
      "inputs": [],
      "name": "owner",
      "outputs": [
        {
          "internalType": "address",
          "name": "",
          "type": "address"
        }
      ],
      "stateMutability": "view",
      "type": "function"
    },
    {
      "inputs": [],
      "name": "protocolRedemptionFeeRatio",
      "outputs": [
        {
          "internalType": "uint256",
          "name": "",
          "type": "uint256"
        }
      ],
      "stateMutability": "view",
      "type": "function"
    },
    {
      "inputs": [],
      "name": "redemptionFeeRatio",
      "outputs": [
        {
          "internalType": "uint256",
          "name": "",
          "type": "uint256"
        }
      ],
      "stateMutability": "view",
      "type": "function"
    },
    {
      "inputs": [],
      "name": "renounceOwnership",
      "outputs": [],
      "stateMutability": "nonpayable",
      "type": "function"
    },
    {
      "inputs": [
        {
          "internalType": "uint256",
          "name": "value",
          "type": "uint256"
        }
      ],
      "name": "setCrScalar",
      "outputs": [],
      "stateMutability": "nonpayable",
      "type": "function"
    },
    {
      "inputs": [
        {
          "internalType": "address",
          "name": "_handle",
          "type": "address"
        }
      ],
      "name": "setHandleContract",
      "outputs": [],
      "stateMutability": "nonpayable",
      "type": "function"
    },
    {
      "inputs": [
        {
          "internalType": "uint256",
          "name": "amount",
          "type": "uint256"
        }
      ],
      "name": "setKeeperPoolThreshold",
      "outputs": [],
      "stateMutability": "nonpayable",
      "type": "function"
    },
    {
      "inputs": [
        {
          "internalType": "uint256",
          "name": "ratio",
          "type": "uint256"
        }
      ],
      "name": "setProtocolRedemptionFeeRatio",
      "outputs": [],
      "stateMutability": "nonpayable",
      "type": "function"
    },
    {
      "inputs": [
        {
          "internalType": "uint256",
          "name": "ratio",
          "type": "uint256"
        }
      ],
      "name": "setRedemptionFeeRatio",
      "outputs": [],
      "stateMutability": "nonpayable",
      "type": "function"
    },
    {
      "inputs": [
        {
          "internalType": "uint256",
          "name": "crTarget",
          "type": "uint256"
        },
        {
          "internalType": "uint256",
          "name": "debt",
          "type": "uint256"
        },
        {
          "internalType": "uint256",
          "name": "collateral",
          "type": "uint256"
        },
        {
          "internalType": "uint256",
          "name": "returnRatio",
          "type": "uint256"
        }
      ],
      "name": "tokensRequiredForCrIncrease",
      "outputs": [
        {
          "internalType": "uint256",
          "name": "amount",
          "type": "uint256"
        }
      ],
      "stateMutability": "pure",
      "type": "function"
    },
    {
      "inputs": [
        {
          "internalType": "address",
          "name": "newOwner",
          "type": "address"
        }
      ],
      "name": "transferOwnership",
      "outputs": [],
      "stateMutability": "nonpayable",
      "type": "function"
    },
    {
      "inputs": [
        {
          "internalType": "address",
          "name": "newImplementation",
          "type": "address"
        }
      ],
      "name": "upgradeTo",
      "outputs": [],
      "stateMutability": "nonpayable",
      "type": "function"
    },
    {
      "inputs": [
        {
          "internalType": "address",
          "name": "newImplementation",
          "type": "address"
        },
        {
          "internalType": "bytes",
          "name": "data",
          "type": "bytes"
        }
      ],
      "name": "upgradeToAndCall",
      "outputs": [],
      "stateMutability": "payable",
      "type": "function"
    }
  ],
  "bytecode": "0x608060405234801561001057600080fd5b50615eff80620000216000396000f3fe6080604052600436106101355760003560e01c80638150c6f4116100ab578063bc8f795f1161006f578063bc8f795f146103f8578063c4b672ff14610421578063c960bf9b1461044a578063db17174e14610489578063eb9cd9d0146104c6578063f2fde38b146104f157610135565b80638150c6f414610311578063853993901461033c57806386b9d81f146103655780638da5cb5b146103a45780639b1c414f146103cf57610135565b80633a037336116100fd5780633a037336146102215780634f1ef2861461025f578063715018a61461027b57806374bf578b146102925780637630a69c146102bd5780638129fc1c146102fa57610135565b806317d9eca21461013a5780631a8ce042146101655780633288e015146101a45780633659cfe6146101cd578063368a80bd146101f6575b600080fd5b34801561014657600080fd5b5061014f61051a565b60405161015c91906155dc565b60405180910390f35b34801561017157600080fd5b5061018c60048036038101906101879190614bae565b610520565b60405161019b93929190615335565b60405180910390f35b3480156101b057600080fd5b506101cb60048036038101906101c69190614b5c565b61077e565b005b3480156101d957600080fd5b506101f460048036038101906101ef91906148fc565b610850565b005b34801561020257600080fd5b5061020b610877565b60405161021891906155dc565b60405180910390f35b34801561022d57600080fd5b5061024860048036038101906102439190614977565b61087e565b60405161025692919061563c565b60405180910390f35b610279600480360381019061027491906149b3565b610d50565b005b34801561028757600080fd5b50610290610d69565b005b34801561029e57600080fd5b506102a7610ea6565b6040516102b49190615145565b60405180910390f35b3480156102c957600080fd5b506102e460048036038101906102df9190614977565b610ed0565b6040516102f191906155dc565b60405180910390f35b34801561030657600080fd5b5061030f610fed565b005b34801561031d57600080fd5b506103266110de565b60405161033391906155dc565b60405180910390f35b34801561034857600080fd5b50610363600480360381019061035e9190614b5c565b6110e5565b005b34801561037157600080fd5b5061038c60048036038101906103879190614977565b61116b565b60405161039b939291906155f7565b60405180910390f35b3480156103b057600080fd5b506103b96115c9565b6040516103c69190615145565b60405180910390f35b3480156103db57600080fd5b506103f660048036038101906103f191906148fc565b6115f3565b005b34801561040457600080fd5b5061041f600480360381019061041a9190614b5c565b611873565b005b34801561042d57600080fd5b5061044860048036038101906104439190614b5c565b6118f9565b005b34801561045657600080fd5b50610471600480360381019061046c9190614c25565b6119cb565b60405161048093929190615335565b60405180910390f35b34801561049557600080fd5b506104b060048036038101906104ab9190614cb4565b612542565b6040516104bd91906155dc565b60405180910390f35b3480156104d257600080fd5b506104db61268b565b6040516104e891906155dc565b60405180910390f35b3480156104fd57600080fd5b50610518600480360381019061051391906148fc565b612691565b005b60fe5481565b60608060008480421115610569576040517f08c379a0000000000000000000000000000000000000000000000000000000008152600401610560906153fc565b60405180910390fd5b8760fb60009054906101000a900473ffffffffffffffffffffffffffffffffffffffff1673ffffffffffffffffffffffffffffffffffffffff1663a0f026ff826040518263ffffffff1660e01b81526004016105c59190615145565b60206040518083038186803b1580156105dd57600080fd5b505afa1580156105f1573d6000803e3d6000fd5b505050506040513d601f19601f820116820180604052508101906106159190614b33565b610654576040517f08c379a000000000000000000000000000000000000000000000000000000000815260040161064b9061545c565b60405180910390fd5b60fb60009054906101000a900473ffffffffffffffffffffffffffffffffffffffff1673ffffffffffffffffffffffffffffffffffffffff16631441a5a96040518163ffffffff1660e01b815260040160206040518083038186803b1580156106bc57600080fd5b505afa1580156106d0573d6000803e3d6000fd5b505050506040513d601f19601f820116820180604052508101906106f49190614925565b73ffffffffffffffffffffffffffffffffffffffff16637543e3f033886040518363ffffffff1660e01b815260040161072e929190615160565b600060405180830381600087803b15801561074857600080fd5b505af115801561075c573d6000803e3d6000fd5b5050505061076b8a8a8a61283d565b9450945094505050955095509592505050565b6107866132a1565b73ffffffffffffffffffffffffffffffffffffffff166107a46115c9565b73ffffffffffffffffffffffffffffffffffffffff16146107fa576040517f08c379a00000000000000000000000000000000000000000000000000000000081526004016107f19061551c565b60405180910390fd5b670de0b6b3a7640000811115610845576040517f08c379a000000000000000000000000000000000000000000000000000000000815260040161083c9061559c565b60405180910390fd5b806101008190555050565b610859816132a9565b61087481604051806020016040528060008152506000613328565b50565b6101015481565b600080600060fd60009054906101000a900473ffffffffffffffffffffffffffffffffffffffff1673ffffffffffffffffffffffffffffffffffffffff1663bcbe3f2285876040518363ffffffff1660e01b81526004016108e0929190615160565b60206040518083038186803b1580156108f857600080fd5b505afa15801561090c573d6000803e3d6000fd5b505050506040513d601f19601f820116820180604052508101906109309190614b85565b9050600060fd60009054906101000a900473ffffffffffffffffffffffffffffffffffffffff1673ffffffffffffffffffffffffffffffffffffffff1663db3fabeb86886040518363ffffffff1660e01b8152600401610991929190615160565b60206040518083038186803b1580156109a957600080fd5b505afa1580156109bd573d6000803e3d6000fd5b505050506040513d601f19601f820116820180604052508101906109e19190614b85565b9050600060fd60009054906101000a900473ffffffffffffffffffffffffffffffffffffffff1673ffffffffffffffffffffffffffffffffffffffff16634c90f22987896040518363ffffffff1660e01b8152600401610a42929190615160565b60206040518083038186803b158015610a5a57600080fd5b505afa158015610a6e573d6000803e3d6000fd5b505050506040513d601f19601f82011682018060405250810190610a929190614b85565b90506000610ac383610ab5670de0b6b3a76400008561353c90919063ffffffff16565b61355290919063ffffffff16565b9050838110610b07576040517f08c379a0000000000000000000000000000000000000000000000000000000008152600401610afe9061547c565b60405180910390fd5b6000670de0b6b3a76400009050610b1e888a610ed0565b82111595508515610c5757610b646064610b56610b47606460fe5461356890919063ffffffff16565b8861353c90919063ffffffff16565b61355290919063ffffffff16565b9450600060fd60009054906101000a900473ffffffffffffffffffffffffffffffffffffffff1673ffffffffffffffffffffffffffffffffffffffff166364d321b78a8c6040518363ffffffff1660e01b8152600401610bc5929190615160565b60206040518083038186803b158015610bdd57600080fd5b505afa158015610bf1573d6000803e3d6000fd5b505050506040513d601f19601f82011682018060405250810190610c159190614b85565b9050610c32670de0b6b3a76400008461357e90919063ffffffff16565b811115610c3f5782610c53565b610c52818361356890919063ffffffff16565b5b9150505b610c6385858584612542565b9650600060fb60009054906101000a900473ffffffffffffffffffffffffffffffffffffffff1673ffffffffffffffffffffffffffffffffffffffff1663d02641a08b6040518263ffffffff1660e01b8152600401610cc29190615145565b60206040518083038186803b158015610cda57600080fd5b505afa158015610cee573d6000803e3d6000fd5b505050506040513d601f19601f82011682018060405250810190610d129190614b85565b9050610d4181610d33670de0b6b3a76400008b61353c90919063ffffffff16565b61355290919063ffffffff16565b97505050505050509250929050565b610d59826132a9565b610d6582826001613328565b5050565b610d716132a1565b73ffffffffffffffffffffffffffffffffffffffff16610d8f6115c9565b73ffffffffffffffffffffffffffffffffffffffff1614610de5576040517f08c379a0000000000000000000000000000000000000000000000000000000008152600401610ddc9061551c565b60405180910390fd5b600073ffffffffffffffffffffffffffffffffffffffff16609760009054906101000a900473ffffffffffffffffffffffffffffffffffffffff1673ffffffffffffffffffffffffffffffffffffffff167f8be0079c531659141344cd1fd0a4f28419497f9722a3daafe3b4186f6b6457e060405160405180910390a36000609760006101000a81548173ffffffffffffffffffffffffffffffffffffffff021916908373ffffffffffffffffffffffffffffffffffffffff160217905550565b600060fb60009054906101000a900473ffffffffffffffffffffffffffffffffffffffff16905090565b6000610fa56064610f97605060fd60009054906101000a900473ffffffffffffffffffffffffffffffffffffffff1673ffffffffffffffffffffffffffffffffffffffff1663bcbe3f2288886040518363ffffffff1660e01b8152600401610f39929190615160565b60206040518083038186803b158015610f5157600080fd5b505afa158015610f65573d6000803e3d6000fd5b505050506040513d601f19601f82011682018060405250810190610f899190614b85565b61353c90919063ffffffff16565b61355290919063ffffffff16565b90506000610fd86064610fca606e670de0b6b3a764000061353c90919063ffffffff16565b61355290919063ffffffff16565b905080821015610fe6578091505b5092915050565b600060019054906101000a900460ff1680611013575060008054906101000a900460ff16155b611052576040517f08c379a00000000000000000000000000000000000000000000000000000000081526004016110499061549c565b60405180910390fd5b60008060019054906101000a900460ff1615905080156110a2576001600060016101000a81548160ff02191690831515021790555060016000806101000a81548160ff0219169083151502179055505b6110aa613594565b6110b261367d565b6110ba613766565b80156110db5760008060016101000a81548160ff0219169083151502179055505b50565b6101005481565b6110ed6132a1565b73ffffffffffffffffffffffffffffffffffffffff1661110b6115c9565b73ffffffffffffffffffffffffffffffffffffffff1614611161576040517f08c379a00000000000000000000000000000000000000000000000000000000081526004016111589061551c565b60405180910390fd5b8060ff8190555050565b60006060808360fb60009054906101000a900473ffffffffffffffffffffffffffffffffffffffff1673ffffffffffffffffffffffffffffffffffffffff1663a0f026ff826040518263ffffffff1660e01b81526004016111cc9190615145565b60206040518083038186803b1580156111e457600080fd5b505afa1580156111f8573d6000803e3d6000fd5b505050506040513d601f19601f8201168201806040525081019061121c9190614b33565b61125b576040517f08c379a00000000000000000000000000000000000000000000000000000000081526004016112529061545c565b60405180910390fd5b600260c95414156112a1576040517f08c379a0000000000000000000000000000000000000000000000000000000008152600401611298906155bc565b60405180910390fd5b600260c981905550600060fb60009054906101000a900473ffffffffffffffffffffffffffffffffffffffff1673ffffffffffffffffffffffffffffffffffffffff1663d02641a0876040518263ffffffff1660e01b81526004016113069190615145565b60206040518083038186803b15801561131e57600080fd5b505afa158015611332573d6000803e3d6000fd5b505050506040513d601f19601f820116820180604052508101906113569190614b85565b90506113628682613847565b600060fd60009054906101000a900473ffffffffffffffffffffffffffffffffffffffff1673ffffffffffffffffffffffffffffffffffffffff1663db3fabeb89896040518363ffffffff1660e01b81526004016113c1929190615160565b60206040518083038186803b1580156113d957600080fd5b505afa1580156113ed573d6000803e3d6000fd5b505050506040513d601f19601f820116820180604052508101906114119190614b85565b9050600060fd60009054906101000a900473ffffffffffffffffffffffffffffffffffffffff1673ffffffffffffffffffffffffffffffffffffffff16634c90f2298a8a6040518363ffffffff1660e01b8152600401611472929190615160565b60206040518083038186803b15801561148a57600080fd5b505afa15801561149e573d6000803e3d6000fd5b505050506040513d601f19601f820116820180604052508101906114c29190614b85565b90506114d089898484613a2a565b600060fd60009054906101000a900473ffffffffffffffffffffffffffffffffffffffff1673ffffffffffffffffffffffffffffffffffffffff166364d321b78b8b6040518363ffffffff1660e01b815260040161152f929190615160565b60206040518083038186803b15801561154757600080fd5b505afa15801561155b573d6000803e3d6000fd5b505050506040513d601f19601f8201168201806040525081019061157f9190614b85565b905061158f8a8a85858589613ac2565b975061159d8a8a8a87613d30565b80975081985050506115b38a8a83878c8c613db8565b955050505050600160c981905550509250925092565b6000609760009054906101000a900473ffffffffffffffffffffffffffffffffffffffff16905090565b6115fb6132a1565b73ffffffffffffffffffffffffffffffffffffffff166116196115c9565b73ffffffffffffffffffffffffffffffffffffffff161461166f576040517f08c379a00000000000000000000000000000000000000000000000000000000081526004016116669061551c565b60405180910390fd5b8060fb60006101000a81548173ffffffffffffffffffffffffffffffffffffffff021916908373ffffffffffffffffffffffffffffffffffffffff16021790555060fb60009054906101000a900473ffffffffffffffffffffffffffffffffffffffff1673ffffffffffffffffffffffffffffffffffffffff166361d027b36040518163ffffffff1660e01b815260040160206040518083038186803b15801561171857600080fd5b505afa15801561172c573d6000803e3d6000fd5b505050506040513d601f19601f82011682018060405250810190611750919061494e565b60fc60006101000a81548173ffffffffffffffffffffffffffffffffffffffff021916908373ffffffffffffffffffffffffffffffffffffffff16021790555060fb60009054906101000a900473ffffffffffffffffffffffffffffffffffffffff1673ffffffffffffffffffffffffffffffffffffffff1663eb0a8b916040518163ffffffff1660e01b815260040160206040518083038186803b1580156117f857600080fd5b505afa15801561180c573d6000803e3d6000fd5b505050506040513d601f19601f820116820180604052508101906118309190614925565b60fd60006101000a81548173ffffffffffffffffffffffffffffffffffffffff021916908373ffffffffffffffffffffffffffffffffffffffff16021790555050565b61187b6132a1565b73ffffffffffffffffffffffffffffffffffffffff166118996115c9565b73ffffffffffffffffffffffffffffffffffffffff16146118ef576040517f08c379a00000000000000000000000000000000000000000000000000000000081526004016118e69061551c565b60405180910390fd5b8060fe8190555050565b6119016132a1565b73ffffffffffffffffffffffffffffffffffffffff1661191f6115c9565b73ffffffffffffffffffffffffffffffffffffffff1614611975576040517f08c379a000000000000000000000000000000000000000000000000000000000815260040161196c9061551c565b60405180910390fd5b670de0b6b3a76400008111156119c0576040517f08c379a00000000000000000000000000000000000000000000000000000000081526004016119b79061559c565b60405180910390fd5b806101018190555050565b60608060008480421115611a14576040517f08c379a0000000000000000000000000000000000000000000000000000000008152600401611a0b906153fc565b60405180910390fd5b8760fb60009054906101000a900473ffffffffffffffffffffffffffffffffffffffff1673ffffffffffffffffffffffffffffffffffffffff1663a0f026ff826040518263ffffffff1660e01b8152600401611a709190615145565b60206040518083038186803b158015611a8857600080fd5b505afa158015611a9c573d6000803e3d6000fd5b505050506040513d601f19601f82011682018060405250810190611ac09190614b33565b611aff576040517f08c379a0000000000000000000000000000000000000000000000000000000008152600401611af69061545c565b60405180910390fd5b60fb60009054906101000a900473ffffffffffffffffffffffffffffffffffffffff1673ffffffffffffffffffffffffffffffffffffffff16631441a5a96040518163ffffffff1660e01b815260040160206040518083038186803b158015611b6757600080fd5b505afa158015611b7b573d6000803e3d6000fd5b505050506040513d601f19601f82011682018060405250810190611b9f9190614925565b73ffffffffffffffffffffffffffffffffffffffff16637543e3f033886040518363ffffffff1660e01b8152600401611bd9929190615160565b600060405180830381600087803b158015611bf357600080fd5b505af1158015611c07573d6000803e3d6000fd5b5050505060fb60009054906101000a900473ffffffffffffffffffffffffffffffffffffffff1673ffffffffffffffffffffffffffffffffffffffff1663294d499e6040518163ffffffff1660e01b815260040160006040518083038186803b158015611c7357600080fd5b505afa158015611c87573d6000803e3d6000fd5b505050506040513d6000823e3d601f19601f82011682018060405250810190611cb09190614a07565b9350835167ffffffffffffffff811115611cf3577f4e487b7100000000000000000000000000000000000000000000000000000000600052604160045260246000fd5b604051908082528060200260200182016040528015611d215781602001602082028036833780820191505090505b509450600092506000600467ffffffffffffffff811115611d6b577f4e487b7100000000000000000000000000000000000000000000000000000000600052604160045260246000fd5b604051908082528060200260200182016040528015611d995781602001602082028036833780820191505090505b50905060fb60009054906101000a900473ffffffffffffffffffffffffffffffffffffffff1673ffffffffffffffffffffffffffffffffffffffff1663d02641a08b6040518263ffffffff1660e01b8152600401611df79190615145565b60206040518083038186803b158015611e0f57600080fd5b505afa158015611e23573d6000803e3d6000fd5b505050506040513d601f19601f82011682018060405250810190611e479190614b85565b81600081518110611e81577f4e487b7100000000000000000000000000000000000000000000000000000000600052603260045260246000fd5b602002602001018181525050611f9d60fd60009054906101000a900473ffffffffffffffffffffffffffffffffffffffff1673ffffffffffffffffffffffffffffffffffffffff166380ef72a98c6040518263ffffffff1660e01b8152600401611eeb9190615145565b60206040518083038186803b158015611f0357600080fd5b505afa158015611f17573d6000803e3d6000fd5b505050506040513d601f19601f82011682018060405250810190611f3b9190614b85565b611f8f83600081518110611f78577f4e487b7100000000000000000000000000000000000000000000000000000000600052603260045260246000fd5b60200260200101518e61353c90919063ffffffff16565b61355290919063ffffffff16565b81600181518110611fd7577f4e487b7100000000000000000000000000000000000000000000000000000000600052603260045260246000fd5b60200260200101818152505060008160028151811061201f577f4e487b7100000000000000000000000000000000000000000000000000000000600052603260045260246000fd5b602002602001018181525050885181600381518110612067577f4e487b7100000000000000000000000000000000000000000000000000000000600052603260045260246000fd5b602002602001018181525050606060005b826003815181106120b2577f4e487b7100000000000000000000000000000000000000000000000000000000600052603260045260246000fd5b602002602001015181101561253257606060006121108f8f8f8681518110612103577f4e487b7100000000000000000000000000000000000000000000000000000000600052603260045260246000fd5b602002602001015161283d565b8093508194508296505050508085600281518110612157577f4e487b7100000000000000000000000000000000000000000000000000000000600052603260045260246000fd5b602002602001018181525050505060005b875181101561225c576122048382815181106121ad577f4e487b7100000000000000000000000000000000000000000000000000000000600052603260045260246000fd5b60200260200101518a83815181106121ee577f4e487b7100000000000000000000000000000000000000000000000000000000600052603260045260246000fd5b602002602001015161356890919063ffffffff16565b89828151811061223d577f4e487b7100000000000000000000000000000000000000000000000000000000600052603260045260246000fd5b602002602001018181525050808061225490615999565b915050612168565b5082600181518110612297577f4e487b7100000000000000000000000000000000000000000000000000000000600052603260045260246000fd5b6020026020010151836002815181106122d9577f4e487b7100000000000000000000000000000000000000000000000000000000600052603260045260246000fd5b6020026020010151116123805761237b83600281518110612323577f4e487b7100000000000000000000000000000000000000000000000000000000600052603260045260246000fd5b602002602001015184600181518110612365577f4e487b7100000000000000000000000000000000000000000000000000000000600052603260045260246000fd5b602002602001015161357e90919063ffffffff16565b612383565b60005b836001815181106123bd577f4e487b7100000000000000000000000000000000000000000000000000000000600052603260045260246000fd5b60200260200101818152505061241d83600281518110612406577f4e487b7100000000000000000000000000000000000000000000000000000000600052603260045260246000fd5b60200260200101518761356890919063ffffffff16565b955060008360018151811061245b577f4e487b7100000000000000000000000000000000000000000000000000000000600052603260045260246000fd5b6020026020010151141561246e57612532565b61251d836000815181106124ab577f4e487b7100000000000000000000000000000000000000000000000000000000600052603260045260246000fd5b602002602001015161250f670de0b6b3a7640000866001815181106124f9577f4e487b7100000000000000000000000000000000000000000000000000000000600052603260045260246000fd5b602002602001015161353c90919063ffffffff16565b61355290919063ffffffff16565b9c50808061252a90615999565b915050612078565b5050505050955095509592505050565b6000670de0b6b3a7640000851161258e576040517f08c379a00000000000000000000000000000000000000000000000000000000081526004016125859061553c565b60405180910390fd5b8284106125d0576040517f08c379a00000000000000000000000000000000000000000000000000000000081526004016125c7906154bc565b60405180910390fd5b848210612612576040517f08c379a00000000000000000000000000000000000000000000000000000000081526004016126099061539c565b60405180910390fd5b6000612653612632670de0b6b3a76400008661353c90919063ffffffff16565b612645888861353c90919063ffffffff16565b61357e90919063ffffffff16565b9050600061266a848861357e90919063ffffffff16565b905061267f818361355290919063ffffffff16565b92505050949350505050565b60ff5481565b6126996132a1565b73ffffffffffffffffffffffffffffffffffffffff166126b76115c9565b73ffffffffffffffffffffffffffffffffffffffff161461270d576040517f08c379a00000000000000000000000000000000000000000000000000000000081526004016127049061551c565b60405180910390fd5b600073ffffffffffffffffffffffffffffffffffffffff168173ffffffffffffffffffffffffffffffffffffffff16141561277d576040517f08c379a0000000000000000000000000000000000000000000000000000000008152600401612774906153dc565b60405180910390fd5b8073ffffffffffffffffffffffffffffffffffffffff16609760009054906101000a900473ffffffffffffffffffffffffffffffffffffffff1673ffffffffffffffffffffffffffffffffffffffff167f8be0079c531659141344cd1fd0a4f28419497f9722a3daafe3b4186f6b6457e060405160405180910390a380609760006101000a81548173ffffffffffffffffffffffffffffffffffffffff021916908373ffffffffffffffffffffffffffffffffffffffff16021790555050565b606080600080868673ffffffffffffffffffffffffffffffffffffffff166370a08231336040518263ffffffff1660e01b815260040161287d9190615145565b60206040518083038186803b15801561289557600080fd5b505afa1580156128a9573d6000803e3d6000fd5b505050506040513d601f19601f820116820180604052508101906128cd9190614b85565b101561290e576040517f08c379a0000000000000000000000000000000000000000000000000000000008152600401612905906154dc565b60405180910390fd5b600061291a878761087e565b809350819250505060008111612965576040517f08c379a000000000000000000000000000000000000000000000000000000000815260040161295c906154dc565b60405180910390fd5b80881115612971578097505b8760fb60009054906101000a900473ffffffffffffffffffffffffffffffffffffffff1673ffffffffffffffffffffffffffffffffffffffff1663498b5ae8888a6040518363ffffffff1660e01b81526004016129cf929190615160565b60206040518083038186803b1580156129e757600080fd5b505afa1580156129fb573d6000803e3d6000fd5b505050506040513d601f19601f82011682018060405250810190612a1f9190614b85565b1015612a60576040517f08c379a0000000000000000000000000000000000000000000000000000000008152600401612a57906154dc565b60405180910390fd5b50612b38670de0b6b3a7640000612b2a8960fb60009054906101000a900473ffffffffffffffffffffffffffffffffffffffff1673ffffffffffffffffffffffffffffffffffffffff1663d02641a08b6040518263ffffffff1660e01b8152600401612acc9190615145565b60206040518083038186803b158015612ae457600080fd5b505afa158015612af8573d6000803e3d6000fd5b505050506040513d601f19601f82011682018060405250810190612b1c9190614b85565b61353c90919063ffffffff16565b61355290919063ffffffff16565b915080612e7f576000612c366ec097ce7bc90715b34b9f1000000000612c2861010054612c1a60fd60009054906101000a900473ffffffffffffffffffffffffffffffffffffffff1673ffffffffffffffffffffffffffffffffffffffff166364d321b78c8e6040518363ffffffff1660e01b8152600401612bbb929190615160565b60206040518083038186803b158015612bd357600080fd5b505afa158015612be7573d6000803e3d6000fd5b505050506040513d601f19601f82011682018060405250810190612c0b9190614b85565b8861353c90919063ffffffff16565b61353c90919063ffffffff16565b61355290919063ffffffff16565b905082811115612c7b576040517f08c379a0000000000000000000000000000000000000000000000000000000008152600401612c729061559c565b60405180910390fd5b600081118015612c8e5750600061010154115b15612e1f5760fc60009054906101000a900473ffffffffffffffffffffffffffffffffffffffff1673ffffffffffffffffffffffffffffffffffffffff1663eb2266fc8760fb60009054906101000a900473ffffffffffffffffffffffffffffffffffffffff1673ffffffffffffffffffffffffffffffffffffffff1663ec94578e6040518163ffffffff1660e01b815260040160206040518083038186803b158015612d3a57600080fd5b505afa158015612d4e573d6000803e3d6000fd5b505050506040513d601f19601f82011682018060405250810190612d729190614925565b612da2670de0b6b3a7640000612d94610101548861353c90919063ffffffff16565b61355290919063ffffffff16565b8b60016040518663ffffffff1660e01b8152600401612dc5959493929190615213565b600060405180830381600087803b158015612ddf57600080fd5b505af1158015612df3573d6000803e3d6000fd5b505050506040513d6000823e3d601f19601f82011682018060405250810190612e1c9190614a48565b50505b612e7b612e6c670de0b6b3a7640000612e5e612e4f61010154670de0b6b3a764000061357e90919063ffffffff16565b8561353c90919063ffffffff16565b61355290919063ffffffff16565b8461356890919063ffffffff16565b9250505b600060fd60009054906101000a900473ffffffffffffffffffffffffffffffffffffffff1673ffffffffffffffffffffffffffffffffffffffff1663234ab3e28789866040518463ffffffff1660e01b8152600401612ee0939291906151dc565b60006040518083038186803b158015612ef857600080fd5b505afa158015612f0c573d6000803e3d6000fd5b505050506040513d6000823e3d601f19601f82011682018060405250810190612f359190614ab4565b80935081975082965050505080612f81576040517f08c379a0000000000000000000000000000000000000000000000000000000008152600401612f789061557c565b60405180910390fd5b8673ffffffffffffffffffffffffffffffffffffffff16639dc29fac338a6040518363ffffffff1660e01b8152600401612fbc9291906152c7565b600060405180830381600087803b158015612fd657600080fd5b505af1158015612fea573d6000803e3d6000fd5b5050505060fb60009054906101000a900473ffffffffffffffffffffffffffffffffffffffff1673ffffffffffffffffffffffffffffffffffffffff1663877034f1878a8a60006040518563ffffffff1660e01b815260040161305094939291906152f0565b600060405180830381600087803b15801561306a57600080fd5b505af115801561307e573d6000803e3d6000fd5b505050505060008351905060005b8181101561320b5760008682815181106130cf577f4e487b7100000000000000000000000000000000000000000000000000000000600052603260045260246000fd5b602002602001015114156130e2576131f8565b60fc60009054906101000a900473ffffffffffffffffffffffffffffffffffffffff1673ffffffffffffffffffffffffffffffffffffffff166358166d248887848151811061315a577f4e487b7100000000000000000000000000000000000000000000000000000000600052603260045260246000fd5b6020026020010151338a868151811061319c577f4e487b7100000000000000000000000000000000000000000000000000000000600052603260045260246000fd5b60200260200101518d6040518663ffffffff1660e01b81526004016131c5959493929190615189565b600060405180830381600087803b1580156131df57600080fd5b505af11580156131f3573d6000803e3d6000fd5b505050505b808061320390615999565b91505061308c565b508115613256577f2426307748198161cc6d888a254354d78b8e8a97610a53f1d4742a819010eb5c86888a8888604051613249959493929190615266565b60405180910390a1613296565b7f85801d8b70db8bdabd6c7f02c3cad017384b116cf25ca73238bba9a4d86bd1a386888a888860405161328d959493929190615266565b60405180910390a15b505093509350939050565b600033905090565b6132b16132a1565b73ffffffffffffffffffffffffffffffffffffffff166132cf6115c9565b73ffffffffffffffffffffffffffffffffffffffff1614613325576040517f08c379a000000000000000000000000000000000000000000000000000000000815260040161331c9061551c565b60405180910390fd5b50565b6000613332613ee4565b905061333d84613f3b565b60008351118061334a5750815b1561335b576133598484613ff4565b505b60006133897f4910fdfa16fed3260ed0e7147f7cc6da11a60208b5b9406d12a635614ffd914360001b6140d8565b90508060000160009054906101000a900460ff166135355760018160000160006101000a81548160ff02191690831515021790555061345585836040516024016133d39190615145565b6040516020818303038152906040527f3659cfe6000000000000000000000000000000000000000000000000000000007bffffffffffffffffffffffffffffffffffffffffffffffffffffffff19166020820180517bffffffffffffffffffffffffffffffffffffffffffffffffffffffff8381831617835250505050613ff4565b5060008160000160006101000a81548160ff02191690831515021790555061347b613ee4565b73ffffffffffffffffffffffffffffffffffffffff168273ffffffffffffffffffffffffffffffffffffffff16146134e8576040517f08c379a00000000000000000000000000000000000000000000000000000000081526004016134df906153bc565b60405180910390fd5b6134f185613f3b565b8473ffffffffffffffffffffffffffffffffffffffff167fbc7cd75a20ee27fd9adebab32041f755214dbc6bffa90cc0225b39da2e5c2d3b60405160405180910390a25b5050505050565b6000818361354a919061583e565b905092915050565b60008183613560919061580d565b905092915050565b6000818361357691906157b7565b905092915050565b6000818361358c9190615898565b905092915050565b600060019054906101000a900460ff16806135ba575060008054906101000a900460ff16155b6135f9576040517f08c379a00000000000000000000000000000000000000000000000000000000081526004016135f09061549c565b60405180910390fd5b60008060019054906101000a900460ff161590508015613649576001600060016101000a81548160ff02191690831515021790555060016000806101000a81548160ff0219169083151502179055505b6136516140e2565b6136596141bb565b801561367a5760008060016101000a81548160ff0219169083151502179055505b50565b600060019054906101000a900460ff16806136a3575060008054906101000a900460ff16155b6136e2576040517f08c379a00000000000000000000000000000000000000000000000000000000081526004016136d99061549c565b60405180910390fd5b60008060019054906101000a900460ff161590508015613732576001600060016101000a81548160ff02191690831515021790555060016000806101000a81548160ff0219169083151502179055505b61373a614294565b61374261436d565b80156137635760008060016101000a81548160ff0219169083151502179055505b50565b600060019054906101000a900460ff168061378c575060008054906101000a900460ff16155b6137cb576040517f08c379a00000000000000000000000000000000000000000000000000000000081526004016137c29061549c565b60405180910390fd5b60008060019054906101000a900460ff16159050801561381b576001600060016101000a81548160ff02191690831515021790555060016000806101000a81548160ff0219169083151502179055505b6138236144ef565b80156138445760008060016101000a81548160ff0219169083151502179055505b50565b600060fb60009054906101000a900473ffffffffffffffffffffffffffffffffffffffff1673ffffffffffffffffffffffffffffffffffffffff166327ab02b96040518163ffffffff1660e01b815260040160206040518083038186803b1580156138b157600080fd5b505afa1580156138c5573d6000803e3d6000fd5b505050506040513d601f19601f820116820180604052508101906138e99190614925565b90508073ffffffffffffffffffffffffffffffffffffffff163373ffffffffffffffffffffffffffffffffffffffff1614156139255750613a26565b60006139dc670de0b6b3a76400006139ce858573ffffffffffffffffffffffffffffffffffffffff1663883c95da896040518263ffffffff1660e01b81526004016139709190615145565b60206040518083038186803b15801561398857600080fd5b505afa15801561399c573d6000803e3d6000fd5b505050506040513d601f19601f820116820180604052508101906139c09190614b85565b61353c90919063ffffffff16565b61355290919063ffffffff16565b905060ff54811115613a23576040517f08c379a0000000000000000000000000000000000000000000000000000000008152600401613a1a9061541c565b60405180910390fd5b50505b5050565b6000613a5983613a4b670de0b6b3a76400008561353c90919063ffffffff16565b61355290919063ffffffff16565b9050613a658585610ed0565b8111158015613a7c5750670de0b6b3a76400008110155b613abb576040517f08c379a0000000000000000000000000000000000000000000000000000000008152600401613ab29061547c565b60405180910390fd5b5050505050565b600080613bac6064613b9e613ae3606460fe5461356890919063ffffffff16565b60fd60009054906101000a900473ffffffffffffffffffffffffffffffffffffffff1673ffffffffffffffffffffffffffffffffffffffff1663bcbe3f228d8d6040518363ffffffff1660e01b8152600401613b40929190615160565b60206040518083038186803b158015613b5857600080fd5b505afa158015613b6c573d6000803e3d6000fd5b505050506040513d601f19601f82011682018060405250810190613b909190614b85565b61353c90919063ffffffff16565b61355290919063ffffffff16565b90506000613bf7670de0b6b3a7640000613be989613bdb670de0b6b3a76400008b61353c90919063ffffffff16565b61355290919063ffffffff16565b61357e90919063ffffffff16565b905080851115613c05578094505b613c5784613c49670de0b6b3a7640000613c3b868c8c613c368d670de0b6b3a764000061356890919063ffffffff16565b612542565b61353c90919063ffffffff16565b61355290919063ffffffff16565b9250828873ffffffffffffffffffffffffffffffffffffffff166370a08231336040518263ffffffff1660e01b8152600401613c939190615145565b60206040518083038186803b158015613cab57600080fd5b505afa158015613cbf573d6000803e3d6000fd5b505050506040513d601f19601f82011682018060405250810190613ce39190614b85565b1015613d24576040517f08c379a0000000000000000000000000000000000000000000000000000000008152600401613d1b9061543c565b60405180910390fd5b50509695505050505050565b6060806000613d4085878961283d565b809350819550829450505050613d79670de0b6b3a7640000613d6b868861353c90919063ffffffff16565b61355290919063ffffffff16565b8114613dae577f4e487b7100000000000000000000000000000000000000000000000000000000600052600160045260246000fd5b5094509492505050565b606080613e14670de0b6b3a7640000613e0687613df8670de0b6b3a7640000613dea8c8b61353c90919063ffffffff16565b61355290919063ffffffff16565b61353c90919063ffffffff16565b61355290919063ffffffff16565b935060fc60009054906101000a900473ffffffffffffffffffffffffffffffffffffffff1673ffffffffffffffffffffffffffffffffffffffff1663eb2266fc8933878b60006040518663ffffffff1660e01b8152600401613e7a959493929190615213565b600060405180830381600087803b158015613e9457600080fd5b505af1158015613ea8573d6000803e3d6000fd5b505050506040513d6000823e3d601f19601f82011682018060405250810190613ed19190614a48565b8093508192505050509695505050505050565b6000613f127f360894a13ba1a3210667c828492db98dca3e2076cc3735a920a3ca505d382bbc60001b6145d0565b60000160009054906101000a900473ffffffffffffffffffffffffffffffffffffffff16905090565b613f44816145da565b613f83576040517f08c379a0000000000000000000000000000000000000000000000000000000008152600401613f7a906154fc565b60405180910390fd5b80613fb07f360894a13ba1a3210667c828492db98dca3e2076cc3735a920a3ca505d382bbc60001b6145d0565b60000160006101000a81548173ffffffffffffffffffffffffffffffffffffffff021916908373ffffffffffffffffffffffffffffffffffffffff16021790555050565b6060613fff836145da565b61403e576040517f08c379a00000000000000000000000000000000000000000000000000000000081526004016140359061555c565b60405180910390fd5b6000808473ffffffffffffffffffffffffffffffffffffffff1684604051614066919061512e565b600060405180830381855af49150503d80600081146140a1576040519150601f19603f3d011682016040523d82523d6000602084013e6140a6565b606091505b50915091506140ce8282604051806060016040528060278152602001615ea3602791396145ed565b9250505092915050565b6000819050919050565b600060019054906101000a900460ff1680614108575060008054906101000a900460ff16155b614147576040517f08c379a000000000000000000000000000000000000000000000000000000000815260040161413e9061549c565b60405180910390fd5b60008060019054906101000a900460ff161590508015614197576001600060016101000a81548160ff02191690831515021790555060016000806101000a81548160ff0219169083151502179055505b80156141b85760008060016101000a81548160ff0219169083151502179055505b50565b600060019054906101000a900460ff16806141e1575060008054906101000a900460ff16155b614220576040517f08c379a00000000000000000000000000000000000000000000000000000000081526004016142179061549c565b60405180910390fd5b60008060019054906101000a900460ff161590508015614270576001600060016101000a81548160ff02191690831515021790555060016000806101000a81548160ff0219169083151502179055505b80156142915760008060016101000a81548160ff0219169083151502179055505b50565b600060019054906101000a900460ff16806142ba575060008054906101000a900460ff16155b6142f9576040517f08c379a00000000000000000000000000000000000000000000000000000000081526004016142f09061549c565b60405180910390fd5b60008060019054906101000a900460ff161590508015614349576001600060016101000a81548160ff02191690831515021790555060016000806101000a81548160ff0219169083151502179055505b801561436a5760008060016101000a81548160ff0219169083151502179055505b50565b600060019054906101000a900460ff1680614393575060008054906101000a900460ff16155b6143d2576040517f08c379a00000000000000000000000000000000000000000000000000000000081526004016143c99061549c565b60405180910390fd5b60008060019054906101000a900460ff161590508015614422576001600060016101000a81548160ff02191690831515021790555060016000806101000a81548160ff0219169083151502179055505b600061442c6132a1565b905080609760006101000a81548173ffffffffffffffffffffffffffffffffffffffff021916908373ffffffffffffffffffffffffffffffffffffffff1602179055508073ffffffffffffffffffffffffffffffffffffffff16600073ffffffffffffffffffffffffffffffffffffffff167f8be0079c531659141344cd1fd0a4f28419497f9722a3daafe3b4186f6b6457e060405160405180910390a35080156144ec5760008060016101000a81548160ff0219169083151502179055505b50565b600060019054906101000a900460ff1680614515575060008054906101000a900460ff16155b614554576040517f08c379a000000000000000000000000000000000000000000000000000000000815260040161454b9061549c565b60405180910390fd5b60008060019054906101000a900460ff1615905080156145a4576001600060016101000a81548160ff02191690831515021790555060016000806101000a81548160ff0219169083151502179055505b600160c98190555080156145cd5760008060016101000a81548160ff0219169083151502179055505b50565b6000819050919050565b600080823b905060008111915050919050565b606083156145fd5782905061464d565b6000835111156146105782518084602001fd5b816040517f08c379a0000000000000000000000000000000000000000000000000000000008152600401614644919061537a565b60405180910390fd5b9392505050565b60006146676146628461568a565b615665565b9050808382526020820190508285602086028201111561468657600080fd5b60005b858110156146b6578161469c88826147d6565b845260208401935060208301925050600181019050614689565b5050509392505050565b60006146d36146ce8461568a565b615665565b905080838252602082019050828560208602820111156146f257600080fd5b60005b85811015614722578161470888826147eb565b8452602084019350602083019250506001810190506146f5565b5050509392505050565b600061473f61473a846156b6565b615665565b9050808382526020820190508285602086028201111561475e57600080fd5b60005b8581101561478e578161477488826148e7565b845260208401935060208301925050600181019050614761565b5050509392505050565b60006147ab6147a6846156e2565b615665565b9050828152602081018484840111156147c357600080fd5b6147ce848285615926565b509392505050565b6000813590506147e581615e46565b92915050565b6000815190506147fa81615e46565b92915050565b60008151905061480f81615e5d565b92915050565b600082601f83011261482657600080fd5b8135614836848260208601614654565b91505092915050565b600082601f83011261485057600080fd5b81516148608482602086016146c0565b91505092915050565b600082601f83011261487a57600080fd5b815161488a84826020860161472c565b91505092915050565b6000815190506148a281615e74565b92915050565b600082601f8301126148b957600080fd5b81356148c9848260208601614798565b91505092915050565b6000813590506148e181615e8b565b92915050565b6000815190506148f681615e8b565b92915050565b60006020828403121561490e57600080fd5b600061491c848285016147d6565b91505092915050565b60006020828403121561493757600080fd5b6000614945848285016147eb565b91505092915050565b60006020828403121561496057600080fd5b600061496e84828501614800565b91505092915050565b6000806040838503121561498a57600080fd5b6000614998858286016147d6565b92505060206149a9858286016147d6565b9150509250929050565b600080604083850312156149c657600080fd5b60006149d4858286016147d6565b925050602083013567ffffffffffffffff8111156149f157600080fd5b6149fd858286016148a8565b9150509250929050565b600060208284031215614a1957600080fd5b600082015167ffffffffffffffff811115614a3357600080fd5b614a3f8482850161483f565b91505092915050565b60008060408385031215614a5b57600080fd5b600083015167ffffffffffffffff811115614a7557600080fd5b614a818582860161483f565b925050602083015167ffffffffffffffff811115614a9e57600080fd5b614aaa85828601614869565b9150509250929050565b600080600060608486031215614ac957600080fd5b600084015167ffffffffffffffff811115614ae357600080fd5b614aef8682870161483f565b935050602084015167ffffffffffffffff811115614b0c57600080fd5b614b1886828701614869565b9250506040614b2986828701614893565b9150509250925092565b600060208284031215614b4557600080fd5b6000614b5384828501614893565b91505092915050565b600060208284031215614b6e57600080fd5b6000614b7c848285016148d2565b91505092915050565b600060208284031215614b9757600080fd5b6000614ba5848285016148e7565b91505092915050565b600080600080600060a08688031215614bc657600080fd5b6000614bd4888289016148d2565b9550506020614be5888289016147d6565b9450506040614bf6888289016147d6565b9350506060614c07888289016148d2565b9250506080614c18888289016147d6565b9150509295509295909350565b600080600080600060a08688031215614c3d57600080fd5b6000614c4b888289016148d2565b9550506020614c5c888289016147d6565b945050604086013567ffffffffffffffff811115614c7957600080fd5b614c8588828901614815565b9350506060614c96888289016148d2565b9250506080614ca7888289016147d6565b9150509295509295909350565b60008060008060808587031215614cca57600080fd5b6000614cd8878288016148d2565b9450506020614ce9878288016148d2565b9350506040614cfa878288016148d2565b9250506060614d0b878288016148d2565b91505092959194509250565b6000614d238383614d47565b60208301905092915050565b6000614d3b8383615110565b60208301905092915050565b614d50816158cc565b82525050565b614d5f816158cc565b82525050565b6000614d7082615733565b614d7a8185615779565b9350614d8583615713565b8060005b83811015614db6578151614d9d8882614d17565b9750614da88361575f565b925050600181019050614d89565b5085935050505092915050565b6000614dce8261573e565b614dd8818561578a565b9350614de383615723565b8060005b83811015614e14578151614dfb8882614d2f565b9750614e068361576c565b925050600181019050614de7565b5085935050505092915050565b614e2a816158f0565b82525050565b6000614e3b82615749565b614e45818561579b565b9350614e55818560208601615935565b80840191505092915050565b6000614e6c82615754565b614e7681856157a6565b9350614e86818560208601615935565b614e8f81615a6f565b840191505092915050565b6000614ea76008836157a6565b9150614eb282615a80565b602082019050919050565b6000614eca602f836157a6565b9150614ed582615aa9565b604082019050919050565b6000614eed6026836157a6565b9150614ef882615af8565b604082019050919050565b6000614f106021836157a6565b9150614f1b82615b47565b604082019050919050565b6000614f336002836157a6565b9150614f3e82615b96565b602082019050919050565b6000614f566020836157a6565b9150614f6182615bbf565b602082019050919050565b6000614f796002836157a6565b9150614f8482615be8565b602082019050919050565b6000614f9c6002836157a6565b9150614fa782615c11565b602082019050919050565b6000614fbf602e836157a6565b9150614fca82615c3a565b604082019050919050565b6000614fe26010836157a6565b9150614fed82615c89565b602082019050919050565b60006150056002836157a6565b915061501082615cb2565b602082019050919050565b6000615028602d836157a6565b915061503382615cdb565b604082019050919050565b600061504b6020836157a6565b915061505682615d2a565b602082019050919050565b600061506e6011836157a6565b915061507982615d53565b602082019050919050565b60006150916026836157a6565b915061509c82615d7c565b604082019050919050565b60006150b46002836157a6565b91506150bf82615dcb565b602082019050919050565b60006150d76006836157a6565b91506150e282615df4565b602082019050919050565b60006150fa601f836157a6565b915061510582615e1d565b602082019050919050565b6151198161591c565b82525050565b6151288161591c565b82525050565b600061513a8284614e30565b915081905092915050565b600060208201905061515a6000830184614d56565b92915050565b60006040820190506151756000830185614d56565b6151826020830184614d56565b9392505050565b600060a08201905061519e6000830188614d56565b6151ab6020830187614d56565b6151b86040830186614d56565b6151c5606083018561511f565b6151d26080830184614d56565b9695505050505050565b60006060820190506151f16000830186614d56565b6151fe6020830185614d56565b61520b604083018461511f565b949350505050565b600060a0820190506152286000830188614d56565b6152356020830187614d56565b615242604083018661511f565b61524f6060830185614d56565b61525c6080830184614e21565b9695505050505050565b600060a08201905061527b6000830188614d56565b6152886020830187614d56565b615295604083018661511f565b81810360608301526152a78185614dc3565b905081810360808301526152bb8184614d65565b90509695505050505050565b60006040820190506152dc6000830185614d56565b6152e9602083018461511f565b9392505050565b60006080820190506153056000830187614d56565b615312602083018661511f565b61531f6040830185614d56565b61532c6060830184614e21565b95945050505050565b6000606082019050818103600083015261534f8186614dc3565b905081810360208301526153638185614d65565b9050615372604083018461511f565b949350505050565b600060208201905081810360008301526153948184614e61565b905092915050565b600060208201905081810360008301526153b581614e9a565b9050919050565b600060208201905081810360008301526153d581614ebd565b9050919050565b600060208201905081810360008301526153f581614ee0565b9050919050565b6000602082019050818103600083015261541581614f03565b9050919050565b6000602082019050818103600083015261543581614f26565b9050919050565b6000602082019050818103600083015261545581614f49565b9050919050565b6000602082019050818103600083015261547581614f6c565b9050919050565b6000602082019050818103600083015261549581614f8f565b9050919050565b600060208201905081810360008301526154b581614fb2565b9050919050565b600060208201905081810360008301526154d581614fd5565b9050919050565b600060208201905081810360008301526154f581614ff8565b9050919050565b600060208201905081810360008301526155158161501b565b9050919050565b600060208201905081810360008301526155358161503e565b9050919050565b6000602082019050818103600083015261555581615061565b9050919050565b6000602082019050818103600083015261557581615084565b9050919050565b60006020820190508181036000830152615595816150a7565b9050919050565b600060208201905081810360008301526155b5816150ca565b9050919050565b600060208201905081810360008301526155d5816150ed565b9050919050565b60006020820190506155f1600083018461511f565b92915050565b600060608201905061560c600083018661511f565b818103602083015261561e8185614d65565b905081810360408301526156328184614dc3565b9050949350505050565b6000604082019050615651600083018561511f565b61565e6020830184614e21565b9392505050565b600061566f615680565b905061567b8282615968565b919050565b6000604051905090565b600067ffffffffffffffff8211156156a5576156a4615a40565b5b602082029050602081019050919050565b600067ffffffffffffffff8211156156d1576156d0615a40565b5b602082029050602081019050919050565b600067ffffffffffffffff8211156156fd576156fc615a40565b5b61570682615a6f565b9050602081019050919050565b6000819050602082019050919050565b6000819050602082019050919050565b600081519050919050565b600081519050919050565b600081519050919050565b600081519050919050565b6000602082019050919050565b6000602082019050919050565b600082825260208201905092915050565b600082825260208201905092915050565b600081905092915050565b600082825260208201905092915050565b60006157c28261591c565b91506157cd8361591c565b9250827fffffffffffffffffffffffffffffffffffffffffffffffffffffffffffffffff03821115615802576158016159e2565b5b828201905092915050565b60006158188261591c565b91506158238361591c565b92508261583357615832615a11565b5b828204905092915050565b60006158498261591c565b91506158548361591c565b9250817fffffffffffffffffffffffffffffffffffffffffffffffffffffffffffffffff048311821515161561588d5761588c6159e2565b5b828202905092915050565b60006158a38261591c565b91506158ae8361591c565b9250828210156158c1576158c06159e2565b5b828203905092915050565b60006158d7826158fc565b9050919050565b60006158e9826158fc565b9050919050565b60008115159050919050565b600073ffffffffffffffffffffffffffffffffffffffff82169050919050565b6000819050919050565b82818337600083830152505050565b60005b83811015615953578082015181840152602081019050615938565b83811115615962576000848401525b50505050565b61597182615a6f565b810181811067ffffffffffffffff821117156159905761598f615a40565b5b80604052505050565b60006159a48261591c565b91507fffffffffffffffffffffffffffffffffffffffffffffffffffffffffffffffff8214156159d7576159d66159e2565b5b600182019050919050565b7f4e487b7100000000000000000000000000000000000000000000000000000000600052601160045260246000fd5b7f4e487b7100000000000000000000000000000000000000000000000000000000600052601260045260246000fd5b7f4e487b7100000000000000000000000000000000000000000000000000000000600052604160045260246000fd5b6000601f19601f8301169050919050565b7f5252203e3d204352000000000000000000000000000000000000000000000000600082015250565b7f45524331393637557067726164653a207570677261646520627265616b73206660008201527f7572746865722075706772616465730000000000000000000000000000000000602082015250565b7f4f776e61626c653a206e6577206f776e657220697320746865207a65726f206160008201527f6464726573730000000000000000000000000000000000000000000000000000602082015250565b7f5472616e73616374696f6e2068617320657863656564656420646561646c696e60008201527f6500000000000000000000000000000000000000000000000000000000000000602082015250565b7f4e57000000000000000000000000000000000000000000000000000000000000600082015250565b7f4c697175696461746f723a20696e73756666696369656e742062616c616e6365600082015250565b7f4946000000000000000000000000000000000000000000000000000000000000600082015250565b7f4352000000000000000000000000000000000000000000000000000000000000600082015250565b7f496e697469616c697a61626c653a20636f6e747261637420697320616c72656160008201527f647920696e697469616c697a6564000000000000000000000000000000000000602082015250565b7f496e76616c6964207661756c7420435200000000000000000000000000000000600082015250565b7f4941000000000000000000000000000000000000000000000000000000000000600082015250565b7f455243313936373a206e657720696d706c656d656e746174696f6e206973206e60008201527f6f74206120636f6e747261637400000000000000000000000000000000000000602082015250565b7f4f776e61626c653a2063616c6c6572206973206e6f7420746865206f776e6572600082015250565b7f496e76616c696420746172676574204352000000000000000000000000000000600082015250565b7f416464726573733a2064656c65676174652063616c6c20746f206e6f6e2d636f60008201527f6e74726163740000000000000000000000000000000000000000000000000000602082015250565b7f4341000000000000000000000000000000000000000000000000000000000000600082015250565b7f303c523c3d310000000000000000000000000000000000000000000000000000600082015250565b7f5265656e7472616e637947756172643a207265656e7472616e742063616c6c00600082015250565b615e4f816158cc565b8114615e5a57600080fd5b50565b615e66816158de565b8114615e7157600080fd5b50565b615e7d816158f0565b8114615e8857600080fd5b50565b615e948161591c565b8114615e9f57600080fd5b5056fe416464726573733a206c6f772d6c6576656c2064656c65676174652063616c6c206661696c6564a2646970667358221220725737dda7b7f18194ad0fbc718e328d173db3cad3913002a40f03ffc587556564736f6c63430008030033",
  "linkReferences": {},
  "deployedLinkReferences": {}
}