{
  "_format": "hh-sol-artifact-1",
  "contractName": "PCT",
  "sourceName": "contracts/Bank/PCT.sol",
  "abi": [
    {
      "anonymous": false,
      "inputs": [
        {
          "indexed": false,
          "internalType": "address",
          "name": "previousAdmin",
          "type": "address"
        },
        {
          "indexed": false,
          "internalType": "address",
          "name": "newAdmin",
          "type": "address"
        }
      ],
      "name": "AdminChanged",
      "type": "event"
    },
    {
      "anonymous": false,
      "inputs": [
        {
          "indexed": true,
          "internalType": "address",
          "name": "beacon",
          "type": "address"
        }
      ],
      "name": "BeaconUpgraded",
      "type": "event"
    },
    {
      "anonymous": false,
      "inputs": [
        {
          "indexed": true,
          "internalType": "address",
          "name": "acount",
          "type": "address"
        },
        {
          "indexed": true,
          "internalType": "address",
          "name": "collateralToken",
          "type": "address"
        },
        {
          "indexed": false,
          "internalType": "uint256",
          "name": "amount",
          "type": "uint256"
        }
      ],
      "name": "ClaimInterest",
      "type": "event"
    },
    {
      "anonymous": false,
      "inputs": [
        {
          "indexed": true,
          "internalType": "address",
          "name": "previousOwner",
          "type": "address"
        },
        {
          "indexed": true,
          "internalType": "address",
          "name": "newOwner",
          "type": "address"
        }
      ],
      "name": "OwnershipTransferred",
      "type": "event"
    },
    {
      "anonymous": false,
      "inputs": [
        {
          "indexed": true,
          "internalType": "address",
          "name": "protocolInterfaceAddress",
          "type": "address"
        },
        {
          "indexed": true,
          "internalType": "address",
          "name": "collateralToken",
          "type": "address"
        },
        {
          "indexed": false,
          "internalType": "uint256",
          "name": "amount",
          "type": "uint256"
        }
      ],
      "name": "ProtocolClaimInterest",
      "type": "event"
    },
    {
      "anonymous": false,
      "inputs": [
        {
          "indexed": true,
          "internalType": "address",
          "name": "protocolInterfaceAddress",
          "type": "address"
        },
        {
          "indexed": true,
          "internalType": "address",
          "name": "collateralToken",
          "type": "address"
        },
        {
          "indexed": false,
          "internalType": "uint256",
          "name": "amount",
          "type": "uint256"
        }
      ],
      "name": "ProtocolDepositFunds",
      "type": "event"
    },
    {
      "anonymous": false,
      "inputs": [
        {
          "indexed": true,
          "internalType": "address",
          "name": "protocolInterfaceAddress",
          "type": "address"
        },
        {
          "indexed": true,
          "internalType": "address",
          "name": "collateralToken",
          "type": "address"
        },
        {
          "indexed": false,
          "internalType": "uint256",
          "name": "amount",
          "type": "uint256"
        }
      ],
      "name": "ProtocolReturnFunds",
      "type": "event"
    },
    {
      "anonymous": false,
      "inputs": [
        {
          "indexed": true,
          "internalType": "address",
          "name": "protocolInterfaceAddress",
          "type": "address"
        },
        {
          "indexed": true,
          "internalType": "address",
          "name": "collateralToken",
          "type": "address"
        }
      ],
      "name": "SetProtocolInterface",
      "type": "event"
    },
    {
      "anonymous": false,
      "inputs": [
        {
          "indexed": true,
          "internalType": "address",
          "name": "account",
          "type": "address"
        },
        {
          "indexed": true,
          "internalType": "address",
          "name": "fxToken",
          "type": "address"
        },
        {
          "indexed": true,
          "internalType": "address",
          "name": "collateralToken",
          "type": "address"
        },
        {
          "indexed": false,
          "internalType": "uint256",
          "name": "amount",
          "type": "uint256"
        }
      ],
      "name": "Stake",
      "type": "event"
    },
    {
      "anonymous": false,
      "inputs": [
        {
          "indexed": true,
          "internalType": "address",
          "name": "protocolInterfaceAddress",
          "type": "address"
        },
        {
          "indexed": true,
          "internalType": "address",
          "name": "collateralToken",
          "type": "address"
        }
      ],
      "name": "UnsetProtocolInterface",
      "type": "event"
    },
    {
      "anonymous": false,
      "inputs": [
        {
          "indexed": true,
          "internalType": "address",
          "name": "account",
          "type": "address"
        },
        {
          "indexed": true,
          "internalType": "address",
          "name": "fxToken",
          "type": "address"
        },
        {
          "indexed": true,
          "internalType": "address",
          "name": "collateralToken",
          "type": "address"
        },
        {
          "indexed": false,
          "internalType": "uint256",
          "name": "amount",
          "type": "uint256"
        }
      ],
      "name": "Unstake",
      "type": "event"
    },
    {
      "anonymous": false,
      "inputs": [
        {
          "indexed": true,
          "internalType": "address",
          "name": "implementation",
          "type": "address"
        }
      ],
      "name": "Upgraded",
      "type": "event"
    },
    {
      "inputs": [
        {
          "internalType": "address",
          "name": "account",
          "type": "address"
        },
        {
          "internalType": "address",
          "name": "fxToken",
          "type": "address"
        },
        {
          "internalType": "address",
          "name": "collateralToken",
          "type": "address"
        }
      ],
      "name": "balanceOfClaimableInterest",
      "outputs": [
        {
          "internalType": "uint256",
          "name": "amount",
          "type": "uint256"
        }
      ],
      "stateMutability": "view",
      "type": "function"
    },
    {
      "inputs": [
        {
          "internalType": "address",
          "name": "account",
          "type": "address"
        },
        {
          "internalType": "address",
          "name": "fxToken",
          "type": "address"
        },
        {
          "internalType": "address",
          "name": "collateralToken",
          "type": "address"
        }
      ],
      "name": "balanceOfStake",
      "outputs": [
        {
          "internalType": "uint256",
          "name": "amount",
          "type": "uint256"
        }
      ],
      "stateMutability": "view",
      "type": "function"
    },
    {
      "inputs": [
        {
          "internalType": "address",
          "name": "fxToken",
          "type": "address"
        },
        {
          "internalType": "address",
          "name": "collateralToken",
          "type": "address"
        }
      ],
      "name": "claimInterest",
      "outputs": [],
      "stateMutability": "nonpayable",
      "type": "function"
    },
    {
      "inputs": [
        {
          "internalType": "address",
          "name": "collateralToken",
          "type": "address"
        },
        {
          "internalType": "address",
          "name": "pia",
          "type": "address"
        }
      ],
      "name": "claimProtocolInterest",
      "outputs": [],
      "stateMutability": "nonpayable",
      "type": "function"
    },
    {
      "inputs": [
        {
          "internalType": "address",
          "name": "collateralToken",
          "type": "address"
        },
        {
          "internalType": "address",
          "name": "pia",
          "type": "address"
        },
        {
          "internalType": "uint256",
          "name": "ratio",
          "type": "uint256"
        }
      ],
      "name": "depositProtocolFunds",
      "outputs": [],
      "stateMutability": "nonpayable",
      "type": "function"
    },
    {
      "inputs": [
        {
          "internalType": "address",
          "name": "collateralToken",
          "type": "address"
        },
        {
          "internalType": "address",
          "name": "pia",
          "type": "address"
        }
      ],
      "name": "getProtocolInvestments",
      "outputs": [
        {
          "internalType": "uint256",
          "name": "amount",
          "type": "uint256"
        }
      ],
      "stateMutability": "view",
      "type": "function"
    },
    {
      "inputs": [
        {
          "internalType": "address",
          "name": "collateralToken",
          "type": "address"
        }
      ],
      "name": "getTotalAccruedInterest",
      "outputs": [
        {
          "internalType": "uint256",
          "name": "amount",
          "type": "uint256"
        }
      ],
      "stateMutability": "view",
      "type": "function"
    },
    {
      "inputs": [
        {
          "internalType": "address",
          "name": "collateralToken",
          "type": "address"
        }
      ],
      "name": "getTotalDeposits",
      "outputs": [
        {
          "internalType": "uint256",
          "name": "amount",
          "type": "uint256"
        }
      ],
      "stateMutability": "view",
      "type": "function"
    },
    {
      "inputs": [
        {
          "internalType": "address",
          "name": "collateralToken",
          "type": "address"
        }
      ],
      "name": "getTotalInvestments",
      "outputs": [
        {
          "internalType": "uint256",
          "name": "amount",
          "type": "uint256"
        }
      ],
      "stateMutability": "view",
      "type": "function"
    },
    {
      "inputs": [],
      "name": "handleAddress",
      "outputs": [
        {
          "internalType": "address",
          "name": "",
          "type": "address"
        }
      ],
      "stateMutability": "view",
      "type": "function"
    },
    {
      "inputs": [],
      "name": "initialize",
      "outputs": [],
      "stateMutability": "nonpayable",
      "type": "function"
    },
    {
      "inputs": [],
      "name": "owner",
      "outputs": [
        {
          "internalType": "address",
          "name": "",
          "type": "address"
        }
      ],
      "stateMutability": "view",
      "type": "function"
    },
    {
      "inputs": [],
      "name": "protocolFee",
      "outputs": [
        {
          "internalType": "uint256",
          "name": "",
          "type": "uint256"
        }
      ],
      "stateMutability": "view",
      "type": "function"
    },
    {
      "inputs": [],
      "name": "renounceOwnership",
      "outputs": [],
      "stateMutability": "nonpayable",
      "type": "function"
    },
    {
      "inputs": [
        {
          "internalType": "address",
          "name": "collateralToken",
          "type": "address"
        },
        {
          "internalType": "address",
          "name": "requestedToken",
          "type": "address"
        },
        {
          "internalType": "uint256",
          "name": "amount",
          "type": "uint256"
        }
      ],
      "name": "requestTreasuryFunds",
      "outputs": [],
      "stateMutability": "nonpayable",
      "type": "function"
    },
    {
      "inputs": [
        {
          "internalType": "address",
          "name": "collateralToken",
          "type": "address"
        },
        {
          "internalType": "address",
          "name": "returnedToken",
          "type": "address"
        },
        {
          "internalType": "uint256",
          "name": "amount",
          "type": "uint256"
        }
      ],
      "name": "returnTreasuryFunds",
      "outputs": [],
      "stateMutability": "nonpayable",
      "type": "function"
    },
    {
      "inputs": [
        {
          "internalType": "address",
          "name": "_handle",
          "type": "address"
        }
      ],
      "name": "setHandleContract",
      "outputs": [],
      "stateMutability": "nonpayable",
      "type": "function"
    },
    {
      "inputs": [
        {
          "internalType": "uint256",
          "name": "ratio",
          "type": "uint256"
        }
      ],
      "name": "setProtocolFee",
      "outputs": [],
      "stateMutability": "nonpayable",
      "type": "function"
    },
    {
      "inputs": [
        {
          "internalType": "address",
          "name": "collateralToken",
          "type": "address"
        },
        {
          "internalType": "address",
          "name": "pia",
          "type": "address"
        }
      ],
      "name": "setProtocolInterface",
      "outputs": [],
      "stateMutability": "nonpayable",
      "type": "function"
    },
    {
      "inputs": [
        {
          "internalType": "address",
          "name": "account",
          "type": "address"
        },
        {
          "internalType": "uint256",
          "name": "amount",
          "type": "uint256"
        },
        {
          "internalType": "address",
          "name": "fxToken",
          "type": "address"
        },
        {
          "internalType": "address",
          "name": "collateralToken",
          "type": "address"
        }
      ],
      "name": "stake",
      "outputs": [
        {
          "internalType": "uint256",
          "name": "errorCode",
          "type": "uint256"
        }
      ],
      "stateMutability": "nonpayable",
      "type": "function"
    },
    {
      "inputs": [
        {
          "internalType": "address",
          "name": "newOwner",
          "type": "address"
        }
      ],
      "name": "transferOwnership",
      "outputs": [],
      "stateMutability": "nonpayable",
      "type": "function"
    },
    {
      "inputs": [
        {
          "internalType": "address",
          "name": "collateralToken",
          "type": "address"
        },
        {
          "internalType": "address",
          "name": "pia",
          "type": "address"
        }
      ],
      "name": "unsetProtocolInterface",
      "outputs": [],
      "stateMutability": "nonpayable",
      "type": "function"
    },
    {
      "inputs": [
        {
          "internalType": "address",
          "name": "account",
          "type": "address"
        },
        {
          "internalType": "uint256",
          "name": "amount",
          "type": "uint256"
        },
        {
          "internalType": "address",
          "name": "fxToken",
          "type": "address"
        },
        {
          "internalType": "address",
          "name": "collateralToken",
          "type": "address"
        }
      ],
      "name": "unstake",
      "outputs": [
        {
          "internalType": "uint256",
          "name": "errorCode",
          "type": "uint256"
        }
      ],
      "stateMutability": "nonpayable",
      "type": "function"
    },
    {
      "inputs": [
        {
          "internalType": "address",
          "name": "newImplementation",
          "type": "address"
        }
      ],
      "name": "upgradeTo",
      "outputs": [],
      "stateMutability": "nonpayable",
      "type": "function"
    },
    {
      "inputs": [
        {
          "internalType": "address",
          "name": "newImplementation",
          "type": "address"
        },
        {
          "internalType": "bytes",
          "name": "data",
          "type": "bytes"
        }
      ],
      "name": "upgradeToAndCall",
      "outputs": [],
      "stateMutability": "payable",
      "type": "function"
    },
    {
      "inputs": [
        {
          "internalType": "address",
          "name": "collateralToken",
          "type": "address"
        },
        {
          "internalType": "address",
          "name": "pia",
          "type": "address"
        },
        {
          "internalType": "uint256",
          "name": "amount",
          "type": "uint256"
        }
      ],
      "name": "withdrawProtocolFunds",
      "outputs": [],
      "stateMutability": "nonpayable",
      "type": "function"
    },
    {
      "stateMutability": "payable",
      "type": "receive"
    }
  ],
  "bytecode": "0x60a06040523060601b60805234801561001757600080fd5b5060805160601c61337e61004b600039600081816106be015281816106fe01528181610ccd0152610d0d015261337e6000f3fe6080604052600436106101855760003560e01c80636c43cf1d116100d15780638da5cb5b1161008a578063ba437c6811610064578063ba437c681461047b578063cb9bdef41461049b578063f12582ea146104d4578063f2fde38b146104f45761018c565b80638da5cb5b146104275780639b1c414f14610445578063b0e21e8a146104655761018c565b80636c43cf1d1461036b578063715018a61461038b57806371dfb89b146103a057806374bf578b146103c0578063787dce3d146103f25780638129fc1c146104125761018c565b80634b2c636b1161013e5780635aa347c7116101185780635aa347c7146102eb5780635b73ec001461030b5780635ba0e4261461032b578063618b4f881461034b5761018c565b80634b2c636b1461027f5780634f1ef2861461029f578063596999b2146102b25761018c565b80630251cfa1146101915780631855365d146101dd5780633659cfe6146101ff57806340cf49bd1461021f57806344381ed01461023f5780634a0e780e1461025f5761018c565b3661018c57005b600080fd5b34801561019d57600080fd5b506101ca6101ac366004612e2a565b6001600160a01b0316600090815260fd602052604090206003015490565b6040519081526020015b60405180910390f35b3480156101e957600080fd5b506101fd6101f8366004612ee4565b610514565b005b34801561020b57600080fd5b506101fd61021a366004612e2a565b6106b3565b34801561022b57600080fd5b506101ca61023a366004612e9a565b61077c565b34801561024b57600080fd5b506101ca61025a366004612e9a565b6107c8565b34801561026b57600080fd5b506101ca61027a366004612fe3565b610811565b34801561028b57600080fd5b506101fd61029a366004612e62565b610bbd565b6101fd6102ad366004612f24565b610cc2565b3480156102be57600080fd5b506101ca6102cd366004612e2a565b6001600160a01b0316600090815260fd602052604090206006015490565b3480156102f757600080fd5b506101ca610306366004612fe3565b610d7c565b34801561031757600080fd5b506101fd610326366004612ee4565b611008565b34801561033757600080fd5b506101fd610346366004612ee4565b61117f565b34801561035757600080fd5b506101ca610366366004612e62565b611482565b34801561037757600080fd5b506101fd610386366004612ee4565b6114b3565b34801561039757600080fd5b506101fd61164b565b3480156103ac57600080fd5b506101fd6103bb366004612e62565b611681565b3480156103cc57600080fd5b5060fb546001600160a01b03165b6040516001600160a01b0390911681526020016101d4565b3480156103fe57600080fd5b506101fd61040d366004613055565b611999565b34801561041e57600080fd5b506101fd611a20565b34801561043357600080fd5b506097546001600160a01b03166103da565b34801561045157600080fd5b506101fd610460366004612e2a565b611a9b565b34801561047157600080fd5b506101ca60fe5481565b34801561048757600080fd5b506101fd610496366004612e62565b611b74565b3480156104a757600080fd5b506101ca6104b6366004612e2a565b6001600160a01b0316600090815260fd602052604090206005015490565b3480156104e057600080fd5b506101fd6104ef366004612e62565b611ce4565b34801561050057600080fd5b506101fd61050f366004612e2a565b611eb7565b60fb546001600160a01b03166001600160a01b031663b187bd266040518163ffffffff1660e01b815260040160206040518083038186803b15801561055857600080fd5b505afa15801561056c573d6000803e3d6000fd5b505050506040513d601f19601f820116820180604052508101906105909190613035565b156105b65760405162461bcd60e51b81526004016105ad906130d4565b60405180910390fd5b6001600160a01b038316600090815260fd6020908152604080832033808552600190910183529281902054815180830190925260158252745043543a206e6f7420616e20696e7465726661636560581b9282019290925285929160ff166106305760405162461bcd60e51b81526004016105ad91906130a1565b5060fc54604051638c6d4c4760e01b81526001600160a01b0386811660048301526024820186905290911690638c6d4c4790604401600060405180830381600087803b15801561067f57600080fd5b505af1158015610693573d6000803e3d6000fd5b506106ac925050506001600160a01b0385163385611f4f565b5050505050565b306001600160a01b037f00000000000000000000000000000000000000000000000000000000000000001614156106fc5760405162461bcd60e51b81526004016105ad906130f4565b7f00000000000000000000000000000000000000000000000000000000000000006001600160a01b031661072e611fb7565b6001600160a01b0316146107545760405162461bcd60e51b81526004016105ad90613140565b61075d81611fe5565b604080516000808252602082019092526107799183919061200f565b50565b6001600160a01b03808216600090815260fd60209081526040808320878516845282528083209386168352929052908120805460018201546107bd91612153565b9150505b9392505050565b6001600160a01b03808216600090815260fd6020908152604080832087851684528083528184209487168452939091528120909190610807828261215f565b9695505050505050565b600061082560fb546001600160a01b031690565b6001600160a01b031663b187bd266040518163ffffffff1660e01b815260040160206040518083038186803b15801561085d57600080fd5b505afa158015610871573d6000803e3d6000fd5b505050506040513d601f19601f820116820180604052508101906108959190613035565b156108b25760405162461bcd60e51b81526004016105ad906130d4565b600260c95414156108d55760405162461bcd60e51b81526004016105ad9061320f565b600260c955336001600160a01b03861614806108fb575060fc546001600160a01b031633145b604051806040016040528060128152602001711410d50e881858d8d95cdcc819195b9a595960721b815250906109445760405162461bcd60e51b81526004016105ad91906130a1565b508361095257506001610bb0565b60fb5460405163062315a960e51b81526001600160a01b03878116600483015284811660248301528581166044830152600092169063c462b5209060640160206040518083038186803b1580156109a857600080fd5b505afa1580156109bc573d6000803e3d6000fd5b505050506040513d601f19601f820116820180604052508101906109e0919061306d565b9050848110156109f4576002915050610bb0565b6000610a98670de0b6b3a7640000610a9260fb60009054906101000a90046001600160a01b03166001600160a01b03166301964f366040518163ffffffff1660e01b815260040160206040518083038186803b158015610a5357600080fd5b505afa158015610a67573d6000803e3d6000fd5b505050506040513d601f19601f82011682018060405250810190610a8b919061306d565b85906121d7565b906121e3565b90506000610aa788878761077c565b9050818110610abc5760039350505050610bb0565b6000610ac883836121ef565b905080881115610ad6578097505b6001600160a01b03808716600090815260fd602090815260408083208d85168452808352818420948c168452939091529020610b1282826121fb565b610b1d8b8a8a61222c565b506003820154610b2d908b612153565b60038301558054610b3e908b612153565b8155600782015460028201556008820154610b5a906001612153565b60038201556040518a81526001600160a01b03808a16918b8216918e16907fc5017594d2723c038bb216e5bcef3ac65910ade839c0e63253bf5b59efbf0fd79060200160405180910390a4600096505050505050505b600160c955949350505050565b6097546001600160a01b03163314610be75760405162461bcd60e51b81526004016105ad906131da565b6001600160a01b03808316600090815260fd6020908152604080832093851683526001840182529182902054825180840190935260158352745043543a206e6f7420616e20696e7465726661636560581b9183019190915260ff16610c5f5760405162461bcd60e51b81526004016105ad91906130a1565b506001600160a01b03808416600081815260fd602090815260408083209487168084526001909501909152808220805460ff19169055519192917f12a1456b63108a9a857cdff1cdd634e182a704f40f857e1ff35335912a1754199190a3505050565b306001600160a01b037f0000000000000000000000000000000000000000000000000000000000000000161415610d0b5760405162461bcd60e51b81526004016105ad906130f4565b7f00000000000000000000000000000000000000000000000000000000000000006001600160a01b0316610d3d611fb7565b6001600160a01b031614610d635760405162461bcd60e51b81526004016105ad90613140565b610d6c82611fe5565b610d788282600161200f565b5050565b6000610d9060fb546001600160a01b031690565b6001600160a01b031663b187bd266040518163ffffffff1660e01b815260040160206040518083038186803b158015610dc857600080fd5b505afa158015610ddc573d6000803e3d6000fd5b505050506040513d601f19601f82011682018060405250810190610e009190613035565b15610e1d5760405162461bcd60e51b81526004016105ad906130d4565b600260c9541415610e405760405162461bcd60e51b81526004016105ad9061320f565b600260c955336001600160a01b0386161480610e66575060fc546001600160a01b031633145b604051806040016040528060128152602001711410d50e881858d8d95cdcc819195b9a595960721b81525090610eaf5760405162461bcd60e51b81526004016105ad91906130a1565b506000610ebd86858561077c565b905080851115610ecb578094505b84610eda576001915050610bb0565b6001600160a01b03808416600090815260fd602090815260408083208a851684528083528184209489168452939091529020610f1682826121fb565b610f2188878761222c565b506007820154600282015580548711610f5b578054610f4090886121ef565b81556003820154610f5190886121ef565b6003830155610f9e565b8054600090610f6b9089906121ef565b82546003850154919250610f7f91906121ef565b6003840155600082556001820154610f9790826121ef565b6001830155505b846001600160a01b0316866001600160a01b0316896001600160a01b03167f2cbcd809a4c90d11f8d12c4b6d09986b255ae1e68f54f076c145fbb2185904e18a604051610fed91815260200190565b60405180910390a45050600160c95550600095945050505050565b60fb546001600160a01b03166001600160a01b031663b187bd266040518163ffffffff1660e01b815260040160206040518083038186803b15801561104c57600080fd5b505afa158015611060573d6000803e3d6000fd5b505050506040513d601f19601f820116820180604052508101906110849190613035565b156110a15760405162461bcd60e51b81526004016105ad906130d4565b6001600160a01b038316600090815260fd6020908152604080832033808552600190910183529281902054815180830190925260158252745043543a206e6f7420616e20696e7465726661636560581b9282019290925285929160ff1661111b5760405162461bcd60e51b81526004016105ad91906130a1565b5060fc54611138906001600160a01b038681169133911686612364565b6040518381526001600160a01b0385169033907f2cb2d56694b14c7fc4a4f9b8fca65261b65dde83ded753b9b3856f02c01008ab9060200160405180910390a35050505050565b6097546001600160a01b031633146111a95760405162461bcd60e51b81526004016105ad906131da565b600260c95414156111cc5760405162461bcd60e51b81526004016105ad9061320f565b600260c9556001600160a01b03808416600090815260fd602090815260408083209386168352600190930181529082902054825180840190935260158352745043543a206e6f7420616e20696e7465726661636560581b918301919091528491849160ff1661124e5760405162461bcd60e51b81526004016105ad91906130a1565b506000831180156112675750670de0b6b3a76400008311155b6112b35760405162461bcd60e51b815260206004820152601b60248201527f5043543a20696e76616c696420726174696f2028303c523c3d3129000000000060448201526064016105ad565b6001600160a01b038516600090815260fd60205260409020600381015461131c5760405162461bcd60e51b815260206004820152601760248201527f5043543a206e6f2066756e647320617661696c61626c6500000000000000000060448201526064016105ad565b6000611341670de0b6b3a7640000610a928785600301546121d790919063ffffffff16565b60405163b6b55f2560e01b8152600481018290529091506001600160a01b0387169063b6b55f2590602401600060405180830381600087803b15801561138657600080fd5b505af115801561139a573d6000803e3d6000fd5b50505060058301546113ad915082612153565b60058301556001600160a01b03861660009081526002830160205260409020546113d79082612153565b6001600160a01b0387166000908152600284016020526040902055600382015461140190826121ef565b6003830181905560058301546114179190612153565b6004830155600882015461142c906001612153565b60088301556040518181526001600160a01b0380891691908816907fbc724c1675db759aec8fb95e946e8f501586936264e27a5dc29b45d89e4249bc9060200160405180910390a35050600160c9555050505050565b6001600160a01b03808316600090815260fd6020908152604080832093851683526002909301905220545b92915050565b6097546001600160a01b031633146114dd5760405162461bcd60e51b81526004016105ad906131da565b600260c95414156115005760405162461bcd60e51b81526004016105ad9061320f565b600260c98190556001600160a01b03808516600090815260fd60209081526040808320938716835293830190529190912054806115735760405162461bcd60e51b81526020600482015260116024820152701410d50e881b9bdd081a5b9d995cdd1959607a1b60448201526064016105ad565b8361157e81876123a2565b60058301548085111561158f578094505b604051632e1a7d4d60e01b8152600481018690526001600160a01b03831690632e1a7d4d90602401600060405180830381600087803b1580156115d157600080fd5b505af11580156115e5573d6000803e3d6000fd5b505050506115fc85826121ef90919063ffffffff16565b600585015561160b83866121ef565b6001600160a01b038716600090815260028601602052604090205560038401546116359086612153565b6003909401939093555050600160c95550505050565b6097546001600160a01b031633146116755760405162461bcd60e51b81526004016105ad906131da565b61167f6000612600565b565b6097546001600160a01b031633146116ab5760405162461bcd60e51b81526004016105ad906131da565b600260c95414156116ce5760405162461bcd60e51b81526004016105ad9061320f565b600260c9556001600160a01b03808316600090815260fd602090815260408083209385168352600190930181529082902054825180840190935260158352745043543a206e6f7420616e20696e7465726661636560581b918301919091528391839160ff166117505760405162461bcd60e51b81526004016105ad91906130a1565b5060fc546040516370a0823160e01b81526001600160a01b0391821660048201526000918616906370a082319060240160206040518083038186803b15801561179857600080fd5b505afa1580156117ac573d6000803e3d6000fd5b505050506040513d601f19601f820116820180604052508101906117d0919061306d565b905060008490506000816001600160a01b031663c7b8981c6040518163ffffffff1660e01b8152600401602060405180830381600087803b15801561181457600080fd5b505af1158015611828573d6000803e3d6000fd5b505050506040513d601f19601f8201168201806040525081019061184c919061306d565b60fc546040516370a0823160e01b81526001600160a01b039182166004820152919250600091908916906370a082319060240160206040518083038186803b15801561189757600080fd5b505afa1580156118ab573d6000803e3d6000fd5b505050506040513d601f19601f820116820180604052508101906118cf919061306d565b90506118db8483612153565b81146119295760405162461bcd60e51b815260206004820152601a60248201527f5043543a20636c61696d207472616e73666572206661696c656400000000000060448201526064016105ad565b6119338883612652565b61193d83896123a2565b876001600160a01b0316876001600160a01b03167f78a5e2361351659984d3361f31888559465d0d960bf8f57970db9996608c29338460405161198291815260200190565b60405180910390a35050600160c955505050505050565b6097546001600160a01b031633146119c35760405162461bcd60e51b81526004016105ad906131da565b670de0b6b3a7640000811115611a1b5760405162461bcd60e51b815260206004820152601c60248201527f5043543a20696e76616c696420726174696f2028303c3d523c3d31290000000060448201526064016105ad565b60fe55565b600054610100900460ff1680611a39575060005460ff16155b611a555760405162461bcd60e51b81526004016105ad9061318c565b600054610100900460ff16158015611a77576000805461ffff19166101011790555b611a7f6127ed565b611a87612854565b8015610779576000805461ff001916905550565b6097546001600160a01b03163314611ac55760405162461bcd60e51b81526004016105ad906131da565b60fb80546001600160a01b0319166001600160a01b038316908117909155604080516361d027b360e01b815290516361d027b391600480820192602092909190829003018186803b158015611b1957600080fd5b505afa158015611b2d573d6000803e3d6000fd5b505050506040513d601f19601f82011682018060405250810190611b519190612e46565b60fc80546001600160a01b0319166001600160a01b039290921691909117905550565b60fb546001600160a01b03166001600160a01b031663b187bd266040518163ffffffff1660e01b815260040160206040518083038186803b158015611bb857600080fd5b505afa158015611bcc573d6000803e3d6000fd5b505050506040513d601f19601f82011682018060405250810190611bf09190613035565b15611c0d5760405162461bcd60e51b81526004016105ad906130d4565b600260c9541415611c305760405162461bcd60e51b81526004016105ad9061320f565b600260c9556001600160a01b03808216600090815260fd602090815260408083203384528083528184209487168452939091529020611c6f82826121fb565b6000611c7c33868661222c565b905060008111611cce5760405162461bcd60e51b815260206004820152601a60248201527f5043543a206e6f20636c61696d61626c6520696e74657265737400000000000060448201526064016105ad565b506007909101546002909101555050600160c955565b6097546001600160a01b03163314611d0e5760405162461bcd60e51b81526004016105ad906131da565b6000819050826001600160a01b0316816001600160a01b031663fdd1c36f6040518163ffffffff1660e01b815260040160206040518083038186803b158015611d5657600080fd5b505afa158015611d6a573d6000803e3d6000fd5b505050506040513d601f19601f82011682018060405250810190611d8e9190612e46565b6001600160a01b031614611de45760405162461bcd60e51b815260206004820152601d60248201527f5043543a20696e7465726661636520746f6b656e206d69736d6174636800000060448201526064016105ad565b6001600160a01b03808416600090815260fd6020908152604080832093861683526001840190915290205460ff1615611e5f5760405162461bcd60e51b815260206004820152601a60248201527f5043543a20696e7465726661636520616c72656164792073657400000000000060448201526064016105ad565b6001600160a01b03808416600081815260018481016020526040808320805460ff191690921790915551928716927f3834fee568ad81cff3ba3707ea01952cad03aa1cb684c083de0fbfce1adbba449190a350505050565b6097546001600160a01b03163314611ee15760405162461bcd60e51b81526004016105ad906131da565b6001600160a01b038116611f465760405162461bcd60e51b815260206004820152602660248201527f4f776e61626c653a206e6577206f776e657220697320746865207a65726f206160448201526564647265737360d01b60648201526084016105ad565b61077981612600565b6040516001600160a01b038316602482015260448101829052611fb290849063a9059cbb60e01b906064015b60408051601f198184030181529190526020810180516001600160e01b03166001600160e01b0319909316929092179091526128b3565b505050565b7f360894a13ba1a3210667c828492db98dca3e2076cc3735a920a3ca505d382bbc546001600160a01b031690565b6097546001600160a01b031633146107795760405162461bcd60e51b81526004016105ad906131da565b6000612019611fb7565b905061202484612985565b6000835111806120315750815b15612042576120408484612a2a565b505b7f4910fdfa16fed3260ed0e7147f7cc6da11a60208b5b9406d12a635614ffd9143805460ff166106ac57805460ff191660011781556040516001600160a01b03831660248201526120c190869060440160408051601f198184030181529190526020810180516001600160e01b0316631b2ce7f360e11b179052612a2a565b50805460ff191681556120d2611fb7565b6001600160a01b0316826001600160a01b03161461214a5760405162461bcd60e51b815260206004820152602f60248201527f45524331393637557067726164653a207570677261646520627265616b73206660448201526e75727468657220757067726164657360881b60648201526084016105ad565b6106ac85612b0c565b60006107c18284613246565b6000826007015460001415612176575060006114ad565b6000612193836002015485600701546121ef90919063ffffffff16565b905060006121a18585612b4c565b90506121b9670de0b6b3a7640000610a9283856121d7565b925082156121cf576121cc60018461329d565b92505b505092915050565b60006107c1828461327e565b60006107c1828461325e565b60006107c1828461329d565b81600801548160030154111561221057610d78565b8054600182015461222091612153565b60018201556000905550565b6001600160a01b03808216600090815260fd602090815260408083208785168452808352818420948716845293909152812090919061226b828261215f565b92508261227d576000925050506107c1565b600682015461228c90846121ef565b600683015560fb5460405163181e20a760e01b81526001600160a01b0388811660048301526024820186905287811660448301528681166064830152600160848301529091169063181e20a79060a401600060405180830381600087803b1580156122f657600080fd5b505af115801561230a573d6000803e3d6000fd5b50505050836001600160a01b0316866001600160a01b03167feba725fa451eb408a24432f4ad3fb91000f13659a84e831632133ea702ded0b18560405161235391815260200190565b60405180910390a350509392505050565b6040516001600160a01b038085166024830152831660448201526064810182905261239c9085906323b872dd60e01b90608401611f7b565b50505050565b6001600160a01b03818116600081815260fd6020526040808220600581015460fc5492516370a0823160e01b81529290951660048301529386939092916124449184916370a082319060240160206040518083038186803b15801561240657600080fd5b505afa15801561241a573d6000803e3d6000fd5b505050506040513d601f19601f8201168201806040525081019061243e919061306d565b90612153565b9050600060fb60009054906101000a90046001600160a01b03166001600160a01b03166301964f366040518163ffffffff1660e01b815260040160206040518083038186803b15801561249657600080fd5b505afa1580156124aa573d6000803e3d6000fd5b505050506040513d601f19601f820116820180604052508101906124ce919061306d565b905060006124e8670de0b6b3a7640000610a9285856121d7565b90508084116124fc57505050505050610d78565b600061250885836121ef565b6001600160a01b038716600090815260028901602052604090205490915081111561254357634e487b7160e01b600052600160045260246000fd5b604051632e1a7d4d60e01b8152600481018290526001600160a01b038a1690632e1a7d4d90602401600060405180830381600087803b15801561258557600080fd5b505af1158015612599573d6000803e3d6000fd5b50505060058801546125ac9150826121ef565b60058801556001600160a01b03861660009081526002880160205260409020546125d690826121ef565b6001600160a01b039096166000908152600290970160205250506040909420929092555050505050565b609780546001600160a01b038381166001600160a01b0319831681179093556040519116919082907f8be0079c531659141344cd1fd0a4f28419497f9722a3daafe3b4186f6b6457e090600090a35050565b6000612675670de0b6b3a7640000610a9260fe54856121d790919063ffffffff16565b60fc54604051638c6d4c4760e01b81526001600160a01b03868116600483015260248201849052929350911690638c6d4c4790604401600060405180830381600087803b1580156126c557600080fd5b505af11580156126d9573d6000803e3d6000fd5b5050505061277760fb60009054906101000a90046001600160a01b03166001600160a01b031663ec94578e6040518163ffffffff1660e01b815260040160206040518083038186803b15801561272e57600080fd5b505afa158015612742573d6000803e3d6000fd5b505050506040513d601f19601f820116820180604052508101906127669190612e46565b6001600160a01b0385169083611f4f565b61278182826121ef565b6001600160a01b038416600090815260fd602052604081206004810154929450916127b890610a9286670de0b6b3a76400006121d7565b60078301549091506127ca9082612153565b600783015560068201546127de9085612153565b82600601819055505050505050565b600054610100900460ff1680612806575060005460ff16155b6128225760405162461bcd60e51b81526004016105ad9061318c565b600054610100900460ff16158015612844576000805461ffff19166101011790555b61284c612b78565b611a87612be2565b600054610100900460ff168061286d575060005460ff16155b6128895760405162461bcd60e51b81526004016105ad9061318c565b600054610100900460ff161580156128ab576000805461ffff19166101011790555b611a87612c42565b6000612908826040518060400160405280602081526020017f5361666545524332303a206c6f772d6c6576656c2063616c6c206661696c6564815250856001600160a01b0316612cb29092919063ffffffff16565b805190915015611fb257808060200190518101906129269190613035565b611fb25760405162461bcd60e51b815260206004820152602a60248201527f5361666545524332303a204552433230206f7065726174696f6e20646964206e6044820152691bdd081cdd58d8d9595960b21b60648201526084016105ad565b803b6129e95760405162461bcd60e51b815260206004820152602d60248201527f455243313936373a206e657720696d706c656d656e746174696f6e206973206e60448201526c1bdd08184818dbdb9d1c9858dd609a1b60648201526084016105ad565b7f360894a13ba1a3210667c828492db98dca3e2076cc3735a920a3ca505d382bbc80546001600160a01b0319166001600160a01b0392909216919091179055565b6060823b612a895760405162461bcd60e51b815260206004820152602660248201527f416464726573733a2064656c65676174652063616c6c20746f206e6f6e2d636f6044820152651b9d1c9858dd60d21b60648201526084016105ad565b600080846001600160a01b031684604051612aa49190613085565b600060405180830381855af49150503d8060008114612adf576040519150601f19603f3d011682016040523d82523d6000602084013e612ae4565b606091505b50915091506121cc828260405180606001604052806027815260200161332260279139612cc9565b612b1581612985565b6040516001600160a01b038216907fbc7cd75a20ee27fd9adebab32041f755214dbc6bffa90cc0225b39da2e5c2d3b90600090a250565b6000826008015482600301541115612b685781600101546107c1565b600182015482546107c191612153565b600054610100900460ff1680612b91575060005460ff16155b612bad5760405162461bcd60e51b81526004016105ad9061318c565b600054610100900460ff16158015611a87576000805461ffff19166101011790558015610779576000805461ff001916905550565b600054610100900460ff1680612bfb575060005460ff16155b612c175760405162461bcd60e51b81526004016105ad9061318c565b600054610100900460ff16158015612c39576000805461ffff19166101011790555b611a8733612600565b600054610100900460ff1680612c5b575060005460ff16155b612c775760405162461bcd60e51b81526004016105ad9061318c565b600054610100900460ff16158015612c99576000805461ffff19166101011790555b600160c9558015610779576000805461ff001916905550565b6060612cc18484600085612d02565b949350505050565b60608315612cd85750816107c1565b825115612ce85782518084602001fd5b8160405162461bcd60e51b81526004016105ad91906130a1565b606082471015612d635760405162461bcd60e51b815260206004820152602660248201527f416464726573733a20696e73756666696369656e742062616c616e636520666f6044820152651c8818d85b1b60d21b60648201526084016105ad565b843b612db15760405162461bcd60e51b815260206004820152601d60248201527f416464726573733a2063616c6c20746f206e6f6e2d636f6e747261637400000060448201526064016105ad565b600080866001600160a01b03168587604051612dcd9190613085565b60006040518083038185875af1925050503d8060008114612e0a576040519150601f19603f3d011682016040523d82523d6000602084013e612e0f565b606091505b5091509150612e1f828286612cc9565b979650505050505050565b600060208284031215612e3b578081fd5b81356107c18161330c565b600060208284031215612e57578081fd5b81516107c18161330c565b60008060408385031215612e74578081fd5b8235612e7f8161330c565b91506020830135612e8f8161330c565b809150509250929050565b600080600060608486031215612eae578081fd5b8335612eb98161330c565b92506020840135612ec98161330c565b91506040840135612ed98161330c565b809150509250925092565b600080600060608486031215612ef8578283fd5b8335612f038161330c565b92506020840135612f138161330c565b929592945050506040919091013590565b60008060408385031215612f36578182fd5b8235612f418161330c565b9150602083013567ffffffffffffffff80821115612f5d578283fd5b818501915085601f830112612f70578283fd5b813581811115612f8257612f826132f6565b604051601f8201601f19908116603f01168101908382118183101715612faa57612faa6132f6565b81604052828152886020848701011115612fc2578586fd5b82602086016020830137856020848301015280955050505050509250929050565b60008060008060808587031215612ff8578081fd5b84356130038161330c565b935060208501359250604085013561301a8161330c565b9150606085013561302a8161330c565b939692955090935050565b600060208284031215613046578081fd5b815180151581146107c1578182fd5b600060208284031215613066578081fd5b5035919050565b60006020828403121561307e578081fd5b5051919050565b600082516130978184602087016132b4565b9190910192915050565b60006020825282518060208401526130c08160408501602087016132b4565b601f01601f19169190910160400192915050565b60208082526006908201526514185d5cd95960d21b604082015260600190565b6020808252602c908201527f46756e6374696f6e206d7573742062652063616c6c6564207468726f7567682060408201526b19195b1959d85d1958d85b1b60a21b606082015260800190565b6020808252602c908201527f46756e6374696f6e206d7573742062652063616c6c6564207468726f7567682060408201526b6163746976652070726f787960a01b606082015260800190565b6020808252602e908201527f496e697469616c697a61626c653a20636f6e747261637420697320616c72656160408201526d191e481a5b9a5d1a585b1a5e995960921b606082015260800190565b6020808252818101527f4f776e61626c653a2063616c6c6572206973206e6f7420746865206f776e6572604082015260600190565b6020808252601f908201527f5265656e7472616e637947756172643a207265656e7472616e742063616c6c00604082015260600190565b60008219821115613259576132596132e0565b500190565b60008261327957634e487b7160e01b81526012600452602481fd5b500490565b6000816000190483118215151615613298576132986132e0565b500290565b6000828210156132af576132af6132e0565b500390565b60005b838110156132cf5781810151838201526020016132b7565b8381111561239c5750506000910152565b634e487b7160e01b600052601160045260246000fd5b634e487b7160e01b600052604160045260246000fd5b6001600160a01b038116811461077957600080fdfe416464726573733a206c6f772d6c6576656c2064656c65676174652063616c6c206661696c6564a26469706673582212203a26656efe8a624eed82269cae5f4643c58bfd1bad16361683608984666be86864736f6c63430008030033",
  "linkReferences": {},
  "deployedLinkReferences": {}
}