{
  "_format": "hh-sol-artifact-1",
  "contractName": "PCT",
  "sourceName": "contracts/Bank/PCT.sol",
  "abi": [
    {
      "anonymous": false,
      "inputs": [
        {
          "indexed": false,
          "internalType": "address",
          "name": "previousAdmin",
          "type": "address"
        },
        {
          "indexed": false,
          "internalType": "address",
          "name": "newAdmin",
          "type": "address"
        }
      ],
      "name": "AdminChanged",
      "type": "event"
    },
    {
      "anonymous": false,
      "inputs": [
        {
          "indexed": true,
          "internalType": "address",
          "name": "beacon",
          "type": "address"
        }
      ],
      "name": "BeaconUpgraded",
      "type": "event"
    },
    {
      "anonymous": false,
      "inputs": [
        {
          "indexed": true,
          "internalType": "address",
          "name": "acount",
          "type": "address"
        },
        {
          "indexed": true,
          "internalType": "address",
          "name": "collateralToken",
          "type": "address"
        },
        {
          "indexed": false,
          "internalType": "uint256",
          "name": "amount",
          "type": "uint256"
        }
      ],
      "name": "ClaimInterest",
      "type": "event"
    },
    {
      "anonymous": false,
      "inputs": [
        {
          "indexed": true,
          "internalType": "address",
          "name": "previousOwner",
          "type": "address"
        },
        {
          "indexed": true,
          "internalType": "address",
          "name": "newOwner",
          "type": "address"
        }
      ],
      "name": "OwnershipTransferred",
      "type": "event"
    },
    {
      "anonymous": false,
      "inputs": [
        {
          "indexed": true,
          "internalType": "address",
          "name": "protocolInterfaceAddress",
          "type": "address"
        },
        {
          "indexed": true,
          "internalType": "address",
          "name": "collateralToken",
          "type": "address"
        },
        {
          "indexed": false,
          "internalType": "uint256",
          "name": "amount",
          "type": "uint256"
        }
      ],
      "name": "ProtocolClaimInterest",
      "type": "event"
    },
    {
      "anonymous": false,
      "inputs": [
        {
          "indexed": true,
          "internalType": "address",
          "name": "protocolInterfaceAddress",
          "type": "address"
        },
        {
          "indexed": true,
          "internalType": "address",
          "name": "collateralToken",
          "type": "address"
        },
        {
          "indexed": false,
          "internalType": "uint256",
          "name": "amount",
          "type": "uint256"
        }
      ],
      "name": "ProtocolDepositFunds",
      "type": "event"
    },
    {
      "anonymous": false,
      "inputs": [
        {
          "indexed": true,
          "internalType": "address",
          "name": "protocolInterfaceAddress",
          "type": "address"
        },
        {
          "indexed": true,
          "internalType": "address",
          "name": "collateralToken",
          "type": "address"
        },
        {
          "indexed": false,
          "internalType": "uint256",
          "name": "amount",
          "type": "uint256"
        }
      ],
      "name": "ProtocolReturnFunds",
      "type": "event"
    },
    {
      "anonymous": false,
      "inputs": [
        {
          "indexed": true,
          "internalType": "address",
          "name": "protocolInterfaceAddress",
          "type": "address"
        },
        {
          "indexed": true,
          "internalType": "address",
          "name": "collateralToken",
          "type": "address"
        }
      ],
      "name": "SetProtocolInterface",
      "type": "event"
    },
    {
      "anonymous": false,
      "inputs": [
        {
          "indexed": true,
          "internalType": "address",
          "name": "account",
          "type": "address"
        },
        {
          "indexed": true,
          "internalType": "address",
          "name": "fxToken",
          "type": "address"
        },
        {
          "indexed": true,
          "internalType": "address",
          "name": "collateralToken",
          "type": "address"
        },
        {
          "indexed": false,
          "internalType": "uint256",
          "name": "amount",
          "type": "uint256"
        }
      ],
      "name": "Stake",
      "type": "event"
    },
    {
      "anonymous": false,
      "inputs": [
        {
          "indexed": true,
          "internalType": "address",
          "name": "protocolInterfaceAddress",
          "type": "address"
        },
        {
          "indexed": true,
          "internalType": "address",
          "name": "collateralToken",
          "type": "address"
        }
      ],
      "name": "UnsetProtocolInterface",
      "type": "event"
    },
    {
      "anonymous": false,
      "inputs": [
        {
          "indexed": true,
          "internalType": "address",
          "name": "account",
          "type": "address"
        },
        {
          "indexed": true,
          "internalType": "address",
          "name": "fxToken",
          "type": "address"
        },
        {
          "indexed": true,
          "internalType": "address",
          "name": "collateralToken",
          "type": "address"
        },
        {
          "indexed": false,
          "internalType": "uint256",
          "name": "amount",
          "type": "uint256"
        }
      ],
      "name": "Unstake",
      "type": "event"
    },
    {
      "anonymous": false,
      "inputs": [
        {
          "indexed": true,
          "internalType": "address",
          "name": "implementation",
          "type": "address"
        }
      ],
      "name": "Upgraded",
      "type": "event"
    },
    {
      "inputs": [
        {
          "internalType": "address",
          "name": "account",
          "type": "address"
        },
        {
          "internalType": "address",
          "name": "fxToken",
          "type": "address"
        },
        {
          "internalType": "address",
          "name": "collateralToken",
          "type": "address"
        }
      ],
      "name": "balanceOfClaimableInterest",
      "outputs": [
        {
          "internalType": "uint256",
          "name": "amount",
          "type": "uint256"
        }
      ],
      "stateMutability": "view",
      "type": "function"
    },
    {
      "inputs": [
        {
          "internalType": "address",
          "name": "account",
          "type": "address"
        },
        {
          "internalType": "address",
          "name": "fxToken",
          "type": "address"
        },
        {
          "internalType": "address",
          "name": "collateralToken",
          "type": "address"
        }
      ],
      "name": "balanceOfStake",
      "outputs": [
        {
          "internalType": "uint256",
          "name": "amount",
          "type": "uint256"
        }
      ],
      "stateMutability": "view",
      "type": "function"
    },
    {
      "inputs": [
        {
          "internalType": "address",
          "name": "fxToken",
          "type": "address"
        },
        {
          "internalType": "address",
          "name": "collateralToken",
          "type": "address"
        }
      ],
      "name": "claimInterest",
      "outputs": [],
      "stateMutability": "nonpayable",
      "type": "function"
    },
    {
      "inputs": [
        {
          "internalType": "address",
          "name": "collateralToken",
          "type": "address"
        },
        {
          "internalType": "address",
          "name": "pia",
          "type": "address"
        }
      ],
      "name": "claimProtocolInterest",
      "outputs": [],
      "stateMutability": "nonpayable",
      "type": "function"
    },
    {
      "inputs": [
        {
          "internalType": "address",
          "name": "collateralToken",
          "type": "address"
        },
        {
          "internalType": "address",
          "name": "pia",
          "type": "address"
        },
        {
          "internalType": "uint256",
          "name": "ratio",
          "type": "uint256"
        }
      ],
      "name": "depositProtocolFunds",
      "outputs": [],
      "stateMutability": "nonpayable",
      "type": "function"
    },
    {
      "inputs": [
        {
          "internalType": "address",
          "name": "collateralToken",
          "type": "address"
        },
        {
          "internalType": "address",
          "name": "pia",
          "type": "address"
        }
      ],
      "name": "getProtocolInvestments",
      "outputs": [
        {
          "internalType": "uint256",
          "name": "amount",
          "type": "uint256"
        }
      ],
      "stateMutability": "view",
      "type": "function"
    },
    {
      "inputs": [
        {
          "internalType": "address",
          "name": "collateralToken",
          "type": "address"
        }
      ],
      "name": "getTotalAccruedInterest",
      "outputs": [
        {
          "internalType": "uint256",
          "name": "amount",
          "type": "uint256"
        }
      ],
      "stateMutability": "view",
      "type": "function"
    },
    {
      "inputs": [
        {
          "internalType": "address",
          "name": "collateralToken",
          "type": "address"
        }
      ],
      "name": "getTotalDeposits",
      "outputs": [
        {
          "internalType": "uint256",
          "name": "amount",
          "type": "uint256"
        }
      ],
      "stateMutability": "view",
      "type": "function"
    },
    {
      "inputs": [
        {
          "internalType": "address",
          "name": "collateralToken",
          "type": "address"
        }
      ],
      "name": "getTotalInvestments",
      "outputs": [
        {
          "internalType": "uint256",
          "name": "amount",
          "type": "uint256"
        }
      ],
      "stateMutability": "view",
      "type": "function"
    },
    {
      "inputs": [],
      "name": "handleAddress",
      "outputs": [
        {
          "internalType": "address",
          "name": "",
          "type": "address"
        }
      ],
      "stateMutability": "view",
      "type": "function"
    },
    {
      "inputs": [],
      "name": "initialize",
      "outputs": [],
      "stateMutability": "nonpayable",
      "type": "function"
    },
    {
      "inputs": [],
      "name": "owner",
      "outputs": [
        {
          "internalType": "address",
          "name": "",
          "type": "address"
        }
      ],
      "stateMutability": "view",
      "type": "function"
    },
    {
      "inputs": [],
      "name": "protocolFee",
      "outputs": [
        {
          "internalType": "uint256",
          "name": "",
          "type": "uint256"
        }
      ],
      "stateMutability": "view",
      "type": "function"
    },
    {
      "inputs": [],
      "name": "renounceOwnership",
      "outputs": [],
      "stateMutability": "nonpayable",
      "type": "function"
    },
    {
      "inputs": [
        {
          "internalType": "address",
          "name": "collateralToken",
          "type": "address"
        },
        {
          "internalType": "address",
          "name": "requestedToken",
          "type": "address"
        },
        {
          "internalType": "uint256",
          "name": "amount",
          "type": "uint256"
        }
      ],
      "name": "requestTreasuryFunds",
      "outputs": [],
      "stateMutability": "nonpayable",
      "type": "function"
    },
    {
      "inputs": [
        {
          "internalType": "address",
          "name": "collateralToken",
          "type": "address"
        },
        {
          "internalType": "address",
          "name": "returnedToken",
          "type": "address"
        },
        {
          "internalType": "uint256",
          "name": "amount",
          "type": "uint256"
        }
      ],
      "name": "returnTreasuryFunds",
      "outputs": [],
      "stateMutability": "nonpayable",
      "type": "function"
    },
    {
      "inputs": [
        {
          "internalType": "address",
          "name": "_handle",
          "type": "address"
        }
      ],
      "name": "setHandleContract",
      "outputs": [],
      "stateMutability": "nonpayable",
      "type": "function"
    },
    {
      "inputs": [
        {
          "internalType": "uint256",
          "name": "ratio",
          "type": "uint256"
        }
      ],
      "name": "setProtocolFee",
      "outputs": [],
      "stateMutability": "nonpayable",
      "type": "function"
    },
    {
      "inputs": [
        {
          "internalType": "address",
          "name": "collateralToken",
          "type": "address"
        },
        {
          "internalType": "address",
          "name": "pia",
          "type": "address"
        }
      ],
      "name": "setProtocolInterface",
      "outputs": [],
      "stateMutability": "nonpayable",
      "type": "function"
    },
    {
      "inputs": [
        {
          "internalType": "address",
          "name": "account",
          "type": "address"
        },
        {
          "internalType": "uint256",
          "name": "amount",
          "type": "uint256"
        },
        {
          "internalType": "address",
          "name": "fxToken",
          "type": "address"
        },
        {
          "internalType": "address",
          "name": "collateralToken",
          "type": "address"
        }
      ],
      "name": "stake",
      "outputs": [
        {
          "internalType": "uint256",
          "name": "errorCode",
          "type": "uint256"
        }
      ],
      "stateMutability": "nonpayable",
      "type": "function"
    },
    {
      "inputs": [
        {
          "internalType": "address",
          "name": "newOwner",
          "type": "address"
        }
      ],
      "name": "transferOwnership",
      "outputs": [],
      "stateMutability": "nonpayable",
      "type": "function"
    },
    {
      "inputs": [
        {
          "internalType": "address",
          "name": "collateralToken",
          "type": "address"
        },
        {
          "internalType": "address",
          "name": "pia",
          "type": "address"
        }
      ],
      "name": "unsetProtocolInterface",
      "outputs": [],
      "stateMutability": "nonpayable",
      "type": "function"
    },
    {
      "inputs": [
        {
          "internalType": "address",
          "name": "account",
          "type": "address"
        },
        {
          "internalType": "uint256",
          "name": "amount",
          "type": "uint256"
        },
        {
          "internalType": "address",
          "name": "fxToken",
          "type": "address"
        },
        {
          "internalType": "address",
          "name": "collateralToken",
          "type": "address"
        }
      ],
      "name": "unstake",
      "outputs": [
        {
          "internalType": "uint256",
          "name": "errorCode",
          "type": "uint256"
        }
      ],
      "stateMutability": "nonpayable",
      "type": "function"
    },
    {
      "inputs": [
        {
          "internalType": "address",
          "name": "newImplementation",
          "type": "address"
        }
      ],
      "name": "upgradeTo",
      "outputs": [],
      "stateMutability": "nonpayable",
      "type": "function"
    },
    {
      "inputs": [
        {
          "internalType": "address",
          "name": "newImplementation",
          "type": "address"
        },
        {
          "internalType": "bytes",
          "name": "data",
          "type": "bytes"
        }
      ],
      "name": "upgradeToAndCall",
      "outputs": [],
      "stateMutability": "payable",
      "type": "function"
    },
    {
      "inputs": [
        {
          "internalType": "address",
          "name": "collateralToken",
          "type": "address"
        },
        {
          "internalType": "address",
          "name": "pia",
          "type": "address"
        },
        {
          "internalType": "uint256",
          "name": "amount",
          "type": "uint256"
        }
      ],
      "name": "withdrawProtocolFunds",
      "outputs": [],
      "stateMutability": "nonpayable",
      "type": "function"
    },
    {
      "stateMutability": "payable",
      "type": "receive"
    }
  ],
  "bytecode": "0x608060405234801561001057600080fd5b5061584880620000216000396000f3fe6080604052600436106101855760003560e01c80636c43cf1d116100d15780638da5cb5b1161008a578063ba437c6811610064578063ba437c6814610578578063cb9bdef4146105a1578063f12582ea146105de578063f2fde38b146106075761018c565b80638da5cb5b146104f95780639b1c414f14610524578063b0e21e8a1461054d5761018c565b80636c43cf1d14610425578063715018a61461044e57806371dfb89b1461046557806374bf578b1461048e578063787dce3d146104b95780638129fc1c146104e25761018c565b80634b2c636b1161013e5780635aa347c7116101185780635aa347c7146103595780635b73ec00146103965780635ba0e426146103bf578063618b4f88146103e85761018c565b80634b2c636b146102d75780634f1ef28614610300578063596999b21461031c5761018c565b80630251cfa1146101915780631855365d146101ce5780633659cfe6146101f757806340cf49bd1461022057806344381ed01461025d5780634a0e780e1461029a5761018c565b3661018c57005b600080fd5b34801561019d57600080fd5b506101b860048036038101906101b39190614892565b610630565b6040516101c5919061511e565b60405180910390f35b3480156101da57600080fd5b506101f560048036038101906101f09190614998565b61067c565b005b34801561020357600080fd5b5061021e60048036038101906102199190614892565b61096c565b005b34801561022c57600080fd5b5061024760048036038101906102429190614949565b610993565b604051610254919061511e565b60405180910390f35b34801561026957600080fd5b50610284600480360381019061027f9190614949565b610a79565b604051610291919061511e565b60405180910390f35b3480156102a657600080fd5b506102c160048036038101906102bc9190614a3b565b610b54565b6040516102ce919061511e565b60405180910390f35b3480156102e357600080fd5b506102fe60048036038101906102f9919061490d565b611131565b005b61031a600480360381019061031591906149e7565b6113ae565b005b34801561032857600080fd5b50610343600480360381019061033e9190614892565b6113c7565b604051610350919061511e565b60405180910390f35b34801561036557600080fd5b50610380600480360381019061037b9190614a3b565b611413565b60405161038d919061511e565b60405180910390f35b3480156103a257600080fd5b506103bd60048036038101906103b89190614998565b611888565b005b3480156103cb57600080fd5b506103e660048036038101906103e19190614998565b611b72565b005b3480156103f457600080fd5b5061040f600480360381019061040a919061490d565b612054565b60405161041c919061511e565b60405180910390f35b34801561043157600080fd5b5061044c60048036038101906104479190614998565b6120de565b005b34801561045a57600080fd5b506104636123a6565b005b34801561047157600080fd5b5061048c6004803603810190610487919061490d565b6124e3565b005b34801561049a57600080fd5b506104a361297a565b6040516104b09190614df7565b60405180910390f35b3480156104c557600080fd5b506104e060048036038101906104db9190614ac7565b6129a4565b005b3480156104ee57600080fd5b506104f7612a75565b005b34801561050557600080fd5b5061050e612b5e565b60405161051b9190614df7565b60405180910390f35b34801561053057600080fd5b5061054b60048036038101906105469190614892565b612b88565b005b34801561055957600080fd5b50610562612d28565b60405161056f919061511e565b60405180910390f35b34801561058457600080fd5b5061059f600480360381019061059a919061490d565b612d2e565b005b3480156105ad57600080fd5b506105c860048036038101906105c39190614892565b612f7e565b6040516105d5919061511e565b60405180910390f35b3480156105ea57600080fd5b506106056004803603810190610600919061490d565b612fca565b005b34801561061357600080fd5b5061062e60048036038101906106299190614892565b6132c2565b005b600060fd60008373ffffffffffffffffffffffffffffffffffffffff1673ffffffffffffffffffffffffffffffffffffffff168152602001908152602001600020600301549050919050565b61068461297a565b73ffffffffffffffffffffffffffffffffffffffff1663b187bd266040518163ffffffff1660e01b815260040160206040518083038186803b1580156106c957600080fd5b505afa1580156106dd573d6000803e3d6000fd5b505050506040513d601f19601f820116820180604052508101906107019190614a9e565b15610741576040517f08c379a000000000000000000000000000000000000000000000000000000000815260040161073890614f1e565b60405180910390fd5b823360fd60008373ffffffffffffffffffffffffffffffffffffffff1673ffffffffffffffffffffffffffffffffffffffff16815260200190815260200160002060010160008273ffffffffffffffffffffffffffffffffffffffff1673ffffffffffffffffffffffffffffffffffffffff16815260200190815260200160002060009054906101000a900460ff166040518060400160405280601581526020017f5043543a206e6f7420616e20696e74657266616365000000000000000000000081525090610847576040517f08c379a000000000000000000000000000000000000000000000000000000000815260040161083e9190614efc565b60405180910390fd5b5060fc60009054906101000a900473ffffffffffffffffffffffffffffffffffffffff1673ffffffffffffffffffffffffffffffffffffffff16638c6d4c4785856040518363ffffffff1660e01b81526004016108a5929190614e80565b600060405180830381600087803b1580156108bf57600080fd5b505af11580156108d3573d6000803e3d6000fd5b505050508373ffffffffffffffffffffffffffffffffffffffff1663a9059cbb33856040518363ffffffff1660e01b8152600401610912929190614e80565b602060405180830381600087803b15801561092c57600080fd5b505af1158015610940573d6000803e3d6000fd5b505050506040513d601f19601f820116820180604052508101906109649190614a9e565b505050505050565b6109758161346e565b610990816040518060200160405280600081525060006134ed565b50565b60008060fd60008473ffffffffffffffffffffffffffffffffffffffff1673ffffffffffffffffffffffffffffffffffffffff16815260200190815260200160002060000160008673ffffffffffffffffffffffffffffffffffffffff1673ffffffffffffffffffffffffffffffffffffffff16815260200190815260200160002060008573ffffffffffffffffffffffffffffffffffffffff1673ffffffffffffffffffffffffffffffffffffffff1681526020019081526020016000209050610a6f8160000154826001015461370190919063ffffffff16565b9150509392505050565b60008060fd60008473ffffffffffffffffffffffffffffffffffffffff1673ffffffffffffffffffffffffffffffffffffffff168152602001908152602001600020905060008160000160008773ffffffffffffffffffffffffffffffffffffffff1673ffffffffffffffffffffffffffffffffffffffff16815260200190815260200160002060008673ffffffffffffffffffffffffffffffffffffffff1673ffffffffffffffffffffffffffffffffffffffff1681526020019081526020016000209050610b498282613717565b925050509392505050565b6000610b5e61297a565b73ffffffffffffffffffffffffffffffffffffffff1663b187bd266040518163ffffffff1660e01b815260040160206040518083038186803b158015610ba357600080fd5b505afa158015610bb7573d6000803e3d6000fd5b505050506040513d601f19601f82011682018060405250810190610bdb9190614a9e565b15610c1b576040517f08c379a0000000000000000000000000000000000000000000000000000000008152600401610c1290614f1e565b60405180910390fd5b600260c9541415610c61576040517f08c379a0000000000000000000000000000000000000000000000000000000008152600401610c58906150de565b60405180910390fd5b600260c9819055508473ffffffffffffffffffffffffffffffffffffffff163373ffffffffffffffffffffffffffffffffffffffff161480610cf0575060fc60009054906101000a900473ffffffffffffffffffffffffffffffffffffffff1673ffffffffffffffffffffffffffffffffffffffff163373ffffffffffffffffffffffffffffffffffffffff16145b6040518060400160405280601281526020017f5043543a206163636573732064656e696564000000000000000000000000000081525090610d67576040517f08c379a0000000000000000000000000000000000000000000000000000000008152600401610d5e9190614efc565b60405180910390fd5b506000841415610d7a5760019050611121565b600060fb60009054906101000a900473ffffffffffffffffffffffffffffffffffffffff1673ffffffffffffffffffffffffffffffffffffffff1663c462b5208785876040518463ffffffff1660e01b8152600401610ddb93929190614e12565b60206040518083038186803b158015610df357600080fd5b505afa158015610e07573d6000803e3d6000fd5b505050506040513d601f19601f82011682018060405250810190610e2b9190614af0565b905084811015610e3f576002915050611121565b6000610f0d670de0b6b3a7640000610eff60fb60009054906101000a900473ffffffffffffffffffffffffffffffffffffffff1673ffffffffffffffffffffffffffffffffffffffff166301964f366040518163ffffffff1660e01b815260040160206040518083038186803b158015610eb857600080fd5b505afa158015610ecc573d6000803e3d6000fd5b505050506040513d601f19601f82011682018060405250810190610ef09190614af0565b856137ac90919063ffffffff16565b6137c290919063ffffffff16565b90506000610f1c888787610993565b9050818110610f315760039350505050611121565b6000610f4682846137d890919063ffffffff16565b905080881115610f54578097505b600060fd60008873ffffffffffffffffffffffffffffffffffffffff1673ffffffffffffffffffffffffffffffffffffffff168152602001908152602001600020905060008160000160008c73ffffffffffffffffffffffffffffffffffffffff1673ffffffffffffffffffffffffffffffffffffffff16815260200190815260200160002060008a73ffffffffffffffffffffffffffffffffffffffff1673ffffffffffffffffffffffffffffffffffffffff168152602001908152602001600020905061102382826137ee565b61102e8b8a8a613835565b506110468a836003015461370190919063ffffffff16565b82600301819055506110658a826000015461370190919063ffffffff16565b8160000181905550816007015481600201819055506110926001836008015461370190919063ffffffff16565b81600301819055508773ffffffffffffffffffffffffffffffffffffffff168973ffffffffffffffffffffffffffffffffffffffff168c73ffffffffffffffffffffffffffffffffffffffff167fc5017594d2723c038bb216e5bcef3ac65910ade839c0e63253bf5b59efbf0fd78d60405161110e919061511e565b60405180910390a4600096505050505050505b600160c981905550949350505050565b611139613a3f565b73ffffffffffffffffffffffffffffffffffffffff16611157612b5e565b73ffffffffffffffffffffffffffffffffffffffff16146111ad576040517f08c379a00000000000000000000000000000000000000000000000000000000081526004016111a49061505e565b60405180910390fd5b600060fd60008473ffffffffffffffffffffffffffffffffffffffff1673ffffffffffffffffffffffffffffffffffffffff16815260200190815260200160002090508060010160008373ffffffffffffffffffffffffffffffffffffffff1673ffffffffffffffffffffffffffffffffffffffff16815260200190815260200160002060009054906101000a900460ff166040518060400160405280601581526020017f5043543a206e6f7420616e20696e746572666163650000000000000000000000815250906112b6576040517f08c379a00000000000000000000000000000000000000000000000000000000081526004016112ad9190614efc565b60405180910390fd5b50600060fd60008573ffffffffffffffffffffffffffffffffffffffff1673ffffffffffffffffffffffffffffffffffffffff16815260200190815260200160002060010160008473ffffffffffffffffffffffffffffffffffffffff1673ffffffffffffffffffffffffffffffffffffffff16815260200190815260200160002060006101000a81548160ff0219169083151502179055508273ffffffffffffffffffffffffffffffffffffffff168273ffffffffffffffffffffffffffffffffffffffff167f12a1456b63108a9a857cdff1cdd634e182a704f40f857e1ff35335912a17541960405160405180910390a3505050565b6113b78261346e565b6113c3828260016134ed565b5050565b600060fd60008373ffffffffffffffffffffffffffffffffffffffff1673ffffffffffffffffffffffffffffffffffffffff168152602001908152602001600020600601549050919050565b600061141d61297a565b73ffffffffffffffffffffffffffffffffffffffff1663b187bd266040518163ffffffff1660e01b815260040160206040518083038186803b15801561146257600080fd5b505afa158015611476573d6000803e3d6000fd5b505050506040513d601f19601f8201168201806040525081019061149a9190614a9e565b156114da576040517f08c379a00000000000000000000000000000000000000000000000000000000081526004016114d190614f1e565b60405180910390fd5b600260c9541415611520576040517f08c379a0000000000000000000000000000000000000000000000000000000008152600401611517906150de565b60405180910390fd5b600260c9819055508473ffffffffffffffffffffffffffffffffffffffff163373ffffffffffffffffffffffffffffffffffffffff1614806115af575060fc60009054906101000a900473ffffffffffffffffffffffffffffffffffffffff1673ffffffffffffffffffffffffffffffffffffffff163373ffffffffffffffffffffffffffffffffffffffff16145b6040518060400160405280601281526020017f5043543a206163636573732064656e696564000000000000000000000000000081525090611626576040517f08c379a000000000000000000000000000000000000000000000000000000000815260040161161d9190614efc565b60405180910390fd5b506000611634868585610993565b905080851115611642578094505b6000851415611655576001915050611878565b600060fd60008573ffffffffffffffffffffffffffffffffffffffff1673ffffffffffffffffffffffffffffffffffffffff168152602001908152602001600020905060008160000160008973ffffffffffffffffffffffffffffffffffffffff1673ffffffffffffffffffffffffffffffffffffffff16815260200190815260200160002060008773ffffffffffffffffffffffffffffffffffffffff1673ffffffffffffffffffffffffffffffffffffffff168152602001908152602001600020905061172482826137ee565b61172f888787613835565b50816007015481600201819055508060000154871161178b5761175f8782600001546137d890919063ffffffff16565b816000018190555061177e8783600301546137d890919063ffffffff16565b82600301819055506117f4565b60006117a48260000154896137d890919063ffffffff16565b90506117c1826000015484600301546137d890919063ffffffff16565b8360030181905550600082600001819055506117ea8183600101546137d890919063ffffffff16565b8260010181905550505b8473ffffffffffffffffffffffffffffffffffffffff168673ffffffffffffffffffffffffffffffffffffffff168973ffffffffffffffffffffffffffffffffffffffff167f2cbcd809a4c90d11f8d12c4b6d09986b255ae1e68f54f076c145fbb2185904e18a604051611868919061511e565b60405180910390a4600093505050505b600160c981905550949350505050565b61189061297a565b73ffffffffffffffffffffffffffffffffffffffff1663b187bd266040518163ffffffff1660e01b815260040160206040518083038186803b1580156118d557600080fd5b505afa1580156118e9573d6000803e3d6000fd5b505050506040513d601f19601f8201168201806040525081019061190d9190614a9e565b1561194d576040517f08c379a000000000000000000000000000000000000000000000000000000000815260040161194490614f1e565b60405180910390fd5b823360fd60008373ffffffffffffffffffffffffffffffffffffffff1673ffffffffffffffffffffffffffffffffffffffff16815260200190815260200160002060010160008273ffffffffffffffffffffffffffffffffffffffff1673ffffffffffffffffffffffffffffffffffffffff16815260200190815260200160002060009054906101000a900460ff166040518060400160405280601581526020017f5043543a206e6f7420616e20696e74657266616365000000000000000000000081525090611a53576040517f08c379a0000000000000000000000000000000000000000000000000000000008152600401611a4a9190614efc565b60405180910390fd5b508373ffffffffffffffffffffffffffffffffffffffff166323b872dd3360fc60009054906101000a900473ffffffffffffffffffffffffffffffffffffffff16866040518463ffffffff1660e01b8152600401611ab393929190614e49565b602060405180830381600087803b158015611acd57600080fd5b505af1158015611ae1573d6000803e3d6000fd5b505050506040513d601f19601f82011682018060405250810190611b059190614a9e565b508373ffffffffffffffffffffffffffffffffffffffff163373ffffffffffffffffffffffffffffffffffffffff167f2cb2d56694b14c7fc4a4f9b8fca65261b65dde83ded753b9b3856f02c01008ab85604051611b63919061511e565b60405180910390a35050505050565b611b7a613a3f565b73ffffffffffffffffffffffffffffffffffffffff16611b98612b5e565b73ffffffffffffffffffffffffffffffffffffffff1614611bee576040517f08c379a0000000000000000000000000000000000000000000000000000000008152600401611be59061505e565b60405180910390fd5b600260c9541415611c34576040517f08c379a0000000000000000000000000000000000000000000000000000000008152600401611c2b906150de565b60405180910390fd5b600260c981905550828260fd60008373ffffffffffffffffffffffffffffffffffffffff1673ffffffffffffffffffffffffffffffffffffffff16815260200190815260200160002060010160008273ffffffffffffffffffffffffffffffffffffffff1673ffffffffffffffffffffffffffffffffffffffff16815260200190815260200160002060009054906101000a900460ff166040518060400160405280601581526020017f5043543a206e6f7420616e20696e74657266616365000000000000000000000081525090611d42576040517f08c379a0000000000000000000000000000000000000000000000000000000008152600401611d399190614efc565b60405180910390fd5b50600083118015611d5b5750670de0b6b3a76400008311155b611d9a576040517f08c379a0000000000000000000000000000000000000000000000000000000008152600401611d919061507e565b60405180910390fd5b600060fd60008773ffffffffffffffffffffffffffffffffffffffff1673ffffffffffffffffffffffffffffffffffffffff16815260200190815260200160002090506000816003015411611e24576040517f08c379a0000000000000000000000000000000000000000000000000000000008152600401611e1b90614fde565b60405180910390fd5b6000611e57670de0b6b3a7640000611e498785600301546137ac90919063ffffffff16565b6137c290919063ffffffff16565b90508573ffffffffffffffffffffffffffffffffffffffff1663b6b55f25826040518263ffffffff1660e01b8152600401611e92919061511e565b600060405180830381600087803b158015611eac57600080fd5b505af1158015611ec0573d6000803e3d6000fd5b50505050611edb81836005015461370190919063ffffffff16565b8260050181905550611f37818360020160008973ffffffffffffffffffffffffffffffffffffffff1673ffffffffffffffffffffffffffffffffffffffff1681526020019081526020016000205461370190919063ffffffff16565b8260020160008873ffffffffffffffffffffffffffffffffffffffff1673ffffffffffffffffffffffffffffffffffffffff16815260200190815260200160002081905550611f938183600301546137d890919063ffffffff16565b8260030181905550611fb68260050154836003015461370190919063ffffffff16565b8260040181905550611fd66001836008015461370190919063ffffffff16565b82600801819055508673ffffffffffffffffffffffffffffffffffffffff168673ffffffffffffffffffffffffffffffffffffffff167fbc724c1675db759aec8fb95e946e8f501586936264e27a5dc29b45d89e4249bc8360405161203b919061511e565b60405180910390a350505050600160c981905550505050565b600060fd60008473ffffffffffffffffffffffffffffffffffffffff1673ffffffffffffffffffffffffffffffffffffffff16815260200190815260200160002060020160008373ffffffffffffffffffffffffffffffffffffffff1673ffffffffffffffffffffffffffffffffffffffff16815260200190815260200160002054905092915050565b6120e6613a3f565b73ffffffffffffffffffffffffffffffffffffffff16612104612b5e565b73ffffffffffffffffffffffffffffffffffffffff161461215a576040517f08c379a00000000000000000000000000000000000000000000000000000000081526004016121519061505e565b60405180910390fd5b600260c95414156121a0576040517f08c379a0000000000000000000000000000000000000000000000000000000008152600401612197906150de565b60405180910390fd5b600260c981905550600060fd60008573ffffffffffffffffffffffffffffffffffffffff1673ffffffffffffffffffffffffffffffffffffffff168152602001908152602001600020905060008160020160008573ffffffffffffffffffffffffffffffffffffffff1673ffffffffffffffffffffffffffffffffffffffff16815260200190815260200160002054905060008111612274576040517f08c379a000000000000000000000000000000000000000000000000000000000815260040161226b90614f3e565b60405180910390fd5b60008490506122838187613a47565b60008360050154905080851115612298578094505b8173ffffffffffffffffffffffffffffffffffffffff16632e1a7d4d866040518263ffffffff1660e01b81526004016122d1919061511e565b600060405180830381600087803b1580156122eb57600080fd5b505af11580156122ff573d6000803e3d6000fd5b5050505061231685826137d890919063ffffffff16565b846005018190555061233185846137d890919063ffffffff16565b8460020160008873ffffffffffffffffffffffffffffffffffffffff1673ffffffffffffffffffffffffffffffffffffffff1681526020019081526020016000208190555061238d85856003015461370190919063ffffffff16565b846003018190555050505050600160c981905550505050565b6123ae613a3f565b73ffffffffffffffffffffffffffffffffffffffff166123cc612b5e565b73ffffffffffffffffffffffffffffffffffffffff1614612422576040517f08c379a00000000000000000000000000000000000000000000000000000000081526004016124199061505e565b60405180910390fd5b600073ffffffffffffffffffffffffffffffffffffffff16609760009054906101000a900473ffffffffffffffffffffffffffffffffffffffff1673ffffffffffffffffffffffffffffffffffffffff167f8be0079c531659141344cd1fd0a4f28419497f9722a3daafe3b4186f6b6457e060405160405180910390a36000609760006101000a81548173ffffffffffffffffffffffffffffffffffffffff021916908373ffffffffffffffffffffffffffffffffffffffff160217905550565b6124eb613a3f565b73ffffffffffffffffffffffffffffffffffffffff16612509612b5e565b73ffffffffffffffffffffffffffffffffffffffff161461255f576040517f08c379a00000000000000000000000000000000000000000000000000000000081526004016125569061505e565b60405180910390fd5b600260c95414156125a5576040517f08c379a000000000000000000000000000000000000000000000000000000000815260040161259c906150de565b60405180910390fd5b600260c981905550818160fd60008373ffffffffffffffffffffffffffffffffffffffff1673ffffffffffffffffffffffffffffffffffffffff16815260200190815260200160002060010160008273ffffffffffffffffffffffffffffffffffffffff1673ffffffffffffffffffffffffffffffffffffffff16815260200190815260200160002060009054906101000a900460ff166040518060400160405280601581526020017f5043543a206e6f7420616e20696e746572666163650000000000000000000000815250906126b3576040517f08c379a00000000000000000000000000000000000000000000000000000000081526004016126aa9190614efc565b60405180910390fd5b5060008473ffffffffffffffffffffffffffffffffffffffff166370a0823160fc60009054906101000a900473ffffffffffffffffffffffffffffffffffffffff166040518263ffffffff1660e01b81526004016127119190614df7565b60206040518083038186803b15801561272957600080fd5b505afa15801561273d573d6000803e3d6000fd5b505050506040513d601f19601f820116820180604052508101906127619190614af0565b9050600084905060008173ffffffffffffffffffffffffffffffffffffffff1663c7b8981c6040518163ffffffff1660e01b8152600401602060405180830381600087803b1580156127b257600080fd5b505af11580156127c6573d6000803e3d6000fd5b505050506040513d601f19601f820116820180604052508101906127ea9190614af0565b905060008773ffffffffffffffffffffffffffffffffffffffff166370a0823160fc60009054906101000a900473ffffffffffffffffffffffffffffffffffffffff166040518263ffffffff1660e01b81526004016128499190614df7565b60206040518083038186803b15801561286157600080fd5b505afa158015612875573d6000803e3d6000fd5b505050506040513d601f19601f820116820180604052508101906128999190614af0565b90506128ae828561370190919063ffffffff16565b81146128ef576040517f08c379a00000000000000000000000000000000000000000000000000000000081526004016128e690614ffe565b60405180910390fd5b6128f98883613d23565b6129038389613a47565b8773ffffffffffffffffffffffffffffffffffffffff168773ffffffffffffffffffffffffffffffffffffffff167f78a5e2361351659984d3361f31888559465d0d960bf8f57970db9996608c293384604051612960919061511e565b60405180910390a3505050505050600160c9819055505050565b600060fb60009054906101000a900473ffffffffffffffffffffffffffffffffffffffff16905090565b6129ac613a3f565b73ffffffffffffffffffffffffffffffffffffffff166129ca612b5e565b73ffffffffffffffffffffffffffffffffffffffff1614612a20576040517f08c379a0000000000000000000000000000000000000000000000000000000008152600401612a179061505e565b60405180910390fd5b670de0b6b3a7640000811115612a6b576040517f08c379a0000000000000000000000000000000000000000000000000000000008152600401612a6290614f9e565b60405180910390fd5b8060fe8190555050565b600060019054906101000a900460ff1680612a9b575060008054906101000a900460ff16155b612ada576040517f08c379a0000000000000000000000000000000000000000000000000000000008152600401612ad19061501e565b60405180910390fd5b60008060019054906101000a900460ff161590508015612b2a576001600060016101000a81548160ff02191690831515021790555060016000806101000a81548160ff0219169083151502179055505b612b32613fe4565b612b3a6140cd565b8015612b5b5760008060016101000a81548160ff0219169083151502179055505b50565b6000609760009054906101000a900473ffffffffffffffffffffffffffffffffffffffff16905090565b612b90613a3f565b73ffffffffffffffffffffffffffffffffffffffff16612bae612b5e565b73ffffffffffffffffffffffffffffffffffffffff1614612c04576040517f08c379a0000000000000000000000000000000000000000000000000000000008152600401612bfb9061505e565b60405180910390fd5b8060fb60006101000a81548173ffffffffffffffffffffffffffffffffffffffff021916908373ffffffffffffffffffffffffffffffffffffffff16021790555060fb60009054906101000a900473ffffffffffffffffffffffffffffffffffffffff1673ffffffffffffffffffffffffffffffffffffffff166361d027b36040518163ffffffff1660e01b815260040160206040518083038186803b158015612cad57600080fd5b505afa158015612cc1573d6000803e3d6000fd5b505050506040513d601f19601f82011682018060405250810190612ce591906148e4565b60fc60006101000a81548173ffffffffffffffffffffffffffffffffffffffff021916908373ffffffffffffffffffffffffffffffffffffffff16021790555050565b60fe5481565b612d3661297a565b73ffffffffffffffffffffffffffffffffffffffff1663b187bd266040518163ffffffff1660e01b815260040160206040518083038186803b158015612d7b57600080fd5b505afa158015612d8f573d6000803e3d6000fd5b505050506040513d601f19601f82011682018060405250810190612db39190614a9e565b15612df3576040517f08c379a0000000000000000000000000000000000000000000000000000000008152600401612dea90614f1e565b60405180910390fd5b600260c9541415612e39576040517f08c379a0000000000000000000000000000000000000000000000000000000008152600401612e30906150de565b60405180910390fd5b600260c981905550600060fd60008373ffffffffffffffffffffffffffffffffffffffff1673ffffffffffffffffffffffffffffffffffffffff168152602001908152602001600020905060008160000160003373ffffffffffffffffffffffffffffffffffffffff1673ffffffffffffffffffffffffffffffffffffffff16815260200190815260200160002060008573ffffffffffffffffffffffffffffffffffffffff1673ffffffffffffffffffffffffffffffffffffffff1681526020019081526020016000209050612f1082826137ee565b6000612f1d338686613835565b905060008111612f62576040517f08c379a0000000000000000000000000000000000000000000000000000000008152600401612f59906150be565b60405180910390fd5b82600701548260020181905550505050600160c9819055505050565b600060fd60008373ffffffffffffffffffffffffffffffffffffffff1673ffffffffffffffffffffffffffffffffffffffff168152602001908152602001600020600501549050919050565b612fd2613a3f565b73ffffffffffffffffffffffffffffffffffffffff16612ff0612b5e565b73ffffffffffffffffffffffffffffffffffffffff1614613046576040517f08c379a000000000000000000000000000000000000000000000000000000000815260040161303d9061505e565b60405180910390fd5b60008190508273ffffffffffffffffffffffffffffffffffffffff168173ffffffffffffffffffffffffffffffffffffffff1663fdd1c36f6040518163ffffffff1660e01b815260040160206040518083038186803b1580156130a857600080fd5b505afa1580156130bc573d6000803e3d6000fd5b505050506040513d601f19601f820116820180604052508101906130e091906148bb565b73ffffffffffffffffffffffffffffffffffffffff1614613136576040517f08c379a000000000000000000000000000000000000000000000000000000000815260040161312d90614fbe565b60405180910390fd5b600060fd60008573ffffffffffffffffffffffffffffffffffffffff1673ffffffffffffffffffffffffffffffffffffffff16815260200190815260200160002090508060010160008473ffffffffffffffffffffffffffffffffffffffff1673ffffffffffffffffffffffffffffffffffffffff16815260200190815260200160002060009054906101000a900460ff1615613208576040517f08c379a00000000000000000000000000000000000000000000000000000000081526004016131ff906150fe565b60405180910390fd5b60018160010160008573ffffffffffffffffffffffffffffffffffffffff1673ffffffffffffffffffffffffffffffffffffffff16815260200190815260200160002060006101000a81548160ff0219169083151502179055508373ffffffffffffffffffffffffffffffffffffffff168373ffffffffffffffffffffffffffffffffffffffff167f3834fee568ad81cff3ba3707ea01952cad03aa1cb684c083de0fbfce1adbba4460405160405180910390a350505050565b6132ca613a3f565b73ffffffffffffffffffffffffffffffffffffffff166132e8612b5e565b73ffffffffffffffffffffffffffffffffffffffff161461333e576040517f08c379a00000000000000000000000000000000000000000000000000000000081526004016133359061505e565b60405180910390fd5b600073ffffffffffffffffffffffffffffffffffffffff168173ffffffffffffffffffffffffffffffffffffffff1614156133ae576040517f08c379a00000000000000000000000000000000000000000000000000000000081526004016133a590614f7e565b60405180910390fd5b8073ffffffffffffffffffffffffffffffffffffffff16609760009054906101000a900473ffffffffffffffffffffffffffffffffffffffff1673ffffffffffffffffffffffffffffffffffffffff167f8be0079c531659141344cd1fd0a4f28419497f9722a3daafe3b4186f6b6457e060405160405180910390a380609760006101000a81548173ffffffffffffffffffffffffffffffffffffffff021916908373ffffffffffffffffffffffffffffffffffffffff16021790555050565b613476613a3f565b73ffffffffffffffffffffffffffffffffffffffff16613494612b5e565b73ffffffffffffffffffffffffffffffffffffffff16146134ea576040517f08c379a00000000000000000000000000000000000000000000000000000000081526004016134e19061505e565b60405180910390fd5b50565b60006134f76141ae565b905061350284614205565b60008351118061350f5750815b156135205761351e84846142be565b505b600061354e7f4910fdfa16fed3260ed0e7147f7cc6da11a60208b5b9406d12a635614ffd914360001b6143a2565b90508060000160009054906101000a900460ff166136fa5760018160000160006101000a81548160ff02191690831515021790555061361a85836040516024016135989190614df7565b6040516020818303038152906040527f3659cfe6000000000000000000000000000000000000000000000000000000007bffffffffffffffffffffffffffffffffffffffffffffffffffffffff19166020820180517bffffffffffffffffffffffffffffffffffffffffffffffffffffffff83818316178352505050506142be565b5060008160000160006101000a81548160ff0219169083151502179055506136406141ae565b73ffffffffffffffffffffffffffffffffffffffff168273ffffffffffffffffffffffffffffffffffffffff16146136ad576040517f08c379a00000000000000000000000000000000000000000000000000000000081526004016136a490614f5e565b60405180910390fd5b6136b685614205565b8473ffffffffffffffffffffffffffffffffffffffff167fbc7cd75a20ee27fd9adebab32041f755214dbc6bffa90cc0225b39da2e5c2d3b60405160405180910390a25b5050505050565b6000818361370f91906151c1565b905092915050565b6000808360070154141561372e57600090506137a6565b600061374b836002015485600701546137d890919063ffffffff16565b9050600061375985856143ac565b9050613788670de0b6b3a764000061377a84846137ac90919063ffffffff16565b6137c290919063ffffffff16565b925060008311156137a3576001836137a091906152a2565b92505b50505b92915050565b600081836137ba9190615248565b905092915050565b600081836137d09190615217565b905092915050565b600081836137e691906152a2565b905092915050565b81600801548160030154111561380357613831565b61381e8160000154826001015461370190919063ffffffff16565b8160010181905550600081600001819055505b5050565b60008060fd60008473ffffffffffffffffffffffffffffffffffffffff1673ffffffffffffffffffffffffffffffffffffffff168152602001908152602001600020905060008160000160008773ffffffffffffffffffffffffffffffffffffffff1673ffffffffffffffffffffffffffffffffffffffff16815260200190815260200160002060008673ffffffffffffffffffffffffffffffffffffffff1673ffffffffffffffffffffffffffffffffffffffff16815260200190815260200160002090506139058282613717565b9250600083141561391b57600092505050613a38565b6139328383600601546137d890919063ffffffff16565b826006018190555060fb60009054906101000a900473ffffffffffffffffffffffffffffffffffffffff1673ffffffffffffffffffffffffffffffffffffffff1663181e20a78785888860016040518663ffffffff1660e01b815260040161399e959493929190614ea9565b600060405180830381600087803b1580156139b857600080fd5b505af11580156139cc573d6000803e3d6000fd5b505050508373ffffffffffffffffffffffffffffffffffffffff168673ffffffffffffffffffffffffffffffffffffffff167feba725fa451eb408a24432f4ad3fb91000f13659a84e831632133ea702ded0b185604051613a2d919061511e565b60405180910390a350505b9392505050565b600033905090565b600060fd60008373ffffffffffffffffffffffffffffffffffffffff1673ffffffffffffffffffffffffffffffffffffffff168152602001908152602001600020905060008160020160008573ffffffffffffffffffffffffffffffffffffffff1673ffffffffffffffffffffffffffffffffffffffff1681526020019081526020016000205490506000613b8f828573ffffffffffffffffffffffffffffffffffffffff166370a0823160fc60009054906101000a900473ffffffffffffffffffffffffffffffffffffffff166040518263ffffffff1660e01b8152600401613b319190614df7565b60206040518083038186803b158015613b4957600080fd5b505afa158015613b5d573d6000803e3d6000fd5b505050506040513d601f19601f82011682018060405250810190613b819190614af0565b61370190919063ffffffff16565b9050600060fb60009054906101000a900473ffffffffffffffffffffffffffffffffffffffff1673ffffffffffffffffffffffffffffffffffffffff166301964f366040518163ffffffff1660e01b815260040160206040518083038186803b158015613bfb57600080fd5b505afa158015613c0f573d6000803e3d6000fd5b505050506040513d601f19601f82011682018060405250810190613c339190614af0565b90506000613c64670de0b6b3a7640000613c5684866137ac90919063ffffffff16565b6137c290919063ffffffff16565b9050808411613c77575050505050613d1f565b6000613c8c82866137d890919063ffffffff16565b90508773ffffffffffffffffffffffffffffffffffffffff16632e1a7d4d826040518263ffffffff1660e01b8152600401613cc7919061511e565b600060405180830381600087803b158015613ce157600080fd5b505af1158015613cf5573d6000803e3d6000fd5b50505050613d108187600501546137d890919063ffffffff16565b86600501819055505050505050505b5050565b6000613d54670de0b6b3a7640000613d4660fe54856137ac90919063ffffffff16565b6137c290919063ffffffff16565b905060fc60009054906101000a900473ffffffffffffffffffffffffffffffffffffffff1673ffffffffffffffffffffffffffffffffffffffff16638c6d4c4784836040518363ffffffff1660e01b8152600401613db3929190614e80565b600060405180830381600087803b158015613dcd57600080fd5b505af1158015613de1573d6000803e3d6000fd5b505050508273ffffffffffffffffffffffffffffffffffffffff1663a9059cbb60fb60009054906101000a900473ffffffffffffffffffffffffffffffffffffffff1673ffffffffffffffffffffffffffffffffffffffff1663ec94578e6040518163ffffffff1660e01b815260040160206040518083038186803b158015613e6957600080fd5b505afa158015613e7d573d6000803e3d6000fd5b505050506040513d601f19601f82011682018060405250810190613ea191906148bb565b836040518363ffffffff1660e01b8152600401613ebf929190614e80565b602060405180830381600087803b158015613ed957600080fd5b505af1158015613eed573d6000803e3d6000fd5b505050506040513d601f19601f82011682018060405250810190613f119190614a9e565b50613f2581836137d890919063ffffffff16565b9150600060fd60008573ffffffffffffffffffffffffffffffffffffffff1673ffffffffffffffffffffffffffffffffffffffff16815260200190815260200160002090506000613f9d8260040154613f8f670de0b6b3a7640000876137ac90919063ffffffff16565b6137c290919063ffffffff16565b9050613fb681836007015461370190919063ffffffff16565b8260070181905550613fd584836006015461370190919063ffffffff16565b82600601819055505050505050565b600060019054906101000a900460ff168061400a575060008054906101000a900460ff16155b614049576040517f08c379a00000000000000000000000000000000000000000000000000000000081526004016140409061501e565b60405180910390fd5b60008060019054906101000a900460ff161590508015614099576001600060016101000a81548160ff02191690831515021790555060016000806101000a81548160ff0219169083151502179055505b6140a16143ec565b6140a96144c5565b80156140ca5760008060016101000a81548160ff0219169083151502179055505b50565b600060019054906101000a900460ff16806140f3575060008054906101000a900460ff16155b614132576040517f08c379a00000000000000000000000000000000000000000000000000000000081526004016141299061501e565b60405180910390fd5b60008060019054906101000a900460ff161590508015614182576001600060016101000a81548160ff02191690831515021790555060016000806101000a81548160ff0219169083151502179055505b61418a614647565b80156141ab5760008060016101000a81548160ff0219169083151502179055505b50565b60006141dc7f360894a13ba1a3210667c828492db98dca3e2076cc3735a920a3ca505d382bbc60001b614728565b60000160009054906101000a900473ffffffffffffffffffffffffffffffffffffffff16905090565b61420e81614732565b61424d576040517f08c379a00000000000000000000000000000000000000000000000000000000081526004016142449061503e565b60405180910390fd5b8061427a7f360894a13ba1a3210667c828492db98dca3e2076cc3735a920a3ca505d382bbc60001b614728565b60000160006101000a81548173ffffffffffffffffffffffffffffffffffffffff021916908373ffffffffffffffffffffffffffffffffffffffff16021790555050565b60606142c983614732565b614308576040517f08c379a00000000000000000000000000000000000000000000000000000000081526004016142ff9061509e565b60405180910390fd5b6000808473ffffffffffffffffffffffffffffffffffffffff16846040516143309190614de0565b600060405180830381855af49150503d806000811461436b576040519150601f19603f3d011682016040523d82523d6000602084013e614370565b606091505b509150915061439882826040518060600160405280602781526020016157ec60279139614745565b9250505092915050565b6000819050919050565b60008260080154826003015411156143c85781600101546143e4565b6143e38260010154836000015461370190919063ffffffff16565b5b905092915050565b600060019054906101000a900460ff1680614412575060008054906101000a900460ff16155b614451576040517f08c379a00000000000000000000000000000000000000000000000000000000081526004016144489061501e565b60405180910390fd5b60008060019054906101000a900460ff1615905080156144a1576001600060016101000a81548160ff02191690831515021790555060016000806101000a81548160ff0219169083151502179055505b80156144c25760008060016101000a81548160ff0219169083151502179055505b50565b600060019054906101000a900460ff16806144eb575060008054906101000a900460ff16155b61452a576040517f08c379a00000000000000000000000000000000000000000000000000000000081526004016145219061501e565b60405180910390fd5b60008060019054906101000a900460ff16159050801561457a576001600060016101000a81548160ff02191690831515021790555060016000806101000a81548160ff0219169083151502179055505b6000614584613a3f565b905080609760006101000a81548173ffffffffffffffffffffffffffffffffffffffff021916908373ffffffffffffffffffffffffffffffffffffffff1602179055508073ffffffffffffffffffffffffffffffffffffffff16600073ffffffffffffffffffffffffffffffffffffffff167f8be0079c531659141344cd1fd0a4f28419497f9722a3daafe3b4186f6b6457e060405160405180910390a35080156146445760008060016101000a81548160ff0219169083151502179055505b50565b600060019054906101000a900460ff168061466d575060008054906101000a900460ff16155b6146ac576040517f08c379a00000000000000000000000000000000000000000000000000000000081526004016146a39061501e565b60405180910390fd5b60008060019054906101000a900460ff1615905080156146fc576001600060016101000a81548160ff02191690831515021790555060016000806101000a81548160ff0219169083151502179055505b600160c98190555080156147255760008060016101000a81548160ff0219169083151502179055505b50565b6000819050919050565b600080823b905060008111915050919050565b60608315614755578290506147a5565b6000835111156147685782518084602001fd5b816040517f08c379a000000000000000000000000000000000000000000000000000000000815260040161479c9190614efc565b60405180910390fd5b9392505050565b60006147bf6147ba8461515e565b615139565b9050828152602081018484840111156147d757600080fd5b6147e2848285615330565b509392505050565b6000813590506147f98161578f565b92915050565b60008151905061480e8161578f565b92915050565b600081519050614823816157a6565b92915050565b600081519050614838816157bd565b92915050565b600082601f83011261484f57600080fd5b813561485f8482602086016147ac565b91505092915050565b600081359050614877816157d4565b92915050565b60008151905061488c816157d4565b92915050565b6000602082840312156148a457600080fd5b60006148b2848285016147ea565b91505092915050565b6000602082840312156148cd57600080fd5b60006148db848285016147ff565b91505092915050565b6000602082840312156148f657600080fd5b600061490484828501614814565b91505092915050565b6000806040838503121561492057600080fd5b600061492e858286016147ea565b925050602061493f858286016147ea565b9150509250929050565b60008060006060848603121561495e57600080fd5b600061496c868287016147ea565b935050602061497d868287016147ea565b925050604061498e868287016147ea565b9150509250925092565b6000806000606084860312156149ad57600080fd5b60006149bb868287016147ea565b93505060206149cc868287016147ea565b92505060406149dd86828701614868565b9150509250925092565b600080604083850312156149fa57600080fd5b6000614a08858286016147ea565b925050602083013567ffffffffffffffff811115614a2557600080fd5b614a318582860161483e565b9150509250929050565b60008060008060808587031215614a5157600080fd5b6000614a5f878288016147ea565b9450506020614a7087828801614868565b9350506040614a81878288016147ea565b9250506060614a92878288016147ea565b91505092959194509250565b600060208284031215614ab057600080fd5b6000614abe84828501614829565b91505092915050565b600060208284031215614ad957600080fd5b6000614ae784828501614868565b91505092915050565b600060208284031215614b0257600080fd5b6000614b108482850161487d565b91505092915050565b614b22816152d6565b82525050565b614b31816152fa565b82525050565b6000614b428261518f565b614b4c81856151a5565b9350614b5c81856020860161533f565b80840191505092915050565b6000614b738261519a565b614b7d81856151b0565b9350614b8d81856020860161533f565b614b9681615430565b840191505092915050565b6000614bae6006836151b0565b9150614bb982615441565b602082019050919050565b6000614bd16011836151b0565b9150614bdc8261546a565b602082019050919050565b6000614bf4602f836151b0565b9150614bff82615493565b604082019050919050565b6000614c176026836151b0565b9150614c22826154e2565b604082019050919050565b6000614c3a601c836151b0565b9150614c4582615531565b602082019050919050565b6000614c5d601d836151b0565b9150614c688261555a565b602082019050919050565b6000614c806017836151b0565b9150614c8b82615583565b602082019050919050565b6000614ca3601a836151b0565b9150614cae826155ac565b602082019050919050565b6000614cc6602e836151b0565b9150614cd1826155d5565b604082019050919050565b6000614ce9602d836151b0565b9150614cf482615624565b604082019050919050565b6000614d0c6020836151b0565b9150614d1782615673565b602082019050919050565b6000614d2f601b836151b0565b9150614d3a8261569c565b602082019050919050565b6000614d526026836151b0565b9150614d5d826156c5565b604082019050919050565b6000614d75601a836151b0565b9150614d8082615714565b602082019050919050565b6000614d98601f836151b0565b9150614da38261573d565b602082019050919050565b6000614dbb601a836151b0565b9150614dc682615766565b602082019050919050565b614dda81615326565b82525050565b6000614dec8284614b37565b915081905092915050565b6000602082019050614e0c6000830184614b19565b92915050565b6000606082019050614e276000830186614b19565b614e346020830185614b19565b614e416040830184614b19565b949350505050565b6000606082019050614e5e6000830186614b19565b614e6b6020830185614b19565b614e786040830184614dd1565b949350505050565b6000604082019050614e956000830185614b19565b614ea26020830184614dd1565b9392505050565b600060a082019050614ebe6000830188614b19565b614ecb6020830187614dd1565b614ed86040830186614b19565b614ee56060830185614b19565b614ef26080830184614b28565b9695505050505050565b60006020820190508181036000830152614f168184614b68565b905092915050565b60006020820190508181036000830152614f3781614ba1565b9050919050565b60006020820190508181036000830152614f5781614bc4565b9050919050565b60006020820190508181036000830152614f7781614be7565b9050919050565b60006020820190508181036000830152614f9781614c0a565b9050919050565b60006020820190508181036000830152614fb781614c2d565b9050919050565b60006020820190508181036000830152614fd781614c50565b9050919050565b60006020820190508181036000830152614ff781614c73565b9050919050565b6000602082019050818103600083015261501781614c96565b9050919050565b6000602082019050818103600083015261503781614cb9565b9050919050565b6000602082019050818103600083015261505781614cdc565b9050919050565b6000602082019050818103600083015261507781614cff565b9050919050565b6000602082019050818103600083015261509781614d22565b9050919050565b600060208201905081810360008301526150b781614d45565b9050919050565b600060208201905081810360008301526150d781614d68565b9050919050565b600060208201905081810360008301526150f781614d8b565b9050919050565b6000602082019050818103600083015261511781614dae565b9050919050565b60006020820190506151336000830184614dd1565b92915050565b6000615143615154565b905061514f8282615372565b919050565b6000604051905090565b600067ffffffffffffffff82111561517957615178615401565b5b61518282615430565b9050602081019050919050565b600081519050919050565b600081519050919050565b600081905092915050565b600082825260208201905092915050565b60006151cc82615326565b91506151d783615326565b9250827fffffffffffffffffffffffffffffffffffffffffffffffffffffffffffffffff0382111561520c5761520b6153a3565b5b828201905092915050565b600061522282615326565b915061522d83615326565b92508261523d5761523c6153d2565b5b828204905092915050565b600061525382615326565b915061525e83615326565b9250817fffffffffffffffffffffffffffffffffffffffffffffffffffffffffffffffff0483118215151615615297576152966153a3565b5b828202905092915050565b60006152ad82615326565b91506152b883615326565b9250828210156152cb576152ca6153a3565b5b828203905092915050565b60006152e182615306565b9050919050565b60006152f382615306565b9050919050565b60008115159050919050565b600073ffffffffffffffffffffffffffffffffffffffff82169050919050565b6000819050919050565b82818337600083830152505050565b60005b8381101561535d578082015181840152602081019050615342565b8381111561536c576000848401525b50505050565b61537b82615430565b810181811067ffffffffffffffff8211171561539a57615399615401565b5b80604052505050565b7f4e487b7100000000000000000000000000000000000000000000000000000000600052601160045260246000fd5b7f4e487b7100000000000000000000000000000000000000000000000000000000600052601260045260246000fd5b7f4e487b7100000000000000000000000000000000000000000000000000000000600052604160045260246000fd5b6000601f19601f8301169050919050565b7f5061757365640000000000000000000000000000000000000000000000000000600082015250565b7f5043543a206e6f7420696e766573746564000000000000000000000000000000600082015250565b7f45524331393637557067726164653a207570677261646520627265616b73206660008201527f7572746865722075706772616465730000000000000000000000000000000000602082015250565b7f4f776e61626c653a206e6577206f776e657220697320746865207a65726f206160008201527f6464726573730000000000000000000000000000000000000000000000000000602082015250565b7f5043543a20696e76616c696420726174696f2028303c3d523c3d312900000000600082015250565b7f5043543a20696e7465726661636520746f6b656e206d69736d61746368000000600082015250565b7f5043543a206e6f2066756e647320617661696c61626c65000000000000000000600082015250565b7f5043543a20636c61696d207472616e73666572206661696c6564000000000000600082015250565b7f496e697469616c697a61626c653a20636f6e747261637420697320616c72656160008201527f647920696e697469616c697a6564000000000000000000000000000000000000602082015250565b7f455243313936373a206e657720696d706c656d656e746174696f6e206973206e60008201527f6f74206120636f6e747261637400000000000000000000000000000000000000602082015250565b7f4f776e61626c653a2063616c6c6572206973206e6f7420746865206f776e6572600082015250565b7f5043543a20696e76616c696420726174696f2028303c523c3d31290000000000600082015250565b7f416464726573733a2064656c65676174652063616c6c20746f206e6f6e2d636f60008201527f6e74726163740000000000000000000000000000000000000000000000000000602082015250565b7f5043543a206e6f20636c61696d61626c6520696e746572657374000000000000600082015250565b7f5265656e7472616e637947756172643a207265656e7472616e742063616c6c00600082015250565b7f5043543a20696e7465726661636520616c726561647920736574000000000000600082015250565b615798816152d6565b81146157a357600080fd5b50565b6157af816152e8565b81146157ba57600080fd5b50565b6157c6816152fa565b81146157d157600080fd5b50565b6157dd81615326565b81146157e857600080fd5b5056fe416464726573733a206c6f772d6c6576656c2064656c65676174652063616c6c206661696c6564a2646970667358221220cf750f7ff8ace1882d25b4232e15b2698acee82be9ecf5cc5eccfe9e54b205d264736f6c63430008030033",
  "linkReferences": {},
  "deployedLinkReferences": {}
}