{
  "_format": "hh-sol-artifact-1",
  "contractName": "VaultLibrary",
  "sourceName": "contracts/Bank/VaultLibrary.sol",
  "abi": [
    {
      "anonymous": false,
      "inputs": [
        {
          "indexed": false,
          "internalType": "address",
          "name": "previousAdmin",
          "type": "address"
        },
        {
          "indexed": false,
          "internalType": "address",
          "name": "newAdmin",
          "type": "address"
        }
      ],
      "name": "AdminChanged",
      "type": "event"
    },
    {
      "anonymous": false,
      "inputs": [
        {
          "indexed": true,
          "internalType": "address",
          "name": "beacon",
          "type": "address"
        }
      ],
      "name": "BeaconUpgraded",
      "type": "event"
    },
    {
      "anonymous": false,
      "inputs": [
        {
          "indexed": true,
          "internalType": "address",
          "name": "previousOwner",
          "type": "address"
        },
        {
          "indexed": true,
          "internalType": "address",
          "name": "newOwner",
          "type": "address"
        }
      ],
      "name": "OwnershipTransferred",
      "type": "event"
    },
    {
      "anonymous": false,
      "inputs": [
        {
          "indexed": true,
          "internalType": "address",
          "name": "implementation",
          "type": "address"
        }
      ],
      "name": "Upgraded",
      "type": "event"
    },
    {
      "inputs": [
        {
          "internalType": "address",
          "name": "account",
          "type": "address"
        },
        {
          "internalType": "address",
          "name": "fxToken",
          "type": "address"
        }
      ],
      "name": "calculateInterest",
      "outputs": [
        {
          "internalType": "uint256",
          "name": "interest",
          "type": "uint256"
        }
      ],
      "stateMutability": "view",
      "type": "function"
    },
    {
      "inputs": [
        {
          "internalType": "address",
          "name": "account",
          "type": "address"
        },
        {
          "internalType": "address",
          "name": "fxToken",
          "type": "address"
        },
        {
          "internalType": "address",
          "name": "collateralToken",
          "type": "address"
        },
        {
          "internalType": "uint256",
          "name": "collateralAmount",
          "type": "uint256"
        },
        {
          "internalType": "uint256",
          "name": "tokenAmount",
          "type": "uint256"
        },
        {
          "internalType": "uint256",
          "name": "fxQuote",
          "type": "uint256"
        },
        {
          "internalType": "uint256",
          "name": "collateralQuote",
          "type": "uint256"
        }
      ],
      "name": "canMint",
      "outputs": [
        {
          "internalType": "bool",
          "name": "",
          "type": "bool"
        }
      ],
      "stateMutability": "view",
      "type": "function"
    },
    {
      "inputs": [
        {
          "internalType": "address",
          "name": "account",
          "type": "address"
        },
        {
          "internalType": "address",
          "name": "fxToken",
          "type": "address"
        }
      ],
      "name": "doesMeetRatio",
      "outputs": [
        {
          "internalType": "bool",
          "name": "",
          "type": "bool"
        }
      ],
      "stateMutability": "view",
      "type": "function"
    },
    {
      "inputs": [
        {
          "internalType": "address",
          "name": "account",
          "type": "address"
        },
        {
          "internalType": "address",
          "name": "fxToken",
          "type": "address"
        },
        {
          "internalType": "uint256",
          "name": "amountEth",
          "type": "uint256"
        }
      ],
      "name": "getCollateralForAmount",
      "outputs": [
        {
          "internalType": "address[]",
          "name": "collateralTypes",
          "type": "address[]"
        },
        {
          "internalType": "uint256[]",
          "name": "collateralAmounts",
          "type": "uint256[]"
        },
        {
          "internalType": "bool",
          "name": "metAmount",
          "type": "bool"
        }
      ],
      "stateMutability": "view",
      "type": "function"
    },
    {
      "inputs": [
        {
          "internalType": "address",
          "name": "account",
          "type": "address"
        },
        {
          "internalType": "address",
          "name": "fxToken",
          "type": "address"
        }
      ],
      "name": "getCollateralShares",
      "outputs": [
        {
          "internalType": "uint256[]",
          "name": "shares",
          "type": "uint256[]"
        }
      ],
      "stateMutability": "view",
      "type": "function"
    },
    {
      "inputs": [],
      "name": "getCollateralTypesSortedByLiquidationRank",
      "outputs": [
        {
          "internalType": "address[]",
          "name": "sortedCollateralTypes",
          "type": "address[]"
        }
      ],
      "stateMutability": "view",
      "type": "function"
    },
    {
      "inputs": [
        {
          "internalType": "address",
          "name": "account",
          "type": "address"
        },
        {
          "internalType": "address",
          "name": "fxToken",
          "type": "address"
        }
      ],
      "name": "getCurrentRatio",
      "outputs": [
        {
          "internalType": "uint256",
          "name": "ratio",
          "type": "uint256"
        }
      ],
      "stateMutability": "view",
      "type": "function"
    },
    {
      "inputs": [
        {
          "internalType": "address",
          "name": "account",
          "type": "address"
        },
        {
          "internalType": "address",
          "name": "fxToken",
          "type": "address"
        }
      ],
      "name": "getDebtAsEth",
      "outputs": [
        {
          "internalType": "uint256",
          "name": "debt",
          "type": "uint256"
        }
      ],
      "stateMutability": "view",
      "type": "function"
    },
    {
      "inputs": [
        {
          "internalType": "address",
          "name": "account",
          "type": "address"
        },
        {
          "internalType": "address",
          "name": "fxToken",
          "type": "address"
        }
      ],
      "name": "getFreeCollateralAsEth",
      "outputs": [
        {
          "internalType": "uint256",
          "name": "",
          "type": "uint256"
        }
      ],
      "stateMutability": "view",
      "type": "function"
    },
    {
      "inputs": [
        {
          "internalType": "address",
          "name": "account",
          "type": "address"
        },
        {
          "internalType": "address",
          "name": "fxToken",
          "type": "address"
        },
        {
          "internalType": "uint256",
          "name": "minimumRatio",
          "type": "uint256"
        }
      ],
      "name": "getFreeCollateralAsEthFromMinimumRatio",
      "outputs": [
        {
          "internalType": "uint256",
          "name": "",
          "type": "uint256"
        }
      ],
      "stateMutability": "view",
      "type": "function"
    },
    {
      "inputs": [
        {
          "internalType": "address",
          "name": "account",
          "type": "address"
        },
        {
          "internalType": "address",
          "name": "fxToken",
          "type": "address"
        }
      ],
      "name": "getInterestDeltaR",
      "outputs": [
        {
          "internalType": "uint256",
          "name": "dR",
          "type": "uint256"
        }
      ],
      "stateMutability": "view",
      "type": "function"
    },
    {
      "inputs": [
        {
          "internalType": "address",
          "name": "account",
          "type": "address"
        },
        {
          "internalType": "address",
          "name": "fxToken",
          "type": "address"
        }
      ],
      "name": "getInterestRate",
      "outputs": [
        {
          "internalType": "uint256",
          "name": "rate",
          "type": "uint256"
        }
      ],
      "stateMutability": "view",
      "type": "function"
    },
    {
      "inputs": [
        {
          "internalType": "address",
          "name": "account",
          "type": "address"
        },
        {
          "internalType": "address",
          "name": "fxToken",
          "type": "address"
        }
      ],
      "name": "getLiquidationFee",
      "outputs": [
        {
          "internalType": "uint256",
          "name": "fee",
          "type": "uint256"
        }
      ],
      "stateMutability": "view",
      "type": "function"
    },
    {
      "inputs": [
        {
          "internalType": "uint256",
          "name": "tokenAmount",
          "type": "uint256"
        },
        {
          "internalType": "uint256",
          "name": "ratio",
          "type": "uint256"
        },
        {
          "internalType": "uint256",
          "name": "unitPrice",
          "type": "uint256"
        }
      ],
      "name": "getMinimumCollateral",
      "outputs": [
        {
          "internalType": "uint256",
          "name": "minimum",
          "type": "uint256"
        }
      ],
      "stateMutability": "pure",
      "type": "function"
    },
    {
      "inputs": [
        {
          "internalType": "address",
          "name": "account",
          "type": "address"
        },
        {
          "internalType": "address",
          "name": "fxToken",
          "type": "address"
        }
      ],
      "name": "getMinimumRatio",
      "outputs": [
        {
          "internalType": "uint256",
          "name": "ratio",
          "type": "uint256"
        }
      ],
      "stateMutability": "view",
      "type": "function"
    },
    {
      "inputs": [
        {
          "internalType": "address",
          "name": "account",
          "type": "address"
        },
        {
          "internalType": "address",
          "name": "fxToken",
          "type": "address"
        },
        {
          "internalType": "address",
          "name": "collateralToken",
          "type": "address"
        },
        {
          "internalType": "uint256",
          "name": "collateralAmount",
          "type": "uint256"
        },
        {
          "internalType": "uint256",
          "name": "collateralQuote",
          "type": "uint256"
        },
        {
          "internalType": "bool",
          "name": "isDeposit",
          "type": "bool"
        }
      ],
      "name": "getNewMinimumRatio",
      "outputs": [
        {
          "internalType": "uint256",
          "name": "ratio",
          "type": "uint256"
        },
        {
          "internalType": "uint256",
          "name": "newCollateralAsEther",
          "type": "uint256"
        }
      ],
      "stateMutability": "view",
      "type": "function"
    },
    {
      "inputs": [
        {
          "internalType": "address",
          "name": "token",
          "type": "address"
        }
      ],
      "name": "getTokenUnit",
      "outputs": [
        {
          "internalType": "uint256",
          "name": "",
          "type": "uint256"
        }
      ],
      "stateMutability": "view",
      "type": "function"
    },
    {
      "inputs": [
        {
          "internalType": "address",
          "name": "account",
          "type": "address"
        },
        {
          "internalType": "address",
          "name": "fxToken",
          "type": "address"
        }
      ],
      "name": "getTotalCollateralBalanceAsEth",
      "outputs": [
        {
          "internalType": "uint256",
          "name": "balance",
          "type": "uint256"
        }
      ],
      "stateMutability": "view",
      "type": "function"
    },
    {
      "inputs": [],
      "name": "handleAddress",
      "outputs": [
        {
          "internalType": "address",
          "name": "",
          "type": "address"
        }
      ],
      "stateMutability": "view",
      "type": "function"
    },
    {
      "inputs": [],
      "name": "initialize",
      "outputs": [],
      "stateMutability": "nonpayable",
      "type": "function"
    },
    {
      "inputs": [],
      "name": "owner",
      "outputs": [
        {
          "internalType": "address",
          "name": "",
          "type": "address"
        }
      ],
      "stateMutability": "view",
      "type": "function"
    },
    {
      "inputs": [
        {
          "internalType": "uint256[]",
          "name": "array",
          "type": "uint256[]"
        },
        {
          "internalType": "int256",
          "name": "left",
          "type": "int256"
        },
        {
          "internalType": "int256",
          "name": "right",
          "type": "int256"
        }
      ],
      "name": "quickSort",
      "outputs": [],
      "stateMutability": "pure",
      "type": "function"
    },
    {
      "inputs": [],
      "name": "renounceOwnership",
      "outputs": [],
      "stateMutability": "nonpayable",
      "type": "function"
    },
    {
      "inputs": [
        {
          "internalType": "address",
          "name": "_handle",
          "type": "address"
        }
      ],
      "name": "setHandleContract",
      "outputs": [],
      "stateMutability": "nonpayable",
      "type": "function"
    },
    {
      "inputs": [
        {
          "internalType": "address",
          "name": "newOwner",
          "type": "address"
        }
      ],
      "name": "transferOwnership",
      "outputs": [],
      "stateMutability": "nonpayable",
      "type": "function"
    },
    {
      "inputs": [
        {
          "internalType": "address",
          "name": "newImplementation",
          "type": "address"
        }
      ],
      "name": "upgradeTo",
      "outputs": [],
      "stateMutability": "nonpayable",
      "type": "function"
    },
    {
      "inputs": [
        {
          "internalType": "address",
          "name": "newImplementation",
          "type": "address"
        },
        {
          "internalType": "bytes",
          "name": "data",
          "type": "bytes"
        }
      ],
      "name": "upgradeToAndCall",
      "outputs": [],
      "stateMutability": "payable",
      "type": "function"
    }
  ],
  "bytecode": "0x608060405234801561001057600080fd5b50615564806100206000396000f3fe60806040526004361061019c5760003560e01c806387092940116100ec578063c4d7b8b81161008a578063e279962311610064578063e279962314610640578063e76ab2391461067d578063f2fde38b146106ba578063f37cd50d146106e35761019c565b8063c4d7b8b81461059b578063cad57631146105c6578063db3fabeb146106035761019c565b80639e718d07116100c65780639e718d07146104a6578063bbbc1cef146104e3578063bc0c63db14610520578063bcbe3f221461055e5761019c565b806387092940146104155780638da5cb5b146104525780639b1c414f1461047d5761019c565b80634f1ef28611610159578063715018a611610133578063715018a61461037f57806374bf578b1461039657806380ef72a9146103c15780638129fc1c146103fe5761019c565b80634f1ef286146102e95780635a763fbb1461030557806364d321b7146103425761019c565b80630a06fc3c146101a157806312ffb678146101ca578063234ab3e2146102075780633659cfe61461024657806349cf9cce1461026f5780634c90f229146102ac575b600080fd5b3480156101ad57600080fd5b506101c860048036038101906101c391906144f5565b610720565b005b3480156101d657600080fd5b506101f160048036038101906101ec9190614242565b6109c6565b6040516101fe9190614ab1565b60405180910390f35b34801561021357600080fd5b5061022e600480360381019061022991906143a5565b610c1b565b60405161023d9392919061494d565b60405180910390f35b34801561025257600080fd5b5061026d600480360381019061026891906141c7565b611088565b005b34801561027b57600080fd5b5061029660048036038101906102919190614242565b6110af565b6040516102a39190614992565b60405180910390f35b3480156102b857600080fd5b506102d360048036038101906102ce9190614242565b6114da565b6040516102e09190614ab1565b60405180910390f35b61030360048036038101906102fe91906143f4565b611814565b005b34801561031157600080fd5b5061032c60048036038101906103279190614242565b61182d565b6040516103399190614ab1565b60405180910390f35b34801561034e57600080fd5b5061036960048036038101906103649190614242565b611895565b6040516103769190614ab1565b60405180910390f35b34801561038b57600080fd5b50610394611ae4565b005b3480156103a257600080fd5b506103ab611c21565b6040516103b891906148b0565b60405180910390f35b3480156103cd57600080fd5b506103e860048036038101906103e391906141c7565b611c4b565b6040516103f59190614ab1565b60405180910390f35b34801561040a57600080fd5b50610413611ce6565b005b34801561042157600080fd5b5061043c60048036038101906104379190614242565b611dc7565b6040516104499190614ab1565b60405180910390f35b34801561045e57600080fd5b50610467611eb8565b60405161047491906148b0565b60405180910390f35b34801561048957600080fd5b506104a4600480360381019061049f91906141c7565b611ee2565b005b3480156104b257600080fd5b506104cd60048036038101906104c891906145ae565b612242565b6040516104da9190614ab1565b60405180910390f35b3480156104ef57600080fd5b5061050a60048036038101906105059190614242565b6122a6565b6040516105179190614ab1565b60405180910390f35b34801561052c57600080fd5b506105476004803603810190610542919061427e565b61255b565b604051610555929190614acc565b60405180910390f35b34801561056a57600080fd5b5061058560048036038101906105809190614242565b6127be565b6040516105929190614ab1565b60405180910390f35b3480156105a757600080fd5b506105b0612a35565b6040516105bd919061492b565b60405180910390f35b3480156105d257600080fd5b506105ed60048036038101906105e891906143a5565b613122565b6040516105fa9190614ab1565b60405180910390f35b34801561060f57600080fd5b5061062a60048036038101906106259190614242565b6131af565b6040516106379190614ab1565b60405180910390f35b34801561064c57600080fd5b5061066760048036038101906106629190614307565b61333c565b60405161067491906149b4565b60405180910390f35b34801561068957600080fd5b506106a4600480360381019061069f9190614242565b6133da565b6040516106b19190614ab1565b60405180910390f35b3480156106c657600080fd5b506106e160048036038101906106dc91906141c7565b6133f8565b005b3480156106ef57600080fd5b5061070a60048036038101906107059190614242565b6135a4565b60405161071791906149b4565b60405180910390f35b60008290506000829050808214156107395750506109c1565b6000856002868661074a9190614f97565b6107549190614d31565b8661075f9190614c47565b81518110610796577f4e487b7100000000000000000000000000000000000000000000000000000000600052603260045260246000fd5b602002602001015190505b818313610995575b808684815181106107e3577f4e487b7100000000000000000000000000000000000000000000000000000000600052603260045260246000fd5b602002602001015110156108045782806107fc9061518c565b9350506107a9565b5b85828151811061083e577f4e487b7100000000000000000000000000000000000000000000000000000000600052603260045260246000fd5b602002602001015181101561086057818061085890615112565b925050610805565b818313610990578582815181106108a0577f4e487b7100000000000000000000000000000000000000000000000000000000600052603260045260246000fd5b60200260200101518684815181106108e1577f4e487b7100000000000000000000000000000000000000000000000000000000600052603260045260246000fd5b6020026020010151878581518110610922577f4e487b7100000000000000000000000000000000000000000000000000000000600052603260045260246000fd5b60200260200101888581518110610962577f4e487b7100000000000000000000000000000000000000000000000000000000600052603260045260246000fd5b6020026020010182815250828152505050828061097e9061518c565b935050818061098c90615112565b9250505b6107a1565b818512156109a9576109a8868684610720565b5b838312156109bd576109bc868486610720565b5b5050505b505050565b60008060c960009054906101000a900473ffffffffffffffffffffffffffffffffffffffff1673ffffffffffffffffffffffffffffffffffffffff1663294d499e6040518163ffffffff1660e01b815260040160006040518083038186803b158015610a3157600080fd5b505afa158015610a45573d6000803e3d6000fd5b505050506040513d6000823e3d601f19601f82011682018060405250810190610a6e9190614448565b90506000815190506000610a8286866110af565b905060005b82811015610c1157610bfc610bed670de0b6b3a7640000610bdf858581518110610ada577f4e487b7100000000000000000000000000000000000000000000000000000000600052603260045260246000fd5b602002602001015160c960009054906101000a900473ffffffffffffffffffffffffffffffffffffffff1673ffffffffffffffffffffffffffffffffffffffff1663bd9e52008a8881518110610b59577f4e487b7100000000000000000000000000000000000000000000000000000000600052603260045260246000fd5b60200260200101516040518263ffffffff1660e01b8152600401610b7d91906148b0565b60606040518083038186803b158015610b9557600080fd5b505afa158015610ba9573d6000803e3d6000fd5b505050506040513d601f19601f82011682018060405250810190610bcd919061455c565b604001516135dc90919063ffffffff16565b6135f290919063ffffffff16565b8661360890919063ffffffff16565b94508080610c09906151d5565b915050610a87565b5050505092915050565b6060806000610c28612a35565b92506000835190508067ffffffffffffffff811115610c70577f4e487b7100000000000000000000000000000000000000000000000000000000600052604160045260246000fd5b604051908082528060200260200182016040528015610c9e5781602001602082028036833780820191505090505b5092506000805b8281101561107757600060c960009054906101000a900473ffffffffffffffffffffffffffffffffffffffff1673ffffffffffffffffffffffffffffffffffffffff1663c462b5208b898581518110610d27577f4e487b7100000000000000000000000000000000000000000000000000000000600052603260045260246000fd5b60200260200101518c6040518463ffffffff1660e01b8152600401610d4e939291906148f4565b60206040518083038186803b158015610d6657600080fd5b505afa158015610d7a573d6000803e3d6000fd5b505050506040513d601f19601f82011682018060405250810190610d9e9190614585565b9050600060c960009054906101000a900473ffffffffffffffffffffffffffffffffffffffff1673ffffffffffffffffffffffffffffffffffffffff1663d02641a0898581518110610e19577f4e487b7100000000000000000000000000000000000000000000000000000000600052603260045260246000fd5b60200260200101516040518263ffffffff1660e01b8152600401610e3d91906148b0565b60206040518083038186803b158015610e5557600080fd5b505afa158015610e69573d6000803e3d6000fd5b505050506040513d601f19601f82011682018060405250810190610e8d9190614585565b90506000610efe610edd8a8681518110610ed0577f4e487b7100000000000000000000000000000000000000000000000000000000600052603260045260246000fd5b6020026020010151611c4b565b610ef085856135dc90919063ffffffff16565b6135f290919063ffffffff16565b905089610f14828761360890919063ffffffff16565b1015610f7d5782888581518110610f54577f4e487b7100000000000000000000000000000000000000000000000000000000600052603260045260246000fd5b602002602001018181525050610f73818661360890919063ffffffff16565b9450505050611064565b6000610f92868c61361e90919063ffffffff16565b905061100183610ff3610fe48d8981518110610fd7577f4e487b7100000000000000000000000000000000000000000000000000000000600052603260045260246000fd5b6020026020010151611c4b565b846135dc90919063ffffffff16565b6135f290919063ffffffff16565b89868151811061103a577f4e487b7100000000000000000000000000000000000000000000000000000000600052603260045260246000fd5b602002602001018181525050611059818761360890919063ffffffff16565b955050505050611077565b808061106f906151d5565b915050610ca5565b508581149250505093509350939050565b61109181613634565b6110ac816040518060200160405280600081525060006136b3565b50565b6060600060c960009054906101000a900473ffffffffffffffffffffffffffffffffffffffff1673ffffffffffffffffffffffffffffffffffffffff1663294d499e6040518163ffffffff1660e01b815260040160006040518083038186803b15801561111b57600080fd5b505afa15801561112f573d6000803e3d6000fd5b505050506040513d6000823e3d601f19601f820116820180604052508101906111589190614448565b90506000815190508067ffffffffffffffff8111156111a0577f4e487b7100000000000000000000000000000000000000000000000000000000600052604160045260246000fd5b6040519080825280602002602001820160405280156111ce5781602001602082028036833780820191505090505b50925060006111dd86866114da565b905060008114156111f0575050506114d4565b60008060005b848110156114cd5760c960009054906101000a900473ffffffffffffffffffffffffffffffffffffffff1673ffffffffffffffffffffffffffffffffffffffff1663c462b5208a888481518110611276577f4e487b7100000000000000000000000000000000000000000000000000000000600052603260045260246000fd5b60200260200101518b6040518463ffffffff1660e01b815260040161129d939291906148f4565b60206040518083038186803b1580156112b557600080fd5b505afa1580156112c9573d6000803e3d6000fd5b505050506040513d601f19601f820116820180604052508101906112ed9190614585565b925061144661133b87838151811061132e577f4e487b7100000000000000000000000000000000000000000000000000000000600052603260045260246000fd5b6020026020010151611c4b565b6114388560c960009054906101000a900473ffffffffffffffffffffffffffffffffffffffff1673ffffffffffffffffffffffffffffffffffffffff1663d02641a08b87815181106113b6577f4e487b7100000000000000000000000000000000000000000000000000000000600052603260045260246000fd5b60200260200101516040518263ffffffff1660e01b81526004016113da91906148b0565b60206040518083038186803b1580156113f257600080fd5b505afa158015611406573d6000803e3d6000fd5b505050506040513d601f19601f8201168201806040525081019061142a9190614585565b6135dc90919063ffffffff16565b6135f290919063ffffffff16565b915061147584611467670de0b6b3a7640000856135dc90919063ffffffff16565b6135f290919063ffffffff16565b8782815181106114ae577f4e487b7100000000000000000000000000000000000000000000000000000000600052603260045260246000fd5b60200260200101818152505080806114c5906151d5565b9150506111f6565b5050505050505b92915050565b60008060c960009054906101000a900473ffffffffffffffffffffffffffffffffffffffff1673ffffffffffffffffffffffffffffffffffffffff1663294d499e6040518163ffffffff1660e01b815260040160006040518083038186803b15801561154557600080fd5b505afa158015611559573d6000803e3d6000fd5b505050506040513d6000823e3d601f19601f820116820180604052508101906115829190614448565b90506000915060008151905060005b8181101561180b5760006117e06115e78584815181106115da577f4e487b7100000000000000000000000000000000000000000000000000000000600052603260045260246000fd5b6020026020010151611c4b565b6117d260c960009054906101000a900473ffffffffffffffffffffffffffffffffffffffff1673ffffffffffffffffffffffffffffffffffffffff1663d02641a0888781518110611661577f4e487b7100000000000000000000000000000000000000000000000000000000600052603260045260246000fd5b60200260200101516040518263ffffffff1660e01b815260040161168591906148b0565b60206040518083038186803b15801561169d57600080fd5b505afa1580156116b1573d6000803e3d6000fd5b505050506040513d601f19601f820116820180604052508101906116d59190614585565b60c960009054906101000a900473ffffffffffffffffffffffffffffffffffffffff1673ffffffffffffffffffffffffffffffffffffffff1663c462b5208c8a898151811061174d577f4e487b7100000000000000000000000000000000000000000000000000000000600052603260045260246000fd5b60200260200101518d6040518463ffffffff1660e01b8152600401611774939291906148f4565b60206040518083038186803b15801561178c57600080fd5b505afa1580156117a0573d6000803e3d6000fd5b505050506040513d601f19601f820116820180604052508101906117c49190614585565b6135dc90919063ffffffff16565b6135f290919063ffffffff16565b90506117f5818661360890919063ffffffff16565b9450508080611803906151d5565b915050611591565b50505092915050565b61181d82613634565b611829828260016136b3565b5050565b60008061183a84846131af565b9050600081141561184f57600091505061188f565b600061185b85856114da565b905061188a8261187c670de0b6b3a7640000846135dc90919063ffffffff16565b6135f290919063ffffffff16565b925050505b92915050565b60008060c960009054906101000a900473ffffffffffffffffffffffffffffffffffffffff1673ffffffffffffffffffffffffffffffffffffffff1663294d499e6040518163ffffffff1660e01b815260040160006040518083038186803b15801561190057600080fd5b505afa158015611914573d6000803e3d6000fd5b505050506040513d6000823e3d601f19601f8201168201806040525081019061193d9190614448565b9050600061194b85856110af565b905060008251905060005b81811015611ada57611ac5611ab6612710611aa88685815181106119a3577f4e487b7100000000000000000000000000000000000000000000000000000000600052603260045260246000fd5b602002602001015160c960009054906101000a900473ffffffffffffffffffffffffffffffffffffffff1673ffffffffffffffffffffffffffffffffffffffff1663bd9e52008a8881518110611a22577f4e487b7100000000000000000000000000000000000000000000000000000000600052603260045260246000fd5b60200260200101516040518263ffffffff1660e01b8152600401611a4691906148b0565b60606040518083038186803b158015611a5e57600080fd5b505afa158015611a72573d6000803e3d6000fd5b505050506040513d601f19601f82011682018060405250810190611a96919061455c565b602001516135dc90919063ffffffff16565b6135f290919063ffffffff16565b8661360890919063ffffffff16565b94508080611ad2906151d5565b915050611956565b5050505092915050565b611aec6138c7565b73ffffffffffffffffffffffffffffffffffffffff16611b0a611eb8565b73ffffffffffffffffffffffffffffffffffffffff1614611b60576040517f08c379a0000000000000000000000000000000000000000000000000000000008152600401611b5790614a71565b60405180910390fd5b600073ffffffffffffffffffffffffffffffffffffffff16609760009054906101000a900473ffffffffffffffffffffffffffffffffffffffff1673ffffffffffffffffffffffffffffffffffffffff167f8be0079c531659141344cd1fd0a4f28419497f9722a3daafe3b4186f6b6457e060405160405180910390a36000609760006101000a81548173ffffffffffffffffffffffffffffffffffffffff021916908373ffffffffffffffffffffffffffffffffffffffff160217905550565b600060c960009054906101000a900473ffffffffffffffffffffffffffffffffffffffff16905090565b6000808273ffffffffffffffffffffffffffffffffffffffff1663313ce5676040518163ffffffff1660e01b815260040160206040518083038186803b158015611c9457600080fd5b505afa158015611ca8573d6000803e3d6000fd5b505050506040513d601f19601f82011682018060405250810190611ccc91906145fd565b60ff16905080600a611cde9190614e1f565b915050919050565b600060019054906101000a900460ff1680611d0c575060008054906101000a900460ff16155b611d4b576040517f08c379a0000000000000000000000000000000000000000000000000000000008152600401611d4290614a31565b60405180910390fd5b60008060019054906101000a900460ff161590508015611d9b576001600060016101000a81548160ff02191690831515021790555060016000806101000a81548160ff0219169083151502179055505b611da36138cf565b8015611dc45760008060016101000a81548160ff0219169083151502179055505b50565b600080611dd484846122a6565b9050611eaf670de0b6b3a7640000611ea18360c960009054906101000a900473ffffffffffffffffffffffffffffffffffffffff1673ffffffffffffffffffffffffffffffffffffffff1663a300733d89896040518363ffffffff1660e01b8152600401611e439291906148cb565b60206040518083038186803b158015611e5b57600080fd5b505afa158015611e6f573d6000803e3d6000fd5b505050506040513d601f19601f82011682018060405250810190611e939190614585565b6135dc90919063ffffffff16565b6135f290919063ffffffff16565b91505092915050565b6000609760009054906101000a900473ffffffffffffffffffffffffffffffffffffffff16905090565b611eea6138c7565b73ffffffffffffffffffffffffffffffffffffffff16611f08611eb8565b73ffffffffffffffffffffffffffffffffffffffff1614611f5e576040517f08c379a0000000000000000000000000000000000000000000000000000000008152600401611f5590614a71565b60405180910390fd5b8060c960006101000a81548173ffffffffffffffffffffffffffffffffffffffff021916908373ffffffffffffffffffffffffffffffffffffffff16021790555060c960009054906101000a900473ffffffffffffffffffffffffffffffffffffffff1673ffffffffffffffffffffffffffffffffffffffff16635fe3b5676040518163ffffffff1660e01b815260040160206040518083038186803b15801561200757600080fd5b505afa15801561201b573d6000803e3d6000fd5b505050506040513d601f19601f8201168201806040525081019061203f91906141f0565b60cb60006101000a81548173ffffffffffffffffffffffffffffffffffffffff021916908373ffffffffffffffffffffffffffffffffffffffff16021790555060c960009054906101000a900473ffffffffffffffffffffffffffffffffffffffff1673ffffffffffffffffffffffffffffffffffffffff166361d027b36040518163ffffffff1660e01b815260040160206040518083038186803b1580156120e757600080fd5b505afa1580156120fb573d6000803e3d6000fd5b505050506040513d601f19601f8201168201806040525081019061211f9190614219565b60ca60006101000a81548173ffffffffffffffffffffffffffffffffffffffff021916908373ffffffffffffffffffffffffffffffffffffffff16021790555060c960009054906101000a900473ffffffffffffffffffffffffffffffffffffffff1673ffffffffffffffffffffffffffffffffffffffff1663c392f7666040518163ffffffff1660e01b815260040160206040518083038186803b1580156121c757600080fd5b505afa1580156121db573d6000803e3d6000fd5b505050506040513d601f19601f820116820180604052508101906121ff91906141f0565b60cc60006101000a81548173ffffffffffffffffffffffffffffffffffffffff021916908373ffffffffffffffffffffffffffffffffffffffff16021790555050565b600061229d670de0b6b3a764000061228f670de0b6b3a7640000612281876122738a896135dc90919063ffffffff16565b6135dc90919063ffffffff16565b6135f290919063ffffffff16565b6135f290919063ffffffff16565b90509392505050565b600080600060cc60009054906101000a900473ffffffffffffffffffffffffffffffffffffffff1673ffffffffffffffffffffffffffffffffffffffff1663d56a5c736040518163ffffffff1660e01b815260040160006040518083038186803b15801561231357600080fd5b505afa158015612327573d6000803e3d6000fd5b505050506040513d6000823e3d601f19601f820116820180604052508101906123509190614489565b915091506000925060008151905060008061236b88886110af565b905060005b8381101561254f5760c960009054906101000a900473ffffffffffffffffffffffffffffffffffffffff1673ffffffffffffffffffffffffffffffffffffffff166331695c4e8a8a8885815181106123f1577f4e487b7100000000000000000000000000000000000000000000000000000000600052603260045260246000fd5b60200260200101516040518463ffffffff1660e01b8152600401612417939291906148f4565b60206040518083038186803b15801561242f57600080fd5b505afa158015612443573d6000803e3d6000fd5b505050506040513d601f19601f820116820180604052508101906124679190614585565b925061253a61252b670de0b6b3a764000061251d8585815181106124b4577f4e487b7100000000000000000000000000000000000000000000000000000000600052603260045260246000fd5b602002602001015161250f888c88815181106124f9577f4e487b7100000000000000000000000000000000000000000000000000000000600052603260045260246000fd5b602002602001015161361e90919063ffffffff16565b6135dc90919063ffffffff16565b6135f290919063ffffffff16565b8861360890919063ffffffff16565b96508080612547906151d5565b915050612370565b50505050505092915050565b600080600061256a89896127be565b905060006125788a8a6114da565b9050846125c3576125be6125af61258e8a611c4b565b6125a18a8a6135dc90919063ffffffff16565b6135f290919063ffffffff16565b8261361e90919063ffffffff16565b612603565b6126026125f36125d28a611c4b565b6125e58a8a6135dc90919063ffffffff16565b6135f290919063ffffffff16565b8261360890919063ffffffff16565b5b9250600060c960009054906101000a900473ffffffffffffffffffffffffffffffffffffffff1673ffffffffffffffffffffffffffffffffffffffff1663bd9e52008a6040518263ffffffff1660e01b815260040161266291906148b0565b60606040518083038186803b15801561267a57600080fd5b505afa15801561268e573d6000803e3d6000fd5b505050506040513d601f19601f820116820180604052508101906126b2919061455c565b60000151905060008314156126f6576126ef60646126e1670de0b6b3a7640000846135dc90919063ffffffff16565b6135f290919063ffffffff16565b94506127b0565b600061272585612717670de0b6b3a7640000866135dc90919063ffffffff16565b6135f290919063ffffffff16565b90506127ac612771670de0b6b3a76400006127638561275586670de0b6b3a764000061361e90919063ffffffff16565b6135dc90919063ffffffff16565b6135f290919063ffffffff16565b61279e670de0b6b3a764000061279085896135dc90919063ffffffff16565b6135f290919063ffffffff16565b61360890919063ffffffff16565b9550505b505050965096945050505050565b60008060c960009054906101000a900473ffffffffffffffffffffffffffffffffffffffff1673ffffffffffffffffffffffffffffffffffffffff1663294d499e6040518163ffffffff1660e01b815260040160006040518083038186803b15801561282957600080fd5b505afa15801561283d573d6000803e3d6000fd5b505050506040513d6000823e3d601f19601f820116820180604052508101906128669190614448565b9050600061287485856110af565b905060008251905060005b81811015612a1557612a006129f160646129e38685815181106128cb577f4e487b7100000000000000000000000000000000000000000000000000000000600052603260045260246000fd5b60200260200101516129d5606460c960009054906101000a900473ffffffffffffffffffffffffffffffffffffffff1673ffffffffffffffffffffffffffffffffffffffff1663bd9e52008c8a8151811061294f577f4e487b7100000000000000000000000000000000000000000000000000000000600052603260045260246000fd5b60200260200101516040518263ffffffff1660e01b815260040161297391906148b0565b60606040518083038186803b15801561298b57600080fd5b505afa15801561299f573d6000803e3d6000fd5b505050506040513d601f19601f820116820180604052508101906129c3919061455c565b600001516135dc90919063ffffffff16565b6135dc90919063ffffffff16565b6135f290919063ffffffff16565b8661360890919063ffffffff16565b94508080612a0d906151d5565b91505061287f565b50612a2a6064856135f290919063ffffffff16565b935050505092915050565b6060600060c960009054906101000a900473ffffffffffffffffffffffffffffffffffffffff1673ffffffffffffffffffffffffffffffffffffffff1663294d499e6040518163ffffffff1660e01b815260040160006040518083038186803b158015612aa157600080fd5b505afa158015612ab5573d6000803e3d6000fd5b505050506040513d6000823e3d601f19601f82011682018060405250810190612ade9190614448565b905060008151905060008167ffffffffffffffff811115612b28577f4e487b7100000000000000000000000000000000000000000000000000000000600052604160045260246000fd5b604051908082528060200260200182016040528015612b565781602001602082028036833780820191505090505b50905060008151905060005b81811015612cb15760c960009054906101000a900473ffffffffffffffffffffffffffffffffffffffff1673ffffffffffffffffffffffffffffffffffffffff1663bd9e5200868381518110612be1577f4e487b7100000000000000000000000000000000000000000000000000000000600052603260045260246000fd5b60200260200101516040518263ffffffff1660e01b8152600401612c0591906148b0565b60606040518083038186803b158015612c1d57600080fd5b505afa158015612c31573d6000803e3d6000fd5b505050506040513d601f19601f82011682018060405250810190612c55919061455c565b60000151838281518110612c92577f4e487b7100000000000000000000000000000000000000000000000000000000600052603260045260246000fd5b6020026020010181815250508080612ca9906151d5565b915050612b62565b5060008167ffffffffffffffff811115612cf4577f4e487b7100000000000000000000000000000000000000000000000000000000600052604160045260246000fd5b604051908082528060200260200182016040528015612d225781602001602082028036833780820191505090505b50905060008151905060005b81811015612dcf57848181518110612d6f577f4e487b7100000000000000000000000000000000000000000000000000000000600052603260045260246000fd5b6020026020010151838281518110612db0577f4e487b7100000000000000000000000000000000000000000000000000000000600052603260045260246000fd5b6020026020010181815250508080612dc7906151d5565b915050612d2e565b50612de982600060018551612de4919061502b565b610720565b60008567ffffffffffffffff811115612e2b577f4e487b7100000000000000000000000000000000000000000000000000000000600052604160045260246000fd5b604051908082528060200260200182016040528015612e595781602001602082028036833780820191505090505b50905060005b82811015612f705760005b85811015612f5c57848281518110612eab577f4e487b7100000000000000000000000000000000000000000000000000000000600052603260045260246000fd5b6020026020010151878281518110612eec577f4e487b7100000000000000000000000000000000000000000000000000000000600052603260045260246000fd5b602002602001015114612efe57612f49565b80838381518110612f38577f4e487b7100000000000000000000000000000000000000000000000000000000600052603260045260246000fd5b602002602001018181525050612f5c565b8080612f54906151d5565b915050612e6a565b508080612f68906151d5565b915050612e5f565b508567ffffffffffffffff811115612fb1577f4e487b7100000000000000000000000000000000000000000000000000000000600052604160045260246000fd5b604051908082528060200260200182016040528015612fdf5781602001602082028036833780820191505090505b50975060005b86811015613117576000828281518110613028577f4e487b7100000000000000000000000000000000000000000000000000000000600052603260045260246000fd5b6020026020010151905060006001838a613042919061502b565b61304c919061502b565b9050898281518110613087577f4e487b7100000000000000000000000000000000000000000000000000000000600052603260045260246000fd5b60200260200101518b82815181106130c8577f4e487b7100000000000000000000000000000000000000000000000000000000600052603260045260246000fd5b602002602001019073ffffffffffffffffffffffffffffffffffffffff16908173ffffffffffffffffffffffffffffffffffffffff16815250505050808061310f906151d5565b915050612fe5565b505050505050505090565b60008061312f85856114da565b905060008114156131445760009150506131a8565b600061317c670de0b6b3a764000061316e866131608a8a6131af565b6135dc90919063ffffffff16565b6135f290919063ffffffff16565b9050808211613190576000925050506131a8565b6131a3818361361e90919063ffffffff16565b925050505b9392505050565b6000613334670de0b6b3a764000061332660c960009054906101000a900473ffffffffffffffffffffffffffffffffffffffff1673ffffffffffffffffffffffffffffffffffffffff1663d02641a0866040518263ffffffff1660e01b815260040161321b91906148b0565b60206040518083038186803b15801561323357600080fd5b505afa158015613247573d6000803e3d6000fd5b505050506040513d601f19601f8201168201806040525081019061326b9190614585565b60c960009054906101000a900473ffffffffffffffffffffffffffffffffffffffff1673ffffffffffffffffffffffffffffffffffffffff1663498b5ae888886040518363ffffffff1660e01b81526004016132c89291906148cb565b60206040518083038186803b1580156132e057600080fd5b505afa1580156132f4573d6000803e3d6000fd5b505050506040513d601f19601f820116820180604052508101906133189190614585565b6135dc90919063ffffffff16565b6135f290919063ffffffff16565b905092915050565b60008060006133508a8a8a8a88600161255b565b915091506133c8670de0b6b3a76400006133ba846133ac6133718f8f6131af565b61339e670de0b6b3a76400006133908d8f6135dc90919063ffffffff16565b6135f290919063ffffffff16565b61360890919063ffffffff16565b6135dc90919063ffffffff16565b6135f290919063ffffffff16565b81101592505050979650505050505050565b60006133f083836133eb86866127be565b613122565b905092915050565b6134006138c7565b73ffffffffffffffffffffffffffffffffffffffff1661341e611eb8565b73ffffffffffffffffffffffffffffffffffffffff1614613474576040517f08c379a000000000000000000000000000000000000000000000000000000000815260040161346b90614a71565b60405180910390fd5b600073ffffffffffffffffffffffffffffffffffffffff168173ffffffffffffffffffffffffffffffffffffffff1614156134e4576040517f08c379a00000000000000000000000000000000000000000000000000000000081526004016134db90614a11565b60405180910390fd5b8073ffffffffffffffffffffffffffffffffffffffff16609760009054906101000a900473ffffffffffffffffffffffffffffffffffffffff1673ffffffffffffffffffffffffffffffffffffffff167f8be0079c531659141344cd1fd0a4f28419497f9722a3daafe3b4186f6b6457e060405160405180910390a380609760006101000a81548173ffffffffffffffffffffffffffffffffffffffff021916908373ffffffffffffffffffffffffffffffffffffffff16021790555050565b6000806135b184846127be565b905060006135bf858561182d565b9050600081141580156135d25750818110155b9250505092915050565b600081836135ea9190614f3d565b905092915050565b600081836136009190614d9b565b905092915050565b600081836136169190614cdb565b905092915050565b6000818361362c919061502b565b905092915050565b61363c6138c7565b73ffffffffffffffffffffffffffffffffffffffff1661365a611eb8565b73ffffffffffffffffffffffffffffffffffffffff16146136b0576040517f08c379a00000000000000000000000000000000000000000000000000000000081526004016136a790614a71565b60405180910390fd5b50565b60006136bd6139b8565b90506136c884613a0f565b6000835111806136d55750815b156136e6576136e48484613ac8565b505b60006137147f4910fdfa16fed3260ed0e7147f7cc6da11a60208b5b9406d12a635614ffd914360001b613bac565b90508060000160009054906101000a900460ff166138c05760018160000160006101000a81548160ff0219169083151502179055506137e0858360405160240161375e91906148b0565b6040516020818303038152906040527f3659cfe6000000000000000000000000000000000000000000000000000000007bffffffffffffffffffffffffffffffffffffffffffffffffffffffff19166020820180517bffffffffffffffffffffffffffffffffffffffffffffffffffffffff8381831617835250505050613ac8565b5060008160000160006101000a81548160ff0219169083151502179055506138066139b8565b73ffffffffffffffffffffffffffffffffffffffff168273ffffffffffffffffffffffffffffffffffffffff1614613873576040517f08c379a000000000000000000000000000000000000000000000000000000000815260040161386a906149f1565b60405180910390fd5b61387c85613a0f565b8473ffffffffffffffffffffffffffffffffffffffff167fbc7cd75a20ee27fd9adebab32041f755214dbc6bffa90cc0225b39da2e5c2d3b60405160405180910390a25b5050505050565b600033905090565b600060019054906101000a900460ff16806138f5575060008054906101000a900460ff16155b613934576040517f08c379a000000000000000000000000000000000000000000000000000000000815260040161392b90614a31565b60405180910390fd5b60008060019054906101000a900460ff161590508015613984576001600060016101000a81548160ff02191690831515021790555060016000806101000a81548160ff0219169083151502179055505b61398c613bb6565b613994613c8f565b80156139b55760008060016101000a81548160ff0219169083151502179055505b50565b60006139e67f360894a13ba1a3210667c828492db98dca3e2076cc3735a920a3ca505d382bbc60001b613e11565b60000160009054906101000a900473ffffffffffffffffffffffffffffffffffffffff16905090565b613a1881613e1b565b613a57576040517f08c379a0000000000000000000000000000000000000000000000000000000008152600401613a4e90614a51565b60405180910390fd5b80613a847f360894a13ba1a3210667c828492db98dca3e2076cc3735a920a3ca505d382bbc60001b613e11565b60000160006101000a81548173ffffffffffffffffffffffffffffffffffffffff021916908373ffffffffffffffffffffffffffffffffffffffff16021790555050565b6060613ad383613e1b565b613b12576040517f08c379a0000000000000000000000000000000000000000000000000000000008152600401613b0990614a91565b60405180910390fd5b6000808473ffffffffffffffffffffffffffffffffffffffff1684604051613b3a9190614899565b600060405180830381855af49150503d8060008114613b75576040519150601f19603f3d011682016040523d82523d6000602084013e613b7a565b606091505b5091509150613ba2828260405180606001604052806027815260200161550860279139613e2e565b9250505092915050565b6000819050919050565b600060019054906101000a900460ff1680613bdc575060008054906101000a900460ff16155b613c1b576040517f08c379a0000000000000000000000000000000000000000000000000000000008152600401613c1290614a31565b60405180910390fd5b60008060019054906101000a900460ff161590508015613c6b576001600060016101000a81548160ff02191690831515021790555060016000806101000a81548160ff0219169083151502179055505b8015613c8c5760008060016101000a81548160ff0219169083151502179055505b50565b600060019054906101000a900460ff1680613cb5575060008054906101000a900460ff16155b613cf4576040517f08c379a0000000000000000000000000000000000000000000000000000000008152600401613ceb90614a31565b60405180910390fd5b60008060019054906101000a900460ff161590508015613d44576001600060016101000a81548160ff02191690831515021790555060016000806101000a81548160ff0219169083151502179055505b6000613d4e6138c7565b905080609760006101000a81548173ffffffffffffffffffffffffffffffffffffffff021916908373ffffffffffffffffffffffffffffffffffffffff1602179055508073ffffffffffffffffffffffffffffffffffffffff16600073ffffffffffffffffffffffffffffffffffffffff167f8be0079c531659141344cd1fd0a4f28419497f9722a3daafe3b4186f6b6457e060405160405180910390a3508015613e0e5760008060016101000a81548160ff0219169083151502179055505b50565b6000819050919050565b600080823b905060008111915050919050565b60608315613e3e57829050613e8e565b600083511115613e515782518084602001fd5b816040517f08c379a0000000000000000000000000000000000000000000000000000000008152600401613e8591906149cf565b60405180910390fd5b9392505050565b6000613ea8613ea384614b1a565b614af5565b90508083825260208201905082856020860282011115613ec757600080fd5b60005b85811015613ef75781613edd888261402c565b845260208401935060208301925050600181019050613eca565b5050509392505050565b6000613f14613f0f84614b46565b614af5565b90508083825260208201905082856020860282011115613f3357600080fd5b60005b85811015613f635781613f498882614188565b845260208401935060208301925050600181019050613f36565b5050509392505050565b6000613f80613f7b84614b46565b614af5565b90508083825260208201905082856020860282011115613f9f57600080fd5b60005b85811015613fcf5781613fb5888261419d565b845260208401935060208301925050600181019050613fa2565b5050509392505050565b6000613fec613fe784614b72565b614af5565b90508281526020810184848401111561400457600080fd5b61400f8482856150d0565b509392505050565b6000813590506140268161547d565b92915050565b60008151905061403b8161547d565b92915050565b60008151905061405081615494565b92915050565b600082601f83011261406757600080fd5b8151614077848260208601613e95565b91505092915050565b600082601f83011261409157600080fd5b81356140a1848260208601613f01565b91505092915050565b600082601f8301126140bb57600080fd5b81516140cb848260208601613f6d565b91505092915050565b6000813590506140e3816154ab565b92915050565b600082601f8301126140fa57600080fd5b813561410a848260208601613fd9565b91505092915050565b600081359050614122816154c2565b92915050565b60006060828403121561413a57600080fd5b6141446060614af5565b905060006141548482850161419d565b60008301525060206141688482850161419d565b602083015250604061417c8482850161419d565b60408301525092915050565b600081359050614197816154d9565b92915050565b6000815190506141ac816154d9565b92915050565b6000815190506141c1816154f0565b92915050565b6000602082840312156141d957600080fd5b60006141e784828501614017565b91505092915050565b60006020828403121561420257600080fd5b60006142108482850161402c565b91505092915050565b60006020828403121561422b57600080fd5b600061423984828501614041565b91505092915050565b6000806040838503121561425557600080fd5b600061426385828601614017565b925050602061427485828601614017565b9150509250929050565b60008060008060008060c0878903121561429757600080fd5b60006142a589828a01614017565b96505060206142b689828a01614017565b95505060406142c789828a01614017565b94505060606142d889828a01614188565b93505060806142e989828a01614188565b92505060a06142fa89828a016140d4565b9150509295509295509295565b600080600080600080600060e0888a03121561432257600080fd5b60006143308a828b01614017565b97505060206143418a828b01614017565b96505060406143528a828b01614017565b95505060606143638a828b01614188565b94505060806143748a828b01614188565b93505060a06143858a828b01614188565b92505060c06143968a828b01614188565b91505092959891949750929550565b6000806000606084860312156143ba57600080fd5b60006143c886828701614017565b93505060206143d986828701614017565b92505060406143ea86828701614188565b9150509250925092565b6000806040838503121561440757600080fd5b600061441585828601614017565b925050602083013567ffffffffffffffff81111561443257600080fd5b61443e858286016140e9565b9150509250929050565b60006020828403121561445a57600080fd5b600082015167ffffffffffffffff81111561447457600080fd5b61448084828501614056565b91505092915050565b6000806040838503121561449c57600080fd5b600083015167ffffffffffffffff8111156144b657600080fd5b6144c2858286016140aa565b925050602083015167ffffffffffffffff8111156144df57600080fd5b6144eb85828601614056565b9150509250929050565b60008060006060848603121561450a57600080fd5b600084013567ffffffffffffffff81111561452457600080fd5b61453086828701614080565b935050602061454186828701614113565b925050604061455286828701614113565b9150509250925092565b60006060828403121561456e57600080fd5b600061457c84828501614128565b91505092915050565b60006020828403121561459757600080fd5b60006145a58482850161419d565b91505092915050565b6000806000606084860312156145c357600080fd5b60006145d186828701614188565b93505060206145e286828701614188565b92505060406145f386828701614188565b9150509250925092565b60006020828403121561460f57600080fd5b600061461d848285016141b2565b91505092915050565b60006146328383614656565b60208301905092915050565b600061464a838361487b565b60208301905092915050565b61465f8161505f565b82525050565b61466e8161505f565b82525050565b600061467f82614bc3565b6146898185614c09565b935061469483614ba3565b8060005b838110156146c55781516146ac8882614626565b97506146b783614bef565b925050600181019050614698565b5085935050505092915050565b60006146dd82614bce565b6146e78185614c1a565b93506146f283614bb3565b8060005b8381101561472357815161470a888261463e565b975061471583614bfc565b9250506001810190506146f6565b5085935050505092915050565b61473981615083565b82525050565b600061474a82614bd9565b6147548185614c2b565b93506147648185602086016150df565b80840191505092915050565b600061477b82614be4565b6147858185614c36565b93506147958185602086016150df565b61479e816152ab565b840191505092915050565b60006147b6602f83614c36565b91506147c1826152c9565b604082019050919050565b60006147d9602683614c36565b91506147e482615318565b604082019050919050565b60006147fc602e83614c36565b915061480782615367565b604082019050919050565b600061481f602d83614c36565b915061482a826153b6565b604082019050919050565b6000614842602083614c36565b915061484d82615405565b602082019050919050565b6000614865602683614c36565b91506148708261542e565b604082019050919050565b614884816150b9565b82525050565b614893816150b9565b82525050565b60006148a5828461473f565b915081905092915050565b60006020820190506148c56000830184614665565b92915050565b60006040820190506148e06000830185614665565b6148ed6020830184614665565b9392505050565b60006060820190506149096000830186614665565b6149166020830185614665565b6149236040830184614665565b949350505050565b600060208201905081810360008301526149458184614674565b905092915050565b600060608201905081810360008301526149678186614674565b9050818103602083015261497b81856146d2565b905061498a6040830184614730565b949350505050565b600060208201905081810360008301526149ac81846146d2565b905092915050565b60006020820190506149c96000830184614730565b92915050565b600060208201905081810360008301526149e98184614770565b905092915050565b60006020820190508181036000830152614a0a816147a9565b9050919050565b60006020820190508181036000830152614a2a816147cc565b9050919050565b60006020820190508181036000830152614a4a816147ef565b9050919050565b60006020820190508181036000830152614a6a81614812565b9050919050565b60006020820190508181036000830152614a8a81614835565b9050919050565b60006020820190508181036000830152614aaa81614858565b9050919050565b6000602082019050614ac6600083018461488a565b92915050565b6000604082019050614ae1600083018561488a565b614aee602083018461488a565b9392505050565b6000614aff614b10565b9050614b0b828261515b565b919050565b6000604051905090565b600067ffffffffffffffff821115614b3557614b3461527c565b5b602082029050602081019050919050565b600067ffffffffffffffff821115614b6157614b6061527c565b5b602082029050602081019050919050565b600067ffffffffffffffff821115614b8d57614b8c61527c565b5b614b96826152ab565b9050602081019050919050565b6000819050602082019050919050565b6000819050602082019050919050565b600081519050919050565b600081519050919050565b600081519050919050565b600081519050919050565b6000602082019050919050565b6000602082019050919050565b600082825260208201905092915050565b600082825260208201905092915050565b600081905092915050565b600082825260208201905092915050565b6000614c528261508f565b9150614c5d8361508f565b9250817f7fffffffffffffffffffffffffffffffffffffffffffffffffffffffffffffff03831360008312151615614c9857614c9761521e565b5b817f8000000000000000000000000000000000000000000000000000000000000000038312600083121615614cd057614ccf61521e565b5b828201905092915050565b6000614ce6826150b9565b9150614cf1836150b9565b9250827fffffffffffffffffffffffffffffffffffffffffffffffffffffffffffffffff03821115614d2657614d2561521e565b5b828201905092915050565b6000614d3c8261508f565b9150614d478361508f565b925082614d5757614d5661524d565b5b600160000383147f800000000000000000000000000000000000000000000000000000000000000083141615614d9057614d8f61521e565b5b828205905092915050565b6000614da6826150b9565b9150614db1836150b9565b925082614dc157614dc061524d565b5b828204905092915050565b6000808291508390505b6001851115614e1657808604811115614df257614df161521e565b5b6001851615614e015780820291505b8081029050614e0f856152bc565b9450614dd6565b94509492505050565b6000614e2a826150b9565b9150614e35836150b9565b9250614e627fffffffffffffffffffffffffffffffffffffffffffffffffffffffffffffffff8484614e6a565b905092915050565b600082614e7a5760019050614f36565b81614e885760009050614f36565b8160018114614e9e5760028114614ea857614ed7565b6001915050614f36565b60ff841115614eba57614eb961521e565b5b8360020a915084821115614ed157614ed061521e565b5b50614f36565b5060208310610133831016604e8410600b8410161715614f0c5782820a905083811115614f0757614f0661521e565b5b614f36565b614f198484846001614dcc565b92509050818404811115614f3057614f2f61521e565b5b81810290505b9392505050565b6000614f48826150b9565b9150614f53836150b9565b9250817fffffffffffffffffffffffffffffffffffffffffffffffffffffffffffffffff0483118215151615614f8c57614f8b61521e565b5b828202905092915050565b6000614fa28261508f565b9150614fad8361508f565b9250827f800000000000000000000000000000000000000000000000000000000000000001821260008412151615614fe857614fe761521e565b5b827f7fffffffffffffffffffffffffffffffffffffffffffffffffffffffffffffff0182136000841216156150205761501f61521e565b5b828203905092915050565b6000615036826150b9565b9150615041836150b9565b9250828210156150545761505361521e565b5b828203905092915050565b600061506a82615099565b9050919050565b600061507c82615099565b9050919050565b60008115159050919050565b6000819050919050565b600073ffffffffffffffffffffffffffffffffffffffff82169050919050565b6000819050919050565b600060ff82169050919050565b82818337600083830152505050565b60005b838110156150fd5780820151818401526020810190506150e2565b8381111561510c576000848401525b50505050565b600061511d8261508f565b91507f80000000000000000000000000000000000000000000000000000000000000008214156151505761514f61521e565b5b600182039050919050565b615164826152ab565b810181811067ffffffffffffffff821117156151835761518261527c565b5b80604052505050565b60006151978261508f565b91507f7fffffffffffffffffffffffffffffffffffffffffffffffffffffffffffffff8214156151ca576151c961521e565b5b600182019050919050565b60006151e0826150b9565b91507fffffffffffffffffffffffffffffffffffffffffffffffffffffffffffffffff8214156152135761521261521e565b5b600182019050919050565b7f4e487b7100000000000000000000000000000000000000000000000000000000600052601160045260246000fd5b7f4e487b7100000000000000000000000000000000000000000000000000000000600052601260045260246000fd5b7f4e487b7100000000000000000000000000000000000000000000000000000000600052604160045260246000fd5b6000601f19601f8301169050919050565b60008160011c9050919050565b7f45524331393637557067726164653a207570677261646520627265616b73206660008201527f7572746865722075706772616465730000000000000000000000000000000000602082015250565b7f4f776e61626c653a206e6577206f776e657220697320746865207a65726f206160008201527f6464726573730000000000000000000000000000000000000000000000000000602082015250565b7f496e697469616c697a61626c653a20636f6e747261637420697320616c72656160008201527f647920696e697469616c697a6564000000000000000000000000000000000000602082015250565b7f455243313936373a206e657720696d706c656d656e746174696f6e206973206e60008201527f6f74206120636f6e747261637400000000000000000000000000000000000000602082015250565b7f4f776e61626c653a2063616c6c6572206973206e6f7420746865206f776e6572600082015250565b7f416464726573733a2064656c65676174652063616c6c20746f206e6f6e2d636f60008201527f6e74726163740000000000000000000000000000000000000000000000000000602082015250565b6154868161505f565b811461549157600080fd5b50565b61549d81615071565b81146154a857600080fd5b50565b6154b481615083565b81146154bf57600080fd5b50565b6154cb8161508f565b81146154d657600080fd5b50565b6154e2816150b9565b81146154ed57600080fd5b50565b6154f9816150c3565b811461550457600080fd5b5056fe416464726573733a206c6f772d6c6576656c2064656c65676174652063616c6c206661696c6564a2646970667358221220ead58cdd91d9930540abd11200c57122e74f8cc3a87f62ea7a1219ca0d78586a64736f6c63430008030033",
  "linkReferences": {},
  "deployedLinkReferences": {}
}