{
  "_format": "hh-sol-artifact-1",
  "contractName": "VaultLibrary",
  "sourceName": "contracts/Bank/VaultLibrary.sol",
  "abi": [
    {
      "anonymous": false,
      "inputs": [
        {
          "indexed": false,
          "internalType": "address",
          "name": "previousAdmin",
          "type": "address"
        },
        {
          "indexed": false,
          "internalType": "address",
          "name": "newAdmin",
          "type": "address"
        }
      ],
      "name": "AdminChanged",
      "type": "event"
    },
    {
      "anonymous": false,
      "inputs": [
        {
          "indexed": true,
          "internalType": "address",
          "name": "beacon",
          "type": "address"
        }
      ],
      "name": "BeaconUpgraded",
      "type": "event"
    },
    {
      "anonymous": false,
      "inputs": [
        {
          "indexed": true,
          "internalType": "address",
          "name": "previousOwner",
          "type": "address"
        },
        {
          "indexed": true,
          "internalType": "address",
          "name": "newOwner",
          "type": "address"
        }
      ],
      "name": "OwnershipTransferred",
      "type": "event"
    },
    {
      "anonymous": false,
      "inputs": [
        {
          "indexed": true,
          "internalType": "address",
          "name": "implementation",
          "type": "address"
        }
      ],
      "name": "Upgraded",
      "type": "event"
    },
    {
      "inputs": [
        {
          "internalType": "address",
          "name": "account",
          "type": "address"
        },
        {
          "internalType": "address",
          "name": "fxToken",
          "type": "address"
        }
      ],
      "name": "calculateInterest",
      "outputs": [
        {
          "internalType": "uint256",
          "name": "interest",
          "type": "uint256"
        }
      ],
      "stateMutability": "view",
      "type": "function"
    },
    {
      "inputs": [
        {
          "internalType": "address",
          "name": "account",
          "type": "address"
        },
        {
          "internalType": "address",
          "name": "fxToken",
          "type": "address"
        },
        {
          "internalType": "address",
          "name": "collateralToken",
          "type": "address"
        },
        {
          "internalType": "uint256",
          "name": "collateralAmount",
          "type": "uint256"
        },
        {
          "internalType": "uint256",
          "name": "tokenAmount",
          "type": "uint256"
        },
        {
          "internalType": "uint256",
          "name": "fxQuote",
          "type": "uint256"
        },
        {
          "internalType": "uint256",
          "name": "collateralQuote",
          "type": "uint256"
        }
      ],
      "name": "canMint",
      "outputs": [
        {
          "internalType": "bool",
          "name": "",
          "type": "bool"
        }
      ],
      "stateMutability": "view",
      "type": "function"
    },
    {
      "inputs": [
        {
          "internalType": "address",
          "name": "account",
          "type": "address"
        },
        {
          "internalType": "address",
          "name": "fxToken",
          "type": "address"
        }
      ],
      "name": "doesMeetRatio",
      "outputs": [
        {
          "internalType": "bool",
          "name": "",
          "type": "bool"
        }
      ],
      "stateMutability": "view",
      "type": "function"
    },
    {
      "inputs": [
        {
          "internalType": "uint256",
          "name": "amount",
          "type": "uint256"
        },
        {
          "internalType": "address",
          "name": "token",
          "type": "address"
        },
        {
          "internalType": "address",
          "name": "from",
          "type": "address"
        }
      ],
      "name": "getAllowedBuyCollateralFromTokenAmount",
      "outputs": [
        {
          "internalType": "uint256",
          "name": "allowedAmount",
          "type": "uint256"
        }
      ],
      "stateMutability": "view",
      "type": "function"
    },
    {
      "inputs": [
        {
          "internalType": "address",
          "name": "account",
          "type": "address"
        },
        {
          "internalType": "address",
          "name": "fxToken",
          "type": "address"
        },
        {
          "internalType": "uint256",
          "name": "amountEth",
          "type": "uint256"
        }
      ],
      "name": "getCollateralForAmount",
      "outputs": [
        {
          "internalType": "address[]",
          "name": "collateralTypes",
          "type": "address[]"
        },
        {
          "internalType": "uint256[]",
          "name": "collateralAmounts",
          "type": "uint256[]"
        },
        {
          "internalType": "bool",
          "name": "metAmount",
          "type": "bool"
        }
      ],
      "stateMutability": "view",
      "type": "function"
    },
    {
      "inputs": [
        {
          "internalType": "address",
          "name": "account",
          "type": "address"
        },
        {
          "internalType": "address",
          "name": "fxToken",
          "type": "address"
        }
      ],
      "name": "getCollateralShares",
      "outputs": [
        {
          "internalType": "uint256[]",
          "name": "shares",
          "type": "uint256[]"
        }
      ],
      "stateMutability": "view",
      "type": "function"
    },
    {
      "inputs": [],
      "name": "getCollateralTypesSortedByLiquidationRank",
      "outputs": [
        {
          "internalType": "address[]",
          "name": "sortedCollateralTypes",
          "type": "address[]"
        }
      ],
      "stateMutability": "view",
      "type": "function"
    },
    {
      "inputs": [
        {
          "internalType": "address",
          "name": "account",
          "type": "address"
        },
        {
          "internalType": "address",
          "name": "fxToken",
          "type": "address"
        }
      ],
      "name": "getCurrentRatio",
      "outputs": [
        {
          "internalType": "uint256",
          "name": "ratio",
          "type": "uint256"
        }
      ],
      "stateMutability": "view",
      "type": "function"
    },
    {
      "inputs": [
        {
          "internalType": "address",
          "name": "account",
          "type": "address"
        },
        {
          "internalType": "address",
          "name": "fxToken",
          "type": "address"
        }
      ],
      "name": "getDebtAsEth",
      "outputs": [
        {
          "internalType": "uint256",
          "name": "debt",
          "type": "uint256"
        }
      ],
      "stateMutability": "view",
      "type": "function"
    },
    {
      "inputs": [
        {
          "internalType": "address",
          "name": "account",
          "type": "address"
        },
        {
          "internalType": "address",
          "name": "fxToken",
          "type": "address"
        }
      ],
      "name": "getFreeCollateralAsEth",
      "outputs": [
        {
          "internalType": "uint256",
          "name": "",
          "type": "uint256"
        }
      ],
      "stateMutability": "view",
      "type": "function"
    },
    {
      "inputs": [
        {
          "internalType": "address",
          "name": "account",
          "type": "address"
        },
        {
          "internalType": "address",
          "name": "fxToken",
          "type": "address"
        },
        {
          "internalType": "uint256",
          "name": "minimumRatio",
          "type": "uint256"
        }
      ],
      "name": "getFreeCollateralAsEthFromMinimumRatio",
      "outputs": [
        {
          "internalType": "uint256",
          "name": "",
          "type": "uint256"
        }
      ],
      "stateMutability": "view",
      "type": "function"
    },
    {
      "inputs": [
        {
          "internalType": "address",
          "name": "account",
          "type": "address"
        },
        {
          "internalType": "address",
          "name": "fxToken",
          "type": "address"
        }
      ],
      "name": "getInterestRate",
      "outputs": [
        {
          "internalType": "uint256",
          "name": "",
          "type": "uint256"
        }
      ],
      "stateMutability": "view",
      "type": "function"
    },
    {
      "inputs": [
        {
          "internalType": "address",
          "name": "account",
          "type": "address"
        },
        {
          "internalType": "address",
          "name": "fxToken",
          "type": "address"
        }
      ],
      "name": "getLiquidationFee",
      "outputs": [
        {
          "internalType": "uint256",
          "name": "fee",
          "type": "uint256"
        }
      ],
      "stateMutability": "view",
      "type": "function"
    },
    {
      "inputs": [
        {
          "internalType": "uint256",
          "name": "tokenAmount",
          "type": "uint256"
        },
        {
          "internalType": "uint256",
          "name": "ratio",
          "type": "uint256"
        },
        {
          "internalType": "uint256",
          "name": "unitPrice",
          "type": "uint256"
        }
      ],
      "name": "getMinimumCollateral",
      "outputs": [
        {
          "internalType": "uint256",
          "name": "minimum",
          "type": "uint256"
        }
      ],
      "stateMutability": "pure",
      "type": "function"
    },
    {
      "inputs": [
        {
          "internalType": "address",
          "name": "account",
          "type": "address"
        },
        {
          "internalType": "address",
          "name": "fxToken",
          "type": "address"
        }
      ],
      "name": "getMinimumRatio",
      "outputs": [
        {
          "internalType": "uint256",
          "name": "ratio",
          "type": "uint256"
        }
      ],
      "stateMutability": "view",
      "type": "function"
    },
    {
      "inputs": [
        {
          "internalType": "address",
          "name": "account",
          "type": "address"
        },
        {
          "internalType": "address",
          "name": "fxToken",
          "type": "address"
        },
        {
          "internalType": "address",
          "name": "collateralToken",
          "type": "address"
        },
        {
          "internalType": "uint256",
          "name": "collateralAmount",
          "type": "uint256"
        },
        {
          "internalType": "uint256",
          "name": "collateralQuote",
          "type": "uint256"
        },
        {
          "internalType": "bool",
          "name": "isDeposit",
          "type": "bool"
        }
      ],
      "name": "getNewMinimumRatio",
      "outputs": [
        {
          "internalType": "uint256",
          "name": "ratio",
          "type": "uint256"
        },
        {
          "internalType": "uint256",
          "name": "newCollateralAsEther",
          "type": "uint256"
        }
      ],
      "stateMutability": "view",
      "type": "function"
    },
    {
      "inputs": [
        {
          "internalType": "address",
          "name": "account",
          "type": "address"
        },
        {
          "internalType": "address",
          "name": "fxToken",
          "type": "address"
        }
      ],
      "name": "getTotalCollateralBalanceAsEth",
      "outputs": [
        {
          "internalType": "uint256",
          "name": "balance",
          "type": "uint256"
        }
      ],
      "stateMutability": "view",
      "type": "function"
    },
    {
      "inputs": [],
      "name": "handleAddress",
      "outputs": [
        {
          "internalType": "address",
          "name": "",
          "type": "address"
        }
      ],
      "stateMutability": "view",
      "type": "function"
    },
    {
      "inputs": [],
      "name": "initialize",
      "outputs": [],
      "stateMutability": "nonpayable",
      "type": "function"
    },
    {
      "inputs": [],
      "name": "owner",
      "outputs": [
        {
          "internalType": "address",
          "name": "",
          "type": "address"
        }
      ],
      "stateMutability": "view",
      "type": "function"
    },
    {
      "inputs": [
        {
          "internalType": "uint256[]",
          "name": "array",
          "type": "uint256[]"
        },
        {
          "internalType": "int256",
          "name": "left",
          "type": "int256"
        },
        {
          "internalType": "int256",
          "name": "right",
          "type": "int256"
        }
      ],
      "name": "quickSort",
      "outputs": [],
      "stateMutability": "pure",
      "type": "function"
    },
    {
      "inputs": [],
      "name": "renounceOwnership",
      "outputs": [],
      "stateMutability": "nonpayable",
      "type": "function"
    },
    {
      "inputs": [
        {
          "internalType": "address",
          "name": "_handle",
          "type": "address"
        }
      ],
      "name": "setHandleContract",
      "outputs": [],
      "stateMutability": "nonpayable",
      "type": "function"
    },
    {
      "inputs": [
        {
          "internalType": "uint256",
          "name": "crTarget",
          "type": "uint256"
        },
        {
          "internalType": "uint256",
          "name": "debt",
          "type": "uint256"
        },
        {
          "internalType": "uint256",
          "name": "collateral",
          "type": "uint256"
        }
      ],
      "name": "tokensRequiredForCrIncrease",
      "outputs": [
        {
          "internalType": "uint256",
          "name": "amount",
          "type": "uint256"
        }
      ],
      "stateMutability": "pure",
      "type": "function"
    },
    {
      "inputs": [
        {
          "internalType": "address",
          "name": "newOwner",
          "type": "address"
        }
      ],
      "name": "transferOwnership",
      "outputs": [],
      "stateMutability": "nonpayable",
      "type": "function"
    },
    {
      "inputs": [
        {
          "internalType": "address",
          "name": "newImplementation",
          "type": "address"
        }
      ],
      "name": "upgradeTo",
      "outputs": [],
      "stateMutability": "nonpayable",
      "type": "function"
    },
    {
      "inputs": [
        {
          "internalType": "address",
          "name": "newImplementation",
          "type": "address"
        },
        {
          "internalType": "bytes",
          "name": "data",
          "type": "bytes"
        }
      ],
      "name": "upgradeToAndCall",
      "outputs": [],
      "stateMutability": "payable",
      "type": "function"
    }
  ],
  "bytecode": "0x608060405234801561001057600080fd5b506153f0806100206000396000f3fe60806040526004361061019c5760003560e01c80638da5cb5b116100ec578063c4d7b8b81161008a578063e279962311610064578063e279962314610640578063e76ab2391461067d578063f2fde38b146106ba578063f37cd50d146106e35761019c565b8063c4d7b8b81461059b578063cad57631146105c6578063db3fabeb146106035761019c565b80639b1c414f116100c65780639b1c414f146104ba5780639e718d07146104e3578063bc0c63db14610520578063bcbe3f221461055e5761019c565b80638da5cb5b146104155780638dac8d131461044057806397ae19741461047d5761019c565b80634f1ef28611610159578063715018a611610133578063715018a61461037f57806374bf578b146103965780638129fc1c146103c157806387092940146103d85761019c565b80634f1ef286146102e95780635a763fbb1461030557806364d321b7146103425761019c565b80630a06fc3c146101a157806312ffb678146101ca578063234ab3e2146102075780633659cfe61461024657806349cf9cce1461026f5780634c90f229146102ac575b600080fd5b3480156101ad57600080fd5b506101c860048036038101906101c39190614425565b610720565b005b3480156101d657600080fd5b506101f160048036038101906101ec91906141de565b6109c6565b6040516101fe9190614a8d565b60405180910390f35b34801561021357600080fd5b5061022e60048036038101906102299190614341565b610df3565b60405161023d939291906148e9565b60405180910390f35b34801561025257600080fd5b5061026d60048036038101906102689190614163565b6111e0565b005b34801561027b57600080fd5b50610296600480360381019061029191906141de565b611207565b6040516102a3919061492e565b60405180910390f35b3480156102b857600080fd5b506102d360048036038101906102ce91906141de565b6115f2565b6040516102e09190614a8d565b60405180910390f35b61030360048036038101906102fe9190614390565b6118ec565b005b34801561031157600080fd5b5061032c600480360381019061032791906141de565b611905565b6040516103399190614a8d565b60405180910390f35b34801561034e57600080fd5b50610369600480360381019061036491906141de565b611966565b6040516103769190614a8d565b60405180910390f35b34801561038b57600080fd5b50610394611bb4565b005b3480156103a257600080fd5b506103ab611cf1565b6040516103b8919061484c565b60405180910390f35b3480156103cd57600080fd5b506103d6611d1b565b005b3480156103e457600080fd5b506103ff60048036038101906103fa91906141de565b611dfc565b60405161040c9190614a8d565b60405180910390f35b34801561042157600080fd5b5061042a611fd3565b604051610437919061484c565b60405180910390f35b34801561044c57600080fd5b50610467600480360381019061046291906144de565b611ffd565b6040516104749190614a8d565b60405180910390f35b34801561048957600080fd5b506104a4600480360381019061049f919061452d565b6121dc565b6040516104b19190614a8d565b60405180910390f35b3480156104c657600080fd5b506104e160048036038101906104dc9190614163565b6122a8565b005b3480156104ef57600080fd5b5061050a6004803603810190610505919061452d565b612528565b6040516105179190614a8d565b60405180910390f35b34801561052c57600080fd5b506105476004803603810190610542919061421a565b61258c565b604051610555929190614aa8565b60405180910390f35b34801561056a57600080fd5b50610585600480360381019061058091906141de565b6127ee565b6040516105929190614a8d565b60405180910390f35b3480156105a757600080fd5b506105b0612a64565b6040516105bd91906148c7565b60405180910390f35b3480156105d257600080fd5b506105ed60048036038101906105e89190614341565b613150565b6040516105fa9190614a8d565b60405180910390f35b34801561060f57600080fd5b5061062a600480360381019061062591906141de565b6131dd565b6040516106379190614a8d565b60405180910390f35b34801561064c57600080fd5b50610667600480360381019061066291906142a3565b61336a565b6040516106749190614950565b60405180910390f35b34801561068957600080fd5b506106a4600480360381019061069f91906141de565b613408565b6040516106b19190614a8d565b60405180910390f35b3480156106c657600080fd5b506106e160048036038101906106dc9190614163565b613426565b005b3480156106ef57600080fd5b5061070a600480360381019061070591906141de565b6135d2565b6040516107179190614950565b60405180910390f35b60008290506000829050808214156107395750506109c1565b6000856002868661074a9190614e02565b6107549190614d0d565b8661075f9190614c23565b81518110610796577f4e487b7100000000000000000000000000000000000000000000000000000000600052603260045260246000fd5b602002602001015190505b818313610995575b808684815181106107e3577f4e487b7100000000000000000000000000000000000000000000000000000000600052603260045260246000fd5b602002602001015110156108045782806107fc90614fea565b9350506107a9565b5b85828151811061083e577f4e487b7100000000000000000000000000000000000000000000000000000000600052603260045260246000fd5b602002602001015181101561086057818061085890614f70565b925050610805565b818313610990578582815181106108a0577f4e487b7100000000000000000000000000000000000000000000000000000000600052603260045260246000fd5b60200260200101518684815181106108e1577f4e487b7100000000000000000000000000000000000000000000000000000000600052603260045260246000fd5b6020026020010151878581518110610922577f4e487b7100000000000000000000000000000000000000000000000000000000600052603260045260246000fd5b60200260200101888581518110610962577f4e487b7100000000000000000000000000000000000000000000000000000000600052603260045260246000fd5b6020026020010182815250828152505050828061097e90614fea565b935050818061098c90614f70565b9250505b6107a1565b818512156109a9576109a8868684610720565b5b838312156109bd576109bc868486610720565b5b5050505b505050565b60008060c960009054906101000a900473ffffffffffffffffffffffffffffffffffffffff1673ffffffffffffffffffffffffffffffffffffffff1663294d499e6040518163ffffffff1660e01b815260040160006040518083038186803b158015610a3157600080fd5b505afa158015610a45573d6000803e3d6000fd5b505050506040513d6000823e3d601f19601f82011682018060405250810190610a6e91906143e4565b90506000610a7c85856115f2565b90506000811415610a9257600092505050610ded565b6000808351905060005b81811015610de4576000610cab670de0b6b3a7640000610c9d60c960009054906101000a900473ffffffffffffffffffffffffffffffffffffffff1673ffffffffffffffffffffffffffffffffffffffff1663d02641a08a8781518110610b2c577f4e487b7100000000000000000000000000000000000000000000000000000000600052603260045260246000fd5b60200260200101516040518263ffffffff1660e01b8152600401610b50919061484c565b60206040518083038186803b158015610b6857600080fd5b505afa158015610b7c573d6000803e3d6000fd5b505050506040513d601f19601f82011682018060405250810190610ba091906144b5565b60c960009054906101000a900473ffffffffffffffffffffffffffffffffffffffff1673ffffffffffffffffffffffffffffffffffffffff1663c462b5208e8c8981518110610c18577f4e487b7100000000000000000000000000000000000000000000000000000000600052603260045260246000fd5b60200260200101518f6040518463ffffffff1660e01b8152600401610c3f93929190614890565b60206040518083038186803b158015610c5757600080fd5b505afa158015610c6b573d6000803e3d6000fd5b505050506040513d601f19601f82011682018060405250810190610c8f91906144b5565b61363790919063ffffffff16565b61364d90919063ffffffff16565b9050610dce610dbf86610db18460c960009054906101000a900473ffffffffffffffffffffffffffffffffffffffff1673ffffffffffffffffffffffffffffffffffffffff16637c2c69c08c8981518110610d2f577f4e487b7100000000000000000000000000000000000000000000000000000000600052603260045260246000fd5b60200260200101516040518263ffffffff1660e01b8152600401610d53919061484c565b60206040518083038186803b158015610d6b57600080fd5b505afa158015610d7f573d6000803e3d6000fd5b505050506040513d601f19601f82011682018060405250810190610da391906144b5565b61363790919063ffffffff16565b61364d90919063ffffffff16565b8561366390919063ffffffff16565b9350508080610ddc90615033565b915050610a9c565b50819450505050505b92915050565b6060806000610e00612a64565b92506000835190508067ffffffffffffffff811115610e48577f4e487b7100000000000000000000000000000000000000000000000000000000600052604160045260246000fd5b604051908082528060200260200182016040528015610e765781602001602082028036833780820191505090505b5092506000805b828110156111cf57600060c960009054906101000a900473ffffffffffffffffffffffffffffffffffffffff1673ffffffffffffffffffffffffffffffffffffffff1663c462b5208b898581518110610eff577f4e487b7100000000000000000000000000000000000000000000000000000000600052603260045260246000fd5b60200260200101518c6040518463ffffffff1660e01b8152600401610f2693929190614890565b60206040518083038186803b158015610f3e57600080fd5b505afa158015610f52573d6000803e3d6000fd5b505050506040513d601f19601f82011682018060405250810190610f7691906144b5565b9050600060c960009054906101000a900473ffffffffffffffffffffffffffffffffffffffff1673ffffffffffffffffffffffffffffffffffffffff1663d02641a0898581518110610ff1577f4e487b7100000000000000000000000000000000000000000000000000000000600052603260045260246000fd5b60200260200101516040518263ffffffff1660e01b8152600401611015919061484c565b60206040518083038186803b15801561102d57600080fd5b505afa158015611041573d6000803e3d6000fd5b505050506040513d601f19601f8201168201806040525081019061106591906144b5565b90506000611096670de0b6b3a7640000611088858561363790919063ffffffff16565b61364d90919063ffffffff16565b9050896110ac828761366390919063ffffffff16565b101561111557828885815181106110ec577f4e487b7100000000000000000000000000000000000000000000000000000000600052603260045260246000fd5b60200260200101818152505061110b818661366390919063ffffffff16565b94505050506111bc565b600061112a868c61367990919063ffffffff16565b90506111598361114b670de0b6b3a76400008461363790919063ffffffff16565b61364d90919063ffffffff16565b898681518110611192577f4e487b7100000000000000000000000000000000000000000000000000000000600052603260045260246000fd5b6020026020010181815250506111b1818761366390919063ffffffff16565b9550505050506111cf565b80806111c790615033565b915050610e7d565b508581149250505093509350939050565b6111e98161368f565b6112048160405180602001604052806000815250600061370e565b50565b6060600060c960009054906101000a900473ffffffffffffffffffffffffffffffffffffffff1673ffffffffffffffffffffffffffffffffffffffff1663294d499e6040518163ffffffff1660e01b815260040160006040518083038186803b15801561127357600080fd5b505afa158015611287573d6000803e3d6000fd5b505050506040513d6000823e3d601f19601f820116820180604052508101906112b091906143e4565b90506000815190508067ffffffffffffffff8111156112f8577f4e487b7100000000000000000000000000000000000000000000000000000000600052604160045260246000fd5b6040519080825280602002602001820160405280156113265781602001602082028036833780820191505090505b509250600061133586866115f2565b90506000811415611348575050506115ec565b60008060005b848110156115e55760c960009054906101000a900473ffffffffffffffffffffffffffffffffffffffff1673ffffffffffffffffffffffffffffffffffffffff1663c462b5208a8884815181106113ce577f4e487b7100000000000000000000000000000000000000000000000000000000600052603260045260246000fd5b60200260200101518b6040518463ffffffff1660e01b81526004016113f593929190614890565b60206040518083038186803b15801561140d57600080fd5b505afa158015611421573d6000803e3d6000fd5b505050506040513d601f19601f8201168201806040525081019061144591906144b5565b925061155e670de0b6b3a76400006115508560c960009054906101000a900473ffffffffffffffffffffffffffffffffffffffff1673ffffffffffffffffffffffffffffffffffffffff1663d02641a08b87815181106114ce577f4e487b7100000000000000000000000000000000000000000000000000000000600052603260045260246000fd5b60200260200101516040518263ffffffff1660e01b81526004016114f2919061484c565b60206040518083038186803b15801561150a57600080fd5b505afa15801561151e573d6000803e3d6000fd5b505050506040513d601f19601f8201168201806040525081019061154291906144b5565b61363790919063ffffffff16565b61364d90919063ffffffff16565b915061158d8461157f670de0b6b3a76400008561363790919063ffffffff16565b61364d90919063ffffffff16565b8782815181106115c6577f4e487b7100000000000000000000000000000000000000000000000000000000600052603260045260246000fd5b60200260200101818152505080806115dd90615033565b91505061134e565b5050505050505b92915050565b60008060c960009054906101000a900473ffffffffffffffffffffffffffffffffffffffff1673ffffffffffffffffffffffffffffffffffffffff1663294d499e6040518163ffffffff1660e01b815260040160006040518083038186803b15801561165d57600080fd5b505afa158015611671573d6000803e3d6000fd5b505050506040513d6000823e3d601f19601f8201168201806040525081019061169a91906143e4565b90506000915060008151905060005b818110156118e35760006118b8670de0b6b3a76400006118aa60c960009054906101000a900473ffffffffffffffffffffffffffffffffffffffff1673ffffffffffffffffffffffffffffffffffffffff1663d02641a0888781518110611739577f4e487b7100000000000000000000000000000000000000000000000000000000600052603260045260246000fd5b60200260200101516040518263ffffffff1660e01b815260040161175d919061484c565b60206040518083038186803b15801561177557600080fd5b505afa158015611789573d6000803e3d6000fd5b505050506040513d601f19601f820116820180604052508101906117ad91906144b5565b60c960009054906101000a900473ffffffffffffffffffffffffffffffffffffffff1673ffffffffffffffffffffffffffffffffffffffff1663c462b5208c8a8981518110611825577f4e487b7100000000000000000000000000000000000000000000000000000000600052603260045260246000fd5b60200260200101518d6040518463ffffffff1660e01b815260040161184c93929190614890565b60206040518083038186803b15801561186457600080fd5b505afa158015611878573d6000803e3d6000fd5b505050506040513d601f19601f8201168201806040525081019061189c91906144b5565b61363790919063ffffffff16565b61364d90919063ffffffff16565b90506118cd818661366390919063ffffffff16565b94505080806118db90615033565b9150506116a9565b50505092915050565b6118f58261368f565b6119018282600161370e565b5050565b60008061191284846131dd565b90506000811415611927576000915050611960565b600061193385856115f2565b905061195b8261194d60648461363790919063ffffffff16565b61364d90919063ffffffff16565b925050505b92915050565b60008060c960009054906101000a900473ffffffffffffffffffffffffffffffffffffffff1673ffffffffffffffffffffffffffffffffffffffff1663294d499e6040518163ffffffff1660e01b815260040160006040518083038186803b1580156119d157600080fd5b505afa1580156119e5573d6000803e3d6000fd5b505050506040513d6000823e3d601f19601f82011682018060405250810190611a0e91906143e4565b90506000611a1c8585611207565b905060008251905060005b81811015611baa57611b95611b86612710611b78868581518110611a74577f4e487b7100000000000000000000000000000000000000000000000000000000600052603260045260246000fd5b602002602001015160c960009054906101000a900473ffffffffffffffffffffffffffffffffffffffff1673ffffffffffffffffffffffffffffffffffffffff1663bd9e52008a8881518110611af3577f4e487b7100000000000000000000000000000000000000000000000000000000600052603260045260246000fd5b60200260200101516040518263ffffffff1660e01b8152600401611b17919061484c565b604080518083038186803b158015611b2e57600080fd5b505afa158015611b42573d6000803e3d6000fd5b505050506040513d601f19601f82011682018060405250810190611b66919061448c565b6020015161363790919063ffffffff16565b61364d90919063ffffffff16565b8661366390919063ffffffff16565b94508080611ba290615033565b915050611a27565b5050505092915050565b611bbc613922565b73ffffffffffffffffffffffffffffffffffffffff16611bda611fd3565b73ffffffffffffffffffffffffffffffffffffffff1614611c30576040517f08c379a0000000000000000000000000000000000000000000000000000000008152600401611c2790614a4d565b60405180910390fd5b600073ffffffffffffffffffffffffffffffffffffffff16609760009054906101000a900473ffffffffffffffffffffffffffffffffffffffff1673ffffffffffffffffffffffffffffffffffffffff167f8be0079c531659141344cd1fd0a4f28419497f9722a3daafe3b4186f6b6457e060405160405180910390a36000609760006101000a81548173ffffffffffffffffffffffffffffffffffffffff021916908373ffffffffffffffffffffffffffffffffffffffff160217905550565b600060c960009054906101000a900473ffffffffffffffffffffffffffffffffffffffff16905090565b600060019054906101000a900460ff1680611d41575060008054906101000a900460ff16155b611d80576040517f08c379a0000000000000000000000000000000000000000000000000000000008152600401611d7790614a0d565b60405180910390fd5b60008060019054906101000a900460ff161590508015611dd0576001600060016101000a81548160ff02191690831515021790555060016000806101000a81548160ff0219169083151502179055505b611dd861392a565b8015611df95760008060016101000a81548160ff0219169083151502179055505b50565b600080611ebe60c960009054906101000a900473ffffffffffffffffffffffffffffffffffffffff1673ffffffffffffffffffffffffffffffffffffffff1663c68da11086866040518363ffffffff1660e01b8152600401611e5f929190614867565b60206040518083038186803b158015611e7757600080fd5b505afa158015611e8b573d6000803e3d6000fd5b505050506040513d601f19601f82011682018060405250810190611eaf91906144b5565b4261367990919063ffffffff16565b90506000611ecc85856109c6565b9050611fc96103e8611fbb6301e13380611fad86611f9f8760c960009054906101000a900473ffffffffffffffffffffffffffffffffffffffff1673ffffffffffffffffffffffffffffffffffffffff166339683a058e8e6040518363ffffffff1660e01b8152600401611f41929190614867565b60206040518083038186803b158015611f5957600080fd5b505afa158015611f6d573d6000803e3d6000fd5b505050506040513d601f19601f82011682018060405250810190611f9191906144b5565b61363790919063ffffffff16565b61363790919063ffffffff16565b61364d90919063ffffffff16565b61364d90919063ffffffff16565b9250505092915050565b6000609760009054906101000a900473ffffffffffffffffffffffffffffffffffffffff16905090565b60008061200a83856127ee565b9050600061201884866131dd565b9050600061202685876115f2565b90508261205683612048670de0b6b3a76400008561363790919063ffffffff16565b61364d90919063ffffffff16565b10612096576040517f08c379a000000000000000000000000000000000000000000000000000000000815260040161208d906149ed565b60405180910390fd5b60006120a28688611966565b90506120e36120d4670de0b6b3a76400006120c6858561363790919063ffffffff16565b61364d90919063ffffffff16565b8361367990919063ffffffff16565b91506120f08484846121dc565b9450600060c960009054906101000a900473ffffffffffffffffffffffffffffffffffffffff1673ffffffffffffffffffffffffffffffffffffffff1663d02641a0896040518263ffffffff1660e01b815260040161214f919061484c565b60206040518083038186803b15801561216757600080fd5b505afa15801561217b573d6000803e3d6000fd5b505050506040513d601f19601f8201168201806040525081019061219f91906144b5565b90506121ce816121c0670de0b6b3a76400008961363790919063ffffffff16565b61364d90919063ffffffff16565b955050505050509392505050565b6000670de0b6b3a76400008411612228576040517f08c379a000000000000000000000000000000000000000000000000000000000815260040161221f906149cd565b60405180910390fd5b6000612269612248670de0b6b3a76400008561363790919063ffffffff16565b61225b878761363790919063ffffffff16565b61367990919063ffffffff16565b90506000612288670de0b6b3a76400008761367990919063ffffffff16565b905061229d818361364d90919063ffffffff16565b925050509392505050565b6122b0613922565b73ffffffffffffffffffffffffffffffffffffffff166122ce611fd3565b73ffffffffffffffffffffffffffffffffffffffff1614612324576040517f08c379a000000000000000000000000000000000000000000000000000000000815260040161231b90614a4d565b60405180910390fd5b8060c960006101000a81548173ffffffffffffffffffffffffffffffffffffffff021916908373ffffffffffffffffffffffffffffffffffffffff16021790555060c960009054906101000a900473ffffffffffffffffffffffffffffffffffffffff1673ffffffffffffffffffffffffffffffffffffffff16635fe3b5676040518163ffffffff1660e01b815260040160206040518083038186803b1580156123cd57600080fd5b505afa1580156123e1573d6000803e3d6000fd5b505050506040513d601f19601f82011682018060405250810190612405919061418c565b60cb60006101000a81548173ffffffffffffffffffffffffffffffffffffffff021916908373ffffffffffffffffffffffffffffffffffffffff16021790555060c960009054906101000a900473ffffffffffffffffffffffffffffffffffffffff1673ffffffffffffffffffffffffffffffffffffffff166361d027b36040518163ffffffff1660e01b815260040160206040518083038186803b1580156124ad57600080fd5b505afa1580156124c1573d6000803e3d6000fd5b505050506040513d601f19601f820116820180604052508101906124e591906141b5565b60ca60006101000a81548173ffffffffffffffffffffffffffffffffffffffff021916908373ffffffffffffffffffffffffffffffffffffffff16021790555050565b6000612583670de0b6b3a7640000612575670de0b6b3a7640000612567876125598a8961363790919063ffffffff16565b61363790919063ffffffff16565b61364d90919063ffffffff16565b61364d90919063ffffffff16565b90509392505050565b600080600061259b89896127ee565b905060006125a98a8a6115f2565b9050846125f4576125ef6125e0670de0b6b3a76400006125d28a8a61363790919063ffffffff16565b61364d90919063ffffffff16565b8261367990919063ffffffff16565b612634565b612633612624670de0b6b3a76400006126168a8a61363790919063ffffffff16565b61364d90919063ffffffff16565b8261366390919063ffffffff16565b5b9250600060c960009054906101000a900473ffffffffffffffffffffffffffffffffffffffff1673ffffffffffffffffffffffffffffffffffffffff1663bd9e52008a6040518263ffffffff1660e01b8152600401612693919061484c565b604080518083038186803b1580156126aa57600080fd5b505afa1580156126be573d6000803e3d6000fd5b505050506040513d601f19601f820116820180604052508101906126e2919061448c565b60000151905060008314156127265761271f6064612711670de0b6b3a76400008461363790919063ffffffff16565b61364d90919063ffffffff16565b94506127e0565b600061275585612747670de0b6b3a76400008661363790919063ffffffff16565b61364d90919063ffffffff16565b90506127dc6127a1670de0b6b3a76400006127938561278586670de0b6b3a764000061367990919063ffffffff16565b61363790919063ffffffff16565b61364d90919063ffffffff16565b6127ce670de0b6b3a76400006127c0858961363790919063ffffffff16565b61364d90919063ffffffff16565b61366390919063ffffffff16565b9550505b505050965096945050505050565b60008060c960009054906101000a900473ffffffffffffffffffffffffffffffffffffffff1673ffffffffffffffffffffffffffffffffffffffff1663294d499e6040518163ffffffff1660e01b815260040160006040518083038186803b15801561285957600080fd5b505afa15801561286d573d6000803e3d6000fd5b505050506040513d6000823e3d601f19601f8201168201806040525081019061289691906143e4565b905060006128a48585611207565b905060008251905060005b81811015612a4457612a2f612a206064612a128685815181106128fb577f4e487b7100000000000000000000000000000000000000000000000000000000600052603260045260246000fd5b6020026020010151612a04606460c960009054906101000a900473ffffffffffffffffffffffffffffffffffffffff1673ffffffffffffffffffffffffffffffffffffffff1663bd9e52008c8a8151811061297f577f4e487b7100000000000000000000000000000000000000000000000000000000600052603260045260246000fd5b60200260200101516040518263ffffffff1660e01b81526004016129a3919061484c565b604080518083038186803b1580156129ba57600080fd5b505afa1580156129ce573d6000803e3d6000fd5b505050506040513d601f19601f820116820180604052508101906129f2919061448c565b6000015161363790919063ffffffff16565b61363790919063ffffffff16565b61364d90919063ffffffff16565b8661366390919063ffffffff16565b94508080612a3c90615033565b9150506128af565b50612a5960648561364d90919063ffffffff16565b935050505092915050565b6060600060c960009054906101000a900473ffffffffffffffffffffffffffffffffffffffff1673ffffffffffffffffffffffffffffffffffffffff1663294d499e6040518163ffffffff1660e01b815260040160006040518083038186803b158015612ad057600080fd5b505afa158015612ae4573d6000803e3d6000fd5b505050506040513d6000823e3d601f19601f82011682018060405250810190612b0d91906143e4565b905060008151905060008167ffffffffffffffff811115612b57577f4e487b7100000000000000000000000000000000000000000000000000000000600052604160045260246000fd5b604051908082528060200260200182016040528015612b855781602001602082028036833780820191505090505b50905060008151905060005b81811015612cdf5760c960009054906101000a900473ffffffffffffffffffffffffffffffffffffffff1673ffffffffffffffffffffffffffffffffffffffff1663bd9e5200868381518110612c10577f4e487b7100000000000000000000000000000000000000000000000000000000600052603260045260246000fd5b60200260200101516040518263ffffffff1660e01b8152600401612c34919061484c565b604080518083038186803b158015612c4b57600080fd5b505afa158015612c5f573d6000803e3d6000fd5b505050506040513d601f19601f82011682018060405250810190612c83919061448c565b60200151838281518110612cc0577f4e487b7100000000000000000000000000000000000000000000000000000000600052603260045260246000fd5b6020026020010181815250508080612cd790615033565b915050612b91565b5060008167ffffffffffffffff811115612d22577f4e487b7100000000000000000000000000000000000000000000000000000000600052604160045260246000fd5b604051908082528060200260200182016040528015612d505781602001602082028036833780820191505090505b50905060008151905060005b81811015612dfd57848181518110612d9d577f4e487b7100000000000000000000000000000000000000000000000000000000600052603260045260246000fd5b6020026020010151838281518110612dde577f4e487b7100000000000000000000000000000000000000000000000000000000600052603260045260246000fd5b6020026020010181815250508080612df590615033565b915050612d5c565b50612e1782600060018551612e129190614e96565b610720565b60008567ffffffffffffffff811115612e59577f4e487b7100000000000000000000000000000000000000000000000000000000600052604160045260246000fd5b604051908082528060200260200182016040528015612e875781602001602082028036833780820191505090505b50905060005b82811015612f9e5760005b85811015612f8a57848281518110612ed9577f4e487b7100000000000000000000000000000000000000000000000000000000600052603260045260246000fd5b6020026020010151878281518110612f1a577f4e487b7100000000000000000000000000000000000000000000000000000000600052603260045260246000fd5b602002602001015114612f2c57612f77565b80838381518110612f66577f4e487b7100000000000000000000000000000000000000000000000000000000600052603260045260246000fd5b602002602001018181525050612f8a565b8080612f8290615033565b915050612e98565b508080612f9690615033565b915050612e8d565b508567ffffffffffffffff811115612fdf577f4e487b7100000000000000000000000000000000000000000000000000000000600052604160045260246000fd5b60405190808252806020026020018201604052801561300d5781602001602082028036833780820191505090505b50975060005b86811015613145576000828281518110613056577f4e487b7100000000000000000000000000000000000000000000000000000000600052603260045260246000fd5b6020026020010151905060006001838a6130709190614e96565b61307a9190614e96565b90508982815181106130b5577f4e487b7100000000000000000000000000000000000000000000000000000000600052603260045260246000fd5b60200260200101518b82815181106130f6577f4e487b7100000000000000000000000000000000000000000000000000000000600052603260045260246000fd5b602002602001019073ffffffffffffffffffffffffffffffffffffffff16908173ffffffffffffffffffffffffffffffffffffffff16815250505050808061313d90615033565b915050613013565b505050505050505090565b60008061315d85856115f2565b905060008114156131725760009150506131d6565b60006131aa670de0b6b3a764000061319c8661318e8a8a6131dd565b61363790919063ffffffff16565b61364d90919063ffffffff16565b90508082116131be576000925050506131d6565b6131d1818361367990919063ffffffff16565b925050505b9392505050565b6000613362670de0b6b3a764000061335460c960009054906101000a900473ffffffffffffffffffffffffffffffffffffffff1673ffffffffffffffffffffffffffffffffffffffff1663d02641a0866040518263ffffffff1660e01b8152600401613249919061484c565b60206040518083038186803b15801561326157600080fd5b505afa158015613275573d6000803e3d6000fd5b505050506040513d601f19601f8201168201806040525081019061329991906144b5565b60c960009054906101000a900473ffffffffffffffffffffffffffffffffffffffff1673ffffffffffffffffffffffffffffffffffffffff1663498b5ae888886040518363ffffffff1660e01b81526004016132f6929190614867565b60206040518083038186803b15801561330e57600080fd5b505afa158015613322573d6000803e3d6000fd5b505050506040513d601f19601f8201168201806040525081019061334691906144b5565b61363790919063ffffffff16565b61364d90919063ffffffff16565b905092915050565b600080600061337e8a8a8a8a88600161258c565b915091506133f6670de0b6b3a76400006133e8846133da61339f8f8f6131dd565b6133cc670de0b6b3a76400006133be8d8f61363790919063ffffffff16565b61364d90919063ffffffff16565b61366390919063ffffffff16565b61363790919063ffffffff16565b61364d90919063ffffffff16565b81101592505050979650505050505050565b600061341e838361341986866127ee565b613150565b905092915050565b61342e613922565b73ffffffffffffffffffffffffffffffffffffffff1661344c611fd3565b73ffffffffffffffffffffffffffffffffffffffff16146134a2576040517f08c379a000000000000000000000000000000000000000000000000000000000815260040161349990614a4d565b60405180910390fd5b600073ffffffffffffffffffffffffffffffffffffffff168173ffffffffffffffffffffffffffffffffffffffff161415613512576040517f08c379a0000000000000000000000000000000000000000000000000000000008152600401613509906149ad565b60405180910390fd5b8073ffffffffffffffffffffffffffffffffffffffff16609760009054906101000a900473ffffffffffffffffffffffffffffffffffffffff1673ffffffffffffffffffffffffffffffffffffffff167f8be0079c531659141344cd1fd0a4f28419497f9722a3daafe3b4186f6b6457e060405160405180910390a380609760006101000a81548173ffffffffffffffffffffffffffffffffffffffff021916908373ffffffffffffffffffffffffffffffffffffffff16021790555050565b6000806135df84846127ee565b9050600061361a606461360c670de0b6b3a76400006135fe8989611905565b61363790919063ffffffff16565b61364d90919063ffffffff16565b90506000811415801561362d5750818110155b9250505092915050565b600081836136459190614da8565b905092915050565b6000818361365b9190614d77565b905092915050565b600081836136719190614cb7565b905092915050565b600081836136879190614e96565b905092915050565b613697613922565b73ffffffffffffffffffffffffffffffffffffffff166136b5611fd3565b73ffffffffffffffffffffffffffffffffffffffff161461370b576040517f08c379a000000000000000000000000000000000000000000000000000000000815260040161370290614a4d565b60405180910390fd5b50565b6000613718613a13565b905061372384613a6a565b6000835111806137305750815b156137415761373f8484613b23565b505b600061376f7f4910fdfa16fed3260ed0e7147f7cc6da11a60208b5b9406d12a635614ffd914360001b613c07565b90508060000160009054906101000a900460ff1661391b5760018160000160006101000a81548160ff02191690831515021790555061383b85836040516024016137b9919061484c565b6040516020818303038152906040527f3659cfe6000000000000000000000000000000000000000000000000000000007bffffffffffffffffffffffffffffffffffffffffffffffffffffffff19166020820180517bffffffffffffffffffffffffffffffffffffffffffffffffffffffff8381831617835250505050613b23565b5060008160000160006101000a81548160ff021916908315150217905550613861613a13565b73ffffffffffffffffffffffffffffffffffffffff168273ffffffffffffffffffffffffffffffffffffffff16146138ce576040517f08c379a00000000000000000000000000000000000000000000000000000000081526004016138c59061498d565b60405180910390fd5b6138d785613a6a565b8473ffffffffffffffffffffffffffffffffffffffff167fbc7cd75a20ee27fd9adebab32041f755214dbc6bffa90cc0225b39da2e5c2d3b60405160405180910390a25b5050505050565b600033905090565b600060019054906101000a900460ff1680613950575060008054906101000a900460ff16155b61398f576040517f08c379a000000000000000000000000000000000000000000000000000000000815260040161398690614a0d565b60405180910390fd5b60008060019054906101000a900460ff1615905080156139df576001600060016101000a81548160ff02191690831515021790555060016000806101000a81548160ff0219169083151502179055505b6139e7613c11565b6139ef613cea565b8015613a105760008060016101000a81548160ff0219169083151502179055505b50565b6000613a417f360894a13ba1a3210667c828492db98dca3e2076cc3735a920a3ca505d382bbc60001b613e6c565b60000160009054906101000a900473ffffffffffffffffffffffffffffffffffffffff16905090565b613a7381613e76565b613ab2576040517f08c379a0000000000000000000000000000000000000000000000000000000008152600401613aa990614a2d565b60405180910390fd5b80613adf7f360894a13ba1a3210667c828492db98dca3e2076cc3735a920a3ca505d382bbc60001b613e6c565b60000160006101000a81548173ffffffffffffffffffffffffffffffffffffffff021916908373ffffffffffffffffffffffffffffffffffffffff16021790555050565b6060613b2e83613e76565b613b6d576040517f08c379a0000000000000000000000000000000000000000000000000000000008152600401613b6490614a6d565b60405180910390fd5b6000808473ffffffffffffffffffffffffffffffffffffffff1684604051613b959190614835565b600060405180830381855af49150503d8060008114613bd0576040519150601f19603f3d011682016040523d82523d6000602084013e613bd5565b606091505b5091509150613bfd828260405180606001604052806027815260200161539460279139613e89565b9250505092915050565b6000819050919050565b600060019054906101000a900460ff1680613c37575060008054906101000a900460ff16155b613c76576040517f08c379a0000000000000000000000000000000000000000000000000000000008152600401613c6d90614a0d565b60405180910390fd5b60008060019054906101000a900460ff161590508015613cc6576001600060016101000a81548160ff02191690831515021790555060016000806101000a81548160ff0219169083151502179055505b8015613ce75760008060016101000a81548160ff0219169083151502179055505b50565b600060019054906101000a900460ff1680613d10575060008054906101000a900460ff16155b613d4f576040517f08c379a0000000000000000000000000000000000000000000000000000000008152600401613d4690614a0d565b60405180910390fd5b60008060019054906101000a900460ff161590508015613d9f576001600060016101000a81548160ff02191690831515021790555060016000806101000a81548160ff0219169083151502179055505b6000613da9613922565b905080609760006101000a81548173ffffffffffffffffffffffffffffffffffffffff021916908373ffffffffffffffffffffffffffffffffffffffff1602179055508073ffffffffffffffffffffffffffffffffffffffff16600073ffffffffffffffffffffffffffffffffffffffff167f8be0079c531659141344cd1fd0a4f28419497f9722a3daafe3b4186f6b6457e060405160405180910390a3508015613e695760008060016101000a81548160ff0219169083151502179055505b50565b6000819050919050565b600080823b905060008111915050919050565b60608315613e9957829050613ee9565b600083511115613eac5782518084602001fd5b816040517f08c379a0000000000000000000000000000000000000000000000000000000008152600401613ee0919061496b565b60405180910390fd5b9392505050565b6000613f03613efe84614af6565b614ad1565b90508083825260208201905082856020860282011115613f2257600080fd5b60005b85811015613f525781613f38888261401b565b845260208401935060208301925050600181019050613f25565b5050509392505050565b6000613f6f613f6a84614b22565b614ad1565b90508083825260208201905082856020860282011115613f8e57600080fd5b60005b85811015613fbe5781613fa48882614139565b845260208401935060208301925050600181019050613f91565b5050509392505050565b6000613fdb613fd684614b4e565b614ad1565b905082815260208101848484011115613ff357600080fd5b613ffe848285614f2e565b509392505050565b60008135905061401581615320565b92915050565b60008151905061402a81615320565b92915050565b60008151905061403f81615337565b92915050565b600082601f83011261405657600080fd5b8151614066848260208601613ef0565b91505092915050565b600082601f83011261408057600080fd5b8135614090848260208601613f5c565b91505092915050565b6000813590506140a88161534e565b92915050565b600082601f8301126140bf57600080fd5b81356140cf848260208601613fc8565b91505092915050565b6000813590506140e781615365565b92915050565b6000604082840312156140ff57600080fd5b6141096040614ad1565b905060006141198482850161414e565b600083015250602061412d8482850161414e565b60208301525092915050565b6000813590506141488161537c565b92915050565b60008151905061415d8161537c565b92915050565b60006020828403121561417557600080fd5b600061418384828501614006565b91505092915050565b60006020828403121561419e57600080fd5b60006141ac8482850161401b565b91505092915050565b6000602082840312156141c757600080fd5b60006141d584828501614030565b91505092915050565b600080604083850312156141f157600080fd5b60006141ff85828601614006565b925050602061421085828601614006565b9150509250929050565b60008060008060008060c0878903121561423357600080fd5b600061424189828a01614006565b965050602061425289828a01614006565b955050604061426389828a01614006565b945050606061427489828a01614139565b935050608061428589828a01614139565b92505060a061429689828a01614099565b9150509295509295509295565b600080600080600080600060e0888a0312156142be57600080fd5b60006142cc8a828b01614006565b97505060206142dd8a828b01614006565b96505060406142ee8a828b01614006565b95505060606142ff8a828b01614139565b94505060806143108a828b01614139565b93505060a06143218a828b01614139565b92505060c06143328a828b01614139565b91505092959891949750929550565b60008060006060848603121561435657600080fd5b600061436486828701614006565b935050602061437586828701614006565b925050604061438686828701614139565b9150509250925092565b600080604083850312156143a357600080fd5b60006143b185828601614006565b925050602083013567ffffffffffffffff8111156143ce57600080fd5b6143da858286016140ae565b9150509250929050565b6000602082840312156143f657600080fd5b600082015167ffffffffffffffff81111561441057600080fd5b61441c84828501614045565b91505092915050565b60008060006060848603121561443a57600080fd5b600084013567ffffffffffffffff81111561445457600080fd5b6144608682870161406f565b9350506020614471868287016140d8565b9250506040614482868287016140d8565b9150509250925092565b60006040828403121561449e57600080fd5b60006144ac848285016140ed565b91505092915050565b6000602082840312156144c757600080fd5b60006144d58482850161414e565b91505092915050565b6000806000606084860312156144f357600080fd5b600061450186828701614139565b935050602061451286828701614006565b925050604061452386828701614006565b9150509250925092565b60008060006060848603121561454257600080fd5b600061455086828701614139565b935050602061456186828701614139565b925050604061457286828701614139565b9150509250925092565b600061458883836145ac565b60208301905092915050565b60006145a08383614817565b60208301905092915050565b6145b581614eca565b82525050565b6145c481614eca565b82525050565b60006145d582614b9f565b6145df8185614be5565b93506145ea83614b7f565b8060005b8381101561461b578151614602888261457c565b975061460d83614bcb565b9250506001810190506145ee565b5085935050505092915050565b600061463382614baa565b61463d8185614bf6565b935061464883614b8f565b8060005b838110156146795781516146608882614594565b975061466b83614bd8565b92505060018101905061464c565b5085935050505092915050565b61468f81614eee565b82525050565b60006146a082614bb5565b6146aa8185614c07565b93506146ba818560208601614f3d565b80840191505092915050565b60006146d182614bc0565b6146db8185614c12565b93506146eb818560208601614f3d565b6146f481615109565b840191505092915050565b600061470c602f83614c12565b91506147178261511a565b604082019050919050565b600061472f602683614c12565b915061473a82615169565b604082019050919050565b6000614752601183614c12565b915061475d826151b8565b602082019050919050565b6000614775600283614c12565b9150614780826151e1565b602082019050919050565b6000614798602e83614c12565b91506147a38261520a565b604082019050919050565b60006147bb602d83614c12565b91506147c682615259565b604082019050919050565b60006147de602083614c12565b91506147e9826152a8565b602082019050919050565b6000614801602683614c12565b915061480c826152d1565b604082019050919050565b61482081614f24565b82525050565b61482f81614f24565b82525050565b60006148418284614695565b915081905092915050565b600060208201905061486160008301846145bb565b92915050565b600060408201905061487c60008301856145bb565b61488960208301846145bb565b9392505050565b60006060820190506148a560008301866145bb565b6148b260208301856145bb565b6148bf60408301846145bb565b949350505050565b600060208201905081810360008301526148e181846145ca565b905092915050565b6000606082019050818103600083015261490381866145ca565b905081810360208301526149178185614628565b90506149266040830184614686565b949350505050565b600060208201905081810360008301526149488184614628565b905092915050565b60006020820190506149656000830184614686565b92915050565b6000602082019050818103600083015261498581846146c6565b905092915050565b600060208201905081810360008301526149a6816146ff565b9050919050565b600060208201905081810360008301526149c681614722565b9050919050565b600060208201905081810360008301526149e681614745565b9050919050565b60006020820190508181036000830152614a0681614768565b9050919050565b60006020820190508181036000830152614a268161478b565b9050919050565b60006020820190508181036000830152614a46816147ae565b9050919050565b60006020820190508181036000830152614a66816147d1565b9050919050565b60006020820190508181036000830152614a86816147f4565b9050919050565b6000602082019050614aa26000830184614826565b92915050565b6000604082019050614abd6000830185614826565b614aca6020830184614826565b9392505050565b6000614adb614aec565b9050614ae78282614fb9565b919050565b6000604051905090565b600067ffffffffffffffff821115614b1157614b106150da565b5b602082029050602081019050919050565b600067ffffffffffffffff821115614b3d57614b3c6150da565b5b602082029050602081019050919050565b600067ffffffffffffffff821115614b6957614b686150da565b5b614b7282615109565b9050602081019050919050565b6000819050602082019050919050565b6000819050602082019050919050565b600081519050919050565b600081519050919050565b600081519050919050565b600081519050919050565b6000602082019050919050565b6000602082019050919050565b600082825260208201905092915050565b600082825260208201905092915050565b600081905092915050565b600082825260208201905092915050565b6000614c2e82614efa565b9150614c3983614efa565b9250817f7fffffffffffffffffffffffffffffffffffffffffffffffffffffffffffffff03831360008312151615614c7457614c7361507c565b5b817f8000000000000000000000000000000000000000000000000000000000000000038312600083121615614cac57614cab61507c565b5b828201905092915050565b6000614cc282614f24565b9150614ccd83614f24565b9250827fffffffffffffffffffffffffffffffffffffffffffffffffffffffffffffffff03821115614d0257614d0161507c565b5b828201905092915050565b6000614d1882614efa565b9150614d2383614efa565b925082614d3357614d326150ab565b5b600160000383147f800000000000000000000000000000000000000000000000000000000000000083141615614d6c57614d6b61507c565b5b828205905092915050565b6000614d8282614f24565b9150614d8d83614f24565b925082614d9d57614d9c6150ab565b5b828204905092915050565b6000614db382614f24565b9150614dbe83614f24565b9250817fffffffffffffffffffffffffffffffffffffffffffffffffffffffffffffffff0483118215151615614df757614df661507c565b5b828202905092915050565b6000614e0d82614efa565b9150614e1883614efa565b9250827f800000000000000000000000000000000000000000000000000000000000000001821260008412151615614e5357614e5261507c565b5b827f7fffffffffffffffffffffffffffffffffffffffffffffffffffffffffffffff018213600084121615614e8b57614e8a61507c565b5b828203905092915050565b6000614ea182614f24565b9150614eac83614f24565b925082821015614ebf57614ebe61507c565b5b828203905092915050565b6000614ed582614f04565b9050919050565b6000614ee782614f04565b9050919050565b60008115159050919050565b6000819050919050565b600073ffffffffffffffffffffffffffffffffffffffff82169050919050565b6000819050919050565b82818337600083830152505050565b60005b83811015614f5b578082015181840152602081019050614f40565b83811115614f6a576000848401525b50505050565b6000614f7b82614efa565b91507f8000000000000000000000000000000000000000000000000000000000000000821415614fae57614fad61507c565b5b600182039050919050565b614fc282615109565b810181811067ffffffffffffffff82111715614fe157614fe06150da565b5b80604052505050565b6000614ff582614efa565b91507f7fffffffffffffffffffffffffffffffffffffffffffffffffffffffffffffff8214156150285761502761507c565b5b600182019050919050565b600061503e82614f24565b91507fffffffffffffffffffffffffffffffffffffffffffffffffffffffffffffffff8214156150715761507061507c565b5b600182019050919050565b7f4e487b7100000000000000000000000000000000000000000000000000000000600052601160045260246000fd5b7f4e487b7100000000000000000000000000000000000000000000000000000000600052601260045260246000fd5b7f4e487b7100000000000000000000000000000000000000000000000000000000600052604160045260246000fd5b6000601f19601f8301169050919050565b7f45524331393637557067726164653a207570677261646520627265616b73206660008201527f7572746865722075706772616465730000000000000000000000000000000000602082015250565b7f4f776e61626c653a206e6577206f776e657220697320746865207a65726f206160008201527f6464726573730000000000000000000000000000000000000000000000000000602082015250565b7f496e76616c696420435220746172676574000000000000000000000000000000600082015250565b7f4352000000000000000000000000000000000000000000000000000000000000600082015250565b7f496e697469616c697a61626c653a20636f6e747261637420697320616c72656160008201527f647920696e697469616c697a6564000000000000000000000000000000000000602082015250565b7f455243313936373a206e657720696d706c656d656e746174696f6e206973206e60008201527f6f74206120636f6e747261637400000000000000000000000000000000000000602082015250565b7f4f776e61626c653a2063616c6c6572206973206e6f7420746865206f776e6572600082015250565b7f416464726573733a2064656c65676174652063616c6c20746f206e6f6e2d636f60008201527f6e74726163740000000000000000000000000000000000000000000000000000602082015250565b61532981614eca565b811461533457600080fd5b50565b61534081614edc565b811461534b57600080fd5b50565b61535781614eee565b811461536257600080fd5b50565b61536e81614efa565b811461537957600080fd5b50565b61538581614f24565b811461539057600080fd5b5056fe416464726573733a206c6f772d6c6576656c2064656c65676174652063616c6c206661696c6564a26469706673582212203d8bb42f7ba39f4b65d52c4d06b4d2e3e1677f866e50af25e8200753e40a406364736f6c63430008030033",
  "linkReferences": {},
  "deployedLinkReferences": {}
}