{
  "_format": "hh-sol-artifact-1",
  "contractName": "VaultLibrary",
  "sourceName": "contracts/Bank/VaultLibrary.sol",
  "abi": [
    {
      "anonymous": false,
      "inputs": [
        {
          "indexed": false,
          "internalType": "address",
          "name": "previousAdmin",
          "type": "address"
        },
        {
          "indexed": false,
          "internalType": "address",
          "name": "newAdmin",
          "type": "address"
        }
      ],
      "name": "AdminChanged",
      "type": "event"
    },
    {
      "anonymous": false,
      "inputs": [
        {
          "indexed": true,
          "internalType": "address",
          "name": "beacon",
          "type": "address"
        }
      ],
      "name": "BeaconUpgraded",
      "type": "event"
    },
    {
      "anonymous": false,
      "inputs": [
        {
          "indexed": true,
          "internalType": "address",
          "name": "previousOwner",
          "type": "address"
        },
        {
          "indexed": true,
          "internalType": "address",
          "name": "newOwner",
          "type": "address"
        }
      ],
      "name": "OwnershipTransferred",
      "type": "event"
    },
    {
      "anonymous": false,
      "inputs": [
        {
          "indexed": true,
          "internalType": "address",
          "name": "implementation",
          "type": "address"
        }
      ],
      "name": "Upgraded",
      "type": "event"
    },
    {
      "inputs": [
        {
          "internalType": "address",
          "name": "account",
          "type": "address"
        },
        {
          "internalType": "address",
          "name": "fxToken",
          "type": "address"
        }
      ],
      "name": "calculateInterest",
      "outputs": [
        {
          "internalType": "uint256",
          "name": "interest",
          "type": "uint256"
        }
      ],
      "stateMutability": "view",
      "type": "function"
    },
    {
      "inputs": [
        {
          "internalType": "address",
          "name": "account",
          "type": "address"
        },
        {
          "internalType": "address",
          "name": "fxToken",
          "type": "address"
        },
        {
          "internalType": "address",
          "name": "collateralToken",
          "type": "address"
        },
        {
          "internalType": "uint256",
          "name": "collateralAmount",
          "type": "uint256"
        },
        {
          "internalType": "uint256",
          "name": "tokenAmount",
          "type": "uint256"
        },
        {
          "internalType": "uint256",
          "name": "fxQuote",
          "type": "uint256"
        },
        {
          "internalType": "uint256",
          "name": "collateralQuote",
          "type": "uint256"
        }
      ],
      "name": "canMint",
      "outputs": [
        {
          "internalType": "bool",
          "name": "",
          "type": "bool"
        }
      ],
      "stateMutability": "view",
      "type": "function"
    },
    {
      "inputs": [
        {
          "internalType": "address",
          "name": "account",
          "type": "address"
        },
        {
          "internalType": "address",
          "name": "fxToken",
          "type": "address"
        }
      ],
      "name": "doesMeetRatio",
      "outputs": [
        {
          "internalType": "bool",
          "name": "",
          "type": "bool"
        }
      ],
      "stateMutability": "view",
      "type": "function"
    },
    {
      "inputs": [
        {
          "internalType": "uint256",
          "name": "amount",
          "type": "uint256"
        },
        {
          "internalType": "address",
          "name": "token",
          "type": "address"
        },
        {
          "internalType": "address",
          "name": "from",
          "type": "address"
        }
      ],
      "name": "getAllowedBuyCollateralFromTokenAmount",
      "outputs": [
        {
          "internalType": "uint256",
          "name": "allowedAmount",
          "type": "uint256"
        }
      ],
      "stateMutability": "view",
      "type": "function"
    },
    {
      "inputs": [
        {
          "internalType": "address",
          "name": "account",
          "type": "address"
        },
        {
          "internalType": "address",
          "name": "fxToken",
          "type": "address"
        },
        {
          "internalType": "uint256",
          "name": "amountEth",
          "type": "uint256"
        }
      ],
      "name": "getCollateralForAmount",
      "outputs": [
        {
          "internalType": "address[]",
          "name": "collateralTypes",
          "type": "address[]"
        },
        {
          "internalType": "uint256[]",
          "name": "collateralAmounts",
          "type": "uint256[]"
        },
        {
          "internalType": "bool",
          "name": "metAmount",
          "type": "bool"
        }
      ],
      "stateMutability": "view",
      "type": "function"
    },
    {
      "inputs": [
        {
          "internalType": "address",
          "name": "account",
          "type": "address"
        },
        {
          "internalType": "address",
          "name": "fxToken",
          "type": "address"
        }
      ],
      "name": "getCollateralShares",
      "outputs": [
        {
          "internalType": "uint256[]",
          "name": "shares",
          "type": "uint256[]"
        }
      ],
      "stateMutability": "view",
      "type": "function"
    },
    {
      "inputs": [],
      "name": "getCollateralTypesSortedByLiquidationRank",
      "outputs": [
        {
          "internalType": "address[]",
          "name": "sortedCollateralTypes",
          "type": "address[]"
        }
      ],
      "stateMutability": "view",
      "type": "function"
    },
    {
      "inputs": [
        {
          "internalType": "address",
          "name": "account",
          "type": "address"
        },
        {
          "internalType": "address",
          "name": "fxToken",
          "type": "address"
        }
      ],
      "name": "getCurrentRatio",
      "outputs": [
        {
          "internalType": "uint256",
          "name": "ratio",
          "type": "uint256"
        }
      ],
      "stateMutability": "view",
      "type": "function"
    },
    {
      "inputs": [
        {
          "internalType": "address",
          "name": "account",
          "type": "address"
        },
        {
          "internalType": "address",
          "name": "fxToken",
          "type": "address"
        }
      ],
      "name": "getDebtAsEth",
      "outputs": [
        {
          "internalType": "uint256",
          "name": "debt",
          "type": "uint256"
        }
      ],
      "stateMutability": "view",
      "type": "function"
    },
    {
      "inputs": [
        {
          "internalType": "address",
          "name": "account",
          "type": "address"
        },
        {
          "internalType": "address",
          "name": "fxToken",
          "type": "address"
        }
      ],
      "name": "getFreeCollateralAsEth",
      "outputs": [
        {
          "internalType": "uint256",
          "name": "",
          "type": "uint256"
        }
      ],
      "stateMutability": "view",
      "type": "function"
    },
    {
      "inputs": [
        {
          "internalType": "address",
          "name": "account",
          "type": "address"
        },
        {
          "internalType": "address",
          "name": "fxToken",
          "type": "address"
        },
        {
          "internalType": "uint256",
          "name": "minimumRatio",
          "type": "uint256"
        }
      ],
      "name": "getFreeCollateralAsEthFromMinimumRatio",
      "outputs": [
        {
          "internalType": "uint256",
          "name": "",
          "type": "uint256"
        }
      ],
      "stateMutability": "view",
      "type": "function"
    },
    {
      "inputs": [
        {
          "internalType": "address",
          "name": "account",
          "type": "address"
        },
        {
          "internalType": "address",
          "name": "fxToken",
          "type": "address"
        }
      ],
      "name": "getInterestRate",
      "outputs": [
        {
          "internalType": "uint256",
          "name": "",
          "type": "uint256"
        }
      ],
      "stateMutability": "view",
      "type": "function"
    },
    {
      "inputs": [
        {
          "internalType": "address",
          "name": "account",
          "type": "address"
        },
        {
          "internalType": "address",
          "name": "fxToken",
          "type": "address"
        }
      ],
      "name": "getLiquidationFee",
      "outputs": [
        {
          "internalType": "uint256",
          "name": "fee",
          "type": "uint256"
        }
      ],
      "stateMutability": "view",
      "type": "function"
    },
    {
      "inputs": [
        {
          "internalType": "uint256",
          "name": "tokenAmount",
          "type": "uint256"
        },
        {
          "internalType": "uint256",
          "name": "ratio",
          "type": "uint256"
        },
        {
          "internalType": "uint256",
          "name": "unitPrice",
          "type": "uint256"
        }
      ],
      "name": "getMinimumCollateral",
      "outputs": [
        {
          "internalType": "uint256",
          "name": "minimum",
          "type": "uint256"
        }
      ],
      "stateMutability": "pure",
      "type": "function"
    },
    {
      "inputs": [
        {
          "internalType": "address",
          "name": "account",
          "type": "address"
        },
        {
          "internalType": "address",
          "name": "fxToken",
          "type": "address"
        }
      ],
      "name": "getMinimumRatio",
      "outputs": [
        {
          "internalType": "uint256",
          "name": "ratio",
          "type": "uint256"
        }
      ],
      "stateMutability": "view",
      "type": "function"
    },
    {
      "inputs": [
        {
          "internalType": "address",
          "name": "account",
          "type": "address"
        },
        {
          "internalType": "address",
          "name": "fxToken",
          "type": "address"
        },
        {
          "internalType": "address",
          "name": "collateralToken",
          "type": "address"
        },
        {
          "internalType": "uint256",
          "name": "collateralAmount",
          "type": "uint256"
        },
        {
          "internalType": "uint256",
          "name": "collateralQuote",
          "type": "uint256"
        },
        {
          "internalType": "bool",
          "name": "isDeposit",
          "type": "bool"
        }
      ],
      "name": "getNewMinimumRatio",
      "outputs": [
        {
          "internalType": "uint256",
          "name": "ratio",
          "type": "uint256"
        },
        {
          "internalType": "uint256",
          "name": "newCollateralAsEther",
          "type": "uint256"
        }
      ],
      "stateMutability": "view",
      "type": "function"
    },
    {
      "inputs": [
        {
          "internalType": "address",
          "name": "account",
          "type": "address"
        },
        {
          "internalType": "address",
          "name": "fxToken",
          "type": "address"
        }
      ],
      "name": "getTotalCollateralBalanceAsEth",
      "outputs": [
        {
          "internalType": "uint256",
          "name": "balance",
          "type": "uint256"
        }
      ],
      "stateMutability": "view",
      "type": "function"
    },
    {
      "inputs": [],
      "name": "handleAddress",
      "outputs": [
        {
          "internalType": "address",
          "name": "",
          "type": "address"
        }
      ],
      "stateMutability": "view",
      "type": "function"
    },
    {
      "inputs": [],
      "name": "initialize",
      "outputs": [],
      "stateMutability": "nonpayable",
      "type": "function"
    },
    {
      "inputs": [],
      "name": "owner",
      "outputs": [
        {
          "internalType": "address",
          "name": "",
          "type": "address"
        }
      ],
      "stateMutability": "view",
      "type": "function"
    },
    {
      "inputs": [
        {
          "internalType": "uint256[]",
          "name": "array",
          "type": "uint256[]"
        },
        {
          "internalType": "int256",
          "name": "left",
          "type": "int256"
        },
        {
          "internalType": "int256",
          "name": "right",
          "type": "int256"
        }
      ],
      "name": "quickSort",
      "outputs": [],
      "stateMutability": "pure",
      "type": "function"
    },
    {
      "inputs": [],
      "name": "renounceOwnership",
      "outputs": [],
      "stateMutability": "nonpayable",
      "type": "function"
    },
    {
      "inputs": [
        {
          "internalType": "address",
          "name": "_handle",
          "type": "address"
        }
      ],
      "name": "setHandleContract",
      "outputs": [],
      "stateMutability": "nonpayable",
      "type": "function"
    },
    {
      "inputs": [
        {
          "internalType": "uint256",
          "name": "crTarget",
          "type": "uint256"
        },
        {
          "internalType": "uint256",
          "name": "debt",
          "type": "uint256"
        },
        {
          "internalType": "uint256",
          "name": "collateral",
          "type": "uint256"
        }
      ],
      "name": "tokensRequiredForCrIncrease",
      "outputs": [
        {
          "internalType": "uint256",
          "name": "amount",
          "type": "uint256"
        }
      ],
      "stateMutability": "pure",
      "type": "function"
    },
    {
      "inputs": [
        {
          "internalType": "address",
          "name": "newOwner",
          "type": "address"
        }
      ],
      "name": "transferOwnership",
      "outputs": [],
      "stateMutability": "nonpayable",
      "type": "function"
    },
    {
      "inputs": [
        {
          "internalType": "address",
          "name": "newImplementation",
          "type": "address"
        }
      ],
      "name": "upgradeTo",
      "outputs": [],
      "stateMutability": "nonpayable",
      "type": "function"
    },
    {
      "inputs": [
        {
          "internalType": "address",
          "name": "newImplementation",
          "type": "address"
        },
        {
          "internalType": "bytes",
          "name": "data",
          "type": "bytes"
        }
      ],
      "name": "upgradeToAndCall",
      "outputs": [],
      "stateMutability": "payable",
      "type": "function"
    }
  ],
  "bytecode": "0x608060405234801561001057600080fd5b5061540c806100206000396000f3fe60806040526004361061019c5760003560e01c80638da5cb5b116100ec578063c4d7b8b81161008a578063e279962311610064578063e279962314610640578063e76ab2391461067d578063f2fde38b146106ba578063f37cd50d146106e35761019c565b8063c4d7b8b81461059b578063cad57631146105c6578063db3fabeb146106035761019c565b80639b1c414f116100c65780639b1c414f146104ba5780639e718d07146104e3578063bc0c63db14610520578063bcbe3f221461055e5761019c565b80638da5cb5b146104155780638dac8d131461044057806397ae19741461047d5761019c565b80634f1ef28611610159578063715018a611610133578063715018a61461037f57806374bf578b146103965780638129fc1c146103c157806387092940146103d85761019c565b80634f1ef286146102e95780635a763fbb1461030557806364d321b7146103425761019c565b80630a06fc3c146101a157806312ffb678146101ca578063234ab3e2146102075780633659cfe61461024657806349cf9cce1461026f5780634c90f229146102ac575b600080fd5b3480156101ad57600080fd5b506101c860048036038101906101c39190614441565b610720565b005b3480156101d657600080fd5b506101f160048036038101906101ec91906141fa565b6109c6565b6040516101fe9190614aa9565b60405180910390f35b34801561021357600080fd5b5061022e6004803603810190610229919061435d565b610df7565b60405161023d93929190614905565b60405180910390f35b34801561025257600080fd5b5061026d6004803603810190610268919061417f565b6111e4565b005b34801561027b57600080fd5b50610296600480360381019061029191906141fa565b61120b565b6040516102a3919061494a565b60405180910390f35b3480156102b857600080fd5b506102d360048036038101906102ce91906141fa565b6115f6565b6040516102e09190614aa9565b60405180910390f35b61030360048036038101906102fe91906143ac565b6118f0565b005b34801561031157600080fd5b5061032c600480360381019061032791906141fa565b611909565b6040516103399190614aa9565b60405180910390f35b34801561034e57600080fd5b50610369600480360381019061036491906141fa565b61196a565b6040516103769190614aa9565b60405180910390f35b34801561038b57600080fd5b50610394611bb9565b005b3480156103a257600080fd5b506103ab611cf6565b6040516103b89190614868565b60405180910390f35b3480156103cd57600080fd5b506103d6611d20565b005b3480156103e457600080fd5b506103ff60048036038101906103fa91906141fa565b611e01565b60405161040c9190614aa9565b60405180910390f35b34801561042157600080fd5b5061042a611fd8565b6040516104379190614868565b60405180910390f35b34801561044c57600080fd5b50610467600480360381019061046291906144fa565b612002565b6040516104749190614aa9565b60405180910390f35b34801561048957600080fd5b506104a4600480360381019061049f9190614549565b6121e1565b6040516104b19190614aa9565b60405180910390f35b3480156104c657600080fd5b506104e160048036038101906104dc919061417f565b6122ad565b005b3480156104ef57600080fd5b5061050a60048036038101906105059190614549565b61252d565b6040516105179190614aa9565b60405180910390f35b34801561052c57600080fd5b5061054760048036038101906105429190614236565b612591565b604051610555929190614ac4565b60405180910390f35b34801561056a57600080fd5b50610585600480360381019061058091906141fa565b6127f4565b6040516105929190614aa9565b60405180910390f35b3480156105a757600080fd5b506105b0612a6b565b6040516105bd91906148e3565b60405180910390f35b3480156105d257600080fd5b506105ed60048036038101906105e8919061435d565b613158565b6040516105fa9190614aa9565b60405180910390f35b34801561060f57600080fd5b5061062a600480360381019061062591906141fa565b6131e5565b6040516106379190614aa9565b60405180910390f35b34801561064c57600080fd5b50610667600480360381019061066291906142bf565b613372565b604051610674919061496c565b60405180910390f35b34801561068957600080fd5b506106a4600480360381019061069f91906141fa565b613410565b6040516106b19190614aa9565b60405180910390f35b3480156106c657600080fd5b506106e160048036038101906106dc919061417f565b61342e565b005b3480156106ef57600080fd5b5061070a600480360381019061070591906141fa565b6135da565b604051610717919061496c565b60405180910390f35b60008290506000829050808214156107395750506109c1565b6000856002868661074a9190614e1e565b6107549190614d29565b8661075f9190614c3f565b81518110610796577f4e487b7100000000000000000000000000000000000000000000000000000000600052603260045260246000fd5b602002602001015190505b818313610995575b808684815181106107e3577f4e487b7100000000000000000000000000000000000000000000000000000000600052603260045260246000fd5b602002602001015110156108045782806107fc90615006565b9350506107a9565b5b85828151811061083e577f4e487b7100000000000000000000000000000000000000000000000000000000600052603260045260246000fd5b602002602001015181101561086057818061085890614f8c565b925050610805565b818313610990578582815181106108a0577f4e487b7100000000000000000000000000000000000000000000000000000000600052603260045260246000fd5b60200260200101518684815181106108e1577f4e487b7100000000000000000000000000000000000000000000000000000000600052603260045260246000fd5b6020026020010151878581518110610922577f4e487b7100000000000000000000000000000000000000000000000000000000600052603260045260246000fd5b60200260200101888581518110610962577f4e487b7100000000000000000000000000000000000000000000000000000000600052603260045260246000fd5b6020026020010182815250828152505050828061097e90615006565b935050818061098c90614f8c565b9250505b6107a1565b818512156109a9576109a8868684610720565b5b838312156109bd576109bc868486610720565b5b5050505b505050565b60008060c960009054906101000a900473ffffffffffffffffffffffffffffffffffffffff1673ffffffffffffffffffffffffffffffffffffffff1663294d499e6040518163ffffffff1660e01b815260040160006040518083038186803b158015610a3157600080fd5b505afa158015610a45573d6000803e3d6000fd5b505050506040513d6000823e3d601f19601f82011682018060405250810190610a6e9190614400565b90506000610a7c85856115f6565b90506000811415610a9257600092505050610df1565b6000808351905060005b81811015610de8576000610cab670de0b6b3a7640000610c9d60c960009054906101000a900473ffffffffffffffffffffffffffffffffffffffff1673ffffffffffffffffffffffffffffffffffffffff1663d02641a08a8781518110610b2c577f4e487b7100000000000000000000000000000000000000000000000000000000600052603260045260246000fd5b60200260200101516040518263ffffffff1660e01b8152600401610b509190614868565b60206040518083038186803b158015610b6857600080fd5b505afa158015610b7c573d6000803e3d6000fd5b505050506040513d601f19601f82011682018060405250810190610ba091906144d1565b60c960009054906101000a900473ffffffffffffffffffffffffffffffffffffffff1673ffffffffffffffffffffffffffffffffffffffff1663c462b5208e8c8981518110610c18577f4e487b7100000000000000000000000000000000000000000000000000000000600052603260045260246000fd5b60200260200101518f6040518463ffffffff1660e01b8152600401610c3f939291906148ac565b60206040518083038186803b158015610c5757600080fd5b505afa158015610c6b573d6000803e3d6000fd5b505050506040513d601f19601f82011682018060405250810190610c8f91906144d1565b61363f90919063ffffffff16565b61365590919063ffffffff16565b9050610dd2610dc386610db58460c960009054906101000a900473ffffffffffffffffffffffffffffffffffffffff1673ffffffffffffffffffffffffffffffffffffffff1663bd9e52008c8981518110610d2f577f4e487b7100000000000000000000000000000000000000000000000000000000600052603260045260246000fd5b60200260200101516040518263ffffffff1660e01b8152600401610d539190614868565b60606040518083038186803b158015610d6b57600080fd5b505afa158015610d7f573d6000803e3d6000fd5b505050506040513d601f19601f82011682018060405250810190610da391906144a8565b6040015161363f90919063ffffffff16565b61365590919063ffffffff16565b8561366b90919063ffffffff16565b9350508080610de09061504f565b915050610a9c565b50819450505050505b92915050565b6060806000610e04612a6b565b92506000835190508067ffffffffffffffff811115610e4c577f4e487b7100000000000000000000000000000000000000000000000000000000600052604160045260246000fd5b604051908082528060200260200182016040528015610e7a5781602001602082028036833780820191505090505b5092506000805b828110156111d357600060c960009054906101000a900473ffffffffffffffffffffffffffffffffffffffff1673ffffffffffffffffffffffffffffffffffffffff1663c462b5208b898581518110610f03577f4e487b7100000000000000000000000000000000000000000000000000000000600052603260045260246000fd5b60200260200101518c6040518463ffffffff1660e01b8152600401610f2a939291906148ac565b60206040518083038186803b158015610f4257600080fd5b505afa158015610f56573d6000803e3d6000fd5b505050506040513d601f19601f82011682018060405250810190610f7a91906144d1565b9050600060c960009054906101000a900473ffffffffffffffffffffffffffffffffffffffff1673ffffffffffffffffffffffffffffffffffffffff1663d02641a0898581518110610ff5577f4e487b7100000000000000000000000000000000000000000000000000000000600052603260045260246000fd5b60200260200101516040518263ffffffff1660e01b81526004016110199190614868565b60206040518083038186803b15801561103157600080fd5b505afa158015611045573d6000803e3d6000fd5b505050506040513d601f19601f8201168201806040525081019061106991906144d1565b9050600061109a670de0b6b3a764000061108c858561363f90919063ffffffff16565b61365590919063ffffffff16565b9050896110b0828761366b90919063ffffffff16565b101561111957828885815181106110f0577f4e487b7100000000000000000000000000000000000000000000000000000000600052603260045260246000fd5b60200260200101818152505061110f818661366b90919063ffffffff16565b94505050506111c0565b600061112e868c61368190919063ffffffff16565b905061115d8361114f670de0b6b3a76400008461363f90919063ffffffff16565b61365590919063ffffffff16565b898681518110611196577f4e487b7100000000000000000000000000000000000000000000000000000000600052603260045260246000fd5b6020026020010181815250506111b5818761366b90919063ffffffff16565b9550505050506111d3565b80806111cb9061504f565b915050610e81565b508581149250505093509350939050565b6111ed81613697565b61120881604051806020016040528060008152506000613716565b50565b6060600060c960009054906101000a900473ffffffffffffffffffffffffffffffffffffffff1673ffffffffffffffffffffffffffffffffffffffff1663294d499e6040518163ffffffff1660e01b815260040160006040518083038186803b15801561127757600080fd5b505afa15801561128b573d6000803e3d6000fd5b505050506040513d6000823e3d601f19601f820116820180604052508101906112b49190614400565b90506000815190508067ffffffffffffffff8111156112fc577f4e487b7100000000000000000000000000000000000000000000000000000000600052604160045260246000fd5b60405190808252806020026020018201604052801561132a5781602001602082028036833780820191505090505b509250600061133986866115f6565b9050600081141561134c575050506115f0565b60008060005b848110156115e95760c960009054906101000a900473ffffffffffffffffffffffffffffffffffffffff1673ffffffffffffffffffffffffffffffffffffffff1663c462b5208a8884815181106113d2577f4e487b7100000000000000000000000000000000000000000000000000000000600052603260045260246000fd5b60200260200101518b6040518463ffffffff1660e01b81526004016113f9939291906148ac565b60206040518083038186803b15801561141157600080fd5b505afa158015611425573d6000803e3d6000fd5b505050506040513d601f19601f8201168201806040525081019061144991906144d1565b9250611562670de0b6b3a76400006115548560c960009054906101000a900473ffffffffffffffffffffffffffffffffffffffff1673ffffffffffffffffffffffffffffffffffffffff1663d02641a08b87815181106114d2577f4e487b7100000000000000000000000000000000000000000000000000000000600052603260045260246000fd5b60200260200101516040518263ffffffff1660e01b81526004016114f69190614868565b60206040518083038186803b15801561150e57600080fd5b505afa158015611522573d6000803e3d6000fd5b505050506040513d601f19601f8201168201806040525081019061154691906144d1565b61363f90919063ffffffff16565b61365590919063ffffffff16565b915061159184611583670de0b6b3a76400008561363f90919063ffffffff16565b61365590919063ffffffff16565b8782815181106115ca577f4e487b7100000000000000000000000000000000000000000000000000000000600052603260045260246000fd5b60200260200101818152505080806115e19061504f565b915050611352565b5050505050505b92915050565b60008060c960009054906101000a900473ffffffffffffffffffffffffffffffffffffffff1673ffffffffffffffffffffffffffffffffffffffff1663294d499e6040518163ffffffff1660e01b815260040160006040518083038186803b15801561166157600080fd5b505afa158015611675573d6000803e3d6000fd5b505050506040513d6000823e3d601f19601f8201168201806040525081019061169e9190614400565b90506000915060008151905060005b818110156118e75760006118bc670de0b6b3a76400006118ae60c960009054906101000a900473ffffffffffffffffffffffffffffffffffffffff1673ffffffffffffffffffffffffffffffffffffffff1663d02641a088878151811061173d577f4e487b7100000000000000000000000000000000000000000000000000000000600052603260045260246000fd5b60200260200101516040518263ffffffff1660e01b81526004016117619190614868565b60206040518083038186803b15801561177957600080fd5b505afa15801561178d573d6000803e3d6000fd5b505050506040513d601f19601f820116820180604052508101906117b191906144d1565b60c960009054906101000a900473ffffffffffffffffffffffffffffffffffffffff1673ffffffffffffffffffffffffffffffffffffffff1663c462b5208c8a8981518110611829577f4e487b7100000000000000000000000000000000000000000000000000000000600052603260045260246000fd5b60200260200101518d6040518463ffffffff1660e01b8152600401611850939291906148ac565b60206040518083038186803b15801561186857600080fd5b505afa15801561187c573d6000803e3d6000fd5b505050506040513d601f19601f820116820180604052508101906118a091906144d1565b61363f90919063ffffffff16565b61365590919063ffffffff16565b90506118d1818661366b90919063ffffffff16565b94505080806118df9061504f565b9150506116ad565b50505092915050565b6118f982613697565b61190582826001613716565b5050565b60008061191684846131e5565b9050600081141561192b576000915050611964565b600061193785856115f6565b905061195f8261195160648461363f90919063ffffffff16565b61365590919063ffffffff16565b925050505b92915050565b60008060c960009054906101000a900473ffffffffffffffffffffffffffffffffffffffff1673ffffffffffffffffffffffffffffffffffffffff1663294d499e6040518163ffffffff1660e01b815260040160006040518083038186803b1580156119d557600080fd5b505afa1580156119e9573d6000803e3d6000fd5b505050506040513d6000823e3d601f19601f82011682018060405250810190611a129190614400565b90506000611a20858561120b565b905060008251905060005b81811015611baf57611b9a611b8b612710611b7d868581518110611a78577f4e487b7100000000000000000000000000000000000000000000000000000000600052603260045260246000fd5b602002602001015160c960009054906101000a900473ffffffffffffffffffffffffffffffffffffffff1673ffffffffffffffffffffffffffffffffffffffff1663bd9e52008a8881518110611af7577f4e487b7100000000000000000000000000000000000000000000000000000000600052603260045260246000fd5b60200260200101516040518263ffffffff1660e01b8152600401611b1b9190614868565b60606040518083038186803b158015611b3357600080fd5b505afa158015611b47573d6000803e3d6000fd5b505050506040513d601f19601f82011682018060405250810190611b6b91906144a8565b6020015161363f90919063ffffffff16565b61365590919063ffffffff16565b8661366b90919063ffffffff16565b94508080611ba79061504f565b915050611a2b565b5050505092915050565b611bc161392a565b73ffffffffffffffffffffffffffffffffffffffff16611bdf611fd8565b73ffffffffffffffffffffffffffffffffffffffff1614611c35576040517f08c379a0000000000000000000000000000000000000000000000000000000008152600401611c2c90614a69565b60405180910390fd5b600073ffffffffffffffffffffffffffffffffffffffff16609760009054906101000a900473ffffffffffffffffffffffffffffffffffffffff1673ffffffffffffffffffffffffffffffffffffffff167f8be0079c531659141344cd1fd0a4f28419497f9722a3daafe3b4186f6b6457e060405160405180910390a36000609760006101000a81548173ffffffffffffffffffffffffffffffffffffffff021916908373ffffffffffffffffffffffffffffffffffffffff160217905550565b600060c960009054906101000a900473ffffffffffffffffffffffffffffffffffffffff16905090565b600060019054906101000a900460ff1680611d46575060008054906101000a900460ff16155b611d85576040517f08c379a0000000000000000000000000000000000000000000000000000000008152600401611d7c90614a29565b60405180910390fd5b60008060019054906101000a900460ff161590508015611dd5576001600060016101000a81548160ff02191690831515021790555060016000806101000a81548160ff0219169083151502179055505b611ddd613932565b8015611dfe5760008060016101000a81548160ff0219169083151502179055505b50565b600080611ec360c960009054906101000a900473ffffffffffffffffffffffffffffffffffffffff1673ffffffffffffffffffffffffffffffffffffffff1663c68da11086866040518363ffffffff1660e01b8152600401611e64929190614883565b60206040518083038186803b158015611e7c57600080fd5b505afa158015611e90573d6000803e3d6000fd5b505050506040513d601f19601f82011682018060405250810190611eb491906144d1565b4261368190919063ffffffff16565b90506000611ed185856109c6565b9050611fce6103e8611fc06301e13380611fb286611fa48760c960009054906101000a900473ffffffffffffffffffffffffffffffffffffffff1673ffffffffffffffffffffffffffffffffffffffff166339683a058e8e6040518363ffffffff1660e01b8152600401611f46929190614883565b60206040518083038186803b158015611f5e57600080fd5b505afa158015611f72573d6000803e3d6000fd5b505050506040513d601f19601f82011682018060405250810190611f9691906144d1565b61363f90919063ffffffff16565b61363f90919063ffffffff16565b61365590919063ffffffff16565b61365590919063ffffffff16565b9250505092915050565b6000609760009054906101000a900473ffffffffffffffffffffffffffffffffffffffff16905090565b60008061200f83856127f4565b9050600061201d84866131e5565b9050600061202b85876115f6565b90508261205b8361204d670de0b6b3a76400008561363f90919063ffffffff16565b61365590919063ffffffff16565b1061209b576040517f08c379a000000000000000000000000000000000000000000000000000000000815260040161209290614a09565b60405180910390fd5b60006120a7868861196a565b90506120e86120d9670de0b6b3a76400006120cb858561363f90919063ffffffff16565b61365590919063ffffffff16565b8361368190919063ffffffff16565b91506120f58484846121e1565b9450600060c960009054906101000a900473ffffffffffffffffffffffffffffffffffffffff1673ffffffffffffffffffffffffffffffffffffffff1663d02641a0896040518263ffffffff1660e01b81526004016121549190614868565b60206040518083038186803b15801561216c57600080fd5b505afa158015612180573d6000803e3d6000fd5b505050506040513d601f19601f820116820180604052508101906121a491906144d1565b90506121d3816121c5670de0b6b3a76400008961363f90919063ffffffff16565b61365590919063ffffffff16565b955050505050509392505050565b6000670de0b6b3a7640000841161222d576040517f08c379a0000000000000000000000000000000000000000000000000000000008152600401612224906149e9565b60405180910390fd5b600061226e61224d670de0b6b3a76400008561363f90919063ffffffff16565b612260878761363f90919063ffffffff16565b61368190919063ffffffff16565b9050600061228d670de0b6b3a76400008761368190919063ffffffff16565b90506122a2818361365590919063ffffffff16565b925050509392505050565b6122b561392a565b73ffffffffffffffffffffffffffffffffffffffff166122d3611fd8565b73ffffffffffffffffffffffffffffffffffffffff1614612329576040517f08c379a000000000000000000000000000000000000000000000000000000000815260040161232090614a69565b60405180910390fd5b8060c960006101000a81548173ffffffffffffffffffffffffffffffffffffffff021916908373ffffffffffffffffffffffffffffffffffffffff16021790555060c960009054906101000a900473ffffffffffffffffffffffffffffffffffffffff1673ffffffffffffffffffffffffffffffffffffffff16635fe3b5676040518163ffffffff1660e01b815260040160206040518083038186803b1580156123d257600080fd5b505afa1580156123e6573d6000803e3d6000fd5b505050506040513d601f19601f8201168201806040525081019061240a91906141a8565b60cb60006101000a81548173ffffffffffffffffffffffffffffffffffffffff021916908373ffffffffffffffffffffffffffffffffffffffff16021790555060c960009054906101000a900473ffffffffffffffffffffffffffffffffffffffff1673ffffffffffffffffffffffffffffffffffffffff166361d027b36040518163ffffffff1660e01b815260040160206040518083038186803b1580156124b257600080fd5b505afa1580156124c6573d6000803e3d6000fd5b505050506040513d601f19601f820116820180604052508101906124ea91906141d1565b60ca60006101000a81548173ffffffffffffffffffffffffffffffffffffffff021916908373ffffffffffffffffffffffffffffffffffffffff16021790555050565b6000612588670de0b6b3a764000061257a670de0b6b3a764000061256c8761255e8a8961363f90919063ffffffff16565b61363f90919063ffffffff16565b61365590919063ffffffff16565b61365590919063ffffffff16565b90509392505050565b60008060006125a089896127f4565b905060006125ae8a8a6115f6565b9050846125f9576125f46125e5670de0b6b3a76400006125d78a8a61363f90919063ffffffff16565b61365590919063ffffffff16565b8261368190919063ffffffff16565b612639565b612638612629670de0b6b3a764000061261b8a8a61363f90919063ffffffff16565b61365590919063ffffffff16565b8261366b90919063ffffffff16565b5b9250600060c960009054906101000a900473ffffffffffffffffffffffffffffffffffffffff1673ffffffffffffffffffffffffffffffffffffffff1663bd9e52008a6040518263ffffffff1660e01b81526004016126989190614868565b60606040518083038186803b1580156126b057600080fd5b505afa1580156126c4573d6000803e3d6000fd5b505050506040513d601f19601f820116820180604052508101906126e891906144a8565b600001519050600083141561272c576127256064612717670de0b6b3a76400008461363f90919063ffffffff16565b61365590919063ffffffff16565b94506127e6565b600061275b8561274d670de0b6b3a76400008661363f90919063ffffffff16565b61365590919063ffffffff16565b90506127e26127a7670de0b6b3a76400006127998561278b86670de0b6b3a764000061368190919063ffffffff16565b61363f90919063ffffffff16565b61365590919063ffffffff16565b6127d4670de0b6b3a76400006127c6858961363f90919063ffffffff16565b61365590919063ffffffff16565b61366b90919063ffffffff16565b9550505b505050965096945050505050565b60008060c960009054906101000a900473ffffffffffffffffffffffffffffffffffffffff1673ffffffffffffffffffffffffffffffffffffffff1663294d499e6040518163ffffffff1660e01b815260040160006040518083038186803b15801561285f57600080fd5b505afa158015612873573d6000803e3d6000fd5b505050506040513d6000823e3d601f19601f8201168201806040525081019061289c9190614400565b905060006128aa858561120b565b905060008251905060005b81811015612a4b57612a36612a276064612a19868581518110612901577f4e487b7100000000000000000000000000000000000000000000000000000000600052603260045260246000fd5b6020026020010151612a0b606460c960009054906101000a900473ffffffffffffffffffffffffffffffffffffffff1673ffffffffffffffffffffffffffffffffffffffff1663bd9e52008c8a81518110612985577f4e487b7100000000000000000000000000000000000000000000000000000000600052603260045260246000fd5b60200260200101516040518263ffffffff1660e01b81526004016129a99190614868565b60606040518083038186803b1580156129c157600080fd5b505afa1580156129d5573d6000803e3d6000fd5b505050506040513d601f19601f820116820180604052508101906129f991906144a8565b6000015161363f90919063ffffffff16565b61363f90919063ffffffff16565b61365590919063ffffffff16565b8661366b90919063ffffffff16565b94508080612a439061504f565b9150506128b5565b50612a6060648561365590919063ffffffff16565b935050505092915050565b6060600060c960009054906101000a900473ffffffffffffffffffffffffffffffffffffffff1673ffffffffffffffffffffffffffffffffffffffff1663294d499e6040518163ffffffff1660e01b815260040160006040518083038186803b158015612ad757600080fd5b505afa158015612aeb573d6000803e3d6000fd5b505050506040513d6000823e3d601f19601f82011682018060405250810190612b149190614400565b905060008151905060008167ffffffffffffffff811115612b5e577f4e487b7100000000000000000000000000000000000000000000000000000000600052604160045260246000fd5b604051908082528060200260200182016040528015612b8c5781602001602082028036833780820191505090505b50905060008151905060005b81811015612ce75760c960009054906101000a900473ffffffffffffffffffffffffffffffffffffffff1673ffffffffffffffffffffffffffffffffffffffff1663bd9e5200868381518110612c17577f4e487b7100000000000000000000000000000000000000000000000000000000600052603260045260246000fd5b60200260200101516040518263ffffffff1660e01b8152600401612c3b9190614868565b60606040518083038186803b158015612c5357600080fd5b505afa158015612c67573d6000803e3d6000fd5b505050506040513d601f19601f82011682018060405250810190612c8b91906144a8565b60200151838281518110612cc8577f4e487b7100000000000000000000000000000000000000000000000000000000600052603260045260246000fd5b6020026020010181815250508080612cdf9061504f565b915050612b98565b5060008167ffffffffffffffff811115612d2a577f4e487b7100000000000000000000000000000000000000000000000000000000600052604160045260246000fd5b604051908082528060200260200182016040528015612d585781602001602082028036833780820191505090505b50905060008151905060005b81811015612e0557848181518110612da5577f4e487b7100000000000000000000000000000000000000000000000000000000600052603260045260246000fd5b6020026020010151838281518110612de6577f4e487b7100000000000000000000000000000000000000000000000000000000600052603260045260246000fd5b6020026020010181815250508080612dfd9061504f565b915050612d64565b50612e1f82600060018551612e1a9190614eb2565b610720565b60008567ffffffffffffffff811115612e61577f4e487b7100000000000000000000000000000000000000000000000000000000600052604160045260246000fd5b604051908082528060200260200182016040528015612e8f5781602001602082028036833780820191505090505b50905060005b82811015612fa65760005b85811015612f9257848281518110612ee1577f4e487b7100000000000000000000000000000000000000000000000000000000600052603260045260246000fd5b6020026020010151878281518110612f22577f4e487b7100000000000000000000000000000000000000000000000000000000600052603260045260246000fd5b602002602001015114612f3457612f7f565b80838381518110612f6e577f4e487b7100000000000000000000000000000000000000000000000000000000600052603260045260246000fd5b602002602001018181525050612f92565b8080612f8a9061504f565b915050612ea0565b508080612f9e9061504f565b915050612e95565b508567ffffffffffffffff811115612fe7577f4e487b7100000000000000000000000000000000000000000000000000000000600052604160045260246000fd5b6040519080825280602002602001820160405280156130155781602001602082028036833780820191505090505b50975060005b8681101561314d57600082828151811061305e577f4e487b7100000000000000000000000000000000000000000000000000000000600052603260045260246000fd5b6020026020010151905060006001838a6130789190614eb2565b6130829190614eb2565b90508982815181106130bd577f4e487b7100000000000000000000000000000000000000000000000000000000600052603260045260246000fd5b60200260200101518b82815181106130fe577f4e487b7100000000000000000000000000000000000000000000000000000000600052603260045260246000fd5b602002602001019073ffffffffffffffffffffffffffffffffffffffff16908173ffffffffffffffffffffffffffffffffffffffff1681525050505080806131459061504f565b91505061301b565b505050505050505090565b60008061316585856115f6565b9050600081141561317a5760009150506131de565b60006131b2670de0b6b3a76400006131a4866131968a8a6131e5565b61363f90919063ffffffff16565b61365590919063ffffffff16565b90508082116131c6576000925050506131de565b6131d9818361368190919063ffffffff16565b925050505b9392505050565b600061336a670de0b6b3a764000061335c60c960009054906101000a900473ffffffffffffffffffffffffffffffffffffffff1673ffffffffffffffffffffffffffffffffffffffff1663d02641a0866040518263ffffffff1660e01b81526004016132519190614868565b60206040518083038186803b15801561326957600080fd5b505afa15801561327d573d6000803e3d6000fd5b505050506040513d601f19601f820116820180604052508101906132a191906144d1565b60c960009054906101000a900473ffffffffffffffffffffffffffffffffffffffff1673ffffffffffffffffffffffffffffffffffffffff1663498b5ae888886040518363ffffffff1660e01b81526004016132fe929190614883565b60206040518083038186803b15801561331657600080fd5b505afa15801561332a573d6000803e3d6000fd5b505050506040513d601f19601f8201168201806040525081019061334e91906144d1565b61363f90919063ffffffff16565b61365590919063ffffffff16565b905092915050565b60008060006133868a8a8a8a886001612591565b915091506133fe670de0b6b3a76400006133f0846133e26133a78f8f6131e5565b6133d4670de0b6b3a76400006133c68d8f61363f90919063ffffffff16565b61365590919063ffffffff16565b61366b90919063ffffffff16565b61363f90919063ffffffff16565b61365590919063ffffffff16565b81101592505050979650505050505050565b6000613426838361342186866127f4565b613158565b905092915050565b61343661392a565b73ffffffffffffffffffffffffffffffffffffffff16613454611fd8565b73ffffffffffffffffffffffffffffffffffffffff16146134aa576040517f08c379a00000000000000000000000000000000000000000000000000000000081526004016134a190614a69565b60405180910390fd5b600073ffffffffffffffffffffffffffffffffffffffff168173ffffffffffffffffffffffffffffffffffffffff16141561351a576040517f08c379a0000000000000000000000000000000000000000000000000000000008152600401613511906149c9565b60405180910390fd5b8073ffffffffffffffffffffffffffffffffffffffff16609760009054906101000a900473ffffffffffffffffffffffffffffffffffffffff1673ffffffffffffffffffffffffffffffffffffffff167f8be0079c531659141344cd1fd0a4f28419497f9722a3daafe3b4186f6b6457e060405160405180910390a380609760006101000a81548173ffffffffffffffffffffffffffffffffffffffff021916908373ffffffffffffffffffffffffffffffffffffffff16021790555050565b6000806135e784846127f4565b905060006136226064613614670de0b6b3a76400006136068989611909565b61363f90919063ffffffff16565b61365590919063ffffffff16565b9050600081141580156136355750818110155b9250505092915050565b6000818361364d9190614dc4565b905092915050565b600081836136639190614d93565b905092915050565b600081836136799190614cd3565b905092915050565b6000818361368f9190614eb2565b905092915050565b61369f61392a565b73ffffffffffffffffffffffffffffffffffffffff166136bd611fd8565b73ffffffffffffffffffffffffffffffffffffffff1614613713576040517f08c379a000000000000000000000000000000000000000000000000000000000815260040161370a90614a69565b60405180910390fd5b50565b6000613720613a1b565b905061372b84613a72565b6000835111806137385750815b15613749576137478484613b2b565b505b60006137777f4910fdfa16fed3260ed0e7147f7cc6da11a60208b5b9406d12a635614ffd914360001b613c0f565b90508060000160009054906101000a900460ff166139235760018160000160006101000a81548160ff02191690831515021790555061384385836040516024016137c19190614868565b6040516020818303038152906040527f3659cfe6000000000000000000000000000000000000000000000000000000007bffffffffffffffffffffffffffffffffffffffffffffffffffffffff19166020820180517bffffffffffffffffffffffffffffffffffffffffffffffffffffffff8381831617835250505050613b2b565b5060008160000160006101000a81548160ff021916908315150217905550613869613a1b565b73ffffffffffffffffffffffffffffffffffffffff168273ffffffffffffffffffffffffffffffffffffffff16146138d6576040517f08c379a00000000000000000000000000000000000000000000000000000000081526004016138cd906149a9565b60405180910390fd5b6138df85613a72565b8473ffffffffffffffffffffffffffffffffffffffff167fbc7cd75a20ee27fd9adebab32041f755214dbc6bffa90cc0225b39da2e5c2d3b60405160405180910390a25b5050505050565b600033905090565b600060019054906101000a900460ff1680613958575060008054906101000a900460ff16155b613997576040517f08c379a000000000000000000000000000000000000000000000000000000000815260040161398e90614a29565b60405180910390fd5b60008060019054906101000a900460ff1615905080156139e7576001600060016101000a81548160ff02191690831515021790555060016000806101000a81548160ff0219169083151502179055505b6139ef613c19565b6139f7613cf2565b8015613a185760008060016101000a81548160ff0219169083151502179055505b50565b6000613a497f360894a13ba1a3210667c828492db98dca3e2076cc3735a920a3ca505d382bbc60001b613e74565b60000160009054906101000a900473ffffffffffffffffffffffffffffffffffffffff16905090565b613a7b81613e7e565b613aba576040517f08c379a0000000000000000000000000000000000000000000000000000000008152600401613ab190614a49565b60405180910390fd5b80613ae77f360894a13ba1a3210667c828492db98dca3e2076cc3735a920a3ca505d382bbc60001b613e74565b60000160006101000a81548173ffffffffffffffffffffffffffffffffffffffff021916908373ffffffffffffffffffffffffffffffffffffffff16021790555050565b6060613b3683613e7e565b613b75576040517f08c379a0000000000000000000000000000000000000000000000000000000008152600401613b6c90614a89565b60405180910390fd5b6000808473ffffffffffffffffffffffffffffffffffffffff1684604051613b9d9190614851565b600060405180830381855af49150503d8060008114613bd8576040519150601f19603f3d011682016040523d82523d6000602084013e613bdd565b606091505b5091509150613c0582826040518060600160405280602781526020016153b060279139613e91565b9250505092915050565b6000819050919050565b600060019054906101000a900460ff1680613c3f575060008054906101000a900460ff16155b613c7e576040517f08c379a0000000000000000000000000000000000000000000000000000000008152600401613c7590614a29565b60405180910390fd5b60008060019054906101000a900460ff161590508015613cce576001600060016101000a81548160ff02191690831515021790555060016000806101000a81548160ff0219169083151502179055505b8015613cef5760008060016101000a81548160ff0219169083151502179055505b50565b600060019054906101000a900460ff1680613d18575060008054906101000a900460ff16155b613d57576040517f08c379a0000000000000000000000000000000000000000000000000000000008152600401613d4e90614a29565b60405180910390fd5b60008060019054906101000a900460ff161590508015613da7576001600060016101000a81548160ff02191690831515021790555060016000806101000a81548160ff0219169083151502179055505b6000613db161392a565b905080609760006101000a81548173ffffffffffffffffffffffffffffffffffffffff021916908373ffffffffffffffffffffffffffffffffffffffff1602179055508073ffffffffffffffffffffffffffffffffffffffff16600073ffffffffffffffffffffffffffffffffffffffff167f8be0079c531659141344cd1fd0a4f28419497f9722a3daafe3b4186f6b6457e060405160405180910390a3508015613e715760008060016101000a81548160ff0219169083151502179055505b50565b6000819050919050565b600080823b905060008111915050919050565b60608315613ea157829050613ef1565b600083511115613eb45782518084602001fd5b816040517f08c379a0000000000000000000000000000000000000000000000000000000008152600401613ee89190614987565b60405180910390fd5b9392505050565b6000613f0b613f0684614b12565b614aed565b90508083825260208201905082856020860282011115613f2a57600080fd5b60005b85811015613f5a5781613f408882614023565b845260208401935060208301925050600181019050613f2d565b5050509392505050565b6000613f77613f7284614b3e565b614aed565b90508083825260208201905082856020860282011115613f9657600080fd5b60005b85811015613fc65781613fac8882614155565b845260208401935060208301925050600181019050613f99565b5050509392505050565b6000613fe3613fde84614b6a565b614aed565b905082815260208101848484011115613ffb57600080fd5b614006848285614f4a565b509392505050565b60008135905061401d8161533c565b92915050565b6000815190506140328161533c565b92915050565b60008151905061404781615353565b92915050565b600082601f83011261405e57600080fd5b815161406e848260208601613ef8565b91505092915050565b600082601f83011261408857600080fd5b8135614098848260208601613f64565b91505092915050565b6000813590506140b08161536a565b92915050565b600082601f8301126140c757600080fd5b81356140d7848260208601613fd0565b91505092915050565b6000813590506140ef81615381565b92915050565b60006060828403121561410757600080fd5b6141116060614aed565b905060006141218482850161416a565b60008301525060206141358482850161416a565b60208301525060406141498482850161416a565b60408301525092915050565b60008135905061416481615398565b92915050565b60008151905061417981615398565b92915050565b60006020828403121561419157600080fd5b600061419f8482850161400e565b91505092915050565b6000602082840312156141ba57600080fd5b60006141c884828501614023565b91505092915050565b6000602082840312156141e357600080fd5b60006141f184828501614038565b91505092915050565b6000806040838503121561420d57600080fd5b600061421b8582860161400e565b925050602061422c8582860161400e565b9150509250929050565b60008060008060008060c0878903121561424f57600080fd5b600061425d89828a0161400e565b965050602061426e89828a0161400e565b955050604061427f89828a0161400e565b945050606061429089828a01614155565b93505060806142a189828a01614155565b92505060a06142b289828a016140a1565b9150509295509295509295565b600080600080600080600060e0888a0312156142da57600080fd5b60006142e88a828b0161400e565b97505060206142f98a828b0161400e565b965050604061430a8a828b0161400e565b955050606061431b8a828b01614155565b945050608061432c8a828b01614155565b93505060a061433d8a828b01614155565b92505060c061434e8a828b01614155565b91505092959891949750929550565b60008060006060848603121561437257600080fd5b60006143808682870161400e565b93505060206143918682870161400e565b92505060406143a286828701614155565b9150509250925092565b600080604083850312156143bf57600080fd5b60006143cd8582860161400e565b925050602083013567ffffffffffffffff8111156143ea57600080fd5b6143f6858286016140b6565b9150509250929050565b60006020828403121561441257600080fd5b600082015167ffffffffffffffff81111561442c57600080fd5b6144388482850161404d565b91505092915050565b60008060006060848603121561445657600080fd5b600084013567ffffffffffffffff81111561447057600080fd5b61447c86828701614077565b935050602061448d868287016140e0565b925050604061449e868287016140e0565b9150509250925092565b6000606082840312156144ba57600080fd5b60006144c8848285016140f5565b91505092915050565b6000602082840312156144e357600080fd5b60006144f18482850161416a565b91505092915050565b60008060006060848603121561450f57600080fd5b600061451d86828701614155565b935050602061452e8682870161400e565b925050604061453f8682870161400e565b9150509250925092565b60008060006060848603121561455e57600080fd5b600061456c86828701614155565b935050602061457d86828701614155565b925050604061458e86828701614155565b9150509250925092565b60006145a483836145c8565b60208301905092915050565b60006145bc8383614833565b60208301905092915050565b6145d181614ee6565b82525050565b6145e081614ee6565b82525050565b60006145f182614bbb565b6145fb8185614c01565b935061460683614b9b565b8060005b8381101561463757815161461e8882614598565b975061462983614be7565b92505060018101905061460a565b5085935050505092915050565b600061464f82614bc6565b6146598185614c12565b935061466483614bab565b8060005b8381101561469557815161467c88826145b0565b975061468783614bf4565b925050600181019050614668565b5085935050505092915050565b6146ab81614f0a565b82525050565b60006146bc82614bd1565b6146c68185614c23565b93506146d6818560208601614f59565b80840191505092915050565b60006146ed82614bdc565b6146f78185614c2e565b9350614707818560208601614f59565b61471081615125565b840191505092915050565b6000614728602f83614c2e565b915061473382615136565b604082019050919050565b600061474b602683614c2e565b915061475682615185565b604082019050919050565b600061476e601183614c2e565b9150614779826151d4565b602082019050919050565b6000614791600283614c2e565b915061479c826151fd565b602082019050919050565b60006147b4602e83614c2e565b91506147bf82615226565b604082019050919050565b60006147d7602d83614c2e565b91506147e282615275565b604082019050919050565b60006147fa602083614c2e565b9150614805826152c4565b602082019050919050565b600061481d602683614c2e565b9150614828826152ed565b604082019050919050565b61483c81614f40565b82525050565b61484b81614f40565b82525050565b600061485d82846146b1565b915081905092915050565b600060208201905061487d60008301846145d7565b92915050565b600060408201905061489860008301856145d7565b6148a560208301846145d7565b9392505050565b60006060820190506148c160008301866145d7565b6148ce60208301856145d7565b6148db60408301846145d7565b949350505050565b600060208201905081810360008301526148fd81846145e6565b905092915050565b6000606082019050818103600083015261491f81866145e6565b905081810360208301526149338185614644565b905061494260408301846146a2565b949350505050565b600060208201905081810360008301526149648184614644565b905092915050565b600060208201905061498160008301846146a2565b92915050565b600060208201905081810360008301526149a181846146e2565b905092915050565b600060208201905081810360008301526149c28161471b565b9050919050565b600060208201905081810360008301526149e28161473e565b9050919050565b60006020820190508181036000830152614a0281614761565b9050919050565b60006020820190508181036000830152614a2281614784565b9050919050565b60006020820190508181036000830152614a42816147a7565b9050919050565b60006020820190508181036000830152614a62816147ca565b9050919050565b60006020820190508181036000830152614a82816147ed565b9050919050565b60006020820190508181036000830152614aa281614810565b9050919050565b6000602082019050614abe6000830184614842565b92915050565b6000604082019050614ad96000830185614842565b614ae66020830184614842565b9392505050565b6000614af7614b08565b9050614b038282614fd5565b919050565b6000604051905090565b600067ffffffffffffffff821115614b2d57614b2c6150f6565b5b602082029050602081019050919050565b600067ffffffffffffffff821115614b5957614b586150f6565b5b602082029050602081019050919050565b600067ffffffffffffffff821115614b8557614b846150f6565b5b614b8e82615125565b9050602081019050919050565b6000819050602082019050919050565b6000819050602082019050919050565b600081519050919050565b600081519050919050565b600081519050919050565b600081519050919050565b6000602082019050919050565b6000602082019050919050565b600082825260208201905092915050565b600082825260208201905092915050565b600081905092915050565b600082825260208201905092915050565b6000614c4a82614f16565b9150614c5583614f16565b9250817f7fffffffffffffffffffffffffffffffffffffffffffffffffffffffffffffff03831360008312151615614c9057614c8f615098565b5b817f8000000000000000000000000000000000000000000000000000000000000000038312600083121615614cc857614cc7615098565b5b828201905092915050565b6000614cde82614f40565b9150614ce983614f40565b9250827fffffffffffffffffffffffffffffffffffffffffffffffffffffffffffffffff03821115614d1e57614d1d615098565b5b828201905092915050565b6000614d3482614f16565b9150614d3f83614f16565b925082614d4f57614d4e6150c7565b5b600160000383147f800000000000000000000000000000000000000000000000000000000000000083141615614d8857614d87615098565b5b828205905092915050565b6000614d9e82614f40565b9150614da983614f40565b925082614db957614db86150c7565b5b828204905092915050565b6000614dcf82614f40565b9150614dda83614f40565b9250817fffffffffffffffffffffffffffffffffffffffffffffffffffffffffffffffff0483118215151615614e1357614e12615098565b5b828202905092915050565b6000614e2982614f16565b9150614e3483614f16565b9250827f800000000000000000000000000000000000000000000000000000000000000001821260008412151615614e6f57614e6e615098565b5b827f7fffffffffffffffffffffffffffffffffffffffffffffffffffffffffffffff018213600084121615614ea757614ea6615098565b5b828203905092915050565b6000614ebd82614f40565b9150614ec883614f40565b925082821015614edb57614eda615098565b5b828203905092915050565b6000614ef182614f20565b9050919050565b6000614f0382614f20565b9050919050565b60008115159050919050565b6000819050919050565b600073ffffffffffffffffffffffffffffffffffffffff82169050919050565b6000819050919050565b82818337600083830152505050565b60005b83811015614f77578082015181840152602081019050614f5c565b83811115614f86576000848401525b50505050565b6000614f9782614f16565b91507f8000000000000000000000000000000000000000000000000000000000000000821415614fca57614fc9615098565b5b600182039050919050565b614fde82615125565b810181811067ffffffffffffffff82111715614ffd57614ffc6150f6565b5b80604052505050565b600061501182614f16565b91507f7fffffffffffffffffffffffffffffffffffffffffffffffffffffffffffffff82141561504457615043615098565b5b600182019050919050565b600061505a82614f40565b91507fffffffffffffffffffffffffffffffffffffffffffffffffffffffffffffffff82141561508d5761508c615098565b5b600182019050919050565b7f4e487b7100000000000000000000000000000000000000000000000000000000600052601160045260246000fd5b7f4e487b7100000000000000000000000000000000000000000000000000000000600052601260045260246000fd5b7f4e487b7100000000000000000000000000000000000000000000000000000000600052604160045260246000fd5b6000601f19601f8301169050919050565b7f45524331393637557067726164653a207570677261646520627265616b73206660008201527f7572746865722075706772616465730000000000000000000000000000000000602082015250565b7f4f776e61626c653a206e6577206f776e657220697320746865207a65726f206160008201527f6464726573730000000000000000000000000000000000000000000000000000602082015250565b7f496e76616c696420435220746172676574000000000000000000000000000000600082015250565b7f4352000000000000000000000000000000000000000000000000000000000000600082015250565b7f496e697469616c697a61626c653a20636f6e747261637420697320616c72656160008201527f647920696e697469616c697a6564000000000000000000000000000000000000602082015250565b7f455243313936373a206e657720696d706c656d656e746174696f6e206973206e60008201527f6f74206120636f6e747261637400000000000000000000000000000000000000602082015250565b7f4f776e61626c653a2063616c6c6572206973206e6f7420746865206f776e6572600082015250565b7f416464726573733a2064656c65676174652063616c6c20746f206e6f6e2d636f60008201527f6e74726163740000000000000000000000000000000000000000000000000000602082015250565b61534581614ee6565b811461535057600080fd5b50565b61535c81614ef8565b811461536757600080fd5b50565b61537381614f0a565b811461537e57600080fd5b50565b61538a81614f16565b811461539557600080fd5b50565b6153a181614f40565b81146153ac57600080fd5b5056fe416464726573733a206c6f772d6c6576656c2064656c65676174652063616c6c206661696c6564a2646970667358221220df75fd2c5d2845131fc3c0d3c313748678466427f952e91c77b08d67b382ada464736f6c63430008030033",
  "linkReferences": {},
  "deployedLinkReferences": {}
}