{
  "_format": "hh-sol-artifact-1",
  "contractName": "VaultLibrary",
  "sourceName": "contracts/Bank/VaultLibrary.sol",
  "abi": [
    {
      "inputs": [
        {
          "internalType": "address",
          "name": "_comptroller",
          "type": "address"
        },
        {
          "internalType": "address",
          "name": "_treasury",
          "type": "address"
        }
      ],
      "stateMutability": "nonpayable",
      "type": "constructor"
    },
    {
      "anonymous": false,
      "inputs": [
        {
          "indexed": true,
          "internalType": "address",
          "name": "previousOwner",
          "type": "address"
        },
        {
          "indexed": true,
          "internalType": "address",
          "name": "newOwner",
          "type": "address"
        }
      ],
      "name": "OwnershipTransferred",
      "type": "event"
    },
    {
      "inputs": [
        {
          "internalType": "address",
          "name": "user",
          "type": "address"
        },
        {
          "internalType": "address",
          "name": "fxToken",
          "type": "address"
        }
      ],
      "name": "calculateInterest",
      "outputs": [
        {
          "internalType": "uint256",
          "name": "interest",
          "type": "uint256"
        }
      ],
      "stateMutability": "view",
      "type": "function"
    },
    {
      "inputs": [
        {
          "internalType": "address",
          "name": "account",
          "type": "address"
        },
        {
          "internalType": "address",
          "name": "fxToken",
          "type": "address"
        },
        {
          "internalType": "enum IVaultLibrary.CollateralRatioType",
          "name": "crt",
          "type": "uint8"
        }
      ],
      "name": "doesMeetRatio",
      "outputs": [
        {
          "internalType": "bool",
          "name": "",
          "type": "bool"
        }
      ],
      "stateMutability": "view",
      "type": "function"
    },
    {
      "inputs": [
        {
          "internalType": "address",
          "name": "account",
          "type": "address"
        },
        {
          "internalType": "address",
          "name": "fxToken",
          "type": "address"
        },
        {
          "internalType": "uint256",
          "name": "amountEth",
          "type": "uint256"
        }
      ],
      "name": "getCollateralForAmount",
      "outputs": [
        {
          "internalType": "address[]",
          "name": "collateralTypes",
          "type": "address[]"
        },
        {
          "internalType": "uint256[]",
          "name": "collateralAmounts",
          "type": "uint256[]"
        },
        {
          "internalType": "bool",
          "name": "metAmount",
          "type": "bool"
        }
      ],
      "stateMutability": "view",
      "type": "function"
    },
    {
      "inputs": [
        {
          "internalType": "uint256",
          "name": "assetAmount",
          "type": "uint256"
        },
        {
          "internalType": "address",
          "name": "fxToken",
          "type": "address"
        },
        {
          "internalType": "enum IVaultLibrary.CollateralRatioType",
          "name": "crt",
          "type": "uint8"
        }
      ],
      "name": "getCollateralRequiredAsEth",
      "outputs": [
        {
          "internalType": "uint256",
          "name": "requiredCollateral",
          "type": "uint256"
        }
      ],
      "stateMutability": "view",
      "type": "function"
    },
    {
      "inputs": [
        {
          "internalType": "address",
          "name": "account",
          "type": "address"
        },
        {
          "internalType": "address",
          "name": "fxToken",
          "type": "address"
        }
      ],
      "name": "getCurrentRatio",
      "outputs": [
        {
          "internalType": "uint256",
          "name": "ratio",
          "type": "uint256"
        }
      ],
      "stateMutability": "view",
      "type": "function"
    },
    {
      "inputs": [
        {
          "internalType": "address",
          "name": "account",
          "type": "address"
        },
        {
          "internalType": "address",
          "name": "fxToken",
          "type": "address"
        }
      ],
      "name": "getFreeCollateralAsEth",
      "outputs": [
        {
          "internalType": "uint256",
          "name": "",
          "type": "uint256"
        }
      ],
      "stateMutability": "view",
      "type": "function"
    },
    {
      "inputs": [
        {
          "internalType": "address",
          "name": "user",
          "type": "address"
        },
        {
          "internalType": "address",
          "name": "fxToken",
          "type": "address"
        }
      ],
      "name": "getInterestRate",
      "outputs": [
        {
          "internalType": "uint256",
          "name": "",
          "type": "uint256"
        }
      ],
      "stateMutability": "view",
      "type": "function"
    },
    {
      "inputs": [
        {
          "internalType": "uint256",
          "name": "tokenAmount",
          "type": "uint256"
        },
        {
          "internalType": "uint256",
          "name": "ratio",
          "type": "uint256"
        },
        {
          "internalType": "uint256",
          "name": "unitPrice",
          "type": "uint256"
        }
      ],
      "name": "getMinimumCollateral",
      "outputs": [
        {
          "internalType": "uint256",
          "name": "minimum",
          "type": "uint256"
        }
      ],
      "stateMutability": "pure",
      "type": "function"
    },
    {
      "inputs": [
        {
          "internalType": "address",
          "name": "account",
          "type": "address"
        }
      ],
      "name": "getTotalDebtAsEth",
      "outputs": [
        {
          "internalType": "uint256",
          "name": "debt",
          "type": "uint256"
        }
      ],
      "stateMutability": "view",
      "type": "function"
    },
    {
      "inputs": [
        {
          "internalType": "address",
          "name": "account",
          "type": "address"
        },
        {
          "internalType": "address",
          "name": "fxToken",
          "type": "address"
        }
      ],
      "name": "getVaultMinimumRatio",
      "outputs": [
        {
          "internalType": "uint256",
          "name": "ratio",
          "type": "uint256"
        }
      ],
      "stateMutability": "view",
      "type": "function"
    },
    {
      "inputs": [],
      "name": "owner",
      "outputs": [
        {
          "internalType": "address",
          "name": "",
          "type": "address"
        }
      ],
      "stateMutability": "view",
      "type": "function"
    },
    {
      "inputs": [],
      "name": "renounceOwnership",
      "outputs": [],
      "stateMutability": "nonpayable",
      "type": "function"
    },
    {
      "inputs": [
        {
          "internalType": "address",
          "name": "_comptroller",
          "type": "address"
        },
        {
          "internalType": "address",
          "name": "_treasury",
          "type": "address"
        }
      ],
      "name": "setContracts",
      "outputs": [],
      "stateMutability": "nonpayable",
      "type": "function"
    },
    {
      "inputs": [
        {
          "internalType": "address",
          "name": "newOwner",
          "type": "address"
        }
      ],
      "name": "transferOwnership",
      "outputs": [],
      "stateMutability": "nonpayable",
      "type": "function"
    }
  ],
  "bytecode": "0x60806040523480156200001157600080fd5b506040516200292738038062002927833981810160405281019062000037919062000190565b6000620000496200017160201b60201c565b9050806000806101000a81548173ffffffffffffffffffffffffffffffffffffffff021916908373ffffffffffffffffffffffffffffffffffffffff1602179055508073ffffffffffffffffffffffffffffffffffffffff16600073ffffffffffffffffffffffffffffffffffffffff167f8be0079c531659141344cd1fd0a4f28419497f9722a3daafe3b4186f6b6457e060405160405180910390a35081600160006101000a81548173ffffffffffffffffffffffffffffffffffffffff021916908373ffffffffffffffffffffffffffffffffffffffff16021790555080600260006101000a81548173ffffffffffffffffffffffffffffffffffffffff021916908373ffffffffffffffffffffffffffffffffffffffff16021790555050506200021f565b600033905090565b6000815190506200018a8162000205565b92915050565b60008060408385031215620001a457600080fd5b6000620001b48582860162000179565b9250506020620001c78582860162000179565b9150509250929050565b6000620001de82620001e5565b9050919050565b600073ffffffffffffffffffffffffffffffffffffffff82169050919050565b6200021081620001d1565b81146200021c57600080fd5b50565b6126f8806200022f6000396000f3fe608060405234801561001057600080fd5b50600436106100ea5760003560e01c8063870929401161008c578063d8952a4911610066578063d8952a4914610299578063e58987fb146102b5578063e76ab239146102e5578063f2fde38b14610315576100ea565b8063870929401461021b5780638da5cb5b1461024b5780639e718d0714610269576100ea565b8063234ab3e2116100c8578063234ab3e21461017f578063458f9fc2146101b15780635a763fbb146101e1578063715018a614610211576100ea565b8063027ff1e1146100ef57806312ffb6781461011f578063159a06291461014f575b600080fd5b610109600480360381019061010491906120ff565b610331565b60405161011691906124ee565b60405180910390f35b610139600480360381019061013491906120c3565b610468565b6040516101469190612509565b60405180910390f35b610169600480360381019061016491906120c3565b61081e565b6040516101769190612509565b60405180910390f35b6101996004803603810190610194919061214e565b610c08565b6040516101a8939291906124a9565b60405180910390f35b6101cb60048036038101906101c6919061209a565b61100b565b6040516101d89190612509565b60405180910390f35b6101fb60048036038101906101f691906120c3565b61124b565b6040516102089190612509565b60405180910390f35b610219611333565b005b610235600480360381019061023091906120c3565b6114b9565b6040516102429190612509565b60405180910390f35b61025361165a565b604051610260919061242e565b60405180910390f35b610283600480360381019061027e91906122a8565b611683565b6040516102909190612509565b60405180910390f35b6102b360048036038101906102ae91906120c3565b6116e0565b005b6102cf60048036038101906102ca9190612259565b61182e565b6040516102dc9190612509565b60405180910390f35b6102ff60048036038101906102fa91906120c3565b611837565b60405161030c9190612509565b60405180910390f35b61032f600480360381019061032a919061209a565b61194c565b005b600080600090506000600281111561034557fe5b83600281111561035157fe5b148061037357506001600281111561036557fe5b83600281111561037157fe5b145b1561038957610382858561081e565b905061043e565b60028081111561039557fe5b8360028111156103a157fe5b141561043d576103af611b57565b73ffffffffffffffffffffffffffffffffffffffff166388aa8bee856040518263ffffffff1660e01b81526004016103e7919061242e565b604080518083038186803b1580156103fe57600080fd5b505afa158015610412573d6000803e3d6000fd5b505050506040513d601f19601f820116820180604052508101906104369190612207565b6000015190505b5b600061044a868661124b565b90506000811415801561045d5750818110155b925050509392505050565b600080610473611b57565b73ffffffffffffffffffffffffffffffffffffffff1663294d499e6040518163ffffffff1660e01b815260040160006040518083038186803b1580156104b857600080fd5b505afa1580156104cc573d6000803e3d6000fd5b505050506040513d6000823e3d601f19601f820116820180604052508101906104f5919061219d565b90506000610501611b81565b73ffffffffffffffffffffffffffffffffffffffff16634c90f22986866040518363ffffffff1660e01b815260040161053b929190612449565b60206040518083038186803b15801561055357600080fd5b505afa158015610567573d6000803e3d6000fd5b505050506040513d601f19601f8201168201806040525081019061058b9190612230565b905060008114156105a157600092505050610818565b6000805b8351811015610810576000610725670de0b6b3a76400006107176105c7611b57565b73ffffffffffffffffffffffffffffffffffffffff1663d02641a08987815181106105ee57fe5b60200260200101516040518263ffffffff1660e01b8152600401610612919061242e565b60206040518083038186803b15801561062a57600080fd5b505afa15801561063e573d6000803e3d6000fd5b505050506040513d601f19601f820116820180604052508101906106629190612230565b61066a611b81565b73ffffffffffffffffffffffffffffffffffffffff1663c462b5208d8b898151811061069257fe5b60200260200101518e6040518463ffffffff1660e01b81526004016106b993929190612472565b60206040518083038186803b1580156106d157600080fd5b505afa1580156106e5573d6000803e3d6000fd5b505050506040513d601f19601f820116820180604052508101906107099190612230565b611bab90919063ffffffff16565b611c3190919063ffffffff16565b90506108006107f1856107e38461073a611b81565b73ffffffffffffffffffffffffffffffffffffffff16637c2c69c08b898151811061076157fe5b60200260200101516040518263ffffffff1660e01b8152600401610785919061242e565b60206040518083038186803b15801561079d57600080fd5b505afa1580156107b1573d6000803e3d6000fd5b505050506040513d601f19601f820116820180604052508101906107d59190612230565b611bab90919063ffffffff16565b611c3190919063ffffffff16565b84611c7b90919063ffffffff16565b92505080806001019150506105a5565b508093505050505b92915050565b600080610829611b81565b73ffffffffffffffffffffffffffffffffffffffff16634c90f22985856040518363ffffffff1660e01b8152600401610863929190612449565b60206040518083038186803b15801561087b57600080fd5b505afa15801561088f573d6000803e3d6000fd5b505050506040513d601f19601f820116820180604052508101906108b39190612230565b905060008114156108c8576000915050610c02565b60008060006108d5611b57565b73ffffffffffffffffffffffffffffffffffffffff1663294d499e6040518163ffffffff1660e01b815260040160006040518083038186803b15801561091a57600080fd5b505afa15801561092e573d6000803e3d6000fd5b505050506040513d6000823e3d601f19601f82011682018060405250810190610957919061219d565b905060005b8151811015610be55761096d611b81565b73ffffffffffffffffffffffffffffffffffffffff1663c462b5208984848151811061099557fe5b60200260200101518a6040518463ffffffff1660e01b81526004016109bc93929190612472565b60206040518083038186803b1580156109d457600080fd5b505afa1580156109e8573d6000803e3d6000fd5b505050506040513d601f19601f82011682018060405250810190610a0c9190612230565b9350610add670de0b6b3a7640000610acf86610a26611b57565b73ffffffffffffffffffffffffffffffffffffffff1663d02641a0878781518110610a4d57fe5b60200260200101516040518263ffffffff1660e01b8152600401610a71919061242e565b60206040518083038186803b158015610a8957600080fd5b505afa158015610a9d573d6000803e3d6000fd5b505050506040513d601f19601f82011682018060405250810190610ac19190612230565b611bab90919063ffffffff16565b611c3190919063ffffffff16565b92506000610b0886610afa6103e887611bab90919063ffffffff16565b611c3190919063ffffffff16565b9050610bd5610bc682610b19611b57565b73ffffffffffffffffffffffffffffffffffffffff1663bd9e5200878781518110610b4057fe5b60200260200101516040518263ffffffff1660e01b8152600401610b64919061242e565b60806040518083038186803b158015610b7c57600080fd5b505afa158015610b90573d6000803e3d6000fd5b505050506040513d601f19601f82011682018060405250810190610bb491906121de565b60000151611bab90919063ffffffff16565b88611c7b90919063ffffffff16565b965050808060010191505061095c565b50610bfb6103e886611c3190919063ffffffff16565b9450505050505b92915050565b606080600080610c16611b57565b73ffffffffffffffffffffffffffffffffffffffff1663294d499e6040518163ffffffff1660e01b815260040160006040518083038186803b158015610c5b57600080fd5b505afa158015610c6f573d6000803e3d6000fd5b505050506040513d6000823e3d601f19601f82011682018060405250810190610c98919061219d565b9050805167ffffffffffffffff81118015610cb257600080fd5b50604051908082528060200260200182016040528015610ce15781602001602082028036833780820191505090505b509250805167ffffffffffffffff81118015610cfc57600080fd5b50604051908082528060200260200182016040528015610d2b5781602001602082028036833780820191505090505b509350600091506000805b8251811015610ffa576000610d49611b81565b73ffffffffffffffffffffffffffffffffffffffff1663c462b5208b868581518110610d7157fe5b60200260200101518c6040518463ffffffff1660e01b8152600401610d9893929190612472565b60206040518083038186803b158015610db057600080fd5b505afa158015610dc4573d6000803e3d6000fd5b505050506040513d601f19601f82011682018060405250810190610de89190612230565b90506000610df4611b57565b73ffffffffffffffffffffffffffffffffffffffff1663d02641a0868581518110610e1b57fe5b60200260200101516040518263ffffffff1660e01b8152600401610e3f919061242e565b60206040518083038186803b158015610e5757600080fd5b505afa158015610e6b573d6000803e3d6000fd5b505050506040513d601f19601f82011682018060405250810190610e8f9190612230565b90506000610ec0670de0b6b3a7640000610eb28585611bab90919063ffffffff16565b611c3190919063ffffffff16565b905060008a610ed88388611c7b90919063ffffffff16565b10159050868581518110610ee857fe5b60200260200101518a8681518110610efc57fe5b602002602001019073ffffffffffffffffffffffffffffffffffffffff16908173ffffffffffffffffffffffffffffffffffffffff168152505080610f725783898681518110610f4857fe5b602002602001018181525050610f678287611c7b90919063ffffffff16565b955050505050610fed565b6000610f87878d611d0390919063ffffffff16565b9050610fb684610fa8670de0b6b3a764000084611bab90919063ffffffff16565b611c3190919063ffffffff16565b8a8781518110610fc257fe5b602002602001018181525050610fe18188611c7b90919063ffffffff16565b96505050505050610ffa565b8080600101915050610d36565b508581149250505093509350939050565b600080611016611b57565b73ffffffffffffffffffffffffffffffffffffffff1663d1601f136040518163ffffffff1660e01b815260040160006040518083038186803b15801561105b57600080fd5b505afa15801561106f573d6000803e3d6000fd5b505050506040513d6000823e3d601f19601f82011682018060405250810190611098919061219d565b90506000915060005b815181101561124457600061121f670de0b6b3a76400006112116110c3611b57565b73ffffffffffffffffffffffffffffffffffffffff1663d02641a08787815181106110ea57fe5b60200260200101516040518263ffffffff1660e01b815260040161110e919061242e565b60206040518083038186803b15801561112657600080fd5b505afa15801561113a573d6000803e3d6000fd5b505050506040513d601f19601f8201168201806040525081019061115e9190612230565b611166611b81565b73ffffffffffffffffffffffffffffffffffffffff1663498b5ae88a89898151811061118e57fe5b60200260200101516040518363ffffffff1660e01b81526004016111b3929190612449565b60206040518083038186803b1580156111cb57600080fd5b505afa1580156111df573d6000803e3d6000fd5b505050506040513d601f19601f820116820180604052508101906112039190612230565b611bab90919063ffffffff16565b611c3190919063ffffffff16565b90506112348185611c7b90919063ffffffff16565b93505080806001019150506110a1565b5050919050565b6000806112578461100b565b9050600081141561126c57600091505061132d565b6000611276611b81565b73ffffffffffffffffffffffffffffffffffffffff16634c90f22986866040518363ffffffff1660e01b81526004016112b0929190612449565b60206040518083038186803b1580156112c857600080fd5b505afa1580156112dc573d6000803e3d6000fd5b505050506040513d601f19601f820116820180604052508101906113009190612230565b90506113288261131a606484611bab90919063ffffffff16565b611c3190919063ffffffff16565b925050505b92915050565b61133b611d4d565b73ffffffffffffffffffffffffffffffffffffffff1660008054906101000a900473ffffffffffffffffffffffffffffffffffffffff1673ffffffffffffffffffffffffffffffffffffffff16146113fb576040517f08c379a00000000000000000000000000000000000000000000000000000000081526004018080602001828103825260208152602001807f4f776e61626c653a2063616c6c6572206973206e6f7420746865206f776e657281525060200191505060405180910390fd5b600073ffffffffffffffffffffffffffffffffffffffff1660008054906101000a900473ffffffffffffffffffffffffffffffffffffffff1673ffffffffffffffffffffffffffffffffffffffff167f8be0079c531659141344cd1fd0a4f28419497f9722a3daafe3b4186f6b6457e060405160405180910390a360008060006101000a81548173ffffffffffffffffffffffffffffffffffffffff021916908373ffffffffffffffffffffffffffffffffffffffff160217905550565b6000806115606114c7611b81565b73ffffffffffffffffffffffffffffffffffffffff1663c68da11086866040518363ffffffff1660e01b8152600401611501929190612449565b60206040518083038186803b15801561151957600080fd5b505afa15801561152d573d6000803e3d6000fd5b505050506040513d601f19601f820116820180604052508101906115519190612230565b42611d0390919063ffffffff16565b9050600061156e8585610468565b90506116506103e86116426301e13380611634866116268761158e611b81565b73ffffffffffffffffffffffffffffffffffffffff1663498b5ae88e8e6040518363ffffffff1660e01b81526004016115c8929190612449565b60206040518083038186803b1580156115e057600080fd5b505afa1580156115f4573d6000803e3d6000fd5b505050506040513d601f19601f820116820180604052508101906116189190612230565b611bab90919063ffffffff16565b611bab90919063ffffffff16565b611c3190919063ffffffff16565b611c3190919063ffffffff16565b9250505092915050565b60008060009054906101000a900473ffffffffffffffffffffffffffffffffffffffff16905090565b60006116d760646116c9670de0b6b3a76400006116bb876116ad8a89611bab90919063ffffffff16565b611bab90919063ffffffff16565b611c3190919063ffffffff16565b611c3190919063ffffffff16565b90509392505050565b6116e8611d4d565b73ffffffffffffffffffffffffffffffffffffffff1660008054906101000a900473ffffffffffffffffffffffffffffffffffffffff1673ffffffffffffffffffffffffffffffffffffffff16146117a8576040517f08c379a00000000000000000000000000000000000000000000000000000000081526004018080602001828103825260208152602001807f4f776e61626c653a2063616c6c6572206973206e6f7420746865206f776e657281525060200191505060405180910390fd5b81600160006101000a81548173ffffffffffffffffffffffffffffffffffffffff021916908373ffffffffffffffffffffffffffffffffffffffff16021790555080600260006101000a81548173ffffffffffffffffffffffffffffffffffffffff021916908373ffffffffffffffffffffffffffffffffffffffff1602179055505050565b60009392505050565b600080611842611b81565b73ffffffffffffffffffffffffffffffffffffffff16634c90f22985856040518363ffffffff1660e01b815260040161187c929190612449565b60206040518083038186803b15801561189457600080fd5b505afa1580156118a8573d6000803e3d6000fd5b505050506040513d601f19601f820116820180604052508101906118cc9190612230565b905060008114156118e1576000915050611946565b600061191a606461190c6118f5888861081e565b6118fe8961100b565b611bab90919063ffffffff16565b611c3190919063ffffffff16565b905080821161192e57600092505050611946565b6119418183611d0390919063ffffffff16565b925050505b92915050565b611954611d4d565b73ffffffffffffffffffffffffffffffffffffffff1660008054906101000a900473ffffffffffffffffffffffffffffffffffffffff1673ffffffffffffffffffffffffffffffffffffffff1614611a14576040517f08c379a00000000000000000000000000000000000000000000000000000000081526004018080602001828103825260208152602001807f4f776e61626c653a2063616c6c6572206973206e6f7420746865206f776e657281525060200191505060405180910390fd5b600073ffffffffffffffffffffffffffffffffffffffff168173ffffffffffffffffffffffffffffffffffffffff161415611a9a576040517f08c379a000000000000000000000000000000000000000000000000000000000815260040180806020018281038252602681526020018061267c6026913960400191505060405180910390fd5b8073ffffffffffffffffffffffffffffffffffffffff1660008054906101000a900473ffffffffffffffffffffffffffffffffffffffff1673ffffffffffffffffffffffffffffffffffffffff167f8be0079c531659141344cd1fd0a4f28419497f9722a3daafe3b4186f6b6457e060405160405180910390a3806000806101000a81548173ffffffffffffffffffffffffffffffffffffffff021916908373ffffffffffffffffffffffffffffffffffffffff16021790555050565b6000600160009054906101000a900473ffffffffffffffffffffffffffffffffffffffff16905090565b6000600260009054906101000a900473ffffffffffffffffffffffffffffffffffffffff16905090565b600080831415611bbe5760009050611c2b565b6000828402905082848281611bcf57fe5b0414611c26576040517f08c379a00000000000000000000000000000000000000000000000000000000081526004018080602001828103825260218152602001806126a26021913960400191505060405180910390fd5b809150505b92915050565b6000611c7383836040518060400160405280601a81526020017f536166654d6174683a206469766973696f6e206279207a65726f000000000000815250611d55565b905092915050565b600080828401905083811015611cf9576040517f08c379a000000000000000000000000000000000000000000000000000000000815260040180806020018281038252601b8152602001807f536166654d6174683a206164646974696f6e206f766572666c6f77000000000081525060200191505060405180910390fd5b8091505092915050565b6000611d4583836040518060400160405280601e81526020017f536166654d6174683a207375627472616374696f6e206f766572666c6f770000815250611e1b565b905092915050565b600033905090565b60008083118290611e01576040517f08c379a00000000000000000000000000000000000000000000000000000000081526004018080602001828103825283818151815260200191508051906020019080838360005b83811015611dc6578082015181840152602081019050611dab565b50505050905090810190601f168015611df35780820380516001836020036101000a031916815260200191505b509250505060405180910390fd5b506000838581611e0d57fe5b049050809150509392505050565b6000838311158290611ec8576040517f08c379a00000000000000000000000000000000000000000000000000000000081526004018080602001828103825283818151815260200191508051906020019080838360005b83811015611e8d578082015181840152602081019050611e72565b50505050905090810190601f168015611eba5780820380516001836020036101000a031916815260200191505b509250505060405180910390fd5b5060008385039050809150509392505050565b6000611eee611ee984612555565b612524565b90508083825260208201905082856020860282011115611f0d57600080fd5b60005b85811015611f3d5781611f238882611f5c565b845260208401935060208301925050600181019050611f10565b5050509392505050565b600081359050611f568161263d565b92915050565b600081519050611f6b8161263d565b92915050565b600082601f830112611f8257600080fd5b8151611f92848260208601611edb565b91505092915050565b600081359050611faa81612654565b92915050565b600060808284031215611fc257600080fd5b611fcc6080612524565b90506000611fdc84828501612085565b6000830152506020611ff084828501612085565b602083015250604061200484828501612085565b604083015250606061201884828501612085565b60608301525092915050565b60006040828403121561203657600080fd5b6120406040612524565b9050600061205084828501612085565b600083015250602061206484828501612085565b60208301525092915050565b60008135905061207f81612664565b92915050565b60008151905061209481612664565b92915050565b6000602082840312156120ac57600080fd5b60006120ba84828501611f47565b91505092915050565b600080604083850312156120d657600080fd5b60006120e485828601611f47565b92505060206120f585828601611f47565b9150509250929050565b60008060006060848603121561211457600080fd5b600061212286828701611f47565b935050602061213386828701611f47565b925050604061214486828701611f9b565b9150509250925092565b60008060006060848603121561216357600080fd5b600061217186828701611f47565b935050602061218286828701611f47565b925050604061219386828701612070565b9150509250925092565b6000602082840312156121af57600080fd5b600082015167ffffffffffffffff8111156121c957600080fd5b6121d584828501611f71565b91505092915050565b6000608082840312156121f057600080fd5b60006121fe84828501611fb0565b91505092915050565b60006040828403121561221957600080fd5b600061222784828501612024565b91505092915050565b60006020828403121561224257600080fd5b600061225084828501612085565b91505092915050565b60008060006060848603121561226e57600080fd5b600061227c86828701612070565b935050602061228d86828701611f47565b925050604061229e86828701611f9b565b9150509250925092565b6000806000606084860312156122bd57600080fd5b60006122cb86828701612070565b93505060206122dc86828701612070565b92505060406122ed86828701612070565b9150509250925092565b60006123038383612327565b60208301905092915050565b600061231b8383612410565b60208301905092915050565b612330816125f3565b82525050565b61233f816125f3565b82525050565b6000612350826125a1565b61235a81856125d1565b935061236583612581565b8060005b8381101561239657815161237d88826122f7565b9750612388836125b7565b925050600181019050612369565b5085935050505092915050565b60006123ae826125ac565b6123b881856125e2565b93506123c383612591565b8060005b838110156123f45781516123db888261230f565b97506123e6836125c4565b9250506001810190506123c7565b5085935050505092915050565b61240a81612605565b82525050565b61241981612631565b82525050565b61242881612631565b82525050565b60006020820190506124436000830184612336565b92915050565b600060408201905061245e6000830185612336565b61246b6020830184612336565b9392505050565b60006060820190506124876000830186612336565b6124946020830185612336565b6124a16040830184612336565b949350505050565b600060608201905081810360008301526124c38186612345565b905081810360208301526124d781856123a3565b90506124e66040830184612401565b949350505050565b60006020820190506125036000830184612401565b92915050565b600060208201905061251e600083018461241f565b92915050565b6000604051905081810181811067ffffffffffffffff8211171561254b5761254a61263b565b5b8060405250919050565b600067ffffffffffffffff8211156125705761256f61263b565b5b602082029050602081019050919050565b6000819050602082019050919050565b6000819050602082019050919050565b600081519050919050565b600081519050919050565b6000602082019050919050565b6000602082019050919050565b600082825260208201905092915050565b600082825260208201905092915050565b60006125fe82612611565b9050919050565b60008115159050919050565b600073ffffffffffffffffffffffffffffffffffffffff82169050919050565b6000819050919050565bfe5b612646816125f3565b811461265157600080fd5b50565b6003811061266157600080fd5b50565b61266d81612631565b811461267857600080fd5b5056fe4f776e61626c653a206e6577206f776e657220697320746865207a65726f2061646472657373536166654d6174683a206d756c7469706c69636174696f6e206f766572666c6f77a26469706673582212205df9e53c2080c2d9bf5361b4d9b0321673bcdee7287d4c1dadb5ccd94aa7256564736f6c63430007060033",
  "linkReferences": {},
  "deployedLinkReferences": {}
}