{
  "_format": "hh-sol-artifact-1",
  "contractName": "VaultLibrary",
  "sourceName": "contracts/Bank/VaultLibrary.sol",
  "abi": [
    {
      "anonymous": false,
      "inputs": [
        {
          "indexed": false,
          "internalType": "address",
          "name": "previousAdmin",
          "type": "address"
        },
        {
          "indexed": false,
          "internalType": "address",
          "name": "newAdmin",
          "type": "address"
        }
      ],
      "name": "AdminChanged",
      "type": "event"
    },
    {
      "anonymous": false,
      "inputs": [
        {
          "indexed": true,
          "internalType": "address",
          "name": "beacon",
          "type": "address"
        }
      ],
      "name": "BeaconUpgraded",
      "type": "event"
    },
    {
      "anonymous": false,
      "inputs": [
        {
          "indexed": true,
          "internalType": "address",
          "name": "previousOwner",
          "type": "address"
        },
        {
          "indexed": true,
          "internalType": "address",
          "name": "newOwner",
          "type": "address"
        }
      ],
      "name": "OwnershipTransferred",
      "type": "event"
    },
    {
      "anonymous": false,
      "inputs": [
        {
          "indexed": true,
          "internalType": "address",
          "name": "implementation",
          "type": "address"
        }
      ],
      "name": "Upgraded",
      "type": "event"
    },
    {
      "inputs": [
        {
          "internalType": "address",
          "name": "account",
          "type": "address"
        },
        {
          "internalType": "address",
          "name": "fxToken",
          "type": "address"
        }
      ],
      "name": "calculateInterest",
      "outputs": [
        {
          "internalType": "uint256",
          "name": "",
          "type": "uint256"
        }
      ],
      "stateMutability": "view",
      "type": "function"
    },
    {
      "inputs": [
        {
          "internalType": "address",
          "name": "account",
          "type": "address"
        },
        {
          "internalType": "address",
          "name": "fxToken",
          "type": "address"
        },
        {
          "internalType": "address",
          "name": "collateralToken",
          "type": "address"
        },
        {
          "internalType": "uint256",
          "name": "collateralAmount",
          "type": "uint256"
        },
        {
          "internalType": "uint256",
          "name": "tokenAmount",
          "type": "uint256"
        },
        {
          "internalType": "uint256",
          "name": "fxQuote",
          "type": "uint256"
        },
        {
          "internalType": "uint256",
          "name": "collateralQuote",
          "type": "uint256"
        }
      ],
      "name": "canMint",
      "outputs": [
        {
          "internalType": "bool",
          "name": "",
          "type": "bool"
        }
      ],
      "stateMutability": "view",
      "type": "function"
    },
    {
      "inputs": [
        {
          "internalType": "address",
          "name": "account",
          "type": "address"
        },
        {
          "internalType": "address",
          "name": "fxToken",
          "type": "address"
        }
      ],
      "name": "doesMeetRatio",
      "outputs": [
        {
          "internalType": "bool",
          "name": "",
          "type": "bool"
        }
      ],
      "stateMutability": "view",
      "type": "function"
    },
    {
      "inputs": [
        {
          "internalType": "address",
          "name": "account",
          "type": "address"
        },
        {
          "internalType": "address",
          "name": "fxToken",
          "type": "address"
        },
        {
          "internalType": "uint256",
          "name": "amountEth",
          "type": "uint256"
        }
      ],
      "name": "getCollateralForAmount",
      "outputs": [
        {
          "internalType": "address[]",
          "name": "collateralTypes",
          "type": "address[]"
        },
        {
          "internalType": "uint256[]",
          "name": "collateralAmounts",
          "type": "uint256[]"
        },
        {
          "internalType": "bool",
          "name": "metAmount",
          "type": "bool"
        }
      ],
      "stateMutability": "view",
      "type": "function"
    },
    {
      "inputs": [
        {
          "internalType": "address",
          "name": "account",
          "type": "address"
        },
        {
          "internalType": "address",
          "name": "fxToken",
          "type": "address"
        }
      ],
      "name": "getCollateralShares",
      "outputs": [
        {
          "internalType": "uint256[]",
          "name": "shares",
          "type": "uint256[]"
        }
      ],
      "stateMutability": "view",
      "type": "function"
    },
    {
      "inputs": [],
      "name": "getCollateralTypesSortedByLiquidationRank",
      "outputs": [
        {
          "internalType": "address[]",
          "name": "sortedCollateralTypes",
          "type": "address[]"
        }
      ],
      "stateMutability": "view",
      "type": "function"
    },
    {
      "inputs": [
        {
          "internalType": "address",
          "name": "account",
          "type": "address"
        },
        {
          "internalType": "address",
          "name": "fxToken",
          "type": "address"
        }
      ],
      "name": "getCurrentRatio",
      "outputs": [
        {
          "internalType": "uint256",
          "name": "ratio",
          "type": "uint256"
        }
      ],
      "stateMutability": "view",
      "type": "function"
    },
    {
      "inputs": [
        {
          "internalType": "address",
          "name": "account",
          "type": "address"
        },
        {
          "internalType": "address",
          "name": "fxToken",
          "type": "address"
        }
      ],
      "name": "getDebtAsEth",
      "outputs": [
        {
          "internalType": "uint256",
          "name": "debt",
          "type": "uint256"
        }
      ],
      "stateMutability": "view",
      "type": "function"
    },
    {
      "inputs": [
        {
          "internalType": "uint256",
          "name": "amount",
          "type": "uint256"
        },
        {
          "internalType": "uint8",
          "name": "fromDecimals",
          "type": "uint8"
        },
        {
          "internalType": "uint8",
          "name": "toDecimals",
          "type": "uint8"
        }
      ],
      "name": "getDecimalsAmount",
      "outputs": [
        {
          "internalType": "uint256",
          "name": "",
          "type": "uint256"
        }
      ],
      "stateMutability": "pure",
      "type": "function"
    },
    {
      "inputs": [
        {
          "internalType": "address",
          "name": "account",
          "type": "address"
        },
        {
          "internalType": "address",
          "name": "fxToken",
          "type": "address"
        }
      ],
      "name": "getFreeCollateralAsEth",
      "outputs": [
        {
          "internalType": "uint256",
          "name": "",
          "type": "uint256"
        }
      ],
      "stateMutability": "view",
      "type": "function"
    },
    {
      "inputs": [
        {
          "internalType": "address",
          "name": "account",
          "type": "address"
        },
        {
          "internalType": "address",
          "name": "fxToken",
          "type": "address"
        },
        {
          "internalType": "uint256",
          "name": "minimumRatio",
          "type": "uint256"
        }
      ],
      "name": "getFreeCollateralAsEthFromMinimumRatio",
      "outputs": [
        {
          "internalType": "uint256",
          "name": "",
          "type": "uint256"
        }
      ],
      "stateMutability": "view",
      "type": "function"
    },
    {
      "inputs": [
        {
          "internalType": "address",
          "name": "account",
          "type": "address"
        },
        {
          "internalType": "address",
          "name": "fxToken",
          "type": "address"
        }
      ],
      "name": "getInterestDeltaR",
      "outputs": [
        {
          "internalType": "uint256",
          "name": "dR",
          "type": "uint256"
        }
      ],
      "stateMutability": "view",
      "type": "function"
    },
    {
      "inputs": [
        {
          "internalType": "address",
          "name": "account",
          "type": "address"
        },
        {
          "internalType": "address",
          "name": "fxToken",
          "type": "address"
        }
      ],
      "name": "getInterestRate",
      "outputs": [
        {
          "internalType": "uint256",
          "name": "rate",
          "type": "uint256"
        }
      ],
      "stateMutability": "view",
      "type": "function"
    },
    {
      "inputs": [
        {
          "internalType": "address",
          "name": "account",
          "type": "address"
        },
        {
          "internalType": "address",
          "name": "fxToken",
          "type": "address"
        }
      ],
      "name": "getLiquidationFee",
      "outputs": [
        {
          "internalType": "uint256",
          "name": "fee",
          "type": "uint256"
        }
      ],
      "stateMutability": "view",
      "type": "function"
    },
    {
      "inputs": [
        {
          "internalType": "uint256",
          "name": "tokenAmount",
          "type": "uint256"
        },
        {
          "internalType": "uint256",
          "name": "ratio",
          "type": "uint256"
        },
        {
          "internalType": "uint256",
          "name": "unitPrice",
          "type": "uint256"
        }
      ],
      "name": "getMinimumCollateral",
      "outputs": [
        {
          "internalType": "uint256",
          "name": "minimum",
          "type": "uint256"
        }
      ],
      "stateMutability": "pure",
      "type": "function"
    },
    {
      "inputs": [
        {
          "internalType": "address",
          "name": "account",
          "type": "address"
        },
        {
          "internalType": "address",
          "name": "fxToken",
          "type": "address"
        }
      ],
      "name": "getMinimumRatio",
      "outputs": [
        {
          "internalType": "uint256",
          "name": "ratio",
          "type": "uint256"
        }
      ],
      "stateMutability": "view",
      "type": "function"
    },
    {
      "inputs": [
        {
          "internalType": "address",
          "name": "account",
          "type": "address"
        },
        {
          "internalType": "address",
          "name": "fxToken",
          "type": "address"
        },
        {
          "internalType": "address",
          "name": "collateralToken",
          "type": "address"
        },
        {
          "internalType": "uint256",
          "name": "collateralAmount",
          "type": "uint256"
        },
        {
          "internalType": "uint256",
          "name": "collateralQuote",
          "type": "uint256"
        },
        {
          "internalType": "bool",
          "name": "isDeposit",
          "type": "bool"
        }
      ],
      "name": "getNewMinimumRatio",
      "outputs": [
        {
          "internalType": "uint256",
          "name": "ratio",
          "type": "uint256"
        },
        {
          "internalType": "uint256",
          "name": "newCollateralAsEther",
          "type": "uint256"
        }
      ],
      "stateMutability": "view",
      "type": "function"
    },
    {
      "inputs": [
        {
          "internalType": "address",
          "name": "token",
          "type": "address"
        }
      ],
      "name": "getTokenUnit",
      "outputs": [
        {
          "internalType": "uint256",
          "name": "",
          "type": "uint256"
        }
      ],
      "stateMutability": "view",
      "type": "function"
    },
    {
      "inputs": [
        {
          "internalType": "address",
          "name": "account",
          "type": "address"
        },
        {
          "internalType": "address",
          "name": "fxToken",
          "type": "address"
        }
      ],
      "name": "getTotalCollateralBalanceAsEth",
      "outputs": [
        {
          "internalType": "uint256",
          "name": "balance",
          "type": "uint256"
        }
      ],
      "stateMutability": "view",
      "type": "function"
    },
    {
      "inputs": [],
      "name": "handleAddress",
      "outputs": [
        {
          "internalType": "address",
          "name": "",
          "type": "address"
        }
      ],
      "stateMutability": "view",
      "type": "function"
    },
    {
      "inputs": [],
      "name": "initialize",
      "outputs": [],
      "stateMutability": "nonpayable",
      "type": "function"
    },
    {
      "inputs": [],
      "name": "owner",
      "outputs": [
        {
          "internalType": "address",
          "name": "",
          "type": "address"
        }
      ],
      "stateMutability": "view",
      "type": "function"
    },
    {
      "inputs": [
        {
          "internalType": "uint256[]",
          "name": "array",
          "type": "uint256[]"
        },
        {
          "internalType": "int256",
          "name": "left",
          "type": "int256"
        },
        {
          "internalType": "int256",
          "name": "right",
          "type": "int256"
        }
      ],
      "name": "quickSort",
      "outputs": [],
      "stateMutability": "pure",
      "type": "function"
    },
    {
      "inputs": [],
      "name": "renounceOwnership",
      "outputs": [],
      "stateMutability": "nonpayable",
      "type": "function"
    },
    {
      "inputs": [
        {
          "internalType": "address",
          "name": "_handle",
          "type": "address"
        }
      ],
      "name": "setHandleContract",
      "outputs": [],
      "stateMutability": "nonpayable",
      "type": "function"
    },
    {
      "inputs": [
        {
          "internalType": "address",
          "name": "newOwner",
          "type": "address"
        }
      ],
      "name": "transferOwnership",
      "outputs": [],
      "stateMutability": "nonpayable",
      "type": "function"
    },
    {
      "inputs": [
        {
          "internalType": "address",
          "name": "newImplementation",
          "type": "address"
        }
      ],
      "name": "upgradeTo",
      "outputs": [],
      "stateMutability": "nonpayable",
      "type": "function"
    },
    {
      "inputs": [
        {
          "internalType": "address",
          "name": "newImplementation",
          "type": "address"
        },
        {
          "internalType": "bytes",
          "name": "data",
          "type": "bytes"
        }
      ],
      "name": "upgradeToAndCall",
      "outputs": [],
      "stateMutability": "payable",
      "type": "function"
    }
  ],
  "bytecode": "0x60a06040523060601b60805234801561001757600080fd5b5060805160601c61390161004b60003960008181610cef01528181610d38015281816112de015261131e01526139016000f3fe6080604052600436106101b75760003560e01c806387092940116100ec578063c4d7b8b81161008a578063e279962311610064578063e2799623146104f1578063e76ab23914610521578063f2fde38b14610541578063f37cd50d14610561576101b7565b8063c4d7b8b81461048f578063cad57631146104b1578063db3fabeb146104d1576101b7565b80639e718d07116100c65780639e718d07146103fa578063bbbc1cef1461041a578063bc0c63db1461043a578063bcbe3f221461046f576101b7565b8063870929401461039c5780638da5cb5b146103bc5780639b1c414f146103da576101b7565b80635a763fbb11610159578063715018a611610133578063715018a61461032057806374bf578b1461033557806380ef72a9146103675780638129fc1c14610387576101b7565b80635a763fbb146102c057806364d321b7146102e05780636cba66ce14610300576101b7565b80633659cfe6116101955780633659cfe61461024057806349cf9cce146102605780634c90f2291461028d5780634f1ef286146102ad576101b7565b80630a06fc3c146101bc57806312ffb678146101de578063234ab3e214610211575b600080fd5b3480156101c857600080fd5b506101dc6101d736600461310e565b610581565b005b3480156101ea57600080fd5b506101fe6101f9366004612e27565b610765565b6040519081526020015b60405180910390f35b34801561021d57600080fd5b5061023161022c366004612f3f565b610946565b60405161020893929190613351565b34801561024c57600080fd5b506101dc61025b366004612def565b610ce4565b34801561026c57600080fd5b5061028061027b366004612e27565b610db6565b6040516102089190613389565b34801561029957600080fd5b506101fe6102a8366004612e27565b6110c4565b6101dc6102bb366004612f7f565b6112d3565b3480156102cc57600080fd5b506101fe6102db366004612e27565b61138d565b3480156102ec57600080fd5b506101fe6102fb366004612e27565b6113d8565b34801561030c57600080fd5b506101fe61031b366004613230565b61159c565b34801561032c57600080fd5b506101dc61161c565b34801561034157600080fd5b5060c9546001600160a01b03165b6040516001600160a01b039091168152602001610208565b34801561037357600080fd5b506101fe610382366004612def565b611652565b34801561039357600080fd5b506101dc6116d6565b3480156103a857600080fd5b506101fe6103b7366004612e27565b611749565b3480156103c857600080fd5b506097546001600160a01b031661034f565b3480156103e657600080fd5b506101dc6103f5366004612def565b6117af565b34801561040657600080fd5b506101fe610415366004613205565b6119aa565b34801561042657600080fd5b506101fe610435366004612e27565b611a05565b34801561044657600080fd5b5061045a610455366004612e5f565b611bfa565b60408051928352602083019190915201610208565b34801561047b57600080fd5b506101fe61048a366004612e27565b611dea565b34801561049b57600080fd5b506104a4611fc1565b604051610208919061333e565b3480156104bd57600080fd5b506101fe6104cc366004612f3f565b6125c6565b3480156104dd57600080fd5b506101fe6104ec366004612e27565b61261e565b3480156104fd57600080fd5b5061051161050c366004612ed2565b6126e8565b6040519015158152602001610208565b34801561052d57600080fd5b506101fe61053c366004612e27565b612748565b34801561054d57600080fd5b506101dc61055c366004612def565b612759565b34801561056d57600080fd5b5061051161057c366004612e27565b6127f1565b818180821415610592575050610760565b60008560026105a1878761370b565b6105ab9190613596565b6105b5908761353d565b815181106105d357634e487b7160e01b600052603260045260246000fd5b602002602001015190505b818313610736575b8086848151811061060757634e487b7160e01b600052603260045260246000fd5b60200260200101511015610627578261061f816137f0565b9350506105e6565b85828151811061064757634e487b7160e01b600052603260045260246000fd5b60200260200101518110156106685781610660816137d2565b925050610627565b8183136107315785828151811061068f57634e487b7160e01b600052603260045260246000fd5b60200260200101518684815181106106b757634e487b7160e01b600052603260045260246000fd5b60200260200101518785815181106106df57634e487b7160e01b600052603260045260246000fd5b6020026020010188858151811061070657634e487b7160e01b600052603260045260246000fd5b6020908102919091010191909152528261071f816137f0565b935050818061072d906137d2565b9250505b6105de565b8185121561074957610749868684610581565b8383121561075c5761075c868486610581565b5050505b505050565b60008060c960009054906101000a90046001600160a01b03166001600160a01b031663294d499e6040518163ffffffff1660e01b815260040160006040518083038186803b1580156107b657600080fd5b505afa1580156107ca573d6000803e3d6000fd5b505050506040513d6000823e601f3d908101601f191682016040526107f29190810190613020565b805190915060006108038686610db6565b905060005b8281101561093c57610928610921670de0b6b3a764000061091b85858151811061084257634e487b7160e01b600052603260045260246000fd5b602002602001015160c960009054906101000a90046001600160a01b03166001600160a01b031663bd9e52008a888151811061088e57634e487b7160e01b600052603260045260246000fd5b60200260200101516040518263ffffffff1660e01b81526004016108c191906001600160a01b0391909116815260200190565b60606040518083038186803b1580156108d957600080fd5b505afa1580156108ed573d6000803e3d6000fd5b505050506040513d601f19601f8201168201806040525081019061091191906131b0565b6040015190612821565b9061282d565b8690612839565b94508061093481613810565b915050610808565b5050505092915050565b6060806000610953611fc1565b8051909350806001600160401b0381111561097e57634e487b7160e01b600052604160045260246000fd5b6040519080825280602002602001820160405280156109a7578160200160208202803683370190505b5092506000805b82811015610cd65760c95486516000916001600160a01b03169063c462b520908c908a90869081106109f057634e487b7160e01b600052603260045260246000fd5b60200260200101518c6040518463ffffffff1660e01b8152600401610a179392919061331b565b60206040518083038186803b158015610a2f57600080fd5b505afa158015610a43573d6000803e3d6000fd5b505050506040513d601f19601f82011682018060405250810190610a6791906131ed565b905080610a745750610cc4565b60c95487516000916001600160a01b03169063d02641a0908a9086908110610aac57634e487b7160e01b600052603260045260246000fd5b60200260200101516040518263ffffffff1660e01b8152600401610adf91906001600160a01b0391909116815260200190565b60206040518083038186803b158015610af757600080fd5b505afa158015610b0b573d6000803e3d6000fd5b505050506040513d601f19601f82011682018060405250810190610b2f91906131ed565b90506000610b70610b668a8681518110610b5957634e487b7160e01b600052603260045260246000fd5b6020026020010151611652565b61091b8486612821565b905089610b7d8683612839565b1015610bc35782888581518110610ba457634e487b7160e01b600052603260045260246000fd5b6020908102919091010152610bb98582612839565b9450505050610cc4565b6000610bcf8b87612845565b9050610c84610bea8461091b84670de0b6b3a7640000612821565b60128c8881518110610c0c57634e487b7160e01b600052603260045260246000fd5b60200260200101516001600160a01b031663313ce5676040518163ffffffff1660e01b815260040160206040518083038186803b158015610c4c57600080fd5b505afa158015610c60573d6000803e3d6000fd5b505050506040513d601f19601f8201168201806040525081019061031b9190613271565b898681518110610ca457634e487b7160e01b600052603260045260246000fd5b6020908102919091010152610cb98682612839565b955050505050610cd6565b80610cce81613810565b9150506109ae565b509397929650505091149150565b306001600160a01b037f0000000000000000000000000000000000000000000000000000000000000000161415610d365760405162461bcd60e51b8152600401610d2d906133cf565b60405180910390fd5b7f00000000000000000000000000000000000000000000000000000000000000006001600160a01b0316610d68612851565b6001600160a01b031614610d8e5760405162461bcd60e51b8152600401610d2d9061341b565b610d978161287f565b60408051600080825260208201909252610db3918391906128a9565b50565b6060600060c960009054906101000a90046001600160a01b03166001600160a01b031663294d499e6040518163ffffffff1660e01b815260040160006040518083038186803b158015610e0857600080fd5b505afa158015610e1c573d6000803e3d6000fd5b505050506040513d6000823e601f3d908101601f19168201604052610e449190810190613020565b8051909150806001600160401b03811115610e6f57634e487b7160e01b600052604160045260246000fd5b604051908082528060200260200182016040528015610e98578160200160208202803683370190505b5092506000610ea786866110c4565b905080610eb6575050506110be565b60008060005b848110156110b75760c95486516001600160a01b039091169063c462b520908b90899085908110610efd57634e487b7160e01b600052603260045260246000fd5b60200260200101518b6040518463ffffffff1660e01b8152600401610f249392919061331b565b60206040518083038186803b158015610f3c57600080fd5b505afa158015610f50573d6000803e3d6000fd5b505050506040513d601f19601f82011682018060405250810190610f7491906131ed565b9250611062610f9c878381518110610b5957634e487b7160e01b600052603260045260246000fd5b60c954885161091b9187916001600160a01b039091169063d02641a0908c9088908110610fd957634e487b7160e01b600052603260045260246000fd5b60200260200101516040518263ffffffff1660e01b815260040161100c91906001600160a01b0391909116815260200190565b60206040518083038186803b15801561102457600080fd5b505afa158015611038573d6000803e3d6000fd5b505050506040513d601f19601f8201168201806040525081019061105c91906131ed565b90612821565b915061107a8461091b84670de0b6b3a7640000612821565b87828151811061109a57634e487b7160e01b600052603260045260246000fd5b6020908102919091010152806110af81613810565b915050610ebc565b5050505050505b92915050565b60008060c960009054906101000a90046001600160a01b03166001600160a01b031663294d499e6040518163ffffffff1660e01b815260040160006040518083038186803b15801561111557600080fd5b505afa158015611129573d6000803e3d6000fd5b505050506040513d6000823e601f3d908101601f191682016040526111519190810190613020565b805160009350909150825b818110156112ca5760006112a861118c858481518110610b5957634e487b7160e01b600052603260045260246000fd5b60c954865161091b916001600160a01b03169063d02641a0908990889081106111c557634e487b7160e01b600052603260045260246000fd5b60200260200101516040518263ffffffff1660e01b81526004016111f891906001600160a01b0391909116815260200190565b60206040518083038186803b15801561121057600080fd5b505afa158015611224573d6000803e3d6000fd5b505050506040513d601f19601f8201168201806040525081019061124891906131ed565b60c95488516001600160a01b039091169063c462b520908d908b908a90811061128157634e487b7160e01b600052603260045260246000fd5b60200260200101518d6040518463ffffffff1660e01b815260040161100c9392919061331b565b90506112b48582612839565b94505080806112c290613810565b91505061115c565b50505092915050565b306001600160a01b037f000000000000000000000000000000000000000000000000000000000000000016141561131c5760405162461bcd60e51b8152600401610d2d906133cf565b7f00000000000000000000000000000000000000000000000000000000000000006001600160a01b031661134e612851565b6001600160a01b0316146113745760405162461bcd60e51b8152600401610d2d9061341b565b61137d8261287f565b611389828260016128a9565b5050565b60008061139a848461261e565b9050806113ab5760009150506110be565b60006113b785856110c4565b90506113cf8261091b83670de0b6b3a7640000612821565b95945050505050565b60008060c960009054906101000a90046001600160a01b03166001600160a01b031663294d499e6040518163ffffffff1660e01b815260040160006040518083038186803b15801561142957600080fd5b505afa15801561143d573d6000803e3d6000fd5b505050506040513d6000823e601f3d908101601f191682016040526114659190810190613020565b905060006114738585610db6565b825190915060005b8181101561093c5761158861092161271061091b8685815181106114af57634e487b7160e01b600052603260045260246000fd5b602002602001015160c960009054906101000a90046001600160a01b03166001600160a01b031663bd9e52008a88815181106114fb57634e487b7160e01b600052603260045260246000fd5b60200260200101516040518263ffffffff1660e01b815260040161152e91906001600160a01b0391909116815260200190565b60606040518083038186803b15801561154657600080fd5b505afa15801561155a573d6000803e3d6000fd5b505050506040513d601f19601f8201168201806040525081019061157e91906131b0565b6020015190612821565b94508061159481613810565b91505061147b565b60008160ff168360ff1614156115b3575082611615565b60006115bf838561374a565b60000b90506000808213156115ec5750806115e56115de82600a61361e565b879061282d565b955061160f565b6115f582613824565b905061160c61160582600a61361e565b8790612821565b95505b85925050505b9392505050565b6097546001600160a01b031633146116465760405162461bcd60e51b8152600401610d2d906134b5565b61165060006129f4565b565b600080826001600160a01b031663313ce5676040518163ffffffff1660e01b815260040160206040518083038186803b15801561168e57600080fd5b505afa1580156116a2573d6000803e3d6000fd5b505050506040513d601f19601f820116820180604052508101906116c69190613271565b60ff16905061161581600a61361e565b600054610100900460ff16806116ef575060005460ff16155b61170b5760405162461bcd60e51b8152600401610d2d90613467565b600054610100900460ff1615801561172d576000805461ffff19166101011790555b611735612a46565b8015610db3576000805461ff001916905550565b6000806117568484611a05565b60c95460405163a300733d60e01b81526001600160a01b03878116600483015286811660248301529293506117a792670de0b6b3a76400009261091b9286929091169063a300733d9060440161100c565b949350505050565b6097546001600160a01b031633146117d95760405162461bcd60e51b8152600401610d2d906134b5565b60c980546001600160a01b0319166001600160a01b03831690811790915560408051635fe3b56760e01b81529051635fe3b56791600480820192602092909190829003018186803b15801561182d57600080fd5b505afa158015611841573d6000803e3d6000fd5b505050506040513d601f19601f820116820180604052508101906118659190612e0b565b60cb80546001600160a01b0319166001600160a01b0392831617905560c954604080516361d027b360e01b8152905191909216916361d027b3916004808301926020929190829003018186803b1580156118be57600080fd5b505afa1580156118d2573d6000803e3d6000fd5b505050506040513d601f19601f820116820180604052508101906118f69190612e0b565b60ca80546001600160a01b0319166001600160a01b0392831617905560c954604080516361c97bb360e11b81529051919092169163c392f766916004808301926020929190829003018186803b15801561194f57600080fd5b505afa158015611963573d6000803e3d6000fd5b505050506040513d601f19601f820116820180604052508101906119879190612e0b565b60cc80546001600160a01b0319166001600160a01b039290921691909117905550565b6000670de0b6b3a76400008310156119e95760405162461bcd60e51b815260206004820152600260248201526121a960f11b6044820152606401610d2d565b6117a7670de0b6b3a764000061091b81818761105c888b612821565b600080600060cc60009054906101000a90046001600160a01b03166001600160a01b031663d56a5c736040518163ffffffff1660e01b815260040160006040518083038186803b158015611a5857600080fd5b505afa158015611a6c573d6000803e3d6000fd5b505050506040513d6000823e601f3d908101601f19168201604052611a949190810190613052565b80516000955091935091508380611aab8888610db6565b905060005b838110156110b75760c95485516001600160a01b03909116906331695c4e908b908b90899086908110611af357634e487b7160e01b600052603260045260246000fd5b60200260200101516040518463ffffffff1660e01b8152600401611b199392919061331b565b60206040518083038186803b158015611b3157600080fd5b505afa158015611b45573d6000803e3d6000fd5b505050506040513d601f19601f82011682018060405250810190611b6991906131ed565b9250611be6611bdf670de0b6b3a764000061091b858581518110611b9d57634e487b7160e01b600052603260045260246000fd5b602002602001015161105c888c8881518110611bc957634e487b7160e01b600052603260045260246000fd5b602002602001015161284590919063ffffffff16565b8890612839565b965080611bf281613810565b915050611ab0565b6000806000611c098989611dea565b90506000611c178a8a6110c4565b905084611c4357611c3e611c37611c2d8a611652565b61091b898b612821565b8290612845565b611c59565b611c59611c52611c2d8a611652565b8290612839565b60c954604051625ecf2960e91b81526001600160a01b038b811660048301529295506000929091169063bd9e52009060240160606040518083038186803b158015611ca357600080fd5b505afa158015611cb7573d6000803e3d6000fd5b505050506040513d601f19601f82011682018060405250810190611cdb91906131b0565b51905082611d0457611cfa606461091b83670de0b6b3a7640000612821565b9450505050611ddf565b6000611d1c8561091b85670de0b6b3a7640000612821565b9050611d34670de0b6b3a764000061091b8684612821565b9550670de0b6b3a76400008111158015611d4b5750865b80611d675750670de0b6b3a76400008110158015611d67575086155b611d8157634e487b7160e01b600052600160045260246000fd5b86611db557611db0611da9670de0b6b3a764000061091b611da28583612845565b8690612821565b8790612845565b611dd8565b611dd8611dd1670de0b6b3a764000061091b611da28286612845565b8790612839565b9550505050505b965096945050505050565b60008060c960009054906101000a90046001600160a01b03166001600160a01b031663294d499e6040518163ffffffff1660e01b815260040160006040518083038186803b158015611e3b57600080fd5b505afa158015611e4f573d6000803e3d6000fd5b505050506040513d6000823e601f3d908101601f19168201604052611e779190810190613020565b90506000611e858585610db6565b825190915060005b81811015611faa57611f96610921848381518110611ebb57634e487b7160e01b600052603260045260246000fd5b602002602001015161105c606460c960009054906101000a90046001600160a01b03166001600160a01b031663bd9e52008a8881518110611f0c57634e487b7160e01b600052603260045260246000fd5b60200260200101516040518263ffffffff1660e01b8152600401611f3f91906001600160a01b0391909116815260200190565b60606040518083038186803b158015611f5757600080fd5b505afa158015611f6b573d6000803e3d6000fd5b505050506040513d601f19601f82011682018060405250810190611f8f91906131b0565b5190612821565b945080611fa281613810565b915050611e8d565b50611fb78461271061282d565b9695505050505050565b6060600060c960009054906101000a90046001600160a01b03166001600160a01b031663294d499e6040518163ffffffff1660e01b815260040160006040518083038186803b15801561201357600080fd5b505afa158015612027573d6000803e3d6000fd5b505050506040513d6000823e601f3d908101601f1916820160405261204f9190810190613020565b80519091506000816001600160401b0381111561207c57634e487b7160e01b600052604160045260246000fd5b6040519080825280602002602001820160405280156120a5578160200160208202803683370190505b50905060005b828110156121ae5760c95484516001600160a01b039091169063bd9e5200908690849081106120ea57634e487b7160e01b600052603260045260246000fd5b60200260200101516040518263ffffffff1660e01b815260040161211d91906001600160a01b0391909116815260200190565b60606040518083038186803b15801561213557600080fd5b505afa158015612149573d6000803e3d6000fd5b505050506040513d601f19601f8201168201806040525081019061216d91906131b0565b6000015182828151811061219157634e487b7160e01b600052603260045260246000fd5b6020908102919091010152806121a681613810565b9150506120ab565b506000826001600160401b038111156121d757634e487b7160e01b600052604160045260246000fd5b604051908082528060200260200182016040528015612200578160200160208202803683370190505b50905060005b838110156122735782818151811061222e57634e487b7160e01b600052603260045260246000fd5b602002602001015182828151811061225657634e487b7160e01b600052603260045260246000fd5b60209081029190910101528061226b81613810565b915050612206565b50612288816000600184516101d7919061378b565b6000836001600160401b038111156122b057634e487b7160e01b600052604160045260246000fd5b6040519080825280602002602001820160405280156122d9578160200160208202803683370190505b5090506000846001600160401b0381111561230457634e487b7160e01b600052604160045260246000fd5b60405190808252806020026020018201604052801561232d578160200160208202803683370190505b50905060005b858110156124995760005b868110156124865784828151811061236657634e487b7160e01b600052603260045260246000fd5b602002602001015186828151811061238e57634e487b7160e01b600052603260045260246000fd5b6020026020010151146123a057612474565b6000805b888110156123fe578481815181106123cc57634e487b7160e01b600052603260045260246000fd5b60200260200101518360016123e1919061357e565b14156123ec57600191505b806123f681613810565b9150506123a4565b50801561240b5750612474565b8185848151811061242c57634e487b7160e01b600052603260045260246000fd5b602090810291909101015261244282600161357e565b84848151811061246257634e487b7160e01b600052603260045260246000fd5b60200260200101818152505050612486565b8061247e81613810565b91505061233e565b508061249181613810565b915050612333565b50846001600160401b038111156124c057634e487b7160e01b600052604160045260246000fd5b6040519080825280602002602001820160405280156124e9578160200160208202803683370190505b50965060005b858110156125bc57600083828151811061251957634e487b7160e01b600052603260045260246000fd5b60200260200101519050600060018389612533919061378b565b61253d919061378b565b905088828151811061255f57634e487b7160e01b600052603260045260246000fd5b60200260200101518a828151811061258757634e487b7160e01b600052603260045260246000fd5b60200260200101906001600160a01b031690816001600160a01b031681525050505080806125b490613810565b9150506124ef565b5050505050505090565b6000806125d385856110c4565b9050806125e4576000915050611615565b6000612600670de0b6b3a764000061091b8661105c8a8a61261e565b905080821161261457600092505050611615565b611fb78282612845565b60c954604051630681320d60e51b81526001600160a01b03838116600483015260009261161592670de0b6b3a76400009261091b92169063d02641a09060240160206040518083038186803b15801561267657600080fd5b505afa15801561268a573d6000803e3d6000fd5b505050506040513d601f19601f820116820180604052508101906126ae91906131ed565b60c9546040516309316b5d60e31b81526001600160a01b03898116600483015288811660248301529091169063498b5ae89060440161100c565b60008060006126fc8a8a8a8a886001611bfa565b91509150612739670de0b6b3a764000061091b8461105c61271d8f8f61261e565b612733670de0b6b3a764000061091b8e8e612821565b90612839565b11159998505050505050505050565b600061161583836104cc8686611dea565b6097546001600160a01b031633146127835760405162461bcd60e51b8152600401610d2d906134b5565b6001600160a01b0381166127e85760405162461bcd60e51b815260206004820152602660248201527f4f776e61626c653a206e6577206f776e657220697320746865207a65726f206160448201526564647265737360d01b6064820152608401610d2d565b610db3816129f4565b6000806127fe8484611dea565b9050600061280c858561138d565b905080158015906113cf575010159392505050565b600061161582846136ec565b600061161582846135c4565b6000611615828461357e565b6000611615828461378b565b7f360894a13ba1a3210667c828492db98dca3e2076cc3735a920a3ca505d382bbc546001600160a01b031690565b6097546001600160a01b03163314610db35760405162461bcd60e51b8152600401610d2d906134b5565b60006128b3612851565b90506128be84612aad565b6000835111806128cb5750815b156128dc576128da8484612b52565b505b7f4910fdfa16fed3260ed0e7147f7cc6da11a60208b5b9406d12a635614ffd9143805460ff166129ed57805460ff191660011781556040516001600160a01b038316602482015261295b90869060440160408051601f198184030181529190526020810180516001600160e01b0316631b2ce7f360e11b179052612b52565b50805460ff1916815561296c612851565b6001600160a01b0316826001600160a01b0316146129e45760405162461bcd60e51b815260206004820152602f60248201527f45524331393637557067726164653a207570677261646520627265616b73206660448201526e75727468657220757067726164657360881b6064820152608401610d2d565b6129ed85612c34565b5050505050565b609780546001600160a01b038381166001600160a01b0319831681179093556040519116919082907f8be0079c531659141344cd1fd0a4f28419497f9722a3daafe3b4186f6b6457e090600090a35050565b600054610100900460ff1680612a5f575060005460ff16155b612a7b5760405162461bcd60e51b8152600401610d2d90613467565b600054610100900460ff16158015612a9d576000805461ffff19166101011790555b612aa5612c74565b611735612cde565b803b612b115760405162461bcd60e51b815260206004820152602d60248201527f455243313936373a206e657720696d706c656d656e746174696f6e206973206e60448201526c1bdd08184818dbdb9d1c9858dd609a1b6064820152608401610d2d565b7f360894a13ba1a3210667c828492db98dca3e2076cc3735a920a3ca505d382bbc80546001600160a01b0319166001600160a01b0392909216919091179055565b6060823b612bb15760405162461bcd60e51b815260206004820152602660248201527f416464726573733a2064656c65676174652063616c6c20746f206e6f6e2d636f6044820152651b9d1c9858dd60d21b6064820152608401610d2d565b600080846001600160a01b031684604051612bcc91906132ff565b600060405180830381855af49150503d8060008114612c07576040519150601f19603f3d011682016040523d82523d6000602084013e612c0c565b606091505b50915091506113cf82826040518060600160405280602781526020016138a560279139612d3e565b612c3d81612aad565b6040516001600160a01b038216907fbc7cd75a20ee27fd9adebab32041f755214dbc6bffa90cc0225b39da2e5c2d3b90600090a250565b600054610100900460ff1680612c8d575060005460ff16155b612ca95760405162461bcd60e51b8152600401610d2d90613467565b600054610100900460ff16158015611735576000805461ffff19166101011790558015610db3576000805461ff001916905550565b600054610100900460ff1680612cf7575060005460ff16155b612d135760405162461bcd60e51b8152600401610d2d90613467565b600054610100900460ff16158015612d35576000805461ffff19166101011790555b611735336129f4565b60608315612d4d575081611615565b825115612d5d5782518084602001fd5b8160405162461bcd60e51b8152600401610d2d919061339c565b600082601f830112612d87578081fd5b81516020612d9c612d978361351a565b6134ea565b80838252828201915082860187848660051b8901011115612dbb578586fd5b855b85811015612de2578151612dd081613880565b84529284019290840190600101612dbd565b5090979650505050505050565b600060208284031215612e00578081fd5b813561161581613880565b600060208284031215612e1c578081fd5b815161161581613880565b60008060408385031215612e39578081fd5b8235612e4481613880565b91506020830135612e5481613880565b809150509250929050565b60008060008060008060c08789031215612e77578182fd5b8635612e8281613880565b95506020870135612e9281613880565b94506040870135612ea281613880565b9350606087013592506080870135915060a08701358015158114612ec4578182fd5b809150509295509295509295565b600080600080600080600060e0888a031215612eec578081fd5b8735612ef781613880565b96506020880135612f0781613880565b95506040880135612f1781613880565b969995985095966060810135965060808101359560a0820135955060c0909101359350915050565b600080600060608486031215612f53578081fd5b8335612f5e81613880565b92506020840135612f6e81613880565b929592945050506040919091013590565b60008060408385031215612f91578182fd5b8235612f9c81613880565b91506020838101356001600160401b0380821115612fb8578384fd5b818601915086601f830112612fcb578384fd5b813581811115612fdd57612fdd61386a565b612fef601f8201601f191685016134ea565b91508082528784828501011115613004578485fd5b8084840185840137810190920192909252919491935090915050565b600060208284031215613031578081fd5b81516001600160401b03811115613046578182fd5b6117a784828501612d77565b60008060408385031215613064578182fd5b82516001600160401b038082111561307a578384fd5b818501915085601f83011261308d578384fd5b8151602061309d612d978361351a565b8083825282820191508286018a848660051b89010111156130bc578889fd5b8896505b848710156130de5780518352600196909601959183019183016130c0565b50918801519196509093505050808211156130f7578283fd5b5061310485828601612d77565b9150509250929050565b600080600060608486031215613122578081fd5b83356001600160401b03811115613137578182fd5b8401601f81018613613147578182fd5b80356020613157612d978361351a565b8083825282820191508285018a848660051b8801011115613176578687fd5b8695505b8486101561319857803583526001959095019491830191830161317a565b50999188013598505060409096013595945050505050565b6000606082840312156131c1578081fd5b6131cb60606134ea565b8251815260208301516020820152604083015160408201528091505092915050565b6000602082840312156131fe578081fd5b5051919050565b600080600060608486031215613219578081fd5b505081359360208301359350604090920135919050565b600080600060608486031215613244578081fd5b83359250602084013561325681613895565b9150604084013561326681613895565b809150509250925092565b600060208284031215613282578081fd5b815161161581613895565b6000815180845260208085019450808401835b838110156132c55781516001600160a01b0316875295820195908201906001016132a0565b509495945050505050565b6000815180845260208085019450808401835b838110156132c5578151875295820195908201906001016132e3565b600082516133118184602087016137a2565b9190910192915050565b6001600160a01b0393841681529183166020830152909116604082015260600190565b600060208252611615602083018461328d565b600060608252613364606083018661328d565b828103602084015261337681866132d0565b9150508215156040830152949350505050565b60006020825261161560208301846132d0565b60006020825282518060208401526133bb8160408501602087016137a2565b601f01601f19169190910160400192915050565b6020808252602c908201527f46756e6374696f6e206d7573742062652063616c6c6564207468726f7567682060408201526b19195b1959d85d1958d85b1b60a21b606082015260800190565b6020808252602c908201527f46756e6374696f6e206d7573742062652063616c6c6564207468726f7567682060408201526b6163746976652070726f787960a01b606082015260800190565b6020808252602e908201527f496e697469616c697a61626c653a20636f6e747261637420697320616c72656160408201526d191e481a5b9a5d1a585b1a5e995960921b606082015260800190565b6020808252818101527f4f776e61626c653a2063616c6c6572206973206e6f7420746865206f776e6572604082015260600190565b604051601f8201601f191681016001600160401b03811182821017156135125761351261386a565b604052919050565b60006001600160401b038211156135335761353361386a565b5060051b60200190565b600080821280156001600160ff1b038490038513161561355f5761355f61383e565b600160ff1b83900384128116156135785761357861383e565b50500190565b600082198211156135915761359161383e565b500190565b6000826135a5576135a5613854565b600160ff1b8214600019841416156135bf576135bf61383e565b500590565b6000826135d3576135d3613854565b500490565b80825b60018086116135ea5750613615565b8187048211156135fc576135fc61383e565b8086161561360957918102915b9490941c9380026135db565b94509492505050565b6000611615600019848460008261363757506001611615565b8161364457506000611615565b816001811461365a576002811461366457613691565b6001915050611615565b60ff8411156136755761367561383e565b6001841b91508482111561368b5761368b61383e565b50611615565b5060208310610133831016604e8410600b84101617156136c4575081810a838111156136bf576136bf61383e565b611615565b6136d184848460016135d8565b8086048211156136e3576136e361383e565b02949350505050565b60008160001904831182151516156137065761370661383e565b500290565b60008083128015600160ff1b8501841216156137295761372961383e565b6001600160ff1b03840183138116156137445761374461383e565b50500390565b600081810b83820b8281128015607f1983018412161561376c5761376c61383e565b81607f0183138116156137815761378161383e565b5090039392505050565b60008282101561379d5761379d61383e565b500390565b60005b838110156137bd5781810151838201526020016137a5565b838111156137cc576000848401525b50505050565b6000600160ff1b8214156137e8576137e861383e565b506000190190565b60006001600160ff1b038214156138095761380961383e565b5060010190565b60006000198214156138095761380961383e565b6000600160ff1b82141561383a5761383a61383e565b0390565b634e487b7160e01b600052601160045260246000fd5b634e487b7160e01b600052601260045260246000fd5b634e487b7160e01b600052604160045260246000fd5b6001600160a01b0381168114610db357600080fd5b60ff81168114610db357600080fdfe416464726573733a206c6f772d6c6576656c2064656c65676174652063616c6c206661696c6564a2646970667358221220d25e58230c2e0c06e4216896e44b38ea5a5bd740e5d0a0e118c56cf21979804764736f6c63430008030033",
  "linkReferences": {},
  "deployedLinkReferences": {}
}