{
  "_format": "hh-sol-artifact-1",
  "contractName": "VaultLibrary",
  "sourceName": "contracts/Bank/VaultLibrary.sol",
  "abi": [
    {
      "inputs": [
        {
          "internalType": "address",
          "name": "_comptroller",
          "type": "address"
        },
        {
          "internalType": "address",
          "name": "_treasury",
          "type": "address"
        }
      ],
      "stateMutability": "nonpayable",
      "type": "constructor"
    },
    {
      "anonymous": false,
      "inputs": [
        {
          "indexed": true,
          "internalType": "address",
          "name": "previousOwner",
          "type": "address"
        },
        {
          "indexed": true,
          "internalType": "address",
          "name": "newOwner",
          "type": "address"
        }
      ],
      "name": "OwnershipTransferred",
      "type": "event"
    },
    {
      "inputs": [
        {
          "internalType": "address",
          "name": "user",
          "type": "address"
        },
        {
          "internalType": "address",
          "name": "fxToken",
          "type": "address"
        }
      ],
      "name": "calculateInterest",
      "outputs": [
        {
          "internalType": "uint256",
          "name": "interest",
          "type": "uint256"
        }
      ],
      "stateMutability": "view",
      "type": "function"
    },
    {
      "inputs": [
        {
          "internalType": "address",
          "name": "account",
          "type": "address"
        },
        {
          "internalType": "address",
          "name": "fxToken",
          "type": "address"
        },
        {
          "internalType": "enum IVaultLibrary.CollateralRatioType",
          "name": "crt",
          "type": "uint8"
        }
      ],
      "name": "doesMeetRatio",
      "outputs": [
        {
          "internalType": "bool",
          "name": "",
          "type": "bool"
        }
      ],
      "stateMutability": "view",
      "type": "function"
    },
    {
      "inputs": [
        {
          "internalType": "uint256",
          "name": "amount",
          "type": "uint256"
        },
        {
          "internalType": "address",
          "name": "token",
          "type": "address"
        },
        {
          "internalType": "address",
          "name": "from",
          "type": "address"
        }
      ],
      "name": "getAllowedBuyCollateralFromTokenAmount",
      "outputs": [
        {
          "internalType": "uint256",
          "name": "allowedAmount",
          "type": "uint256"
        }
      ],
      "stateMutability": "view",
      "type": "function"
    },
    {
      "inputs": [
        {
          "internalType": "address",
          "name": "account",
          "type": "address"
        },
        {
          "internalType": "address",
          "name": "fxToken",
          "type": "address"
        },
        {
          "internalType": "uint256",
          "name": "amountEth",
          "type": "uint256"
        }
      ],
      "name": "getCollateralForAmount",
      "outputs": [
        {
          "internalType": "address[]",
          "name": "collateralTypes",
          "type": "address[]"
        },
        {
          "internalType": "uint256[]",
          "name": "collateralAmounts",
          "type": "uint256[]"
        },
        {
          "internalType": "bool",
          "name": "metAmount",
          "type": "bool"
        }
      ],
      "stateMutability": "view",
      "type": "function"
    },
    {
      "inputs": [
        {
          "internalType": "uint256",
          "name": "assetAmount",
          "type": "uint256"
        },
        {
          "internalType": "address",
          "name": "fxToken",
          "type": "address"
        },
        {
          "internalType": "enum IVaultLibrary.CollateralRatioType",
          "name": "crt",
          "type": "uint8"
        }
      ],
      "name": "getCollateralRequiredAsEth",
      "outputs": [
        {
          "internalType": "uint256",
          "name": "requiredCollateral",
          "type": "uint256"
        }
      ],
      "stateMutability": "view",
      "type": "function"
    },
    {
      "inputs": [
        {
          "internalType": "address",
          "name": "account",
          "type": "address"
        },
        {
          "internalType": "address",
          "name": "fxToken",
          "type": "address"
        }
      ],
      "name": "getCollateralShares",
      "outputs": [
        {
          "internalType": "uint256[]",
          "name": "shares",
          "type": "uint256[]"
        }
      ],
      "stateMutability": "view",
      "type": "function"
    },
    {
      "inputs": [],
      "name": "getCollateralTypesSortedByLiquidationRank",
      "outputs": [
        {
          "internalType": "address[]",
          "name": "sortedCollateralTypes",
          "type": "address[]"
        }
      ],
      "stateMutability": "view",
      "type": "function"
    },
    {
      "inputs": [
        {
          "internalType": "address",
          "name": "account",
          "type": "address"
        },
        {
          "internalType": "address",
          "name": "fxToken",
          "type": "address"
        }
      ],
      "name": "getCurrentRatio",
      "outputs": [
        {
          "internalType": "uint256",
          "name": "ratio",
          "type": "uint256"
        }
      ],
      "stateMutability": "view",
      "type": "function"
    },
    {
      "inputs": [
        {
          "internalType": "address",
          "name": "account",
          "type": "address"
        },
        {
          "internalType": "address",
          "name": "fxToken",
          "type": "address"
        }
      ],
      "name": "getDebtAsEth",
      "outputs": [
        {
          "internalType": "uint256",
          "name": "debt",
          "type": "uint256"
        }
      ],
      "stateMutability": "view",
      "type": "function"
    },
    {
      "inputs": [
        {
          "internalType": "address",
          "name": "account",
          "type": "address"
        },
        {
          "internalType": "address",
          "name": "fxToken",
          "type": "address"
        }
      ],
      "name": "getFreeCollateralAsEth",
      "outputs": [
        {
          "internalType": "uint256",
          "name": "",
          "type": "uint256"
        }
      ],
      "stateMutability": "view",
      "type": "function"
    },
    {
      "inputs": [
        {
          "internalType": "address",
          "name": "user",
          "type": "address"
        },
        {
          "internalType": "address",
          "name": "fxToken",
          "type": "address"
        }
      ],
      "name": "getInterestRate",
      "outputs": [
        {
          "internalType": "uint256",
          "name": "",
          "type": "uint256"
        }
      ],
      "stateMutability": "view",
      "type": "function"
    },
    {
      "inputs": [
        {
          "internalType": "address",
          "name": "account",
          "type": "address"
        },
        {
          "internalType": "address",
          "name": "fxToken",
          "type": "address"
        }
      ],
      "name": "getLiquidationFee",
      "outputs": [
        {
          "internalType": "uint256",
          "name": "fee",
          "type": "uint256"
        }
      ],
      "stateMutability": "view",
      "type": "function"
    },
    {
      "inputs": [
        {
          "internalType": "uint256",
          "name": "tokenAmount",
          "type": "uint256"
        },
        {
          "internalType": "uint256",
          "name": "ratio",
          "type": "uint256"
        },
        {
          "internalType": "uint256",
          "name": "unitPrice",
          "type": "uint256"
        }
      ],
      "name": "getMinimumCollateral",
      "outputs": [
        {
          "internalType": "uint256",
          "name": "minimum",
          "type": "uint256"
        }
      ],
      "stateMutability": "pure",
      "type": "function"
    },
    {
      "inputs": [
        {
          "internalType": "address",
          "name": "account",
          "type": "address"
        },
        {
          "internalType": "address",
          "name": "fxToken",
          "type": "address"
        }
      ],
      "name": "getMinimumRatio",
      "outputs": [
        {
          "internalType": "uint256",
          "name": "ratio",
          "type": "uint256"
        }
      ],
      "stateMutability": "view",
      "type": "function"
    },
    {
      "inputs": [
        {
          "internalType": "address",
          "name": "account",
          "type": "address"
        },
        {
          "internalType": "address",
          "name": "fxToken",
          "type": "address"
        }
      ],
      "name": "getTotalCollateralBalanceAsEth",
      "outputs": [
        {
          "internalType": "uint256",
          "name": "balance",
          "type": "uint256"
        }
      ],
      "stateMutability": "view",
      "type": "function"
    },
    {
      "inputs": [],
      "name": "owner",
      "outputs": [
        {
          "internalType": "address",
          "name": "",
          "type": "address"
        }
      ],
      "stateMutability": "view",
      "type": "function"
    },
    {
      "inputs": [
        {
          "internalType": "uint256[]",
          "name": "array",
          "type": "uint256[]"
        },
        {
          "internalType": "int256",
          "name": "left",
          "type": "int256"
        },
        {
          "internalType": "int256",
          "name": "right",
          "type": "int256"
        }
      ],
      "name": "quickSort",
      "outputs": [],
      "stateMutability": "pure",
      "type": "function"
    },
    {
      "inputs": [],
      "name": "renounceOwnership",
      "outputs": [],
      "stateMutability": "nonpayable",
      "type": "function"
    },
    {
      "inputs": [
        {
          "internalType": "address",
          "name": "_comptroller",
          "type": "address"
        },
        {
          "internalType": "address",
          "name": "_treasury",
          "type": "address"
        }
      ],
      "name": "setContracts",
      "outputs": [],
      "stateMutability": "nonpayable",
      "type": "function"
    },
    {
      "inputs": [
        {
          "internalType": "uint256",
          "name": "crTarget",
          "type": "uint256"
        },
        {
          "internalType": "uint256",
          "name": "debt",
          "type": "uint256"
        },
        {
          "internalType": "uint256",
          "name": "collateral",
          "type": "uint256"
        }
      ],
      "name": "tokensRequiredForCrIncrease",
      "outputs": [
        {
          "internalType": "uint256",
          "name": "amount",
          "type": "uint256"
        }
      ],
      "stateMutability": "pure",
      "type": "function"
    },
    {
      "inputs": [
        {
          "internalType": "address",
          "name": "newOwner",
          "type": "address"
        }
      ],
      "name": "transferOwnership",
      "outputs": [],
      "stateMutability": "nonpayable",
      "type": "function"
    }
  ],
  "bytecode": "0x60806040523480156200001157600080fd5b506040516200363d3803806200363d833981810160405281019062000037919062000190565b6000620000496200017160201b60201c565b9050806000806101000a81548173ffffffffffffffffffffffffffffffffffffffff021916908373ffffffffffffffffffffffffffffffffffffffff1602179055508073ffffffffffffffffffffffffffffffffffffffff16600073ffffffffffffffffffffffffffffffffffffffff167f8be0079c531659141344cd1fd0a4f28419497f9722a3daafe3b4186f6b6457e060405160405180910390a35081600160006101000a81548173ffffffffffffffffffffffffffffffffffffffff021916908373ffffffffffffffffffffffffffffffffffffffff16021790555080600260006101000a81548173ffffffffffffffffffffffffffffffffffffffff021916908373ffffffffffffffffffffffffffffffffffffffff16021790555050506200021f565b600033905090565b6000815190506200018a8162000205565b92915050565b60008060408385031215620001a457600080fd5b6000620001b48582860162000179565b9250506020620001c78582860162000179565b9150509250929050565b6000620001de82620001e5565b9050919050565b600073ffffffffffffffffffffffffffffffffffffffff82169050919050565b6200021081620001d1565b81146200021c57600080fd5b50565b61340e806200022f6000396000f3fe608060405234801561001057600080fd5b50600436106101375760003560e01c80638da5cb5b116100b8578063c4d7b8b81161007c578063c4d7b8b8146103c2578063d8952a49146103e0578063db3fabeb146103fc578063e58987fb1461042c578063e76ab2391461045c578063f2fde38b1461048c57610137565b80638da5cb5b146102e45780638dac8d131461030257806397ae1974146103325780639e718d0714610362578063bcbe3f221461039257610137565b80634c90f229116100ff5780634c90f2291461021a5780635a763fbb1461024a57806364d321b71461027a578063715018a6146102aa57806387092940146102b457610137565b8063027ff1e11461013c5780630a06fc3c1461016c57806312ffb67814610188578063234ab3e2146101b857806349cf9cce146101ea575b600080fd5b61015660048036038101906101519190612c5d565b6104a8565b6040516101639190613186565b60405180910390f35b61018660048036038101906101819190612d3c565b6105df565b005b6101a2600480360381019061019d9190612c21565b610720565b6040516101af91906131c1565b60405180910390f35b6101d260048036038101906101cd9190612cac565b610a4e565b6040516101e19392919061311f565b60405180910390f35b61020460048036038101906101ff9190612c21565b610d23565b6040516102119190613164565b60405180910390f35b610234600480360381019061022f9190612c21565b611002565b60405161024191906131c1565b60405180910390f35b610264600480360381019061025f9190612c21565b61124a565b60405161027191906131c1565b60405180910390f35b610294600480360381019061028f9190612c21565b6112ab565b6040516102a191906131c1565b60405180910390f35b6102b261145e565b005b6102ce60048036038101906102c99190612c21565b6115e4565b6040516102db91906131c1565b60405180910390f35b6102ec611785565b6040516102f99190613082565b60405180910390f35b61031c60048036038101906103179190612e1e565b6117ae565b60405161032991906131c1565b60405180910390f35b61034c60048036038101906103479190612ebc565b611a0b565b60405161035991906131c1565b60405180910390f35b61037c60048036038101906103779190612ebc565b611a80565b60405161038991906131c1565b60405180910390f35b6103ac60048036038101906103a79190612c21565b611add565b6040516103b991906131c1565b60405180910390f35b6103ca611cbf565b6040516103d791906130fd565b60405180910390f35b6103fa60048036038101906103f59190612c21565b6120c3565b005b61041660048036038101906104119190612c21565b612211565b60405161042391906131c1565b60405180910390f35b61044660048036038101906104419190612e6d565b612368565b60405161045391906131c1565b60405180910390f35b61047660048036038101906104719190612c21565b612371565b60405161048391906131c1565b60405180910390f35b6104a660048036038101906104a19190612bf8565b6123ff565b005b60008060009050600060028111156104bc57fe5b8360028111156104c857fe5b14806104ea5750600160028111156104dc57fe5b8360028111156104e857fe5b145b15610500576104f98585611add565b90506105b5565b60028081111561050c57fe5b83600281111561051857fe5b14156105b45761052661260a565b73ffffffffffffffffffffffffffffffffffffffff166388aa8bee856040518263ffffffff1660e01b815260040161055e9190613082565b604080518083038186803b15801561057557600080fd5b505afa158015610589573d6000803e3d6000fd5b505050506040513d601f19601f820116820180604052508101906105ad9190612dcc565b6000015190505b5b60006105c1868661124a565b9050600081141580156105d45750818110155b925050509392505050565b60008290506000829050808214156105f857505061071b565b60008560028686038161060757fe5b0586018151811061061457fe5b602002602001015190505b8183136106ef575b8086848151811061063457fe5b6020026020010151101561064f578280600101935050610627565b5b85828151811061065c57fe5b602002602001015181101561067957818060019003925050610650565b8183136106ea5785828151811061068c57fe5b60200260200101518684815181106106a057fe5b60200260200101518785815181106106b457fe5b602002602001018885815181106106c757fe5b602002602001018281525082815250505082806001019350508180600190039250505b61061f565b81851215610703576107028686846105df565b5b83831215610717576107168684866105df565b5b5050505b505050565b60008061072b61260a565b73ffffffffffffffffffffffffffffffffffffffff1663294d499e6040518163ffffffff1660e01b815260040160006040518083038186803b15801561077057600080fd5b505afa158015610784573d6000803e3d6000fd5b505050506040513d6000823e3d601f19601f820116820180604052508101906107ad9190612cfb565b905060006107bb8585611002565b905060008114156107d157600092505050610a48565b6000805b8351811015610a40576000610955670de0b6b3a76400006109476107f761260a565b73ffffffffffffffffffffffffffffffffffffffff1663d02641a089878151811061081e57fe5b60200260200101516040518263ffffffff1660e01b81526004016108429190613082565b60206040518083038186803b15801561085a57600080fd5b505afa15801561086e573d6000803e3d6000fd5b505050506040513d601f19601f820116820180604052508101906108929190612df5565b61089a612634565b73ffffffffffffffffffffffffffffffffffffffff1663c462b5208d8b89815181106108c257fe5b60200260200101518e6040518463ffffffff1660e01b81526004016108e9939291906130c6565b60206040518083038186803b15801561090157600080fd5b505afa158015610915573d6000803e3d6000fd5b505050506040513d601f19601f820116820180604052508101906109399190612df5565b61265e90919063ffffffff16565b6126e490919063ffffffff16565b9050610a30610a2185610a138461096a612634565b73ffffffffffffffffffffffffffffffffffffffff16637c2c69c08b898151811061099157fe5b60200260200101516040518263ffffffff1660e01b81526004016109b59190613082565b60206040518083038186803b1580156109cd57600080fd5b505afa1580156109e1573d6000803e3d6000fd5b505050506040513d601f19601f82011682018060405250810190610a059190612df5565b61265e90919063ffffffff16565b6126e490919063ffffffff16565b8461272e90919063ffffffff16565b92505080806001019150506107d5565b508093505050505b92915050565b606080600080610a5c61260a565b9050610a66611cbf565b9350835167ffffffffffffffff81118015610a8057600080fd5b50604051908082528060200260200182016040528015610aaf5781602001602082028036833780820191505090505b5092506000805b8551811015610d12576000610ac9612634565b73ffffffffffffffffffffffffffffffffffffffff1663c462b5208b898581518110610af157fe5b60200260200101518c6040518463ffffffff1660e01b8152600401610b18939291906130c6565b60206040518083038186803b158015610b3057600080fd5b505afa158015610b44573d6000803e3d6000fd5b505050506040513d601f19601f82011682018060405250810190610b689190612df5565b905060008473ffffffffffffffffffffffffffffffffffffffff1663d02641a0898581518110610b9457fe5b60200260200101516040518263ffffffff1660e01b8152600401610bb89190613082565b60206040518083038186803b158015610bd057600080fd5b505afa158015610be4573d6000803e3d6000fd5b505050506040513d601f19601f82011682018060405250810190610c089190612df5565b90506000610c39670de0b6b3a7640000610c2b858561265e90919063ffffffff16565b6126e490919063ffffffff16565b905089610c4f828761272e90919063ffffffff16565b1015610c8b5782888581518110610c6257fe5b602002602001018181525050610c81818661272e90919063ffffffff16565b9450505050610d05565b6000610ca0868c6127b690919063ffffffff16565b9050610ccf83610cc1670de0b6b3a76400008461265e90919063ffffffff16565b6126e490919063ffffffff16565b898681518110610cdb57fe5b602002602001018181525050610cfa818761272e90919063ffffffff16565b955050505050610d12565b8080600101915050610ab6565b508581149250505093509350939050565b60606000610d2f61260a565b73ffffffffffffffffffffffffffffffffffffffff1663294d499e6040518163ffffffff1660e01b815260040160006040518083038186803b158015610d7457600080fd5b505afa158015610d88573d6000803e3d6000fd5b505050506040513d6000823e3d601f19601f82011682018060405250810190610db19190612cfb565b9050805167ffffffffffffffff81118015610dcb57600080fd5b50604051908082528060200260200182016040528015610dfa5781602001602082028036833780820191505090505b5091506000610e098585611002565b90506000811415610e1b575050610ffc565b60008060005b8451811015610ff657610e32612634565b73ffffffffffffffffffffffffffffffffffffffff1663c462b52089878481518110610e5a57fe5b60200260200101518a6040518463ffffffff1660e01b8152600401610e81939291906130c6565b60206040518083038186803b158015610e9957600080fd5b505afa158015610ead573d6000803e3d6000fd5b505050506040513d601f19601f82011682018060405250810190610ed19190612df5565b9250610fa2670de0b6b3a7640000610f9485610eeb61260a565b73ffffffffffffffffffffffffffffffffffffffff1663d02641a08a8781518110610f1257fe5b60200260200101516040518263ffffffff1660e01b8152600401610f369190613082565b60206040518083038186803b158015610f4e57600080fd5b505afa158015610f62573d6000803e3d6000fd5b505050506040513d601f19601f82011682018060405250810190610f869190612df5565b61265e90919063ffffffff16565b6126e490919063ffffffff16565b9150610fd184610fc3670de0b6b3a76400008561265e90919063ffffffff16565b6126e490919063ffffffff16565b868281518110610fdd57fe5b6020026020010181815250508080600101915050610e21565b50505050505b92915050565b60008061100d612634565b9050600061101961260a565b905060008173ffffffffffffffffffffffffffffffffffffffff1663294d499e6040518163ffffffff1660e01b815260040160006040518083038186803b15801561106357600080fd5b505afa158015611077573d6000803e3d6000fd5b505050506040513d6000823e3d601f19601f820116820180604052508101906110a09190612cfb565b90506000935060005b815181101561124057600061121b670de0b6b3a764000061120d8673ffffffffffffffffffffffffffffffffffffffff1663d02641a08787815181106110eb57fe5b60200260200101516040518263ffffffff1660e01b815260040161110f9190613082565b60206040518083038186803b15801561112757600080fd5b505afa15801561113b573d6000803e3d6000fd5b505050506040513d601f19601f8201168201806040525081019061115f9190612df5565b8873ffffffffffffffffffffffffffffffffffffffff1663c462b5208d89898151811061118857fe5b60200260200101518e6040518463ffffffff1660e01b81526004016111af939291906130c6565b60206040518083038186803b1580156111c757600080fd5b505afa1580156111db573d6000803e3d6000fd5b505050506040513d601f19601f820116820180604052508101906111ff9190612df5565b61265e90919063ffffffff16565b6126e490919063ffffffff16565b9050611230818761272e90919063ffffffff16565b95505080806001019150506110a9565b5050505092915050565b6000806112578484612211565b9050600081141561126c5760009150506112a5565b60006112788585611002565b90506112a08261129260648461265e90919063ffffffff16565b6126e490919063ffffffff16565b925050505b92915050565b6000806112b661260a565b73ffffffffffffffffffffffffffffffffffffffff1663294d499e6040518163ffffffff1660e01b815260040160006040518083038186803b1580156112fb57600080fd5b505afa15801561130f573d6000803e3d6000fd5b505050506040513d6000823e3d601f19601f820116820180604052508101906113389190612cfb565b905060006113468585610d23565b905060005b82518110156114555761144661143761271061142985858151811061136c57fe5b602002602001015161137c61260a565b73ffffffffffffffffffffffffffffffffffffffff1663bd9e52008988815181106113a357fe5b60200260200101516040518263ffffffff1660e01b81526004016113c79190613082565b60806040518083038186803b1580156113df57600080fd5b505afa1580156113f3573d6000803e3d6000fd5b505050506040513d601f19601f820116820180604052508101906114179190612da3565b6060015161265e90919063ffffffff16565b6126e490919063ffffffff16565b8561272e90919063ffffffff16565b9350808060010191505061134b565b50505092915050565b611466612800565b73ffffffffffffffffffffffffffffffffffffffff1660008054906101000a900473ffffffffffffffffffffffffffffffffffffffff1673ffffffffffffffffffffffffffffffffffffffff1614611526576040517f08c379a00000000000000000000000000000000000000000000000000000000081526004018080602001828103825260208152602001807f4f776e61626c653a2063616c6c6572206973206e6f7420746865206f776e657281525060200191505060405180910390fd5b600073ffffffffffffffffffffffffffffffffffffffff1660008054906101000a900473ffffffffffffffffffffffffffffffffffffffff1673ffffffffffffffffffffffffffffffffffffffff167f8be0079c531659141344cd1fd0a4f28419497f9722a3daafe3b4186f6b6457e060405160405180910390a360008060006101000a81548173ffffffffffffffffffffffffffffffffffffffff021916908373ffffffffffffffffffffffffffffffffffffffff160217905550565b60008061168b6115f2612634565b73ffffffffffffffffffffffffffffffffffffffff1663c68da11086866040518363ffffffff1660e01b815260040161162c92919061309d565b60206040518083038186803b15801561164457600080fd5b505afa158015611658573d6000803e3d6000fd5b505050506040513d601f19601f8201168201806040525081019061167c9190612df5565b426127b690919063ffffffff16565b905060006116998585610720565b905061177b6103e861176d6301e1338061175f86611751876116b9612634565b73ffffffffffffffffffffffffffffffffffffffff1663498b5ae88e8e6040518363ffffffff1660e01b81526004016116f392919061309d565b60206040518083038186803b15801561170b57600080fd5b505afa15801561171f573d6000803e3d6000fd5b505050506040513d601f19601f820116820180604052508101906117439190612df5565b61265e90919063ffffffff16565b61265e90919063ffffffff16565b6126e490919063ffffffff16565b6126e490919063ffffffff16565b9250505092915050565b60008060009054906101000a900473ffffffffffffffffffffffffffffffffffffffff16905090565b6000806117bb8385611add565b905060006117c98486612211565b905060006117d78587611002565b905082611800836117f260648561265e90919063ffffffff16565b6126e490919063ffffffff16565b10611840576040517f08c379a0000000000000000000000000000000000000000000000000000000008152600401611837906131a1565b60405180910390fd5b600061184c86886112ab565b9050600061187d670de0b6b3a764000061186f858561265e90919063ffffffff16565b6126e490919063ffffffff16565b905060006118ff670de0b6b3a76400006118f16118d0866118c260646118b4670de0b6b3a76400008e61265e90919063ffffffff16565b6126e490919063ffffffff16565b61272e90919063ffffffff16565b6118e3868a61272e90919063ffffffff16565b61265e90919063ffffffff16565b6126e490919063ffffffff16565b9050600061192a8661191c6103e88561265e90919063ffffffff16565b6126e490919063ffffffff16565b9050611937818787611a0b565b9750600061194361260a565b73ffffffffffffffffffffffffffffffffffffffff1663d02641a08c6040518263ffffffff1660e01b815260040161197b9190613082565b60206040518083038186803b15801561199357600080fd5b505afa1580156119a7573d6000803e3d6000fd5b505050506040513d601f19601f820116820180604052508101906119cb9190612df5565b90506119fa816119ec670de0b6b3a76400008c61265e90919063ffffffff16565b6126e490919063ffffffff16565b985050505050505050509392505050565b600080611a47611a266103e88561265e90919063ffffffff16565b611a39878761265e90919063ffffffff16565b6127b690919063ffffffff16565b90506000611a606103e8876127b690919063ffffffff16565b9050611a7581836126e490919063ffffffff16565b925050509392505050565b6000611ad46064611ac6670de0b6b3a7640000611ab887611aaa8a8961265e90919063ffffffff16565b61265e90919063ffffffff16565b6126e490919063ffffffff16565b6126e490919063ffffffff16565b90509392505050565b600080611ae861260a565b73ffffffffffffffffffffffffffffffffffffffff1663294d499e6040518163ffffffff1660e01b815260040160006040518083038186803b158015611b2d57600080fd5b505afa158015611b41573d6000803e3d6000fd5b505050506040513d6000823e3d601f19601f82011682018060405250810190611b6a9190612cfb565b90506000611b788585610d23565b905060005b8251811015611ca057611c91611c82670de0b6b3a7640000611c74858581518110611ba457fe5b6020026020010151611c666064611bb961260a565b73ffffffffffffffffffffffffffffffffffffffff1663bd9e52008b8a81518110611be057fe5b60200260200101516040518263ffffffff1660e01b8152600401611c049190613082565b60806040518083038186803b158015611c1c57600080fd5b505afa158015611c30573d6000803e3d6000fd5b505050506040513d601f19601f82011682018060405250810190611c549190612da3565b6000015161265e90919063ffffffff16565b61265e90919063ffffffff16565b6126e490919063ffffffff16565b8561272e90919063ffffffff16565b93508080600101915050611b7d565b50611cb56064846126e490919063ffffffff16565b9250505092915050565b60606000611ccb61260a565b905060008173ffffffffffffffffffffffffffffffffffffffff1663294d499e6040518163ffffffff1660e01b815260040160006040518083038186803b158015611d1557600080fd5b505afa158015611d29573d6000803e3d6000fd5b505050506040513d6000823e3d601f19601f82011682018060405250810190611d529190612cfb565b90506000815167ffffffffffffffff81118015611d6e57600080fd5b50604051908082528060200260200182016040528015611d9d5781602001602082028036833780820191505090505b50905060005b8151811015611e71578373ffffffffffffffffffffffffffffffffffffffff1663bd9e5200848381518110611dd457fe5b60200260200101516040518263ffffffff1660e01b8152600401611df89190613082565b60806040518083038186803b158015611e1057600080fd5b505afa158015611e24573d6000803e3d6000fd5b505050506040513d601f19601f82011682018060405250810190611e489190612da3565b60200151828281518110611e5857fe5b6020026020010181815250508080600101915050611da3565b506000815167ffffffffffffffff81118015611e8c57600080fd5b50604051908082528060200260200182016040528015611ebb5781602001602082028036833780820191505090505b50905060005b8151811015611f0357828181518110611ed657fe5b6020026020010151828281518110611eea57fe5b6020026020010181815250508080600101915050611ec1565b50611f1481600060018451036105df565b6000835167ffffffffffffffff81118015611f2e57600080fd5b50604051908082528060200260200182016040528015611f5d5781602001602082028036833780820191505090505b50905060005b8251811015611fe35760005b8451811015611fd557838281518110611f8457fe5b6020026020010151858281518110611f9857fe5b602002602001015114611faa57611fc8565b80838381518110611fb757fe5b602002602001018181525050611fd5565b8080600101915050611f6f565b508080600101915050611f63565b50835167ffffffffffffffff81118015611ffc57600080fd5b5060405190808252806020026020018201604052801561202b5781602001602082028036833780820191505090505b50955060005b84518110156120ba57600082828151811061204857fe5b6020026020010151905085818151811061205e57fe5b602002602001015188838151811061207257fe5b602002602001019073ffffffffffffffffffffffffffffffffffffffff16908173ffffffffffffffffffffffffffffffffffffffff1681525050508080600101915050612031565b50505050505090565b6120cb612800565b73ffffffffffffffffffffffffffffffffffffffff1660008054906101000a900473ffffffffffffffffffffffffffffffffffffffff1673ffffffffffffffffffffffffffffffffffffffff161461218b576040517f08c379a00000000000000000000000000000000000000000000000000000000081526004018080602001828103825260208152602001807f4f776e61626c653a2063616c6c6572206973206e6f7420746865206f776e657281525060200191505060405180910390fd5b81600160006101000a81548173ffffffffffffffffffffffffffffffffffffffff021916908373ffffffffffffffffffffffffffffffffffffffff16021790555080600260006101000a81548173ffffffffffffffffffffffffffffffffffffffff021916908373ffffffffffffffffffffffffffffffffffffffff1602179055505050565b6000612360670de0b6b3a764000061235261222a61260a565b73ffffffffffffffffffffffffffffffffffffffff1663d02641a0866040518263ffffffff1660e01b81526004016122629190613082565b60206040518083038186803b15801561227a57600080fd5b505afa15801561228e573d6000803e3d6000fd5b505050506040513d601f19601f820116820180604052508101906122b29190612df5565b6122ba612634565b73ffffffffffffffffffffffffffffffffffffffff1663498b5ae888886040518363ffffffff1660e01b81526004016122f492919061309d565b60206040518083038186803b15801561230c57600080fd5b505afa158015612320573d6000803e3d6000fd5b505050506040513d601f19601f820116820180604052508101906123449190612df5565b61265e90919063ffffffff16565b6126e490919063ffffffff16565b905092915050565b60009392505050565b60008061237e8484611002565b905060008114156123935760009150506123f9565b60006123cd60646123bf6123a78888611add565b6123b18989612211565b61265e90919063ffffffff16565b6126e490919063ffffffff16565b90508082116123e1576000925050506123f9565b6123f481836127b690919063ffffffff16565b925050505b92915050565b612407612800565b73ffffffffffffffffffffffffffffffffffffffff1660008054906101000a900473ffffffffffffffffffffffffffffffffffffffff1673ffffffffffffffffffffffffffffffffffffffff16146124c7576040517f08c379a00000000000000000000000000000000000000000000000000000000081526004018080602001828103825260208152602001807f4f776e61626c653a2063616c6c6572206973206e6f7420746865206f776e657281525060200191505060405180910390fd5b600073ffffffffffffffffffffffffffffffffffffffff168173ffffffffffffffffffffffffffffffffffffffff16141561254d576040517f08c379a00000000000000000000000000000000000000000000000000000000081526004018080602001828103825260268152602001806133926026913960400191505060405180910390fd5b8073ffffffffffffffffffffffffffffffffffffffff1660008054906101000a900473ffffffffffffffffffffffffffffffffffffffff1673ffffffffffffffffffffffffffffffffffffffff167f8be0079c531659141344cd1fd0a4f28419497f9722a3daafe3b4186f6b6457e060405160405180910390a3806000806101000a81548173ffffffffffffffffffffffffffffffffffffffff021916908373ffffffffffffffffffffffffffffffffffffffff16021790555050565b6000600160009054906101000a900473ffffffffffffffffffffffffffffffffffffffff16905090565b6000600260009054906101000a900473ffffffffffffffffffffffffffffffffffffffff16905090565b60008083141561267157600090506126de565b600082840290508284828161268257fe5b04146126d9576040517f08c379a00000000000000000000000000000000000000000000000000000000081526004018080602001828103825260218152602001806133b86021913960400191505060405180910390fd5b809150505b92915050565b600061272683836040518060400160405280601a81526020017f536166654d6174683a206469766973696f6e206279207a65726f000000000000815250612808565b905092915050565b6000808284019050838110156127ac576040517f08c379a000000000000000000000000000000000000000000000000000000000815260040180806020018281038252601b8152602001807f536166654d6174683a206164646974696f6e206f766572666c6f77000000000081525060200191505060405180910390fd5b8091505092915050565b60006127f883836040518060400160405280601e81526020017f536166654d6174683a207375627472616374696f6e206f766572666c6f7700008152506128ce565b905092915050565b600033905090565b600080831182906128b4576040517f08c379a00000000000000000000000000000000000000000000000000000000081526004018080602001828103825283818151815260200191508051906020019080838360005b8381101561287957808201518184015260208101905061285e565b50505050905090810190601f1680156128a65780820380516001836020036101000a031916815260200191505b509250505060405180910390fd5b5060008385816128c057fe5b049050809150509392505050565b600083831115829061297b576040517f08c379a00000000000000000000000000000000000000000000000000000000081526004018080602001828103825283818151815260200191508051906020019080838360005b83811015612940578082015181840152602081019050612925565b50505050905090810190601f16801561296d5780820380516001836020036101000a031916815260200191505b509250505060405180910390fd5b5060008385039050809150509392505050565b60006129a161299c8461320d565b6131dc565b905080838252602082019050828560208602820111156129c057600080fd5b60005b858110156129f057816129d68882612a7b565b8452602084019350602083019250506001810190506129c3565b5050509392505050565b6000612a0d612a0884613239565b6131dc565b90508083825260208201905082856020860282011115612a2c57600080fd5b60005b85811015612a5c5781612a428882612bce565b845260208401935060208301925050600181019050612a2f565b5050509392505050565b600081359050612a758161333c565b92915050565b600081519050612a8a8161333c565b92915050565b600082601f830112612aa157600080fd5b8151612ab184826020860161298e565b91505092915050565b600082601f830112612acb57600080fd5b8135612adb8482602086016129fa565b91505092915050565b600081359050612af381613353565b92915050565b600081359050612b0881613363565b92915050565b600060808284031215612b2057600080fd5b612b2a60806131dc565b90506000612b3a84828501612be3565b6000830152506020612b4e84828501612be3565b6020830152506040612b6284828501612be3565b6040830152506060612b7684828501612be3565b60608301525092915050565b600060408284031215612b9457600080fd5b612b9e60406131dc565b90506000612bae84828501612be3565b6000830152506020612bc284828501612be3565b60208301525092915050565b600081359050612bdd8161337a565b92915050565b600081519050612bf28161337a565b92915050565b600060208284031215612c0a57600080fd5b6000612c1884828501612a66565b91505092915050565b60008060408385031215612c3457600080fd5b6000612c4285828601612a66565b9250506020612c5385828601612a66565b9150509250929050565b600080600060608486031215612c7257600080fd5b6000612c8086828701612a66565b9350506020612c9186828701612a66565b9250506040612ca286828701612ae4565b9150509250925092565b600080600060608486031215612cc157600080fd5b6000612ccf86828701612a66565b9350506020612ce086828701612a66565b9250506040612cf186828701612bce565b9150509250925092565b600060208284031215612d0d57600080fd5b600082015167ffffffffffffffff811115612d2757600080fd5b612d3384828501612a90565b91505092915050565b600080600060608486031215612d5157600080fd5b600084013567ffffffffffffffff811115612d6b57600080fd5b612d7786828701612aba565b9350506020612d8886828701612af9565b9250506040612d9986828701612af9565b9150509250925092565b600060808284031215612db557600080fd5b6000612dc384828501612b0e565b91505092915050565b600060408284031215612dde57600080fd5b6000612dec84828501612b82565b91505092915050565b600060208284031215612e0757600080fd5b6000612e1584828501612be3565b91505092915050565b600080600060608486031215612e3357600080fd5b6000612e4186828701612bce565b9350506020612e5286828701612a66565b9250506040612e6386828701612a66565b9150509250925092565b600080600060608486031215612e8257600080fd5b6000612e9086828701612bce565b9350506020612ea186828701612a66565b9250506040612eb286828701612ae4565b9150509250925092565b600080600060608486031215612ed157600080fd5b6000612edf86828701612bce565b9350506020612ef086828701612bce565b9250506040612f0186828701612bce565b9150509250925092565b6000612f178383612f3b565b60208301905092915050565b6000612f2f8383613064565b60208301905092915050565b612f44816132e8565b82525050565b612f53816132e8565b82525050565b6000612f6482613285565b612f6e81856132b5565b9350612f7983613265565b8060005b83811015612faa578151612f918882612f0b565b9750612f9c8361329b565b925050600181019050612f7d565b5085935050505092915050565b6000612fc282613290565b612fcc81856132c6565b9350612fd783613275565b8060005b83811015613008578151612fef8882612f23565b9750612ffa836132a8565b925050600181019050612fdb565b5085935050505092915050565b61301e816132fa565b82525050565b60006130316002836132d7565b91507f43520000000000000000000000000000000000000000000000000000000000006000830152602082019050919050565b61306d81613330565b82525050565b61307c81613330565b82525050565b60006020820190506130976000830184612f4a565b92915050565b60006040820190506130b26000830185612f4a565b6130bf6020830184612f4a565b9392505050565b60006060820190506130db6000830186612f4a565b6130e86020830185612f4a565b6130f56040830184612f4a565b949350505050565b600060208201905081810360008301526131178184612f59565b905092915050565b600060608201905081810360008301526131398186612f59565b9050818103602083015261314d8185612fb7565b905061315c6040830184613015565b949350505050565b6000602082019050818103600083015261317e8184612fb7565b905092915050565b600060208201905061319b6000830184613015565b92915050565b600060208201905081810360008301526131ba81613024565b9050919050565b60006020820190506131d66000830184613073565b92915050565b6000604051905081810181811067ffffffffffffffff821117156132035761320261333a565b5b8060405250919050565b600067ffffffffffffffff8211156132285761322761333a565b5b602082029050602081019050919050565b600067ffffffffffffffff8211156132545761325361333a565b5b602082029050602081019050919050565b6000819050602082019050919050565b6000819050602082019050919050565b600081519050919050565b600081519050919050565b6000602082019050919050565b6000602082019050919050565b600082825260208201905092915050565b600082825260208201905092915050565b600082825260208201905092915050565b60006132f382613310565b9050919050565b60008115159050919050565b6000819050919050565b600073ffffffffffffffffffffffffffffffffffffffff82169050919050565b6000819050919050565bfe5b613345816132e8565b811461335057600080fd5b50565b6003811061336057600080fd5b50565b61336c81613306565b811461337757600080fd5b50565b61338381613330565b811461338e57600080fd5b5056fe4f776e61626c653a206e6577206f776e657220697320746865207a65726f2061646472657373536166654d6174683a206d756c7469706c69636174696f6e206f766572666c6f77a26469706673582212203b1191a38983f9debbf9b6598eb80c2ba87b8d92ce90b9498eab8043fe3e26db64736f6c63430007060033",
  "linkReferences": {},
  "deployedLinkReferences": {}
}