{
  "_format": "hh-sol-artifact-1",
  "contractName": "VaultLibrary",
  "sourceName": "contracts/Bank/VaultLibrary.sol",
  "abi": [
    {
      "inputs": [
        {
          "internalType": "address",
          "name": "_comptroller",
          "type": "address"
        },
        {
          "internalType": "address",
          "name": "_treasury",
          "type": "address"
        }
      ],
      "stateMutability": "nonpayable",
      "type": "constructor"
    },
    {
      "anonymous": false,
      "inputs": [
        {
          "indexed": true,
          "internalType": "address",
          "name": "previousOwner",
          "type": "address"
        },
        {
          "indexed": true,
          "internalType": "address",
          "name": "newOwner",
          "type": "address"
        }
      ],
      "name": "OwnershipTransferred",
      "type": "event"
    },
    {
      "inputs": [
        {
          "internalType": "address",
          "name": "user",
          "type": "address"
        },
        {
          "internalType": "address",
          "name": "fxToken",
          "type": "address"
        }
      ],
      "name": "calculateInterest",
      "outputs": [
        {
          "internalType": "uint256",
          "name": "interest",
          "type": "uint256"
        }
      ],
      "stateMutability": "view",
      "type": "function"
    },
    {
      "inputs": [
        {
          "internalType": "address",
          "name": "account",
          "type": "address"
        },
        {
          "internalType": "address",
          "name": "fxToken",
          "type": "address"
        },
        {
          "internalType": "enum IVaultLibrary.CollateralRatioType",
          "name": "crt",
          "type": "uint8"
        }
      ],
      "name": "doesMeetRatio",
      "outputs": [
        {
          "internalType": "bool",
          "name": "",
          "type": "bool"
        }
      ],
      "stateMutability": "view",
      "type": "function"
    },
    {
      "inputs": [
        {
          "internalType": "uint256",
          "name": "amount",
          "type": "uint256"
        },
        {
          "internalType": "address",
          "name": "token",
          "type": "address"
        },
        {
          "internalType": "address",
          "name": "from",
          "type": "address"
        }
      ],
      "name": "getAllowedBuyCollateralFromTokenAmount",
      "outputs": [
        {
          "internalType": "uint256",
          "name": "allowedAmount",
          "type": "uint256"
        }
      ],
      "stateMutability": "view",
      "type": "function"
    },
    {
      "inputs": [
        {
          "internalType": "address",
          "name": "account",
          "type": "address"
        },
        {
          "internalType": "address",
          "name": "fxToken",
          "type": "address"
        },
        {
          "internalType": "uint256",
          "name": "amountEth",
          "type": "uint256"
        }
      ],
      "name": "getCollateralForAmount",
      "outputs": [
        {
          "internalType": "address[]",
          "name": "collateralTypes",
          "type": "address[]"
        },
        {
          "internalType": "uint256[]",
          "name": "collateralAmounts",
          "type": "uint256[]"
        },
        {
          "internalType": "bool",
          "name": "metAmount",
          "type": "bool"
        }
      ],
      "stateMutability": "view",
      "type": "function"
    },
    {
      "inputs": [
        {
          "internalType": "uint256",
          "name": "assetAmount",
          "type": "uint256"
        },
        {
          "internalType": "address",
          "name": "fxToken",
          "type": "address"
        },
        {
          "internalType": "enum IVaultLibrary.CollateralRatioType",
          "name": "crt",
          "type": "uint8"
        }
      ],
      "name": "getCollateralRequiredAsEth",
      "outputs": [
        {
          "internalType": "uint256",
          "name": "requiredCollateral",
          "type": "uint256"
        }
      ],
      "stateMutability": "view",
      "type": "function"
    },
    {
      "inputs": [
        {
          "internalType": "address",
          "name": "account",
          "type": "address"
        },
        {
          "internalType": "address",
          "name": "fxToken",
          "type": "address"
        }
      ],
      "name": "getCollateralShares",
      "outputs": [
        {
          "internalType": "uint256[]",
          "name": "shares",
          "type": "uint256[]"
        }
      ],
      "stateMutability": "view",
      "type": "function"
    },
    {
      "inputs": [],
      "name": "getCollateralTypesSortedByLiquidationRank",
      "outputs": [
        {
          "internalType": "address[]",
          "name": "sortedCollateralTypes",
          "type": "address[]"
        }
      ],
      "stateMutability": "view",
      "type": "function"
    },
    {
      "inputs": [
        {
          "internalType": "address",
          "name": "account",
          "type": "address"
        },
        {
          "internalType": "address",
          "name": "fxToken",
          "type": "address"
        }
      ],
      "name": "getCurrentRatio",
      "outputs": [
        {
          "internalType": "uint256",
          "name": "ratio",
          "type": "uint256"
        }
      ],
      "stateMutability": "view",
      "type": "function"
    },
    {
      "inputs": [
        {
          "internalType": "address",
          "name": "account",
          "type": "address"
        },
        {
          "internalType": "address",
          "name": "fxToken",
          "type": "address"
        }
      ],
      "name": "getDebtAsEth",
      "outputs": [
        {
          "internalType": "uint256",
          "name": "debt",
          "type": "uint256"
        }
      ],
      "stateMutability": "view",
      "type": "function"
    },
    {
      "inputs": [
        {
          "internalType": "address",
          "name": "account",
          "type": "address"
        },
        {
          "internalType": "address",
          "name": "fxToken",
          "type": "address"
        }
      ],
      "name": "getFreeCollateralAsEth",
      "outputs": [
        {
          "internalType": "uint256",
          "name": "",
          "type": "uint256"
        }
      ],
      "stateMutability": "view",
      "type": "function"
    },
    {
      "inputs": [
        {
          "internalType": "address",
          "name": "user",
          "type": "address"
        },
        {
          "internalType": "address",
          "name": "fxToken",
          "type": "address"
        }
      ],
      "name": "getInterestRate",
      "outputs": [
        {
          "internalType": "uint256",
          "name": "",
          "type": "uint256"
        }
      ],
      "stateMutability": "view",
      "type": "function"
    },
    {
      "inputs": [
        {
          "internalType": "address",
          "name": "account",
          "type": "address"
        },
        {
          "internalType": "address",
          "name": "fxToken",
          "type": "address"
        }
      ],
      "name": "getLiquidationFee",
      "outputs": [
        {
          "internalType": "uint256",
          "name": "fee",
          "type": "uint256"
        }
      ],
      "stateMutability": "view",
      "type": "function"
    },
    {
      "inputs": [
        {
          "internalType": "uint256",
          "name": "tokenAmount",
          "type": "uint256"
        },
        {
          "internalType": "uint256",
          "name": "ratio",
          "type": "uint256"
        },
        {
          "internalType": "uint256",
          "name": "unitPrice",
          "type": "uint256"
        }
      ],
      "name": "getMinimumCollateral",
      "outputs": [
        {
          "internalType": "uint256",
          "name": "minimum",
          "type": "uint256"
        }
      ],
      "stateMutability": "pure",
      "type": "function"
    },
    {
      "inputs": [
        {
          "internalType": "address",
          "name": "account",
          "type": "address"
        },
        {
          "internalType": "address",
          "name": "fxToken",
          "type": "address"
        }
      ],
      "name": "getMinimumRatio",
      "outputs": [
        {
          "internalType": "uint256",
          "name": "ratio",
          "type": "uint256"
        }
      ],
      "stateMutability": "view",
      "type": "function"
    },
    {
      "inputs": [
        {
          "internalType": "address",
          "name": "account",
          "type": "address"
        },
        {
          "internalType": "address",
          "name": "fxToken",
          "type": "address"
        }
      ],
      "name": "getTotalCollateralBalanceAsEth",
      "outputs": [
        {
          "internalType": "uint256",
          "name": "balance",
          "type": "uint256"
        }
      ],
      "stateMutability": "view",
      "type": "function"
    },
    {
      "inputs": [],
      "name": "owner",
      "outputs": [
        {
          "internalType": "address",
          "name": "",
          "type": "address"
        }
      ],
      "stateMutability": "view",
      "type": "function"
    },
    {
      "inputs": [
        {
          "internalType": "uint256[]",
          "name": "array",
          "type": "uint256[]"
        },
        {
          "internalType": "int256",
          "name": "left",
          "type": "int256"
        },
        {
          "internalType": "int256",
          "name": "right",
          "type": "int256"
        }
      ],
      "name": "quickSort",
      "outputs": [],
      "stateMutability": "pure",
      "type": "function"
    },
    {
      "inputs": [],
      "name": "renounceOwnership",
      "outputs": [],
      "stateMutability": "nonpayable",
      "type": "function"
    },
    {
      "inputs": [
        {
          "internalType": "address",
          "name": "_comptroller",
          "type": "address"
        },
        {
          "internalType": "address",
          "name": "_treasury",
          "type": "address"
        }
      ],
      "name": "setContracts",
      "outputs": [],
      "stateMutability": "nonpayable",
      "type": "function"
    },
    {
      "inputs": [
        {
          "internalType": "uint256",
          "name": "crTarget",
          "type": "uint256"
        },
        {
          "internalType": "uint256",
          "name": "debt",
          "type": "uint256"
        },
        {
          "internalType": "uint256",
          "name": "collateral",
          "type": "uint256"
        }
      ],
      "name": "tokensRequiredForCrIncrease",
      "outputs": [
        {
          "internalType": "uint256",
          "name": "amount",
          "type": "uint256"
        }
      ],
      "stateMutability": "pure",
      "type": "function"
    },
    {
      "inputs": [
        {
          "internalType": "address",
          "name": "newOwner",
          "type": "address"
        }
      ],
      "name": "transferOwnership",
      "outputs": [],
      "stateMutability": "nonpayable",
      "type": "function"
    }
  ],
  "bytecode": "0x60806040523480156200001157600080fd5b50604051620035b0380380620035b0833981810160405281019062000037919062000190565b6000620000496200017160201b60201c565b9050806000806101000a81548173ffffffffffffffffffffffffffffffffffffffff021916908373ffffffffffffffffffffffffffffffffffffffff1602179055508073ffffffffffffffffffffffffffffffffffffffff16600073ffffffffffffffffffffffffffffffffffffffff167f8be0079c531659141344cd1fd0a4f28419497f9722a3daafe3b4186f6b6457e060405160405180910390a35081600160006101000a81548173ffffffffffffffffffffffffffffffffffffffff021916908373ffffffffffffffffffffffffffffffffffffffff16021790555080600260006101000a81548173ffffffffffffffffffffffffffffffffffffffff021916908373ffffffffffffffffffffffffffffffffffffffff16021790555050506200021f565b600033905090565b6000815190506200018a8162000205565b92915050565b60008060408385031215620001a457600080fd5b6000620001b48582860162000179565b9250506020620001c78582860162000179565b9150509250929050565b6000620001de82620001e5565b9050919050565b600073ffffffffffffffffffffffffffffffffffffffff82169050919050565b6200021081620001d1565b81146200021c57600080fd5b50565b613381806200022f6000396000f3fe608060405234801561001057600080fd5b50600436106101375760003560e01c80638da5cb5b116100b8578063c4d7b8b81161007c578063c4d7b8b8146103c2578063d8952a49146103e0578063db3fabeb146103fc578063e58987fb1461042c578063e76ab2391461045c578063f2fde38b1461048c57610137565b80638da5cb5b146102e45780638dac8d131461030257806397ae1974146103325780639e718d0714610362578063bcbe3f221461039257610137565b80634c90f229116100ff5780634c90f2291461021a5780635a763fbb1461024a57806364d321b71461027a578063715018a6146102aa57806387092940146102b457610137565b8063027ff1e11461013c5780630a06fc3c1461016c57806312ffb67814610188578063234ab3e2146101b857806349cf9cce146101ea575b600080fd5b61015660048036038101906101519190612bd0565b6104a8565b60405161016391906130f9565b60405180910390f35b61018660048036038101906101819190612caf565b6105df565b005b6101a2600480360381019061019d9190612b94565b610720565b6040516101af9190613134565b60405180910390f35b6101d260048036038101906101cd9190612c1f565b610a4e565b6040516101e193929190613092565b60405180910390f35b61020460048036038101906101ff9190612b94565b610d23565b60405161021191906130d7565b60405180910390f35b610234600480360381019061022f9190612b94565b611002565b6040516102419190613134565b60405180910390f35b610264600480360381019061025f9190612b94565b61124a565b6040516102719190613134565b60405180910390f35b610294600480360381019061028f9190612b94565b6112ab565b6040516102a19190613134565b60405180910390f35b6102b261145e565b005b6102ce60048036038101906102c99190612b94565b6115e4565b6040516102db9190613134565b60405180910390f35b6102ec611785565b6040516102f99190612ff5565b60405180910390f35b61031c60048036038101906103179190612d91565b6117ae565b6040516103299190613134565b60405180910390f35b61034c60048036038101906103479190612e2f565b61197e565b6040516103599190613134565b60405180910390f35b61037c60048036038101906103779190612e2f565b6119f3565b6040516103899190613134565b60405180910390f35b6103ac60048036038101906103a79190612b94565b611a50565b6040516103b99190613134565b60405180910390f35b6103ca611c32565b6040516103d79190613070565b60405180910390f35b6103fa60048036038101906103f59190612b94565b612036565b005b61041660048036038101906104119190612b94565b612184565b6040516104239190613134565b60405180910390f35b61044660048036038101906104419190612de0565b6122db565b6040516104539190613134565b60405180910390f35b61047660048036038101906104719190612b94565b6122e4565b6040516104839190613134565b60405180910390f35b6104a660048036038101906104a19190612b6b565b612372565b005b60008060009050600060028111156104bc57fe5b8360028111156104c857fe5b14806104ea5750600160028111156104dc57fe5b8360028111156104e857fe5b145b15610500576104f98585611a50565b90506105b5565b60028081111561050c57fe5b83600281111561051857fe5b14156105b45761052661257d565b73ffffffffffffffffffffffffffffffffffffffff166388aa8bee856040518263ffffffff1660e01b815260040161055e9190612ff5565b604080518083038186803b15801561057557600080fd5b505afa158015610589573d6000803e3d6000fd5b505050506040513d601f19601f820116820180604052508101906105ad9190612d3f565b6000015190505b5b60006105c1868661124a565b9050600081141580156105d45750818110155b925050509392505050565b60008290506000829050808214156105f857505061071b565b60008560028686038161060757fe5b0586018151811061061457fe5b602002602001015190505b8183136106ef575b8086848151811061063457fe5b6020026020010151101561064f578280600101935050610627565b5b85828151811061065c57fe5b602002602001015181101561067957818060019003925050610650565b8183136106ea5785828151811061068c57fe5b60200260200101518684815181106106a057fe5b60200260200101518785815181106106b457fe5b602002602001018885815181106106c757fe5b602002602001018281525082815250505082806001019350508180600190039250505b61061f565b81851215610703576107028686846105df565b5b83831215610717576107168684866105df565b5b5050505b505050565b60008061072b61257d565b73ffffffffffffffffffffffffffffffffffffffff1663294d499e6040518163ffffffff1660e01b815260040160006040518083038186803b15801561077057600080fd5b505afa158015610784573d6000803e3d6000fd5b505050506040513d6000823e3d601f19601f820116820180604052508101906107ad9190612c6e565b905060006107bb8585611002565b905060008114156107d157600092505050610a48565b6000805b8351811015610a40576000610955670de0b6b3a76400006109476107f761257d565b73ffffffffffffffffffffffffffffffffffffffff1663d02641a089878151811061081e57fe5b60200260200101516040518263ffffffff1660e01b81526004016108429190612ff5565b60206040518083038186803b15801561085a57600080fd5b505afa15801561086e573d6000803e3d6000fd5b505050506040513d601f19601f820116820180604052508101906108929190612d68565b61089a6125a7565b73ffffffffffffffffffffffffffffffffffffffff1663c462b5208d8b89815181106108c257fe5b60200260200101518e6040518463ffffffff1660e01b81526004016108e993929190613039565b60206040518083038186803b15801561090157600080fd5b505afa158015610915573d6000803e3d6000fd5b505050506040513d601f19601f820116820180604052508101906109399190612d68565b6125d190919063ffffffff16565b61265790919063ffffffff16565b9050610a30610a2185610a138461096a6125a7565b73ffffffffffffffffffffffffffffffffffffffff16637c2c69c08b898151811061099157fe5b60200260200101516040518263ffffffff1660e01b81526004016109b59190612ff5565b60206040518083038186803b1580156109cd57600080fd5b505afa1580156109e1573d6000803e3d6000fd5b505050506040513d601f19601f82011682018060405250810190610a059190612d68565b6125d190919063ffffffff16565b61265790919063ffffffff16565b846126a190919063ffffffff16565b92505080806001019150506107d5565b508093505050505b92915050565b606080600080610a5c61257d565b9050610a66611c32565b9350835167ffffffffffffffff81118015610a8057600080fd5b50604051908082528060200260200182016040528015610aaf5781602001602082028036833780820191505090505b5092506000805b8551811015610d12576000610ac96125a7565b73ffffffffffffffffffffffffffffffffffffffff1663c462b5208b898581518110610af157fe5b60200260200101518c6040518463ffffffff1660e01b8152600401610b1893929190613039565b60206040518083038186803b158015610b3057600080fd5b505afa158015610b44573d6000803e3d6000fd5b505050506040513d601f19601f82011682018060405250810190610b689190612d68565b905060008473ffffffffffffffffffffffffffffffffffffffff1663d02641a0898581518110610b9457fe5b60200260200101516040518263ffffffff1660e01b8152600401610bb89190612ff5565b60206040518083038186803b158015610bd057600080fd5b505afa158015610be4573d6000803e3d6000fd5b505050506040513d601f19601f82011682018060405250810190610c089190612d68565b90506000610c39670de0b6b3a7640000610c2b85856125d190919063ffffffff16565b61265790919063ffffffff16565b905089610c4f82876126a190919063ffffffff16565b1015610c8b5782888581518110610c6257fe5b602002602001018181525050610c8181866126a190919063ffffffff16565b9450505050610d05565b6000610ca0868c61272990919063ffffffff16565b9050610ccf83610cc1670de0b6b3a7640000846125d190919063ffffffff16565b61265790919063ffffffff16565b898681518110610cdb57fe5b602002602001018181525050610cfa81876126a190919063ffffffff16565b955050505050610d12565b8080600101915050610ab6565b508581149250505093509350939050565b60606000610d2f61257d565b73ffffffffffffffffffffffffffffffffffffffff1663294d499e6040518163ffffffff1660e01b815260040160006040518083038186803b158015610d7457600080fd5b505afa158015610d88573d6000803e3d6000fd5b505050506040513d6000823e3d601f19601f82011682018060405250810190610db19190612c6e565b9050805167ffffffffffffffff81118015610dcb57600080fd5b50604051908082528060200260200182016040528015610dfa5781602001602082028036833780820191505090505b5091506000610e098585611002565b90506000811415610e1b575050610ffc565b60008060005b8451811015610ff657610e326125a7565b73ffffffffffffffffffffffffffffffffffffffff1663c462b52089878481518110610e5a57fe5b60200260200101518a6040518463ffffffff1660e01b8152600401610e8193929190613039565b60206040518083038186803b158015610e9957600080fd5b505afa158015610ead573d6000803e3d6000fd5b505050506040513d601f19601f82011682018060405250810190610ed19190612d68565b9250610fa2670de0b6b3a7640000610f9485610eeb61257d565b73ffffffffffffffffffffffffffffffffffffffff1663d02641a08a8781518110610f1257fe5b60200260200101516040518263ffffffff1660e01b8152600401610f369190612ff5565b60206040518083038186803b158015610f4e57600080fd5b505afa158015610f62573d6000803e3d6000fd5b505050506040513d601f19601f82011682018060405250810190610f869190612d68565b6125d190919063ffffffff16565b61265790919063ffffffff16565b9150610fd184610fc3670de0b6b3a7640000856125d190919063ffffffff16565b61265790919063ffffffff16565b868281518110610fdd57fe5b6020026020010181815250508080600101915050610e21565b50505050505b92915050565b60008061100d6125a7565b9050600061101961257d565b905060008173ffffffffffffffffffffffffffffffffffffffff1663294d499e6040518163ffffffff1660e01b815260040160006040518083038186803b15801561106357600080fd5b505afa158015611077573d6000803e3d6000fd5b505050506040513d6000823e3d601f19601f820116820180604052508101906110a09190612c6e565b90506000935060005b815181101561124057600061121b670de0b6b3a764000061120d8673ffffffffffffffffffffffffffffffffffffffff1663d02641a08787815181106110eb57fe5b60200260200101516040518263ffffffff1660e01b815260040161110f9190612ff5565b60206040518083038186803b15801561112757600080fd5b505afa15801561113b573d6000803e3d6000fd5b505050506040513d601f19601f8201168201806040525081019061115f9190612d68565b8873ffffffffffffffffffffffffffffffffffffffff1663c462b5208d89898151811061118857fe5b60200260200101518e6040518463ffffffff1660e01b81526004016111af93929190613039565b60206040518083038186803b1580156111c757600080fd5b505afa1580156111db573d6000803e3d6000fd5b505050506040513d601f19601f820116820180604052508101906111ff9190612d68565b6125d190919063ffffffff16565b61265790919063ffffffff16565b905061123081876126a190919063ffffffff16565b95505080806001019150506110a9565b5050505092915050565b6000806112578484612184565b9050600081141561126c5760009150506112a5565b60006112788585611002565b90506112a0826112926064846125d190919063ffffffff16565b61265790919063ffffffff16565b925050505b92915050565b6000806112b661257d565b73ffffffffffffffffffffffffffffffffffffffff1663294d499e6040518163ffffffff1660e01b815260040160006040518083038186803b1580156112fb57600080fd5b505afa15801561130f573d6000803e3d6000fd5b505050506040513d6000823e3d601f19601f820116820180604052508101906113389190612c6e565b905060006113468585610d23565b905060005b82518110156114555761144661143761271061142985858151811061136c57fe5b602002602001015161137c61257d565b73ffffffffffffffffffffffffffffffffffffffff1663bd9e52008988815181106113a357fe5b60200260200101516040518263ffffffff1660e01b81526004016113c79190612ff5565b60806040518083038186803b1580156113df57600080fd5b505afa1580156113f3573d6000803e3d6000fd5b505050506040513d601f19601f820116820180604052508101906114179190612d16565b606001516125d190919063ffffffff16565b61265790919063ffffffff16565b856126a190919063ffffffff16565b9350808060010191505061134b565b50505092915050565b611466612773565b73ffffffffffffffffffffffffffffffffffffffff1660008054906101000a900473ffffffffffffffffffffffffffffffffffffffff1673ffffffffffffffffffffffffffffffffffffffff1614611526576040517f08c379a00000000000000000000000000000000000000000000000000000000081526004018080602001828103825260208152602001807f4f776e61626c653a2063616c6c6572206973206e6f7420746865206f776e657281525060200191505060405180910390fd5b600073ffffffffffffffffffffffffffffffffffffffff1660008054906101000a900473ffffffffffffffffffffffffffffffffffffffff1673ffffffffffffffffffffffffffffffffffffffff167f8be0079c531659141344cd1fd0a4f28419497f9722a3daafe3b4186f6b6457e060405160405180910390a360008060006101000a81548173ffffffffffffffffffffffffffffffffffffffff021916908373ffffffffffffffffffffffffffffffffffffffff160217905550565b60008061168b6115f26125a7565b73ffffffffffffffffffffffffffffffffffffffff1663c68da11086866040518363ffffffff1660e01b815260040161162c929190613010565b60206040518083038186803b15801561164457600080fd5b505afa158015611658573d6000803e3d6000fd5b505050506040513d601f19601f8201168201806040525081019061167c9190612d68565b4261272990919063ffffffff16565b905060006116998585610720565b905061177b6103e861176d6301e1338061175f86611751876116b96125a7565b73ffffffffffffffffffffffffffffffffffffffff166339683a058e8e6040518363ffffffff1660e01b81526004016116f3929190613010565b60206040518083038186803b15801561170b57600080fd5b505afa15801561171f573d6000803e3d6000fd5b505050506040513d601f19601f820116820180604052508101906117439190612d68565b6125d190919063ffffffff16565b6125d190919063ffffffff16565b61265790919063ffffffff16565b61265790919063ffffffff16565b9250505092915050565b60008060009054906101000a900473ffffffffffffffffffffffffffffffffffffffff16905090565b6000806117bb8385611a50565b905060006117c98486612184565b905060006117d78587611002565b905082611800836117f26064856125d190919063ffffffff16565b61265790919063ffffffff16565b10611840576040517f08c379a000000000000000000000000000000000000000000000000000000000815260040161183790613114565b60405180910390fd5b600061184c86886112ab565b905061188d61187e670de0b6b3a764000061187085856125d190919063ffffffff16565b61265790919063ffffffff16565b8361272990919063ffffffff16565b91506118ad6118a6600a866125d190919063ffffffff16565b848461197e565b945060006118b961257d565b73ffffffffffffffffffffffffffffffffffffffff1663d02641a0896040518263ffffffff1660e01b81526004016118f19190612ff5565b60206040518083038186803b15801561190957600080fd5b505afa15801561191d573d6000803e3d6000fd5b505050506040513d601f19601f820116820180604052508101906119419190612d68565b905061197081611962670de0b6b3a7640000896125d190919063ffffffff16565b61265790919063ffffffff16565b955050505050509392505050565b6000806119ba6119996103e8856125d190919063ffffffff16565b6119ac87876125d190919063ffffffff16565b61272990919063ffffffff16565b905060006119d36103e88761272990919063ffffffff16565b90506119e8818361265790919063ffffffff16565b925050509392505050565b6000611a476064611a39670de0b6b3a7640000611a2b87611a1d8a896125d190919063ffffffff16565b6125d190919063ffffffff16565b61265790919063ffffffff16565b61265790919063ffffffff16565b90509392505050565b600080611a5b61257d565b73ffffffffffffffffffffffffffffffffffffffff1663294d499e6040518163ffffffff1660e01b815260040160006040518083038186803b158015611aa057600080fd5b505afa158015611ab4573d6000803e3d6000fd5b505050506040513d6000823e3d601f19601f82011682018060405250810190611add9190612c6e565b90506000611aeb8585610d23565b905060005b8251811015611c1357611c04611bf5670de0b6b3a7640000611be7858581518110611b1757fe5b6020026020010151611bd96064611b2c61257d565b73ffffffffffffffffffffffffffffffffffffffff1663bd9e52008b8a81518110611b5357fe5b60200260200101516040518263ffffffff1660e01b8152600401611b779190612ff5565b60806040518083038186803b158015611b8f57600080fd5b505afa158015611ba3573d6000803e3d6000fd5b505050506040513d601f19601f82011682018060405250810190611bc79190612d16565b600001516125d190919063ffffffff16565b6125d190919063ffffffff16565b61265790919063ffffffff16565b856126a190919063ffffffff16565b93508080600101915050611af0565b50611c2860648461265790919063ffffffff16565b9250505092915050565b60606000611c3e61257d565b905060008173ffffffffffffffffffffffffffffffffffffffff1663294d499e6040518163ffffffff1660e01b815260040160006040518083038186803b158015611c8857600080fd5b505afa158015611c9c573d6000803e3d6000fd5b505050506040513d6000823e3d601f19601f82011682018060405250810190611cc59190612c6e565b90506000815167ffffffffffffffff81118015611ce157600080fd5b50604051908082528060200260200182016040528015611d105781602001602082028036833780820191505090505b50905060005b8151811015611de4578373ffffffffffffffffffffffffffffffffffffffff1663bd9e5200848381518110611d4757fe5b60200260200101516040518263ffffffff1660e01b8152600401611d6b9190612ff5565b60806040518083038186803b158015611d8357600080fd5b505afa158015611d97573d6000803e3d6000fd5b505050506040513d601f19601f82011682018060405250810190611dbb9190612d16565b60200151828281518110611dcb57fe5b6020026020010181815250508080600101915050611d16565b506000815167ffffffffffffffff81118015611dff57600080fd5b50604051908082528060200260200182016040528015611e2e5781602001602082028036833780820191505090505b50905060005b8151811015611e7657828181518110611e4957fe5b6020026020010151828281518110611e5d57fe5b6020026020010181815250508080600101915050611e34565b50611e8781600060018451036105df565b6000835167ffffffffffffffff81118015611ea157600080fd5b50604051908082528060200260200182016040528015611ed05781602001602082028036833780820191505090505b50905060005b8251811015611f565760005b8451811015611f4857838281518110611ef757fe5b6020026020010151858281518110611f0b57fe5b602002602001015114611f1d57611f3b565b80838381518110611f2a57fe5b602002602001018181525050611f48565b8080600101915050611ee2565b508080600101915050611ed6565b50835167ffffffffffffffff81118015611f6f57600080fd5b50604051908082528060200260200182016040528015611f9e5781602001602082028036833780820191505090505b50955060005b845181101561202d576000828281518110611fbb57fe5b60200260200101519050858181518110611fd157fe5b6020026020010151888381518110611fe557fe5b602002602001019073ffffffffffffffffffffffffffffffffffffffff16908173ffffffffffffffffffffffffffffffffffffffff1681525050508080600101915050611fa4565b50505050505090565b61203e612773565b73ffffffffffffffffffffffffffffffffffffffff1660008054906101000a900473ffffffffffffffffffffffffffffffffffffffff1673ffffffffffffffffffffffffffffffffffffffff16146120fe576040517f08c379a00000000000000000000000000000000000000000000000000000000081526004018080602001828103825260208152602001807f4f776e61626c653a2063616c6c6572206973206e6f7420746865206f776e657281525060200191505060405180910390fd5b81600160006101000a81548173ffffffffffffffffffffffffffffffffffffffff021916908373ffffffffffffffffffffffffffffffffffffffff16021790555080600260006101000a81548173ffffffffffffffffffffffffffffffffffffffff021916908373ffffffffffffffffffffffffffffffffffffffff1602179055505050565b60006122d3670de0b6b3a76400006122c561219d61257d565b73ffffffffffffffffffffffffffffffffffffffff1663d02641a0866040518263ffffffff1660e01b81526004016121d59190612ff5565b60206040518083038186803b1580156121ed57600080fd5b505afa158015612201573d6000803e3d6000fd5b505050506040513d601f19601f820116820180604052508101906122259190612d68565b61222d6125a7565b73ffffffffffffffffffffffffffffffffffffffff1663498b5ae888886040518363ffffffff1660e01b8152600401612267929190613010565b60206040518083038186803b15801561227f57600080fd5b505afa158015612293573d6000803e3d6000fd5b505050506040513d601f19601f820116820180604052508101906122b79190612d68565b6125d190919063ffffffff16565b61265790919063ffffffff16565b905092915050565b60009392505050565b6000806122f18484611002565b9050600081141561230657600091505061236c565b6000612340606461233261231a8888611a50565b6123248989612184565b6125d190919063ffffffff16565b61265790919063ffffffff16565b90508082116123545760009250505061236c565b612367818361272990919063ffffffff16565b925050505b92915050565b61237a612773565b73ffffffffffffffffffffffffffffffffffffffff1660008054906101000a900473ffffffffffffffffffffffffffffffffffffffff1673ffffffffffffffffffffffffffffffffffffffff161461243a576040517f08c379a00000000000000000000000000000000000000000000000000000000081526004018080602001828103825260208152602001807f4f776e61626c653a2063616c6c6572206973206e6f7420746865206f776e657281525060200191505060405180910390fd5b600073ffffffffffffffffffffffffffffffffffffffff168173ffffffffffffffffffffffffffffffffffffffff1614156124c0576040517f08c379a00000000000000000000000000000000000000000000000000000000081526004018080602001828103825260268152602001806133056026913960400191505060405180910390fd5b8073ffffffffffffffffffffffffffffffffffffffff1660008054906101000a900473ffffffffffffffffffffffffffffffffffffffff1673ffffffffffffffffffffffffffffffffffffffff167f8be0079c531659141344cd1fd0a4f28419497f9722a3daafe3b4186f6b6457e060405160405180910390a3806000806101000a81548173ffffffffffffffffffffffffffffffffffffffff021916908373ffffffffffffffffffffffffffffffffffffffff16021790555050565b6000600160009054906101000a900473ffffffffffffffffffffffffffffffffffffffff16905090565b6000600260009054906101000a900473ffffffffffffffffffffffffffffffffffffffff16905090565b6000808314156125e45760009050612651565b60008284029050828482816125f557fe5b041461264c576040517f08c379a000000000000000000000000000000000000000000000000000000000815260040180806020018281038252602181526020018061332b6021913960400191505060405180910390fd5b809150505b92915050565b600061269983836040518060400160405280601a81526020017f536166654d6174683a206469766973696f6e206279207a65726f00000000000081525061277b565b905092915050565b60008082840190508381101561271f576040517f08c379a000000000000000000000000000000000000000000000000000000000815260040180806020018281038252601b8152602001807f536166654d6174683a206164646974696f6e206f766572666c6f77000000000081525060200191505060405180910390fd5b8091505092915050565b600061276b83836040518060400160405280601e81526020017f536166654d6174683a207375627472616374696f6e206f766572666c6f770000815250612841565b905092915050565b600033905090565b60008083118290612827576040517f08c379a00000000000000000000000000000000000000000000000000000000081526004018080602001828103825283818151815260200191508051906020019080838360005b838110156127ec5780820151818401526020810190506127d1565b50505050905090810190601f1680156128195780820380516001836020036101000a031916815260200191505b509250505060405180910390fd5b50600083858161283357fe5b049050809150509392505050565b60008383111582906128ee576040517f08c379a00000000000000000000000000000000000000000000000000000000081526004018080602001828103825283818151815260200191508051906020019080838360005b838110156128b3578082015181840152602081019050612898565b50505050905090810190601f1680156128e05780820380516001836020036101000a031916815260200191505b509250505060405180910390fd5b5060008385039050809150509392505050565b600061291461290f84613180565b61314f565b9050808382526020820190508285602086028201111561293357600080fd5b60005b85811015612963578161294988826129ee565b845260208401935060208301925050600181019050612936565b5050509392505050565b600061298061297b846131ac565b61314f565b9050808382526020820190508285602086028201111561299f57600080fd5b60005b858110156129cf57816129b58882612b41565b8452602084019350602083019250506001810190506129a2565b5050509392505050565b6000813590506129e8816132af565b92915050565b6000815190506129fd816132af565b92915050565b600082601f830112612a1457600080fd5b8151612a24848260208601612901565b91505092915050565b600082601f830112612a3e57600080fd5b8135612a4e84826020860161296d565b91505092915050565b600081359050612a66816132c6565b92915050565b600081359050612a7b816132d6565b92915050565b600060808284031215612a9357600080fd5b612a9d608061314f565b90506000612aad84828501612b56565b6000830152506020612ac184828501612b56565b6020830152506040612ad584828501612b56565b6040830152506060612ae984828501612b56565b60608301525092915050565b600060408284031215612b0757600080fd5b612b11604061314f565b90506000612b2184828501612b56565b6000830152506020612b3584828501612b56565b60208301525092915050565b600081359050612b50816132ed565b92915050565b600081519050612b65816132ed565b92915050565b600060208284031215612b7d57600080fd5b6000612b8b848285016129d9565b91505092915050565b60008060408385031215612ba757600080fd5b6000612bb5858286016129d9565b9250506020612bc6858286016129d9565b9150509250929050565b600080600060608486031215612be557600080fd5b6000612bf3868287016129d9565b9350506020612c04868287016129d9565b9250506040612c1586828701612a57565b9150509250925092565b600080600060608486031215612c3457600080fd5b6000612c42868287016129d9565b9350506020612c53868287016129d9565b9250506040612c6486828701612b41565b9150509250925092565b600060208284031215612c8057600080fd5b600082015167ffffffffffffffff811115612c9a57600080fd5b612ca684828501612a03565b91505092915050565b600080600060608486031215612cc457600080fd5b600084013567ffffffffffffffff811115612cde57600080fd5b612cea86828701612a2d565b9350506020612cfb86828701612a6c565b9250506040612d0c86828701612a6c565b9150509250925092565b600060808284031215612d2857600080fd5b6000612d3684828501612a81565b91505092915050565b600060408284031215612d5157600080fd5b6000612d5f84828501612af5565b91505092915050565b600060208284031215612d7a57600080fd5b6000612d8884828501612b56565b91505092915050565b600080600060608486031215612da657600080fd5b6000612db486828701612b41565b9350506020612dc5868287016129d9565b9250506040612dd6868287016129d9565b9150509250925092565b600080600060608486031215612df557600080fd5b6000612e0386828701612b41565b9350506020612e14868287016129d9565b9250506040612e2586828701612a57565b9150509250925092565b600080600060608486031215612e4457600080fd5b6000612e5286828701612b41565b9350506020612e6386828701612b41565b9250506040612e7486828701612b41565b9150509250925092565b6000612e8a8383612eae565b60208301905092915050565b6000612ea28383612fd7565b60208301905092915050565b612eb78161325b565b82525050565b612ec68161325b565b82525050565b6000612ed7826131f8565b612ee18185613228565b9350612eec836131d8565b8060005b83811015612f1d578151612f048882612e7e565b9750612f0f8361320e565b925050600181019050612ef0565b5085935050505092915050565b6000612f3582613203565b612f3f8185613239565b9350612f4a836131e8565b8060005b83811015612f7b578151612f628882612e96565b9750612f6d8361321b565b925050600181019050612f4e565b5085935050505092915050565b612f918161326d565b82525050565b6000612fa460028361324a565b91507f43520000000000000000000000000000000000000000000000000000000000006000830152602082019050919050565b612fe0816132a3565b82525050565b612fef816132a3565b82525050565b600060208201905061300a6000830184612ebd565b92915050565b60006040820190506130256000830185612ebd565b6130326020830184612ebd565b9392505050565b600060608201905061304e6000830186612ebd565b61305b6020830185612ebd565b6130686040830184612ebd565b949350505050565b6000602082019050818103600083015261308a8184612ecc565b905092915050565b600060608201905081810360008301526130ac8186612ecc565b905081810360208301526130c08185612f2a565b90506130cf6040830184612f88565b949350505050565b600060208201905081810360008301526130f18184612f2a565b905092915050565b600060208201905061310e6000830184612f88565b92915050565b6000602082019050818103600083015261312d81612f97565b9050919050565b60006020820190506131496000830184612fe6565b92915050565b6000604051905081810181811067ffffffffffffffff82111715613176576131756132ad565b5b8060405250919050565b600067ffffffffffffffff82111561319b5761319a6132ad565b5b602082029050602081019050919050565b600067ffffffffffffffff8211156131c7576131c66132ad565b5b602082029050602081019050919050565b6000819050602082019050919050565b6000819050602082019050919050565b600081519050919050565b600081519050919050565b6000602082019050919050565b6000602082019050919050565b600082825260208201905092915050565b600082825260208201905092915050565b600082825260208201905092915050565b600061326682613283565b9050919050565b60008115159050919050565b6000819050919050565b600073ffffffffffffffffffffffffffffffffffffffff82169050919050565b6000819050919050565bfe5b6132b88161325b565b81146132c357600080fd5b50565b600381106132d357600080fd5b50565b6132df81613279565b81146132ea57600080fd5b50565b6132f6816132a3565b811461330157600080fd5b5056fe4f776e61626c653a206e6577206f776e657220697320746865207a65726f2061646472657373536166654d6174683a206d756c7469706c69636174696f6e206f766572666c6f77a2646970667358221220073a4a80e6a94e29f4b2f2532cb6dd29cd233c60de499bc2c28121c7ae3b28cb64736f6c63430007060033",
  "linkReferences": {},
  "deployedLinkReferences": {}
}