{
  "_format": "hh-sol-artifact-1",
  "contractName": "VaultLibrary",
  "sourceName": "contracts/Bank/VaultLibrary.sol",
  "abi": [
    {
      "anonymous": false,
      "inputs": [
        {
          "indexed": false,
          "internalType": "address",
          "name": "previousAdmin",
          "type": "address"
        },
        {
          "indexed": false,
          "internalType": "address",
          "name": "newAdmin",
          "type": "address"
        }
      ],
      "name": "AdminChanged",
      "type": "event"
    },
    {
      "anonymous": false,
      "inputs": [
        {
          "indexed": true,
          "internalType": "address",
          "name": "beacon",
          "type": "address"
        }
      ],
      "name": "BeaconUpgraded",
      "type": "event"
    },
    {
      "anonymous": false,
      "inputs": [
        {
          "indexed": true,
          "internalType": "address",
          "name": "previousOwner",
          "type": "address"
        },
        {
          "indexed": true,
          "internalType": "address",
          "name": "newOwner",
          "type": "address"
        }
      ],
      "name": "OwnershipTransferred",
      "type": "event"
    },
    {
      "anonymous": false,
      "inputs": [
        {
          "indexed": true,
          "internalType": "address",
          "name": "implementation",
          "type": "address"
        }
      ],
      "name": "Upgraded",
      "type": "event"
    },
    {
      "inputs": [
        {
          "internalType": "address",
          "name": "account",
          "type": "address"
        },
        {
          "internalType": "address",
          "name": "fxToken",
          "type": "address"
        }
      ],
      "name": "calculateInterest",
      "outputs": [
        {
          "internalType": "uint256",
          "name": "",
          "type": "uint256"
        }
      ],
      "stateMutability": "view",
      "type": "function"
    },
    {
      "inputs": [
        {
          "internalType": "address",
          "name": "account",
          "type": "address"
        },
        {
          "internalType": "address",
          "name": "fxToken",
          "type": "address"
        },
        {
          "internalType": "address",
          "name": "collateralToken",
          "type": "address"
        },
        {
          "internalType": "uint256",
          "name": "collateralAmount",
          "type": "uint256"
        },
        {
          "internalType": "uint256",
          "name": "tokenAmount",
          "type": "uint256"
        },
        {
          "internalType": "uint256",
          "name": "fxQuote",
          "type": "uint256"
        },
        {
          "internalType": "uint256",
          "name": "collateralQuote",
          "type": "uint256"
        }
      ],
      "name": "canMint",
      "outputs": [
        {
          "internalType": "bool",
          "name": "",
          "type": "bool"
        }
      ],
      "stateMutability": "view",
      "type": "function"
    },
    {
      "inputs": [
        {
          "internalType": "address",
          "name": "account",
          "type": "address"
        },
        {
          "internalType": "address",
          "name": "fxToken",
          "type": "address"
        }
      ],
      "name": "doesMeetRatio",
      "outputs": [
        {
          "internalType": "bool",
          "name": "",
          "type": "bool"
        }
      ],
      "stateMutability": "view",
      "type": "function"
    },
    {
      "inputs": [
        {
          "internalType": "address",
          "name": "account",
          "type": "address"
        },
        {
          "internalType": "address",
          "name": "fxToken",
          "type": "address"
        },
        {
          "internalType": "uint256",
          "name": "amountEth",
          "type": "uint256"
        }
      ],
      "name": "getCollateralForAmount",
      "outputs": [
        {
          "internalType": "address[]",
          "name": "collateralTypes",
          "type": "address[]"
        },
        {
          "internalType": "uint256[]",
          "name": "collateralAmounts",
          "type": "uint256[]"
        },
        {
          "internalType": "bool",
          "name": "metAmount",
          "type": "bool"
        }
      ],
      "stateMutability": "view",
      "type": "function"
    },
    {
      "inputs": [
        {
          "internalType": "address",
          "name": "account",
          "type": "address"
        },
        {
          "internalType": "address",
          "name": "fxToken",
          "type": "address"
        }
      ],
      "name": "getCollateralShares",
      "outputs": [
        {
          "internalType": "uint256[]",
          "name": "shares",
          "type": "uint256[]"
        }
      ],
      "stateMutability": "view",
      "type": "function"
    },
    {
      "inputs": [],
      "name": "getCollateralTypesSortedByLiquidationRank",
      "outputs": [
        {
          "internalType": "address[]",
          "name": "sortedCollateralTypes",
          "type": "address[]"
        }
      ],
      "stateMutability": "view",
      "type": "function"
    },
    {
      "inputs": [
        {
          "internalType": "address",
          "name": "account",
          "type": "address"
        },
        {
          "internalType": "address",
          "name": "fxToken",
          "type": "address"
        }
      ],
      "name": "getCurrentRatio",
      "outputs": [
        {
          "internalType": "uint256",
          "name": "ratio",
          "type": "uint256"
        }
      ],
      "stateMutability": "view",
      "type": "function"
    },
    {
      "inputs": [
        {
          "internalType": "address",
          "name": "account",
          "type": "address"
        },
        {
          "internalType": "address",
          "name": "fxToken",
          "type": "address"
        }
      ],
      "name": "getDebtAsEth",
      "outputs": [
        {
          "internalType": "uint256",
          "name": "debt",
          "type": "uint256"
        }
      ],
      "stateMutability": "view",
      "type": "function"
    },
    {
      "inputs": [
        {
          "internalType": "uint256",
          "name": "amount",
          "type": "uint256"
        },
        {
          "internalType": "uint8",
          "name": "fromDecimals",
          "type": "uint8"
        },
        {
          "internalType": "uint8",
          "name": "toDecimals",
          "type": "uint8"
        }
      ],
      "name": "getDecimalsAmount",
      "outputs": [
        {
          "internalType": "uint256",
          "name": "",
          "type": "uint256"
        }
      ],
      "stateMutability": "pure",
      "type": "function"
    },
    {
      "inputs": [
        {
          "internalType": "address",
          "name": "account",
          "type": "address"
        },
        {
          "internalType": "address",
          "name": "fxToken",
          "type": "address"
        }
      ],
      "name": "getFreeCollateralAsEth",
      "outputs": [
        {
          "internalType": "uint256",
          "name": "",
          "type": "uint256"
        }
      ],
      "stateMutability": "view",
      "type": "function"
    },
    {
      "inputs": [
        {
          "internalType": "address",
          "name": "account",
          "type": "address"
        },
        {
          "internalType": "address",
          "name": "fxToken",
          "type": "address"
        },
        {
          "internalType": "uint256",
          "name": "minimumRatio",
          "type": "uint256"
        }
      ],
      "name": "getFreeCollateralAsEthFromMinimumRatio",
      "outputs": [
        {
          "internalType": "uint256",
          "name": "",
          "type": "uint256"
        }
      ],
      "stateMutability": "view",
      "type": "function"
    },
    {
      "inputs": [
        {
          "internalType": "address",
          "name": "account",
          "type": "address"
        },
        {
          "internalType": "address",
          "name": "fxToken",
          "type": "address"
        }
      ],
      "name": "getInterestDeltaR",
      "outputs": [
        {
          "internalType": "uint256",
          "name": "dR",
          "type": "uint256"
        }
      ],
      "stateMutability": "view",
      "type": "function"
    },
    {
      "inputs": [
        {
          "internalType": "address",
          "name": "account",
          "type": "address"
        },
        {
          "internalType": "address",
          "name": "fxToken",
          "type": "address"
        }
      ],
      "name": "getInterestRate",
      "outputs": [
        {
          "internalType": "uint256",
          "name": "rate",
          "type": "uint256"
        }
      ],
      "stateMutability": "view",
      "type": "function"
    },
    {
      "inputs": [
        {
          "internalType": "address",
          "name": "account",
          "type": "address"
        },
        {
          "internalType": "address",
          "name": "fxToken",
          "type": "address"
        }
      ],
      "name": "getLiquidationFee",
      "outputs": [
        {
          "internalType": "uint256",
          "name": "fee",
          "type": "uint256"
        }
      ],
      "stateMutability": "view",
      "type": "function"
    },
    {
      "inputs": [
        {
          "internalType": "uint256",
          "name": "tokenAmount",
          "type": "uint256"
        },
        {
          "internalType": "uint256",
          "name": "ratio",
          "type": "uint256"
        },
        {
          "internalType": "uint256",
          "name": "unitPrice",
          "type": "uint256"
        }
      ],
      "name": "getMinimumCollateral",
      "outputs": [
        {
          "internalType": "uint256",
          "name": "minimum",
          "type": "uint256"
        }
      ],
      "stateMutability": "pure",
      "type": "function"
    },
    {
      "inputs": [
        {
          "internalType": "address",
          "name": "account",
          "type": "address"
        },
        {
          "internalType": "address",
          "name": "fxToken",
          "type": "address"
        }
      ],
      "name": "getMinimumRatio",
      "outputs": [
        {
          "internalType": "uint256",
          "name": "ratio",
          "type": "uint256"
        }
      ],
      "stateMutability": "view",
      "type": "function"
    },
    {
      "inputs": [
        {
          "internalType": "address",
          "name": "account",
          "type": "address"
        },
        {
          "internalType": "address",
          "name": "fxToken",
          "type": "address"
        },
        {
          "internalType": "address",
          "name": "collateralToken",
          "type": "address"
        },
        {
          "internalType": "uint256",
          "name": "collateralAmount",
          "type": "uint256"
        },
        {
          "internalType": "uint256",
          "name": "collateralQuote",
          "type": "uint256"
        },
        {
          "internalType": "bool",
          "name": "isDeposit",
          "type": "bool"
        }
      ],
      "name": "getNewMinimumRatio",
      "outputs": [
        {
          "internalType": "uint256",
          "name": "ratio",
          "type": "uint256"
        },
        {
          "internalType": "uint256",
          "name": "newCollateralAsEther",
          "type": "uint256"
        }
      ],
      "stateMutability": "view",
      "type": "function"
    },
    {
      "inputs": [
        {
          "internalType": "address",
          "name": "token",
          "type": "address"
        }
      ],
      "name": "getTokenUnit",
      "outputs": [
        {
          "internalType": "uint256",
          "name": "",
          "type": "uint256"
        }
      ],
      "stateMutability": "view",
      "type": "function"
    },
    {
      "inputs": [
        {
          "internalType": "address",
          "name": "account",
          "type": "address"
        },
        {
          "internalType": "address",
          "name": "fxToken",
          "type": "address"
        }
      ],
      "name": "getTotalCollateralBalanceAsEth",
      "outputs": [
        {
          "internalType": "uint256",
          "name": "balance",
          "type": "uint256"
        }
      ],
      "stateMutability": "view",
      "type": "function"
    },
    {
      "inputs": [],
      "name": "handleAddress",
      "outputs": [
        {
          "internalType": "address",
          "name": "",
          "type": "address"
        }
      ],
      "stateMutability": "view",
      "type": "function"
    },
    {
      "inputs": [],
      "name": "initialize",
      "outputs": [],
      "stateMutability": "nonpayable",
      "type": "function"
    },
    {
      "inputs": [],
      "name": "owner",
      "outputs": [
        {
          "internalType": "address",
          "name": "",
          "type": "address"
        }
      ],
      "stateMutability": "view",
      "type": "function"
    },
    {
      "inputs": [
        {
          "internalType": "uint256[]",
          "name": "array",
          "type": "uint256[]"
        },
        {
          "internalType": "int256",
          "name": "left",
          "type": "int256"
        },
        {
          "internalType": "int256",
          "name": "right",
          "type": "int256"
        }
      ],
      "name": "quickSort",
      "outputs": [],
      "stateMutability": "pure",
      "type": "function"
    },
    {
      "inputs": [],
      "name": "renounceOwnership",
      "outputs": [],
      "stateMutability": "nonpayable",
      "type": "function"
    },
    {
      "inputs": [
        {
          "internalType": "address",
          "name": "_handle",
          "type": "address"
        }
      ],
      "name": "setHandleContract",
      "outputs": [],
      "stateMutability": "nonpayable",
      "type": "function"
    },
    {
      "inputs": [
        {
          "internalType": "address",
          "name": "newOwner",
          "type": "address"
        }
      ],
      "name": "transferOwnership",
      "outputs": [],
      "stateMutability": "nonpayable",
      "type": "function"
    },
    {
      "inputs": [
        {
          "internalType": "address",
          "name": "newImplementation",
          "type": "address"
        }
      ],
      "name": "upgradeTo",
      "outputs": [],
      "stateMutability": "nonpayable",
      "type": "function"
    },
    {
      "inputs": [
        {
          "internalType": "address",
          "name": "newImplementation",
          "type": "address"
        },
        {
          "internalType": "bytes",
          "name": "data",
          "type": "bytes"
        }
      ],
      "name": "upgradeToAndCall",
      "outputs": [],
      "stateMutability": "payable",
      "type": "function"
    }
  ],
  "bytecode": "0x608060405234801561001057600080fd5b50615aa580620000216000396000f3fe6080604052600436106101b75760003560e01c806387092940116100ec578063c4d7b8b81161008a578063e279962311610064578063e279962314610698578063e76ab239146106d5578063f2fde38b14610712578063f37cd50d1461073b576101b7565b8063c4d7b8b8146105f3578063cad576311461061e578063db3fabeb1461065b576101b7565b80639e718d07116100c65780639e718d07146104fe578063bbbc1cef1461053b578063bc0c63db14610578578063bcbe3f22146105b6576101b7565b8063870929401461046d5780638da5cb5b146104aa5780639b1c414f146104d5576101b7565b80635a763fbb11610159578063715018a611610133578063715018a6146103d757806374bf578b146103ee57806380ef72a9146104195780638129fc1c14610456576101b7565b80635a763fbb1461032057806364d321b71461035d5780636cba66ce1461039a576101b7565b80633659cfe6116101955780633659cfe61461026157806349cf9cce1461028a5780634c90f229146102c75780634f1ef28614610304576101b7565b80630a06fc3c146101bc57806312ffb678146101e5578063234ab3e214610222575b600080fd5b3480156101c857600080fd5b506101e360048036038101906101de91906148b0565b610778565b005b3480156101f157600080fd5b5061020c600480360381019061020791906145fd565b610a1e565b6040516102199190614efe565b60405180910390f35b34801561022e57600080fd5b5061024960048036038101906102449190614760565b610c73565b60405161025893929190614d7a565b60405180910390f35b34801561026d57600080fd5b5061028860048036038101906102839190614582565b611177565b005b34801561029657600080fd5b506102b160048036038101906102ac91906145fd565b61119e565b6040516102be9190614dbf565b60405180910390f35b3480156102d357600080fd5b506102ee60048036038101906102e991906145fd565b6115c9565b6040516102fb9190614efe565b60405180910390f35b61031e600480360381019061031991906147af565b611903565b005b34801561032c57600080fd5b50610347600480360381019061034291906145fd565b61191c565b6040516103549190614efe565b60405180910390f35b34801561036957600080fd5b50610384600480360381019061037f91906145fd565b611984565b6040516103919190614efe565b60405180910390f35b3480156103a657600080fd5b506103c160048036038101906103bc91906149b8565b611bd3565b6040516103ce9190614efe565b60405180910390f35b3480156103e357600080fd5b506103ec611c6c565b005b3480156103fa57600080fd5b50610403611da9565b6040516104109190614cdd565b60405180910390f35b34801561042557600080fd5b50610440600480360381019061043b9190614582565b611dd3565b60405161044d9190614efe565b60405180910390f35b34801561046257600080fd5b5061046b611e6e565b005b34801561047957600080fd5b50610494600480360381019061048f91906145fd565b611f4f565b6040516104a19190614efe565b60405180910390f35b3480156104b657600080fd5b506104bf612040565b6040516104cc9190614cdd565b60405180910390f35b3480156104e157600080fd5b506104fc60048036038101906104f79190614582565b61206a565b005b34801561050a57600080fd5b5061052560048036038101906105209190614969565b6123ca565b6040516105329190614efe565b60405180910390f35b34801561054757600080fd5b50610562600480360381019061055d91906145fd565b612479565b60405161056f9190614efe565b60405180910390f35b34801561058457600080fd5b5061059f600480360381019061059a9190614639565b61272e565b6040516105ad929190614f19565b60405180910390f35b3480156105c257600080fd5b506105dd60048036038101906105d891906145fd565b612a34565b6040516105ea9190614efe565b60405180910390f35b3480156105ff57600080fd5b50610608612c99565b6040516106159190614d58565b60405180910390f35b34801561062a57600080fd5b5061064560048036038101906106409190614760565b6134c8565b6040516106529190614efe565b60405180910390f35b34801561066757600080fd5b50610682600480360381019061067d91906145fd565b613555565b60405161068f9190614efe565b60405180910390f35b3480156106a457600080fd5b506106bf60048036038101906106ba91906146c2565b6136e2565b6040516106cc9190614de1565b60405180910390f35b3480156106e157600080fd5b506106fc60048036038101906106f791906145fd565b613780565b6040516107099190614efe565b60405180910390f35b34801561071e57600080fd5b5061073960048036038101906107349190614582565b61379e565b005b34801561074757600080fd5b50610762600480360381019061075d91906145fd565b61394a565b60405161076f9190614de1565b60405180910390f35b6000829050600082905080821415610791575050610a19565b600085600286866107a291906153e4565b6107ac919061517e565b866107b79190615094565b815181106107ee577f4e487b7100000000000000000000000000000000000000000000000000000000600052603260045260246000fd5b602002602001015190505b8183136109ed575b8086848151811061083b577f4e487b7100000000000000000000000000000000000000000000000000000000600052603260045260246000fd5b6020026020010151101561085c5782806108549061565b565b935050610801565b5b858281518110610896577f4e487b7100000000000000000000000000000000000000000000000000000000600052603260045260246000fd5b60200260200101518110156108b85781806108b0906155e1565b92505061085d565b8183136109e8578582815181106108f8577f4e487b7100000000000000000000000000000000000000000000000000000000600052603260045260246000fd5b6020026020010151868481518110610939577f4e487b7100000000000000000000000000000000000000000000000000000000600052603260045260246000fd5b602002602001015187858151811061097a577f4e487b7100000000000000000000000000000000000000000000000000000000600052603260045260246000fd5b602002602001018885815181106109ba577f4e487b7100000000000000000000000000000000000000000000000000000000600052603260045260246000fd5b602002602001018281525082815250505082806109d69061565b565b93505081806109e4906155e1565b9250505b6107f9565b81851215610a0157610a00868684610778565b5b83831215610a1557610a14868486610778565b5b5050505b505050565b60008060c960009054906101000a900473ffffffffffffffffffffffffffffffffffffffff1673ffffffffffffffffffffffffffffffffffffffff1663294d499e6040518163ffffffff1660e01b815260040160006040518083038186803b158015610a8957600080fd5b505afa158015610a9d573d6000803e3d6000fd5b505050506040513d6000823e3d601f19601f82011682018060405250810190610ac69190614803565b90506000815190506000610ada868661119e565b905060005b82811015610c6957610c54610c45670de0b6b3a7640000610c37858581518110610b32577f4e487b7100000000000000000000000000000000000000000000000000000000600052603260045260246000fd5b602002602001015160c960009054906101000a900473ffffffffffffffffffffffffffffffffffffffff1673ffffffffffffffffffffffffffffffffffffffff1663bd9e52008a8881518110610bb1577f4e487b7100000000000000000000000000000000000000000000000000000000600052603260045260246000fd5b60200260200101516040518263ffffffff1660e01b8152600401610bd59190614cdd565b60606040518083038186803b158015610bed57600080fd5b505afa158015610c01573d6000803e3d6000fd5b505050506040513d601f19601f82011682018060405250810190610c259190614917565b6040015161398290919063ffffffff16565b61399890919063ffffffff16565b866139ae90919063ffffffff16565b94508080610c61906156a4565b915050610adf565b5050505092915050565b6060806000610c80612c99565b92506000835190508067ffffffffffffffff811115610cc8577f4e487b7100000000000000000000000000000000000000000000000000000000600052604160045260246000fd5b604051908082528060200260200182016040528015610cf65781602001602082028036833780820191505090505b5092506000805b8281101561116657600060c960009054906101000a900473ffffffffffffffffffffffffffffffffffffffff1673ffffffffffffffffffffffffffffffffffffffff1663c462b5208b898581518110610d7f577f4e487b7100000000000000000000000000000000000000000000000000000000600052603260045260246000fd5b60200260200101518c6040518463ffffffff1660e01b8152600401610da693929190614d21565b60206040518083038186803b158015610dbe57600080fd5b505afa158015610dd2573d6000803e3d6000fd5b505050506040513d601f19601f82011682018060405250810190610df69190614940565b90506000811415610e075750611153565b600060c960009054906101000a900473ffffffffffffffffffffffffffffffffffffffff1673ffffffffffffffffffffffffffffffffffffffff1663d02641a0898581518110610e80577f4e487b7100000000000000000000000000000000000000000000000000000000600052603260045260246000fd5b60200260200101516040518263ffffffff1660e01b8152600401610ea49190614cdd565b60206040518083038186803b158015610ebc57600080fd5b505afa158015610ed0573d6000803e3d6000fd5b505050506040513d601f19601f82011682018060405250810190610ef49190614940565b90506000610f65610f448a8681518110610f37577f4e487b7100000000000000000000000000000000000000000000000000000000600052603260045260246000fd5b6020026020010151611dd3565b610f57858561398290919063ffffffff16565b61399890919063ffffffff16565b905089610f7b82876139ae90919063ffffffff16565b1015610fe45782888581518110610fbb577f4e487b7100000000000000000000000000000000000000000000000000000000600052603260045260246000fd5b602002602001018181525050610fda81866139ae90919063ffffffff16565b9450505050611153565b6000610ff9868c6139c490919063ffffffff16565b90506110f061102b8461101d670de0b6b3a76400008561398290919063ffffffff16565b61399890919063ffffffff16565b60128c8881518110611066577f4e487b7100000000000000000000000000000000000000000000000000000000600052603260045260246000fd5b602002602001015173ffffffffffffffffffffffffffffffffffffffff1663313ce5676040518163ffffffff1660e01b815260040160206040518083038186803b1580156110b357600080fd5b505afa1580156110c7573d6000803e3d6000fd5b505050506040513d601f19601f820116820180604052508101906110eb9190614a07565b611bd3565b898681518110611129577f4e487b7100000000000000000000000000000000000000000000000000000000600052603260045260246000fd5b60200260200101818152505061114881876139ae90919063ffffffff16565b955050505050611166565b808061115e906156a4565b915050610cfd565b508581149250505093509350939050565b611180816139da565b61119b81604051806020016040528060008152506000613a59565b50565b6060600060c960009054906101000a900473ffffffffffffffffffffffffffffffffffffffff1673ffffffffffffffffffffffffffffffffffffffff1663294d499e6040518163ffffffff1660e01b815260040160006040518083038186803b15801561120a57600080fd5b505afa15801561121e573d6000803e3d6000fd5b505050506040513d6000823e3d601f19601f820116820180604052508101906112479190614803565b90506000815190508067ffffffffffffffff81111561128f577f4e487b7100000000000000000000000000000000000000000000000000000000600052604160045260246000fd5b6040519080825280602002602001820160405280156112bd5781602001602082028036833780820191505090505b50925060006112cc86866115c9565b905060008114156112df575050506115c3565b60008060005b848110156115bc5760c960009054906101000a900473ffffffffffffffffffffffffffffffffffffffff1673ffffffffffffffffffffffffffffffffffffffff1663c462b5208a888481518110611365577f4e487b7100000000000000000000000000000000000000000000000000000000600052603260045260246000fd5b60200260200101518b6040518463ffffffff1660e01b815260040161138c93929190614d21565b60206040518083038186803b1580156113a457600080fd5b505afa1580156113b8573d6000803e3d6000fd5b505050506040513d601f19601f820116820180604052508101906113dc9190614940565b925061153561142a87838151811061141d577f4e487b7100000000000000000000000000000000000000000000000000000000600052603260045260246000fd5b6020026020010151611dd3565b6115278560c960009054906101000a900473ffffffffffffffffffffffffffffffffffffffff1673ffffffffffffffffffffffffffffffffffffffff1663d02641a08b87815181106114a5577f4e487b7100000000000000000000000000000000000000000000000000000000600052603260045260246000fd5b60200260200101516040518263ffffffff1660e01b81526004016114c99190614cdd565b60206040518083038186803b1580156114e157600080fd5b505afa1580156114f5573d6000803e3d6000fd5b505050506040513d601f19601f820116820180604052508101906115199190614940565b61398290919063ffffffff16565b61399890919063ffffffff16565b915061156484611556670de0b6b3a76400008561398290919063ffffffff16565b61399890919063ffffffff16565b87828151811061159d577f4e487b7100000000000000000000000000000000000000000000000000000000600052603260045260246000fd5b60200260200101818152505080806115b4906156a4565b9150506112e5565b5050505050505b92915050565b60008060c960009054906101000a900473ffffffffffffffffffffffffffffffffffffffff1673ffffffffffffffffffffffffffffffffffffffff1663294d499e6040518163ffffffff1660e01b815260040160006040518083038186803b15801561163457600080fd5b505afa158015611648573d6000803e3d6000fd5b505050506040513d6000823e3d601f19601f820116820180604052508101906116719190614803565b90506000915060008151905060005b818110156118fa5760006118cf6116d68584815181106116c9577f4e487b7100000000000000000000000000000000000000000000000000000000600052603260045260246000fd5b6020026020010151611dd3565b6118c160c960009054906101000a900473ffffffffffffffffffffffffffffffffffffffff1673ffffffffffffffffffffffffffffffffffffffff1663d02641a0888781518110611750577f4e487b7100000000000000000000000000000000000000000000000000000000600052603260045260246000fd5b60200260200101516040518263ffffffff1660e01b81526004016117749190614cdd565b60206040518083038186803b15801561178c57600080fd5b505afa1580156117a0573d6000803e3d6000fd5b505050506040513d601f19601f820116820180604052508101906117c49190614940565b60c960009054906101000a900473ffffffffffffffffffffffffffffffffffffffff1673ffffffffffffffffffffffffffffffffffffffff1663c462b5208c8a898151811061183c577f4e487b7100000000000000000000000000000000000000000000000000000000600052603260045260246000fd5b60200260200101518d6040518463ffffffff1660e01b815260040161186393929190614d21565b60206040518083038186803b15801561187b57600080fd5b505afa15801561188f573d6000803e3d6000fd5b505050506040513d601f19601f820116820180604052508101906118b39190614940565b61398290919063ffffffff16565b61399890919063ffffffff16565b90506118e481866139ae90919063ffffffff16565b94505080806118f2906156a4565b915050611680565b50505092915050565b61190c826139da565b61191882826001613a59565b5050565b6000806119298484613555565b9050600081141561193e57600091505061197e565b600061194a85856115c9565b90506119798261196b670de0b6b3a76400008461398290919063ffffffff16565b61399890919063ffffffff16565b925050505b92915050565b60008060c960009054906101000a900473ffffffffffffffffffffffffffffffffffffffff1673ffffffffffffffffffffffffffffffffffffffff1663294d499e6040518163ffffffff1660e01b815260040160006040518083038186803b1580156119ef57600080fd5b505afa158015611a03573d6000803e3d6000fd5b505050506040513d6000823e3d601f19601f82011682018060405250810190611a2c9190614803565b90506000611a3a858561119e565b905060008251905060005b81811015611bc957611bb4611ba5612710611b97868581518110611a92577f4e487b7100000000000000000000000000000000000000000000000000000000600052603260045260246000fd5b602002602001015160c960009054906101000a900473ffffffffffffffffffffffffffffffffffffffff1673ffffffffffffffffffffffffffffffffffffffff1663bd9e52008a8881518110611b11577f4e487b7100000000000000000000000000000000000000000000000000000000600052603260045260246000fd5b60200260200101516040518263ffffffff1660e01b8152600401611b359190614cdd565b60606040518083038186803b158015611b4d57600080fd5b505afa158015611b61573d6000803e3d6000fd5b505050506040513d601f19601f82011682018060405250810190611b859190614917565b6020015161398290919063ffffffff16565b61399890919063ffffffff16565b866139ae90919063ffffffff16565b94508080611bc1906156a4565b915050611a45565b5050505092915050565b60008160ff168360ff161415611beb57839050611c65565b60008284611bf99190615478565b60000b9050600080821315611c3157819050611c2a81600a611c1b919061526c565b8761399890919063ffffffff16565b9550611c5f565b81611c3b906156ed565b9050611c5c81600a611c4d919061526c565b8761398290919063ffffffff16565b95505b85925050505b9392505050565b611c74613c6d565b73ffffffffffffffffffffffffffffffffffffffff16611c92612040565b73ffffffffffffffffffffffffffffffffffffffff1614611ce8576040517f08c379a0000000000000000000000000000000000000000000000000000000008152600401611cdf90614ebe565b60405180910390fd5b600073ffffffffffffffffffffffffffffffffffffffff16609760009054906101000a900473ffffffffffffffffffffffffffffffffffffffff1673ffffffffffffffffffffffffffffffffffffffff167f8be0079c531659141344cd1fd0a4f28419497f9722a3daafe3b4186f6b6457e060405160405180910390a36000609760006101000a81548173ffffffffffffffffffffffffffffffffffffffff021916908373ffffffffffffffffffffffffffffffffffffffff160217905550565b600060c960009054906101000a900473ffffffffffffffffffffffffffffffffffffffff16905090565b6000808273ffffffffffffffffffffffffffffffffffffffff1663313ce5676040518163ffffffff1660e01b815260040160206040518083038186803b158015611e1c57600080fd5b505afa158015611e30573d6000803e3d6000fd5b505050506040513d601f19601f82011682018060405250810190611e549190614a07565b60ff16905080600a611e66919061526c565b915050919050565b600060019054906101000a900460ff1680611e94575060008054906101000a900460ff16155b611ed3576040517f08c379a0000000000000000000000000000000000000000000000000000000008152600401611eca90614e7e565b60405180910390fd5b60008060019054906101000a900460ff161590508015611f23576001600060016101000a81548160ff02191690831515021790555060016000806101000a81548160ff0219169083151502179055505b611f2b613c75565b8015611f4c5760008060016101000a81548160ff0219169083151502179055505b50565b600080611f5c8484612479565b9050612037670de0b6b3a76400006120298360c960009054906101000a900473ffffffffffffffffffffffffffffffffffffffff1673ffffffffffffffffffffffffffffffffffffffff1663a300733d89896040518363ffffffff1660e01b8152600401611fcb929190614cf8565b60206040518083038186803b158015611fe357600080fd5b505afa158015611ff7573d6000803e3d6000fd5b505050506040513d601f19601f8201168201806040525081019061201b9190614940565b61398290919063ffffffff16565b61399890919063ffffffff16565b91505092915050565b6000609760009054906101000a900473ffffffffffffffffffffffffffffffffffffffff16905090565b612072613c6d565b73ffffffffffffffffffffffffffffffffffffffff16612090612040565b73ffffffffffffffffffffffffffffffffffffffff16146120e6576040517f08c379a00000000000000000000000000000000000000000000000000000000081526004016120dd90614ebe565b60405180910390fd5b8060c960006101000a81548173ffffffffffffffffffffffffffffffffffffffff021916908373ffffffffffffffffffffffffffffffffffffffff16021790555060c960009054906101000a900473ffffffffffffffffffffffffffffffffffffffff1673ffffffffffffffffffffffffffffffffffffffff16635fe3b5676040518163ffffffff1660e01b815260040160206040518083038186803b15801561218f57600080fd5b505afa1580156121a3573d6000803e3d6000fd5b505050506040513d601f19601f820116820180604052508101906121c791906145ab565b60cb60006101000a81548173ffffffffffffffffffffffffffffffffffffffff021916908373ffffffffffffffffffffffffffffffffffffffff16021790555060c960009054906101000a900473ffffffffffffffffffffffffffffffffffffffff1673ffffffffffffffffffffffffffffffffffffffff166361d027b36040518163ffffffff1660e01b815260040160206040518083038186803b15801561226f57600080fd5b505afa158015612283573d6000803e3d6000fd5b505050506040513d601f19601f820116820180604052508101906122a791906145d4565b60ca60006101000a81548173ffffffffffffffffffffffffffffffffffffffff021916908373ffffffffffffffffffffffffffffffffffffffff16021790555060c960009054906101000a900473ffffffffffffffffffffffffffffffffffffffff1673ffffffffffffffffffffffffffffffffffffffff1663c392f7666040518163ffffffff1660e01b815260040160206040518083038186803b15801561234f57600080fd5b505afa158015612363573d6000803e3d6000fd5b505050506040513d601f19601f8201168201806040525081019061238791906145ab565b60cc60006101000a81548173ffffffffffffffffffffffffffffffffffffffff021916908373ffffffffffffffffffffffffffffffffffffffff16021790555050565b6000670de0b6b3a7640000831015612417576040517f08c379a000000000000000000000000000000000000000000000000000000000815260040161240e90614e5e565b60405180910390fd5b612470670de0b6b3a7640000612462670de0b6b3a7640000612454876124468a8961398290919063ffffffff16565b61398290919063ffffffff16565b61399890919063ffffffff16565b61399890919063ffffffff16565b90509392505050565b600080600060cc60009054906101000a900473ffffffffffffffffffffffffffffffffffffffff1673ffffffffffffffffffffffffffffffffffffffff1663d56a5c736040518163ffffffff1660e01b815260040160006040518083038186803b1580156124e657600080fd5b505afa1580156124fa573d6000803e3d6000fd5b505050506040513d6000823e3d601f19601f820116820180604052508101906125239190614844565b915091506000925060008151905060008061253e888861119e565b905060005b838110156127225760c960009054906101000a900473ffffffffffffffffffffffffffffffffffffffff1673ffffffffffffffffffffffffffffffffffffffff166331695c4e8a8a8885815181106125c4577f4e487b7100000000000000000000000000000000000000000000000000000000600052603260045260246000fd5b60200260200101516040518463ffffffff1660e01b81526004016125ea93929190614d21565b60206040518083038186803b15801561260257600080fd5b505afa158015612616573d6000803e3d6000fd5b505050506040513d601f19601f8201168201806040525081019061263a9190614940565b925061270d6126fe670de0b6b3a76400006126f0858581518110612687577f4e487b7100000000000000000000000000000000000000000000000000000000600052603260045260246000fd5b60200260200101516126e2888c88815181106126cc577f4e487b7100000000000000000000000000000000000000000000000000000000600052603260045260246000fd5b60200260200101516139c490919063ffffffff16565b61398290919063ffffffff16565b61399890919063ffffffff16565b886139ae90919063ffffffff16565b9650808061271a906156a4565b915050612543565b50505050505092915050565b600080600061273d8989612a34565b9050600061274b8a8a6115c9565b905084612796576127916127826127618a611dd3565b6127748a8a61398290919063ffffffff16565b61399890919063ffffffff16565b826139c490919063ffffffff16565b6127d6565b6127d56127c66127a58a611dd3565b6127b88a8a61398290919063ffffffff16565b61399890919063ffffffff16565b826139ae90919063ffffffff16565b5b9250600060c960009054906101000a900473ffffffffffffffffffffffffffffffffffffffff1673ffffffffffffffffffffffffffffffffffffffff1663bd9e52008a6040518263ffffffff1660e01b81526004016128359190614cdd565b60606040518083038186803b15801561284d57600080fd5b505afa158015612861573d6000803e3d6000fd5b505050506040513d601f19601f820116820180604052508101906128859190614917565b60000151905060008314156128cc576128c260646128b4670de0b6b3a76400008461398290919063ffffffff16565b61399890919063ffffffff16565b9450505050612a29565b60006128fb856128ed670de0b6b3a76400008661398290919063ffffffff16565b61399890919063ffffffff16565b905061292a670de0b6b3a764000061291c838761398290919063ffffffff16565b61399890919063ffffffff16565b9550670de0b6b3a764000081111580156129415750865b8061295e5750670de0b6b3a7640000811015801561295d575086155b5b612991577f4e487b7100000000000000000000000000000000000000000000000000000000600052600160045260246000fd5b612a22670de0b6b3a7640000612a14848a6129d8576129d36129c4670de0b6b3a7640000876139c490919063ffffffff16565b8b6139c490919063ffffffff16565b612a06565b612a056129f686670de0b6b3a76400006139c490919063ffffffff16565b8b6139ae90919063ffffffff16565b5b61398290919063ffffffff16565b61399890919063ffffffff16565b9550505050505b965096945050505050565b60008060c960009054906101000a900473ffffffffffffffffffffffffffffffffffffffff1673ffffffffffffffffffffffffffffffffffffffff1663294d499e6040518163ffffffff1660e01b815260040160006040518083038186803b158015612a9f57600080fd5b505afa158015612ab3573d6000803e3d6000fd5b505050506040513d6000823e3d601f19601f82011682018060405250810190612adc9190614803565b90506000612aea858561119e565b905060008251905060005b81811015612c7857612c63612c54848381518110612b3c577f4e487b7100000000000000000000000000000000000000000000000000000000600052603260045260246000fd5b6020026020010151612c46606460c960009054906101000a900473ffffffffffffffffffffffffffffffffffffffff1673ffffffffffffffffffffffffffffffffffffffff1663bd9e52008a8881518110612bc0577f4e487b7100000000000000000000000000000000000000000000000000000000600052603260045260246000fd5b60200260200101516040518263ffffffff1660e01b8152600401612be49190614cdd565b60606040518083038186803b158015612bfc57600080fd5b505afa158015612c10573d6000803e3d6000fd5b505050506040513d601f19601f82011682018060405250810190612c349190614917565b6000015161398290919063ffffffff16565b61398290919063ffffffff16565b866139ae90919063ffffffff16565b94508080612c70906156a4565b915050612af5565b50612c8e6127108561399890919063ffffffff16565b935050505092915050565b6060600060c960009054906101000a900473ffffffffffffffffffffffffffffffffffffffff1673ffffffffffffffffffffffffffffffffffffffff1663294d499e6040518163ffffffff1660e01b815260040160006040518083038186803b158015612d0557600080fd5b505afa158015612d19573d6000803e3d6000fd5b505050506040513d6000823e3d601f19601f82011682018060405250810190612d429190614803565b905060008151905060008167ffffffffffffffff811115612d8c577f4e487b7100000000000000000000000000000000000000000000000000000000600052604160045260246000fd5b604051908082528060200260200182016040528015612dba5781602001602082028036833780820191505090505b50905060005b82811015612f0f5760c960009054906101000a900473ffffffffffffffffffffffffffffffffffffffff1673ffffffffffffffffffffffffffffffffffffffff1663bd9e5200858381518110612e3f577f4e487b7100000000000000000000000000000000000000000000000000000000600052603260045260246000fd5b60200260200101516040518263ffffffff1660e01b8152600401612e639190614cdd565b60606040518083038186803b158015612e7b57600080fd5b505afa158015612e8f573d6000803e3d6000fd5b505050506040513d601f19601f82011682018060405250810190612eb39190614917565b60000151828281518110612ef0577f4e487b7100000000000000000000000000000000000000000000000000000000600052603260045260246000fd5b6020026020010181815250508080612f07906156a4565b915050612dc0565b5060008267ffffffffffffffff811115612f52577f4e487b7100000000000000000000000000000000000000000000000000000000600052604160045260246000fd5b604051908082528060200260200182016040528015612f805781602001602082028036833780820191505090505b50905060005b8381101561302757828181518110612fc7577f4e487b7100000000000000000000000000000000000000000000000000000000600052603260045260246000fd5b6020026020010151828281518110613008577f4e487b7100000000000000000000000000000000000000000000000000000000600052603260045260246000fd5b602002602001018181525050808061301f906156a4565b915050612f86565b506130418160006001845161303c91906154ed565b610778565b60008367ffffffffffffffff811115613083577f4e487b7100000000000000000000000000000000000000000000000000000000600052604160045260246000fd5b6040519080825280602002602001820160405280156130b15781602001602082028036833780820191505090505b50905060008467ffffffffffffffff8111156130f6577f4e487b7100000000000000000000000000000000000000000000000000000000600052604160045260246000fd5b6040519080825280602002602001820160405280156131245781602001602082028036833780820191505090505b50905060005b858110156133175760005b8681101561330357848281518110613176577f4e487b7100000000000000000000000000000000000000000000000000000000600052603260045260246000fd5b60200260200101518682815181106131b7577f4e487b7100000000000000000000000000000000000000000000000000000000600052603260045260246000fd5b6020026020010151146131c9576132f0565b600080600090505b8881101561324557848181518110613212577f4e487b7100000000000000000000000000000000000000000000000000000000600052603260045260246000fd5b60200260200101516001846132279190615128565b141561323257600191505b808061323d906156a4565b9150506131d1565b50801561325257506132f0565b8185848151811061328c577f4e487b7100000000000000000000000000000000000000000000000000000000600052603260045260246000fd5b6020026020010181815250506001826132a59190615128565b8484815181106132de577f4e487b7100000000000000000000000000000000000000000000000000000000600052603260045260246000fd5b60200260200101818152505050613303565b80806132fb906156a4565b915050613135565b50808061330f906156a4565b91505061312a565b508467ffffffffffffffff811115613358577f4e487b7100000000000000000000000000000000000000000000000000000000600052604160045260246000fd5b6040519080825280602002602001820160405280156133865781602001602082028036833780820191505090505b50965060005b858110156134be5760008382815181106133cf577f4e487b7100000000000000000000000000000000000000000000000000000000600052603260045260246000fd5b602002602001015190506000600183896133e991906154ed565b6133f391906154ed565b905088828151811061342e577f4e487b7100000000000000000000000000000000000000000000000000000000600052603260045260246000fd5b60200260200101518a828151811061346f577f4e487b7100000000000000000000000000000000000000000000000000000000600052603260045260246000fd5b602002602001019073ffffffffffffffffffffffffffffffffffffffff16908173ffffffffffffffffffffffffffffffffffffffff1681525050505080806134b6906156a4565b91505061338c565b5050505050505090565b6000806134d585856115c9565b905060008114156134ea57600091505061354e565b6000613522670de0b6b3a7640000613514866135068a8a613555565b61398290919063ffffffff16565b61399890919063ffffffff16565b90508082116135365760009250505061354e565b61354981836139c490919063ffffffff16565b925050505b9392505050565b60006136da670de0b6b3a76400006136cc60c960009054906101000a900473ffffffffffffffffffffffffffffffffffffffff1673ffffffffffffffffffffffffffffffffffffffff1663d02641a0866040518263ffffffff1660e01b81526004016135c19190614cdd565b60206040518083038186803b1580156135d957600080fd5b505afa1580156135ed573d6000803e3d6000fd5b505050506040513d601f19601f820116820180604052508101906136119190614940565b60c960009054906101000a900473ffffffffffffffffffffffffffffffffffffffff1673ffffffffffffffffffffffffffffffffffffffff1663498b5ae888886040518363ffffffff1660e01b815260040161366e929190614cf8565b60206040518083038186803b15801561368657600080fd5b505afa15801561369a573d6000803e3d6000fd5b505050506040513d601f19601f820116820180604052508101906136be9190614940565b61398290919063ffffffff16565b61399890919063ffffffff16565b905092915050565b60008060006136f68a8a8a8a88600161272e565b9150915061376e670de0b6b3a7640000613760846137526137178f8f613555565b613744670de0b6b3a76400006137368d8f61398290919063ffffffff16565b61399890919063ffffffff16565b6139ae90919063ffffffff16565b61398290919063ffffffff16565b61399890919063ffffffff16565b81101592505050979650505050505050565b600061379683836137918686612a34565b6134c8565b905092915050565b6137a6613c6d565b73ffffffffffffffffffffffffffffffffffffffff166137c4612040565b73ffffffffffffffffffffffffffffffffffffffff161461381a576040517f08c379a000000000000000000000000000000000000000000000000000000000815260040161381190614ebe565b60405180910390fd5b600073ffffffffffffffffffffffffffffffffffffffff168173ffffffffffffffffffffffffffffffffffffffff16141561388a576040517f08c379a000000000000000000000000000000000000000000000000000000000815260040161388190614e3e565b60405180910390fd5b8073ffffffffffffffffffffffffffffffffffffffff16609760009054906101000a900473ffffffffffffffffffffffffffffffffffffffff1673ffffffffffffffffffffffffffffffffffffffff167f8be0079c531659141344cd1fd0a4f28419497f9722a3daafe3b4186f6b6457e060405160405180910390a380609760006101000a81548173ffffffffffffffffffffffffffffffffffffffff021916908373ffffffffffffffffffffffffffffffffffffffff16021790555050565b6000806139578484612a34565b90506000613965858561191c565b9050600081141580156139785750818110155b9250505092915050565b60008183613990919061538a565b905092915050565b600081836139a691906151e8565b905092915050565b600081836139bc9190615128565b905092915050565b600081836139d291906154ed565b905092915050565b6139e2613c6d565b73ffffffffffffffffffffffffffffffffffffffff16613a00612040565b73ffffffffffffffffffffffffffffffffffffffff1614613a56576040517f08c379a0000000000000000000000000000000000000000000000000000000008152600401613a4d90614ebe565b60405180910390fd5b50565b6000613a63613d5e565b9050613a6e84613db5565b600083511180613a7b5750815b15613a8c57613a8a8484613e6e565b505b6000613aba7f4910fdfa16fed3260ed0e7147f7cc6da11a60208b5b9406d12a635614ffd914360001b613f52565b90508060000160009054906101000a900460ff16613c665760018160000160006101000a81548160ff021916908315150217905550613b868583604051602401613b049190614cdd565b6040516020818303038152906040527f3659cfe6000000000000000000000000000000000000000000000000000000007bffffffffffffffffffffffffffffffffffffffffffffffffffffffff19166020820180517bffffffffffffffffffffffffffffffffffffffffffffffffffffffff8381831617835250505050613e6e565b5060008160000160006101000a81548160ff021916908315150217905550613bac613d5e565b73ffffffffffffffffffffffffffffffffffffffff168273ffffffffffffffffffffffffffffffffffffffff1614613c19576040517f08c379a0000000000000000000000000000000000000000000000000000000008152600401613c1090614e1e565b60405180910390fd5b613c2285613db5565b8473ffffffffffffffffffffffffffffffffffffffff167fbc7cd75a20ee27fd9adebab32041f755214dbc6bffa90cc0225b39da2e5c2d3b60405160405180910390a25b5050505050565b600033905090565b600060019054906101000a900460ff1680613c9b575060008054906101000a900460ff16155b613cda576040517f08c379a0000000000000000000000000000000000000000000000000000000008152600401613cd190614e7e565b60405180910390fd5b60008060019054906101000a900460ff161590508015613d2a576001600060016101000a81548160ff02191690831515021790555060016000806101000a81548160ff0219169083151502179055505b613d32613f5c565b613d3a614035565b8015613d5b5760008060016101000a81548160ff0219169083151502179055505b50565b6000613d8c7f360894a13ba1a3210667c828492db98dca3e2076cc3735a920a3ca505d382bbc60001b6141b7565b60000160009054906101000a900473ffffffffffffffffffffffffffffffffffffffff16905090565b613dbe816141c1565b613dfd576040517f08c379a0000000000000000000000000000000000000000000000000000000008152600401613df490614e9e565b60405180910390fd5b80613e2a7f360894a13ba1a3210667c828492db98dca3e2076cc3735a920a3ca505d382bbc60001b6141b7565b60000160006101000a81548173ffffffffffffffffffffffffffffffffffffffff021916908373ffffffffffffffffffffffffffffffffffffffff16021790555050565b6060613e79836141c1565b613eb8576040517f08c379a0000000000000000000000000000000000000000000000000000000008152600401613eaf90614ede565b60405180910390fd5b6000808473ffffffffffffffffffffffffffffffffffffffff1684604051613ee09190614cc6565b600060405180830381855af49150503d8060008114613f1b576040519150601f19603f3d011682016040523d82523d6000602084013e613f20565b606091505b5091509150613f488282604051806060016040528060278152602001615a49602791396141d4565b9250505092915050565b6000819050919050565b600060019054906101000a900460ff1680613f82575060008054906101000a900460ff16155b613fc1576040517f08c379a0000000000000000000000000000000000000000000000000000000008152600401613fb890614e7e565b60405180910390fd5b60008060019054906101000a900460ff161590508015614011576001600060016101000a81548160ff02191690831515021790555060016000806101000a81548160ff0219169083151502179055505b80156140325760008060016101000a81548160ff0219169083151502179055505b50565b600060019054906101000a900460ff168061405b575060008054906101000a900460ff16155b61409a576040517f08c379a000000000000000000000000000000000000000000000000000000000815260040161409190614e7e565b60405180910390fd5b60008060019054906101000a900460ff1615905080156140ea576001600060016101000a81548160ff02191690831515021790555060016000806101000a81548160ff0219169083151502179055505b60006140f4613c6d565b905080609760006101000a81548173ffffffffffffffffffffffffffffffffffffffff021916908373ffffffffffffffffffffffffffffffffffffffff1602179055508073ffffffffffffffffffffffffffffffffffffffff16600073ffffffffffffffffffffffffffffffffffffffff167f8be0079c531659141344cd1fd0a4f28419497f9722a3daafe3b4186f6b6457e060405160405180910390a35080156141b45760008060016101000a81548160ff0219169083151502179055505b50565b6000819050919050565b600080823b905060008111915050919050565b606083156141e457829050614234565b6000835111156141f75782518084602001fd5b816040517f08c379a000000000000000000000000000000000000000000000000000000000815260040161422b9190614dfc565b60405180910390fd5b9392505050565b600061424e61424984614f67565b614f42565b9050808382526020820190508285602086028201111561426d57600080fd5b60005b8581101561429d578161428388826143d2565b845260208401935060208301925050600181019050614270565b5050509392505050565b60006142ba6142b584614f93565b614f42565b905080838252602082019050828560208602820111156142d957600080fd5b60005b8581101561430957816142ef888261452e565b8452602084019350602083019250506001810190506142dc565b5050509392505050565b600061432661432184614f93565b614f42565b9050808382526020820190508285602086028201111561434557600080fd5b60005b85811015614375578161435b8882614543565b845260208401935060208301925050600181019050614348565b5050509392505050565b600061439261438d84614fbf565b614f42565b9050828152602081018484840111156143aa57600080fd5b6143b584828561559f565b509392505050565b6000813590506143cc816159be565b92915050565b6000815190506143e1816159be565b92915050565b6000815190506143f6816159d5565b92915050565b600082601f83011261440d57600080fd5b815161441d84826020860161423b565b91505092915050565b600082601f83011261443757600080fd5b81356144478482602086016142a7565b91505092915050565b600082601f83011261446157600080fd5b8151614471848260208601614313565b91505092915050565b600081359050614489816159ec565b92915050565b600082601f8301126144a057600080fd5b81356144b084826020860161437f565b91505092915050565b6000813590506144c881615a03565b92915050565b6000606082840312156144e057600080fd5b6144ea6060614f42565b905060006144fa84828501614543565b600083015250602061450e84828501614543565b602083015250604061452284828501614543565b60408301525092915050565b60008135905061453d81615a1a565b92915050565b60008151905061455281615a1a565b92915050565b60008135905061456781615a31565b92915050565b60008151905061457c81615a31565b92915050565b60006020828403121561459457600080fd5b60006145a2848285016143bd565b91505092915050565b6000602082840312156145bd57600080fd5b60006145cb848285016143d2565b91505092915050565b6000602082840312156145e657600080fd5b60006145f4848285016143e7565b91505092915050565b6000806040838503121561461057600080fd5b600061461e858286016143bd565b925050602061462f858286016143bd565b9150509250929050565b60008060008060008060c0878903121561465257600080fd5b600061466089828a016143bd565b965050602061467189828a016143bd565b955050604061468289828a016143bd565b945050606061469389828a0161452e565b93505060806146a489828a0161452e565b92505060a06146b589828a0161447a565b9150509295509295509295565b600080600080600080600060e0888a0312156146dd57600080fd5b60006146eb8a828b016143bd565b97505060206146fc8a828b016143bd565b965050604061470d8a828b016143bd565b955050606061471e8a828b0161452e565b945050608061472f8a828b0161452e565b93505060a06147408a828b0161452e565b92505060c06147518a828b0161452e565b91505092959891949750929550565b60008060006060848603121561477557600080fd5b6000614783868287016143bd565b9350506020614794868287016143bd565b92505060406147a58682870161452e565b9150509250925092565b600080604083850312156147c257600080fd5b60006147d0858286016143bd565b925050602083013567ffffffffffffffff8111156147ed57600080fd5b6147f98582860161448f565b9150509250929050565b60006020828403121561481557600080fd5b600082015167ffffffffffffffff81111561482f57600080fd5b61483b848285016143fc565b91505092915050565b6000806040838503121561485757600080fd5b600083015167ffffffffffffffff81111561487157600080fd5b61487d85828601614450565b925050602083015167ffffffffffffffff81111561489a57600080fd5b6148a6858286016143fc565b9150509250929050565b6000806000606084860312156148c557600080fd5b600084013567ffffffffffffffff8111156148df57600080fd5b6148eb86828701614426565b93505060206148fc868287016144b9565b925050604061490d868287016144b9565b9150509250925092565b60006060828403121561492957600080fd5b6000614937848285016144ce565b91505092915050565b60006020828403121561495257600080fd5b600061496084828501614543565b91505092915050565b60008060006060848603121561497e57600080fd5b600061498c8682870161452e565b935050602061499d8682870161452e565b92505060406149ae8682870161452e565b9150509250925092565b6000806000606084860312156149cd57600080fd5b60006149db8682870161452e565b93505060206149ec86828701614558565b92505060406149fd86828701614558565b9150509250925092565b600060208284031215614a1957600080fd5b6000614a278482850161456d565b91505092915050565b6000614a3c8383614a60565b60208301905092915050565b6000614a548383614ca8565b60208301905092915050565b614a6981615521565b82525050565b614a7881615521565b82525050565b6000614a8982615010565b614a938185615056565b9350614a9e83614ff0565b8060005b83811015614acf578151614ab68882614a30565b9750614ac18361503c565b925050600181019050614aa2565b5085935050505092915050565b6000614ae78261501b565b614af18185615067565b9350614afc83615000565b8060005b83811015614b2d578151614b148882614a48565b9750614b1f83615049565b925050600181019050614b00565b5085935050505092915050565b614b4381615545565b82525050565b6000614b5482615026565b614b5e8185615078565b9350614b6e8185602086016155ae565b80840191505092915050565b6000614b8582615031565b614b8f8185615083565b9350614b9f8185602086016155ae565b614ba8816157c3565b840191505092915050565b6000614bc0602f83615083565b9150614bcb826157e1565b604082019050919050565b6000614be3602683615083565b9150614bee82615830565b604082019050919050565b6000614c06600283615083565b9150614c118261587f565b602082019050919050565b6000614c29602e83615083565b9150614c34826158a8565b604082019050919050565b6000614c4c602d83615083565b9150614c57826158f7565b604082019050919050565b6000614c6f602083615083565b9150614c7a82615946565b602082019050919050565b6000614c92602683615083565b9150614c9d8261596f565b604082019050919050565b614cb181615588565b82525050565b614cc081615588565b82525050565b6000614cd28284614b49565b915081905092915050565b6000602082019050614cf26000830184614a6f565b92915050565b6000604082019050614d0d6000830185614a6f565b614d1a6020830184614a6f565b9392505050565b6000606082019050614d366000830186614a6f565b614d436020830185614a6f565b614d506040830184614a6f565b949350505050565b60006020820190508181036000830152614d728184614a7e565b905092915050565b60006060820190508181036000830152614d948186614a7e565b90508181036020830152614da88185614adc565b9050614db76040830184614b3a565b949350505050565b60006020820190508181036000830152614dd98184614adc565b905092915050565b6000602082019050614df66000830184614b3a565b92915050565b60006020820190508181036000830152614e168184614b7a565b905092915050565b60006020820190508181036000830152614e3781614bb3565b9050919050565b60006020820190508181036000830152614e5781614bd6565b9050919050565b60006020820190508181036000830152614e7781614bf9565b9050919050565b60006020820190508181036000830152614e9781614c1c565b9050919050565b60006020820190508181036000830152614eb781614c3f565b9050919050565b60006020820190508181036000830152614ed781614c62565b9050919050565b60006020820190508181036000830152614ef781614c85565b9050919050565b6000602082019050614f136000830184614cb7565b92915050565b6000604082019050614f2e6000830185614cb7565b614f3b6020830184614cb7565b9392505050565b6000614f4c614f5d565b9050614f58828261562a565b919050565b6000604051905090565b600067ffffffffffffffff821115614f8257614f81615794565b5b602082029050602081019050919050565b600067ffffffffffffffff821115614fae57614fad615794565b5b602082029050602081019050919050565b600067ffffffffffffffff821115614fda57614fd9615794565b5b614fe3826157c3565b9050602081019050919050565b6000819050602082019050919050565b6000819050602082019050919050565b600081519050919050565b600081519050919050565b600081519050919050565b600081519050919050565b6000602082019050919050565b6000602082019050919050565b600082825260208201905092915050565b600082825260208201905092915050565b600081905092915050565b600082825260208201905092915050565b600061509f82615551565b91506150aa83615551565b9250817f7fffffffffffffffffffffffffffffffffffffffffffffffffffffffffffffff038313600083121516156150e5576150e4615736565b5b817f800000000000000000000000000000000000000000000000000000000000000003831260008312161561511d5761511c615736565b5b828201905092915050565b600061513382615588565b915061513e83615588565b9250827fffffffffffffffffffffffffffffffffffffffffffffffffffffffffffffffff0382111561517357615172615736565b5b828201905092915050565b600061518982615551565b915061519483615551565b9250826151a4576151a3615765565b5b600160000383147f8000000000000000000000000000000000000000000000000000000000000000831416156151dd576151dc615736565b5b828205905092915050565b60006151f382615588565b91506151fe83615588565b92508261520e5761520d615765565b5b828204905092915050565b6000808291508390505b60018511156152635780860481111561523f5761523e615736565b5b600185161561524e5780820291505b808102905061525c856157d4565b9450615223565b94509492505050565b600061527782615588565b915061528283615588565b92506152af7fffffffffffffffffffffffffffffffffffffffffffffffffffffffffffffffff84846152b7565b905092915050565b6000826152c75760019050615383565b816152d55760009050615383565b81600181146152eb57600281146152f557615324565b6001915050615383565b60ff84111561530757615306615736565b5b8360020a91508482111561531e5761531d615736565b5b50615383565b5060208310610133831016604e8410600b84101617156153595782820a90508381111561535457615353615736565b5b615383565b6153668484846001615219565b9250905081840481111561537d5761537c615736565b5b81810290505b9392505050565b600061539582615588565b91506153a083615588565b9250817fffffffffffffffffffffffffffffffffffffffffffffffffffffffffffffffff04831182151516156153d9576153d8615736565b5b828202905092915050565b60006153ef82615551565b91506153fa83615551565b9250827f80000000000000000000000000000000000000000000000000000000000000000182126000841215161561543557615434615736565b5b827f7fffffffffffffffffffffffffffffffffffffffffffffffffffffffffffffff01821360008412161561546d5761546c615736565b5b828203905092915050565b60006154838261555b565b915061548e8361555b565b9250827fffffffffffffffffffffffffffffffffffffffffffffffffffffffffffffff80018212600084121516156154c9576154c8615736565b5b82607f0182136000841216156154e2576154e1615736565b5b828203905092915050565b60006154f882615588565b915061550383615588565b92508282101561551657615515615736565b5b828203905092915050565b600061552c82615568565b9050919050565b600061553e82615568565b9050919050565b60008115159050919050565b6000819050919050565b60008160000b9050919050565b600073ffffffffffffffffffffffffffffffffffffffff82169050919050565b6000819050919050565b600060ff82169050919050565b82818337600083830152505050565b60005b838110156155cc5780820151818401526020810190506155b1565b838111156155db576000848401525b50505050565b60006155ec82615551565b91507f800000000000000000000000000000000000000000000000000000000000000082141561561f5761561e615736565b5b600182039050919050565b615633826157c3565b810181811067ffffffffffffffff8211171561565257615651615794565b5b80604052505050565b600061566682615551565b91507f7fffffffffffffffffffffffffffffffffffffffffffffffffffffffffffffff82141561569957615698615736565b5b600182019050919050565b60006156af82615588565b91507fffffffffffffffffffffffffffffffffffffffffffffffffffffffffffffffff8214156156e2576156e1615736565b5b600182019050919050565b60006156f882615551565b91507f800000000000000000000000000000000000000000000000000000000000000082141561572b5761572a615736565b5b816000039050919050565b7f4e487b7100000000000000000000000000000000000000000000000000000000600052601160045260246000fd5b7f4e487b7100000000000000000000000000000000000000000000000000000000600052601260045260246000fd5b7f4e487b7100000000000000000000000000000000000000000000000000000000600052604160045260246000fd5b6000601f19601f8301169050919050565b60008160011c9050919050565b7f45524331393637557067726164653a207570677261646520627265616b73206660008201527f7572746865722075706772616465730000000000000000000000000000000000602082015250565b7f4f776e61626c653a206e6577206f776e657220697320746865207a65726f206160008201527f6464726573730000000000000000000000000000000000000000000000000000602082015250565b7f4352000000000000000000000000000000000000000000000000000000000000600082015250565b7f496e697469616c697a61626c653a20636f6e747261637420697320616c72656160008201527f647920696e697469616c697a6564000000000000000000000000000000000000602082015250565b7f455243313936373a206e657720696d706c656d656e746174696f6e206973206e60008201527f6f74206120636f6e747261637400000000000000000000000000000000000000602082015250565b7f4f776e61626c653a2063616c6c6572206973206e6f7420746865206f776e6572600082015250565b7f416464726573733a2064656c65676174652063616c6c20746f206e6f6e2d636f60008201527f6e74726163740000000000000000000000000000000000000000000000000000602082015250565b6159c781615521565b81146159d257600080fd5b50565b6159de81615533565b81146159e957600080fd5b50565b6159f581615545565b8114615a0057600080fd5b50565b615a0c81615551565b8114615a1757600080fd5b50565b615a2381615588565b8114615a2e57600080fd5b50565b615a3a81615592565b8114615a4557600080fd5b5056fe416464726573733a206c6f772d6c6576656c2064656c65676174652063616c6c206661696c6564a264697066735822122017a3b7849e7a38d6467d8535985ba74753583fe8c4a969aaed0a4f009143a10b64736f6c63430008030033",
  "linkReferences": {},
  "deployedLinkReferences": {}
}