{
  "_format": "hh-sol-artifact-1",
  "contractName": "VaultLibrary",
  "sourceName": "contracts/Bank/VaultLibrary.sol",
  "abi": [
    {
      "anonymous": false,
      "inputs": [
        {
          "indexed": false,
          "internalType": "address",
          "name": "previousAdmin",
          "type": "address"
        },
        {
          "indexed": false,
          "internalType": "address",
          "name": "newAdmin",
          "type": "address"
        }
      ],
      "name": "AdminChanged",
      "type": "event"
    },
    {
      "anonymous": false,
      "inputs": [
        {
          "indexed": true,
          "internalType": "address",
          "name": "beacon",
          "type": "address"
        }
      ],
      "name": "BeaconUpgraded",
      "type": "event"
    },
    {
      "anonymous": false,
      "inputs": [
        {
          "indexed": true,
          "internalType": "address",
          "name": "previousOwner",
          "type": "address"
        },
        {
          "indexed": true,
          "internalType": "address",
          "name": "newOwner",
          "type": "address"
        }
      ],
      "name": "OwnershipTransferred",
      "type": "event"
    },
    {
      "anonymous": false,
      "inputs": [
        {
          "indexed": true,
          "internalType": "address",
          "name": "implementation",
          "type": "address"
        }
      ],
      "name": "Upgraded",
      "type": "event"
    },
    {
      "inputs": [
        {
          "internalType": "address",
          "name": "account",
          "type": "address"
        },
        {
          "internalType": "address",
          "name": "fxToken",
          "type": "address"
        }
      ],
      "name": "calculateInterest",
      "outputs": [
        {
          "internalType": "uint256",
          "name": "interest",
          "type": "uint256"
        }
      ],
      "stateMutability": "view",
      "type": "function"
    },
    {
      "inputs": [
        {
          "internalType": "address",
          "name": "account",
          "type": "address"
        },
        {
          "internalType": "address",
          "name": "fxToken",
          "type": "address"
        },
        {
          "internalType": "address",
          "name": "collateralToken",
          "type": "address"
        },
        {
          "internalType": "uint256",
          "name": "collateralAmount",
          "type": "uint256"
        },
        {
          "internalType": "uint256",
          "name": "tokenAmount",
          "type": "uint256"
        },
        {
          "internalType": "uint256",
          "name": "fxQuote",
          "type": "uint256"
        },
        {
          "internalType": "uint256",
          "name": "collateralQuote",
          "type": "uint256"
        }
      ],
      "name": "canMint",
      "outputs": [
        {
          "internalType": "bool",
          "name": "",
          "type": "bool"
        }
      ],
      "stateMutability": "view",
      "type": "function"
    },
    {
      "inputs": [
        {
          "internalType": "address",
          "name": "account",
          "type": "address"
        },
        {
          "internalType": "address",
          "name": "fxToken",
          "type": "address"
        }
      ],
      "name": "doesMeetRatio",
      "outputs": [
        {
          "internalType": "bool",
          "name": "",
          "type": "bool"
        }
      ],
      "stateMutability": "view",
      "type": "function"
    },
    {
      "inputs": [
        {
          "internalType": "uint256",
          "name": "amount",
          "type": "uint256"
        },
        {
          "internalType": "address",
          "name": "token",
          "type": "address"
        },
        {
          "internalType": "address",
          "name": "from",
          "type": "address"
        }
      ],
      "name": "getAllowedBuyCollateralFromTokenAmount",
      "outputs": [
        {
          "internalType": "uint256",
          "name": "allowedAmount",
          "type": "uint256"
        }
      ],
      "stateMutability": "view",
      "type": "function"
    },
    {
      "inputs": [
        {
          "internalType": "address",
          "name": "account",
          "type": "address"
        },
        {
          "internalType": "address",
          "name": "fxToken",
          "type": "address"
        },
        {
          "internalType": "uint256",
          "name": "amountEth",
          "type": "uint256"
        }
      ],
      "name": "getCollateralForAmount",
      "outputs": [
        {
          "internalType": "address[]",
          "name": "collateralTypes",
          "type": "address[]"
        },
        {
          "internalType": "uint256[]",
          "name": "collateralAmounts",
          "type": "uint256[]"
        },
        {
          "internalType": "bool",
          "name": "metAmount",
          "type": "bool"
        }
      ],
      "stateMutability": "view",
      "type": "function"
    },
    {
      "inputs": [
        {
          "internalType": "address",
          "name": "account",
          "type": "address"
        },
        {
          "internalType": "address",
          "name": "fxToken",
          "type": "address"
        }
      ],
      "name": "getCollateralShares",
      "outputs": [
        {
          "internalType": "uint256[]",
          "name": "shares",
          "type": "uint256[]"
        }
      ],
      "stateMutability": "view",
      "type": "function"
    },
    {
      "inputs": [],
      "name": "getCollateralTypesSortedByLiquidationRank",
      "outputs": [
        {
          "internalType": "address[]",
          "name": "sortedCollateralTypes",
          "type": "address[]"
        }
      ],
      "stateMutability": "view",
      "type": "function"
    },
    {
      "inputs": [
        {
          "internalType": "address",
          "name": "account",
          "type": "address"
        },
        {
          "internalType": "address",
          "name": "fxToken",
          "type": "address"
        }
      ],
      "name": "getCurrentRatio",
      "outputs": [
        {
          "internalType": "uint256",
          "name": "ratio",
          "type": "uint256"
        }
      ],
      "stateMutability": "view",
      "type": "function"
    },
    {
      "inputs": [
        {
          "internalType": "address",
          "name": "account",
          "type": "address"
        },
        {
          "internalType": "address",
          "name": "fxToken",
          "type": "address"
        }
      ],
      "name": "getDebtAsEth",
      "outputs": [
        {
          "internalType": "uint256",
          "name": "debt",
          "type": "uint256"
        }
      ],
      "stateMutability": "view",
      "type": "function"
    },
    {
      "inputs": [
        {
          "internalType": "address",
          "name": "account",
          "type": "address"
        },
        {
          "internalType": "address",
          "name": "fxToken",
          "type": "address"
        }
      ],
      "name": "getFreeCollateralAsEth",
      "outputs": [
        {
          "internalType": "uint256",
          "name": "",
          "type": "uint256"
        }
      ],
      "stateMutability": "view",
      "type": "function"
    },
    {
      "inputs": [
        {
          "internalType": "address",
          "name": "account",
          "type": "address"
        },
        {
          "internalType": "address",
          "name": "fxToken",
          "type": "address"
        },
        {
          "internalType": "uint256",
          "name": "minimumRatio",
          "type": "uint256"
        }
      ],
      "name": "getFreeCollateralAsEthFromMinimumRatio",
      "outputs": [
        {
          "internalType": "uint256",
          "name": "",
          "type": "uint256"
        }
      ],
      "stateMutability": "view",
      "type": "function"
    },
    {
      "inputs": [
        {
          "internalType": "address",
          "name": "account",
          "type": "address"
        },
        {
          "internalType": "address",
          "name": "fxToken",
          "type": "address"
        }
      ],
      "name": "getInterestRate",
      "outputs": [
        {
          "internalType": "uint256",
          "name": "",
          "type": "uint256"
        }
      ],
      "stateMutability": "view",
      "type": "function"
    },
    {
      "inputs": [
        {
          "internalType": "address",
          "name": "account",
          "type": "address"
        },
        {
          "internalType": "address",
          "name": "fxToken",
          "type": "address"
        }
      ],
      "name": "getLiquidationFee",
      "outputs": [
        {
          "internalType": "uint256",
          "name": "fee",
          "type": "uint256"
        }
      ],
      "stateMutability": "view",
      "type": "function"
    },
    {
      "inputs": [
        {
          "internalType": "uint256",
          "name": "tokenAmount",
          "type": "uint256"
        },
        {
          "internalType": "uint256",
          "name": "ratio",
          "type": "uint256"
        },
        {
          "internalType": "uint256",
          "name": "unitPrice",
          "type": "uint256"
        }
      ],
      "name": "getMinimumCollateral",
      "outputs": [
        {
          "internalType": "uint256",
          "name": "minimum",
          "type": "uint256"
        }
      ],
      "stateMutability": "pure",
      "type": "function"
    },
    {
      "inputs": [
        {
          "internalType": "address",
          "name": "account",
          "type": "address"
        },
        {
          "internalType": "address",
          "name": "fxToken",
          "type": "address"
        }
      ],
      "name": "getMinimumRatio",
      "outputs": [
        {
          "internalType": "uint256",
          "name": "ratio",
          "type": "uint256"
        }
      ],
      "stateMutability": "view",
      "type": "function"
    },
    {
      "inputs": [
        {
          "internalType": "address",
          "name": "account",
          "type": "address"
        },
        {
          "internalType": "address",
          "name": "fxToken",
          "type": "address"
        },
        {
          "internalType": "address",
          "name": "collateralToken",
          "type": "address"
        },
        {
          "internalType": "uint256",
          "name": "collateralAmount",
          "type": "uint256"
        },
        {
          "internalType": "uint256",
          "name": "collateralQuote",
          "type": "uint256"
        },
        {
          "internalType": "bool",
          "name": "isDeposit",
          "type": "bool"
        }
      ],
      "name": "getNewMinimumRatio",
      "outputs": [
        {
          "internalType": "uint256",
          "name": "ratio",
          "type": "uint256"
        },
        {
          "internalType": "uint256",
          "name": "newCollateralAsEther",
          "type": "uint256"
        }
      ],
      "stateMutability": "view",
      "type": "function"
    },
    {
      "inputs": [
        {
          "internalType": "address",
          "name": "token",
          "type": "address"
        }
      ],
      "name": "getTokenUnit",
      "outputs": [
        {
          "internalType": "uint256",
          "name": "",
          "type": "uint256"
        }
      ],
      "stateMutability": "view",
      "type": "function"
    },
    {
      "inputs": [
        {
          "internalType": "address",
          "name": "account",
          "type": "address"
        },
        {
          "internalType": "address",
          "name": "fxToken",
          "type": "address"
        }
      ],
      "name": "getTotalCollateralBalanceAsEth",
      "outputs": [
        {
          "internalType": "uint256",
          "name": "balance",
          "type": "uint256"
        }
      ],
      "stateMutability": "view",
      "type": "function"
    },
    {
      "inputs": [],
      "name": "handleAddress",
      "outputs": [
        {
          "internalType": "address",
          "name": "",
          "type": "address"
        }
      ],
      "stateMutability": "view",
      "type": "function"
    },
    {
      "inputs": [],
      "name": "initialize",
      "outputs": [],
      "stateMutability": "nonpayable",
      "type": "function"
    },
    {
      "inputs": [],
      "name": "owner",
      "outputs": [
        {
          "internalType": "address",
          "name": "",
          "type": "address"
        }
      ],
      "stateMutability": "view",
      "type": "function"
    },
    {
      "inputs": [
        {
          "internalType": "uint256[]",
          "name": "array",
          "type": "uint256[]"
        },
        {
          "internalType": "int256",
          "name": "left",
          "type": "int256"
        },
        {
          "internalType": "int256",
          "name": "right",
          "type": "int256"
        }
      ],
      "name": "quickSort",
      "outputs": [],
      "stateMutability": "pure",
      "type": "function"
    },
    {
      "inputs": [],
      "name": "renounceOwnership",
      "outputs": [],
      "stateMutability": "nonpayable",
      "type": "function"
    },
    {
      "inputs": [
        {
          "internalType": "address",
          "name": "_handle",
          "type": "address"
        }
      ],
      "name": "setHandleContract",
      "outputs": [],
      "stateMutability": "nonpayable",
      "type": "function"
    },
    {
      "inputs": [
        {
          "internalType": "uint256",
          "name": "crTarget",
          "type": "uint256"
        },
        {
          "internalType": "uint256",
          "name": "debt",
          "type": "uint256"
        },
        {
          "internalType": "uint256",
          "name": "collateral",
          "type": "uint256"
        }
      ],
      "name": "tokensRequiredForCrIncrease",
      "outputs": [
        {
          "internalType": "uint256",
          "name": "amount",
          "type": "uint256"
        }
      ],
      "stateMutability": "pure",
      "type": "function"
    },
    {
      "inputs": [
        {
          "internalType": "address",
          "name": "newOwner",
          "type": "address"
        }
      ],
      "name": "transferOwnership",
      "outputs": [],
      "stateMutability": "nonpayable",
      "type": "function"
    },
    {
      "inputs": [
        {
          "internalType": "address",
          "name": "newImplementation",
          "type": "address"
        }
      ],
      "name": "upgradeTo",
      "outputs": [],
      "stateMutability": "nonpayable",
      "type": "function"
    },
    {
      "inputs": [
        {
          "internalType": "address",
          "name": "newImplementation",
          "type": "address"
        },
        {
          "internalType": "bytes",
          "name": "data",
          "type": "bytes"
        }
      ],
      "name": "upgradeToAndCall",
      "outputs": [],
      "stateMutability": "payable",
      "type": "function"
    }
  ],
  "bytecode": "0x608060405234801561001057600080fd5b5061581f80620000216000396000f3fe6080604052600436106101b75760003560e01c80638da5cb5b116100ec578063c4d7b8b81161008a578063e279962311610064578063e279962314610698578063e76ab239146106d5578063f2fde38b14610712578063f37cd50d1461073b576101b7565b8063c4d7b8b8146105f3578063cad576311461061e578063db3fabeb1461065b576101b7565b80639b1c414f116100c65780639b1c414f146105125780639e718d071461053b578063bc0c63db14610578578063bcbe3f22146105b6576101b7565b80638da5cb5b1461046d5780638dac8d131461049857806397ae1974146104d5576101b7565b80635a763fbb1161015957806374bf578b1161013357806374bf578b146103b157806380ef72a9146103dc5780638129fc1c146104195780638709294014610430576101b7565b80635a763fbb1461032057806364d321b71461035d578063715018a61461039a576101b7565b80633659cfe6116101955780633659cfe61461026157806349cf9cce1461028a5780634c90f229146102c75780634f1ef28614610304576101b7565b80630a06fc3c146101bc57806312ffb678146101e5578063234ab3e214610222575b600080fd5b3480156101c857600080fd5b506101e360048036038101906101de9190614689565b610778565b005b3480156101f157600080fd5b5061020c60048036038101906102079190614442565b610a1e565b6040516102199190614d1a565b60405180910390f35b34801561022e57600080fd5b50610249600480360381019061024491906145a5565b610e8f565b60405161025893929190614b76565b60405180910390f35b34801561026d57600080fd5b50610288600480360381019061028391906143c7565b6112fc565b005b34801561029657600080fd5b506102b160048036038101906102ac9190614442565b611323565b6040516102be9190614bbb565b60405180910390f35b3480156102d357600080fd5b506102ee60048036038101906102e99190614442565b61174e565b6040516102fb9190614d1a565b60405180910390f35b61031e600480360381019061031991906145f4565b611a88565b005b34801561032c57600080fd5b5061034760048036038101906103429190614442565b611aa1565b6040516103549190614d1a565b60405180910390f35b34801561036957600080fd5b50610384600480360381019061037f9190614442565b611b02565b6040516103919190614d1a565b60405180910390f35b3480156103a657600080fd5b506103af611d51565b005b3480156103bd57600080fd5b506103c6611e8e565b6040516103d39190614ad9565b60405180910390f35b3480156103e857600080fd5b5061040360048036038101906103fe91906143c7565b611eb8565b6040516104109190614d1a565b60405180910390f35b34801561042557600080fd5b5061042e611f53565b005b34801561043c57600080fd5b5061045760048036038101906104529190614442565b612034565b6040516104649190614d1a565b60405180910390f35b34801561047957600080fd5b5061048261220b565b60405161048f9190614ad9565b60405180910390f35b3480156104a457600080fd5b506104bf60048036038101906104ba9190614742565b612235565b6040516104cc9190614d1a565b60405180910390f35b3480156104e157600080fd5b506104fc60048036038101906104f79190614791565b612414565b6040516105099190614d1a565b60405180910390f35b34801561051e57600080fd5b50610539600480360381019061053491906143c7565b6124e0565b005b34801561054757600080fd5b50610562600480360381019061055d9190614791565b612760565b60405161056f9190614d1a565b60405180910390f35b34801561058457600080fd5b5061059f600480360381019061059a919061447e565b6127c4565b6040516105ad929190614d35565b60405180910390f35b3480156105c257600080fd5b506105dd60048036038101906105d89190614442565b612a27565b6040516105ea9190614d1a565b60405180910390f35b3480156105ff57600080fd5b50610608612c9e565b6040516106159190614b54565b60405180910390f35b34801561062a57600080fd5b50610645600480360381019061064091906145a5565b61338b565b6040516106529190614d1a565b60405180910390f35b34801561066757600080fd5b50610682600480360381019061067d9190614442565b613418565b60405161068f9190614d1a565b60405180910390f35b3480156106a457600080fd5b506106bf60048036038101906106ba9190614507565b6135a5565b6040516106cc9190614bdd565b60405180910390f35b3480156106e157600080fd5b506106fc60048036038101906106f79190614442565b613643565b6040516107099190614d1a565b60405180910390f35b34801561071e57600080fd5b50610739600480360381019061073491906143c7565b613661565b005b34801561074757600080fd5b50610762600480360381019061075d9190614442565b61380d565b60405161076f9190614bdd565b60405180910390f35b6000829050600082905080821415610791575050610a19565b600085600286866107a29190615200565b6107ac9190614f9a565b866107b79190614eb0565b815181106107ee577f4e487b7100000000000000000000000000000000000000000000000000000000600052603260045260246000fd5b602002602001015190505b8183136109ed575b8086848151811061083b577f4e487b7100000000000000000000000000000000000000000000000000000000600052603260045260246000fd5b6020026020010151101561085c578280610854906153f5565b935050610801565b5b858281518110610896577f4e487b7100000000000000000000000000000000000000000000000000000000600052603260045260246000fd5b60200260200101518110156108b85781806108b09061537b565b92505061085d565b8183136109e8578582815181106108f8577f4e487b7100000000000000000000000000000000000000000000000000000000600052603260045260246000fd5b6020026020010151868481518110610939577f4e487b7100000000000000000000000000000000000000000000000000000000600052603260045260246000fd5b602002602001015187858151811061097a577f4e487b7100000000000000000000000000000000000000000000000000000000600052603260045260246000fd5b602002602001018885815181106109ba577f4e487b7100000000000000000000000000000000000000000000000000000000600052603260045260246000fd5b602002602001018281525082815250505082806109d6906153f5565b93505081806109e49061537b565b9250505b6107f9565b81851215610a0157610a00868684610778565b5b83831215610a1557610a14868486610778565b5b5050505b505050565b60008060c960009054906101000a900473ffffffffffffffffffffffffffffffffffffffff1673ffffffffffffffffffffffffffffffffffffffff1663294d499e6040518163ffffffff1660e01b815260040160006040518083038186803b158015610a8957600080fd5b505afa158015610a9d573d6000803e3d6000fd5b505050506040513d6000823e3d601f19601f82011682018060405250810190610ac69190614648565b90506000610ad4858561174e565b90506000811415610aea57600092505050610e89565b6000808351905060005b81811015610e80576000610d43610b4a878481518110610b3d577f4e487b7100000000000000000000000000000000000000000000000000000000600052603260045260246000fd5b6020026020010151611eb8565b610d3560c960009054906101000a900473ffffffffffffffffffffffffffffffffffffffff1673ffffffffffffffffffffffffffffffffffffffff1663d02641a08a8781518110610bc4577f4e487b7100000000000000000000000000000000000000000000000000000000600052603260045260246000fd5b60200260200101516040518263ffffffff1660e01b8152600401610be89190614ad9565b60206040518083038186803b158015610c0057600080fd5b505afa158015610c14573d6000803e3d6000fd5b505050506040513d601f19601f82011682018060405250810190610c389190614719565b60c960009054906101000a900473ffffffffffffffffffffffffffffffffffffffff1673ffffffffffffffffffffffffffffffffffffffff1663c462b5208e8c8981518110610cb0577f4e487b7100000000000000000000000000000000000000000000000000000000600052603260045260246000fd5b60200260200101518f6040518463ffffffff1660e01b8152600401610cd793929190614b1d565b60206040518083038186803b158015610cef57600080fd5b505afa158015610d03573d6000803e3d6000fd5b505050506040513d601f19601f82011682018060405250810190610d279190614719565b61387290919063ffffffff16565b61388890919063ffffffff16565b9050610e6a610e5b86610e4d8460c960009054906101000a900473ffffffffffffffffffffffffffffffffffffffff1673ffffffffffffffffffffffffffffffffffffffff1663bd9e52008c8981518110610dc7577f4e487b7100000000000000000000000000000000000000000000000000000000600052603260045260246000fd5b60200260200101516040518263ffffffff1660e01b8152600401610deb9190614ad9565b60606040518083038186803b158015610e0357600080fd5b505afa158015610e17573d6000803e3d6000fd5b505050506040513d601f19601f82011682018060405250810190610e3b91906146f0565b6040015161387290919063ffffffff16565b61388890919063ffffffff16565b8561389e90919063ffffffff16565b9350508080610e789061543e565b915050610af4565b50819450505050505b92915050565b6060806000610e9c612c9e565b92506000835190508067ffffffffffffffff811115610ee4577f4e487b7100000000000000000000000000000000000000000000000000000000600052604160045260246000fd5b604051908082528060200260200182016040528015610f125781602001602082028036833780820191505090505b5092506000805b828110156112eb57600060c960009054906101000a900473ffffffffffffffffffffffffffffffffffffffff1673ffffffffffffffffffffffffffffffffffffffff1663c462b5208b898581518110610f9b577f4e487b7100000000000000000000000000000000000000000000000000000000600052603260045260246000fd5b60200260200101518c6040518463ffffffff1660e01b8152600401610fc293929190614b1d565b60206040518083038186803b158015610fda57600080fd5b505afa158015610fee573d6000803e3d6000fd5b505050506040513d601f19601f820116820180604052508101906110129190614719565b9050600060c960009054906101000a900473ffffffffffffffffffffffffffffffffffffffff1673ffffffffffffffffffffffffffffffffffffffff1663d02641a089858151811061108d577f4e487b7100000000000000000000000000000000000000000000000000000000600052603260045260246000fd5b60200260200101516040518263ffffffff1660e01b81526004016110b19190614ad9565b60206040518083038186803b1580156110c957600080fd5b505afa1580156110dd573d6000803e3d6000fd5b505050506040513d601f19601f820116820180604052508101906111019190614719565b905060006111726111518a8681518110611144577f4e487b7100000000000000000000000000000000000000000000000000000000600052603260045260246000fd5b6020026020010151611eb8565b611164858561387290919063ffffffff16565b61388890919063ffffffff16565b905089611188828761389e90919063ffffffff16565b10156111f157828885815181106111c8577f4e487b7100000000000000000000000000000000000000000000000000000000600052603260045260246000fd5b6020026020010181815250506111e7818661389e90919063ffffffff16565b94505050506112d8565b6000611206868c6138b490919063ffffffff16565b9050611275836112676112588d898151811061124b577f4e487b7100000000000000000000000000000000000000000000000000000000600052603260045260246000fd5b6020026020010151611eb8565b8461387290919063ffffffff16565b61388890919063ffffffff16565b8986815181106112ae577f4e487b7100000000000000000000000000000000000000000000000000000000600052603260045260246000fd5b6020026020010181815250506112cd818761389e90919063ffffffff16565b9550505050506112eb565b80806112e39061543e565b915050610f19565b508581149250505093509350939050565b611305816138ca565b61132081604051806020016040528060008152506000613949565b50565b6060600060c960009054906101000a900473ffffffffffffffffffffffffffffffffffffffff1673ffffffffffffffffffffffffffffffffffffffff1663294d499e6040518163ffffffff1660e01b815260040160006040518083038186803b15801561138f57600080fd5b505afa1580156113a3573d6000803e3d6000fd5b505050506040513d6000823e3d601f19601f820116820180604052508101906113cc9190614648565b90506000815190508067ffffffffffffffff811115611414577f4e487b7100000000000000000000000000000000000000000000000000000000600052604160045260246000fd5b6040519080825280602002602001820160405280156114425781602001602082028036833780820191505090505b5092506000611451868661174e565b9050600081141561146457505050611748565b60008060005b848110156117415760c960009054906101000a900473ffffffffffffffffffffffffffffffffffffffff1673ffffffffffffffffffffffffffffffffffffffff1663c462b5208a8884815181106114ea577f4e487b7100000000000000000000000000000000000000000000000000000000600052603260045260246000fd5b60200260200101518b6040518463ffffffff1660e01b815260040161151193929190614b1d565b60206040518083038186803b15801561152957600080fd5b505afa15801561153d573d6000803e3d6000fd5b505050506040513d601f19601f820116820180604052508101906115619190614719565b92506116ba6115af8783815181106115a2577f4e487b7100000000000000000000000000000000000000000000000000000000600052603260045260246000fd5b6020026020010151611eb8565b6116ac8560c960009054906101000a900473ffffffffffffffffffffffffffffffffffffffff1673ffffffffffffffffffffffffffffffffffffffff1663d02641a08b878151811061162a577f4e487b7100000000000000000000000000000000000000000000000000000000600052603260045260246000fd5b60200260200101516040518263ffffffff1660e01b815260040161164e9190614ad9565b60206040518083038186803b15801561166657600080fd5b505afa15801561167a573d6000803e3d6000fd5b505050506040513d601f19601f8201168201806040525081019061169e9190614719565b61387290919063ffffffff16565b61388890919063ffffffff16565b91506116e9846116db670de0b6b3a76400008561387290919063ffffffff16565b61388890919063ffffffff16565b878281518110611722577f4e487b7100000000000000000000000000000000000000000000000000000000600052603260045260246000fd5b60200260200101818152505080806117399061543e565b91505061146a565b5050505050505b92915050565b60008060c960009054906101000a900473ffffffffffffffffffffffffffffffffffffffff1673ffffffffffffffffffffffffffffffffffffffff1663294d499e6040518163ffffffff1660e01b815260040160006040518083038186803b1580156117b957600080fd5b505afa1580156117cd573d6000803e3d6000fd5b505050506040513d6000823e3d601f19601f820116820180604052508101906117f69190614648565b90506000915060008151905060005b81811015611a7f576000611a5461185b85848151811061184e577f4e487b7100000000000000000000000000000000000000000000000000000000600052603260045260246000fd5b6020026020010151611eb8565b611a4660c960009054906101000a900473ffffffffffffffffffffffffffffffffffffffff1673ffffffffffffffffffffffffffffffffffffffff1663d02641a08887815181106118d5577f4e487b7100000000000000000000000000000000000000000000000000000000600052603260045260246000fd5b60200260200101516040518263ffffffff1660e01b81526004016118f99190614ad9565b60206040518083038186803b15801561191157600080fd5b505afa158015611925573d6000803e3d6000fd5b505050506040513d601f19601f820116820180604052508101906119499190614719565b60c960009054906101000a900473ffffffffffffffffffffffffffffffffffffffff1673ffffffffffffffffffffffffffffffffffffffff1663c462b5208c8a89815181106119c1577f4e487b7100000000000000000000000000000000000000000000000000000000600052603260045260246000fd5b60200260200101518d6040518463ffffffff1660e01b81526004016119e893929190614b1d565b60206040518083038186803b158015611a0057600080fd5b505afa158015611a14573d6000803e3d6000fd5b505050506040513d601f19601f82011682018060405250810190611a389190614719565b61387290919063ffffffff16565b61388890919063ffffffff16565b9050611a69818661389e90919063ffffffff16565b9450508080611a779061543e565b915050611805565b50505092915050565b611a91826138ca565b611a9d82826001613949565b5050565b600080611aae8484613418565b90506000811415611ac3576000915050611afc565b6000611acf858561174e565b9050611af782611ae960648461387290919063ffffffff16565b61388890919063ffffffff16565b925050505b92915050565b60008060c960009054906101000a900473ffffffffffffffffffffffffffffffffffffffff1673ffffffffffffffffffffffffffffffffffffffff1663294d499e6040518163ffffffff1660e01b815260040160006040518083038186803b158015611b6d57600080fd5b505afa158015611b81573d6000803e3d6000fd5b505050506040513d6000823e3d601f19601f82011682018060405250810190611baa9190614648565b90506000611bb88585611323565b905060008251905060005b81811015611d4757611d32611d23612710611d15868581518110611c10577f4e487b7100000000000000000000000000000000000000000000000000000000600052603260045260246000fd5b602002602001015160c960009054906101000a900473ffffffffffffffffffffffffffffffffffffffff1673ffffffffffffffffffffffffffffffffffffffff1663bd9e52008a8881518110611c8f577f4e487b7100000000000000000000000000000000000000000000000000000000600052603260045260246000fd5b60200260200101516040518263ffffffff1660e01b8152600401611cb39190614ad9565b60606040518083038186803b158015611ccb57600080fd5b505afa158015611cdf573d6000803e3d6000fd5b505050506040513d601f19601f82011682018060405250810190611d0391906146f0565b6020015161387290919063ffffffff16565b61388890919063ffffffff16565b8661389e90919063ffffffff16565b94508080611d3f9061543e565b915050611bc3565b5050505092915050565b611d59613b5d565b73ffffffffffffffffffffffffffffffffffffffff16611d7761220b565b73ffffffffffffffffffffffffffffffffffffffff1614611dcd576040517f08c379a0000000000000000000000000000000000000000000000000000000008152600401611dc490614cda565b60405180910390fd5b600073ffffffffffffffffffffffffffffffffffffffff16609760009054906101000a900473ffffffffffffffffffffffffffffffffffffffff1673ffffffffffffffffffffffffffffffffffffffff167f8be0079c531659141344cd1fd0a4f28419497f9722a3daafe3b4186f6b6457e060405160405180910390a36000609760006101000a81548173ffffffffffffffffffffffffffffffffffffffff021916908373ffffffffffffffffffffffffffffffffffffffff160217905550565b600060c960009054906101000a900473ffffffffffffffffffffffffffffffffffffffff16905090565b6000808273ffffffffffffffffffffffffffffffffffffffff1663313ce5676040518163ffffffff1660e01b815260040160206040518083038186803b158015611f0157600080fd5b505afa158015611f15573d6000803e3d6000fd5b505050506040513d601f19601f82011682018060405250810190611f3991906147e0565b60ff16905080600a611f4b9190615088565b915050919050565b600060019054906101000a900460ff1680611f79575060008054906101000a900460ff16155b611fb8576040517f08c379a0000000000000000000000000000000000000000000000000000000008152600401611faf90614c9a565b60405180910390fd5b60008060019054906101000a900460ff161590508015612008576001600060016101000a81548160ff02191690831515021790555060016000806101000a81548160ff0219169083151502179055505b612010613b65565b80156120315760008060016101000a81548160ff0219169083151502179055505b50565b6000806120f660c960009054906101000a900473ffffffffffffffffffffffffffffffffffffffff1673ffffffffffffffffffffffffffffffffffffffff1663c68da11086866040518363ffffffff1660e01b8152600401612097929190614af4565b60206040518083038186803b1580156120af57600080fd5b505afa1580156120c3573d6000803e3d6000fd5b505050506040513d601f19601f820116820180604052508101906120e79190614719565b426138b490919063ffffffff16565b905060006121048585610a1e565b90506122016103e86121f36301e133806121e5866121d78760c960009054906101000a900473ffffffffffffffffffffffffffffffffffffffff1673ffffffffffffffffffffffffffffffffffffffff166339683a058e8e6040518363ffffffff1660e01b8152600401612179929190614af4565b60206040518083038186803b15801561219157600080fd5b505afa1580156121a5573d6000803e3d6000fd5b505050506040513d601f19601f820116820180604052508101906121c99190614719565b61387290919063ffffffff16565b61387290919063ffffffff16565b61388890919063ffffffff16565b61388890919063ffffffff16565b9250505092915050565b6000609760009054906101000a900473ffffffffffffffffffffffffffffffffffffffff16905090565b6000806122428385612a27565b905060006122508486613418565b9050600061225e858761174e565b90508261228e83612280670de0b6b3a76400008561387290919063ffffffff16565b61388890919063ffffffff16565b106122ce576040517f08c379a00000000000000000000000000000000000000000000000000000000081526004016122c590614c7a565b60405180910390fd5b60006122da8688611b02565b905061231b61230c670de0b6b3a76400006122fe858561387290919063ffffffff16565b61388890919063ffffffff16565b836138b490919063ffffffff16565b9150612328848484612414565b9450600060c960009054906101000a900473ffffffffffffffffffffffffffffffffffffffff1673ffffffffffffffffffffffffffffffffffffffff1663d02641a0896040518263ffffffff1660e01b81526004016123879190614ad9565b60206040518083038186803b15801561239f57600080fd5b505afa1580156123b3573d6000803e3d6000fd5b505050506040513d601f19601f820116820180604052508101906123d79190614719565b9050612406816123f8670de0b6b3a76400008961387290919063ffffffff16565b61388890919063ffffffff16565b955050505050509392505050565b6000670de0b6b3a76400008411612460576040517f08c379a000000000000000000000000000000000000000000000000000000000815260040161245790614c5a565b60405180910390fd5b60006124a1612480670de0b6b3a76400008561387290919063ffffffff16565b612493878761387290919063ffffffff16565b6138b490919063ffffffff16565b905060006124c0670de0b6b3a7640000876138b490919063ffffffff16565b90506124d5818361388890919063ffffffff16565b925050509392505050565b6124e8613b5d565b73ffffffffffffffffffffffffffffffffffffffff1661250661220b565b73ffffffffffffffffffffffffffffffffffffffff161461255c576040517f08c379a000000000000000000000000000000000000000000000000000000000815260040161255390614cda565b60405180910390fd5b8060c960006101000a81548173ffffffffffffffffffffffffffffffffffffffff021916908373ffffffffffffffffffffffffffffffffffffffff16021790555060c960009054906101000a900473ffffffffffffffffffffffffffffffffffffffff1673ffffffffffffffffffffffffffffffffffffffff16635fe3b5676040518163ffffffff1660e01b815260040160206040518083038186803b15801561260557600080fd5b505afa158015612619573d6000803e3d6000fd5b505050506040513d601f19601f8201168201806040525081019061263d91906143f0565b60cb60006101000a81548173ffffffffffffffffffffffffffffffffffffffff021916908373ffffffffffffffffffffffffffffffffffffffff16021790555060c960009054906101000a900473ffffffffffffffffffffffffffffffffffffffff1673ffffffffffffffffffffffffffffffffffffffff166361d027b36040518163ffffffff1660e01b815260040160206040518083038186803b1580156126e557600080fd5b505afa1580156126f9573d6000803e3d6000fd5b505050506040513d601f19601f8201168201806040525081019061271d9190614419565b60ca60006101000a81548173ffffffffffffffffffffffffffffffffffffffff021916908373ffffffffffffffffffffffffffffffffffffffff16021790555050565b60006127bb670de0b6b3a76400006127ad670de0b6b3a764000061279f876127918a8961387290919063ffffffff16565b61387290919063ffffffff16565b61388890919063ffffffff16565b61388890919063ffffffff16565b90509392505050565b60008060006127d38989612a27565b905060006127e18a8a61174e565b90508461282c576128276128186127f78a611eb8565b61280a8a8a61387290919063ffffffff16565b61388890919063ffffffff16565b826138b490919063ffffffff16565b61286c565b61286b61285c61283b8a611eb8565b61284e8a8a61387290919063ffffffff16565b61388890919063ffffffff16565b8261389e90919063ffffffff16565b5b9250600060c960009054906101000a900473ffffffffffffffffffffffffffffffffffffffff1673ffffffffffffffffffffffffffffffffffffffff1663bd9e52008a6040518263ffffffff1660e01b81526004016128cb9190614ad9565b60606040518083038186803b1580156128e357600080fd5b505afa1580156128f7573d6000803e3d6000fd5b505050506040513d601f19601f8201168201806040525081019061291b91906146f0565b600001519050600083141561295f57612958606461294a670de0b6b3a76400008461387290919063ffffffff16565b61388890919063ffffffff16565b9450612a19565b600061298e85612980670de0b6b3a76400008661387290919063ffffffff16565b61388890919063ffffffff16565b9050612a156129da670de0b6b3a76400006129cc856129be86670de0b6b3a76400006138b490919063ffffffff16565b61387290919063ffffffff16565b61388890919063ffffffff16565b612a07670de0b6b3a76400006129f9858961387290919063ffffffff16565b61388890919063ffffffff16565b61389e90919063ffffffff16565b9550505b505050965096945050505050565b60008060c960009054906101000a900473ffffffffffffffffffffffffffffffffffffffff1673ffffffffffffffffffffffffffffffffffffffff1663294d499e6040518163ffffffff1660e01b815260040160006040518083038186803b158015612a9257600080fd5b505afa158015612aa6573d6000803e3d6000fd5b505050506040513d6000823e3d601f19601f82011682018060405250810190612acf9190614648565b90506000612add8585611323565b905060008251905060005b81811015612c7e57612c69612c5a6064612c4c868581518110612b34577f4e487b7100000000000000000000000000000000000000000000000000000000600052603260045260246000fd5b6020026020010151612c3e606460c960009054906101000a900473ffffffffffffffffffffffffffffffffffffffff1673ffffffffffffffffffffffffffffffffffffffff1663bd9e52008c8a81518110612bb8577f4e487b7100000000000000000000000000000000000000000000000000000000600052603260045260246000fd5b60200260200101516040518263ffffffff1660e01b8152600401612bdc9190614ad9565b60606040518083038186803b158015612bf457600080fd5b505afa158015612c08573d6000803e3d6000fd5b505050506040513d601f19601f82011682018060405250810190612c2c91906146f0565b6000015161387290919063ffffffff16565b61387290919063ffffffff16565b61388890919063ffffffff16565b8661389e90919063ffffffff16565b94508080612c769061543e565b915050612ae8565b50612c9360648561388890919063ffffffff16565b935050505092915050565b6060600060c960009054906101000a900473ffffffffffffffffffffffffffffffffffffffff1673ffffffffffffffffffffffffffffffffffffffff1663294d499e6040518163ffffffff1660e01b815260040160006040518083038186803b158015612d0a57600080fd5b505afa158015612d1e573d6000803e3d6000fd5b505050506040513d6000823e3d601f19601f82011682018060405250810190612d479190614648565b905060008151905060008167ffffffffffffffff811115612d91577f4e487b7100000000000000000000000000000000000000000000000000000000600052604160045260246000fd5b604051908082528060200260200182016040528015612dbf5781602001602082028036833780820191505090505b50905060008151905060005b81811015612f1a5760c960009054906101000a900473ffffffffffffffffffffffffffffffffffffffff1673ffffffffffffffffffffffffffffffffffffffff1663bd9e5200868381518110612e4a577f4e487b7100000000000000000000000000000000000000000000000000000000600052603260045260246000fd5b60200260200101516040518263ffffffff1660e01b8152600401612e6e9190614ad9565b60606040518083038186803b158015612e8657600080fd5b505afa158015612e9a573d6000803e3d6000fd5b505050506040513d601f19601f82011682018060405250810190612ebe91906146f0565b60000151838281518110612efb577f4e487b7100000000000000000000000000000000000000000000000000000000600052603260045260246000fd5b6020026020010181815250508080612f129061543e565b915050612dcb565b5060008167ffffffffffffffff811115612f5d577f4e487b7100000000000000000000000000000000000000000000000000000000600052604160045260246000fd5b604051908082528060200260200182016040528015612f8b5781602001602082028036833780820191505090505b50905060008151905060005b8181101561303857848181518110612fd8577f4e487b7100000000000000000000000000000000000000000000000000000000600052603260045260246000fd5b6020026020010151838281518110613019577f4e487b7100000000000000000000000000000000000000000000000000000000600052603260045260246000fd5b60200260200101818152505080806130309061543e565b915050612f97565b506130528260006001855161304d9190615294565b610778565b60008567ffffffffffffffff811115613094577f4e487b7100000000000000000000000000000000000000000000000000000000600052604160045260246000fd5b6040519080825280602002602001820160405280156130c25781602001602082028036833780820191505090505b50905060005b828110156131d95760005b858110156131c557848281518110613114577f4e487b7100000000000000000000000000000000000000000000000000000000600052603260045260246000fd5b6020026020010151878281518110613155577f4e487b7100000000000000000000000000000000000000000000000000000000600052603260045260246000fd5b602002602001015114613167576131b2565b808383815181106131a1577f4e487b7100000000000000000000000000000000000000000000000000000000600052603260045260246000fd5b6020026020010181815250506131c5565b80806131bd9061543e565b9150506130d3565b5080806131d19061543e565b9150506130c8565b508567ffffffffffffffff81111561321a577f4e487b7100000000000000000000000000000000000000000000000000000000600052604160045260246000fd5b6040519080825280602002602001820160405280156132485781602001602082028036833780820191505090505b50975060005b86811015613380576000828281518110613291577f4e487b7100000000000000000000000000000000000000000000000000000000600052603260045260246000fd5b6020026020010151905060006001838a6132ab9190615294565b6132b59190615294565b90508982815181106132f0577f4e487b7100000000000000000000000000000000000000000000000000000000600052603260045260246000fd5b60200260200101518b8281518110613331577f4e487b7100000000000000000000000000000000000000000000000000000000600052603260045260246000fd5b602002602001019073ffffffffffffffffffffffffffffffffffffffff16908173ffffffffffffffffffffffffffffffffffffffff1681525050505080806133789061543e565b91505061324e565b505050505050505090565b600080613398858561174e565b905060008114156133ad576000915050613411565b60006133e5670de0b6b3a76400006133d7866133c98a8a613418565b61387290919063ffffffff16565b61388890919063ffffffff16565b90508082116133f957600092505050613411565b61340c81836138b490919063ffffffff16565b925050505b9392505050565b600061359d670de0b6b3a764000061358f60c960009054906101000a900473ffffffffffffffffffffffffffffffffffffffff1673ffffffffffffffffffffffffffffffffffffffff1663d02641a0866040518263ffffffff1660e01b81526004016134849190614ad9565b60206040518083038186803b15801561349c57600080fd5b505afa1580156134b0573d6000803e3d6000fd5b505050506040513d601f19601f820116820180604052508101906134d49190614719565b60c960009054906101000a900473ffffffffffffffffffffffffffffffffffffffff1673ffffffffffffffffffffffffffffffffffffffff1663498b5ae888886040518363ffffffff1660e01b8152600401613531929190614af4565b60206040518083038186803b15801561354957600080fd5b505afa15801561355d573d6000803e3d6000fd5b505050506040513d601f19601f820116820180604052508101906135819190614719565b61387290919063ffffffff16565b61388890919063ffffffff16565b905092915050565b60008060006135b98a8a8a8a8860016127c4565b91509150613631670de0b6b3a7640000613623846136156135da8f8f613418565b613607670de0b6b3a76400006135f98d8f61387290919063ffffffff16565b61388890919063ffffffff16565b61389e90919063ffffffff16565b61387290919063ffffffff16565b61388890919063ffffffff16565b81101592505050979650505050505050565b600061365983836136548686612a27565b61338b565b905092915050565b613669613b5d565b73ffffffffffffffffffffffffffffffffffffffff1661368761220b565b73ffffffffffffffffffffffffffffffffffffffff16146136dd576040517f08c379a00000000000000000000000000000000000000000000000000000000081526004016136d490614cda565b60405180910390fd5b600073ffffffffffffffffffffffffffffffffffffffff168173ffffffffffffffffffffffffffffffffffffffff16141561374d576040517f08c379a000000000000000000000000000000000000000000000000000000000815260040161374490614c3a565b60405180910390fd5b8073ffffffffffffffffffffffffffffffffffffffff16609760009054906101000a900473ffffffffffffffffffffffffffffffffffffffff1673ffffffffffffffffffffffffffffffffffffffff167f8be0079c531659141344cd1fd0a4f28419497f9722a3daafe3b4186f6b6457e060405160405180910390a380609760006101000a81548173ffffffffffffffffffffffffffffffffffffffff021916908373ffffffffffffffffffffffffffffffffffffffff16021790555050565b60008061381a8484612a27565b905060006138556064613847670de0b6b3a76400006138398989611aa1565b61387290919063ffffffff16565b61388890919063ffffffff16565b9050600081141580156138685750818110155b9250505092915050565b6000818361388091906151a6565b905092915050565b600081836138969190615004565b905092915050565b600081836138ac9190614f44565b905092915050565b600081836138c29190615294565b905092915050565b6138d2613b5d565b73ffffffffffffffffffffffffffffffffffffffff166138f061220b565b73ffffffffffffffffffffffffffffffffffffffff1614613946576040517f08c379a000000000000000000000000000000000000000000000000000000000815260040161393d90614cda565b60405180910390fd5b50565b6000613953613c4e565b905061395e84613ca5565b60008351118061396b5750815b1561397c5761397a8484613d5e565b505b60006139aa7f4910fdfa16fed3260ed0e7147f7cc6da11a60208b5b9406d12a635614ffd914360001b613e42565b90508060000160009054906101000a900460ff16613b565760018160000160006101000a81548160ff021916908315150217905550613a7685836040516024016139f49190614ad9565b6040516020818303038152906040527f3659cfe6000000000000000000000000000000000000000000000000000000007bffffffffffffffffffffffffffffffffffffffffffffffffffffffff19166020820180517bffffffffffffffffffffffffffffffffffffffffffffffffffffffff8381831617835250505050613d5e565b5060008160000160006101000a81548160ff021916908315150217905550613a9c613c4e565b73ffffffffffffffffffffffffffffffffffffffff168273ffffffffffffffffffffffffffffffffffffffff1614613b09576040517f08c379a0000000000000000000000000000000000000000000000000000000008152600401613b0090614c1a565b60405180910390fd5b613b1285613ca5565b8473ffffffffffffffffffffffffffffffffffffffff167fbc7cd75a20ee27fd9adebab32041f755214dbc6bffa90cc0225b39da2e5c2d3b60405160405180910390a25b5050505050565b600033905090565b600060019054906101000a900460ff1680613b8b575060008054906101000a900460ff16155b613bca576040517f08c379a0000000000000000000000000000000000000000000000000000000008152600401613bc190614c9a565b60405180910390fd5b60008060019054906101000a900460ff161590508015613c1a576001600060016101000a81548160ff02191690831515021790555060016000806101000a81548160ff0219169083151502179055505b613c22613e4c565b613c2a613f25565b8015613c4b5760008060016101000a81548160ff0219169083151502179055505b50565b6000613c7c7f360894a13ba1a3210667c828492db98dca3e2076cc3735a920a3ca505d382bbc60001b6140a7565b60000160009054906101000a900473ffffffffffffffffffffffffffffffffffffffff16905090565b613cae816140b1565b613ced576040517f08c379a0000000000000000000000000000000000000000000000000000000008152600401613ce490614cba565b60405180910390fd5b80613d1a7f360894a13ba1a3210667c828492db98dca3e2076cc3735a920a3ca505d382bbc60001b6140a7565b60000160006101000a81548173ffffffffffffffffffffffffffffffffffffffff021916908373ffffffffffffffffffffffffffffffffffffffff16021790555050565b6060613d69836140b1565b613da8576040517f08c379a0000000000000000000000000000000000000000000000000000000008152600401613d9f90614cfa565b60405180910390fd5b6000808473ffffffffffffffffffffffffffffffffffffffff1684604051613dd09190614ac2565b600060405180830381855af49150503d8060008114613e0b576040519150601f19603f3d011682016040523d82523d6000602084013e613e10565b606091505b5091509150613e3882826040518060600160405280602781526020016157c3602791396140c4565b9250505092915050565b6000819050919050565b600060019054906101000a900460ff1680613e72575060008054906101000a900460ff16155b613eb1576040517f08c379a0000000000000000000000000000000000000000000000000000000008152600401613ea890614c9a565b60405180910390fd5b60008060019054906101000a900460ff161590508015613f01576001600060016101000a81548160ff02191690831515021790555060016000806101000a81548160ff0219169083151502179055505b8015613f225760008060016101000a81548160ff0219169083151502179055505b50565b600060019054906101000a900460ff1680613f4b575060008054906101000a900460ff16155b613f8a576040517f08c379a0000000000000000000000000000000000000000000000000000000008152600401613f8190614c9a565b60405180910390fd5b60008060019054906101000a900460ff161590508015613fda576001600060016101000a81548160ff02191690831515021790555060016000806101000a81548160ff0219169083151502179055505b6000613fe4613b5d565b905080609760006101000a81548173ffffffffffffffffffffffffffffffffffffffff021916908373ffffffffffffffffffffffffffffffffffffffff1602179055508073ffffffffffffffffffffffffffffffffffffffff16600073ffffffffffffffffffffffffffffffffffffffff167f8be0079c531659141344cd1fd0a4f28419497f9722a3daafe3b4186f6b6457e060405160405180910390a35080156140a45760008060016101000a81548160ff0219169083151502179055505b50565b6000819050919050565b600080823b905060008111915050919050565b606083156140d457829050614124565b6000835111156140e75782518084602001fd5b816040517f08c379a000000000000000000000000000000000000000000000000000000000815260040161411b9190614bf8565b60405180910390fd5b9392505050565b600061413e61413984614d83565b614d5e565b9050808382526020820190508285602086028201111561415d57600080fd5b60005b8581101561418d57816141738882614256565b845260208401935060208301925050600181019050614160565b5050509392505050565b60006141aa6141a584614daf565b614d5e565b905080838252602082019050828560208602820111156141c957600080fd5b60005b858110156141f957816141df8882614388565b8452602084019350602083019250506001810190506141cc565b5050509392505050565b600061421661421184614ddb565b614d5e565b90508281526020810184848401111561422e57600080fd5b614239848285615339565b509392505050565b60008135905061425081615738565b92915050565b60008151905061426581615738565b92915050565b60008151905061427a8161574f565b92915050565b600082601f83011261429157600080fd5b81516142a184826020860161412b565b91505092915050565b600082601f8301126142bb57600080fd5b81356142cb848260208601614197565b91505092915050565b6000813590506142e381615766565b92915050565b600082601f8301126142fa57600080fd5b813561430a848260208601614203565b91505092915050565b6000813590506143228161577d565b92915050565b60006060828403121561433a57600080fd5b6143446060614d5e565b905060006143548482850161439d565b60008301525060206143688482850161439d565b602083015250604061437c8482850161439d565b60408301525092915050565b60008135905061439781615794565b92915050565b6000815190506143ac81615794565b92915050565b6000815190506143c1816157ab565b92915050565b6000602082840312156143d957600080fd5b60006143e784828501614241565b91505092915050565b60006020828403121561440257600080fd5b600061441084828501614256565b91505092915050565b60006020828403121561442b57600080fd5b60006144398482850161426b565b91505092915050565b6000806040838503121561445557600080fd5b600061446385828601614241565b925050602061447485828601614241565b9150509250929050565b60008060008060008060c0878903121561449757600080fd5b60006144a589828a01614241565b96505060206144b689828a01614241565b95505060406144c789828a01614241565b94505060606144d889828a01614388565b93505060806144e989828a01614388565b92505060a06144fa89828a016142d4565b9150509295509295509295565b600080600080600080600060e0888a03121561452257600080fd5b60006145308a828b01614241565b97505060206145418a828b01614241565b96505060406145528a828b01614241565b95505060606145638a828b01614388565b94505060806145748a828b01614388565b93505060a06145858a828b01614388565b92505060c06145968a828b01614388565b91505092959891949750929550565b6000806000606084860312156145ba57600080fd5b60006145c886828701614241565b93505060206145d986828701614241565b92505060406145ea86828701614388565b9150509250925092565b6000806040838503121561460757600080fd5b600061461585828601614241565b925050602083013567ffffffffffffffff81111561463257600080fd5b61463e858286016142e9565b9150509250929050565b60006020828403121561465a57600080fd5b600082015167ffffffffffffffff81111561467457600080fd5b61468084828501614280565b91505092915050565b60008060006060848603121561469e57600080fd5b600084013567ffffffffffffffff8111156146b857600080fd5b6146c4868287016142aa565b93505060206146d586828701614313565b92505060406146e686828701614313565b9150509250925092565b60006060828403121561470257600080fd5b600061471084828501614328565b91505092915050565b60006020828403121561472b57600080fd5b60006147398482850161439d565b91505092915050565b60008060006060848603121561475757600080fd5b600061476586828701614388565b935050602061477686828701614241565b925050604061478786828701614241565b9150509250925092565b6000806000606084860312156147a657600080fd5b60006147b486828701614388565b93505060206147c586828701614388565b92505060406147d686828701614388565b9150509250925092565b6000602082840312156147f257600080fd5b6000614800848285016143b2565b91505092915050565b60006148158383614839565b60208301905092915050565b600061482d8383614aa4565b60208301905092915050565b614842816152c8565b82525050565b614851816152c8565b82525050565b600061486282614e2c565b61486c8185614e72565b935061487783614e0c565b8060005b838110156148a857815161488f8882614809565b975061489a83614e58565b92505060018101905061487b565b5085935050505092915050565b60006148c082614e37565b6148ca8185614e83565b93506148d583614e1c565b8060005b838110156149065781516148ed8882614821565b97506148f883614e65565b9250506001810190506148d9565b5085935050505092915050565b61491c816152ec565b82525050565b600061492d82614e42565b6149378185614e94565b9350614947818560208601615348565b80840191505092915050565b600061495e82614e4d565b6149688185614e9f565b9350614978818560208601615348565b61498181615514565b840191505092915050565b6000614999602f83614e9f565b91506149a482615532565b604082019050919050565b60006149bc602683614e9f565b91506149c782615581565b604082019050919050565b60006149df601183614e9f565b91506149ea826155d0565b602082019050919050565b6000614a02600283614e9f565b9150614a0d826155f9565b602082019050919050565b6000614a25602e83614e9f565b9150614a3082615622565b604082019050919050565b6000614a48602d83614e9f565b9150614a5382615671565b604082019050919050565b6000614a6b602083614e9f565b9150614a76826156c0565b602082019050919050565b6000614a8e602683614e9f565b9150614a99826156e9565b604082019050919050565b614aad81615322565b82525050565b614abc81615322565b82525050565b6000614ace8284614922565b915081905092915050565b6000602082019050614aee6000830184614848565b92915050565b6000604082019050614b096000830185614848565b614b166020830184614848565b9392505050565b6000606082019050614b326000830186614848565b614b3f6020830185614848565b614b4c6040830184614848565b949350505050565b60006020820190508181036000830152614b6e8184614857565b905092915050565b60006060820190508181036000830152614b908186614857565b90508181036020830152614ba481856148b5565b9050614bb36040830184614913565b949350505050565b60006020820190508181036000830152614bd581846148b5565b905092915050565b6000602082019050614bf26000830184614913565b92915050565b60006020820190508181036000830152614c128184614953565b905092915050565b60006020820190508181036000830152614c338161498c565b9050919050565b60006020820190508181036000830152614c53816149af565b9050919050565b60006020820190508181036000830152614c73816149d2565b9050919050565b60006020820190508181036000830152614c93816149f5565b9050919050565b60006020820190508181036000830152614cb381614a18565b9050919050565b60006020820190508181036000830152614cd381614a3b565b9050919050565b60006020820190508181036000830152614cf381614a5e565b9050919050565b60006020820190508181036000830152614d1381614a81565b9050919050565b6000602082019050614d2f6000830184614ab3565b92915050565b6000604082019050614d4a6000830185614ab3565b614d576020830184614ab3565b9392505050565b6000614d68614d79565b9050614d7482826153c4565b919050565b6000604051905090565b600067ffffffffffffffff821115614d9e57614d9d6154e5565b5b602082029050602081019050919050565b600067ffffffffffffffff821115614dca57614dc96154e5565b5b602082029050602081019050919050565b600067ffffffffffffffff821115614df657614df56154e5565b5b614dff82615514565b9050602081019050919050565b6000819050602082019050919050565b6000819050602082019050919050565b600081519050919050565b600081519050919050565b600081519050919050565b600081519050919050565b6000602082019050919050565b6000602082019050919050565b600082825260208201905092915050565b600082825260208201905092915050565b600081905092915050565b600082825260208201905092915050565b6000614ebb826152f8565b9150614ec6836152f8565b9250817f7fffffffffffffffffffffffffffffffffffffffffffffffffffffffffffffff03831360008312151615614f0157614f00615487565b5b817f8000000000000000000000000000000000000000000000000000000000000000038312600083121615614f3957614f38615487565b5b828201905092915050565b6000614f4f82615322565b9150614f5a83615322565b9250827fffffffffffffffffffffffffffffffffffffffffffffffffffffffffffffffff03821115614f8f57614f8e615487565b5b828201905092915050565b6000614fa5826152f8565b9150614fb0836152f8565b925082614fc057614fbf6154b6565b5b600160000383147f800000000000000000000000000000000000000000000000000000000000000083141615614ff957614ff8615487565b5b828205905092915050565b600061500f82615322565b915061501a83615322565b92508261502a576150296154b6565b5b828204905092915050565b6000808291508390505b600185111561507f5780860481111561505b5761505a615487565b5b600185161561506a5780820291505b808102905061507885615525565b945061503f565b94509492505050565b600061509382615322565b915061509e83615322565b92506150cb7fffffffffffffffffffffffffffffffffffffffffffffffffffffffffffffffff84846150d3565b905092915050565b6000826150e3576001905061519f565b816150f1576000905061519f565b8160018114615107576002811461511157615140565b600191505061519f565b60ff84111561512357615122615487565b5b8360020a91508482111561513a57615139615487565b5b5061519f565b5060208310610133831016604e8410600b84101617156151755782820a9050838111156151705761516f615487565b5b61519f565b6151828484846001615035565b9250905081840481111561519957615198615487565b5b81810290505b9392505050565b60006151b182615322565b91506151bc83615322565b9250817fffffffffffffffffffffffffffffffffffffffffffffffffffffffffffffffff04831182151516156151f5576151f4615487565b5b828202905092915050565b600061520b826152f8565b9150615216836152f8565b9250827f80000000000000000000000000000000000000000000000000000000000000000182126000841215161561525157615250615487565b5b827f7fffffffffffffffffffffffffffffffffffffffffffffffffffffffffffffff01821360008412161561528957615288615487565b5b828203905092915050565b600061529f82615322565b91506152aa83615322565b9250828210156152bd576152bc615487565b5b828203905092915050565b60006152d382615302565b9050919050565b60006152e582615302565b9050919050565b60008115159050919050565b6000819050919050565b600073ffffffffffffffffffffffffffffffffffffffff82169050919050565b6000819050919050565b600060ff82169050919050565b82818337600083830152505050565b60005b8381101561536657808201518184015260208101905061534b565b83811115615375576000848401525b50505050565b6000615386826152f8565b91507f80000000000000000000000000000000000000000000000000000000000000008214156153b9576153b8615487565b5b600182039050919050565b6153cd82615514565b810181811067ffffffffffffffff821117156153ec576153eb6154e5565b5b80604052505050565b6000615400826152f8565b91507f7fffffffffffffffffffffffffffffffffffffffffffffffffffffffffffffff82141561543357615432615487565b5b600182019050919050565b600061544982615322565b91507fffffffffffffffffffffffffffffffffffffffffffffffffffffffffffffffff82141561547c5761547b615487565b5b600182019050919050565b7f4e487b7100000000000000000000000000000000000000000000000000000000600052601160045260246000fd5b7f4e487b7100000000000000000000000000000000000000000000000000000000600052601260045260246000fd5b7f4e487b7100000000000000000000000000000000000000000000000000000000600052604160045260246000fd5b6000601f19601f8301169050919050565b60008160011c9050919050565b7f45524331393637557067726164653a207570677261646520627265616b73206660008201527f7572746865722075706772616465730000000000000000000000000000000000602082015250565b7f4f776e61626c653a206e6577206f776e657220697320746865207a65726f206160008201527f6464726573730000000000000000000000000000000000000000000000000000602082015250565b7f496e76616c696420435220746172676574000000000000000000000000000000600082015250565b7f4352000000000000000000000000000000000000000000000000000000000000600082015250565b7f496e697469616c697a61626c653a20636f6e747261637420697320616c72656160008201527f647920696e697469616c697a6564000000000000000000000000000000000000602082015250565b7f455243313936373a206e657720696d706c656d656e746174696f6e206973206e60008201527f6f74206120636f6e747261637400000000000000000000000000000000000000602082015250565b7f4f776e61626c653a2063616c6c6572206973206e6f7420746865206f776e6572600082015250565b7f416464726573733a2064656c65676174652063616c6c20746f206e6f6e2d636f60008201527f6e74726163740000000000000000000000000000000000000000000000000000602082015250565b615741816152c8565b811461574c57600080fd5b50565b615758816152da565b811461576357600080fd5b50565b61576f816152ec565b811461577a57600080fd5b50565b615786816152f8565b811461579157600080fd5b50565b61579d81615322565b81146157a857600080fd5b50565b6157b48161532c565b81146157bf57600080fd5b5056fe416464726573733a206c6f772d6c6576656c2064656c65676174652063616c6c206661696c6564a2646970667358221220dbb0bf58d11465cbc64b8ec2739819f73583b00870c6b46b456f048f907438e564736f6c63430008030033",
  "linkReferences": {},
  "deployedLinkReferences": {}
}